{"contracts/LdEduProgram.sol":{"LdEduProgram":{"abi":[{"inputs":[{"internalType":"address","name":"initialOwner","type":"address"}],"stateMutability":"nonpayable","type":"constructor"},{"anonymous":false,"inputs":[{"indexed":true,"internalType":"uint256","name":"applicationId","type":"uint256"}],"name":"ApplicationDenied","type":"event"},{"anonymous":false,"inputs":[{"indexed":true,"internalType":"uint256","name":"applicationId","type":"uint256"},{"indexed":true,"internalType":"address","name":"builder","type":"address"}],"name":"ApplicationSelected","type":"event"},{"anonymous":false,"inputs":[{"indexed":false,"internalType":"uint256","name":"newFee","type":"uint256"}],"name":"FeeUpdated","type":"event"},{"anonymous":false,"inputs":[{"indexed":true,"internalType":"uint256","name":"id","type":"uint256"},{"indexed":false,"internalType":"address","name":"maker","type":"address"},{"indexed":false,"internalType":"uint256","name":"amount","type":"uint256"}],"name":"FundsReclaimed","type":"event"},{"anonymous":false,"inputs":[{"indexed":true,"internalType":"uint256","name":"milestoneId","type":"uint256"},{"indexed":false,"internalType":"uint256","name":"reward","type":"uint256"}],"name":"MilestoneAccepted","type":"event"},{"anonymous":false,"inputs":[{"indexed":true,"internalType":"uint256","name":"milestoneId","type":"uint256"}],"name":"MilestoneRejected","type":"event"},{"anonymous":false,"inputs":[{"indexed":true,"internalType":"uint256","name":"milestoneId","type":"uint256"}],"name":"MilestoneSubmitted","type":"event"},{"anonymous":false,"inputs":[{"indexed":true,"internalType":"address","name":"previousOwner","type":"address"},{"indexed":true,"internalType":"address","name":"newOwner","type":"address"}],"name":"OwnershipTransferred","type":"event"},{"anonymous":false,"inputs":[{"indexed":true,"internalType":"uint256","name":"applicationId","type":"uint256"},{"indexed":false,"internalType":"uint256[]","name":"milestoneIds","type":"uint256[]"}],"name":"ProgramApplied","type":"event"},{"anonymous":false,"inputs":[{"indexed":true,"internalType":"uint256","name":"programId","type":"uint256"}],"name":"ProgramApproved","type":"event"},{"anonymous":false,"inputs":[{"indexed":true,"internalType":"uint256","name":"id","type":"uint256"},{"indexed":false,"internalType":"address","name":"builder","type":"address"},{"indexed":false,"internalType":"uint256","name":"amount","type":"uint256"}],"name":"ProgramClaimed","type":"event"},{"anonymous":false,"inputs":[{"indexed":true,"internalType":"uint256","name":"id","type":"uint256"},{"indexed":true,"internalType":"address","name":"maker","type":"address"},{"indexed":true,"internalType":"address","name":"validator","type":"address"},{"indexed":false,"internalType":"uint256","name":"price","type":"uint256"}],"name":"ProgramCreated","type":"event"},{"anonymous":false,"inputs":[{"indexed":false,"internalType":"uint256","name":"programId","type":"uint256"},{"indexed":false,"internalType":"uint256","name":"price","type":"uint256"},{"indexed":false,"internalType":"uint256","name":"startTime","type":"uint256"},{"indexed":false,"internalType":"uint256","name":"endTime","type":"uint256"},{"indexed":false,"internalType":"address","name":"newValidator","type":"address"}],"name":"ProgramEdited","type":"event"},{"inputs":[{"internalType":"uint256","name":"milestoneId","type":"uint256"}],"name":"acceptMilestone","outputs":[],"stateMutability":"nonpayable","type":"function"},{"inputs":[{"internalType":"uint256","name":"","type":"uint256"}],"name":"applications","outputs":[{"internalType":"uint256","name":"id","type":"uint256"},{"internalType":"address","name":"builder","type":"address"},{"internalType":"uint256","name":"programId","type":"uint256"},{"internalType":"enum LdEduProgram.ApplicationStatus","name":"status","type":"uint8"}],"stateMutability":"view","type":"function"},{"inputs":[{"internalType":"uint256","name":"programId","type":"uint256"}],"name":"approveProgram","outputs":[],"stateMutability":"nonpayable","type":"function"},{"inputs":[{"internalType":"string","name":"_name","type":"string"},{"internalType":"uint256","name":"_price","type":"uint256"},{"internalType":"string[]","name":"_keywords","type":"string[]"},{"internalType":"uint256","name":"_startTime","type":"uint256"},{"internalType":"uint256","name":"_endTime","type":"uint256"},{"internalType":"address","name":"_validator","type":"address"},{"internalType":"string","name":"_summary","type":"string"},{"internalType":"string","name":"_description","type":"string"},{"internalType":"string[]","name":"_links","type":"string[]"}],"name":"createEduProgram","outputs":[],"stateMutability":"payable","type":"function"},{"inputs":[{"internalType":"uint256","name":"applicationId","type":"uint256"}],"name":"denyApplication","outputs":[],"stateMutability":"nonpayable","type":"function"},{"inputs":[{"internalType":"uint256","name":"","type":"uint256"}],"name":"eduPrograms","outputs":[{"internalType":"uint256","name":"id","type":"uint256"},{"internalType":"string","name":"name","type":"string"},{"internalType":"uint256","name":"price","type":"uint256"},{"internalType":"uint256","name":"startTime","type":"uint256"},{"internalType":"uint256","name":"endTime","type":"uint256"},{"internalType":"string","name":"summary","type":"string"},{"internalType":"string","name":"description","type":"string"},{"internalType":"address","name":"maker","type":"address"},{"internalType":"address","name":"validator","type":"address"},{"internalType":"bool","name":"approve","type":"bool"},{"internalType":"bool","name":"claimed","type":"bool"},{"internalType":"address","name":"builder","type":"address"}],"stateMutability":"view","type":"function"},{"inputs":[],"name":"getFee","outputs":[{"internalType":"uint256","name":"","type":"uint256"}],"stateMutability":"view","type":"function"},{"inputs":[{"internalType":"uint256","name":"","type":"uint256"}],"name":"milestones","outputs":[{"internalType":"uint256","name":"id","type":"uint256"},{"internalType":"string","name":"name","type":"string"},{"internalType":"string","name":"description","type":"string"},{"internalType":"uint256","name":"price","type":"uint256"},{"internalType":"uint256","name":"applicationId","type":"uint256"},{"internalType":"enum LdEduProgram.MilestoneStatus","name":"status","type":"uint8"}],"stateMutability":"view","type":"function"},{"inputs":[],"name":"nextApplicationId","outputs":[{"internalType":"uint256","name":"","type":"uint256"}],"stateMutability":"view","type":"function"},{"inputs":[],"name":"nextMilestoneId","outputs":[{"internalType":"uint256","name":"","type":"uint256"}],"stateMutability":"view","type":"function"},{"inputs":[],"name":"nextProgramId","outputs":[{"internalType":"uint256","name":"","type":"uint256"}],"stateMutability":"view","type":"function"},{"inputs":[],"name":"owner","outputs":[{"internalType":"address","name":"","type":"address"}],"stateMutability":"view","type":"function"},{"inputs":[{"internalType":"uint256","name":"programId","type":"uint256"}],"name":"reclaimFunds","outputs":[],"stateMutability":"nonpayable","type":"function"},{"inputs":[{"internalType":"uint256","name":"milestoneId","type":"uint256"}],"name":"rejectMilestone","outputs":[],"stateMutability":"nonpayable","type":"function"},{"inputs":[],"name":"renounceOwnership","outputs":[],"stateMutability":"nonpayable","type":"function"},{"inputs":[{"internalType":"uint256","name":"applicationId","type":"uint256"}],"name":"selectApplication","outputs":[],"stateMutability":"nonpayable","type":"function"},{"inputs":[{"internalType":"uint256","name":"_fee","type":"uint256"}],"name":"setFee","outputs":[],"stateMutability":"nonpayable","type":"function"},{"inputs":[{"internalType":"uint256","name":"programId","type":"uint256"},{"components":[{"internalType":"string","name":"name","type":"string"},{"internalType":"string","name":"description","type":"string"},{"internalType":"uint256","name":"price","type":"uint256"}],"internalType":"struct LdEduProgram.MilestoneInput[]","name":"milestonesInput","type":"tuple[]"}],"name":"submitApplication","outputs":[],"stateMutability":"nonpayable","type":"function"},{"inputs":[{"internalType":"uint256","name":"milestoneId","type":"uint256"},{"internalType":"string[]","name":"links","type":"string[]"}],"name":"submitMilestone","outputs":[],"stateMutability":"nonpayable","type":"function"},{"inputs":[{"internalType":"address","name":"newOwner","type":"address"}],"name":"transferOwnership","outputs":[],"stateMutability":"nonpayable","type":"function"},{"inputs":[{"internalType":"uint256","name":"programId","type":"uint256"},{"internalType":"uint256","name":"price","type":"uint256"},{"internalType":"uint256","name":"startTime","type":"uint256"},{"internalType":"uint256","name":"endTime","type":"uint256"},{"internalType":"address","name":"newValidator","type":"address"}],"name":"updateProgram","outputs":[],"stateMutability":"nonpayable","type":"function"}],"evm":{"bytecode":{"linkReferences":{},"object":"6080346200007e57601f620022ee38819003918201601f19168301916001600160401b0383118484101762000083578084926020946040528339810103126200007e57516001600160a01b03811681036200007e576200006e90620000643362000099565b6001805562000099565b60405161220d9081620000e18239f35b600080fd5b634e487b7160e01b600052604160045260246000fd5b600080546001600160a01b039283166001600160a01b03198216811783559216907f8be0079c531659141344cd1fd0a4f28419497f9722a3daafe3b4186f6b6457e09080a356fe608080604052600436101561001357600080fd5b60003560e01c9081631b5323f7146119d8575080631bc09f81146119065780633eeeefb714611392578063625338cb1461137457806369fe0e2d14611328578063715018a6146112cf57806378ea19b014610ada57806389001eb1146109775780638da5cb5b1461094e5780639201f66314610930578063b0d456ac1461089b578063ba1e64c614610713578063ba71b330146106f5578063caaed3021461064b578063ced72f871461062d578063d613fd241461052f578063db74ce3a14610498578063dfefadff14610436578063e89e4ed614610384578063f2fde38b146102be5763f9f161a81461010657600080fd5b346102b95760203660031901126102b957600435610122612181565b8060005260026020526040600020600a810190815461014760ff8260a01c1615612071565b60ff8160a81c1661028257600582015442111561024557600982019260018060a01b039182855416938433036102085760ff60a81b19909116600160a81b17909155600301805490926000918291829182918282156101ff575bf1156101f3579154905460408051929093166001600160a01b0316825260208201527fd37c0b9c7560299a7c963d03165111d712663805228e5ffca03d540c5d6e410e91819081015b0390a260018055005b6040513d6000823e3d90fd5b506108fc6101a1565b60405162461bcd60e51b81526020600482015260156024820152742737ba103a343290383937b3b930b69036b0b5b2b960591b6044820152606490fd5b60405162461bcd60e51b8152602060048201526015602482015274141c9bd9dc985b481b9bdd08195b991959081e595d605a1b6044820152606490fd5b60405162461bcd60e51b815260206004820152600f60248201526e105b1c9958591e4818db185a5b5959608a1b6044820152606490fd5b600080fd5b346102b95760203660031901126102b9576004356001600160a01b03818116918290036102b9576102ed611e8b565b811561033057600054826001600160601b0360a01b821617600055167f8be0079c531659141344cd1fd0a4f28419497f9722a3daafe3b4186f6b6457e0600080a3005b60405162461bcd60e51b815260206004820152602660248201527f4f776e61626c653a206e6577206f776e657220697320746865207a65726f206160448201526564647265737360d01b6064820152608490fd5b346102b95760203660031901126102b957600435600052600460205260406000208054906103b460018201611da5565b906103c160028201611da5565b906104016003820154926103f360ff60066005860154950154169560405197885260c0602089015260c0880190611e4b565b908682036040880152611e4b565b9160608501526080840152600482101561042057829160a08301520390f35b634e487b7160e01b600052602160045260246000fd5b346102b95760203660031901126102b95760043560005260036020526040600020805460018060a01b036001830154169160ff600360028301549201541692604051928352602083015260408201526003821015610420576080916060820152f35b346102b95760203660031901126102b95760043580600052600360205260036040600020600281015460005260026020526104e460018060a01b03600a60406000200154163314611ff9565b01805460ff81169060038210156104205761050160019215612104565b60ff19161790557fa23f1fa4eaecd6e0d93c22f8d38992d5f4c441c93fff05c827b21346c0c7507e600080a2005b346102b95760203660031901126102b9576004356000526002602052604060002080546001820161055f90611da5565b6003830154600484015460058501549294909161057e60068301611da5565b61058a60078401611da5565b90600160a01b6001900392836009860154169684600a87015496600b015416966040519a8b9a8b526101808060208d01528b016105c691611e4b565b9260408b015260608a0152608089015287810360a08901526105e791611e4b565b86810360c08801526105f891611e4b565b9360e086015281166101008501528060a01c60ff16151561012085015260a81c60ff1615156101408401526101608301520390f35b346102b95760003660031901126102b9576020600854604051908152f35b346102b95760203660031901126102b957600435806000526004602052600660406000206005810154600052600360205260026040600020015460005260026020526106a860018060a01b03600a60406000200154163314611ff9565b01805460ff8116906004821015610420576106c7600160039314612144565b60ff19161790557f2268eb603324c1c4f7a3cb60c7e82795fd192cf05601cda427b385d4fcc42a5e600080a2005b346102b95760003660031901126102b9576020600754604051908152f35b346102b9576020806003193601126102b957600435610730612181565b806000526004825260406000209160058301546000526003815260026040600020015460005260028152604060002060018060a01b039061077882600a830154163314611ff9565b60068501805460ff81169060048210156104205761079a600160029314612144565b60ff1916179055600b81019360008080806003878a54169a01998a54905af13d15610896573d6107c981611c64565b906107d76040519283611c43565b81526000863d92013e5b1561085b577fb7ab333173a25d27082c5bcc7f95d330190ebf0d3539c7761583c5f5f6ce15667f7099040ff4abf6b015bd1004cbf11ec796c3d4abcaec3514db1c93599297d39f95965494604051868152a254935460408051929091166001600160a01b03168252602082019290925290819081016101ea565b60405162461bcd60e51b8152600481018590526013602482015272115512081d1c985b9cd9995c8819985a5b1959606a1b6044820152606490fd5b6107e1565b346102b95760203660031901126102b9576004356000818152600260205260409020600a8101805490916108ea906005906108e0336001600160a01b03861614611ff9565b0154421115612035565b6108fa60ff8260a01c1615612071565b60ff60a01b1916600160a01b1790557f3ca3d218d64ea45c582c714d84dcdfd87f8d3cb3a3449fe533c2cb6d614ab766600080a2005b346102b95760003660031901126102b9576020600654604051908152f35b346102b95760003660031901126102b9576000546040516001600160a01b039091168152602090f35b346102b95760a03660031901126102b9576024356001600160a01b036004356084358281169060643590604435908390036102b9578360005260026020526040600020946009860154163303610aa65781811015610a72578515610a3d5785600a867fe3d59d03839a10c8a5a85dd0d7e5a4ac45445821c5176529d2745adf6915a16198600360a099015583600482015584600582015501846001600160601b03881b8254161790556040519485526020850152604084015260608301526080820152a1005b60405162461bcd60e51b815260206004820152600d60248201526c496e76616c696420707269636560981b6044820152606490fd5b60405162461bcd60e51b815260206004820152600c60248201526b496e76616c69642074696d6560a01b6044820152606490fd5b60405162461bcd60e51b815260206004820152600c60248201526b27b7363c9031b932b0ba37b960a11b6044820152606490fd5b6101203660031901126102b9576004356001600160401b0381116102b957610b06903690600401611cb6565b6044356001600160401b0381116102b957610b25903690600401611ceb565b9060a435906001600160a01b03821682036102b95760c4356001600160401b0381116102b957610b59903690600401611cb6565b60e4356001600160401b0381116102b957610b78903690600401611cb6565b610104356001600160401b0381116102b957610b98903690600401611ceb565b916024353403611274576084356064351015611215576007549560405194856101c08101106001600160401b036101c088011117610fab576101c08601604052878652602086015260408501526024356060850152606435608085015260843560a085015260c084015260e08301526101008201523361012082015260018060a01b0382166101408201526000610160820152600061018082015260006101a082015282600052600260205260406000208151815560208201518051906001600160401b038211610fab578190610c7f82610c766001870154611d6b565b60018701611efa565b602090601f83116001146111a357600092611198575b50508160011b916000199060031b1c19161760018201555b6002810160408301516020815191610cc58385611f3f565b01916000526020600020916000905b8282106110bb5750505050606082015160038201556080820151600482015560a0820151600582015560c08201518051906001600160401b038211610fab578190610d2f82610d266006870154611d6b565b60068701611efa565b602090601f83116001146110495760009261103e575b50508160011b916000199060031b1c19161760068201555b60e08201518051906001600160401b038211610fab578190610d8f82610d866007870154611d6b565b60078701611efa565b602090601f8311600114610fcc57600092610fc1575b50508160011b916000199060031b1c19161760078201555b600881016101008301516020815191610dd68385611f3f565b01916000526020600020916000905b828210610ec857505050506101208201516009820180546001600160a01b03199081166001600160a01b0393841617909155610140840151600a840180546101608701516101808801516001600160b01b03199092169386169390931792151560a01b60ff60a01b169290921791151560a81b60ff60a81b169190911790556101a090930151600b9290920180549093169116179055600754610e8790611fd4565b60075560405160243581526001600160a01b039091169133917f808c887919683a350ed55b3499f97ed7f4093ecc5e131fadb8b075a85457af3a90602090a4005b80518051906001600160401b038211610fab57610eef82610ee98854611d6b565b88611efa565b602090601f8311600114610f3b579282600194936020938695600092610f30575b5050600019600383901b1c191690841b1787555b01940191019092610de5565b015190508d80610f10565b908660005260206000209160005b601f1985168110610f93575083602093600196938796938794601f19811610610f7a575b505050811b018755610f24565b015160001960f88460031b161c191690558d8080610f6d565b91926020600181928685015181550194019201610f49565b634e487b7160e01b600052604160045260246000fd5b015190508680610da5565b9250600784016000526020600020906000935b601f1984168510611023576001945083601f1981161061100a575b505050811b016007820155610dbd565b015160001960f88460031b161c19169055868080610ffa565b81810151835560209485019460019093019290910190610fdf565b015190508680610d45565b9250600684016000526020600020906000935b601f19841685106110a0576001945083601f19811610611087575b505050811b016006820155610d5d565b015160001960f88460031b161c19169055868080611077565b8181015183556020948501946001909301929091019061105c565b80518051906001600160401b038211610fab576110dc82610ee98854611d6b565b602090601f831160011461112857928260019493602093869560009261111d575b5050600019600383901b1c191690841b1787555b01940191019092610cd4565b015190508d806110fd565b908660005260206000209160005b601f1985168110611180575083602093600196938796938794601f19811610611167575b505050811b018755611111565b015160001960f88460031b161c191690558d808061115a565b91926020600181928685015181550194019201611136565b015190508680610c95565b9250600184016000526020600020906000935b601f19841685106111fa576001945083601f198116106111e1575b505050811b016001820155610cad565b015160001960f88460031b161c191690558680806111d1565b818101518355602094850194600190930192909101906111b6565b60405162461bcd60e51b815260206004820152603160248201527f5468652053746172742074696d65206d757374206265206561726c69657220746044820152703430b7103a34329032b732103a34b6b29760791b6064820152608490fd5b60405162461bcd60e51b815260206004820152602d60248201527f546865204554482073656e7420646f6573206e6f74206d61746368207468652060448201526c70726f6772616d20707269636560981b6064820152608490fd5b346102b95760003660031901126102b9576112e8611e8b565b600080546001600160a01b0319811682556001600160a01b03167f8be0079c531659141344cd1fd0a4f28419497f9722a3daafe3b4186f6b6457e08280a3005b346102b95760203660031901126102b9577f8c4d35e54a3f2ef1134138fd8ea3daee6a3c89e10d2665996babdf70261e2c766020600435611367611e8b565b80600855604051908152a1005b346102b95760003660031901126102b9576020600554604051908152f35b346102b9576113a036611bf4565b91908160005260026020526113be6005604060002001544210612035565b600554926113cb84611fd4565b6005556113d781611cd4565b916113e56040519384611c43565b818352601f196113f483611cd4565b0136602085013760005b8281106114f65750505060405191608083018381106001600160401b03821117610fab57604052838352600360208401933385526040810192835260608101926000845286600052826020526040600020915182556001958683019060018060a01b039051166001600160601b0360a01b82541617905551600282015501905160038110156104205760ff8019835416911617905560405191602083019060208452825180925260206040850193019160005b8181106114e157867f09bbfa816c7e14e18babfca167b7eb6d09305cca69bdb107b37b18c6a6082b2687870388a2005b835185526020948501949093019282016114b1565b6006549061150382611fd4565b60065561151a6115148286866120b0565b806120d2565b906115336115298488886120b0565b60208101906120d2565b916040611541868a8a6120b0565b013590604051928360208101106001600160401b03602086011117610fab576020840160405260008452604051958660e08101106001600160401b0360e089011117610fab576115af926115a09160e089016040528a89523691611c7f565b94602087019586523691611c7f565b6040850152606084015260808301528860a0830152600060c083015283600052600460205260406000209082518255518051906001600160401b038211610fab57819061160382610c766001870154611d6b565b602090601f831160011461189457600092611889575b50508160011b916000199060031b1c19161760018201555b60408201518051906001600160401b038211610fab5781906116638261165a6002870154611d6b565b60028701611efa565b602090601f83116001146118175760009261180c575b50508160011b916000199060031b1c19161760028201555b6060820151600382015560048101608083015160208151916116b38385611f3f565b019160005260206000206000925b82841061172b5750505050600660c09160a084015160058201550191015160048110156104205760ff801983541691161790558451811015611715576117109160208260051b87010152611fd4565b6113fe565b634e487b7160e01b600052603260045260246000fd5b80518051906001600160401b038211610fab576117528261174c8654611d6b565b86611efa565b602090601f831160011461179e579282600194936020938695600092611793575b5050600019600383901b1c191690841b1785555b019201930192906116c1565b015190503880611773565b90601f198316918560005260206000209260005b8181106117f457509360209360019693879693838895106117db575b505050811b018555611787565b015160001960f88460031b161c191690553880806117ce565b929360206001819287860151815501950193016117b2565b015190508b80611679565b9250600284016000526020600020906000935b601f198416851061186e576001945083601f19811610611855575b505050811b016002820155611691565b015160001960f88460031b161c191690558b8080611845565b8181015183556020948501946001909301929091019061182a565b015190508b80611619565b9250600184016000526020600020906000935b601f19841685106118eb576001945083601f198116106118d2575b505050811b016001820155611631565b015160001960f88460031b161c191690558b80806118c2565b818101518355602094850194600190930192909101906118a7565b346102b95760203660031901126102b9576004358060005260036020526040600020600281015460005260026020526040600020600a810160018060a01b0392611954848354163314611ff9565b600381019081549160ff831660038110156104205760019361197860029215612104565b60ff1916179055018054600b90930180546001600160a01b03191693851693909317909255805460ff60a01b1916600160a01b1790555416907f336d0775892406cc9e5ccdd5582b00b43d67d677ea060a1b91e01a637d4ba55a600080a3005b346102b9576119e636611bf4565b826000949293945260209260048452604060002093600585015460005260039485825260406000209460ff87870154168781101561042057600203611bb257506001948501546001600160a01b03163303611b7f5760068101805460ff19168617905560040191611a578484611f3f565b600092835281832090805b858510611a9157887f6670b87ece4bf5ff8e422301a14d59d43b4f9d17c2f96c6c37ca8a073efda7f5600080a2005b611a9b81836120d2565b6001600160401b038193929311610fab57889181611ac48893611abe8954611d6b565b89611efa565b6000601f8211600114611b065781908596600092611afb575b5050600019828e1b1c191690841b1786555b01930194019391611a62565b013590508e80611add565b909194601f19831691886000528d856000209360005b818110611b5c57509185939188999689969410611b42575b50505050811b018655611aef565b60f885600019921b161c199101351690558e80808f611b34565b948793809893508597999295013581550195019201918d8d9694928b9694611b1c565b60405162461bcd60e51b815260048101839052600b60248201526a2737ba10313ab4b63232b960a91b6044820152606490fd5b62461bcd60e51b815260048101839052601860248201527f4170706c69636174696f6e206e6f742073656c656374656400000000000000006044820152606490fd5b60406003198201126102b957600435916024356001600160401b03928382116102b957806023830112156102b95781600401359384116102b95760248460051b830101116102b9576024019190565b90601f801991011681019081106001600160401b03821117610fab57604052565b6001600160401b038111610fab57601f01601f191660200190565b929192611c8b82611c64565b91611c996040519384611c43565b8294818452818301116102b9578281602093846000960137010152565b9080601f830112156102b957816020611cd193359101611c7f565b90565b6001600160401b038111610fab5760051b60200190565b9080601f830112156102b957813590611d0382611cd4565b92611d116040519485611c43565b828452602092838086019160051b830101928084116102b957848301915b848310611d3f5750505050505090565b82356001600160401b0381116102b9578691611d6084848094890101611cb6565b815201920191611d2f565b90600182811c92168015611d9b575b6020831014611d8557565b634e487b7160e01b600052602260045260246000fd5b91607f1691611d7a565b9060405191826000825492611db984611d6b565b908184526001948581169081600014611e285750600114611de5575b5050611de392500383611c43565b565b9093915060005260209081600020936000915b818310611e10575050611de393508201013880611dd5565b85548884018501529485019487945091830191611df8565b915050611de394506020925060ff191682840152151560051b8201013880611dd5565b919082519283825260005b848110611e77575050826000602080949584010152601f8019910116010190565b602081830181015184830182015201611e56565b6000546001600160a01b03163303611e9f57565b606460405162461bcd60e51b815260206004820152602060248201527f4f776e61626c653a2063616c6c6572206973206e6f7420746865206f776e65726044820152fd5b818110611eee575050565b60008155600101611ee3565b9190601f8111611f0957505050565b611de3926000526020600020906020601f840160051c83019310611f35575b601f0160051c0190611ee3565b9091508190611f28565b680100000000000000008211610fab57805491808255828110611f6157505050565b600091825260209081832093840193015b838110611f7f5750505050565b8083611f8d60019354611d6b565b80611f9b575b505001611f72565b601f8082118514611fb257505081555b8338611f93565b611fcb90848452868420920160051c8201858301611ee3565b81835555611fab565b6000198114611fe35760010190565b634e487b7160e01b600052601160045260246000fd5b1561200057565b60405162461bcd60e51b815260206004820152600d60248201526c2737ba103b30b634b230ba37b960991b6044820152606490fd5b1561203c57565b60405162461bcd60e51b815260206004820152600d60248201526c141c9bd9dc985b48195b991959609a1b6044820152606490fd5b1561207857565b60405162461bcd60e51b815260206004820152601060248201526f105b1c9958591e48185c1c1c9bdd995960821b6044820152606490fd5b91908110156117155760051b81013590605e19813603018212156102b9570190565b903590601e19813603018212156102b957018035906001600160401b0382116102b9576020019181360383136102b957565b1561210b57565b60405162461bcd60e51b8152602060048201526011602482015270105b1c9958591e48195d985b1d585d1959607a1b6044820152606490fd5b1561214b57565b60405162461bcd60e51b815260206004820152600e60248201526d496e76616c69642073746174757360901b6044820152606490fd5b600260015414612192576002600155565b60405162461bcd60e51b815260206004820152601f60248201527f5265656e7472616e637947756172643a207265656e7472616e742063616c6c006044820152606490fdfea2646970667358221220d3f407703cf7d379c6c18917a67eded87168f0391e1d4c9f42eb2fe7c3cf9f4c64736f6c63430008140033","opcodes":"PUSH1 0x80 CALLVALUE PUSH3 0x7E JUMPI PUSH1 0x1F PUSH3 0x22EE CODESIZE DUP2 SWAP1 SUB SWAP2 DUP3 ADD PUSH1 0x1F NOT AND DUP4 ADD SWAP2 PUSH1 0x1 PUSH1 0x1 PUSH1 0x40 SHL SUB DUP4 GT DUP5 DUP5 LT OR PUSH3 0x83 JUMPI DUP1 DUP5 SWAP3 PUSH1 0x20 SWAP5 PUSH1 0x40 MSTORE DUP4 CODECOPY DUP2 ADD SUB SLT PUSH3 0x7E JUMPI MLOAD PUSH1 0x1 PUSH1 0x1 PUSH1 0xA0 SHL SUB DUP2 AND DUP2 SUB PUSH3 0x7E JUMPI PUSH3 0x6E SWAP1 PUSH3 0x64 CALLER PUSH3 0x99 JUMP JUMPDEST PUSH1 0x1 DUP1 SSTORE PUSH3 0x99 JUMP JUMPDEST PUSH1 0x40 MLOAD PUSH2 0x220D SWAP1 DUP2 PUSH3 0xE1 DUP3 CODECOPY RETURN JUMPDEST PUSH1 0x0 DUP1 REVERT JUMPDEST PUSH4 0x4E487B71 PUSH1 0xE0 SHL PUSH1 0x0 MSTORE PUSH1 0x41 PUSH1 0x4 MSTORE PUSH1 0x24 PUSH1 0x0 REVERT JUMPDEST PUSH1 0x0 DUP1 SLOAD PUSH1 0x1 PUSH1 0x1 PUSH1 0xA0 SHL SUB SWAP3 DUP4 AND PUSH1 0x1 PUSH1 0x1 PUSH1 0xA0 SHL SUB NOT DUP3 AND DUP2 OR DUP4 SSTORE SWAP3 AND SWAP1 PUSH32 0x8BE0079C531659141344CD1FD0A4F28419497F9722A3DAAFE3B4186F6B6457E0 SWAP1 DUP1 LOG3 JUMP INVALID PUSH1 0x80 DUP1 PUSH1 0x40 MSTORE PUSH1 0x4 CALLDATASIZE LT ISZERO PUSH2 0x13 JUMPI PUSH1 0x0 DUP1 REVERT JUMPDEST PUSH1 0x0 CALLDATALOAD PUSH1 0xE0 SHR SWAP1 DUP2 PUSH4 0x1B5323F7 EQ PUSH2 0x19D8 JUMPI POP DUP1 PUSH4 0x1BC09F81 EQ PUSH2 0x1906 JUMPI DUP1 PUSH4 0x3EEEEFB7 EQ PUSH2 0x1392 JUMPI DUP1 PUSH4 0x625338CB EQ PUSH2 0x1374 JUMPI DUP1 PUSH4 0x69FE0E2D EQ PUSH2 0x1328 JUMPI DUP1 PUSH4 0x715018A6 EQ PUSH2 0x12CF JUMPI DUP1 PUSH4 0x78EA19B0 EQ PUSH2 0xADA JUMPI DUP1 PUSH4 0x89001EB1 EQ PUSH2 0x977 JUMPI DUP1 PUSH4 0x8DA5CB5B EQ PUSH2 0x94E JUMPI DUP1 PUSH4 0x9201F663 EQ PUSH2 0x930 JUMPI DUP1 PUSH4 0xB0D456AC EQ PUSH2 0x89B JUMPI DUP1 PUSH4 0xBA1E64C6 EQ PUSH2 0x713 JUMPI DUP1 PUSH4 0xBA71B330 EQ PUSH2 0x6F5 JUMPI DUP1 PUSH4 0xCAAED302 EQ PUSH2 0x64B JUMPI DUP1 PUSH4 0xCED72F87 EQ PUSH2 0x62D JUMPI DUP1 PUSH4 0xD613FD24 EQ PUSH2 0x52F JUMPI DUP1 PUSH4 0xDB74CE3A EQ PUSH2 0x498 JUMPI DUP1 PUSH4 0xDFEFADFF EQ PUSH2 0x436 JUMPI DUP1 PUSH4 0xE89E4ED6 EQ PUSH2 0x384 JUMPI DUP1 PUSH4 0xF2FDE38B EQ PUSH2 0x2BE JUMPI PUSH4 0xF9F161A8 EQ PUSH2 0x106 JUMPI PUSH1 0x0 DUP1 REVERT JUMPDEST CALLVALUE PUSH2 0x2B9 JUMPI PUSH1 0x20 CALLDATASIZE PUSH1 0x3 NOT ADD SLT PUSH2 0x2B9 JUMPI PUSH1 0x4 CALLDATALOAD PUSH2 0x122 PUSH2 0x2181 JUMP JUMPDEST DUP1 PUSH1 0x0 MSTORE PUSH1 0x2 PUSH1 0x20 MSTORE PUSH1 0x40 PUSH1 0x0 KECCAK256 PUSH1 0xA DUP2 ADD SWAP1 DUP2 SLOAD PUSH2 0x147 PUSH1 0xFF DUP3 PUSH1 0xA0 SHR AND ISZERO PUSH2 0x2071 JUMP JUMPDEST PUSH1 0xFF DUP2 PUSH1 0xA8 SHR AND PUSH2 0x282 JUMPI PUSH1 0x5 DUP3 ADD SLOAD TIMESTAMP GT ISZERO PUSH2 0x245 JUMPI PUSH1 0x9 DUP3 ADD SWAP3 PUSH1 0x1 DUP1 PUSH1 0xA0 SHL SUB SWAP2 DUP3 DUP6 SLOAD AND SWAP4 DUP5 CALLER SUB PUSH2 0x208 JUMPI PUSH1 0xFF PUSH1 0xA8 SHL NOT SWAP1 SWAP2 AND PUSH1 0x1 PUSH1 0xA8 SHL OR SWAP1 SWAP2 SSTORE PUSH1 0x3 ADD DUP1 SLOAD SWAP1 SWAP3 PUSH1 0x0 SWAP2 DUP3 SWAP2 DUP3 SWAP2 DUP3 SWAP2 DUP3 DUP3 ISZERO PUSH2 0x1FF JUMPI JUMPDEST CALL ISZERO PUSH2 0x1F3 JUMPI SWAP2 SLOAD SWAP1 SLOAD PUSH1 0x40 DUP1 MLOAD SWAP3 SWAP1 SWAP4 AND PUSH1 0x1 PUSH1 0x1 PUSH1 0xA0 SHL SUB AND DUP3 MSTORE PUSH1 0x20 DUP3 ADD MSTORE PUSH32 0xD37C0B9C7560299A7C963D03165111D712663805228E5FFCA03D540C5D6E410E SWAP2 DUP2 SWAP1 DUP2 ADD JUMPDEST SUB SWAP1 LOG2 PUSH1 0x1 DUP1 SSTORE STOP JUMPDEST PUSH1 0x40 MLOAD RETURNDATASIZE PUSH1 0x0 DUP3 RETURNDATACOPY RETURNDATASIZE SWAP1 REVERT JUMPDEST POP PUSH2 0x8FC PUSH2 0x1A1 JUMP JUMPDEST PUSH1 0x40 MLOAD PUSH3 0x461BCD PUSH1 0xE5 SHL DUP2 MSTORE PUSH1 0x20 PUSH1 0x4 DUP3 ADD MSTORE PUSH1 0x15 PUSH1 0x24 DUP3 ADD MSTORE PUSH21 0x2737BA103A343290383937B3B930B69036B0B5B2B9 PUSH1 0x59 SHL PUSH1 0x44 DUP3 ADD MSTORE PUSH1 0x64 SWAP1 REVERT JUMPDEST PUSH1 0x40 MLOAD PUSH3 0x461BCD PUSH1 0xE5 SHL DUP2 MSTORE PUSH1 0x20 PUSH1 0x4 DUP3 ADD MSTORE PUSH1 0x15 PUSH1 0x24 DUP3 ADD MSTORE PUSH21 0x141C9BD9DC985B481B9BDD08195B991959081E595D PUSH1 0x5A SHL PUSH1 0x44 DUP3 ADD MSTORE PUSH1 0x64 SWAP1 REVERT JUMPDEST PUSH1 0x40 MLOAD PUSH3 0x461BCD PUSH1 0xE5 SHL DUP2 MSTORE PUSH1 0x20 PUSH1 0x4 DUP3 ADD MSTORE PUSH1 0xF PUSH1 0x24 DUP3 ADD MSTORE PUSH15 0x105B1C9958591E4818DB185A5B5959 PUSH1 0x8A SHL PUSH1 0x44 DUP3 ADD MSTORE PUSH1 0x64 SWAP1 REVERT JUMPDEST PUSH1 0x0 DUP1 REVERT JUMPDEST CALLVALUE PUSH2 0x2B9 JUMPI PUSH1 0x20 CALLDATASIZE PUSH1 0x3 NOT ADD SLT PUSH2 0x2B9 JUMPI PUSH1 0x4 CALLDATALOAD PUSH1 0x1 PUSH1 0x1 PUSH1 0xA0 SHL SUB DUP2 DUP2 AND SWAP2 DUP3 SWAP1 SUB PUSH2 0x2B9 JUMPI PUSH2 0x2ED PUSH2 0x1E8B JUMP JUMPDEST DUP2 ISZERO PUSH2 0x330 JUMPI PUSH1 0x0 SLOAD DUP3 PUSH1 0x1 PUSH1 0x1 PUSH1 0x60 SHL SUB PUSH1 0xA0 SHL DUP3 AND OR PUSH1 0x0 SSTORE AND PUSH32 0x8BE0079C531659141344CD1FD0A4F28419497F9722A3DAAFE3B4186F6B6457E0 PUSH1 0x0 DUP1 LOG3 STOP JUMPDEST PUSH1 0x40 MLOAD PUSH3 0x461BCD PUSH1 0xE5 SHL DUP2 MSTORE PUSH1 0x20 PUSH1 0x4 DUP3 ADD MSTORE PUSH1 0x26 PUSH1 0x24 DUP3 ADD MSTORE PUSH32 0x4F776E61626C653A206E6577206F776E657220697320746865207A65726F2061 PUSH1 0x44 DUP3 ADD MSTORE PUSH6 0x646472657373 PUSH1 0xD0 SHL PUSH1 0x64 DUP3 ADD MSTORE PUSH1 0x84 SWAP1 REVERT JUMPDEST CALLVALUE PUSH2 0x2B9 JUMPI PUSH1 0x20 CALLDATASIZE PUSH1 0x3 NOT ADD SLT PUSH2 0x2B9 JUMPI PUSH1 0x4 CALLDATALOAD PUSH1 0x0 MSTORE PUSH1 0x4 PUSH1 0x20 MSTORE PUSH1 0x40 PUSH1 0x0 KECCAK256 DUP1 SLOAD SWAP1 PUSH2 0x3B4 PUSH1 0x1 DUP3 ADD PUSH2 0x1DA5 JUMP JUMPDEST SWAP1 PUSH2 0x3C1 PUSH1 0x2 DUP3 ADD PUSH2 0x1DA5 JUMP JUMPDEST SWAP1 PUSH2 0x401 PUSH1 0x3 DUP3 ADD SLOAD SWAP3 PUSH2 0x3F3 PUSH1 0xFF PUSH1 0x6 PUSH1 0x5 DUP7 ADD SLOAD SWAP6 ADD SLOAD AND SWAP6 PUSH1 0x40 MLOAD SWAP8 DUP9 MSTORE PUSH1 0xC0 PUSH1 0x20 DUP10 ADD MSTORE PUSH1 0xC0 DUP9 ADD SWAP1 PUSH2 0x1E4B JUMP JUMPDEST SWAP1 DUP7 DUP3 SUB PUSH1 0x40 DUP9 ADD MSTORE PUSH2 0x1E4B JUMP JUMPDEST SWAP2 PUSH1 0x60 DUP6 ADD MSTORE PUSH1 0x80 DUP5 ADD MSTORE PUSH1 0x4 DUP3 LT ISZERO PUSH2 0x420 JUMPI DUP3 SWAP2 PUSH1 0xA0 DUP4 ADD MSTORE SUB SWAP1 RETURN JUMPDEST PUSH4 0x4E487B71 PUSH1 0xE0 SHL PUSH1 0x0 MSTORE PUSH1 0x21 PUSH1 0x4 MSTORE PUSH1 0x24 PUSH1 0x0 REVERT JUMPDEST CALLVALUE PUSH2 0x2B9 JUMPI PUSH1 0x20 CALLDATASIZE PUSH1 0x3 NOT ADD SLT PUSH2 0x2B9 JUMPI PUSH1 0x4 CALLDATALOAD PUSH1 0x0 MSTORE PUSH1 0x3 PUSH1 0x20 MSTORE PUSH1 0x40 PUSH1 0x0 KECCAK256 DUP1 SLOAD PUSH1 0x1 DUP1 PUSH1 0xA0 SHL SUB PUSH1 0x1 DUP4 ADD SLOAD AND SWAP2 PUSH1 0xFF PUSH1 0x3 PUSH1 0x2 DUP4 ADD SLOAD SWAP3 ADD SLOAD AND SWAP3 PUSH1 0x40 MLOAD SWAP3 DUP4 MSTORE PUSH1 0x20 DUP4 ADD MSTORE PUSH1 0x40 DUP3 ADD MSTORE PUSH1 0x3 DUP3 LT ISZERO PUSH2 0x420 JUMPI PUSH1 0x80 SWAP2 PUSH1 0x60 DUP3 ADD MSTORE RETURN JUMPDEST CALLVALUE PUSH2 0x2B9 JUMPI PUSH1 0x20 CALLDATASIZE PUSH1 0x3 NOT ADD SLT PUSH2 0x2B9 JUMPI PUSH1 0x4 CALLDATALOAD DUP1 PUSH1 0x0 MSTORE PUSH1 0x3 PUSH1 0x20 MSTORE PUSH1 0x3 PUSH1 0x40 PUSH1 0x0 KECCAK256 PUSH1 0x2 DUP2 ADD SLOAD PUSH1 0x0 MSTORE PUSH1 0x2 PUSH1 0x20 MSTORE PUSH2 0x4E4 PUSH1 0x1 DUP1 PUSH1 0xA0 SHL SUB PUSH1 0xA PUSH1 0x40 PUSH1 0x0 KECCAK256 ADD SLOAD AND CALLER EQ PUSH2 0x1FF9 JUMP JUMPDEST ADD DUP1 SLOAD PUSH1 0xFF DUP2 AND SWAP1 PUSH1 0x3 DUP3 LT ISZERO PUSH2 0x420 JUMPI PUSH2 0x501 PUSH1 0x1 SWAP3 ISZERO PUSH2 0x2104 JUMP JUMPDEST PUSH1 0xFF NOT AND OR SWAP1 SSTORE PUSH32 0xA23F1FA4EAECD6E0D93C22F8D38992D5F4C441C93FFF05C827B21346C0C7507E PUSH1 0x0 DUP1 LOG2 STOP JUMPDEST CALLVALUE PUSH2 0x2B9 JUMPI PUSH1 0x20 CALLDATASIZE PUSH1 0x3 NOT ADD SLT PUSH2 0x2B9 JUMPI PUSH1 0x4 CALLDATALOAD PUSH1 0x0 MSTORE PUSH1 0x2 PUSH1 0x20 MSTORE PUSH1 0x40 PUSH1 0x0 KECCAK256 DUP1 SLOAD PUSH1 0x1 DUP3 ADD PUSH2 0x55F SWAP1 PUSH2 0x1DA5 JUMP JUMPDEST PUSH1 0x3 DUP4 ADD SLOAD PUSH1 0x4 DUP5 ADD SLOAD PUSH1 0x5 DUP6 ADD SLOAD SWAP3 SWAP5 SWAP1 SWAP2 PUSH2 0x57E PUSH1 0x6 DUP4 ADD PUSH2 0x1DA5 JUMP JUMPDEST PUSH2 0x58A PUSH1 0x7 DUP5 ADD PUSH2 0x1DA5 JUMP JUMPDEST SWAP1 PUSH1 0x1 PUSH1 0xA0 SHL PUSH1 0x1 SWAP1 SUB SWAP3 DUP4 PUSH1 0x9 DUP7 ADD SLOAD AND SWAP7 DUP5 PUSH1 0xA DUP8 ADD SLOAD SWAP7 PUSH1 0xB ADD SLOAD AND SWAP7 PUSH1 0x40 MLOAD SWAP11 DUP12 SWAP11 DUP12 MSTORE PUSH2 0x180 DUP1 PUSH1 0x20 DUP14 ADD MSTORE DUP12 ADD PUSH2 0x5C6 SWAP2 PUSH2 0x1E4B JUMP JUMPDEST SWAP3 PUSH1 0x40 DUP12 ADD MSTORE PUSH1 0x60 DUP11 ADD MSTORE PUSH1 0x80 DUP10 ADD MSTORE DUP8 DUP2 SUB PUSH1 0xA0 DUP10 ADD MSTORE PUSH2 0x5E7 SWAP2 PUSH2 0x1E4B JUMP JUMPDEST DUP7 DUP2 SUB PUSH1 0xC0 DUP9 ADD MSTORE PUSH2 0x5F8 SWAP2 PUSH2 0x1E4B JUMP JUMPDEST SWAP4 PUSH1 0xE0 DUP7 ADD MSTORE DUP2 AND PUSH2 0x100 DUP6 ADD MSTORE DUP1 PUSH1 0xA0 SHR PUSH1 0xFF AND ISZERO ISZERO PUSH2 0x120 DUP6 ADD MSTORE PUSH1 0xA8 SHR PUSH1 0xFF AND ISZERO ISZERO PUSH2 0x140 DUP5 ADD MSTORE PUSH2 0x160 DUP4 ADD MSTORE SUB SWAP1 RETURN JUMPDEST CALLVALUE PUSH2 0x2B9 JUMPI PUSH1 0x0 CALLDATASIZE PUSH1 0x3 NOT ADD SLT PUSH2 0x2B9 JUMPI PUSH1 0x20 PUSH1 0x8 SLOAD PUSH1 0x40 MLOAD SWAP1 DUP2 MSTORE RETURN JUMPDEST CALLVALUE PUSH2 0x2B9 JUMPI PUSH1 0x20 CALLDATASIZE PUSH1 0x3 NOT ADD SLT PUSH2 0x2B9 JUMPI PUSH1 0x4 CALLDATALOAD DUP1 PUSH1 0x0 MSTORE PUSH1 0x4 PUSH1 0x20 MSTORE PUSH1 0x6 PUSH1 0x40 PUSH1 0x0 KECCAK256 PUSH1 0x5 DUP2 ADD SLOAD PUSH1 0x0 MSTORE PUSH1 0x3 PUSH1 0x20 MSTORE PUSH1 0x2 PUSH1 0x40 PUSH1 0x0 KECCAK256 ADD SLOAD PUSH1 0x0 MSTORE PUSH1 0x2 PUSH1 0x20 MSTORE PUSH2 0x6A8 PUSH1 0x1 DUP1 PUSH1 0xA0 SHL SUB PUSH1 0xA PUSH1 0x40 PUSH1 0x0 KECCAK256 ADD SLOAD AND CALLER EQ PUSH2 0x1FF9 JUMP JUMPDEST ADD DUP1 SLOAD PUSH1 0xFF DUP2 AND SWAP1 PUSH1 0x4 DUP3 LT ISZERO PUSH2 0x420 JUMPI PUSH2 0x6C7 PUSH1 0x1 PUSH1 0x3 SWAP4 EQ PUSH2 0x2144 JUMP JUMPDEST PUSH1 0xFF NOT AND OR SWAP1 SSTORE PUSH32 0x2268EB603324C1C4F7A3CB60C7E82795FD192CF05601CDA427B385D4FCC42A5E PUSH1 0x0 DUP1 LOG2 STOP JUMPDEST CALLVALUE PUSH2 0x2B9 JUMPI PUSH1 0x0 CALLDATASIZE PUSH1 0x3 NOT ADD SLT PUSH2 0x2B9 JUMPI PUSH1 0x20 PUSH1 0x7 SLOAD PUSH1 0x40 MLOAD SWAP1 DUP2 MSTORE RETURN JUMPDEST CALLVALUE PUSH2 0x2B9 JUMPI PUSH1 0x20 DUP1 PUSH1 0x3 NOT CALLDATASIZE ADD SLT PUSH2 0x2B9 JUMPI PUSH1 0x4 CALLDATALOAD PUSH2 0x730 PUSH2 0x2181 JUMP JUMPDEST DUP1 PUSH1 0x0 MSTORE PUSH1 0x4 DUP3 MSTORE PUSH1 0x40 PUSH1 0x0 KECCAK256 SWAP2 PUSH1 0x5 DUP4 ADD SLOAD PUSH1 0x0 MSTORE PUSH1 0x3 DUP2 MSTORE PUSH1 0x2 PUSH1 0x40 PUSH1 0x0 KECCAK256 ADD SLOAD PUSH1 0x0 MSTORE PUSH1 0x2 DUP2 MSTORE PUSH1 0x40 PUSH1 0x0 KECCAK256 PUSH1 0x1 DUP1 PUSH1 0xA0 SHL SUB SWAP1 PUSH2 0x778 DUP3 PUSH1 0xA DUP4 ADD SLOAD AND CALLER EQ PUSH2 0x1FF9 JUMP JUMPDEST PUSH1 0x6 DUP6 ADD DUP1 SLOAD PUSH1 0xFF DUP2 AND SWAP1 PUSH1 0x4 DUP3 LT ISZERO PUSH2 0x420 JUMPI PUSH2 0x79A PUSH1 0x1 PUSH1 0x2 SWAP4 EQ PUSH2 0x2144 JUMP JUMPDEST PUSH1 0xFF NOT AND OR SWAP1 SSTORE PUSH1 0xB DUP2 ADD SWAP4 PUSH1 0x0 DUP1 DUP1 DUP1 PUSH1 0x3 DUP8 DUP11 SLOAD AND SWAP11 ADD SWAP10 DUP11 SLOAD SWAP1 GAS CALL RETURNDATASIZE ISZERO PUSH2 0x896 JUMPI RETURNDATASIZE PUSH2 0x7C9 DUP2 PUSH2 0x1C64 JUMP JUMPDEST SWAP1 PUSH2 0x7D7 PUSH1 0x40 MLOAD SWAP3 DUP4 PUSH2 0x1C43 JUMP JUMPDEST DUP2 MSTORE PUSH1 0x0 DUP7 RETURNDATASIZE SWAP3 ADD RETURNDATACOPY JUMPDEST ISZERO PUSH2 0x85B JUMPI PUSH32 0xB7AB333173A25D27082C5BCC7F95D330190EBF0D3539C7761583C5F5F6CE1566 PUSH32 0x7099040FF4ABF6B015BD1004CBF11EC796C3D4ABCAEC3514DB1C93599297D39F SWAP6 SWAP7 SLOAD SWAP5 PUSH1 0x40 MLOAD DUP7 DUP2 MSTORE LOG2 SLOAD SWAP4 SLOAD PUSH1 0x40 DUP1 MLOAD SWAP3 SWAP1 SWAP2 AND PUSH1 0x1 PUSH1 0x1 PUSH1 0xA0 SHL SUB AND DUP3 MSTORE PUSH1 0x20 DUP3 ADD SWAP3 SWAP1 SWAP3 MSTORE SWAP1 DUP2 SWAP1 DUP2 ADD PUSH2 0x1EA JUMP JUMPDEST PUSH1 0x40 MLOAD PUSH3 0x461BCD PUSH1 0xE5 SHL DUP2 MSTORE PUSH1 0x4 DUP2 ADD DUP6 SWAP1 MSTORE PUSH1 0x13 PUSH1 0x24 DUP3 ADD MSTORE PUSH19 0x115512081D1C985B9CD9995C8819985A5B1959 PUSH1 0x6A SHL PUSH1 0x44 DUP3 ADD MSTORE PUSH1 0x64 SWAP1 REVERT JUMPDEST PUSH2 0x7E1 JUMP JUMPDEST CALLVALUE PUSH2 0x2B9 JUMPI PUSH1 0x20 CALLDATASIZE PUSH1 0x3 NOT ADD SLT PUSH2 0x2B9 JUMPI PUSH1 0x4 CALLDATALOAD PUSH1 0x0 DUP2 DUP2 MSTORE PUSH1 0x2 PUSH1 0x20 MSTORE PUSH1 0x40 SWAP1 KECCAK256 PUSH1 0xA DUP2 ADD DUP1 SLOAD SWAP1 SWAP2 PUSH2 0x8EA SWAP1 PUSH1 0x5 SWAP1 PUSH2 0x8E0 CALLER PUSH1 0x1 PUSH1 0x1 PUSH1 0xA0 SHL SUB DUP7 AND EQ PUSH2 0x1FF9 JUMP JUMPDEST ADD SLOAD TIMESTAMP GT ISZERO PUSH2 0x2035 JUMP JUMPDEST PUSH2 0x8FA PUSH1 0xFF DUP3 PUSH1 0xA0 SHR AND ISZERO PUSH2 0x2071 JUMP JUMPDEST PUSH1 0xFF PUSH1 0xA0 SHL NOT AND PUSH1 0x1 PUSH1 0xA0 SHL OR SWAP1 SSTORE PUSH32 0x3CA3D218D64EA45C582C714D84DCDFD87F8D3CB3A3449FE533C2CB6D614AB766 PUSH1 0x0 DUP1 LOG2 STOP JUMPDEST CALLVALUE PUSH2 0x2B9 JUMPI PUSH1 0x0 CALLDATASIZE PUSH1 0x3 NOT ADD SLT PUSH2 0x2B9 JUMPI PUSH1 0x20 PUSH1 0x6 SLOAD PUSH1 0x40 MLOAD SWAP1 DUP2 MSTORE RETURN JUMPDEST CALLVALUE PUSH2 0x2B9 JUMPI PUSH1 0x0 CALLDATASIZE PUSH1 0x3 NOT ADD SLT PUSH2 0x2B9 JUMPI PUSH1 0x0 SLOAD PUSH1 0x40 MLOAD PUSH1 0x1 PUSH1 0x1 PUSH1 0xA0 SHL SUB SWAP1 SWAP2 AND DUP2 MSTORE PUSH1 0x20 SWAP1 RETURN JUMPDEST CALLVALUE PUSH2 0x2B9 JUMPI PUSH1 0xA0 CALLDATASIZE PUSH1 0x3 NOT ADD SLT PUSH2 0x2B9 JUMPI PUSH1 0x24 CALLDATALOAD PUSH1 0x1 PUSH1 0x1 PUSH1 0xA0 SHL SUB PUSH1 0x4 CALLDATALOAD PUSH1 0x84 CALLDATALOAD DUP3 DUP2 AND SWAP1 PUSH1 0x64 CALLDATALOAD SWAP1 PUSH1 0x44 CALLDATALOAD SWAP1 DUP4 SWAP1 SUB PUSH2 0x2B9 JUMPI DUP4 PUSH1 0x0 MSTORE PUSH1 0x2 PUSH1 0x20 MSTORE PUSH1 0x40 PUSH1 0x0 KECCAK256 SWAP5 PUSH1 0x9 DUP7 ADD SLOAD AND CALLER SUB PUSH2 0xAA6 JUMPI DUP2 DUP2 LT ISZERO PUSH2 0xA72 JUMPI DUP6 ISZERO PUSH2 0xA3D JUMPI DUP6 PUSH1 0xA DUP7 PUSH32 0xE3D59D03839A10C8A5A85DD0D7E5A4AC45445821C5176529D2745ADF6915A161 SWAP9 PUSH1 0x3 PUSH1 0xA0 SWAP10 ADD SSTORE DUP4 PUSH1 0x4 DUP3 ADD SSTORE DUP5 PUSH1 0x5 DUP3 ADD SSTORE ADD DUP5 PUSH1 0x1 PUSH1 0x1 PUSH1 0x60 SHL SUB DUP9 SHL DUP3 SLOAD AND OR SWAP1 SSTORE PUSH1 0x40 MLOAD SWAP5 DUP6 MSTORE PUSH1 0x20 DUP6 ADD MSTORE PUSH1 0x40 DUP5 ADD MSTORE PUSH1 0x60 DUP4 ADD MSTORE PUSH1 0x80 DUP3 ADD MSTORE LOG1 STOP JUMPDEST PUSH1 0x40 MLOAD PUSH3 0x461BCD PUSH1 0xE5 SHL DUP2 MSTORE PUSH1 0x20 PUSH1 0x4 DUP3 ADD MSTORE PUSH1 0xD PUSH1 0x24 DUP3 ADD MSTORE PUSH13 0x496E76616C6964207072696365 PUSH1 0x98 SHL PUSH1 0x44 DUP3 ADD MSTORE PUSH1 0x64 SWAP1 REVERT JUMPDEST PUSH1 0x40 MLOAD PUSH3 0x461BCD PUSH1 0xE5 SHL DUP2 MSTORE PUSH1 0x20 PUSH1 0x4 DUP3 ADD MSTORE PUSH1 0xC PUSH1 0x24 DUP3 ADD MSTORE PUSH12 0x496E76616C69642074696D65 PUSH1 0xA0 SHL PUSH1 0x44 DUP3 ADD MSTORE PUSH1 0x64 SWAP1 REVERT JUMPDEST PUSH1 0x40 MLOAD PUSH3 0x461BCD PUSH1 0xE5 SHL DUP2 MSTORE PUSH1 0x20 PUSH1 0x4 DUP3 ADD MSTORE PUSH1 0xC PUSH1 0x24 DUP3 ADD MSTORE PUSH12 0x27B7363C9031B932B0BA37B9 PUSH1 0xA1 SHL PUSH1 0x44 DUP3 ADD MSTORE PUSH1 0x64 SWAP1 REVERT JUMPDEST PUSH2 0x120 CALLDATASIZE PUSH1 0x3 NOT ADD SLT PUSH2 0x2B9 JUMPI PUSH1 0x4 CALLDATALOAD PUSH1 0x1 PUSH1 0x1 PUSH1 0x40 SHL SUB DUP2 GT PUSH2 0x2B9 JUMPI PUSH2 0xB06 SWAP1 CALLDATASIZE SWAP1 PUSH1 0x4 ADD PUSH2 0x1CB6 JUMP JUMPDEST PUSH1 0x44 CALLDATALOAD PUSH1 0x1 PUSH1 0x1 PUSH1 0x40 SHL SUB DUP2 GT PUSH2 0x2B9 JUMPI PUSH2 0xB25 SWAP1 CALLDATASIZE SWAP1 PUSH1 0x4 ADD PUSH2 0x1CEB JUMP JUMPDEST SWAP1 PUSH1 0xA4 CALLDATALOAD SWAP1 PUSH1 0x1 PUSH1 0x1 PUSH1 0xA0 SHL SUB DUP3 AND DUP3 SUB PUSH2 0x2B9 JUMPI PUSH1 0xC4 CALLDATALOAD PUSH1 0x1 PUSH1 0x1 PUSH1 0x40 SHL SUB DUP2 GT PUSH2 0x2B9 JUMPI PUSH2 0xB59 SWAP1 CALLDATASIZE SWAP1 PUSH1 0x4 ADD PUSH2 0x1CB6 JUMP JUMPDEST PUSH1 0xE4 CALLDATALOAD PUSH1 0x1 PUSH1 0x1 PUSH1 0x40 SHL SUB DUP2 GT PUSH2 0x2B9 JUMPI PUSH2 0xB78 SWAP1 CALLDATASIZE SWAP1 PUSH1 0x4 ADD PUSH2 0x1CB6 JUMP JUMPDEST PUSH2 0x104 CALLDATALOAD PUSH1 0x1 PUSH1 0x1 PUSH1 0x40 SHL SUB DUP2 GT PUSH2 0x2B9 JUMPI PUSH2 0xB98 SWAP1 CALLDATASIZE SWAP1 PUSH1 0x4 ADD PUSH2 0x1CEB JUMP JUMPDEST SWAP2 PUSH1 0x24 CALLDATALOAD CALLVALUE SUB PUSH2 0x1274 JUMPI PUSH1 0x84 CALLDATALOAD PUSH1 0x64 CALLDATALOAD LT ISZERO PUSH2 0x1215 JUMPI PUSH1 0x7 SLOAD SWAP6 PUSH1 0x40 MLOAD SWAP5 DUP6 PUSH2 0x1C0 DUP2 ADD LT PUSH1 0x1 PUSH1 0x1 PUSH1 0x40 SHL SUB PUSH2 0x1C0 DUP9 ADD GT OR PUSH2 0xFAB JUMPI PUSH2 0x1C0 DUP7 ADD PUSH1 0x40 MSTORE DUP8 DUP7 MSTORE PUSH1 0x20 DUP7 ADD MSTORE PUSH1 0x40 DUP6 ADD MSTORE PUSH1 0x24 CALLDATALOAD PUSH1 0x60 DUP6 ADD MSTORE PUSH1 0x64 CALLDATALOAD PUSH1 0x80 DUP6 ADD MSTORE PUSH1 0x84 CALLDATALOAD PUSH1 0xA0 DUP6 ADD MSTORE PUSH1 0xC0 DUP5 ADD MSTORE PUSH1 0xE0 DUP4 ADD MSTORE PUSH2 0x100 DUP3 ADD MSTORE CALLER PUSH2 0x120 DUP3 ADD MSTORE PUSH1 0x1 DUP1 PUSH1 0xA0 SHL SUB DUP3 AND PUSH2 0x140 DUP3 ADD MSTORE PUSH1 0x0 PUSH2 0x160 DUP3 ADD MSTORE PUSH1 0x0 PUSH2 0x180 DUP3 ADD MSTORE PUSH1 0x0 PUSH2 0x1A0 DUP3 ADD MSTORE DUP3 PUSH1 0x0 MSTORE PUSH1 0x2 PUSH1 0x20 MSTORE PUSH1 0x40 PUSH1 0x0 KECCAK256 DUP2 MLOAD DUP2 SSTORE PUSH1 0x20 DUP3 ADD MLOAD DUP1 MLOAD SWAP1 PUSH1 0x1 PUSH1 0x1 PUSH1 0x40 SHL SUB DUP3 GT PUSH2 0xFAB JUMPI DUP2 SWAP1 PUSH2 0xC7F DUP3 PUSH2 0xC76 PUSH1 0x1 DUP8 ADD SLOAD PUSH2 0x1D6B JUMP JUMPDEST PUSH1 0x1 DUP8 ADD PUSH2 0x1EFA JUMP JUMPDEST PUSH1 0x20 SWAP1 PUSH1 0x1F DUP4 GT PUSH1 0x1 EQ PUSH2 0x11A3 JUMPI PUSH1 0x0 SWAP3 PUSH2 0x1198 JUMPI JUMPDEST POP POP DUP2 PUSH1 0x1 SHL SWAP2 PUSH1 0x0 NOT SWAP1 PUSH1 0x3 SHL SHR NOT AND OR PUSH1 0x1 DUP3 ADD SSTORE JUMPDEST PUSH1 0x2 DUP2 ADD PUSH1 0x40 DUP4 ADD MLOAD PUSH1 0x20 DUP2 MLOAD SWAP2 PUSH2 0xCC5 DUP4 DUP6 PUSH2 0x1F3F JUMP JUMPDEST ADD SWAP2 PUSH1 0x0 MSTORE PUSH1 0x20 PUSH1 0x0 KECCAK256 SWAP2 PUSH1 0x0 SWAP1 JUMPDEST DUP3 DUP3 LT PUSH2 0x10BB JUMPI POP POP POP POP PUSH1 0x60 DUP3 ADD MLOAD PUSH1 0x3 DUP3 ADD SSTORE PUSH1 0x80 DUP3 ADD MLOAD PUSH1 0x4 DUP3 ADD SSTORE PUSH1 0xA0 DUP3 ADD MLOAD PUSH1 0x5 DUP3 ADD SSTORE PUSH1 0xC0 DUP3 ADD MLOAD DUP1 MLOAD SWAP1 PUSH1 0x1 PUSH1 0x1 PUSH1 0x40 SHL SUB DUP3 GT PUSH2 0xFAB JUMPI DUP2 SWAP1 PUSH2 0xD2F DUP3 PUSH2 0xD26 PUSH1 0x6 DUP8 ADD SLOAD PUSH2 0x1D6B JUMP JUMPDEST PUSH1 0x6 DUP8 ADD PUSH2 0x1EFA JUMP JUMPDEST PUSH1 0x20 SWAP1 PUSH1 0x1F DUP4 GT PUSH1 0x1 EQ PUSH2 0x1049 JUMPI PUSH1 0x0 SWAP3 PUSH2 0x103E JUMPI JUMPDEST POP POP DUP2 PUSH1 0x1 SHL SWAP2 PUSH1 0x0 NOT SWAP1 PUSH1 0x3 SHL SHR NOT AND OR PUSH1 0x6 DUP3 ADD SSTORE JUMPDEST PUSH1 0xE0 DUP3 ADD MLOAD DUP1 MLOAD SWAP1 PUSH1 0x1 PUSH1 0x1 PUSH1 0x40 SHL SUB DUP3 GT PUSH2 0xFAB JUMPI DUP2 SWAP1 PUSH2 0xD8F DUP3 PUSH2 0xD86 PUSH1 0x7 DUP8 ADD SLOAD PUSH2 0x1D6B JUMP JUMPDEST PUSH1 0x7 DUP8 ADD PUSH2 0x1EFA JUMP JUMPDEST PUSH1 0x20 SWAP1 PUSH1 0x1F DUP4 GT PUSH1 0x1 EQ PUSH2 0xFCC JUMPI PUSH1 0x0 SWAP3 PUSH2 0xFC1 JUMPI JUMPDEST POP POP DUP2 PUSH1 0x1 SHL SWAP2 PUSH1 0x0 NOT SWAP1 PUSH1 0x3 SHL SHR NOT AND OR PUSH1 0x7 DUP3 ADD SSTORE JUMPDEST PUSH1 0x8 DUP2 ADD PUSH2 0x100 DUP4 ADD MLOAD PUSH1 0x20 DUP2 MLOAD SWAP2 PUSH2 0xDD6 DUP4 DUP6 PUSH2 0x1F3F JUMP JUMPDEST ADD SWAP2 PUSH1 0x0 MSTORE PUSH1 0x20 PUSH1 0x0 KECCAK256 SWAP2 PUSH1 0x0 SWAP1 JUMPDEST DUP3 DUP3 LT PUSH2 0xEC8 JUMPI POP POP POP POP PUSH2 0x120 DUP3 ADD MLOAD PUSH1 0x9 DUP3 ADD DUP1 SLOAD PUSH1 0x1 PUSH1 0x1 PUSH1 0xA0 SHL SUB NOT SWAP1 DUP2 AND PUSH1 0x1 PUSH1 0x1 PUSH1 0xA0 SHL SUB SWAP4 DUP5 AND OR SWAP1 SWAP2 SSTORE PUSH2 0x140 DUP5 ADD MLOAD PUSH1 0xA DUP5 ADD DUP1 SLOAD PUSH2 0x160 DUP8 ADD MLOAD PUSH2 0x180 DUP9 ADD MLOAD PUSH1 0x1 PUSH1 0x1 PUSH1 0xB0 SHL SUB NOT SWAP1 SWAP3 AND SWAP4 DUP7 AND SWAP4 SWAP1 SWAP4 OR SWAP3 ISZERO ISZERO PUSH1 0xA0 SHL PUSH1 0xFF PUSH1 0xA0 SHL AND SWAP3 SWAP1 SWAP3 OR SWAP2 ISZERO ISZERO PUSH1 0xA8 SHL PUSH1 0xFF PUSH1 0xA8 SHL AND SWAP2 SWAP1 SWAP2 OR SWAP1 SSTORE PUSH2 0x1A0 SWAP1 SWAP4 ADD MLOAD PUSH1 0xB SWAP3 SWAP1 SWAP3 ADD DUP1 SLOAD SWAP1 SWAP4 AND SWAP2 AND OR SWAP1 SSTORE PUSH1 0x7 SLOAD PUSH2 0xE87 SWAP1 PUSH2 0x1FD4 JUMP JUMPDEST PUSH1 0x7 SSTORE PUSH1 0x40 MLOAD PUSH1 0x24 CALLDATALOAD DUP2 MSTORE PUSH1 0x1 PUSH1 0x1 PUSH1 0xA0 SHL SUB SWAP1 SWAP2 AND SWAP2 CALLER SWAP2 PUSH32 0x808C887919683A350ED55B3499F97ED7F4093ECC5E131FADB8B075A85457AF3A SWAP1 PUSH1 0x20 SWAP1 LOG4 STOP JUMPDEST DUP1 MLOAD DUP1 MLOAD SWAP1 PUSH1 0x1 PUSH1 0x1 PUSH1 0x40 SHL SUB DUP3 GT PUSH2 0xFAB JUMPI PUSH2 0xEEF DUP3 PUSH2 0xEE9 DUP9 SLOAD PUSH2 0x1D6B JUMP JUMPDEST DUP9 PUSH2 0x1EFA JUMP JUMPDEST PUSH1 0x20 SWAP1 PUSH1 0x1F DUP4 GT PUSH1 0x1 EQ PUSH2 0xF3B JUMPI SWAP3 DUP3 PUSH1 0x1 SWAP5 SWAP4 PUSH1 0x20 SWAP4 DUP7 SWAP6 PUSH1 0x0 SWAP3 PUSH2 0xF30 JUMPI JUMPDEST POP POP PUSH1 0x0 NOT PUSH1 0x3 DUP4 SWAP1 SHL SHR NOT AND SWAP1 DUP5 SHL OR DUP8 SSTORE JUMPDEST ADD SWAP5 ADD SWAP2 ADD SWAP1 SWAP3 PUSH2 0xDE5 JUMP JUMPDEST ADD MLOAD SWAP1 POP DUP14 DUP1 PUSH2 0xF10 JUMP JUMPDEST SWAP1 DUP7 PUSH1 0x0 MSTORE PUSH1 0x20 PUSH1 0x0 KECCAK256 SWAP2 PUSH1 0x0 JUMPDEST PUSH1 0x1F NOT DUP6 AND DUP2 LT PUSH2 0xF93 JUMPI POP DUP4 PUSH1 0x20 SWAP4 PUSH1 0x1 SWAP7 SWAP4 DUP8 SWAP7 SWAP4 DUP8 SWAP5 PUSH1 0x1F NOT DUP2 AND LT PUSH2 0xF7A JUMPI JUMPDEST POP POP POP DUP2 SHL ADD DUP8 SSTORE PUSH2 0xF24 JUMP JUMPDEST ADD MLOAD PUSH1 0x0 NOT PUSH1 0xF8 DUP5 PUSH1 0x3 SHL AND SHR NOT AND SWAP1 SSTORE DUP14 DUP1 DUP1 PUSH2 0xF6D JUMP JUMPDEST SWAP2 SWAP3 PUSH1 0x20 PUSH1 0x1 DUP2 SWAP3 DUP7 DUP6 ADD MLOAD DUP2 SSTORE ADD SWAP5 ADD SWAP3 ADD PUSH2 0xF49 JUMP JUMPDEST PUSH4 0x4E487B71 PUSH1 0xE0 SHL PUSH1 0x0 MSTORE PUSH1 0x41 PUSH1 0x4 MSTORE PUSH1 0x24 PUSH1 0x0 REVERT JUMPDEST ADD MLOAD SWAP1 POP DUP7 DUP1 PUSH2 0xDA5 JUMP JUMPDEST SWAP3 POP PUSH1 0x7 DUP5 ADD PUSH1 0x0 MSTORE PUSH1 0x20 PUSH1 0x0 KECCAK256 SWAP1 PUSH1 0x0 SWAP4 JUMPDEST PUSH1 0x1F NOT DUP5 AND DUP6 LT PUSH2 0x1023 JUMPI PUSH1 0x1 SWAP5 POP DUP4 PUSH1 0x1F NOT DUP2 AND LT PUSH2 0x100A JUMPI JUMPDEST POP POP POP DUP2 SHL ADD PUSH1 0x7 DUP3 ADD SSTORE PUSH2 0xDBD JUMP JUMPDEST ADD MLOAD PUSH1 0x0 NOT PUSH1 0xF8 DUP5 PUSH1 0x3 SHL AND SHR NOT AND SWAP1 SSTORE DUP7 DUP1 DUP1 PUSH2 0xFFA JUMP JUMPDEST DUP2 DUP2 ADD MLOAD DUP4 SSTORE PUSH1 0x20 SWAP5 DUP6 ADD SWAP5 PUSH1 0x1 SWAP1 SWAP4 ADD SWAP3 SWAP1 SWAP2 ADD SWAP1 PUSH2 0xFDF JUMP JUMPDEST ADD MLOAD SWAP1 POP DUP7 DUP1 PUSH2 0xD45 JUMP JUMPDEST SWAP3 POP PUSH1 0x6 DUP5 ADD PUSH1 0x0 MSTORE PUSH1 0x20 PUSH1 0x0 KECCAK256 SWAP1 PUSH1 0x0 SWAP4 JUMPDEST PUSH1 0x1F NOT DUP5 AND DUP6 LT PUSH2 0x10A0 JUMPI PUSH1 0x1 SWAP5 POP DUP4 PUSH1 0x1F NOT DUP2 AND LT PUSH2 0x1087 JUMPI JUMPDEST POP POP POP DUP2 SHL ADD PUSH1 0x6 DUP3 ADD SSTORE PUSH2 0xD5D JUMP JUMPDEST ADD MLOAD PUSH1 0x0 NOT PUSH1 0xF8 DUP5 PUSH1 0x3 SHL AND SHR NOT AND SWAP1 SSTORE DUP7 DUP1 DUP1 PUSH2 0x1077 JUMP JUMPDEST DUP2 DUP2 ADD MLOAD DUP4 SSTORE PUSH1 0x20 SWAP5 DUP6 ADD SWAP5 PUSH1 0x1 SWAP1 SWAP4 ADD SWAP3 SWAP1 SWAP2 ADD SWAP1 PUSH2 0x105C JUMP JUMPDEST DUP1 MLOAD DUP1 MLOAD SWAP1 PUSH1 0x1 PUSH1 0x1 PUSH1 0x40 SHL SUB DUP3 GT PUSH2 0xFAB JUMPI PUSH2 0x10DC DUP3 PUSH2 0xEE9 DUP9 SLOAD PUSH2 0x1D6B JUMP JUMPDEST PUSH1 0x20 SWAP1 PUSH1 0x1F DUP4 GT PUSH1 0x1 EQ PUSH2 0x1128 JUMPI SWAP3 DUP3 PUSH1 0x1 SWAP5 SWAP4 PUSH1 0x20 SWAP4 DUP7 SWAP6 PUSH1 0x0 SWAP3 PUSH2 0x111D JUMPI JUMPDEST POP POP PUSH1 0x0 NOT PUSH1 0x3 DUP4 SWAP1 SHL SHR NOT AND SWAP1 DUP5 SHL OR DUP8 SSTORE JUMPDEST ADD SWAP5 ADD SWAP2 ADD SWAP1 SWAP3 PUSH2 0xCD4 JUMP JUMPDEST ADD MLOAD SWAP1 POP DUP14 DUP1 PUSH2 0x10FD JUMP JUMPDEST SWAP1 DUP7 PUSH1 0x0 MSTORE PUSH1 0x20 PUSH1 0x0 KECCAK256 SWAP2 PUSH1 0x0 JUMPDEST PUSH1 0x1F NOT DUP6 AND DUP2 LT PUSH2 0x1180 JUMPI POP DUP4 PUSH1 0x20 SWAP4 PUSH1 0x1 SWAP7 SWAP4 DUP8 SWAP7 SWAP4 DUP8 SWAP5 PUSH1 0x1F NOT DUP2 AND LT PUSH2 0x1167 JUMPI JUMPDEST POP POP POP DUP2 SHL ADD DUP8 SSTORE PUSH2 0x1111 JUMP JUMPDEST ADD MLOAD PUSH1 0x0 NOT PUSH1 0xF8 DUP5 PUSH1 0x3 SHL AND SHR NOT AND SWAP1 SSTORE DUP14 DUP1 DUP1 PUSH2 0x115A JUMP JUMPDEST SWAP2 SWAP3 PUSH1 0x20 PUSH1 0x1 DUP2 SWAP3 DUP7 DUP6 ADD MLOAD DUP2 SSTORE ADD SWAP5 ADD SWAP3 ADD PUSH2 0x1136 JUMP JUMPDEST ADD MLOAD SWAP1 POP DUP7 DUP1 PUSH2 0xC95 JUMP JUMPDEST SWAP3 POP PUSH1 0x1 DUP5 ADD PUSH1 0x0 MSTORE PUSH1 0x20 PUSH1 0x0 KECCAK256 SWAP1 PUSH1 0x0 SWAP4 JUMPDEST PUSH1 0x1F NOT DUP5 AND DUP6 LT PUSH2 0x11FA JUMPI PUSH1 0x1 SWAP5 POP DUP4 PUSH1 0x1F NOT DUP2 AND LT PUSH2 0x11E1 JUMPI JUMPDEST POP POP POP DUP2 SHL ADD PUSH1 0x1 DUP3 ADD SSTORE PUSH2 0xCAD JUMP JUMPDEST ADD MLOAD PUSH1 0x0 NOT PUSH1 0xF8 DUP5 PUSH1 0x3 SHL AND SHR NOT AND SWAP1 SSTORE DUP7 DUP1 DUP1 PUSH2 0x11D1 JUMP JUMPDEST DUP2 DUP2 ADD MLOAD DUP4 SSTORE PUSH1 0x20 SWAP5 DUP6 ADD SWAP5 PUSH1 0x1 SWAP1 SWAP4 ADD SWAP3 SWAP1 SWAP2 ADD SWAP1 PUSH2 0x11B6 JUMP JUMPDEST PUSH1 0x40 MLOAD PUSH3 0x461BCD PUSH1 0xE5 SHL DUP2 MSTORE PUSH1 0x20 PUSH1 0x4 DUP3 ADD MSTORE PUSH1 0x31 PUSH1 0x24 DUP3 ADD MSTORE PUSH32 0x5468652053746172742074696D65206D757374206265206561726C6965722074 PUSH1 0x44 DUP3 ADD MSTORE PUSH17 0x3430B7103A34329032B732103A34B6B297 PUSH1 0x79 SHL PUSH1 0x64 DUP3 ADD MSTORE PUSH1 0x84 SWAP1 REVERT JUMPDEST PUSH1 0x40 MLOAD PUSH3 0x461BCD PUSH1 0xE5 SHL DUP2 MSTORE PUSH1 0x20 PUSH1 0x4 DUP3 ADD MSTORE PUSH1 0x2D PUSH1 0x24 DUP3 ADD MSTORE PUSH32 0x546865204554482073656E7420646F6573206E6F74206D617463682074686520 PUSH1 0x44 DUP3 ADD MSTORE PUSH13 0x70726F6772616D207072696365 PUSH1 0x98 SHL PUSH1 0x64 DUP3 ADD MSTORE PUSH1 0x84 SWAP1 REVERT JUMPDEST CALLVALUE PUSH2 0x2B9 JUMPI PUSH1 0x0 CALLDATASIZE PUSH1 0x3 NOT ADD SLT PUSH2 0x2B9 JUMPI PUSH2 0x12E8 PUSH2 0x1E8B JUMP JUMPDEST PUSH1 0x0 DUP1 SLOAD PUSH1 0x1 PUSH1 0x1 PUSH1 0xA0 SHL SUB NOT DUP2 AND DUP3 SSTORE PUSH1 0x1 PUSH1 0x1 PUSH1 0xA0 SHL SUB AND PUSH32 0x8BE0079C531659141344CD1FD0A4F28419497F9722A3DAAFE3B4186F6B6457E0 DUP3 DUP1 LOG3 STOP JUMPDEST CALLVALUE PUSH2 0x2B9 JUMPI PUSH1 0x20 CALLDATASIZE PUSH1 0x3 NOT ADD SLT PUSH2 0x2B9 JUMPI PUSH32 0x8C4D35E54A3F2EF1134138FD8EA3DAEE6A3C89E10D2665996BABDF70261E2C76 PUSH1 0x20 PUSH1 0x4 CALLDATALOAD PUSH2 0x1367 PUSH2 0x1E8B JUMP JUMPDEST DUP1 PUSH1 0x8 SSTORE PUSH1 0x40 MLOAD SWAP1 DUP2 MSTORE LOG1 STOP JUMPDEST CALLVALUE PUSH2 0x2B9 JUMPI PUSH1 0x0 CALLDATASIZE PUSH1 0x3 NOT ADD SLT PUSH2 0x2B9 JUMPI PUSH1 0x20 PUSH1 0x5 SLOAD PUSH1 0x40 MLOAD SWAP1 DUP2 MSTORE RETURN JUMPDEST CALLVALUE PUSH2 0x2B9 JUMPI PUSH2 0x13A0 CALLDATASIZE PUSH2 0x1BF4 JUMP JUMPDEST SWAP2 SWAP1 DUP2 PUSH1 0x0 MSTORE PUSH1 0x2 PUSH1 0x20 MSTORE PUSH2 0x13BE PUSH1 0x5 PUSH1 0x40 PUSH1 0x0 KECCAK256 ADD SLOAD TIMESTAMP LT PUSH2 0x2035 JUMP JUMPDEST PUSH1 0x5 SLOAD SWAP3 PUSH2 0x13CB DUP5 PUSH2 0x1FD4 JUMP JUMPDEST PUSH1 0x5 SSTORE PUSH2 0x13D7 DUP2 PUSH2 0x1CD4 JUMP JUMPDEST SWAP2 PUSH2 0x13E5 PUSH1 0x40 MLOAD SWAP4 DUP5 PUSH2 0x1C43 JUMP JUMPDEST DUP2 DUP4 MSTORE PUSH1 0x1F NOT PUSH2 0x13F4 DUP4 PUSH2 0x1CD4 JUMP JUMPDEST ADD CALLDATASIZE PUSH1 0x20 DUP6 ADD CALLDATACOPY PUSH1 0x0 JUMPDEST DUP3 DUP2 LT PUSH2 0x14F6 JUMPI POP POP POP PUSH1 0x40 MLOAD SWAP2 PUSH1 0x80 DUP4 ADD DUP4 DUP2 LT PUSH1 0x1 PUSH1 0x1 PUSH1 0x40 SHL SUB DUP3 GT OR PUSH2 0xFAB JUMPI PUSH1 0x40 MSTORE DUP4 DUP4 MSTORE PUSH1 0x3 PUSH1 0x20 DUP5 ADD SWAP4 CALLER DUP6 MSTORE PUSH1 0x40 DUP2 ADD SWAP3 DUP4 MSTORE PUSH1 0x60 DUP2 ADD SWAP3 PUSH1 0x0 DUP5 MSTORE DUP7 PUSH1 0x0 MSTORE DUP3 PUSH1 0x20 MSTORE PUSH1 0x40 PUSH1 0x0 KECCAK256 SWAP2 MLOAD DUP3 SSTORE PUSH1 0x1 SWAP6 DUP7 DUP4 ADD SWAP1 PUSH1 0x1 DUP1 PUSH1 0xA0 SHL SUB SWAP1 MLOAD AND PUSH1 0x1 PUSH1 0x1 PUSH1 0x60 SHL SUB PUSH1 0xA0 SHL DUP3 SLOAD AND OR SWAP1 SSTORE MLOAD PUSH1 0x2 DUP3 ADD SSTORE ADD SWAP1 MLOAD PUSH1 0x3 DUP2 LT ISZERO PUSH2 0x420 JUMPI PUSH1 0xFF DUP1 NOT DUP4 SLOAD AND SWAP2 AND OR SWAP1 SSTORE PUSH1 0x40 MLOAD SWAP2 PUSH1 0x20 DUP4 ADD SWAP1 PUSH1 0x20 DUP5 MSTORE DUP3 MLOAD DUP1 SWAP3 MSTORE PUSH1 0x20 PUSH1 0x40 DUP6 ADD SWAP4 ADD SWAP2 PUSH1 0x0 JUMPDEST DUP2 DUP2 LT PUSH2 0x14E1 JUMPI DUP7 PUSH32 0x9BBFA816C7E14E18BABFCA167B7EB6D09305CCA69BDB107B37B18C6A6082B26 DUP8 DUP8 SUB DUP9 LOG2 STOP JUMPDEST DUP4 MLOAD DUP6 MSTORE PUSH1 0x20 SWAP5 DUP6 ADD SWAP5 SWAP1 SWAP4 ADD SWAP3 DUP3 ADD PUSH2 0x14B1 JUMP JUMPDEST PUSH1 0x6 SLOAD SWAP1 PUSH2 0x1503 DUP3 PUSH2 0x1FD4 JUMP JUMPDEST PUSH1 0x6 SSTORE PUSH2 0x151A PUSH2 0x1514 DUP3 DUP7 DUP7 PUSH2 0x20B0 JUMP JUMPDEST DUP1 PUSH2 0x20D2 JUMP JUMPDEST SWAP1 PUSH2 0x1533 PUSH2 0x1529 DUP5 DUP9 DUP9 PUSH2 0x20B0 JUMP JUMPDEST PUSH1 0x20 DUP2 ADD SWAP1 PUSH2 0x20D2 JUMP JUMPDEST SWAP2 PUSH1 0x40 PUSH2 0x1541 DUP7 DUP11 DUP11 PUSH2 0x20B0 JUMP JUMPDEST ADD CALLDATALOAD SWAP1 PUSH1 0x40 MLOAD SWAP3 DUP4 PUSH1 0x20 DUP2 ADD LT PUSH1 0x1 PUSH1 0x1 PUSH1 0x40 SHL SUB PUSH1 0x20 DUP7 ADD GT OR PUSH2 0xFAB JUMPI PUSH1 0x20 DUP5 ADD PUSH1 0x40 MSTORE PUSH1 0x0 DUP5 MSTORE PUSH1 0x40 MLOAD SWAP6 DUP7 PUSH1 0xE0 DUP2 ADD LT PUSH1 0x1 PUSH1 0x1 PUSH1 0x40 SHL SUB PUSH1 0xE0 DUP10 ADD GT OR PUSH2 0xFAB JUMPI PUSH2 0x15AF SWAP3 PUSH2 0x15A0 SWAP2 PUSH1 0xE0 DUP10 ADD PUSH1 0x40 MSTORE DUP11 DUP10 MSTORE CALLDATASIZE SWAP2 PUSH2 0x1C7F JUMP JUMPDEST SWAP5 PUSH1 0x20 DUP8 ADD SWAP6 DUP7 MSTORE CALLDATASIZE SWAP2 PUSH2 0x1C7F JUMP JUMPDEST PUSH1 0x40 DUP6 ADD MSTORE PUSH1 0x60 DUP5 ADD MSTORE PUSH1 0x80 DUP4 ADD MSTORE DUP9 PUSH1 0xA0 DUP4 ADD MSTORE PUSH1 0x0 PUSH1 0xC0 DUP4 ADD MSTORE DUP4 PUSH1 0x0 MSTORE PUSH1 0x4 PUSH1 0x20 MSTORE PUSH1 0x40 PUSH1 0x0 KECCAK256 SWAP1 DUP3 MLOAD DUP3 SSTORE MLOAD DUP1 MLOAD SWAP1 PUSH1 0x1 PUSH1 0x1 PUSH1 0x40 SHL SUB DUP3 GT PUSH2 0xFAB JUMPI DUP2 SWAP1 PUSH2 0x1603 DUP3 PUSH2 0xC76 PUSH1 0x1 DUP8 ADD SLOAD PUSH2 0x1D6B JUMP JUMPDEST PUSH1 0x20 SWAP1 PUSH1 0x1F DUP4 GT PUSH1 0x1 EQ PUSH2 0x1894 JUMPI PUSH1 0x0 SWAP3 PUSH2 0x1889 JUMPI JUMPDEST POP POP DUP2 PUSH1 0x1 SHL SWAP2 PUSH1 0x0 NOT SWAP1 PUSH1 0x3 SHL SHR NOT AND OR PUSH1 0x1 DUP3 ADD SSTORE JUMPDEST PUSH1 0x40 DUP3 ADD MLOAD DUP1 MLOAD SWAP1 PUSH1 0x1 PUSH1 0x1 PUSH1 0x40 SHL SUB DUP3 GT PUSH2 0xFAB JUMPI DUP2 SWAP1 PUSH2 0x1663 DUP3 PUSH2 0x165A PUSH1 0x2 DUP8 ADD SLOAD PUSH2 0x1D6B JUMP JUMPDEST PUSH1 0x2 DUP8 ADD PUSH2 0x1EFA JUMP JUMPDEST PUSH1 0x20 SWAP1 PUSH1 0x1F DUP4 GT PUSH1 0x1 EQ PUSH2 0x1817 JUMPI PUSH1 0x0 SWAP3 PUSH2 0x180C JUMPI JUMPDEST POP POP DUP2 PUSH1 0x1 SHL SWAP2 PUSH1 0x0 NOT SWAP1 PUSH1 0x3 SHL SHR NOT AND OR PUSH1 0x2 DUP3 ADD SSTORE JUMPDEST PUSH1 0x60 DUP3 ADD MLOAD PUSH1 0x3 DUP3 ADD SSTORE PUSH1 0x4 DUP2 ADD PUSH1 0x80 DUP4 ADD MLOAD PUSH1 0x20 DUP2 MLOAD SWAP2 PUSH2 0x16B3 DUP4 DUP6 PUSH2 0x1F3F JUMP JUMPDEST ADD SWAP2 PUSH1 0x0 MSTORE PUSH1 0x20 PUSH1 0x0 KECCAK256 PUSH1 0x0 SWAP3 JUMPDEST DUP3 DUP5 LT PUSH2 0x172B JUMPI POP POP POP POP PUSH1 0x6 PUSH1 0xC0 SWAP2 PUSH1 0xA0 DUP5 ADD MLOAD PUSH1 0x5 DUP3 ADD SSTORE ADD SWAP2 ADD MLOAD PUSH1 0x4 DUP2 LT ISZERO PUSH2 0x420 JUMPI PUSH1 0xFF DUP1 NOT DUP4 SLOAD AND SWAP2 AND OR SWAP1 SSTORE DUP5 MLOAD DUP2 LT ISZERO PUSH2 0x1715 JUMPI PUSH2 0x1710 SWAP2 PUSH1 0x20 DUP3 PUSH1 0x5 SHL DUP8 ADD ADD MSTORE PUSH2 0x1FD4 JUMP JUMPDEST PUSH2 0x13FE JUMP JUMPDEST PUSH4 0x4E487B71 PUSH1 0xE0 SHL PUSH1 0x0 MSTORE PUSH1 0x32 PUSH1 0x4 MSTORE PUSH1 0x24 PUSH1 0x0 REVERT JUMPDEST DUP1 MLOAD DUP1 MLOAD SWAP1 PUSH1 0x1 PUSH1 0x1 PUSH1 0x40 SHL SUB DUP3 GT PUSH2 0xFAB JUMPI PUSH2 0x1752 DUP3 PUSH2 0x174C DUP7 SLOAD PUSH2 0x1D6B JUMP JUMPDEST DUP7 PUSH2 0x1EFA JUMP JUMPDEST PUSH1 0x20 SWAP1 PUSH1 0x1F DUP4 GT PUSH1 0x1 EQ PUSH2 0x179E JUMPI SWAP3 DUP3 PUSH1 0x1 SWAP5 SWAP4 PUSH1 0x20 SWAP4 DUP7 SWAP6 PUSH1 0x0 SWAP3 PUSH2 0x1793 JUMPI JUMPDEST POP POP PUSH1 0x0 NOT PUSH1 0x3 DUP4 SWAP1 SHL SHR NOT AND SWAP1 DUP5 SHL OR DUP6 SSTORE JUMPDEST ADD SWAP3 ADD SWAP4 ADD SWAP3 SWAP1 PUSH2 0x16C1 JUMP JUMPDEST ADD MLOAD SWAP1 POP CODESIZE DUP1 PUSH2 0x1773 JUMP JUMPDEST SWAP1 PUSH1 0x1F NOT DUP4 AND SWAP2 DUP6 PUSH1 0x0 MSTORE PUSH1 0x20 PUSH1 0x0 KECCAK256 SWAP3 PUSH1 0x0 JUMPDEST DUP2 DUP2 LT PUSH2 0x17F4 JUMPI POP SWAP4 PUSH1 0x20 SWAP4 PUSH1 0x1 SWAP7 SWAP4 DUP8 SWAP7 SWAP4 DUP4 DUP9 SWAP6 LT PUSH2 0x17DB JUMPI JUMPDEST POP POP POP DUP2 SHL ADD DUP6 SSTORE PUSH2 0x1787 JUMP JUMPDEST ADD MLOAD PUSH1 0x0 NOT PUSH1 0xF8 DUP5 PUSH1 0x3 SHL AND SHR NOT AND SWAP1 SSTORE CODESIZE DUP1 DUP1 PUSH2 0x17CE JUMP JUMPDEST SWAP3 SWAP4 PUSH1 0x20 PUSH1 0x1 DUP2 SWAP3 DUP8 DUP7 ADD MLOAD DUP2 SSTORE ADD SWAP6 ADD SWAP4 ADD PUSH2 0x17B2 JUMP JUMPDEST ADD MLOAD SWAP1 POP DUP12 DUP1 PUSH2 0x1679 JUMP JUMPDEST SWAP3 POP PUSH1 0x2 DUP5 ADD PUSH1 0x0 MSTORE PUSH1 0x20 PUSH1 0x0 KECCAK256 SWAP1 PUSH1 0x0 SWAP4 JUMPDEST PUSH1 0x1F NOT DUP5 AND DUP6 LT PUSH2 0x186E JUMPI PUSH1 0x1 SWAP5 POP DUP4 PUSH1 0x1F NOT DUP2 AND LT PUSH2 0x1855 JUMPI JUMPDEST POP POP POP DUP2 SHL ADD PUSH1 0x2 DUP3 ADD SSTORE PUSH2 0x1691 JUMP JUMPDEST ADD MLOAD PUSH1 0x0 NOT PUSH1 0xF8 DUP5 PUSH1 0x3 SHL AND SHR NOT AND SWAP1 SSTORE DUP12 DUP1 DUP1 PUSH2 0x1845 JUMP JUMPDEST DUP2 DUP2 ADD MLOAD DUP4 SSTORE PUSH1 0x20 SWAP5 DUP6 ADD SWAP5 PUSH1 0x1 SWAP1 SWAP4 ADD SWAP3 SWAP1 SWAP2 ADD SWAP1 PUSH2 0x182A JUMP JUMPDEST ADD MLOAD SWAP1 POP DUP12 DUP1 PUSH2 0x1619 JUMP JUMPDEST SWAP3 POP PUSH1 0x1 DUP5 ADD PUSH1 0x0 MSTORE PUSH1 0x20 PUSH1 0x0 KECCAK256 SWAP1 PUSH1 0x0 SWAP4 JUMPDEST PUSH1 0x1F NOT DUP5 AND DUP6 LT PUSH2 0x18EB JUMPI PUSH1 0x1 SWAP5 POP DUP4 PUSH1 0x1F NOT DUP2 AND LT PUSH2 0x18D2 JUMPI JUMPDEST POP POP POP DUP2 SHL ADD PUSH1 0x1 DUP3 ADD SSTORE PUSH2 0x1631 JUMP JUMPDEST ADD MLOAD PUSH1 0x0 NOT PUSH1 0xF8 DUP5 PUSH1 0x3 SHL AND SHR NOT AND SWAP1 SSTORE DUP12 DUP1 DUP1 PUSH2 0x18C2 JUMP JUMPDEST DUP2 DUP2 ADD MLOAD DUP4 SSTORE PUSH1 0x20 SWAP5 DUP6 ADD SWAP5 PUSH1 0x1 SWAP1 SWAP4 ADD SWAP3 SWAP1 SWAP2 ADD SWAP1 PUSH2 0x18A7 JUMP JUMPDEST CALLVALUE PUSH2 0x2B9 JUMPI PUSH1 0x20 CALLDATASIZE PUSH1 0x3 NOT ADD SLT PUSH2 0x2B9 JUMPI PUSH1 0x4 CALLDATALOAD DUP1 PUSH1 0x0 MSTORE PUSH1 0x3 PUSH1 0x20 MSTORE PUSH1 0x40 PUSH1 0x0 KECCAK256 PUSH1 0x2 DUP2 ADD SLOAD PUSH1 0x0 MSTORE PUSH1 0x2 PUSH1 0x20 MSTORE PUSH1 0x40 PUSH1 0x0 KECCAK256 PUSH1 0xA DUP2 ADD PUSH1 0x1 DUP1 PUSH1 0xA0 SHL SUB SWAP3 PUSH2 0x1954 DUP5 DUP4 SLOAD AND CALLER EQ PUSH2 0x1FF9 JUMP JUMPDEST PUSH1 0x3 DUP2 ADD SWAP1 DUP2 SLOAD SWAP2 PUSH1 0xFF DUP4 AND PUSH1 0x3 DUP2 LT ISZERO PUSH2 0x420 JUMPI PUSH1 0x1 SWAP4 PUSH2 0x1978 PUSH1 0x2 SWAP3 ISZERO PUSH2 0x2104 JUMP JUMPDEST PUSH1 0xFF NOT AND OR SWAP1 SSTORE ADD DUP1 SLOAD PUSH1 0xB SWAP1 SWAP4 ADD DUP1 SLOAD PUSH1 0x1 PUSH1 0x1 PUSH1 0xA0 SHL SUB NOT AND SWAP4 DUP6 AND SWAP4 SWAP1 SWAP4 OR SWAP1 SWAP3 SSTORE DUP1 SLOAD PUSH1 0xFF PUSH1 0xA0 SHL NOT AND PUSH1 0x1 PUSH1 0xA0 SHL OR SWAP1 SSTORE SLOAD AND SWAP1 PUSH32 0x336D0775892406CC9E5CCDD5582B00B43D67D677EA060A1B91E01A637D4BA55A PUSH1 0x0 DUP1 LOG3 STOP JUMPDEST CALLVALUE PUSH2 0x2B9 JUMPI PUSH2 0x19E6 CALLDATASIZE PUSH2 0x1BF4 JUMP JUMPDEST DUP3 PUSH1 0x0 SWAP5 SWAP3 SWAP4 SWAP5 MSTORE PUSH1 0x20 SWAP3 PUSH1 0x4 DUP5 MSTORE PUSH1 0x40 PUSH1 0x0 KECCAK256 SWAP4 PUSH1 0x5 DUP6 ADD SLOAD PUSH1 0x0 MSTORE PUSH1 0x3 SWAP5 DUP6 DUP3 MSTORE PUSH1 0x40 PUSH1 0x0 KECCAK256 SWAP5 PUSH1 0xFF DUP8 DUP8 ADD SLOAD AND DUP8 DUP2 LT ISZERO PUSH2 0x420 JUMPI PUSH1 0x2 SUB PUSH2 0x1BB2 JUMPI POP PUSH1 0x1 SWAP5 DUP6 ADD SLOAD PUSH1 0x1 PUSH1 0x1 PUSH1 0xA0 SHL SUB AND CALLER SUB PUSH2 0x1B7F JUMPI PUSH1 0x6 DUP2 ADD DUP1 SLOAD PUSH1 0xFF NOT AND DUP7 OR SWAP1 SSTORE PUSH1 0x4 ADD SWAP2 PUSH2 0x1A57 DUP5 DUP5 PUSH2 0x1F3F JUMP JUMPDEST PUSH1 0x0 SWAP3 DUP4 MSTORE DUP2 DUP4 KECCAK256 SWAP1 DUP1 JUMPDEST DUP6 DUP6 LT PUSH2 0x1A91 JUMPI DUP9 PUSH32 0x6670B87ECE4BF5FF8E422301A14D59D43B4F9D17C2F96C6C37CA8A073EFDA7F5 PUSH1 0x0 DUP1 LOG2 STOP JUMPDEST PUSH2 0x1A9B DUP2 DUP4 PUSH2 0x20D2 JUMP JUMPDEST PUSH1 0x1 PUSH1 0x1 PUSH1 0x40 SHL SUB DUP2 SWAP4 SWAP3 SWAP4 GT PUSH2 0xFAB JUMPI DUP9 SWAP2 DUP2 PUSH2 0x1AC4 DUP9 SWAP4 PUSH2 0x1ABE DUP10 SLOAD PUSH2 0x1D6B JUMP JUMPDEST DUP10 PUSH2 0x1EFA JUMP JUMPDEST PUSH1 0x0 PUSH1 0x1F DUP3 GT PUSH1 0x1 EQ PUSH2 0x1B06 JUMPI DUP2 SWAP1 DUP6 SWAP7 PUSH1 0x0 SWAP3 PUSH2 0x1AFB JUMPI JUMPDEST POP POP PUSH1 0x0 NOT DUP3 DUP15 SHL SHR NOT AND SWAP1 DUP5 SHL OR DUP7 SSTORE JUMPDEST ADD SWAP4 ADD SWAP5 ADD SWAP4 SWAP2 PUSH2 0x1A62 JUMP JUMPDEST ADD CALLDATALOAD SWAP1 POP DUP15 DUP1 PUSH2 0x1ADD JUMP JUMPDEST SWAP1 SWAP2 SWAP5 PUSH1 0x1F NOT DUP4 AND SWAP2 DUP9 PUSH1 0x0 MSTORE DUP14 DUP6 PUSH1 0x0 KECCAK256 SWAP4 PUSH1 0x0 JUMPDEST DUP2 DUP2 LT PUSH2 0x1B5C JUMPI POP SWAP2 DUP6 SWAP4 SWAP2 DUP9 SWAP10 SWAP7 DUP10 SWAP7 SWAP5 LT PUSH2 0x1B42 JUMPI JUMPDEST POP POP POP POP DUP2 SHL ADD DUP7 SSTORE PUSH2 0x1AEF JUMP JUMPDEST PUSH1 0xF8 DUP6 PUSH1 0x0 NOT SWAP3 SHL AND SHR NOT SWAP2 ADD CALLDATALOAD AND SWAP1 SSTORE DUP15 DUP1 DUP1 DUP16 PUSH2 0x1B34 JUMP JUMPDEST SWAP5 DUP8 SWAP4 DUP1 SWAP9 SWAP4 POP DUP6 SWAP8 SWAP10 SWAP3 SWAP6 ADD CALLDATALOAD DUP2 SSTORE ADD SWAP6 ADD SWAP3 ADD SWAP2 DUP14 DUP14 SWAP7 SWAP5 SWAP3 DUP12 SWAP7 SWAP5 PUSH2 0x1B1C JUMP JUMPDEST PUSH1 0x40 MLOAD PUSH3 0x461BCD PUSH1 0xE5 SHL DUP2 MSTORE PUSH1 0x4 DUP2 ADD DUP4 SWAP1 MSTORE PUSH1 0xB PUSH1 0x24 DUP3 ADD MSTORE PUSH11 0x2737BA10313AB4B63232B9 PUSH1 0xA9 SHL PUSH1 0x44 DUP3 ADD MSTORE PUSH1 0x64 SWAP1 REVERT JUMPDEST PUSH3 0x461BCD PUSH1 0xE5 SHL DUP2 MSTORE PUSH1 0x4 DUP2 ADD DUP4 SWAP1 MSTORE PUSH1 0x18 PUSH1 0x24 DUP3 ADD MSTORE PUSH32 0x4170706C69636174696F6E206E6F742073656C65637465640000000000000000 PUSH1 0x44 DUP3 ADD MSTORE PUSH1 0x64 SWAP1 REVERT JUMPDEST PUSH1 0x40 PUSH1 0x3 NOT DUP3 ADD SLT PUSH2 0x2B9 JUMPI PUSH1 0x4 CALLDATALOAD SWAP2 PUSH1 0x24 CALLDATALOAD PUSH1 0x1 PUSH1 0x1 PUSH1 0x40 SHL SUB SWAP3 DUP4 DUP3 GT PUSH2 0x2B9 JUMPI DUP1 PUSH1 0x23 DUP4 ADD SLT ISZERO PUSH2 0x2B9 JUMPI DUP2 PUSH1 0x4 ADD CALLDATALOAD SWAP4 DUP5 GT PUSH2 0x2B9 JUMPI PUSH1 0x24 DUP5 PUSH1 0x5 SHL DUP4 ADD ADD GT PUSH2 0x2B9 JUMPI PUSH1 0x24 ADD SWAP2 SWAP1 JUMP JUMPDEST SWAP1 PUSH1 0x1F DUP1 NOT SWAP2 ADD AND DUP2 ADD SWAP1 DUP2 LT PUSH1 0x1 PUSH1 0x1 PUSH1 0x40 SHL SUB DUP3 GT OR PUSH2 0xFAB JUMPI PUSH1 0x40 MSTORE JUMP JUMPDEST PUSH1 0x1 PUSH1 0x1 PUSH1 0x40 SHL SUB DUP2 GT PUSH2 0xFAB JUMPI PUSH1 0x1F ADD PUSH1 0x1F NOT AND PUSH1 0x20 ADD SWAP1 JUMP JUMPDEST SWAP3 SWAP2 SWAP3 PUSH2 0x1C8B DUP3 PUSH2 0x1C64 JUMP JUMPDEST SWAP2 PUSH2 0x1C99 PUSH1 0x40 MLOAD SWAP4 DUP5 PUSH2 0x1C43 JUMP JUMPDEST DUP3 SWAP5 DUP2 DUP5 MSTORE DUP2 DUP4 ADD GT PUSH2 0x2B9 JUMPI DUP3 DUP2 PUSH1 0x20 SWAP4 DUP5 PUSH1 0x0 SWAP7 ADD CALLDATACOPY ADD ADD MSTORE JUMP JUMPDEST SWAP1 DUP1 PUSH1 0x1F DUP4 ADD SLT ISZERO PUSH2 0x2B9 JUMPI DUP2 PUSH1 0x20 PUSH2 0x1CD1 SWAP4 CALLDATALOAD SWAP2 ADD PUSH2 0x1C7F JUMP JUMPDEST SWAP1 JUMP JUMPDEST PUSH1 0x1 PUSH1 0x1 PUSH1 0x40 SHL SUB DUP2 GT PUSH2 0xFAB JUMPI PUSH1 0x5 SHL PUSH1 0x20 ADD SWAP1 JUMP JUMPDEST SWAP1 DUP1 PUSH1 0x1F DUP4 ADD SLT ISZERO PUSH2 0x2B9 JUMPI DUP2 CALLDATALOAD SWAP1 PUSH2 0x1D03 DUP3 PUSH2 0x1CD4 JUMP JUMPDEST SWAP3 PUSH2 0x1D11 PUSH1 0x40 MLOAD SWAP5 DUP6 PUSH2 0x1C43 JUMP JUMPDEST DUP3 DUP5 MSTORE PUSH1 0x20 SWAP3 DUP4 DUP1 DUP7 ADD SWAP2 PUSH1 0x5 SHL DUP4 ADD ADD SWAP3 DUP1 DUP5 GT PUSH2 0x2B9 JUMPI DUP5 DUP4 ADD SWAP2 JUMPDEST DUP5 DUP4 LT PUSH2 0x1D3F JUMPI POP POP POP POP POP POP SWAP1 JUMP JUMPDEST DUP3 CALLDATALOAD PUSH1 0x1 PUSH1 0x1 PUSH1 0x40 SHL SUB DUP2 GT PUSH2 0x2B9 JUMPI DUP7 SWAP2 PUSH2 0x1D60 DUP5 DUP5 DUP1 SWAP5 DUP10 ADD ADD PUSH2 0x1CB6 JUMP JUMPDEST DUP2 MSTORE ADD SWAP3 ADD SWAP2 PUSH2 0x1D2F JUMP JUMPDEST SWAP1 PUSH1 0x1 DUP3 DUP2 SHR SWAP3 AND DUP1 ISZERO PUSH2 0x1D9B JUMPI JUMPDEST PUSH1 0x20 DUP4 LT EQ PUSH2 0x1D85 JUMPI JUMP JUMPDEST PUSH4 0x4E487B71 PUSH1 0xE0 SHL PUSH1 0x0 MSTORE PUSH1 0x22 PUSH1 0x4 MSTORE PUSH1 0x24 PUSH1 0x0 REVERT JUMPDEST SWAP2 PUSH1 0x7F AND SWAP2 PUSH2 0x1D7A JUMP JUMPDEST SWAP1 PUSH1 0x40 MLOAD SWAP2 DUP3 PUSH1 0x0 DUP3 SLOAD SWAP3 PUSH2 0x1DB9 DUP5 PUSH2 0x1D6B JUMP JUMPDEST SWAP1 DUP2 DUP5 MSTORE PUSH1 0x1 SWAP5 DUP6 DUP2 AND SWAP1 DUP2 PUSH1 0x0 EQ PUSH2 0x1E28 JUMPI POP PUSH1 0x1 EQ PUSH2 0x1DE5 JUMPI JUMPDEST POP POP PUSH2 0x1DE3 SWAP3 POP SUB DUP4 PUSH2 0x1C43 JUMP JUMPDEST JUMP JUMPDEST SWAP1 SWAP4 SWAP2 POP PUSH1 0x0 MSTORE PUSH1 0x20 SWAP1 DUP2 PUSH1 0x0 KECCAK256 SWAP4 PUSH1 0x0 SWAP2 JUMPDEST DUP2 DUP4 LT PUSH2 0x1E10 JUMPI POP POP PUSH2 0x1DE3 SWAP4 POP DUP3 ADD ADD CODESIZE DUP1 PUSH2 0x1DD5 JUMP JUMPDEST DUP6 SLOAD DUP9 DUP5 ADD DUP6 ADD MSTORE SWAP5 DUP6 ADD SWAP5 DUP8 SWAP5 POP SWAP2 DUP4 ADD SWAP2 PUSH2 0x1DF8 JUMP JUMPDEST SWAP2 POP POP PUSH2 0x1DE3 SWAP5 POP PUSH1 0x20 SWAP3 POP PUSH1 0xFF NOT AND DUP3 DUP5 ADD MSTORE ISZERO ISZERO PUSH1 0x5 SHL DUP3 ADD ADD CODESIZE DUP1 PUSH2 0x1DD5 JUMP JUMPDEST SWAP2 SWAP1 DUP3 MLOAD SWAP3 DUP4 DUP3 MSTORE PUSH1 0x0 JUMPDEST DUP5 DUP2 LT PUSH2 0x1E77 JUMPI POP POP DUP3 PUSH1 0x0 PUSH1 0x20 DUP1 SWAP5 SWAP6 DUP5 ADD ADD MSTORE PUSH1 0x1F DUP1 NOT SWAP2 ADD AND ADD ADD SWAP1 JUMP JUMPDEST PUSH1 0x20 DUP2 DUP4 ADD DUP2 ADD MLOAD DUP5 DUP4 ADD DUP3 ADD MSTORE ADD PUSH2 0x1E56 JUMP JUMPDEST PUSH1 0x0 SLOAD PUSH1 0x1 PUSH1 0x1 PUSH1 0xA0 SHL SUB AND CALLER SUB PUSH2 0x1E9F JUMPI JUMP JUMPDEST PUSH1 0x64 PUSH1 0x40 MLOAD PUSH3 0x461BCD PUSH1 0xE5 SHL DUP2 MSTORE PUSH1 0x20 PUSH1 0x4 DUP3 ADD MSTORE PUSH1 0x20 PUSH1 0x24 DUP3 ADD MSTORE PUSH32 0x4F776E61626C653A2063616C6C6572206973206E6F7420746865206F776E6572 PUSH1 0x44 DUP3 ADD MSTORE REVERT JUMPDEST DUP2 DUP2 LT PUSH2 0x1EEE JUMPI POP POP JUMP JUMPDEST PUSH1 0x0 DUP2 SSTORE PUSH1 0x1 ADD PUSH2 0x1EE3 JUMP JUMPDEST SWAP2 SWAP1 PUSH1 0x1F DUP2 GT PUSH2 0x1F09 JUMPI POP POP POP JUMP JUMPDEST PUSH2 0x1DE3 SWAP3 PUSH1 0x0 MSTORE PUSH1 0x20 PUSH1 0x0 KECCAK256 SWAP1 PUSH1 0x20 PUSH1 0x1F DUP5 ADD PUSH1 0x5 SHR DUP4 ADD SWAP4 LT PUSH2 0x1F35 JUMPI JUMPDEST PUSH1 0x1F ADD PUSH1 0x5 SHR ADD SWAP1 PUSH2 0x1EE3 JUMP JUMPDEST SWAP1 SWAP2 POP DUP2 SWAP1 PUSH2 0x1F28 JUMP JUMPDEST PUSH9 0x10000000000000000 DUP3 GT PUSH2 0xFAB JUMPI DUP1 SLOAD SWAP2 DUP1 DUP3 SSTORE DUP3 DUP2 LT PUSH2 0x1F61 JUMPI POP POP POP JUMP JUMPDEST PUSH1 0x0 SWAP2 DUP3 MSTORE PUSH1 0x20 SWAP1 DUP2 DUP4 KECCAK256 SWAP4 DUP5 ADD SWAP4 ADD JUMPDEST DUP4 DUP2 LT PUSH2 0x1F7F JUMPI POP POP POP POP JUMP JUMPDEST DUP1 DUP4 PUSH2 0x1F8D PUSH1 0x1 SWAP4 SLOAD PUSH2 0x1D6B JUMP JUMPDEST DUP1 PUSH2 0x1F9B JUMPI JUMPDEST POP POP ADD PUSH2 0x1F72 JUMP JUMPDEST PUSH1 0x1F DUP1 DUP3 GT DUP6 EQ PUSH2 0x1FB2 JUMPI POP POP DUP2 SSTORE JUMPDEST DUP4 CODESIZE PUSH2 0x1F93 JUMP JUMPDEST PUSH2 0x1FCB SWAP1 DUP5 DUP5 MSTORE DUP7 DUP5 KECCAK256 SWAP3 ADD PUSH1 0x5 SHR DUP3 ADD DUP6 DUP4 ADD PUSH2 0x1EE3 JUMP JUMPDEST DUP2 DUP4 SSTORE SSTORE PUSH2 0x1FAB JUMP JUMPDEST PUSH1 0x0 NOT DUP2 EQ PUSH2 0x1FE3 JUMPI PUSH1 0x1 ADD SWAP1 JUMP JUMPDEST PUSH4 0x4E487B71 PUSH1 0xE0 SHL PUSH1 0x0 MSTORE PUSH1 0x11 PUSH1 0x4 MSTORE PUSH1 0x24 PUSH1 0x0 REVERT JUMPDEST ISZERO PUSH2 0x2000 JUMPI JUMP JUMPDEST PUSH1 0x40 MLOAD PUSH3 0x461BCD PUSH1 0xE5 SHL DUP2 MSTORE PUSH1 0x20 PUSH1 0x4 DUP3 ADD MSTORE PUSH1 0xD PUSH1 0x24 DUP3 ADD MSTORE PUSH13 0x2737BA103B30B634B230BA37B9 PUSH1 0x99 SHL PUSH1 0x44 DUP3 ADD MSTORE PUSH1 0x64 SWAP1 REVERT JUMPDEST ISZERO PUSH2 0x203C JUMPI JUMP JUMPDEST PUSH1 0x40 MLOAD PUSH3 0x461BCD PUSH1 0xE5 SHL DUP2 MSTORE PUSH1 0x20 PUSH1 0x4 DUP3 ADD MSTORE PUSH1 0xD PUSH1 0x24 DUP3 ADD MSTORE PUSH13 0x141C9BD9DC985B48195B991959 PUSH1 0x9A SHL PUSH1 0x44 DUP3 ADD MSTORE PUSH1 0x64 SWAP1 REVERT JUMPDEST ISZERO PUSH2 0x2078 JUMPI JUMP JUMPDEST PUSH1 0x40 MLOAD PUSH3 0x461BCD PUSH1 0xE5 SHL DUP2 MSTORE PUSH1 0x20 PUSH1 0x4 DUP3 ADD MSTORE PUSH1 0x10 PUSH1 0x24 DUP3 ADD MSTORE PUSH16 0x105B1C9958591E48185C1C1C9BDD9959 PUSH1 0x82 SHL PUSH1 0x44 DUP3 ADD MSTORE PUSH1 0x64 SWAP1 REVERT JUMPDEST SWAP2 SWAP1 DUP2 LT ISZERO PUSH2 0x1715 JUMPI PUSH1 0x5 SHL DUP2 ADD CALLDATALOAD SWAP1 PUSH1 0x5E NOT DUP2 CALLDATASIZE SUB ADD DUP3 SLT ISZERO PUSH2 0x2B9 JUMPI ADD SWAP1 JUMP JUMPDEST SWAP1 CALLDATALOAD SWAP1 PUSH1 0x1E NOT DUP2 CALLDATASIZE SUB ADD DUP3 SLT ISZERO PUSH2 0x2B9 JUMPI ADD DUP1 CALLDATALOAD SWAP1 PUSH1 0x1 PUSH1 0x1 PUSH1 0x40 SHL SUB DUP3 GT PUSH2 0x2B9 JUMPI PUSH1 0x20 ADD SWAP2 DUP2 CALLDATASIZE SUB DUP4 SGT PUSH2 0x2B9 JUMPI JUMP JUMPDEST ISZERO PUSH2 0x210B JUMPI JUMP JUMPDEST PUSH1 0x40 MLOAD PUSH3 0x461BCD PUSH1 0xE5 SHL DUP2 MSTORE PUSH1 0x20 PUSH1 0x4 DUP3 ADD MSTORE PUSH1 0x11 PUSH1 0x24 DUP3 ADD MSTORE PUSH17 0x105B1C9958591E48195D985B1D585D1959 PUSH1 0x7A SHL PUSH1 0x44 DUP3 ADD MSTORE PUSH1 0x64 SWAP1 REVERT JUMPDEST ISZERO PUSH2 0x214B JUMPI JUMP JUMPDEST PUSH1 0x40 MLOAD PUSH3 0x461BCD PUSH1 0xE5 SHL DUP2 MSTORE PUSH1 0x20 PUSH1 0x4 DUP3 ADD MSTORE PUSH1 0xE PUSH1 0x24 DUP3 ADD MSTORE PUSH14 0x496E76616C696420737461747573 PUSH1 0x90 SHL PUSH1 0x44 DUP3 ADD MSTORE PUSH1 0x64 SWAP1 REVERT JUMPDEST PUSH1 0x2 PUSH1 0x1 SLOAD EQ PUSH2 0x2192 JUMPI PUSH1 0x2 PUSH1 0x1 SSTORE JUMP JUMPDEST PUSH1 0x40 MLOAD PUSH3 0x461BCD PUSH1 0xE5 SHL DUP2 MSTORE PUSH1 0x20 PUSH1 0x4 DUP3 ADD MSTORE PUSH1 0x1F PUSH1 0x24 DUP3 ADD MSTORE PUSH32 0x5265656E7472616E637947756172643A207265656E7472616E742063616C6C00 PUSH1 0x44 DUP3 ADD MSTORE PUSH1 0x64 SWAP1 REVERT INVALID LOG2 PUSH5 0x6970667358 0x22 SLT KECCAK256 0xD3 DELEGATECALL SMOD PUSH17 0x3CF7D379C6C18917A67EDED87168F0391E SAR 0x4C SWAP16 TIMESTAMP 0xEB 0x2F 0xE7 0xC3 0xCF SWAP16 0x4C PUSH5 0x736F6C6343 STOP ADDMOD EQ STOP CALLER "},"methodIdentifiers":{"acceptMilestone(uint256)":"ba1e64c6","applications(uint256)":"dfefadff","approveProgram(uint256)":"b0d456ac","createEduProgram(string,uint256,string[],uint256,uint256,address,string,string,string[])":"78ea19b0","denyApplication(uint256)":"db74ce3a","eduPrograms(uint256)":"d613fd24","getFee()":"ced72f87","milestones(uint256)":"e89e4ed6","nextApplicationId()":"625338cb","nextMilestoneId()":"9201f663","nextProgramId()":"ba71b330","owner()":"8da5cb5b","reclaimFunds(uint256)":"f9f161a8","rejectMilestone(uint256)":"caaed302","renounceOwnership()":"715018a6","selectApplication(uint256)":"1bc09f81","setFee(uint256)":"69fe0e2d","submitApplication(uint256,(string,string,uint256)[])":"3eeeefb7","submitMilestone(uint256,string[])":"1b5323f7","transferOwnership(address)":"f2fde38b","updateProgram(uint256,uint256,uint256,uint256,address)":"89001eb1"}}}}}