{"contracts/LdEduProgram.sol":{"LdEduProgram":{"abi":[{"inputs":[{"internalType":"address","name":"initialOwner","type":"address"}],"stateMutability":"nonpayable","type":"constructor"},{"anonymous":false,"inputs":[{"indexed":false,"internalType":"uint256","name":"newFee","type":"uint256"}],"name":"FeeUpdated","type":"event"},{"anonymous":false,"inputs":[{"indexed":true,"internalType":"uint256","name":"id","type":"uint256"},{"indexed":false,"internalType":"address","name":"maker","type":"address"},{"indexed":false,"internalType":"uint256","name":"amount","type":"uint256"}],"name":"FundsReclaimed","type":"event"},{"anonymous":false,"inputs":[{"indexed":true,"internalType":"uint256","name":"programId","type":"uint256"},{"indexed":true,"internalType":"address","name":"builder","type":"address"},{"indexed":false,"internalType":"uint256","name":"reward","type":"uint256"}],"name":"MilestoneAccepted","type":"event"},{"anonymous":false,"inputs":[{"indexed":true,"internalType":"address","name":"previousOwner","type":"address"},{"indexed":true,"internalType":"address","name":"newOwner","type":"address"}],"name":"OwnershipTransferred","type":"event"},{"anonymous":false,"inputs":[{"indexed":true,"internalType":"uint256","name":"id","type":"uint256"},{"indexed":true,"internalType":"address","name":"maker","type":"address"},{"indexed":true,"internalType":"address","name":"validator","type":"address"},{"indexed":false,"internalType":"uint256","name":"price","type":"uint256"}],"name":"ProgramCreated","type":"event"},{"anonymous":false,"inputs":[{"indexed":false,"internalType":"uint256","name":"programId","type":"uint256"},{"indexed":false,"internalType":"uint256","name":"price","type":"uint256"},{"indexed":false,"internalType":"uint256","name":"startTime","type":"uint256"},{"indexed":false,"internalType":"uint256","name":"endTime","type":"uint256"},{"indexed":false,"internalType":"address","name":"newValidator","type":"address"}],"name":"ProgramEdited","type":"event"},{"inputs":[{"internalType":"uint256","name":"programId","type":"uint256"},{"internalType":"address","name":"builder","type":"address"},{"internalType":"uint256","name":"reward","type":"uint256"}],"name":"acceptMilestone","outputs":[],"stateMutability":"nonpayable","type":"function"},{"inputs":[{"internalType":"string","name":"_name","type":"string"},{"internalType":"uint256","name":"_price","type":"uint256"},{"internalType":"uint256","name":"_startTime","type":"uint256"},{"internalType":"uint256","name":"_endTime","type":"uint256"},{"internalType":"address","name":"_validator","type":"address"}],"name":"createEduProgram","outputs":[],"stateMutability":"payable","type":"function"},{"inputs":[{"internalType":"uint256","name":"","type":"uint256"}],"name":"eduPrograms","outputs":[{"internalType":"uint256","name":"id","type":"uint256"},{"internalType":"string","name":"name","type":"string"},{"internalType":"uint256","name":"price","type":"uint256"},{"internalType":"uint256","name":"startTime","type":"uint256"},{"internalType":"uint256","name":"endTime","type":"uint256"},{"internalType":"address","name":"maker","type":"address"},{"internalType":"address","name":"validator","type":"address"},{"internalType":"bool","name":"claimed","type":"bool"}],"stateMutability":"view","type":"function"},{"inputs":[],"name":"getFee","outputs":[{"internalType":"uint256","name":"","type":"uint256"}],"stateMutability":"view","type":"function"},{"inputs":[],"name":"nextProgramId","outputs":[{"internalType":"uint256","name":"","type":"uint256"}],"stateMutability":"view","type":"function"},{"inputs":[],"name":"owner","outputs":[{"internalType":"address","name":"","type":"address"}],"stateMutability":"view","type":"function"},{"inputs":[{"internalType":"uint256","name":"programId","type":"uint256"}],"name":"reclaimFunds","outputs":[],"stateMutability":"nonpayable","type":"function"},{"inputs":[],"name":"renounceOwnership","outputs":[],"stateMutability":"nonpayable","type":"function"},{"inputs":[{"internalType":"uint256","name":"_fee","type":"uint256"}],"name":"setFee","outputs":[],"stateMutability":"nonpayable","type":"function"},{"inputs":[{"internalType":"address","name":"newOwner","type":"address"}],"name":"transferOwnership","outputs":[],"stateMutability":"nonpayable","type":"function"},{"inputs":[{"internalType":"uint256","name":"programId","type":"uint256"},{"internalType":"uint256","name":"price","type":"uint256"},{"internalType":"uint256","name":"startTime","type":"uint256"},{"internalType":"uint256","name":"endTime","type":"uint256"},{"internalType":"address","name":"newValidator","type":"address"}],"name":"updateProgram","outputs":[],"stateMutability":"nonpayable","type":"function"}],"evm":{"bytecode":{"linkReferences":{},"object":"60803461007457601f610ea738819003918201601f19168301916001600160401b038311848410176100795780849260209460405283398101031261007457516001600160a01b0381168103610074576100659061005c3361008f565b6001805561008f565b604051610dd090816100d78239f35b600080fd5b634e487b7160e01b600052604160045260246000fd5b600080546001600160a01b039283166001600160a01b03198216811783559216907f8be0079c531659141344cd1fd0a4f28419497f9722a3daafe3b4186f6b6457e09080a356fe6080604052600436101561001257600080fd5b60003560e01c8063390cf36b14610a6057806369fe0e2d14610a14578063715018a6146109bb57806389001eb11461085b5780638da5cb5b14610832578063ba71b33014610814578063bf9d633714610442578063ced72f8714610424578063d613fd24146102ad578063f2fde38b146101e75763f9f161a81461009557600080fd5b346101e25760203660031901126101e2576004356100b1610d44565b806000526002602052604060002060048101544211156101a5576005810180546001600160a01b039290831690338290036101685760068101805460ff60a01b1916600160a01b1790556002018054909160009182918291829182821561015f575bf115610153577fd37c0b9c7560299a7c963d03165111d712663805228e5ffca03d540c5d6e410e926040925416905482519182526020820152a260018055005b6040513d6000823e3d90fd5b506108fc610113565b60405162461bcd60e51b81526020600482015260156024820152742737ba103a343290383937b3b930b69036b0b5b2b960591b6044820152606490fd5b60405162461bcd60e51b8152602060048201526015602482015274141c9bd9dc985b481b9bdd08195b991959081e595d605a1b6044820152606490fd5b600080fd5b346101e25760203660031901126101e2576004356001600160a01b03818116918290036101e257610216610cec565b811561025957600054826001600160601b0360a01b821617600055167f8be0079c531659141344cd1fd0a4f28419497f9722a3daafe3b4186f6b6457e0600080a3005b60405162461bcd60e51b815260206004820152602660248201527f4f776e61626c653a206e6577206f776e657220697320746865207a65726f206160448201526564647265737360d01b6064820152608490fd5b346101e2576020806003193601126101e25760043560005260028152604060002080549160019081830160405180936000908354936102eb85610cb2565b948585528683821691826000146104025750506001146103c3575b50506103189250959294950383610c5e565b60028401549260038501549460048101549060018060a01b03906006826005830154169101549260405198899687526101009586818901528851809789015260005b8781106103a957505060ff959697506101209860008a898b01015260408901526060880152608087015260a0860152811660c085015260a01c16151560e0830152601f80199101168101030190f35b808a0182015198810161012001989098528a97810161035a565b85925060005281600020906000915b8583106103ea57505061031893508201018780610306565b805483890185015287945086939092019181016103d2565b925093505061031894915060ff191682840152151560051b8201018780610306565b346101e25760003660031901126101e2576020600454604051908152f35b60a03660031901126101e25760043567ffffffffffffffff81116101e257366023820112156101e25780600401359061047a82610c96565b916104886040519384610c5e565b808352602491368383830101116101e2578160009284602093018387013784010152606435916044356104b9610c48565b91833534036107ba578482101561075c576003549460405192610100840184811067ffffffffffffffff821117610747576040528684526020840192835285356040850152606084015260808301523360a083015260018060a01b03831660c0830152600060e0830152846000526002602052604060002090825182555180519067ffffffffffffffff8211610732576105566001840154610cb2565b601f81116106eb575b50602090601f83116001146106785760069392916000918361066d575b50508160011b916000199060031b1c19161760018201555b6040830151600282015560608301516003820155608083015160048201556005810160018060a01b0360a0850151166001600160601b0360a01b825416179055019060018060a01b0360c08201511682549160e060ff60a01b910151151560a01b16916affffffffffffffffffffff60a81b1617179055600354600019811461065857600101600355604051913582526001600160a01b03169133917f808c887919683a350ed55b3499f97ed7f4093ecc5e131fadb8b075a85457af3a90602090a4005b82634e487b7160e01b60005260116004526000fd5b01519050888061057c565b906001840160005260206000209160005b601f19851681106106d3575091839160019360069695601f198116106106ba575b505050811b016001820155610594565b015160001960f88460031b161c191690558880806106aa565b91926020600181928685015181550194019201610689565b600184016000526020600020601f840160051c81016020851061072b575b601f830160051c8201811061071f57505061055f565b60008155600101610709565b5080610709565b85634e487b7160e01b60005260416004526000fd5b86634e487b7160e01b60005260416004526000fd5b60405162461bcd60e51b8152602060048201526031818601527f5468652053746172742074696d65206d757374206265206561726c69657220746044820152703430b7103a34329032b732103a34b6b29760791b6064820152608490fd5b60405162461bcd60e51b815260206004820152602d818601527f546865204554482073656e7420646f6573206e6f74206d61746368207468652060448201526c70726f6772616d20707269636560981b6064820152608490fd5b346101e25760003660031901126101e2576020600354604051908152f35b346101e25760003660031901126101e2576000546040516001600160a01b039091168152602090f35b346101e25760a03660031901126101e257602435604435600435606435610880610c48565b9082600052600260205260406000209360018060a01b0395866005870154163303610987578282101561095357801561091e577fe3d59d03839a10c8a5a85dd0d7e5a4ac45445821c5176529d2745adf6915a1619660068783600260a09a015584600382015585600482015501941693846001600160601b03881b8254161790556040519485526020850152604084015260608301526080820152a1005b60405162461bcd60e51b815260206004820152600d60248201526c496e76616c696420707269636560981b6044820152606490fd5b60405162461bcd60e51b815260206004820152600c60248201526b496e76616c69642074696d6560a01b6044820152606490fd5b60405162461bcd60e51b815260206004820152600c60248201526b27b7363c9031b932b0ba37b960a11b6044820152606490fd5b346101e25760003660031901126101e2576109d4610cec565b600080546001600160a01b0319811682556001600160a01b03167f8be0079c531659141344cd1fd0a4f28419497f9722a3daafe3b4186f6b6457e08280a3005b346101e25760203660031901126101e2577f8c4d35e54a3f2ef1134138fd8ea3daee6a3c89e10d2665996babdf70261e2c766020600435610a53610cec565b80600455604051908152a1005b346101e25760603660031901126101e25760246001600160a01b03813581811691600435918390036101e257604435610a97610d44565b82600052602091600283526040600020906006820154163303610c145760020180548211610bd057814710610b8c57600080808085895af13d15610b87573d610adf81610c96565b90610aed6040519283610c5e565b81526000853d92013e5b15610b5157805490828203918211610b3c577f5e7ec629459bd8a1dd4e7b57a2b8f58a033bf40168315e2dddd2fe2c3c3640f09495965055604051908152a360018055005b86634e487b7160e01b60005260116004526000fd5b60405162461bcd60e51b815260048101849052600f818801526e151c985b9cd9995c8819985a5b1959608a1b6044820152606490fd5b610af7565b60405162461bcd60e51b815260048101849052601d818801527f496e73756666696369656e7420636f6e74726163742062616c616e63650000006044820152606490fd5b60405162461bcd60e51b815260048101849052601e818801527f52657761726420657863656564732070726f6772616d2062616c616e636500006044820152606490fd5b60405162461bcd60e51b815260048101849052600d818801526c2737ba103b30b634b230ba37b960991b6044820152606490fd5b608435906001600160a01b03821682036101e257565b90601f8019910116810190811067ffffffffffffffff821117610c8057604052565b634e487b7160e01b600052604160045260246000fd5b67ffffffffffffffff8111610c8057601f01601f191660200190565b90600182811c92168015610ce2575b6020831014610ccc57565b634e487b7160e01b600052602260045260246000fd5b91607f1691610cc1565b6000546001600160a01b03163303610d0057565b606460405162461bcd60e51b815260206004820152602060248201527f4f776e61626c653a2063616c6c6572206973206e6f7420746865206f776e65726044820152fd5b600260015414610d55576002600155565b60405162461bcd60e51b815260206004820152601f60248201527f5265656e7472616e637947756172643a207265656e7472616e742063616c6c006044820152606490fdfea2646970667358221220bce52aa52cadeb3920902a150044292661731ebf94e408eddc71a1283f12d3f164736f6c63430008140033","opcodes":"PUSH1 0x80 CALLVALUE PUSH2 0x74 JUMPI PUSH1 0x1F PUSH2 0xEA7 CODESIZE DUP2 SWAP1 SUB SWAP2 DUP3 ADD PUSH1 0x1F NOT AND DUP4 ADD SWAP2 PUSH1 0x1 PUSH1 0x1 PUSH1 0x40 SHL SUB DUP4 GT DUP5 DUP5 LT OR PUSH2 0x79 JUMPI DUP1 DUP5 SWAP3 PUSH1 0x20 SWAP5 PUSH1 0x40 MSTORE DUP4 CODECOPY DUP2 ADD SUB SLT PUSH2 0x74 JUMPI MLOAD PUSH1 0x1 PUSH1 0x1 PUSH1 0xA0 SHL SUB DUP2 AND DUP2 SUB PUSH2 0x74 JUMPI PUSH2 0x65 SWAP1 PUSH2 0x5C CALLER PUSH2 0x8F JUMP JUMPDEST PUSH1 0x1 DUP1 SSTORE PUSH2 0x8F JUMP JUMPDEST PUSH1 0x40 MLOAD PUSH2 0xDD0 SWAP1 DUP2 PUSH2 0xD7 DUP3 CODECOPY RETURN JUMPDEST PUSH1 0x0 DUP1 REVERT JUMPDEST PUSH4 0x4E487B71 PUSH1 0xE0 SHL PUSH1 0x0 MSTORE PUSH1 0x41 PUSH1 0x4 MSTORE PUSH1 0x24 PUSH1 0x0 REVERT JUMPDEST PUSH1 0x0 DUP1 SLOAD PUSH1 0x1 PUSH1 0x1 PUSH1 0xA0 SHL SUB SWAP3 DUP4 AND PUSH1 0x1 PUSH1 0x1 PUSH1 0xA0 SHL SUB NOT DUP3 AND DUP2 OR DUP4 SSTORE SWAP3 AND SWAP1 PUSH32 0x8BE0079C531659141344CD1FD0A4F28419497F9722A3DAAFE3B4186F6B6457E0 SWAP1 DUP1 LOG3 JUMP INVALID PUSH1 0x80 PUSH1 0x40 MSTORE PUSH1 0x4 CALLDATASIZE LT ISZERO PUSH2 0x12 JUMPI PUSH1 0x0 DUP1 REVERT JUMPDEST PUSH1 0x0 CALLDATALOAD PUSH1 0xE0 SHR DUP1 PUSH4 0x390CF36B EQ PUSH2 0xA60 JUMPI DUP1 PUSH4 0x69FE0E2D EQ PUSH2 0xA14 JUMPI DUP1 PUSH4 0x715018A6 EQ PUSH2 0x9BB JUMPI DUP1 PUSH4 0x89001EB1 EQ PUSH2 0x85B JUMPI DUP1 PUSH4 0x8DA5CB5B EQ PUSH2 0x832 JUMPI DUP1 PUSH4 0xBA71B330 EQ PUSH2 0x814 JUMPI DUP1 PUSH4 0xBF9D6337 EQ PUSH2 0x442 JUMPI DUP1 PUSH4 0xCED72F87 EQ PUSH2 0x424 JUMPI DUP1 PUSH4 0xD613FD24 EQ PUSH2 0x2AD JUMPI DUP1 PUSH4 0xF2FDE38B EQ PUSH2 0x1E7 JUMPI PUSH4 0xF9F161A8 EQ PUSH2 0x95 JUMPI PUSH1 0x0 DUP1 REVERT JUMPDEST CALLVALUE PUSH2 0x1E2 JUMPI PUSH1 0x20 CALLDATASIZE PUSH1 0x3 NOT ADD SLT PUSH2 0x1E2 JUMPI PUSH1 0x4 CALLDATALOAD PUSH2 0xB1 PUSH2 0xD44 JUMP JUMPDEST DUP1 PUSH1 0x0 MSTORE PUSH1 0x2 PUSH1 0x20 MSTORE PUSH1 0x40 PUSH1 0x0 KECCAK256 PUSH1 0x4 DUP2 ADD SLOAD TIMESTAMP GT ISZERO PUSH2 0x1A5 JUMPI PUSH1 0x5 DUP2 ADD DUP1 SLOAD PUSH1 0x1 PUSH1 0x1 PUSH1 0xA0 SHL SUB SWAP3 SWAP1 DUP4 AND SWAP1 CALLER DUP3 SWAP1 SUB PUSH2 0x168 JUMPI PUSH1 0x6 DUP2 ADD DUP1 SLOAD PUSH1 0xFF PUSH1 0xA0 SHL NOT AND PUSH1 0x1 PUSH1 0xA0 SHL OR SWAP1 SSTORE PUSH1 0x2 ADD DUP1 SLOAD SWAP1 SWAP2 PUSH1 0x0 SWAP2 DUP3 SWAP2 DUP3 SWAP2 DUP3 SWAP2 DUP3 DUP3 ISZERO PUSH2 0x15F JUMPI JUMPDEST CALL ISZERO PUSH2 0x153 JUMPI PUSH32 0xD37C0B9C7560299A7C963D03165111D712663805228E5FFCA03D540C5D6E410E SWAP3 PUSH1 0x40 SWAP3 SLOAD AND SWAP1 SLOAD DUP3 MLOAD SWAP2 DUP3 MSTORE PUSH1 0x20 DUP3 ADD MSTORE LOG2 PUSH1 0x1 DUP1 SSTORE STOP JUMPDEST PUSH1 0x40 MLOAD RETURNDATASIZE PUSH1 0x0 DUP3 RETURNDATACOPY RETURNDATASIZE SWAP1 REVERT JUMPDEST POP PUSH2 0x8FC PUSH2 0x113 JUMP JUMPDEST PUSH1 0x40 MLOAD PUSH3 0x461BCD PUSH1 0xE5 SHL DUP2 MSTORE PUSH1 0x20 PUSH1 0x4 DUP3 ADD MSTORE PUSH1 0x15 PUSH1 0x24 DUP3 ADD MSTORE PUSH21 0x2737BA103A343290383937B3B930B69036B0B5B2B9 PUSH1 0x59 SHL PUSH1 0x44 DUP3 ADD MSTORE PUSH1 0x64 SWAP1 REVERT JUMPDEST PUSH1 0x40 MLOAD PUSH3 0x461BCD PUSH1 0xE5 SHL DUP2 MSTORE PUSH1 0x20 PUSH1 0x4 DUP3 ADD MSTORE PUSH1 0x15 PUSH1 0x24 DUP3 ADD MSTORE PUSH21 0x141C9BD9DC985B481B9BDD08195B991959081E595D PUSH1 0x5A SHL PUSH1 0x44 DUP3 ADD MSTORE PUSH1 0x64 SWAP1 REVERT JUMPDEST PUSH1 0x0 DUP1 REVERT JUMPDEST CALLVALUE PUSH2 0x1E2 JUMPI PUSH1 0x20 CALLDATASIZE PUSH1 0x3 NOT ADD SLT PUSH2 0x1E2 JUMPI PUSH1 0x4 CALLDATALOAD PUSH1 0x1 PUSH1 0x1 PUSH1 0xA0 SHL SUB DUP2 DUP2 AND SWAP2 DUP3 SWAP1 SUB PUSH2 0x1E2 JUMPI PUSH2 0x216 PUSH2 0xCEC JUMP JUMPDEST DUP2 ISZERO PUSH2 0x259 JUMPI PUSH1 0x0 SLOAD DUP3 PUSH1 0x1 PUSH1 0x1 PUSH1 0x60 SHL SUB PUSH1 0xA0 SHL DUP3 AND OR PUSH1 0x0 SSTORE AND PUSH32 0x8BE0079C531659141344CD1FD0A4F28419497F9722A3DAAFE3B4186F6B6457E0 PUSH1 0x0 DUP1 LOG3 STOP JUMPDEST PUSH1 0x40 MLOAD PUSH3 0x461BCD PUSH1 0xE5 SHL DUP2 MSTORE PUSH1 0x20 PUSH1 0x4 DUP3 ADD MSTORE PUSH1 0x26 PUSH1 0x24 DUP3 ADD MSTORE PUSH32 0x4F776E61626C653A206E6577206F776E657220697320746865207A65726F2061 PUSH1 0x44 DUP3 ADD MSTORE PUSH6 0x646472657373 PUSH1 0xD0 SHL PUSH1 0x64 DUP3 ADD MSTORE PUSH1 0x84 SWAP1 REVERT JUMPDEST CALLVALUE PUSH2 0x1E2 JUMPI PUSH1 0x20 DUP1 PUSH1 0x3 NOT CALLDATASIZE ADD SLT PUSH2 0x1E2 JUMPI PUSH1 0x4 CALLDATALOAD PUSH1 0x0 MSTORE PUSH1 0x2 DUP2 MSTORE PUSH1 0x40 PUSH1 0x0 KECCAK256 DUP1 SLOAD SWAP2 PUSH1 0x1 SWAP1 DUP2 DUP4 ADD PUSH1 0x40 MLOAD DUP1 SWAP4 PUSH1 0x0 SWAP1 DUP4 SLOAD SWAP4 PUSH2 0x2EB DUP6 PUSH2 0xCB2 JUMP JUMPDEST SWAP5 DUP6 DUP6 MSTORE DUP7 DUP4 DUP3 AND SWAP2 DUP3 PUSH1 0x0 EQ PUSH2 0x402 JUMPI POP POP PUSH1 0x1 EQ PUSH2 0x3C3 JUMPI JUMPDEST POP POP PUSH2 0x318 SWAP3 POP SWAP6 SWAP3 SWAP5 SWAP6 SUB DUP4 PUSH2 0xC5E JUMP JUMPDEST PUSH1 0x2 DUP5 ADD SLOAD SWAP3 PUSH1 0x3 DUP6 ADD SLOAD SWAP5 PUSH1 0x4 DUP2 ADD SLOAD SWAP1 PUSH1 0x1 DUP1 PUSH1 0xA0 SHL SUB SWAP1 PUSH1 0x6 DUP3 PUSH1 0x5 DUP4 ADD SLOAD AND SWAP2 ADD SLOAD SWAP3 PUSH1 0x40 MLOAD SWAP9 DUP10 SWAP7 DUP8 MSTORE PUSH2 0x100 SWAP6 DUP7 DUP2 DUP10 ADD MSTORE DUP9 MLOAD DUP1 SWAP8 DUP10 ADD MSTORE PUSH1 0x0 JUMPDEST DUP8 DUP2 LT PUSH2 0x3A9 JUMPI POP POP PUSH1 0xFF SWAP6 SWAP7 SWAP8 POP PUSH2 0x120 SWAP9 PUSH1 0x0 DUP11 DUP10 DUP12 ADD ADD MSTORE PUSH1 0x40 DUP10 ADD MSTORE PUSH1 0x60 DUP9 ADD MSTORE PUSH1 0x80 DUP8 ADD MSTORE PUSH1 0xA0 DUP7 ADD MSTORE DUP2 AND PUSH1 0xC0 DUP6 ADD MSTORE PUSH1 0xA0 SHR AND ISZERO ISZERO PUSH1 0xE0 DUP4 ADD MSTORE PUSH1 0x1F DUP1 NOT SWAP2 ADD AND DUP2 ADD SUB ADD SWAP1 RETURN JUMPDEST DUP1 DUP11 ADD DUP3 ADD MLOAD SWAP9 DUP2 ADD PUSH2 0x120 ADD SWAP9 SWAP1 SWAP9 MSTORE DUP11 SWAP8 DUP2 ADD PUSH2 0x35A JUMP JUMPDEST DUP6 SWAP3 POP PUSH1 0x0 MSTORE DUP2 PUSH1 0x0 KECCAK256 SWAP1 PUSH1 0x0 SWAP2 JUMPDEST DUP6 DUP4 LT PUSH2 0x3EA JUMPI POP POP PUSH2 0x318 SWAP4 POP DUP3 ADD ADD DUP8 DUP1 PUSH2 0x306 JUMP JUMPDEST DUP1 SLOAD DUP4 DUP10 ADD DUP6 ADD MSTORE DUP8 SWAP5 POP DUP7 SWAP4 SWAP1 SWAP3 ADD SWAP2 DUP2 ADD PUSH2 0x3D2 JUMP JUMPDEST SWAP3 POP SWAP4 POP POP PUSH2 0x318 SWAP5 SWAP2 POP PUSH1 0xFF NOT AND DUP3 DUP5 ADD MSTORE ISZERO ISZERO PUSH1 0x5 SHL DUP3 ADD ADD DUP8 DUP1 PUSH2 0x306 JUMP JUMPDEST CALLVALUE PUSH2 0x1E2 JUMPI PUSH1 0x0 CALLDATASIZE PUSH1 0x3 NOT ADD SLT PUSH2 0x1E2 JUMPI PUSH1 0x20 PUSH1 0x4 SLOAD PUSH1 0x40 MLOAD SWAP1 DUP2 MSTORE RETURN JUMPDEST PUSH1 0xA0 CALLDATASIZE PUSH1 0x3 NOT ADD SLT PUSH2 0x1E2 JUMPI PUSH1 0x4 CALLDATALOAD PUSH8 0xFFFFFFFFFFFFFFFF DUP2 GT PUSH2 0x1E2 JUMPI CALLDATASIZE PUSH1 0x23 DUP3 ADD SLT ISZERO PUSH2 0x1E2 JUMPI DUP1 PUSH1 0x4 ADD CALLDATALOAD SWAP1 PUSH2 0x47A DUP3 PUSH2 0xC96 JUMP JUMPDEST SWAP2 PUSH2 0x488 PUSH1 0x40 MLOAD SWAP4 DUP5 PUSH2 0xC5E JUMP JUMPDEST DUP1 DUP4 MSTORE PUSH1 0x24 SWAP2 CALLDATASIZE DUP4 DUP4 DUP4 ADD ADD GT PUSH2 0x1E2 JUMPI DUP2 PUSH1 0x0 SWAP3 DUP5 PUSH1 0x20 SWAP4 ADD DUP4 DUP8 ADD CALLDATACOPY DUP5 ADD ADD MSTORE PUSH1 0x64 CALLDATALOAD SWAP2 PUSH1 0x44 CALLDATALOAD PUSH2 0x4B9 PUSH2 0xC48 JUMP JUMPDEST SWAP2 DUP4 CALLDATALOAD CALLVALUE SUB PUSH2 0x7BA JUMPI DUP5 DUP3 LT ISZERO PUSH2 0x75C JUMPI PUSH1 0x3 SLOAD SWAP5 PUSH1 0x40 MLOAD SWAP3 PUSH2 0x100 DUP5 ADD DUP5 DUP2 LT PUSH8 0xFFFFFFFFFFFFFFFF DUP3 GT OR PUSH2 0x747 JUMPI PUSH1 0x40 MSTORE DUP7 DUP5 MSTORE PUSH1 0x20 DUP5 ADD SWAP3 DUP4 MSTORE DUP6 CALLDATALOAD PUSH1 0x40 DUP6 ADD MSTORE PUSH1 0x60 DUP5 ADD MSTORE PUSH1 0x80 DUP4 ADD MSTORE CALLER PUSH1 0xA0 DUP4 ADD MSTORE PUSH1 0x1 DUP1 PUSH1 0xA0 SHL SUB DUP4 AND PUSH1 0xC0 DUP4 ADD MSTORE PUSH1 0x0 PUSH1 0xE0 DUP4 ADD MSTORE DUP5 PUSH1 0x0 MSTORE PUSH1 0x2 PUSH1 0x20 MSTORE PUSH1 0x40 PUSH1 0x0 KECCAK256 SWAP1 DUP3 MLOAD DUP3 SSTORE MLOAD DUP1 MLOAD SWAP1 PUSH8 0xFFFFFFFFFFFFFFFF DUP3 GT PUSH2 0x732 JUMPI PUSH2 0x556 PUSH1 0x1 DUP5 ADD SLOAD PUSH2 0xCB2 JUMP JUMPDEST PUSH1 0x1F DUP2 GT PUSH2 0x6EB JUMPI JUMPDEST POP PUSH1 0x20 SWAP1 PUSH1 0x1F DUP4 GT PUSH1 0x1 EQ PUSH2 0x678 JUMPI PUSH1 0x6 SWAP4 SWAP3 SWAP2 PUSH1 0x0 SWAP2 DUP4 PUSH2 0x66D JUMPI JUMPDEST POP POP DUP2 PUSH1 0x1 SHL SWAP2 PUSH1 0x0 NOT SWAP1 PUSH1 0x3 SHL SHR NOT AND OR PUSH1 0x1 DUP3 ADD SSTORE JUMPDEST PUSH1 0x40 DUP4 ADD MLOAD PUSH1 0x2 DUP3 ADD SSTORE PUSH1 0x60 DUP4 ADD MLOAD PUSH1 0x3 DUP3 ADD SSTORE PUSH1 0x80 DUP4 ADD MLOAD PUSH1 0x4 DUP3 ADD SSTORE PUSH1 0x5 DUP2 ADD PUSH1 0x1 DUP1 PUSH1 0xA0 SHL SUB PUSH1 0xA0 DUP6 ADD MLOAD AND PUSH1 0x1 PUSH1 0x1 PUSH1 0x60 SHL SUB PUSH1 0xA0 SHL DUP3 SLOAD AND OR SWAP1 SSTORE ADD SWAP1 PUSH1 0x1 DUP1 PUSH1 0xA0 SHL SUB PUSH1 0xC0 DUP3 ADD MLOAD AND DUP3 SLOAD SWAP2 PUSH1 0xE0 PUSH1 0xFF PUSH1 0xA0 SHL SWAP2 ADD MLOAD ISZERO ISZERO PUSH1 0xA0 SHL AND SWAP2 PUSH11 0xFFFFFFFFFFFFFFFFFFFFFF PUSH1 0xA8 SHL AND OR OR SWAP1 SSTORE PUSH1 0x3 SLOAD PUSH1 0x0 NOT DUP2 EQ PUSH2 0x658 JUMPI PUSH1 0x1 ADD PUSH1 0x3 SSTORE PUSH1 0x40 MLOAD SWAP2 CALLDATALOAD DUP3 MSTORE PUSH1 0x1 PUSH1 0x1 PUSH1 0xA0 SHL SUB AND SWAP2 CALLER SWAP2 PUSH32 0x808C887919683A350ED55B3499F97ED7F4093ECC5E131FADB8B075A85457AF3A SWAP1 PUSH1 0x20 SWAP1 LOG4 STOP JUMPDEST DUP3 PUSH4 0x4E487B71 PUSH1 0xE0 SHL PUSH1 0x0 MSTORE PUSH1 0x11 PUSH1 0x4 MSTORE PUSH1 0x0 REVERT JUMPDEST ADD MLOAD SWAP1 POP DUP9 DUP1 PUSH2 0x57C JUMP JUMPDEST SWAP1 PUSH1 0x1 DUP5 ADD PUSH1 0x0 MSTORE PUSH1 0x20 PUSH1 0x0 KECCAK256 SWAP2 PUSH1 0x0 JUMPDEST PUSH1 0x1F NOT DUP6 AND DUP2 LT PUSH2 0x6D3 JUMPI POP SWAP2 DUP4 SWAP2 PUSH1 0x1 SWAP4 PUSH1 0x6 SWAP7 SWAP6 PUSH1 0x1F NOT DUP2 AND LT PUSH2 0x6BA JUMPI JUMPDEST POP POP POP DUP2 SHL ADD PUSH1 0x1 DUP3 ADD SSTORE PUSH2 0x594 JUMP JUMPDEST ADD MLOAD PUSH1 0x0 NOT PUSH1 0xF8 DUP5 PUSH1 0x3 SHL AND SHR NOT AND SWAP1 SSTORE DUP9 DUP1 DUP1 PUSH2 0x6AA JUMP JUMPDEST SWAP2 SWAP3 PUSH1 0x20 PUSH1 0x1 DUP2 SWAP3 DUP7 DUP6 ADD MLOAD DUP2 SSTORE ADD SWAP5 ADD SWAP3 ADD PUSH2 0x689 JUMP JUMPDEST PUSH1 0x1 DUP5 ADD PUSH1 0x0 MSTORE PUSH1 0x20 PUSH1 0x0 KECCAK256 PUSH1 0x1F DUP5 ADD PUSH1 0x5 SHR DUP2 ADD PUSH1 0x20 DUP6 LT PUSH2 0x72B JUMPI JUMPDEST PUSH1 0x1F DUP4 ADD PUSH1 0x5 SHR DUP3 ADD DUP2 LT PUSH2 0x71F JUMPI POP POP PUSH2 0x55F JUMP JUMPDEST PUSH1 0x0 DUP2 SSTORE PUSH1 0x1 ADD PUSH2 0x709 JUMP JUMPDEST POP DUP1 PUSH2 0x709 JUMP JUMPDEST DUP6 PUSH4 0x4E487B71 PUSH1 0xE0 SHL PUSH1 0x0 MSTORE PUSH1 0x41 PUSH1 0x4 MSTORE PUSH1 0x0 REVERT JUMPDEST DUP7 PUSH4 0x4E487B71 PUSH1 0xE0 SHL PUSH1 0x0 MSTORE PUSH1 0x41 PUSH1 0x4 MSTORE PUSH1 0x0 REVERT JUMPDEST PUSH1 0x40 MLOAD PUSH3 0x461BCD PUSH1 0xE5 SHL DUP2 MSTORE PUSH1 0x20 PUSH1 0x4 DUP3 ADD MSTORE PUSH1 0x31 DUP2 DUP7 ADD MSTORE PUSH32 0x5468652053746172742074696D65206D757374206265206561726C6965722074 PUSH1 0x44 DUP3 ADD MSTORE PUSH17 0x3430B7103A34329032B732103A34B6B297 PUSH1 0x79 SHL PUSH1 0x64 DUP3 ADD MSTORE PUSH1 0x84 SWAP1 REVERT JUMPDEST PUSH1 0x40 MLOAD PUSH3 0x461BCD PUSH1 0xE5 SHL DUP2 MSTORE PUSH1 0x20 PUSH1 0x4 DUP3 ADD MSTORE PUSH1 0x2D DUP2 DUP7 ADD MSTORE PUSH32 0x546865204554482073656E7420646F6573206E6F74206D617463682074686520 PUSH1 0x44 DUP3 ADD MSTORE PUSH13 0x70726F6772616D207072696365 PUSH1 0x98 SHL PUSH1 0x64 DUP3 ADD MSTORE PUSH1 0x84 SWAP1 REVERT JUMPDEST CALLVALUE PUSH2 0x1E2 JUMPI PUSH1 0x0 CALLDATASIZE PUSH1 0x3 NOT ADD SLT PUSH2 0x1E2 JUMPI PUSH1 0x20 PUSH1 0x3 SLOAD PUSH1 0x40 MLOAD SWAP1 DUP2 MSTORE RETURN JUMPDEST CALLVALUE PUSH2 0x1E2 JUMPI PUSH1 0x0 CALLDATASIZE PUSH1 0x3 NOT ADD SLT PUSH2 0x1E2 JUMPI PUSH1 0x0 SLOAD PUSH1 0x40 MLOAD PUSH1 0x1 PUSH1 0x1 PUSH1 0xA0 SHL SUB SWAP1 SWAP2 AND DUP2 MSTORE PUSH1 0x20 SWAP1 RETURN JUMPDEST CALLVALUE PUSH2 0x1E2 JUMPI PUSH1 0xA0 CALLDATASIZE PUSH1 0x3 NOT ADD SLT PUSH2 0x1E2 JUMPI PUSH1 0x24 CALLDATALOAD PUSH1 0x44 CALLDATALOAD PUSH1 0x4 CALLDATALOAD PUSH1 0x64 CALLDATALOAD PUSH2 0x880 PUSH2 0xC48 JUMP JUMPDEST SWAP1 DUP3 PUSH1 0x0 MSTORE PUSH1 0x2 PUSH1 0x20 MSTORE PUSH1 0x40 PUSH1 0x0 KECCAK256 SWAP4 PUSH1 0x1 DUP1 PUSH1 0xA0 SHL SUB SWAP6 DUP7 PUSH1 0x5 DUP8 ADD SLOAD AND CALLER SUB PUSH2 0x987 JUMPI DUP3 DUP3 LT ISZERO PUSH2 0x953 JUMPI DUP1 ISZERO PUSH2 0x91E JUMPI PUSH32 0xE3D59D03839A10C8A5A85DD0D7E5A4AC45445821C5176529D2745ADF6915A161 SWAP7 PUSH1 0x6 DUP8 DUP4 PUSH1 0x2 PUSH1 0xA0 SWAP11 ADD SSTORE DUP5 PUSH1 0x3 DUP3 ADD SSTORE DUP6 PUSH1 0x4 DUP3 ADD SSTORE ADD SWAP5 AND SWAP4 DUP5 PUSH1 0x1 PUSH1 0x1 PUSH1 0x60 SHL SUB DUP9 SHL DUP3 SLOAD AND OR SWAP1 SSTORE PUSH1 0x40 MLOAD SWAP5 DUP6 MSTORE PUSH1 0x20 DUP6 ADD MSTORE PUSH1 0x40 DUP5 ADD MSTORE PUSH1 0x60 DUP4 ADD MSTORE PUSH1 0x80 DUP3 ADD MSTORE LOG1 STOP JUMPDEST PUSH1 0x40 MLOAD PUSH3 0x461BCD PUSH1 0xE5 SHL DUP2 MSTORE PUSH1 0x20 PUSH1 0x4 DUP3 ADD MSTORE PUSH1 0xD PUSH1 0x24 DUP3 ADD MSTORE PUSH13 0x496E76616C6964207072696365 PUSH1 0x98 SHL PUSH1 0x44 DUP3 ADD MSTORE PUSH1 0x64 SWAP1 REVERT JUMPDEST PUSH1 0x40 MLOAD PUSH3 0x461BCD PUSH1 0xE5 SHL DUP2 MSTORE PUSH1 0x20 PUSH1 0x4 DUP3 ADD MSTORE PUSH1 0xC PUSH1 0x24 DUP3 ADD MSTORE PUSH12 0x496E76616C69642074696D65 PUSH1 0xA0 SHL PUSH1 0x44 DUP3 ADD MSTORE PUSH1 0x64 SWAP1 REVERT JUMPDEST PUSH1 0x40 MLOAD PUSH3 0x461BCD PUSH1 0xE5 SHL DUP2 MSTORE PUSH1 0x20 PUSH1 0x4 DUP3 ADD MSTORE PUSH1 0xC PUSH1 0x24 DUP3 ADD MSTORE PUSH12 0x27B7363C9031B932B0BA37B9 PUSH1 0xA1 SHL PUSH1 0x44 DUP3 ADD MSTORE PUSH1 0x64 SWAP1 REVERT JUMPDEST CALLVALUE PUSH2 0x1E2 JUMPI PUSH1 0x0 CALLDATASIZE PUSH1 0x3 NOT ADD SLT PUSH2 0x1E2 JUMPI PUSH2 0x9D4 PUSH2 0xCEC JUMP JUMPDEST PUSH1 0x0 DUP1 SLOAD PUSH1 0x1 PUSH1 0x1 PUSH1 0xA0 SHL SUB NOT DUP2 AND DUP3 SSTORE PUSH1 0x1 PUSH1 0x1 PUSH1 0xA0 SHL SUB AND PUSH32 0x8BE0079C531659141344CD1FD0A4F28419497F9722A3DAAFE3B4186F6B6457E0 DUP3 DUP1 LOG3 STOP JUMPDEST CALLVALUE PUSH2 0x1E2 JUMPI PUSH1 0x20 CALLDATASIZE PUSH1 0x3 NOT ADD SLT PUSH2 0x1E2 JUMPI PUSH32 0x8C4D35E54A3F2EF1134138FD8EA3DAEE6A3C89E10D2665996BABDF70261E2C76 PUSH1 0x20 PUSH1 0x4 CALLDATALOAD PUSH2 0xA53 PUSH2 0xCEC JUMP JUMPDEST DUP1 PUSH1 0x4 SSTORE PUSH1 0x40 MLOAD SWAP1 DUP2 MSTORE LOG1 STOP JUMPDEST CALLVALUE PUSH2 0x1E2 JUMPI PUSH1 0x60 CALLDATASIZE PUSH1 0x3 NOT ADD SLT PUSH2 0x1E2 JUMPI PUSH1 0x24 PUSH1 0x1 PUSH1 0x1 PUSH1 0xA0 SHL SUB DUP2 CALLDATALOAD DUP2 DUP2 AND SWAP2 PUSH1 0x4 CALLDATALOAD SWAP2 DUP4 SWAP1 SUB PUSH2 0x1E2 JUMPI PUSH1 0x44 CALLDATALOAD PUSH2 0xA97 PUSH2 0xD44 JUMP JUMPDEST DUP3 PUSH1 0x0 MSTORE PUSH1 0x20 SWAP2 PUSH1 0x2 DUP4 MSTORE PUSH1 0x40 PUSH1 0x0 KECCAK256 SWAP1 PUSH1 0x6 DUP3 ADD SLOAD AND CALLER SUB PUSH2 0xC14 JUMPI PUSH1 0x2 ADD DUP1 SLOAD DUP3 GT PUSH2 0xBD0 JUMPI DUP2 SELFBALANCE LT PUSH2 0xB8C JUMPI PUSH1 0x0 DUP1 DUP1 DUP1 DUP6 DUP10 GAS CALL RETURNDATASIZE ISZERO PUSH2 0xB87 JUMPI RETURNDATASIZE PUSH2 0xADF DUP2 PUSH2 0xC96 JUMP JUMPDEST SWAP1 PUSH2 0xAED PUSH1 0x40 MLOAD SWAP3 DUP4 PUSH2 0xC5E JUMP JUMPDEST DUP2 MSTORE PUSH1 0x0 DUP6 RETURNDATASIZE SWAP3 ADD RETURNDATACOPY JUMPDEST ISZERO PUSH2 0xB51 JUMPI DUP1 SLOAD SWAP1 DUP3 DUP3 SUB SWAP2 DUP3 GT PUSH2 0xB3C JUMPI PUSH32 0x5E7EC629459BD8A1DD4E7B57A2B8F58A033BF40168315E2DDDD2FE2C3C3640F0 SWAP5 SWAP6 SWAP7 POP SSTORE PUSH1 0x40 MLOAD SWAP1 DUP2 MSTORE LOG3 PUSH1 0x1 DUP1 SSTORE STOP JUMPDEST DUP7 PUSH4 0x4E487B71 PUSH1 0xE0 SHL PUSH1 0x0 MSTORE PUSH1 0x11 PUSH1 0x4 MSTORE PUSH1 0x0 REVERT JUMPDEST PUSH1 0x40 MLOAD PUSH3 0x461BCD PUSH1 0xE5 SHL DUP2 MSTORE PUSH1 0x4 DUP2 ADD DUP5 SWAP1 MSTORE PUSH1 0xF DUP2 DUP9 ADD MSTORE PUSH15 0x151C985B9CD9995C8819985A5B1959 PUSH1 0x8A SHL PUSH1 0x44 DUP3 ADD MSTORE PUSH1 0x64 SWAP1 REVERT JUMPDEST PUSH2 0xAF7 JUMP JUMPDEST PUSH1 0x40 MLOAD PUSH3 0x461BCD PUSH1 0xE5 SHL DUP2 MSTORE PUSH1 0x4 DUP2 ADD DUP5 SWAP1 MSTORE PUSH1 0x1D DUP2 DUP9 ADD MSTORE PUSH32 0x496E73756666696369656E7420636F6E74726163742062616C616E6365000000 PUSH1 0x44 DUP3 ADD MSTORE PUSH1 0x64 SWAP1 REVERT JUMPDEST PUSH1 0x40 MLOAD PUSH3 0x461BCD PUSH1 0xE5 SHL DUP2 MSTORE PUSH1 0x4 DUP2 ADD DUP5 SWAP1 MSTORE PUSH1 0x1E DUP2 DUP9 ADD MSTORE PUSH32 0x52657761726420657863656564732070726F6772616D2062616C616E63650000 PUSH1 0x44 DUP3 ADD MSTORE PUSH1 0x64 SWAP1 REVERT JUMPDEST PUSH1 0x40 MLOAD PUSH3 0x461BCD PUSH1 0xE5 SHL DUP2 MSTORE PUSH1 0x4 DUP2 ADD DUP5 SWAP1 MSTORE PUSH1 0xD DUP2 DUP9 ADD MSTORE PUSH13 0x2737BA103B30B634B230BA37B9 PUSH1 0x99 SHL PUSH1 0x44 DUP3 ADD MSTORE PUSH1 0x64 SWAP1 REVERT JUMPDEST PUSH1 0x84 CALLDATALOAD SWAP1 PUSH1 0x1 PUSH1 0x1 PUSH1 0xA0 SHL SUB DUP3 AND DUP3 SUB PUSH2 0x1E2 JUMPI JUMP JUMPDEST SWAP1 PUSH1 0x1F DUP1 NOT SWAP2 ADD AND DUP2 ADD SWAP1 DUP2 LT PUSH8 0xFFFFFFFFFFFFFFFF DUP3 GT OR PUSH2 0xC80 JUMPI PUSH1 0x40 MSTORE JUMP JUMPDEST PUSH4 0x4E487B71 PUSH1 0xE0 SHL PUSH1 0x0 MSTORE PUSH1 0x41 PUSH1 0x4 MSTORE PUSH1 0x24 PUSH1 0x0 REVERT JUMPDEST PUSH8 0xFFFFFFFFFFFFFFFF DUP2 GT PUSH2 0xC80 JUMPI PUSH1 0x1F ADD PUSH1 0x1F NOT AND PUSH1 0x20 ADD SWAP1 JUMP JUMPDEST SWAP1 PUSH1 0x1 DUP3 DUP2 SHR SWAP3 AND DUP1 ISZERO PUSH2 0xCE2 JUMPI JUMPDEST PUSH1 0x20 DUP4 LT EQ PUSH2 0xCCC JUMPI JUMP JUMPDEST PUSH4 0x4E487B71 PUSH1 0xE0 SHL PUSH1 0x0 MSTORE PUSH1 0x22 PUSH1 0x4 MSTORE PUSH1 0x24 PUSH1 0x0 REVERT JUMPDEST SWAP2 PUSH1 0x7F AND SWAP2 PUSH2 0xCC1 JUMP JUMPDEST PUSH1 0x0 SLOAD PUSH1 0x1 PUSH1 0x1 PUSH1 0xA0 SHL SUB AND CALLER SUB PUSH2 0xD00 JUMPI JUMP JUMPDEST PUSH1 0x64 PUSH1 0x40 MLOAD PUSH3 0x461BCD PUSH1 0xE5 SHL DUP2 MSTORE PUSH1 0x20 PUSH1 0x4 DUP3 ADD MSTORE PUSH1 0x20 PUSH1 0x24 DUP3 ADD MSTORE PUSH32 0x4F776E61626C653A2063616C6C6572206973206E6F7420746865206F776E6572 PUSH1 0x44 DUP3 ADD MSTORE REVERT JUMPDEST PUSH1 0x2 PUSH1 0x1 SLOAD EQ PUSH2 0xD55 JUMPI PUSH1 0x2 PUSH1 0x1 SSTORE JUMP JUMPDEST PUSH1 0x40 MLOAD PUSH3 0x461BCD PUSH1 0xE5 SHL DUP2 MSTORE PUSH1 0x20 PUSH1 0x4 DUP3 ADD MSTORE PUSH1 0x1F PUSH1 0x24 DUP3 ADD MSTORE PUSH32 0x5265656E7472616E637947756172643A207265656E7472616E742063616C6C00 PUSH1 0x44 DUP3 ADD MSTORE PUSH1 0x64 SWAP1 REVERT INVALID LOG2 PUSH5 0x6970667358 0x22 SLT KECCAK256 0xBC 0xE5 0x2A 0xA5 0x2C 0xAD 0xEB CODECOPY KECCAK256 SWAP1 0x2A ISZERO STOP PREVRANDAO 0x29 0x26 PUSH2 0x731E 0xBF SWAP5 0xE4 ADDMOD 0xED 0xDC PUSH18 0xA1283F12D3F164736F6C6343000814003300 "},"methodIdentifiers":{"acceptMilestone(uint256,address,uint256)":"390cf36b","createEduProgram(string,uint256,uint256,uint256,address)":"bf9d6337","eduPrograms(uint256)":"d613fd24","getFee()":"ced72f87","nextProgramId()":"ba71b330","owner()":"8da5cb5b","reclaimFunds(uint256)":"f9f161a8","renounceOwnership()":"715018a6","setFee(uint256)":"69fe0e2d","transferOwnership(address)":"f2fde38b","updateProgram(uint256,uint256,uint256,uint256,address)":"89001eb1"}}}}}