{"contract/LdEduProgram.sol":{"LdEduProgram":{"abi":[{"inputs":[{"internalType":"address","name":"initialOwner","type":"address"}],"stateMutability":"nonpayable","type":"constructor"},{"anonymous":false,"inputs":[{"indexed":false,"internalType":"uint256","name":"newFee","type":"uint256"}],"name":"FeeUpdated","type":"event"},{"anonymous":false,"inputs":[{"indexed":true,"internalType":"uint256","name":"id","type":"uint256"},{"indexed":false,"internalType":"address","name":"maker","type":"address"},{"indexed":false,"internalType":"uint256","name":"amount","type":"uint256"}],"name":"FundsReclaimed","type":"event"},{"anonymous":false,"inputs":[{"indexed":true,"internalType":"uint256","name":"id","type":"uint256"},{"indexed":false,"internalType":"uint256","name":"milestoneId","type":"uint256"},{"indexed":false,"internalType":"uint256","name":"reward","type":"uint256"}],"name":"MilestoneAccepted","type":"event"},{"anonymous":false,"inputs":[{"indexed":true,"internalType":"uint256","name":"id","type":"uint256"},{"indexed":false,"internalType":"uint256","name":"milestoneId","type":"uint256"},{"indexed":false,"internalType":"string[]","name":"links","type":"string[]"}],"name":"MilestoneSubmitted","type":"event"},{"anonymous":false,"inputs":[{"indexed":true,"internalType":"address","name":"previousOwner","type":"address"},{"indexed":true,"internalType":"address","name":"newOwner","type":"address"}],"name":"OwnershipTransferred","type":"event"},{"anonymous":false,"inputs":[{"indexed":true,"internalType":"uint256","name":"id","type":"uint256"}],"name":"ProgramApplied","type":"event"},{"anonymous":false,"inputs":[{"indexed":true,"internalType":"uint256","name":"programId","type":"uint256"}],"name":"ProgramApproved","type":"event"},{"anonymous":false,"inputs":[{"indexed":true,"internalType":"uint256","name":"id","type":"uint256"},{"indexed":false,"internalType":"address","name":"builder","type":"address"},{"indexed":false,"internalType":"uint256","name":"amount","type":"uint256"}],"name":"ProgramClaimed","type":"event"},{"anonymous":false,"inputs":[{"indexed":true,"internalType":"uint256","name":"id","type":"uint256"},{"indexed":true,"internalType":"address","name":"maker","type":"address"},{"indexed":true,"internalType":"address","name":"validator","type":"address"},{"indexed":false,"internalType":"uint256","name":"price","type":"uint256"}],"name":"ProgramCreated","type":"event"},{"anonymous":false,"inputs":[{"indexed":false,"internalType":"uint256","name":"programId","type":"uint256"},{"indexed":false,"internalType":"uint256","name":"price","type":"uint256"},{"indexed":false,"internalType":"uint256","name":"startTime","type":"uint256"},{"indexed":false,"internalType":"uint256","name":"endTime","type":"uint256"},{"indexed":false,"internalType":"address","name":"newValidator","type":"address"}],"name":"ProgramEdited","type":"event"},{"anonymous":false,"inputs":[{"indexed":true,"internalType":"uint256","name":"programId","type":"uint256"},{"indexed":false,"internalType":"uint256","name":"applicationId","type":"uint256"},{"indexed":false,"internalType":"address","name":"builder","type":"address"}],"name":"SelectedApplication","type":"event"},{"inputs":[{"internalType":"uint256","name":"programId","type":"uint256"},{"internalType":"uint256","name":"milestoneId","type":"uint256"}],"name":"acceptMilestone","outputs":[],"stateMutability":"nonpayable","type":"function"},{"inputs":[{"internalType":"uint256","name":"programId","type":"uint256"}],"name":"approveProgram","outputs":[],"stateMutability":"nonpayable","type":"function"},{"inputs":[{"internalType":"string","name":"_name","type":"string"},{"internalType":"uint256","name":"_price","type":"uint256"},{"internalType":"string","name":"_keywords","type":"string"},{"internalType":"uint256","name":"_startTime","type":"uint256"},{"internalType":"uint256","name":"_endTime","type":"uint256"},{"internalType":"address","name":"_validator","type":"address"},{"internalType":"string","name":"_summary","type":"string"},{"internalType":"string","name":"_description","type":"string"},{"internalType":"string[]","name":"_links","type":"string[]"}],"name":"createEduProgram","outputs":[],"stateMutability":"payable","type":"function"},{"inputs":[{"internalType":"uint256","name":"","type":"uint256"}],"name":"eduPrograms","outputs":[{"internalType":"uint256","name":"id","type":"uint256"},{"internalType":"string","name":"name","type":"string"},{"internalType":"string","name":"keywords","type":"string"},{"internalType":"uint256","name":"price","type":"uint256"},{"internalType":"uint256","name":"startTime","type":"uint256"},{"internalType":"uint256","name":"endTime","type":"uint256"},{"internalType":"string","name":"summary","type":"string"},{"internalType":"string","name":"description","type":"string"},{"internalType":"address","name":"maker","type":"address"},{"internalType":"address","name":"validator","type":"address"},{"internalType":"bool","name":"approve","type":"bool"},{"internalType":"bool","name":"claimed","type":"bool"},{"internalType":"address","name":"builder","type":"address"}],"stateMutability":"view","type":"function"},{"inputs":[],"name":"getFee","outputs":[{"internalType":"uint256","name":"","type":"uint256"}],"stateMutability":"view","type":"function"},{"inputs":[{"internalType":"uint256","name":"","type":"uint256"}],"name":"nextApplicationId","outputs":[{"internalType":"uint256","name":"","type":"uint256"}],"stateMutability":"view","type":"function"},{"inputs":[{"internalType":"uint256","name":"","type":"uint256"}],"name":"nextMilestoneId","outputs":[{"internalType":"uint256","name":"","type":"uint256"}],"stateMutability":"view","type":"function"},{"inputs":[],"name":"nextProgramId","outputs":[{"internalType":"uint256","name":"","type":"uint256"}],"stateMutability":"view","type":"function"},{"inputs":[],"name":"owner","outputs":[{"internalType":"address","name":"","type":"address"}],"stateMutability":"view","type":"function"},{"inputs":[{"internalType":"uint256","name":"","type":"uint256"},{"internalType":"uint256","name":"","type":"uint256"}],"name":"programApplications","outputs":[{"internalType":"uint256","name":"id","type":"uint256"},{"internalType":"address","name":"builder","type":"address"},{"internalType":"enum LdEduProgram.ApplicationStatus","name":"status","type":"uint8"}],"stateMutability":"view","type":"function"},{"inputs":[{"internalType":"uint256","name":"","type":"uint256"},{"internalType":"uint256","name":"","type":"uint256"}],"name":"programMilestones","outputs":[{"internalType":"uint256","name":"id","type":"uint256"},{"internalType":"string","name":"name","type":"string"},{"internalType":"string","name":"description","type":"string"},{"internalType":"uint256","name":"price","type":"uint256"},{"internalType":"bool","name":"submitted","type":"bool"},{"internalType":"bool","name":"approved","type":"bool"},{"internalType":"bool","name":"claimed","type":"bool"}],"stateMutability":"view","type":"function"},{"inputs":[{"internalType":"uint256","name":"programId","type":"uint256"}],"name":"reclaimFunds","outputs":[],"stateMutability":"nonpayable","type":"function"},{"inputs":[],"name":"renounceOwnership","outputs":[],"stateMutability":"nonpayable","type":"function"},{"inputs":[{"internalType":"uint256","name":"programId","type":"uint256"},{"internalType":"uint256","name":"applicationId","type":"uint256"},{"internalType":"bool","name":"isSelected","type":"bool"}],"name":"selectApplication","outputs":[],"stateMutability":"nonpayable","type":"function"},{"inputs":[{"internalType":"uint256","name":"","type":"uint256"}],"name":"selectedApplicationIndex","outputs":[{"internalType":"uint256","name":"","type":"uint256"}],"stateMutability":"view","type":"function"},{"inputs":[{"internalType":"uint256","name":"_fee","type":"uint256"}],"name":"setFee","outputs":[],"stateMutability":"nonpayable","type":"function"},{"inputs":[{"internalType":"uint256","name":"programId","type":"uint256"},{"internalType":"string[]","name":"names","type":"string[]"},{"internalType":"string[]","name":"descriptions","type":"string[]"},{"internalType":"uint256[]","name":"prices","type":"uint256[]"}],"name":"submitApplication","outputs":[],"stateMutability":"nonpayable","type":"function"},{"inputs":[{"internalType":"uint256","name":"programId","type":"uint256"},{"internalType":"uint256","name":"milestoneId","type":"uint256"},{"internalType":"string[]","name":"links","type":"string[]"}],"name":"submitMilestone","outputs":[],"stateMutability":"nonpayable","type":"function"},{"inputs":[{"internalType":"address","name":"newOwner","type":"address"}],"name":"transferOwnership","outputs":[],"stateMutability":"nonpayable","type":"function"},{"inputs":[{"internalType":"uint256","name":"programId","type":"uint256"},{"internalType":"uint256","name":"price","type":"uint256"},{"internalType":"uint256","name":"startTime","type":"uint256"},{"internalType":"uint256","name":"endTime","type":"uint256"},{"internalType":"address","name":"newValidator","type":"address"}],"name":"updateProgram","outputs":[],"stateMutability":"nonpayable","type":"function"}],"evm":{"bytecode":{"linkReferences":{},"object":"6080346200007e57601f620029b038819003918201601f19168301916001600160401b0383118484101762000083578084926020946040528339810103126200007e57516001600160a01b03811681036200007e576200006e90620000643362000099565b6001805562000099565b6040516128cf9081620000e18239f35b600080fd5b634e487b7160e01b600052604160045260246000fd5b600080546001600160a01b039283166001600160a01b03198216811783559216907f8be0079c531659141344cd1fd0a4f28419497f9722a3daafe3b4186f6b6457e09080a356fe6080604052600436101561001257600080fd5b60003560e01c80634942ec0214611d7d57806369fe0e2d14611d31578063715018a614611cd85780637d5cae0314611c7257806383472f5b14611c4657806389001eb114611a995780638da5cb5b14611a70578063919af1da146112b857806393eb1026146110b75780639e57d58914610d82578063a112ed4e146107a9578063a1a572961461077d578063b0d456ac14610629578063ba71b3301461060b578063ced72f87146105ed578063d201593f1461053c578063d613fd241461041f578063f2fde38b14610359578063f6c782631461032d5763f9f161a8146100f857600080fd5b34610328576020806003193601126103285760043590610116612843565b8160005260028152604060002090600a82019182549060ff8260a01c166102c85760ff8260a81c1661028a57600581015442111561024557600981019360018060a01b039283865416948533036101f6575060ff60a81b1916600160a81b179055600301805490926000918291829182918282156101ed575bf1156101e1579154905460408051929093166001600160a01b0316825260208201527fd37c0b9c7560299a7c963d03165111d712663805228e5ffca03d540c5d6e410e91819081015b0390a260018055005b6040513d6000823e3d90fd5b506108fc61018f565b6084906040519062461bcd60e51b82526004820152602260248201527f596f7520646f6e27742068617665207265636c616d6174696f6e207269676874604482015261399760f11b6064820152fd5b60405162461bcd60e51b815260048101849052601d60248201527f5468652070726f6772616d206861736e277420656e646564207965742e0000006044820152606490fd5b60405162461bcd60e51b815260048101849052601660248201527520b63932b0b23c903a30b5b2b71031b0b9329037b31760511b6044820152606490fd5b60405162461bcd60e51b815260048101849052603260248201527f4974277320616c7265616479206265656e20617070726f76656420616e64206360448201527130b713ba103132903932b1b630b4b6b2b21760711b6064820152608490fd5b600080fd5b346103285760203660031901126103285760043560005260056020526020604060002054604051908152f35b34610328576020366003190112610328576004356001600160a01b03818116918290036103285761038861269c565b81156103cb57600054826001600160601b0360a01b821617600055167f8be0079c531659141344cd1fd0a4f28419497f9722a3daafe3b4186f6b6457e0600080a3005b60405162461bcd60e51b815260206004820152602660248201527f4f776e61626c653a206e6577206f776e657220697320746865207a65726f206160448201526564647265737360d01b6064820152608490fd5b34610328576020366003190112610328576004356000526002602052604060002080546001820161044f906125b6565b9161045c600282016125b6565b60038201546004830154600584015490939161047a600684016125b6565b610486600785016125b6565b91600160a01b6001900393846009870154169785600a88015497600b015416976040519b8c9b8c528b6101a06020819201528c016104c39161265c565b8b810360408d01526104d49161265c565b9260608b015260808a015260a089015287810360c08901526104f59161265c565b86810360e08801526105069161265c565b9361010086015281166101208501528060a01c60ff16151561014085015260a81c60ff1615156101608401526101808301520390f35b346103285761054a366123fb565b90600052600460205260406000209081548110156103285761056b91612411565b50805461057a600183016125b6565b9160ff610589600283016125b6565b6105c160046003850154940154916105b3604051978897885260e0602089015260e088019061265c565b90868203604088015261265c565b92606085015281811615156080850152818160081c16151560a085015260101c16151560c08301520390f35b34610328576000366003190112610328576020600954604051908152f35b34610328576000366003190112610328576020600854604051908152f35b34610328576020366003190112610328576004356000818152600260205260409020600a8101805490916001600160a01b038216330361072c576005015442116106e75760ff8160a01c166106ae5760ff60a01b1916600160a01b1790557f3ca3d218d64ea45c582c714d84dcdfd87f8d3cb3a3449fe533c2cb6d614ab766600080a2005b60405162461bcd60e51b815260206004820152601160248201527020b63932b0b23c9030b8383937bb32b21760791b6044820152606490fd5b60405162461bcd60e51b815260206004820152601e60248201527f5468652070726f6772616d2068617320616c726561647920656e6465642e00006044820152606490fd5b60405162461bcd60e51b8152602060048201526024808201527f596f7520646f6e2774206861766520617070726f76616c207065726d6973736960448201526337b7399760e11b6064820152608490fd5b346103285760203660031901126103285760043560005260066020526020604060002054604051908152f35b34610328576080366003190112610328576004356024356001600160401b038111610328576107dc90369060040161254c565b916044356001600160401b038111610328576107fc90369060040161254c565b93906064356001600160401b0381116103285761081d90369060040161254c565b92909184600052600260205260406000206005810154421015610d4d5787831480610d44575b15610d0e5760009060005b868110610cd857506003015403610c945784600052600660205260406000209687549761087a896127e0565b90556040519660c08801908882106001600160401b03831117610a98576108be946108b2926040528a8a523360208b015236916124dd565b604088015236916124dd565b60608501526108cc826124c6565b916108da6040519384612443565b808352602083019060051b82019136831161032857905b828210610c84575050506080830152600060a0830152600052600360205260406000208054600160401b811015610a985761093191600182018155612411565b610c6e57815181556001810160018060a01b036020840151166001600160601b0360a01b82541617905560028101604083015160208151916109738385612750565b01916000526020600020916000905b828210610b91575050505060038101606083015160208151916109a58385612750565b01916000526020600020916000905b828210610aae5750505050600481016080830151908151916001600160401b038311610a9857600160401b8311610a98576020908254848455808510610a7b575b500190600052602060002060005b838110610a6757868660a0600588019101516003811015610a515760ff801983541691161790557f722325134a63ac150749cede63bb76d659fc9e4d78e10764480c6c79d283dc4f600080a2005b634e487b7160e01b600052602160045260246000fd5b600190602084519401938184015501610a03565b610a929084600052858460002091820191016126f4565b876109f5565b634e487b7160e01b600052604160045260246000fd5b80518051906001600160401b038211610a9857610ad582610acf885461257c565b8861270b565b602090601f8311600114610b21579282600194936020938695600092610b16575b5050600019600383901b1c191690841b1787555b019401910190926109b4565b015190508c80610af6565b908660005260206000209160005b601f1985168110610b79575083602093600196938796938794601f19811610610b60575b505050811b018755610b0a565b015160001960f88460031b161c191690558c8080610b53565b91926020600181928685015181550194019201610b2f565b80518051906001600160401b038211610a9857610bb282610acf885461257c565b602090601f8311600114610bfe579282600194936020938695600092610bf3575b5050600019600383901b1c191690841b1787555b01940191019092610982565b015190508c80610bd3565b908660005260206000209160005b601f1985168110610c56575083602093600196938796938794601f19811610610c3d575b505050811b018755610be7565b015160001960f88460031b161c191690558c8080610c30565b91926020600181928685015181550194019201610c0c565b634e487b7160e01b600052600060045260246000fd5b81358152602091820191016108f1565b606460405162461bcd60e51b815260206004820152602060248201527f4d696c6573746f6e6520746f74616c20213d2070726f6772616d2070726963656044820152fd5b918260051b8601358101809111610cf857610cf390926127e0565b61084e565b634e487b7160e01b600052601160045260246000fd5b60405162461bcd60e51b815260206004820152600e60248201526d092dce0eae840dad2e6dac2e8c6d60931b6044820152606490fd5b50848314610843565b60405162461bcd60e51b815260206004820152600d60248201526c141c9bd9dc985b48195b991959609a1b6044820152606490fd5b34610328576060366003190112610328576004356024356001600160401b0360443581811161032857610db990369060040161254c565b84600052602060028152604060002060ff600a82015460a01c161561108357600b01546001600160a01b03163303611048578560005260048152610e01856040600020612411565b5092600484019384549460ff861661100f57906005916001979695949397809660ff191617905501610e338382612750565b600090815281812090865b848210610f0d5750505081604051966040880190885260408389015252606086019460608360051b8801019581956000925b858410610ea0578a7fbaa1ee362891351add36bb95f60ba8e4031d4c60ece483917c0dc053d7b2c3d78b8b038ca2005b9091929394959697605f198a82030184528835601e198336030181121561032857820186810191903584811161032857803603831361032857878282808d96849695859652848401376000828201840152601f01601f191601019a01989796959190910193019190610e70565b8097939495969735601e1985360301811215610328578401908135898111610328578036038784011361032857889181610f528993610f4c895461257c565b8961270b565b6000601f8211600114610fa0578382918697600093610f93575b505050600019600383901b1c191690841b1786555b01930191019091969594939296610e3e565b0101359050833880610f6c565b94601f1982169588600052846000209660005b818110610ff4575091858798928589969510610fd8575b50505050811b018655610f81565b60001960f88660031b161c19920101351690558f808581610fca565b838301870135895596909701968d968c969283019201610fb3565b60405162461bcd60e51b8152600481018590526011602482015270105b1c9958591e481cdd589b5a5d1d1959607a1b6044820152606490fd5b6064906040519062461bcd60e51b8252600482015260146024820152732737ba1039b2b632b1ba32b210313ab4b63232b960611b6044820152fd5b60405162461bcd60e51b815260048101839052600c60248201526b139bdd08185c1c1c9bdd995960a21b6044820152606490fd5b34610328576110c5366123fb565b906110ce612843565b80600052602060028152604060002060018060a01b03906110f682600a8301541633146127ef565b836000526004835261110c856040600020612411565b509060048201805460ff8116156112835760ff8160081c161580611275575b1561123e579062010100600b939262ffff001916179055019060008080806003878754169501948554905af13d15611239573d61116781612464565b906111756040519283612443565b81526000863d92013e5b156111fe57937f27d841e82fb3b2469e89e27c70f2ec8597324e08569a13460e4dd8a1a3c0b10c604082977f7099040ff4abf6b015bd1004cbf11ec796c3d4abcaec3514db1c93599297d39f975480978351928352820152a25460408051929091166001600160a01b03168252602082019290925290819081016101d8565b60405162461bcd60e51b8152600481018590526013602482015272115512081d1c985b9cd9995c8819985a5b1959606a1b6044820152606490fd5b61117f565b60405162461bcd60e51b815260048101879052600f60248201526e105b1c9958591e481a185b991b1959608a1b6044820152606490fd5b5060ff8160101c161561112b565b60405162461bcd60e51b815260048101879052600d60248201526c139bdd081cdd589b5a5d1d1959609a1b6044820152606490fd5b610120366003190112610328576004356001600160401b038111610328576112e490369060040161247f565b6044356001600160401b0381116103285761130390369060040161247f565b9060a435906001600160a01b03821682036103285760c4356001600160401b0381116103285761133790369060040161247f565b60e4356001600160401b0381116103285761135690369060040161247f565b610104356001600160401b0381116103285736602382011215610328576113879036906024816004013591016124dd565b916024353403611a155760843560643510156119b6576008549560405194856101c08101106001600160401b036101c088011117610a98576101c08601604052878652602086015260408501526024356060850152606435608085015260843560a085015260c084015260e08301526101008201523361012082015260018060a01b0382166101408201526000610160820152600061018082015260006101a082015282600052600260205260406000208151815560208201518051906001600160401b038211610a9857819061146e82611465600187015461257c565b6001870161270b565b602090601f831160011461194457600092611939575b50508160011b916000199060031b1c19161760018201555b60408201518051906001600160401b038211610a985781906114ce826114c5600287015461257c565b6002870161270b565b602090601f83116001146118c7576000926118bc575b50508160011b916000199060031b1c19161760028201555b606082015160038201556080820151600482015560a0820151600582015560c08201518051906001600160401b038211610a9857819061154c82611543600687015461257c565b6006870161270b565b602090601f831160011461184a5760009261183f575b50508160011b916000199060031b1c19161760068201555b60e08201518051906001600160401b038211610a985781906115ac826115a3600787015461257c565b6007870161270b565b602090601f83116001146117cd576000926117c2575b50508160011b916000199060031b1c19161760078201555b6008810161010083015160208151916115f38385612750565b01916000526020600020916000905b8282106116e557505050506101208201516009820180546001600160a01b03199081166001600160a01b0393841617909155610140840151600a840180546101608701516101808801516001600160b01b03199092169386169390931792151560a01b60ff60a01b169290921791151560a81b60ff60a81b169190911790556101a090930151600b92909201805490931691161790556008546116a4906127e0565b60085560405160243581526001600160a01b039091169133917f808c887919683a350ed55b3499f97ed7f4093ecc5e131fadb8b075a85457af3a90602090a4005b80518051906001600160401b038211610a985761170682610acf885461257c565b602090601f8311600114611752579282600194936020938695600092611747575b5050600019600383901b1c191690841b1787555b01940191019092611602565b015190508d80611727565b908660005260206000209160005b601f19851681106117aa575083602093600196938796938794601f19811610611791575b505050811b01875561173b565b015160001960f88460031b161c191690558d8080611784565b91926020600181928685015181550194019201611760565b0151905086806115c2565b9250600784016000526020600020906000935b601f1984168510611824576001945083601f1981161061180b575b505050811b0160078201556115da565b015160001960f88460031b161c191690558680806117fb565b818101518355602094850194600190930192909101906117e0565b015190508680611562565b9250600684016000526020600020906000935b601f19841685106118a1576001945083601f19811610611888575b505050811b01600682015561157a565b015160001960f88460031b161c19169055868080611878565b8181015183556020948501946001909301929091019061185d565b0151905086806114e4565b9250600284016000526020600020906000935b601f198416851061191e576001945083601f19811610611905575b505050811b0160028201556114fc565b015160001960f88460031b161c191690558680806118f5565b818101518355602094850194600190930192909101906118da565b015190508680611484565b9250600184016000526020600020906000935b601f198416851061199b576001945083601f19811610611982575b505050811b01600182015561149c565b015160001960f88460031b161c19169055868080611972565b81810151835560209485019460019093019290910190611957565b60405162461bcd60e51b815260206004820152603160248201527f5468652053746172742074696d65206d757374206265206561726c69657220746044820152703430b7103a34329032b732103a34b6b29760791b6064820152608490fd5b60405162461bcd60e51b815260206004820152602d60248201527f546865204554482073656e7420646f6573206e6f74206d61746368207468652060448201526c70726f6772616d20707269636560981b6064820152608490fd5b34610328576000366003190112610328576000546040516001600160a01b039091168152602090f35b346103285760a0366003190112610328576024356001600160a01b03600435608435828116906064359060443590839003610328578360005260026020526040600020946009860154163303611bf55781811015611ba4578515611b5f5785600a867fe3d59d03839a10c8a5a85dd0d7e5a4ac45445821c5176529d2745adf6915a16198600360a099015583600482015584600582015501846001600160601b03881b8254161790556040519485526020850152604084015260608301526080820152a1005b60405162461bcd60e51b815260206004820152601760248201527f5072696365206d75737420626520706f7369746976652e0000000000000000006044820152606490fd5b60405162461bcd60e51b815260206004820152602360248201527f53746172742074696d65206d757374206265206265666f726520656e6420746960448201526236b29760e91b6064820152608490fd5b60405162461bcd60e51b815260206004820152602360248201527f4f6e6c792063726561746f72732063616e2065646974207468652070726f677260448201526230b69760e91b6064820152608490fd5b346103285760203660031901126103285760043560005260076020526020604060002054604051908152f35b3461032857611c80366123fb565b906000526003602052604060002090815481101561032857611ca191612411565b50805460ff600560018060a01b03600185015416930154169160405191825260208201526003821015610a51576060916040820152f35b3461032857600036600319011261032857611cf161269c565b600080546001600160a01b0319811682556001600160a01b03167f8be0079c531659141344cd1fd0a4f28419497f9722a3daafe3b4186f6b6457e08280a3005b34610328576020366003190112610328577f8c4d35e54a3f2ef1134138fd8ea3daee6a3c89e10d2665996babdf70261e2c766020600435611d7061269c565b80600955604051908152a1005b34610328576060366003190112610328576044351515604435036103285760043560005260026020526040600020611dc260018060a01b03600a8301541633146127ef565b6004356000526003602052604060002060009060005b81548110156123f257611deb8183612411565b505460243514611e0357611dfe906127e0565b611dd8565b809250611e0f91612411565b5091600583015460ff81166003811015610a51576123b957604435156123a45750600b8101546001600160a01b031661236c576005838101805460ff191660021790556001840154600b830180546001600160a01b0319166001600160a01b0392909216919091179055600a909101805460ff60a01b1916600160a01b179055600435600090815260209190915260408120919091555b60028201548110156122de5760043560005260076020526040600020805490611ece826127e0565b905560043560005260046020526040600020611eed836002860161282b565b50611efb846003870161282b565b5090611f0a856004880161282b565b90549060031b1c90604051928360208101106001600160401b03602086011117610a9857602084016040526000845260405195866101008101106001600160401b0361010089011117610a9857611f7892611f6e91610100890160405288526125b6565b60208701526125b6565b6040850152606084015260006080840152600060a0840152600060c084015260e08301528054600160401b811015610a9857611fb991600182018155612411565b610c6e578151815560208201518051906001600160401b038211610a98578190611fea82611465600187015461257c565b602090601f831160011461226c57600092612261575b50508160011b916000199060031b1c19161760018201555b60408201518051906001600160401b038211610a98576120488261203f600286015461257c565b6002860161270b565b602090601f83116001146121ec57918060e094926005946000926121e1575b50508160011b916000199060031b1c19161760028201555b606084015160038201556004810160808501511515815461ff0060a0880151151560081b169060ff62ff000060c08a0151151560101b1693169062ffffff191617171790550191015160208151916120d78385612750565b019160005260206000206000925b8284106120fe57505050506120f9906127e0565b611ea6565b80518051906001600160401b038211610a98576121258261211f865461257c565b8661270b565b602090601f8311600114612171579282600194936020938695600092612166575b5050600019600383901b1c191690841b1785555b019201930192906120e5565b015190508b80612146565b908460005260206000209160005b601f19851681106121c9575083602093600196938796938794601f198116106121b0575b505050811b01855561215a565b015160001960f88460031b161c191690558b80806121a3565b9192602060018192868501518155019401920161217f565b015190508880612067565b906002840160005260206000209160005b601f198516811061224957509260e0949260019260059583601f19811610612230575b505050811b01600282015561207f565b015160001960f88460031b161c19169055888080612220565b919260206001819286850151815501940192016121fd565b015190508680612000565b9250600184016000526020600020906000935b601f19841685106122c3576001945083601f198116106122aa575b505050811b016001820155612018565b015160001960f88460031b161c1916905586808061229a565b8181015183556020948501946001909301929091019061227f565b50600101546040805160243581526001600160a01b039092166020830152600435917f673e1c13e88cae277c1b4adfc9da511c2f5672dbb51fbc06510cb0188be365d09190a25b60015b1561232f57005b60405162461bcd60e51b8152602060048201526015602482015274141c9bdc1bdcd85b081251081b9bdd08199bdd5b99605a1b6044820152606490fd5b60405162461bcd60e51b815260206004820152601060248201526f105b1c9958591e481cd95b1958dd195960821b6044820152606490fd5b600592506001915060ff191617910155612325565b60405162461bcd60e51b8152602060048201526011602482015270105b1c9958591e48195d985b1d585d1959607a1b6044820152606490fd5b50509050612328565b6040906003190112610328576004359060243590565b805482101561242d576000526006602060002091020190600090565b634e487b7160e01b600052603260045260246000fd5b90601f801991011681019081106001600160401b03821117610a9857604052565b6001600160401b038111610a9857601f01601f191660200190565b81601f820112156103285780359061249682612464565b926124a46040519485612443565b8284526020838301011161032857816000926020809301838601378301015290565b6001600160401b038111610a985760051b60200190565b929190926124ea846124c6565b916124f86040519384612443565b829480845260208094019060051b8301928284116103285780915b84831061252257505050505050565b82356001600160401b038111610328578691612541868493860161247f565b815201920191612513565b9181601f84011215610328578235916001600160401b038311610328576020808501948460051b01011161032857565b90600182811c921680156125ac575b602083101461259657565b634e487b7160e01b600052602260045260246000fd5b91607f169161258b565b90604051918260008254926125ca8461257c565b90818452600194858116908160001461263957506001146125f6575b50506125f492500383612443565b565b9093915060005260209081600020936000915b8183106126215750506125f4935082010138806125e6565b85548884018501529485019487945091830191612609565b9150506125f494506020925060ff191682840152151560051b82010138806125e6565b919082519283825260005b848110612688575050826000602080949584010152601f8019910116010190565b602081830181015184830182015201612667565b6000546001600160a01b031633036126b057565b606460405162461bcd60e51b815260206004820152602060248201527f4f776e61626c653a2063616c6c6572206973206e6f7420746865206f776e65726044820152fd5b8181106126ff575050565b600081556001016126f4565b9190601f811161271a57505050565b6125f4926000526020600020906020601f840160051c83019310612746575b601f0160051c01906126f4565b9091508190612739565b600160401b8211610a985780549180825582811061276d57505050565b600091825260209081832093840193015b83811061278b5750505050565b80836127996001935461257c565b806127a7575b50500161277e565b601f80821185146127be57505081555b833861279f565b6127d790848452868420920160051c82018583016126f4565b818355556127b7565b6000198114610cf85760010190565b156127f657565b60405162461bcd60e51b815260206004820152600d60248201526c2737ba103b30b634b230ba37b960991b6044820152606490fd5b805482101561242d5760005260206000200190600090565b600260015414612854576002600155565b60405162461bcd60e51b815260206004820152601f60248201527f5265656e7472616e637947756172643a207265656e7472616e742063616c6c006044820152606490fdfea26469706673582212207016d691d410babb3a1b716651f0469108773fabced7d6e283dedaeb6f6f660464736f6c63430008140033","opcodes":"PUSH1 0x80 CALLVALUE PUSH3 0x7E JUMPI PUSH1 0x1F PUSH3 0x29B0 CODESIZE DUP2 SWAP1 SUB SWAP2 DUP3 ADD PUSH1 0x1F NOT AND DUP4 ADD SWAP2 PUSH1 0x1 PUSH1 0x1 PUSH1 0x40 SHL SUB DUP4 GT DUP5 DUP5 LT OR PUSH3 0x83 JUMPI DUP1 DUP5 SWAP3 PUSH1 0x20 SWAP5 PUSH1 0x40 MSTORE DUP4 CODECOPY DUP2 ADD SUB SLT PUSH3 0x7E JUMPI MLOAD PUSH1 0x1 PUSH1 0x1 PUSH1 0xA0 SHL SUB DUP2 AND DUP2 SUB PUSH3 0x7E JUMPI PUSH3 0x6E SWAP1 PUSH3 0x64 CALLER PUSH3 0x99 JUMP JUMPDEST PUSH1 0x1 DUP1 SSTORE PUSH3 0x99 JUMP JUMPDEST PUSH1 0x40 MLOAD PUSH2 0x28CF SWAP1 DUP2 PUSH3 0xE1 DUP3 CODECOPY RETURN JUMPDEST PUSH1 0x0 DUP1 REVERT JUMPDEST PUSH4 0x4E487B71 PUSH1 0xE0 SHL PUSH1 0x0 MSTORE PUSH1 0x41 PUSH1 0x4 MSTORE PUSH1 0x24 PUSH1 0x0 REVERT JUMPDEST PUSH1 0x0 DUP1 SLOAD PUSH1 0x1 PUSH1 0x1 PUSH1 0xA0 SHL SUB SWAP3 DUP4 AND PUSH1 0x1 PUSH1 0x1 PUSH1 0xA0 SHL SUB NOT DUP3 AND DUP2 OR DUP4 SSTORE SWAP3 AND SWAP1 PUSH32 0x8BE0079C531659141344CD1FD0A4F28419497F9722A3DAAFE3B4186F6B6457E0 SWAP1 DUP1 LOG3 JUMP INVALID PUSH1 0x80 PUSH1 0x40 MSTORE PUSH1 0x4 CALLDATASIZE LT ISZERO PUSH2 0x12 JUMPI PUSH1 0x0 DUP1 REVERT JUMPDEST PUSH1 0x0 CALLDATALOAD PUSH1 0xE0 SHR DUP1 PUSH4 0x4942EC02 EQ PUSH2 0x1D7D JUMPI DUP1 PUSH4 0x69FE0E2D EQ PUSH2 0x1D31 JUMPI DUP1 PUSH4 0x715018A6 EQ PUSH2 0x1CD8 JUMPI DUP1 PUSH4 0x7D5CAE03 EQ PUSH2 0x1C72 JUMPI DUP1 PUSH4 0x83472F5B EQ PUSH2 0x1C46 JUMPI DUP1 PUSH4 0x89001EB1 EQ PUSH2 0x1A99 JUMPI DUP1 PUSH4 0x8DA5CB5B EQ PUSH2 0x1A70 JUMPI DUP1 PUSH4 0x919AF1DA EQ PUSH2 0x12B8 JUMPI DUP1 PUSH4 0x93EB1026 EQ PUSH2 0x10B7 JUMPI DUP1 PUSH4 0x9E57D589 EQ PUSH2 0xD82 JUMPI DUP1 PUSH4 0xA112ED4E EQ PUSH2 0x7A9 JUMPI DUP1 PUSH4 0xA1A57296 EQ PUSH2 0x77D JUMPI DUP1 PUSH4 0xB0D456AC EQ PUSH2 0x629 JUMPI DUP1 PUSH4 0xBA71B330 EQ PUSH2 0x60B JUMPI DUP1 PUSH4 0xCED72F87 EQ PUSH2 0x5ED JUMPI DUP1 PUSH4 0xD201593F EQ PUSH2 0x53C JUMPI DUP1 PUSH4 0xD613FD24 EQ PUSH2 0x41F JUMPI DUP1 PUSH4 0xF2FDE38B EQ PUSH2 0x359 JUMPI DUP1 PUSH4 0xF6C78263 EQ PUSH2 0x32D JUMPI PUSH4 0xF9F161A8 EQ PUSH2 0xF8 JUMPI PUSH1 0x0 DUP1 REVERT JUMPDEST CALLVALUE PUSH2 0x328 JUMPI PUSH1 0x20 DUP1 PUSH1 0x3 NOT CALLDATASIZE ADD SLT PUSH2 0x328 JUMPI PUSH1 0x4 CALLDATALOAD SWAP1 PUSH2 0x116 PUSH2 0x2843 JUMP JUMPDEST DUP2 PUSH1 0x0 MSTORE PUSH1 0x2 DUP2 MSTORE PUSH1 0x40 PUSH1 0x0 KECCAK256 SWAP1 PUSH1 0xA DUP3 ADD SWAP2 DUP3 SLOAD SWAP1 PUSH1 0xFF DUP3 PUSH1 0xA0 SHR AND PUSH2 0x2C8 JUMPI PUSH1 0xFF DUP3 PUSH1 0xA8 SHR AND PUSH2 0x28A JUMPI PUSH1 0x5 DUP2 ADD SLOAD TIMESTAMP GT ISZERO PUSH2 0x245 JUMPI PUSH1 0x9 DUP2 ADD SWAP4 PUSH1 0x1 DUP1 PUSH1 0xA0 SHL SUB SWAP3 DUP4 DUP7 SLOAD AND SWAP5 DUP6 CALLER SUB PUSH2 0x1F6 JUMPI POP PUSH1 0xFF PUSH1 0xA8 SHL NOT AND PUSH1 0x1 PUSH1 0xA8 SHL OR SWAP1 SSTORE PUSH1 0x3 ADD DUP1 SLOAD SWAP1 SWAP3 PUSH1 0x0 SWAP2 DUP3 SWAP2 DUP3 SWAP2 DUP3 SWAP2 DUP3 DUP3 ISZERO PUSH2 0x1ED JUMPI JUMPDEST CALL ISZERO PUSH2 0x1E1 JUMPI SWAP2 SLOAD SWAP1 SLOAD PUSH1 0x40 DUP1 MLOAD SWAP3 SWAP1 SWAP4 AND PUSH1 0x1 PUSH1 0x1 PUSH1 0xA0 SHL SUB AND DUP3 MSTORE PUSH1 0x20 DUP3 ADD MSTORE PUSH32 0xD37C0B9C7560299A7C963D03165111D712663805228E5FFCA03D540C5D6E410E SWAP2 DUP2 SWAP1 DUP2 ADD JUMPDEST SUB SWAP1 LOG2 PUSH1 0x1 DUP1 SSTORE STOP JUMPDEST PUSH1 0x40 MLOAD RETURNDATASIZE PUSH1 0x0 DUP3 RETURNDATACOPY RETURNDATASIZE SWAP1 REVERT JUMPDEST POP PUSH2 0x8FC PUSH2 0x18F JUMP JUMPDEST PUSH1 0x84 SWAP1 PUSH1 0x40 MLOAD SWAP1 PUSH3 0x461BCD PUSH1 0xE5 SHL DUP3 MSTORE PUSH1 0x4 DUP3 ADD MSTORE PUSH1 0x22 PUSH1 0x24 DUP3 ADD MSTORE PUSH32 0x596F7520646F6E27742068617665207265636C616D6174696F6E207269676874 PUSH1 0x44 DUP3 ADD MSTORE PUSH2 0x3997 PUSH1 0xF1 SHL PUSH1 0x64 DUP3 ADD MSTORE REVERT JUMPDEST PUSH1 0x40 MLOAD PUSH3 0x461BCD PUSH1 0xE5 SHL DUP2 MSTORE PUSH1 0x4 DUP2 ADD DUP5 SWAP1 MSTORE PUSH1 0x1D PUSH1 0x24 DUP3 ADD MSTORE PUSH32 0x5468652070726F6772616D206861736E277420656E646564207965742E000000 PUSH1 0x44 DUP3 ADD MSTORE PUSH1 0x64 SWAP1 REVERT JUMPDEST PUSH1 0x40 MLOAD PUSH3 0x461BCD PUSH1 0xE5 SHL DUP2 MSTORE PUSH1 0x4 DUP2 ADD DUP5 SWAP1 MSTORE PUSH1 0x16 PUSH1 0x24 DUP3 ADD MSTORE PUSH22 0x20B63932B0B23C903A30B5B2B71031B0B9329037B317 PUSH1 0x51 SHL PUSH1 0x44 DUP3 ADD MSTORE PUSH1 0x64 SWAP1 REVERT JUMPDEST PUSH1 0x40 MLOAD PUSH3 0x461BCD PUSH1 0xE5 SHL DUP2 MSTORE PUSH1 0x4 DUP2 ADD DUP5 SWAP1 MSTORE PUSH1 0x32 PUSH1 0x24 DUP3 ADD MSTORE PUSH32 0x4974277320616C7265616479206265656E20617070726F76656420616E642063 PUSH1 0x44 DUP3 ADD MSTORE PUSH18 0x30B713BA103132903932B1B630B4B6B2B217 PUSH1 0x71 SHL PUSH1 0x64 DUP3 ADD MSTORE PUSH1 0x84 SWAP1 REVERT JUMPDEST PUSH1 0x0 DUP1 REVERT JUMPDEST CALLVALUE PUSH2 0x328 JUMPI PUSH1 0x20 CALLDATASIZE PUSH1 0x3 NOT ADD SLT PUSH2 0x328 JUMPI PUSH1 0x4 CALLDATALOAD PUSH1 0x0 MSTORE PUSH1 0x5 PUSH1 0x20 MSTORE PUSH1 0x20 PUSH1 0x40 PUSH1 0x0 KECCAK256 SLOAD PUSH1 0x40 MLOAD SWAP1 DUP2 MSTORE RETURN JUMPDEST CALLVALUE PUSH2 0x328 JUMPI PUSH1 0x20 CALLDATASIZE PUSH1 0x3 NOT ADD SLT PUSH2 0x328 JUMPI PUSH1 0x4 CALLDATALOAD PUSH1 0x1 PUSH1 0x1 PUSH1 0xA0 SHL SUB DUP2 DUP2 AND SWAP2 DUP3 SWAP1 SUB PUSH2 0x328 JUMPI PUSH2 0x388 PUSH2 0x269C JUMP JUMPDEST DUP2 ISZERO PUSH2 0x3CB JUMPI PUSH1 0x0 SLOAD DUP3 PUSH1 0x1 PUSH1 0x1 PUSH1 0x60 SHL SUB PUSH1 0xA0 SHL DUP3 AND OR PUSH1 0x0 SSTORE AND PUSH32 0x8BE0079C531659141344CD1FD0A4F28419497F9722A3DAAFE3B4186F6B6457E0 PUSH1 0x0 DUP1 LOG3 STOP JUMPDEST PUSH1 0x40 MLOAD PUSH3 0x461BCD PUSH1 0xE5 SHL DUP2 MSTORE PUSH1 0x20 PUSH1 0x4 DUP3 ADD MSTORE PUSH1 0x26 PUSH1 0x24 DUP3 ADD MSTORE PUSH32 0x4F776E61626C653A206E6577206F776E657220697320746865207A65726F2061 PUSH1 0x44 DUP3 ADD MSTORE PUSH6 0x646472657373 PUSH1 0xD0 SHL PUSH1 0x64 DUP3 ADD MSTORE PUSH1 0x84 SWAP1 REVERT JUMPDEST CALLVALUE PUSH2 0x328 JUMPI PUSH1 0x20 CALLDATASIZE PUSH1 0x3 NOT ADD SLT PUSH2 0x328 JUMPI PUSH1 0x4 CALLDATALOAD PUSH1 0x0 MSTORE PUSH1 0x2 PUSH1 0x20 MSTORE PUSH1 0x40 PUSH1 0x0 KECCAK256 DUP1 SLOAD PUSH1 0x1 DUP3 ADD PUSH2 0x44F SWAP1 PUSH2 0x25B6 JUMP JUMPDEST SWAP2 PUSH2 0x45C PUSH1 0x2 DUP3 ADD PUSH2 0x25B6 JUMP JUMPDEST PUSH1 0x3 DUP3 ADD SLOAD PUSH1 0x4 DUP4 ADD SLOAD PUSH1 0x5 DUP5 ADD SLOAD SWAP1 SWAP4 SWAP2 PUSH2 0x47A PUSH1 0x6 DUP5 ADD PUSH2 0x25B6 JUMP JUMPDEST PUSH2 0x486 PUSH1 0x7 DUP6 ADD PUSH2 0x25B6 JUMP JUMPDEST SWAP2 PUSH1 0x1 PUSH1 0xA0 SHL PUSH1 0x1 SWAP1 SUB SWAP4 DUP5 PUSH1 0x9 DUP8 ADD SLOAD AND SWAP8 DUP6 PUSH1 0xA DUP9 ADD SLOAD SWAP8 PUSH1 0xB ADD SLOAD AND SWAP8 PUSH1 0x40 MLOAD SWAP12 DUP13 SWAP12 DUP13 MSTORE DUP12 PUSH2 0x1A0 PUSH1 0x20 DUP2 SWAP3 ADD MSTORE DUP13 ADD PUSH2 0x4C3 SWAP2 PUSH2 0x265C JUMP JUMPDEST DUP12 DUP2 SUB PUSH1 0x40 DUP14 ADD MSTORE PUSH2 0x4D4 SWAP2 PUSH2 0x265C JUMP JUMPDEST SWAP3 PUSH1 0x60 DUP12 ADD MSTORE PUSH1 0x80 DUP11 ADD MSTORE PUSH1 0xA0 DUP10 ADD MSTORE DUP8 DUP2 SUB PUSH1 0xC0 DUP10 ADD MSTORE PUSH2 0x4F5 SWAP2 PUSH2 0x265C JUMP JUMPDEST DUP7 DUP2 SUB PUSH1 0xE0 DUP9 ADD MSTORE PUSH2 0x506 SWAP2 PUSH2 0x265C JUMP JUMPDEST SWAP4 PUSH2 0x100 DUP7 ADD MSTORE DUP2 AND PUSH2 0x120 DUP6 ADD MSTORE DUP1 PUSH1 0xA0 SHR PUSH1 0xFF AND ISZERO ISZERO PUSH2 0x140 DUP6 ADD MSTORE PUSH1 0xA8 SHR PUSH1 0xFF AND ISZERO ISZERO PUSH2 0x160 DUP5 ADD MSTORE PUSH2 0x180 DUP4 ADD MSTORE SUB SWAP1 RETURN JUMPDEST CALLVALUE PUSH2 0x328 JUMPI PUSH2 0x54A CALLDATASIZE PUSH2 0x23FB JUMP JUMPDEST SWAP1 PUSH1 0x0 MSTORE PUSH1 0x4 PUSH1 0x20 MSTORE PUSH1 0x40 PUSH1 0x0 KECCAK256 SWAP1 DUP2 SLOAD DUP2 LT ISZERO PUSH2 0x328 JUMPI PUSH2 0x56B SWAP2 PUSH2 0x2411 JUMP JUMPDEST POP DUP1 SLOAD PUSH2 0x57A PUSH1 0x1 DUP4 ADD PUSH2 0x25B6 JUMP JUMPDEST SWAP2 PUSH1 0xFF PUSH2 0x589 PUSH1 0x2 DUP4 ADD PUSH2 0x25B6 JUMP JUMPDEST PUSH2 0x5C1 PUSH1 0x4 PUSH1 0x3 DUP6 ADD SLOAD SWAP5 ADD SLOAD SWAP2 PUSH2 0x5B3 PUSH1 0x40 MLOAD SWAP8 DUP9 SWAP8 DUP9 MSTORE PUSH1 0xE0 PUSH1 0x20 DUP10 ADD MSTORE PUSH1 0xE0 DUP9 ADD SWAP1 PUSH2 0x265C JUMP JUMPDEST SWAP1 DUP7 DUP3 SUB PUSH1 0x40 DUP9 ADD MSTORE PUSH2 0x265C JUMP JUMPDEST SWAP3 PUSH1 0x60 DUP6 ADD MSTORE DUP2 DUP2 AND ISZERO ISZERO PUSH1 0x80 DUP6 ADD MSTORE DUP2 DUP2 PUSH1 0x8 SHR AND ISZERO ISZERO PUSH1 0xA0 DUP6 ADD MSTORE PUSH1 0x10 SHR AND ISZERO ISZERO PUSH1 0xC0 DUP4 ADD MSTORE SUB SWAP1 RETURN JUMPDEST CALLVALUE PUSH2 0x328 JUMPI PUSH1 0x0 CALLDATASIZE PUSH1 0x3 NOT ADD SLT PUSH2 0x328 JUMPI PUSH1 0x20 PUSH1 0x9 SLOAD PUSH1 0x40 MLOAD SWAP1 DUP2 MSTORE RETURN JUMPDEST CALLVALUE PUSH2 0x328 JUMPI PUSH1 0x0 CALLDATASIZE PUSH1 0x3 NOT ADD SLT PUSH2 0x328 JUMPI PUSH1 0x20 PUSH1 0x8 SLOAD PUSH1 0x40 MLOAD SWAP1 DUP2 MSTORE RETURN JUMPDEST CALLVALUE PUSH2 0x328 JUMPI PUSH1 0x20 CALLDATASIZE PUSH1 0x3 NOT ADD SLT PUSH2 0x328 JUMPI PUSH1 0x4 CALLDATALOAD PUSH1 0x0 DUP2 DUP2 MSTORE PUSH1 0x2 PUSH1 0x20 MSTORE PUSH1 0x40 SWAP1 KECCAK256 PUSH1 0xA DUP2 ADD DUP1 SLOAD SWAP1 SWAP2 PUSH1 0x1 PUSH1 0x1 PUSH1 0xA0 SHL SUB DUP3 AND CALLER SUB PUSH2 0x72C JUMPI PUSH1 0x5 ADD SLOAD TIMESTAMP GT PUSH2 0x6E7 JUMPI PUSH1 0xFF DUP2 PUSH1 0xA0 SHR AND PUSH2 0x6AE JUMPI PUSH1 0xFF PUSH1 0xA0 SHL NOT AND PUSH1 0x1 PUSH1 0xA0 SHL OR SWAP1 SSTORE PUSH32 0x3CA3D218D64EA45C582C714D84DCDFD87F8D3CB3A3449FE533C2CB6D614AB766 PUSH1 0x0 DUP1 LOG2 STOP JUMPDEST PUSH1 0x40 MLOAD PUSH3 0x461BCD PUSH1 0xE5 SHL DUP2 MSTORE PUSH1 0x20 PUSH1 0x4 DUP3 ADD MSTORE PUSH1 0x11 PUSH1 0x24 DUP3 ADD MSTORE PUSH17 0x20B63932B0B23C9030B8383937BB32B217 PUSH1 0x79 SHL PUSH1 0x44 DUP3 ADD MSTORE PUSH1 0x64 SWAP1 REVERT JUMPDEST PUSH1 0x40 MLOAD PUSH3 0x461BCD PUSH1 0xE5 SHL DUP2 MSTORE PUSH1 0x20 PUSH1 0x4 DUP3 ADD MSTORE PUSH1 0x1E PUSH1 0x24 DUP3 ADD MSTORE PUSH32 0x5468652070726F6772616D2068617320616C726561647920656E6465642E0000 PUSH1 0x44 DUP3 ADD MSTORE PUSH1 0x64 SWAP1 REVERT JUMPDEST PUSH1 0x40 MLOAD PUSH3 0x461BCD PUSH1 0xE5 SHL DUP2 MSTORE PUSH1 0x20 PUSH1 0x4 DUP3 ADD MSTORE PUSH1 0x24 DUP1 DUP3 ADD MSTORE PUSH32 0x596F7520646F6E2774206861766520617070726F76616C207065726D69737369 PUSH1 0x44 DUP3 ADD MSTORE PUSH4 0x37B73997 PUSH1 0xE1 SHL PUSH1 0x64 DUP3 ADD MSTORE PUSH1 0x84 SWAP1 REVERT JUMPDEST CALLVALUE PUSH2 0x328 JUMPI PUSH1 0x20 CALLDATASIZE PUSH1 0x3 NOT ADD SLT PUSH2 0x328 JUMPI PUSH1 0x4 CALLDATALOAD PUSH1 0x0 MSTORE PUSH1 0x6 PUSH1 0x20 MSTORE PUSH1 0x20 PUSH1 0x40 PUSH1 0x0 KECCAK256 SLOAD PUSH1 0x40 MLOAD SWAP1 DUP2 MSTORE RETURN JUMPDEST CALLVALUE PUSH2 0x328 JUMPI PUSH1 0x80 CALLDATASIZE PUSH1 0x3 NOT ADD SLT PUSH2 0x328 JUMPI PUSH1 0x4 CALLDATALOAD PUSH1 0x24 CALLDATALOAD PUSH1 0x1 PUSH1 0x1 PUSH1 0x40 SHL SUB DUP2 GT PUSH2 0x328 JUMPI PUSH2 0x7DC SWAP1 CALLDATASIZE SWAP1 PUSH1 0x4 ADD PUSH2 0x254C JUMP JUMPDEST SWAP2 PUSH1 0x44 CALLDATALOAD PUSH1 0x1 PUSH1 0x1 PUSH1 0x40 SHL SUB DUP2 GT PUSH2 0x328 JUMPI PUSH2 0x7FC SWAP1 CALLDATASIZE SWAP1 PUSH1 0x4 ADD PUSH2 0x254C JUMP JUMPDEST SWAP4 SWAP1 PUSH1 0x64 CALLDATALOAD PUSH1 0x1 PUSH1 0x1 PUSH1 0x40 SHL SUB DUP2 GT PUSH2 0x328 JUMPI PUSH2 0x81D SWAP1 CALLDATASIZE SWAP1 PUSH1 0x4 ADD PUSH2 0x254C JUMP JUMPDEST SWAP3 SWAP1 SWAP2 DUP5 PUSH1 0x0 MSTORE PUSH1 0x2 PUSH1 0x20 MSTORE PUSH1 0x40 PUSH1 0x0 KECCAK256 PUSH1 0x5 DUP2 ADD SLOAD TIMESTAMP LT ISZERO PUSH2 0xD4D JUMPI DUP8 DUP4 EQ DUP1 PUSH2 0xD44 JUMPI JUMPDEST ISZERO PUSH2 0xD0E JUMPI PUSH1 0x0 SWAP1 PUSH1 0x0 JUMPDEST DUP7 DUP2 LT PUSH2 0xCD8 JUMPI POP PUSH1 0x3 ADD SLOAD SUB PUSH2 0xC94 JUMPI DUP5 PUSH1 0x0 MSTORE PUSH1 0x6 PUSH1 0x20 MSTORE PUSH1 0x40 PUSH1 0x0 KECCAK256 SWAP7 DUP8 SLOAD SWAP8 PUSH2 0x87A DUP10 PUSH2 0x27E0 JUMP JUMPDEST SWAP1 SSTORE PUSH1 0x40 MLOAD SWAP7 PUSH1 0xC0 DUP9 ADD SWAP1 DUP9 DUP3 LT PUSH1 0x1 PUSH1 0x1 PUSH1 0x40 SHL SUB DUP4 GT OR PUSH2 0xA98 JUMPI PUSH2 0x8BE SWAP5 PUSH2 0x8B2 SWAP3 PUSH1 0x40 MSTORE DUP11 DUP11 MSTORE CALLER PUSH1 0x20 DUP12 ADD MSTORE CALLDATASIZE SWAP2 PUSH2 0x24DD JUMP JUMPDEST PUSH1 0x40 DUP9 ADD MSTORE CALLDATASIZE SWAP2 PUSH2 0x24DD JUMP JUMPDEST PUSH1 0x60 DUP6 ADD MSTORE PUSH2 0x8CC DUP3 PUSH2 0x24C6 JUMP JUMPDEST SWAP2 PUSH2 0x8DA PUSH1 0x40 MLOAD SWAP4 DUP5 PUSH2 0x2443 JUMP JUMPDEST DUP1 DUP4 MSTORE PUSH1 0x20 DUP4 ADD SWAP1 PUSH1 0x5 SHL DUP3 ADD SWAP2 CALLDATASIZE DUP4 GT PUSH2 0x328 JUMPI SWAP1 JUMPDEST DUP3 DUP3 LT PUSH2 0xC84 JUMPI POP POP POP PUSH1 0x80 DUP4 ADD MSTORE PUSH1 0x0 PUSH1 0xA0 DUP4 ADD MSTORE PUSH1 0x0 MSTORE PUSH1 0x3 PUSH1 0x20 MSTORE PUSH1 0x40 PUSH1 0x0 KECCAK256 DUP1 SLOAD PUSH1 0x1 PUSH1 0x40 SHL DUP2 LT ISZERO PUSH2 0xA98 JUMPI PUSH2 0x931 SWAP2 PUSH1 0x1 DUP3 ADD DUP2 SSTORE PUSH2 0x2411 JUMP JUMPDEST PUSH2 0xC6E JUMPI DUP2 MLOAD DUP2 SSTORE PUSH1 0x1 DUP2 ADD PUSH1 0x1 DUP1 PUSH1 0xA0 SHL SUB PUSH1 0x20 DUP5 ADD MLOAD AND PUSH1 0x1 PUSH1 0x1 PUSH1 0x60 SHL SUB PUSH1 0xA0 SHL DUP3 SLOAD AND OR SWAP1 SSTORE PUSH1 0x2 DUP2 ADD PUSH1 0x40 DUP4 ADD MLOAD PUSH1 0x20 DUP2 MLOAD SWAP2 PUSH2 0x973 DUP4 DUP6 PUSH2 0x2750 JUMP JUMPDEST ADD SWAP2 PUSH1 0x0 MSTORE PUSH1 0x20 PUSH1 0x0 KECCAK256 SWAP2 PUSH1 0x0 SWAP1 JUMPDEST DUP3 DUP3 LT PUSH2 0xB91 JUMPI POP POP POP POP PUSH1 0x3 DUP2 ADD PUSH1 0x60 DUP4 ADD MLOAD PUSH1 0x20 DUP2 MLOAD SWAP2 PUSH2 0x9A5 DUP4 DUP6 PUSH2 0x2750 JUMP JUMPDEST ADD SWAP2 PUSH1 0x0 MSTORE PUSH1 0x20 PUSH1 0x0 KECCAK256 SWAP2 PUSH1 0x0 SWAP1 JUMPDEST DUP3 DUP3 LT PUSH2 0xAAE JUMPI POP POP POP POP PUSH1 0x4 DUP2 ADD PUSH1 0x80 DUP4 ADD MLOAD SWAP1 DUP2 MLOAD SWAP2 PUSH1 0x1 PUSH1 0x1 PUSH1 0x40 SHL SUB DUP4 GT PUSH2 0xA98 JUMPI PUSH1 0x1 PUSH1 0x40 SHL DUP4 GT PUSH2 0xA98 JUMPI PUSH1 0x20 SWAP1 DUP3 SLOAD DUP5 DUP5 SSTORE DUP1 DUP6 LT PUSH2 0xA7B JUMPI JUMPDEST POP ADD SWAP1 PUSH1 0x0 MSTORE PUSH1 0x20 PUSH1 0x0 KECCAK256 PUSH1 0x0 JUMPDEST DUP4 DUP2 LT PUSH2 0xA67 JUMPI DUP7 DUP7 PUSH1 0xA0 PUSH1 0x5 DUP9 ADD SWAP2 ADD MLOAD PUSH1 0x3 DUP2 LT ISZERO PUSH2 0xA51 JUMPI PUSH1 0xFF DUP1 NOT DUP4 SLOAD AND SWAP2 AND OR SWAP1 SSTORE PUSH32 0x722325134A63AC150749CEDE63BB76D659FC9E4D78E10764480C6C79D283DC4F PUSH1 0x0 DUP1 LOG2 STOP JUMPDEST PUSH4 0x4E487B71 PUSH1 0xE0 SHL PUSH1 0x0 MSTORE PUSH1 0x21 PUSH1 0x4 MSTORE PUSH1 0x24 PUSH1 0x0 REVERT JUMPDEST PUSH1 0x1 SWAP1 PUSH1 0x20 DUP5 MLOAD SWAP5 ADD SWAP4 DUP2 DUP5 ADD SSTORE ADD PUSH2 0xA03 JUMP JUMPDEST PUSH2 0xA92 SWAP1 DUP5 PUSH1 0x0 MSTORE DUP6 DUP5 PUSH1 0x0 KECCAK256 SWAP2 DUP3 ADD SWAP2 ADD PUSH2 0x26F4 JUMP JUMPDEST DUP8 PUSH2 0x9F5 JUMP JUMPDEST PUSH4 0x4E487B71 PUSH1 0xE0 SHL PUSH1 0x0 MSTORE PUSH1 0x41 PUSH1 0x4 MSTORE PUSH1 0x24 PUSH1 0x0 REVERT JUMPDEST DUP1 MLOAD DUP1 MLOAD SWAP1 PUSH1 0x1 PUSH1 0x1 PUSH1 0x40 SHL SUB DUP3 GT PUSH2 0xA98 JUMPI PUSH2 0xAD5 DUP3 PUSH2 0xACF DUP9 SLOAD PUSH2 0x257C JUMP JUMPDEST DUP9 PUSH2 0x270B JUMP JUMPDEST PUSH1 0x20 SWAP1 PUSH1 0x1F DUP4 GT PUSH1 0x1 EQ PUSH2 0xB21 JUMPI SWAP3 DUP3 PUSH1 0x1 SWAP5 SWAP4 PUSH1 0x20 SWAP4 DUP7 SWAP6 PUSH1 0x0 SWAP3 PUSH2 0xB16 JUMPI JUMPDEST POP POP PUSH1 0x0 NOT PUSH1 0x3 DUP4 SWAP1 SHL SHR NOT AND SWAP1 DUP5 SHL OR DUP8 SSTORE JUMPDEST ADD SWAP5 ADD SWAP2 ADD SWAP1 SWAP3 PUSH2 0x9B4 JUMP JUMPDEST ADD MLOAD SWAP1 POP DUP13 DUP1 PUSH2 0xAF6 JUMP JUMPDEST SWAP1 DUP7 PUSH1 0x0 MSTORE PUSH1 0x20 PUSH1 0x0 KECCAK256 SWAP2 PUSH1 0x0 JUMPDEST PUSH1 0x1F NOT DUP6 AND DUP2 LT PUSH2 0xB79 JUMPI POP DUP4 PUSH1 0x20 SWAP4 PUSH1 0x1 SWAP7 SWAP4 DUP8 SWAP7 SWAP4 DUP8 SWAP5 PUSH1 0x1F NOT DUP2 AND LT PUSH2 0xB60 JUMPI JUMPDEST POP POP POP DUP2 SHL ADD DUP8 SSTORE PUSH2 0xB0A JUMP JUMPDEST ADD MLOAD PUSH1 0x0 NOT PUSH1 0xF8 DUP5 PUSH1 0x3 SHL AND SHR NOT AND SWAP1 SSTORE DUP13 DUP1 DUP1 PUSH2 0xB53 JUMP JUMPDEST SWAP2 SWAP3 PUSH1 0x20 PUSH1 0x1 DUP2 SWAP3 DUP7 DUP6 ADD MLOAD DUP2 SSTORE ADD SWAP5 ADD SWAP3 ADD PUSH2 0xB2F JUMP JUMPDEST DUP1 MLOAD DUP1 MLOAD SWAP1 PUSH1 0x1 PUSH1 0x1 PUSH1 0x40 SHL SUB DUP3 GT PUSH2 0xA98 JUMPI PUSH2 0xBB2 DUP3 PUSH2 0xACF DUP9 SLOAD PUSH2 0x257C JUMP JUMPDEST PUSH1 0x20 SWAP1 PUSH1 0x1F DUP4 GT PUSH1 0x1 EQ PUSH2 0xBFE JUMPI SWAP3 DUP3 PUSH1 0x1 SWAP5 SWAP4 PUSH1 0x20 SWAP4 DUP7 SWAP6 PUSH1 0x0 SWAP3 PUSH2 0xBF3 JUMPI JUMPDEST POP POP PUSH1 0x0 NOT PUSH1 0x3 DUP4 SWAP1 SHL SHR NOT AND SWAP1 DUP5 SHL OR DUP8 SSTORE JUMPDEST ADD SWAP5 ADD SWAP2 ADD SWAP1 SWAP3 PUSH2 0x982 JUMP JUMPDEST ADD MLOAD SWAP1 POP DUP13 DUP1 PUSH2 0xBD3 JUMP JUMPDEST SWAP1 DUP7 PUSH1 0x0 MSTORE PUSH1 0x20 PUSH1 0x0 KECCAK256 SWAP2 PUSH1 0x0 JUMPDEST PUSH1 0x1F NOT DUP6 AND DUP2 LT PUSH2 0xC56 JUMPI POP DUP4 PUSH1 0x20 SWAP4 PUSH1 0x1 SWAP7 SWAP4 DUP8 SWAP7 SWAP4 DUP8 SWAP5 PUSH1 0x1F NOT DUP2 AND LT PUSH2 0xC3D JUMPI JUMPDEST POP POP POP DUP2 SHL ADD DUP8 SSTORE PUSH2 0xBE7 JUMP JUMPDEST ADD MLOAD PUSH1 0x0 NOT PUSH1 0xF8 DUP5 PUSH1 0x3 SHL AND SHR NOT AND SWAP1 SSTORE DUP13 DUP1 DUP1 PUSH2 0xC30 JUMP JUMPDEST SWAP2 SWAP3 PUSH1 0x20 PUSH1 0x1 DUP2 SWAP3 DUP7 DUP6 ADD MLOAD DUP2 SSTORE ADD SWAP5 ADD SWAP3 ADD PUSH2 0xC0C JUMP JUMPDEST PUSH4 0x4E487B71 PUSH1 0xE0 SHL PUSH1 0x0 MSTORE PUSH1 0x0 PUSH1 0x4 MSTORE PUSH1 0x24 PUSH1 0x0 REVERT JUMPDEST DUP2 CALLDATALOAD DUP2 MSTORE PUSH1 0x20 SWAP2 DUP3 ADD SWAP2 ADD PUSH2 0x8F1 JUMP JUMPDEST PUSH1 0x64 PUSH1 0x40 MLOAD PUSH3 0x461BCD PUSH1 0xE5 SHL DUP2 MSTORE PUSH1 0x20 PUSH1 0x4 DUP3 ADD MSTORE PUSH1 0x20 PUSH1 0x24 DUP3 ADD MSTORE PUSH32 0x4D696C6573746F6E6520746F74616C20213D2070726F6772616D207072696365 PUSH1 0x44 DUP3 ADD MSTORE REVERT JUMPDEST SWAP2 DUP3 PUSH1 0x5 SHL DUP7 ADD CALLDATALOAD DUP2 ADD DUP1 SWAP2 GT PUSH2 0xCF8 JUMPI PUSH2 0xCF3 SWAP1 SWAP3 PUSH2 0x27E0 JUMP JUMPDEST PUSH2 0x84E JUMP JUMPDEST PUSH4 0x4E487B71 PUSH1 0xE0 SHL PUSH1 0x0 MSTORE PUSH1 0x11 PUSH1 0x4 MSTORE PUSH1 0x24 PUSH1 0x0 REVERT JUMPDEST PUSH1 0x40 MLOAD PUSH3 0x461BCD PUSH1 0xE5 SHL DUP2 MSTORE PUSH1 0x20 PUSH1 0x4 DUP3 ADD MSTORE PUSH1 0xE PUSH1 0x24 DUP3 ADD MSTORE PUSH14 0x92DCE0EAE840DAD2E6DAC2E8C6D PUSH1 0x93 SHL PUSH1 0x44 DUP3 ADD MSTORE PUSH1 0x64 SWAP1 REVERT JUMPDEST POP DUP5 DUP4 EQ PUSH2 0x843 JUMP JUMPDEST PUSH1 0x40 MLOAD PUSH3 0x461BCD PUSH1 0xE5 SHL DUP2 MSTORE PUSH1 0x20 PUSH1 0x4 DUP3 ADD MSTORE PUSH1 0xD PUSH1 0x24 DUP3 ADD MSTORE PUSH13 0x141C9BD9DC985B48195B991959 PUSH1 0x9A SHL PUSH1 0x44 DUP3 ADD MSTORE PUSH1 0x64 SWAP1 REVERT JUMPDEST CALLVALUE PUSH2 0x328 JUMPI PUSH1 0x60 CALLDATASIZE PUSH1 0x3 NOT ADD SLT PUSH2 0x328 JUMPI PUSH1 0x4 CALLDATALOAD PUSH1 0x24 CALLDATALOAD PUSH1 0x1 PUSH1 0x1 PUSH1 0x40 SHL SUB PUSH1 0x44 CALLDATALOAD DUP2 DUP2 GT PUSH2 0x328 JUMPI PUSH2 0xDB9 SWAP1 CALLDATASIZE SWAP1 PUSH1 0x4 ADD PUSH2 0x254C JUMP JUMPDEST DUP5 PUSH1 0x0 MSTORE PUSH1 0x20 PUSH1 0x2 DUP2 MSTORE PUSH1 0x40 PUSH1 0x0 KECCAK256 PUSH1 0xFF PUSH1 0xA DUP3 ADD SLOAD PUSH1 0xA0 SHR AND ISZERO PUSH2 0x1083 JUMPI PUSH1 0xB ADD SLOAD PUSH1 0x1 PUSH1 0x1 PUSH1 0xA0 SHL SUB AND CALLER SUB PUSH2 0x1048 JUMPI DUP6 PUSH1 0x0 MSTORE PUSH1 0x4 DUP2 MSTORE PUSH2 0xE01 DUP6 PUSH1 0x40 PUSH1 0x0 KECCAK256 PUSH2 0x2411 JUMP JUMPDEST POP SWAP3 PUSH1 0x4 DUP5 ADD SWAP4 DUP5 SLOAD SWAP5 PUSH1 0xFF DUP7 AND PUSH2 0x100F JUMPI SWAP1 PUSH1 0x5 SWAP2 PUSH1 0x1 SWAP8 SWAP7 SWAP6 SWAP5 SWAP4 SWAP8 DUP1 SWAP7 PUSH1 0xFF NOT AND OR SWAP1 SSTORE ADD PUSH2 0xE33 DUP4 DUP3 PUSH2 0x2750 JUMP JUMPDEST PUSH1 0x0 SWAP1 DUP2 MSTORE DUP2 DUP2 KECCAK256 SWAP1 DUP7 JUMPDEST DUP5 DUP3 LT PUSH2 0xF0D JUMPI POP POP POP DUP2 PUSH1 0x40 MLOAD SWAP7 PUSH1 0x40 DUP9 ADD SWAP1 DUP9 MSTORE PUSH1 0x40 DUP4 DUP10 ADD MSTORE MSTORE PUSH1 0x60 DUP7 ADD SWAP5 PUSH1 0x60 DUP4 PUSH1 0x5 SHL DUP9 ADD ADD SWAP6 DUP2 SWAP6 PUSH1 0x0 SWAP3 JUMPDEST DUP6 DUP5 LT PUSH2 0xEA0 JUMPI DUP11 PUSH32 0xBAA1EE362891351ADD36BB95F60BA8E4031D4C60ECE483917C0DC053D7B2C3D7 DUP12 DUP12 SUB DUP13 LOG2 STOP JUMPDEST SWAP1 SWAP2 SWAP3 SWAP4 SWAP5 SWAP6 SWAP7 SWAP8 PUSH1 0x5F NOT DUP11 DUP3 SUB ADD DUP5 MSTORE DUP9 CALLDATALOAD PUSH1 0x1E NOT DUP4 CALLDATASIZE SUB ADD DUP2 SLT ISZERO PUSH2 0x328 JUMPI DUP3 ADD DUP7 DUP2 ADD SWAP2 SWAP1 CALLDATALOAD DUP5 DUP2 GT PUSH2 0x328 JUMPI DUP1 CALLDATASIZE SUB DUP4 SGT PUSH2 0x328 JUMPI DUP8 DUP3 DUP3 DUP1 DUP14 SWAP7 DUP5 SWAP7 SWAP6 DUP6 SWAP7 MSTORE DUP5 DUP5 ADD CALLDATACOPY PUSH1 0x0 DUP3 DUP3 ADD DUP5 ADD MSTORE PUSH1 0x1F ADD PUSH1 0x1F NOT AND ADD ADD SWAP11 ADD SWAP9 SWAP8 SWAP7 SWAP6 SWAP2 SWAP1 SWAP2 ADD SWAP4 ADD SWAP2 SWAP1 PUSH2 0xE70 JUMP JUMPDEST DUP1 SWAP8 SWAP4 SWAP5 SWAP6 SWAP7 SWAP8 CALLDATALOAD PUSH1 0x1E NOT DUP6 CALLDATASIZE SUB ADD DUP2 SLT ISZERO PUSH2 0x328 JUMPI DUP5 ADD SWAP1 DUP2 CALLDATALOAD DUP10 DUP2 GT PUSH2 0x328 JUMPI DUP1 CALLDATASIZE SUB DUP8 DUP5 ADD SGT PUSH2 0x328 JUMPI DUP9 SWAP2 DUP2 PUSH2 0xF52 DUP10 SWAP4 PUSH2 0xF4C DUP10 SLOAD PUSH2 0x257C JUMP JUMPDEST DUP10 PUSH2 0x270B JUMP JUMPDEST PUSH1 0x0 PUSH1 0x1F DUP3 GT PUSH1 0x1 EQ PUSH2 0xFA0 JUMPI DUP4 DUP3 SWAP2 DUP7 SWAP8 PUSH1 0x0 SWAP4 PUSH2 0xF93 JUMPI JUMPDEST POP POP POP PUSH1 0x0 NOT PUSH1 0x3 DUP4 SWAP1 SHL SHR NOT AND SWAP1 DUP5 SHL OR DUP7 SSTORE JUMPDEST ADD SWAP4 ADD SWAP2 ADD SWAP1 SWAP2 SWAP7 SWAP6 SWAP5 SWAP4 SWAP3 SWAP7 PUSH2 0xE3E JUMP JUMPDEST ADD ADD CALLDATALOAD SWAP1 POP DUP4 CODESIZE DUP1 PUSH2 0xF6C JUMP JUMPDEST SWAP5 PUSH1 0x1F NOT DUP3 AND SWAP6 DUP9 PUSH1 0x0 MSTORE DUP5 PUSH1 0x0 KECCAK256 SWAP7 PUSH1 0x0 JUMPDEST DUP2 DUP2 LT PUSH2 0xFF4 JUMPI POP SWAP2 DUP6 DUP8 SWAP9 SWAP3 DUP6 DUP10 SWAP7 SWAP6 LT PUSH2 0xFD8 JUMPI JUMPDEST POP POP POP POP DUP2 SHL ADD DUP7 SSTORE PUSH2 0xF81 JUMP JUMPDEST PUSH1 0x0 NOT PUSH1 0xF8 DUP7 PUSH1 0x3 SHL AND SHR NOT SWAP3 ADD ADD CALLDATALOAD AND SWAP1 SSTORE DUP16 DUP1 DUP6 DUP2 PUSH2 0xFCA JUMP JUMPDEST DUP4 DUP4 ADD DUP8 ADD CALLDATALOAD DUP10 SSTORE SWAP7 SWAP1 SWAP8 ADD SWAP7 DUP14 SWAP7 DUP13 SWAP7 SWAP3 DUP4 ADD SWAP3 ADD PUSH2 0xFB3 JUMP JUMPDEST PUSH1 0x40 MLOAD PUSH3 0x461BCD PUSH1 0xE5 SHL DUP2 MSTORE PUSH1 0x4 DUP2 ADD DUP6 SWAP1 MSTORE PUSH1 0x11 PUSH1 0x24 DUP3 ADD MSTORE PUSH17 0x105B1C9958591E481CDD589B5A5D1D1959 PUSH1 0x7A SHL PUSH1 0x44 DUP3 ADD MSTORE PUSH1 0x64 SWAP1 REVERT JUMPDEST PUSH1 0x64 SWAP1 PUSH1 0x40 MLOAD SWAP1 PUSH3 0x461BCD PUSH1 0xE5 SHL DUP3 MSTORE PUSH1 0x4 DUP3 ADD MSTORE PUSH1 0x14 PUSH1 0x24 DUP3 ADD MSTORE PUSH20 0x2737BA1039B2B632B1BA32B210313AB4B63232B9 PUSH1 0x61 SHL PUSH1 0x44 DUP3 ADD MSTORE REVERT JUMPDEST PUSH1 0x40 MLOAD PUSH3 0x461BCD PUSH1 0xE5 SHL DUP2 MSTORE PUSH1 0x4 DUP2 ADD DUP4 SWAP1 MSTORE PUSH1 0xC PUSH1 0x24 DUP3 ADD MSTORE PUSH12 0x139BDD08185C1C1C9BDD9959 PUSH1 0xA2 SHL PUSH1 0x44 DUP3 ADD MSTORE PUSH1 0x64 SWAP1 REVERT JUMPDEST CALLVALUE PUSH2 0x328 JUMPI PUSH2 0x10C5 CALLDATASIZE PUSH2 0x23FB JUMP JUMPDEST SWAP1 PUSH2 0x10CE PUSH2 0x2843 JUMP JUMPDEST DUP1 PUSH1 0x0 MSTORE PUSH1 0x20 PUSH1 0x2 DUP2 MSTORE PUSH1 0x40 PUSH1 0x0 KECCAK256 PUSH1 0x1 DUP1 PUSH1 0xA0 SHL SUB SWAP1 PUSH2 0x10F6 DUP3 PUSH1 0xA DUP4 ADD SLOAD AND CALLER EQ PUSH2 0x27EF JUMP JUMPDEST DUP4 PUSH1 0x0 MSTORE PUSH1 0x4 DUP4 MSTORE PUSH2 0x110C DUP6 PUSH1 0x40 PUSH1 0x0 KECCAK256 PUSH2 0x2411 JUMP JUMPDEST POP SWAP1 PUSH1 0x4 DUP3 ADD DUP1 SLOAD PUSH1 0xFF DUP2 AND ISZERO PUSH2 0x1283 JUMPI PUSH1 0xFF DUP2 PUSH1 0x8 SHR AND ISZERO DUP1 PUSH2 0x1275 JUMPI JUMPDEST ISZERO PUSH2 0x123E JUMPI SWAP1 PUSH3 0x10100 PUSH1 0xB SWAP4 SWAP3 PUSH3 0xFFFF00 NOT AND OR SWAP1 SSTORE ADD SWAP1 PUSH1 0x0 DUP1 DUP1 DUP1 PUSH1 0x3 DUP8 DUP8 SLOAD AND SWAP6 ADD SWAP5 DUP6 SLOAD SWAP1 GAS CALL RETURNDATASIZE ISZERO PUSH2 0x1239 JUMPI RETURNDATASIZE PUSH2 0x1167 DUP2 PUSH2 0x2464 JUMP JUMPDEST SWAP1 PUSH2 0x1175 PUSH1 0x40 MLOAD SWAP3 DUP4 PUSH2 0x2443 JUMP JUMPDEST DUP2 MSTORE PUSH1 0x0 DUP7 RETURNDATASIZE SWAP3 ADD RETURNDATACOPY JUMPDEST ISZERO PUSH2 0x11FE JUMPI SWAP4 PUSH32 0x27D841E82FB3B2469E89E27C70F2EC8597324E08569A13460E4DD8A1A3C0B10C PUSH1 0x40 DUP3 SWAP8 PUSH32 0x7099040FF4ABF6B015BD1004CBF11EC796C3D4ABCAEC3514DB1C93599297D39F SWAP8 SLOAD DUP1 SWAP8 DUP4 MLOAD SWAP3 DUP4 MSTORE DUP3 ADD MSTORE LOG2 SLOAD PUSH1 0x40 DUP1 MLOAD SWAP3 SWAP1 SWAP2 AND PUSH1 0x1 PUSH1 0x1 PUSH1 0xA0 SHL SUB AND DUP3 MSTORE PUSH1 0x20 DUP3 ADD SWAP3 SWAP1 SWAP3 MSTORE SWAP1 DUP2 SWAP1 DUP2 ADD PUSH2 0x1D8 JUMP JUMPDEST PUSH1 0x40 MLOAD PUSH3 0x461BCD PUSH1 0xE5 SHL DUP2 MSTORE PUSH1 0x4 DUP2 ADD DUP6 SWAP1 MSTORE PUSH1 0x13 PUSH1 0x24 DUP3 ADD MSTORE PUSH19 0x115512081D1C985B9CD9995C8819985A5B1959 PUSH1 0x6A SHL PUSH1 0x44 DUP3 ADD MSTORE PUSH1 0x64 SWAP1 REVERT JUMPDEST PUSH2 0x117F JUMP JUMPDEST PUSH1 0x40 MLOAD PUSH3 0x461BCD PUSH1 0xE5 SHL DUP2 MSTORE PUSH1 0x4 DUP2 ADD DUP8 SWAP1 MSTORE PUSH1 0xF PUSH1 0x24 DUP3 ADD MSTORE PUSH15 0x105B1C9958591E481A185B991B1959 PUSH1 0x8A SHL PUSH1 0x44 DUP3 ADD MSTORE PUSH1 0x64 SWAP1 REVERT JUMPDEST POP PUSH1 0xFF DUP2 PUSH1 0x10 SHR AND ISZERO PUSH2 0x112B JUMP JUMPDEST PUSH1 0x40 MLOAD PUSH3 0x461BCD PUSH1 0xE5 SHL DUP2 MSTORE PUSH1 0x4 DUP2 ADD DUP8 SWAP1 MSTORE PUSH1 0xD PUSH1 0x24 DUP3 ADD MSTORE PUSH13 0x139BDD081CDD589B5A5D1D1959 PUSH1 0x9A SHL PUSH1 0x44 DUP3 ADD MSTORE PUSH1 0x64 SWAP1 REVERT JUMPDEST PUSH2 0x120 CALLDATASIZE PUSH1 0x3 NOT ADD SLT PUSH2 0x328 JUMPI PUSH1 0x4 CALLDATALOAD PUSH1 0x1 PUSH1 0x1 PUSH1 0x40 SHL SUB DUP2 GT PUSH2 0x328 JUMPI PUSH2 0x12E4 SWAP1 CALLDATASIZE SWAP1 PUSH1 0x4 ADD PUSH2 0x247F JUMP JUMPDEST PUSH1 0x44 CALLDATALOAD PUSH1 0x1 PUSH1 0x1 PUSH1 0x40 SHL SUB DUP2 GT PUSH2 0x328 JUMPI PUSH2 0x1303 SWAP1 CALLDATASIZE SWAP1 PUSH1 0x4 ADD PUSH2 0x247F JUMP JUMPDEST SWAP1 PUSH1 0xA4 CALLDATALOAD SWAP1 PUSH1 0x1 PUSH1 0x1 PUSH1 0xA0 SHL SUB DUP3 AND DUP3 SUB PUSH2 0x328 JUMPI PUSH1 0xC4 CALLDATALOAD PUSH1 0x1 PUSH1 0x1 PUSH1 0x40 SHL SUB DUP2 GT PUSH2 0x328 JUMPI PUSH2 0x1337 SWAP1 CALLDATASIZE SWAP1 PUSH1 0x4 ADD PUSH2 0x247F JUMP JUMPDEST PUSH1 0xE4 CALLDATALOAD PUSH1 0x1 PUSH1 0x1 PUSH1 0x40 SHL SUB DUP2 GT PUSH2 0x328 JUMPI PUSH2 0x1356 SWAP1 CALLDATASIZE SWAP1 PUSH1 0x4 ADD PUSH2 0x247F JUMP JUMPDEST PUSH2 0x104 CALLDATALOAD PUSH1 0x1 PUSH1 0x1 PUSH1 0x40 SHL SUB DUP2 GT PUSH2 0x328 JUMPI CALLDATASIZE PUSH1 0x23 DUP3 ADD SLT ISZERO PUSH2 0x328 JUMPI PUSH2 0x1387 SWAP1 CALLDATASIZE SWAP1 PUSH1 0x24 DUP2 PUSH1 0x4 ADD CALLDATALOAD SWAP2 ADD PUSH2 0x24DD JUMP JUMPDEST SWAP2 PUSH1 0x24 CALLDATALOAD CALLVALUE SUB PUSH2 0x1A15 JUMPI PUSH1 0x84 CALLDATALOAD PUSH1 0x64 CALLDATALOAD LT ISZERO PUSH2 0x19B6 JUMPI PUSH1 0x8 SLOAD SWAP6 PUSH1 0x40 MLOAD SWAP5 DUP6 PUSH2 0x1C0 DUP2 ADD LT PUSH1 0x1 PUSH1 0x1 PUSH1 0x40 SHL SUB PUSH2 0x1C0 DUP9 ADD GT OR PUSH2 0xA98 JUMPI PUSH2 0x1C0 DUP7 ADD PUSH1 0x40 MSTORE DUP8 DUP7 MSTORE PUSH1 0x20 DUP7 ADD MSTORE PUSH1 0x40 DUP6 ADD MSTORE PUSH1 0x24 CALLDATALOAD PUSH1 0x60 DUP6 ADD MSTORE PUSH1 0x64 CALLDATALOAD PUSH1 0x80 DUP6 ADD MSTORE PUSH1 0x84 CALLDATALOAD PUSH1 0xA0 DUP6 ADD MSTORE PUSH1 0xC0 DUP5 ADD MSTORE PUSH1 0xE0 DUP4 ADD MSTORE PUSH2 0x100 DUP3 ADD MSTORE CALLER PUSH2 0x120 DUP3 ADD MSTORE PUSH1 0x1 DUP1 PUSH1 0xA0 SHL SUB DUP3 AND PUSH2 0x140 DUP3 ADD MSTORE PUSH1 0x0 PUSH2 0x160 DUP3 ADD MSTORE PUSH1 0x0 PUSH2 0x180 DUP3 ADD MSTORE PUSH1 0x0 PUSH2 0x1A0 DUP3 ADD MSTORE DUP3 PUSH1 0x0 MSTORE PUSH1 0x2 PUSH1 0x20 MSTORE PUSH1 0x40 PUSH1 0x0 KECCAK256 DUP2 MLOAD DUP2 SSTORE PUSH1 0x20 DUP3 ADD MLOAD DUP1 MLOAD SWAP1 PUSH1 0x1 PUSH1 0x1 PUSH1 0x40 SHL SUB DUP3 GT PUSH2 0xA98 JUMPI DUP2 SWAP1 PUSH2 0x146E DUP3 PUSH2 0x1465 PUSH1 0x1 DUP8 ADD SLOAD PUSH2 0x257C JUMP JUMPDEST PUSH1 0x1 DUP8 ADD PUSH2 0x270B JUMP JUMPDEST PUSH1 0x20 SWAP1 PUSH1 0x1F DUP4 GT PUSH1 0x1 EQ PUSH2 0x1944 JUMPI PUSH1 0x0 SWAP3 PUSH2 0x1939 JUMPI JUMPDEST POP POP DUP2 PUSH1 0x1 SHL SWAP2 PUSH1 0x0 NOT SWAP1 PUSH1 0x3 SHL SHR NOT AND OR PUSH1 0x1 DUP3 ADD SSTORE JUMPDEST PUSH1 0x40 DUP3 ADD MLOAD DUP1 MLOAD SWAP1 PUSH1 0x1 PUSH1 0x1 PUSH1 0x40 SHL SUB DUP3 GT PUSH2 0xA98 JUMPI DUP2 SWAP1 PUSH2 0x14CE DUP3 PUSH2 0x14C5 PUSH1 0x2 DUP8 ADD SLOAD PUSH2 0x257C JUMP JUMPDEST PUSH1 0x2 DUP8 ADD PUSH2 0x270B JUMP JUMPDEST PUSH1 0x20 SWAP1 PUSH1 0x1F DUP4 GT PUSH1 0x1 EQ PUSH2 0x18C7 JUMPI PUSH1 0x0 SWAP3 PUSH2 0x18BC JUMPI JUMPDEST POP POP DUP2 PUSH1 0x1 SHL SWAP2 PUSH1 0x0 NOT SWAP1 PUSH1 0x3 SHL SHR NOT AND OR PUSH1 0x2 DUP3 ADD SSTORE JUMPDEST PUSH1 0x60 DUP3 ADD MLOAD PUSH1 0x3 DUP3 ADD SSTORE PUSH1 0x80 DUP3 ADD MLOAD PUSH1 0x4 DUP3 ADD SSTORE PUSH1 0xA0 DUP3 ADD MLOAD PUSH1 0x5 DUP3 ADD SSTORE PUSH1 0xC0 DUP3 ADD MLOAD DUP1 MLOAD SWAP1 PUSH1 0x1 PUSH1 0x1 PUSH1 0x40 SHL SUB DUP3 GT PUSH2 0xA98 JUMPI DUP2 SWAP1 PUSH2 0x154C DUP3 PUSH2 0x1543 PUSH1 0x6 DUP8 ADD SLOAD PUSH2 0x257C JUMP JUMPDEST PUSH1 0x6 DUP8 ADD PUSH2 0x270B JUMP JUMPDEST PUSH1 0x20 SWAP1 PUSH1 0x1F DUP4 GT PUSH1 0x1 EQ PUSH2 0x184A JUMPI PUSH1 0x0 SWAP3 PUSH2 0x183F JUMPI JUMPDEST POP POP DUP2 PUSH1 0x1 SHL SWAP2 PUSH1 0x0 NOT SWAP1 PUSH1 0x3 SHL SHR NOT AND OR PUSH1 0x6 DUP3 ADD SSTORE JUMPDEST PUSH1 0xE0 DUP3 ADD MLOAD DUP1 MLOAD SWAP1 PUSH1 0x1 PUSH1 0x1 PUSH1 0x40 SHL SUB DUP3 GT PUSH2 0xA98 JUMPI DUP2 SWAP1 PUSH2 0x15AC DUP3 PUSH2 0x15A3 PUSH1 0x7 DUP8 ADD SLOAD PUSH2 0x257C JUMP JUMPDEST PUSH1 0x7 DUP8 ADD PUSH2 0x270B JUMP JUMPDEST PUSH1 0x20 SWAP1 PUSH1 0x1F DUP4 GT PUSH1 0x1 EQ PUSH2 0x17CD JUMPI PUSH1 0x0 SWAP3 PUSH2 0x17C2 JUMPI JUMPDEST POP POP DUP2 PUSH1 0x1 SHL SWAP2 PUSH1 0x0 NOT SWAP1 PUSH1 0x3 SHL SHR NOT AND OR PUSH1 0x7 DUP3 ADD SSTORE JUMPDEST PUSH1 0x8 DUP2 ADD PUSH2 0x100 DUP4 ADD MLOAD PUSH1 0x20 DUP2 MLOAD SWAP2 PUSH2 0x15F3 DUP4 DUP6 PUSH2 0x2750 JUMP JUMPDEST ADD SWAP2 PUSH1 0x0 MSTORE PUSH1 0x20 PUSH1 0x0 KECCAK256 SWAP2 PUSH1 0x0 SWAP1 JUMPDEST DUP3 DUP3 LT PUSH2 0x16E5 JUMPI POP POP POP POP PUSH2 0x120 DUP3 ADD MLOAD PUSH1 0x9 DUP3 ADD DUP1 SLOAD PUSH1 0x1 PUSH1 0x1 PUSH1 0xA0 SHL SUB NOT SWAP1 DUP2 AND PUSH1 0x1 PUSH1 0x1 PUSH1 0xA0 SHL SUB SWAP4 DUP5 AND OR SWAP1 SWAP2 SSTORE PUSH2 0x140 DUP5 ADD MLOAD PUSH1 0xA DUP5 ADD DUP1 SLOAD PUSH2 0x160 DUP8 ADD MLOAD PUSH2 0x180 DUP9 ADD MLOAD PUSH1 0x1 PUSH1 0x1 PUSH1 0xB0 SHL SUB NOT SWAP1 SWAP3 AND SWAP4 DUP7 AND SWAP4 SWAP1 SWAP4 OR SWAP3 ISZERO ISZERO PUSH1 0xA0 SHL PUSH1 0xFF PUSH1 0xA0 SHL AND SWAP3 SWAP1 SWAP3 OR SWAP2 ISZERO ISZERO PUSH1 0xA8 SHL PUSH1 0xFF PUSH1 0xA8 SHL AND SWAP2 SWAP1 SWAP2 OR SWAP1 SSTORE PUSH2 0x1A0 SWAP1 SWAP4 ADD MLOAD PUSH1 0xB SWAP3 SWAP1 SWAP3 ADD DUP1 SLOAD SWAP1 SWAP4 AND SWAP2 AND OR SWAP1 SSTORE PUSH1 0x8 SLOAD PUSH2 0x16A4 SWAP1 PUSH2 0x27E0 JUMP JUMPDEST PUSH1 0x8 SSTORE PUSH1 0x40 MLOAD PUSH1 0x24 CALLDATALOAD DUP2 MSTORE PUSH1 0x1 PUSH1 0x1 PUSH1 0xA0 SHL SUB SWAP1 SWAP2 AND SWAP2 CALLER SWAP2 PUSH32 0x808C887919683A350ED55B3499F97ED7F4093ECC5E131FADB8B075A85457AF3A SWAP1 PUSH1 0x20 SWAP1 LOG4 STOP JUMPDEST DUP1 MLOAD DUP1 MLOAD SWAP1 PUSH1 0x1 PUSH1 0x1 PUSH1 0x40 SHL SUB DUP3 GT PUSH2 0xA98 JUMPI PUSH2 0x1706 DUP3 PUSH2 0xACF DUP9 SLOAD PUSH2 0x257C JUMP JUMPDEST PUSH1 0x20 SWAP1 PUSH1 0x1F DUP4 GT PUSH1 0x1 EQ PUSH2 0x1752 JUMPI SWAP3 DUP3 PUSH1 0x1 SWAP5 SWAP4 PUSH1 0x20 SWAP4 DUP7 SWAP6 PUSH1 0x0 SWAP3 PUSH2 0x1747 JUMPI JUMPDEST POP POP PUSH1 0x0 NOT PUSH1 0x3 DUP4 SWAP1 SHL SHR NOT AND SWAP1 DUP5 SHL OR DUP8 SSTORE JUMPDEST ADD SWAP5 ADD SWAP2 ADD SWAP1 SWAP3 PUSH2 0x1602 JUMP JUMPDEST ADD MLOAD SWAP1 POP DUP14 DUP1 PUSH2 0x1727 JUMP JUMPDEST SWAP1 DUP7 PUSH1 0x0 MSTORE PUSH1 0x20 PUSH1 0x0 KECCAK256 SWAP2 PUSH1 0x0 JUMPDEST PUSH1 0x1F NOT DUP6 AND DUP2 LT PUSH2 0x17AA JUMPI POP DUP4 PUSH1 0x20 SWAP4 PUSH1 0x1 SWAP7 SWAP4 DUP8 SWAP7 SWAP4 DUP8 SWAP5 PUSH1 0x1F NOT DUP2 AND LT PUSH2 0x1791 JUMPI JUMPDEST POP POP POP DUP2 SHL ADD DUP8 SSTORE PUSH2 0x173B JUMP JUMPDEST ADD MLOAD PUSH1 0x0 NOT PUSH1 0xF8 DUP5 PUSH1 0x3 SHL AND SHR NOT AND SWAP1 SSTORE DUP14 DUP1 DUP1 PUSH2 0x1784 JUMP JUMPDEST SWAP2 SWAP3 PUSH1 0x20 PUSH1 0x1 DUP2 SWAP3 DUP7 DUP6 ADD MLOAD DUP2 SSTORE ADD SWAP5 ADD SWAP3 ADD PUSH2 0x1760 JUMP JUMPDEST ADD MLOAD SWAP1 POP DUP7 DUP1 PUSH2 0x15C2 JUMP JUMPDEST SWAP3 POP PUSH1 0x7 DUP5 ADD PUSH1 0x0 MSTORE PUSH1 0x20 PUSH1 0x0 KECCAK256 SWAP1 PUSH1 0x0 SWAP4 JUMPDEST PUSH1 0x1F NOT DUP5 AND DUP6 LT PUSH2 0x1824 JUMPI PUSH1 0x1 SWAP5 POP DUP4 PUSH1 0x1F NOT DUP2 AND LT PUSH2 0x180B JUMPI JUMPDEST POP POP POP DUP2 SHL ADD PUSH1 0x7 DUP3 ADD SSTORE PUSH2 0x15DA JUMP JUMPDEST ADD MLOAD PUSH1 0x0 NOT PUSH1 0xF8 DUP5 PUSH1 0x3 SHL AND SHR NOT AND SWAP1 SSTORE DUP7 DUP1 DUP1 PUSH2 0x17FB JUMP JUMPDEST DUP2 DUP2 ADD MLOAD DUP4 SSTORE PUSH1 0x20 SWAP5 DUP6 ADD SWAP5 PUSH1 0x1 SWAP1 SWAP4 ADD SWAP3 SWAP1 SWAP2 ADD SWAP1 PUSH2 0x17E0 JUMP JUMPDEST ADD MLOAD SWAP1 POP DUP7 DUP1 PUSH2 0x1562 JUMP JUMPDEST SWAP3 POP PUSH1 0x6 DUP5 ADD PUSH1 0x0 MSTORE PUSH1 0x20 PUSH1 0x0 KECCAK256 SWAP1 PUSH1 0x0 SWAP4 JUMPDEST PUSH1 0x1F NOT DUP5 AND DUP6 LT PUSH2 0x18A1 JUMPI PUSH1 0x1 SWAP5 POP DUP4 PUSH1 0x1F NOT DUP2 AND LT PUSH2 0x1888 JUMPI JUMPDEST POP POP POP DUP2 SHL ADD PUSH1 0x6 DUP3 ADD SSTORE PUSH2 0x157A JUMP JUMPDEST ADD MLOAD PUSH1 0x0 NOT PUSH1 0xF8 DUP5 PUSH1 0x3 SHL AND SHR NOT AND SWAP1 SSTORE DUP7 DUP1 DUP1 PUSH2 0x1878 JUMP JUMPDEST DUP2 DUP2 ADD MLOAD DUP4 SSTORE PUSH1 0x20 SWAP5 DUP6 ADD SWAP5 PUSH1 0x1 SWAP1 SWAP4 ADD SWAP3 SWAP1 SWAP2 ADD SWAP1 PUSH2 0x185D JUMP JUMPDEST ADD MLOAD SWAP1 POP DUP7 DUP1 PUSH2 0x14E4 JUMP JUMPDEST SWAP3 POP PUSH1 0x2 DUP5 ADD PUSH1 0x0 MSTORE PUSH1 0x20 PUSH1 0x0 KECCAK256 SWAP1 PUSH1 0x0 SWAP4 JUMPDEST PUSH1 0x1F NOT DUP5 AND DUP6 LT PUSH2 0x191E JUMPI PUSH1 0x1 SWAP5 POP DUP4 PUSH1 0x1F NOT DUP2 AND LT PUSH2 0x1905 JUMPI JUMPDEST POP POP POP DUP2 SHL ADD PUSH1 0x2 DUP3 ADD SSTORE PUSH2 0x14FC JUMP JUMPDEST ADD MLOAD PUSH1 0x0 NOT PUSH1 0xF8 DUP5 PUSH1 0x3 SHL AND SHR NOT AND SWAP1 SSTORE DUP7 DUP1 DUP1 PUSH2 0x18F5 JUMP JUMPDEST DUP2 DUP2 ADD MLOAD DUP4 SSTORE PUSH1 0x20 SWAP5 DUP6 ADD SWAP5 PUSH1 0x1 SWAP1 SWAP4 ADD SWAP3 SWAP1 SWAP2 ADD SWAP1 PUSH2 0x18DA JUMP JUMPDEST ADD MLOAD SWAP1 POP DUP7 DUP1 PUSH2 0x1484 JUMP JUMPDEST SWAP3 POP PUSH1 0x1 DUP5 ADD PUSH1 0x0 MSTORE PUSH1 0x20 PUSH1 0x0 KECCAK256 SWAP1 PUSH1 0x0 SWAP4 JUMPDEST PUSH1 0x1F NOT DUP5 AND DUP6 LT PUSH2 0x199B JUMPI PUSH1 0x1 SWAP5 POP DUP4 PUSH1 0x1F NOT DUP2 AND LT PUSH2 0x1982 JUMPI JUMPDEST POP POP POP DUP2 SHL ADD PUSH1 0x1 DUP3 ADD SSTORE PUSH2 0x149C JUMP JUMPDEST ADD MLOAD PUSH1 0x0 NOT PUSH1 0xF8 DUP5 PUSH1 0x3 SHL AND SHR NOT AND SWAP1 SSTORE DUP7 DUP1 DUP1 PUSH2 0x1972 JUMP JUMPDEST DUP2 DUP2 ADD MLOAD DUP4 SSTORE PUSH1 0x20 SWAP5 DUP6 ADD SWAP5 PUSH1 0x1 SWAP1 SWAP4 ADD SWAP3 SWAP1 SWAP2 ADD SWAP1 PUSH2 0x1957 JUMP JUMPDEST PUSH1 0x40 MLOAD PUSH3 0x461BCD PUSH1 0xE5 SHL DUP2 MSTORE PUSH1 0x20 PUSH1 0x4 DUP3 ADD MSTORE PUSH1 0x31 PUSH1 0x24 DUP3 ADD MSTORE PUSH32 0x5468652053746172742074696D65206D757374206265206561726C6965722074 PUSH1 0x44 DUP3 ADD MSTORE PUSH17 0x3430B7103A34329032B732103A34B6B297 PUSH1 0x79 SHL PUSH1 0x64 DUP3 ADD MSTORE PUSH1 0x84 SWAP1 REVERT JUMPDEST PUSH1 0x40 MLOAD PUSH3 0x461BCD PUSH1 0xE5 SHL DUP2 MSTORE PUSH1 0x20 PUSH1 0x4 DUP3 ADD MSTORE PUSH1 0x2D PUSH1 0x24 DUP3 ADD MSTORE PUSH32 0x546865204554482073656E7420646F6573206E6F74206D617463682074686520 PUSH1 0x44 DUP3 ADD MSTORE PUSH13 0x70726F6772616D207072696365 PUSH1 0x98 SHL PUSH1 0x64 DUP3 ADD MSTORE PUSH1 0x84 SWAP1 REVERT JUMPDEST CALLVALUE PUSH2 0x328 JUMPI PUSH1 0x0 CALLDATASIZE PUSH1 0x3 NOT ADD SLT PUSH2 0x328 JUMPI PUSH1 0x0 SLOAD PUSH1 0x40 MLOAD PUSH1 0x1 PUSH1 0x1 PUSH1 0xA0 SHL SUB SWAP1 SWAP2 AND DUP2 MSTORE PUSH1 0x20 SWAP1 RETURN JUMPDEST CALLVALUE PUSH2 0x328 JUMPI PUSH1 0xA0 CALLDATASIZE PUSH1 0x3 NOT ADD SLT PUSH2 0x328 JUMPI PUSH1 0x24 CALLDATALOAD PUSH1 0x1 PUSH1 0x1 PUSH1 0xA0 SHL SUB PUSH1 0x4 CALLDATALOAD PUSH1 0x84 CALLDATALOAD DUP3 DUP2 AND SWAP1 PUSH1 0x64 CALLDATALOAD SWAP1 PUSH1 0x44 CALLDATALOAD SWAP1 DUP4 SWAP1 SUB PUSH2 0x328 JUMPI DUP4 PUSH1 0x0 MSTORE PUSH1 0x2 PUSH1 0x20 MSTORE PUSH1 0x40 PUSH1 0x0 KECCAK256 SWAP5 PUSH1 0x9 DUP7 ADD SLOAD AND CALLER SUB PUSH2 0x1BF5 JUMPI DUP2 DUP2 LT ISZERO PUSH2 0x1BA4 JUMPI DUP6 ISZERO PUSH2 0x1B5F JUMPI DUP6 PUSH1 0xA DUP7 PUSH32 0xE3D59D03839A10C8A5A85DD0D7E5A4AC45445821C5176529D2745ADF6915A161 SWAP9 PUSH1 0x3 PUSH1 0xA0 SWAP10 ADD SSTORE DUP4 PUSH1 0x4 DUP3 ADD SSTORE DUP5 PUSH1 0x5 DUP3 ADD SSTORE ADD DUP5 PUSH1 0x1 PUSH1 0x1 PUSH1 0x60 SHL SUB DUP9 SHL DUP3 SLOAD AND OR SWAP1 SSTORE PUSH1 0x40 MLOAD SWAP5 DUP6 MSTORE PUSH1 0x20 DUP6 ADD MSTORE PUSH1 0x40 DUP5 ADD MSTORE PUSH1 0x60 DUP4 ADD MSTORE PUSH1 0x80 DUP3 ADD MSTORE LOG1 STOP JUMPDEST PUSH1 0x40 MLOAD PUSH3 0x461BCD PUSH1 0xE5 SHL DUP2 MSTORE PUSH1 0x20 PUSH1 0x4 DUP3 ADD MSTORE PUSH1 0x17 PUSH1 0x24 DUP3 ADD MSTORE PUSH32 0x5072696365206D75737420626520706F7369746976652E000000000000000000 PUSH1 0x44 DUP3 ADD MSTORE PUSH1 0x64 SWAP1 REVERT JUMPDEST PUSH1 0x40 MLOAD PUSH3 0x461BCD PUSH1 0xE5 SHL DUP2 MSTORE PUSH1 0x20 PUSH1 0x4 DUP3 ADD MSTORE PUSH1 0x23 PUSH1 0x24 DUP3 ADD MSTORE PUSH32 0x53746172742074696D65206D757374206265206265666F726520656E64207469 PUSH1 0x44 DUP3 ADD MSTORE PUSH3 0x36B297 PUSH1 0xE9 SHL PUSH1 0x64 DUP3 ADD MSTORE PUSH1 0x84 SWAP1 REVERT JUMPDEST PUSH1 0x40 MLOAD PUSH3 0x461BCD PUSH1 0xE5 SHL DUP2 MSTORE PUSH1 0x20 PUSH1 0x4 DUP3 ADD MSTORE PUSH1 0x23 PUSH1 0x24 DUP3 ADD MSTORE PUSH32 0x4F6E6C792063726561746F72732063616E2065646974207468652070726F6772 PUSH1 0x44 DUP3 ADD MSTORE PUSH3 0x30B697 PUSH1 0xE9 SHL PUSH1 0x64 DUP3 ADD MSTORE PUSH1 0x84 SWAP1 REVERT JUMPDEST CALLVALUE PUSH2 0x328 JUMPI PUSH1 0x20 CALLDATASIZE PUSH1 0x3 NOT ADD SLT PUSH2 0x328 JUMPI PUSH1 0x4 CALLDATALOAD PUSH1 0x0 MSTORE PUSH1 0x7 PUSH1 0x20 MSTORE PUSH1 0x20 PUSH1 0x40 PUSH1 0x0 KECCAK256 SLOAD PUSH1 0x40 MLOAD SWAP1 DUP2 MSTORE RETURN JUMPDEST CALLVALUE PUSH2 0x328 JUMPI PUSH2 0x1C80 CALLDATASIZE PUSH2 0x23FB JUMP JUMPDEST SWAP1 PUSH1 0x0 MSTORE PUSH1 0x3 PUSH1 0x20 MSTORE PUSH1 0x40 PUSH1 0x0 KECCAK256 SWAP1 DUP2 SLOAD DUP2 LT ISZERO PUSH2 0x328 JUMPI PUSH2 0x1CA1 SWAP2 PUSH2 0x2411 JUMP JUMPDEST POP DUP1 SLOAD PUSH1 0xFF PUSH1 0x5 PUSH1 0x1 DUP1 PUSH1 0xA0 SHL SUB PUSH1 0x1 DUP6 ADD SLOAD AND SWAP4 ADD SLOAD AND SWAP2 PUSH1 0x40 MLOAD SWAP2 DUP3 MSTORE PUSH1 0x20 DUP3 ADD MSTORE PUSH1 0x3 DUP3 LT ISZERO PUSH2 0xA51 JUMPI PUSH1 0x60 SWAP2 PUSH1 0x40 DUP3 ADD MSTORE RETURN JUMPDEST CALLVALUE PUSH2 0x328 JUMPI PUSH1 0x0 CALLDATASIZE PUSH1 0x3 NOT ADD SLT PUSH2 0x328 JUMPI PUSH2 0x1CF1 PUSH2 0x269C JUMP JUMPDEST PUSH1 0x0 DUP1 SLOAD PUSH1 0x1 PUSH1 0x1 PUSH1 0xA0 SHL SUB NOT DUP2 AND DUP3 SSTORE PUSH1 0x1 PUSH1 0x1 PUSH1 0xA0 SHL SUB AND PUSH32 0x8BE0079C531659141344CD1FD0A4F28419497F9722A3DAAFE3B4186F6B6457E0 DUP3 DUP1 LOG3 STOP JUMPDEST CALLVALUE PUSH2 0x328 JUMPI PUSH1 0x20 CALLDATASIZE PUSH1 0x3 NOT ADD SLT PUSH2 0x328 JUMPI PUSH32 0x8C4D35E54A3F2EF1134138FD8EA3DAEE6A3C89E10D2665996BABDF70261E2C76 PUSH1 0x20 PUSH1 0x4 CALLDATALOAD PUSH2 0x1D70 PUSH2 0x269C JUMP JUMPDEST DUP1 PUSH1 0x9 SSTORE PUSH1 0x40 MLOAD SWAP1 DUP2 MSTORE LOG1 STOP JUMPDEST CALLVALUE PUSH2 0x328 JUMPI PUSH1 0x60 CALLDATASIZE PUSH1 0x3 NOT ADD SLT PUSH2 0x328 JUMPI PUSH1 0x44 CALLDATALOAD ISZERO ISZERO PUSH1 0x44 CALLDATALOAD SUB PUSH2 0x328 JUMPI PUSH1 0x4 CALLDATALOAD PUSH1 0x0 MSTORE PUSH1 0x2 PUSH1 0x20 MSTORE PUSH1 0x40 PUSH1 0x0 KECCAK256 PUSH2 0x1DC2 PUSH1 0x1 DUP1 PUSH1 0xA0 SHL SUB PUSH1 0xA DUP4 ADD SLOAD AND CALLER EQ PUSH2 0x27EF JUMP JUMPDEST PUSH1 0x4 CALLDATALOAD PUSH1 0x0 MSTORE PUSH1 0x3 PUSH1 0x20 MSTORE PUSH1 0x40 PUSH1 0x0 KECCAK256 PUSH1 0x0 SWAP1 PUSH1 0x0 JUMPDEST DUP2 SLOAD DUP2 LT ISZERO PUSH2 0x23F2 JUMPI PUSH2 0x1DEB DUP2 DUP4 PUSH2 0x2411 JUMP JUMPDEST POP SLOAD PUSH1 0x24 CALLDATALOAD EQ PUSH2 0x1E03 JUMPI PUSH2 0x1DFE SWAP1 PUSH2 0x27E0 JUMP JUMPDEST PUSH2 0x1DD8 JUMP JUMPDEST DUP1 SWAP3 POP PUSH2 0x1E0F SWAP2 PUSH2 0x2411 JUMP JUMPDEST POP SWAP2 PUSH1 0x5 DUP4 ADD SLOAD PUSH1 0xFF DUP2 AND PUSH1 0x3 DUP2 LT ISZERO PUSH2 0xA51 JUMPI PUSH2 0x23B9 JUMPI PUSH1 0x44 CALLDATALOAD ISZERO PUSH2 0x23A4 JUMPI POP PUSH1 0xB DUP2 ADD SLOAD PUSH1 0x1 PUSH1 0x1 PUSH1 0xA0 SHL SUB AND PUSH2 0x236C JUMPI PUSH1 0x5 DUP4 DUP2 ADD DUP1 SLOAD PUSH1 0xFF NOT AND PUSH1 0x2 OR SWAP1 SSTORE PUSH1 0x1 DUP5 ADD SLOAD PUSH1 0xB DUP4 ADD DUP1 SLOAD PUSH1 0x1 PUSH1 0x1 PUSH1 0xA0 SHL SUB NOT AND PUSH1 0x1 PUSH1 0x1 PUSH1 0xA0 SHL SUB SWAP3 SWAP1 SWAP3 AND SWAP2 SWAP1 SWAP2 OR SWAP1 SSTORE PUSH1 0xA SWAP1 SWAP2 ADD DUP1 SLOAD PUSH1 0xFF PUSH1 0xA0 SHL NOT AND PUSH1 0x1 PUSH1 0xA0 SHL OR SWAP1 SSTORE PUSH1 0x4 CALLDATALOAD PUSH1 0x0 SWAP1 DUP2 MSTORE PUSH1 0x20 SWAP2 SWAP1 SWAP2 MSTORE PUSH1 0x40 DUP2 KECCAK256 SWAP2 SWAP1 SWAP2 SSTORE JUMPDEST PUSH1 0x2 DUP3 ADD SLOAD DUP2 LT ISZERO PUSH2 0x22DE JUMPI PUSH1 0x4 CALLDATALOAD PUSH1 0x0 MSTORE PUSH1 0x7 PUSH1 0x20 MSTORE PUSH1 0x40 PUSH1 0x0 KECCAK256 DUP1 SLOAD SWAP1 PUSH2 0x1ECE DUP3 PUSH2 0x27E0 JUMP JUMPDEST SWAP1 SSTORE PUSH1 0x4 CALLDATALOAD PUSH1 0x0 MSTORE PUSH1 0x4 PUSH1 0x20 MSTORE PUSH1 0x40 PUSH1 0x0 KECCAK256 PUSH2 0x1EED DUP4 PUSH1 0x2 DUP7 ADD PUSH2 0x282B JUMP JUMPDEST POP PUSH2 0x1EFB DUP5 PUSH1 0x3 DUP8 ADD PUSH2 0x282B JUMP JUMPDEST POP SWAP1 PUSH2 0x1F0A DUP6 PUSH1 0x4 DUP9 ADD PUSH2 0x282B JUMP JUMPDEST SWAP1 SLOAD SWAP1 PUSH1 0x3 SHL SHR SWAP1 PUSH1 0x40 MLOAD SWAP3 DUP4 PUSH1 0x20 DUP2 ADD LT PUSH1 0x1 PUSH1 0x1 PUSH1 0x40 SHL SUB PUSH1 0x20 DUP7 ADD GT OR PUSH2 0xA98 JUMPI PUSH1 0x20 DUP5 ADD PUSH1 0x40 MSTORE PUSH1 0x0 DUP5 MSTORE PUSH1 0x40 MLOAD SWAP6 DUP7 PUSH2 0x100 DUP2 ADD LT PUSH1 0x1 PUSH1 0x1 PUSH1 0x40 SHL SUB PUSH2 0x100 DUP10 ADD GT OR PUSH2 0xA98 JUMPI PUSH2 0x1F78 SWAP3 PUSH2 0x1F6E SWAP2 PUSH2 0x100 DUP10 ADD PUSH1 0x40 MSTORE DUP9 MSTORE PUSH2 0x25B6 JUMP JUMPDEST PUSH1 0x20 DUP8 ADD MSTORE PUSH2 0x25B6 JUMP JUMPDEST PUSH1 0x40 DUP6 ADD MSTORE PUSH1 0x60 DUP5 ADD MSTORE PUSH1 0x0 PUSH1 0x80 DUP5 ADD MSTORE PUSH1 0x0 PUSH1 0xA0 DUP5 ADD MSTORE PUSH1 0x0 PUSH1 0xC0 DUP5 ADD MSTORE PUSH1 0xE0 DUP4 ADD MSTORE DUP1 SLOAD PUSH1 0x1 PUSH1 0x40 SHL DUP2 LT ISZERO PUSH2 0xA98 JUMPI PUSH2 0x1FB9 SWAP2 PUSH1 0x1 DUP3 ADD DUP2 SSTORE PUSH2 0x2411 JUMP JUMPDEST PUSH2 0xC6E JUMPI DUP2 MLOAD DUP2 SSTORE PUSH1 0x20 DUP3 ADD MLOAD DUP1 MLOAD SWAP1 PUSH1 0x1 PUSH1 0x1 PUSH1 0x40 SHL SUB DUP3 GT PUSH2 0xA98 JUMPI DUP2 SWAP1 PUSH2 0x1FEA DUP3 PUSH2 0x1465 PUSH1 0x1 DUP8 ADD SLOAD PUSH2 0x257C JUMP JUMPDEST PUSH1 0x20 SWAP1 PUSH1 0x1F DUP4 GT PUSH1 0x1 EQ PUSH2 0x226C JUMPI PUSH1 0x0 SWAP3 PUSH2 0x2261 JUMPI JUMPDEST POP POP DUP2 PUSH1 0x1 SHL SWAP2 PUSH1 0x0 NOT SWAP1 PUSH1 0x3 SHL SHR NOT AND OR PUSH1 0x1 DUP3 ADD SSTORE JUMPDEST PUSH1 0x40 DUP3 ADD MLOAD DUP1 MLOAD SWAP1 PUSH1 0x1 PUSH1 0x1 PUSH1 0x40 SHL SUB DUP3 GT PUSH2 0xA98 JUMPI PUSH2 0x2048 DUP3 PUSH2 0x203F PUSH1 0x2 DUP7 ADD SLOAD PUSH2 0x257C JUMP JUMPDEST PUSH1 0x2 DUP7 ADD PUSH2 0x270B JUMP JUMPDEST PUSH1 0x20 SWAP1 PUSH1 0x1F DUP4 GT PUSH1 0x1 EQ PUSH2 0x21EC JUMPI SWAP2 DUP1 PUSH1 0xE0 SWAP5 SWAP3 PUSH1 0x5 SWAP5 PUSH1 0x0 SWAP3 PUSH2 0x21E1 JUMPI JUMPDEST POP POP DUP2 PUSH1 0x1 SHL SWAP2 PUSH1 0x0 NOT SWAP1 PUSH1 0x3 SHL SHR NOT AND OR PUSH1 0x2 DUP3 ADD SSTORE JUMPDEST PUSH1 0x60 DUP5 ADD MLOAD PUSH1 0x3 DUP3 ADD SSTORE PUSH1 0x4 DUP2 ADD PUSH1 0x80 DUP6 ADD MLOAD ISZERO ISZERO DUP2 SLOAD PUSH2 0xFF00 PUSH1 0xA0 DUP9 ADD MLOAD ISZERO ISZERO PUSH1 0x8 SHL AND SWAP1 PUSH1 0xFF PUSH3 0xFF0000 PUSH1 0xC0 DUP11 ADD MLOAD ISZERO ISZERO PUSH1 0x10 SHL AND SWAP4 AND SWAP1 PUSH3 0xFFFFFF NOT AND OR OR OR SWAP1 SSTORE ADD SWAP2 ADD MLOAD PUSH1 0x20 DUP2 MLOAD SWAP2 PUSH2 0x20D7 DUP4 DUP6 PUSH2 0x2750 JUMP JUMPDEST ADD SWAP2 PUSH1 0x0 MSTORE PUSH1 0x20 PUSH1 0x0 KECCAK256 PUSH1 0x0 SWAP3 JUMPDEST DUP3 DUP5 LT PUSH2 0x20FE JUMPI POP POP POP POP PUSH2 0x20F9 SWAP1 PUSH2 0x27E0 JUMP JUMPDEST PUSH2 0x1EA6 JUMP JUMPDEST DUP1 MLOAD DUP1 MLOAD SWAP1 PUSH1 0x1 PUSH1 0x1 PUSH1 0x40 SHL SUB DUP3 GT PUSH2 0xA98 JUMPI PUSH2 0x2125 DUP3 PUSH2 0x211F DUP7 SLOAD PUSH2 0x257C JUMP JUMPDEST DUP7 PUSH2 0x270B JUMP JUMPDEST PUSH1 0x20 SWAP1 PUSH1 0x1F DUP4 GT PUSH1 0x1 EQ PUSH2 0x2171 JUMPI SWAP3 DUP3 PUSH1 0x1 SWAP5 SWAP4 PUSH1 0x20 SWAP4 DUP7 SWAP6 PUSH1 0x0 SWAP3 PUSH2 0x2166 JUMPI JUMPDEST POP POP PUSH1 0x0 NOT PUSH1 0x3 DUP4 SWAP1 SHL SHR NOT AND SWAP1 DUP5 SHL OR DUP6 SSTORE JUMPDEST ADD SWAP3 ADD SWAP4 ADD SWAP3 SWAP1 PUSH2 0x20E5 JUMP JUMPDEST ADD MLOAD SWAP1 POP DUP12 DUP1 PUSH2 0x2146 JUMP JUMPDEST SWAP1 DUP5 PUSH1 0x0 MSTORE PUSH1 0x20 PUSH1 0x0 KECCAK256 SWAP2 PUSH1 0x0 JUMPDEST PUSH1 0x1F NOT DUP6 AND DUP2 LT PUSH2 0x21C9 JUMPI POP DUP4 PUSH1 0x20 SWAP4 PUSH1 0x1 SWAP7 SWAP4 DUP8 SWAP7 SWAP4 DUP8 SWAP5 PUSH1 0x1F NOT DUP2 AND LT PUSH2 0x21B0 JUMPI JUMPDEST POP POP POP DUP2 SHL ADD DUP6 SSTORE PUSH2 0x215A JUMP JUMPDEST ADD MLOAD PUSH1 0x0 NOT PUSH1 0xF8 DUP5 PUSH1 0x3 SHL AND SHR NOT AND SWAP1 SSTORE DUP12 DUP1 DUP1 PUSH2 0x21A3 JUMP JUMPDEST SWAP2 SWAP3 PUSH1 0x20 PUSH1 0x1 DUP2 SWAP3 DUP7 DUP6 ADD MLOAD DUP2 SSTORE ADD SWAP5 ADD SWAP3 ADD PUSH2 0x217F JUMP JUMPDEST ADD MLOAD SWAP1 POP DUP9 DUP1 PUSH2 0x2067 JUMP JUMPDEST SWAP1 PUSH1 0x2 DUP5 ADD PUSH1 0x0 MSTORE PUSH1 0x20 PUSH1 0x0 KECCAK256 SWAP2 PUSH1 0x0 JUMPDEST PUSH1 0x1F NOT DUP6 AND DUP2 LT PUSH2 0x2249 JUMPI POP SWAP3 PUSH1 0xE0 SWAP5 SWAP3 PUSH1 0x1 SWAP3 PUSH1 0x5 SWAP6 DUP4 PUSH1 0x1F NOT DUP2 AND LT PUSH2 0x2230 JUMPI JUMPDEST POP POP POP DUP2 SHL ADD PUSH1 0x2 DUP3 ADD SSTORE PUSH2 0x207F JUMP JUMPDEST ADD MLOAD PUSH1 0x0 NOT PUSH1 0xF8 DUP5 PUSH1 0x3 SHL AND SHR NOT AND SWAP1 SSTORE DUP9 DUP1 DUP1 PUSH2 0x2220 JUMP JUMPDEST SWAP2 SWAP3 PUSH1 0x20 PUSH1 0x1 DUP2 SWAP3 DUP7 DUP6 ADD MLOAD DUP2 SSTORE ADD SWAP5 ADD SWAP3 ADD PUSH2 0x21FD JUMP JUMPDEST ADD MLOAD SWAP1 POP DUP7 DUP1 PUSH2 0x2000 JUMP JUMPDEST SWAP3 POP PUSH1 0x1 DUP5 ADD PUSH1 0x0 MSTORE PUSH1 0x20 PUSH1 0x0 KECCAK256 SWAP1 PUSH1 0x0 SWAP4 JUMPDEST PUSH1 0x1F NOT DUP5 AND DUP6 LT PUSH2 0x22C3 JUMPI PUSH1 0x1 SWAP5 POP DUP4 PUSH1 0x1F NOT DUP2 AND LT PUSH2 0x22AA JUMPI JUMPDEST POP POP POP DUP2 SHL ADD PUSH1 0x1 DUP3 ADD SSTORE PUSH2 0x2018 JUMP JUMPDEST ADD MLOAD PUSH1 0x0 NOT PUSH1 0xF8 DUP5 PUSH1 0x3 SHL AND SHR NOT AND SWAP1 SSTORE DUP7 DUP1 DUP1 PUSH2 0x229A JUMP JUMPDEST DUP2 DUP2 ADD MLOAD DUP4 SSTORE PUSH1 0x20 SWAP5 DUP6 ADD SWAP5 PUSH1 0x1 SWAP1 SWAP4 ADD SWAP3 SWAP1 SWAP2 ADD SWAP1 PUSH2 0x227F JUMP JUMPDEST POP PUSH1 0x1 ADD SLOAD PUSH1 0x40 DUP1 MLOAD PUSH1 0x24 CALLDATALOAD DUP2 MSTORE PUSH1 0x1 PUSH1 0x1 PUSH1 0xA0 SHL SUB SWAP1 SWAP3 AND PUSH1 0x20 DUP4 ADD MSTORE PUSH1 0x4 CALLDATALOAD SWAP2 PUSH32 0x673E1C13E88CAE277C1B4ADFC9DA511C2F5672DBB51FBC06510CB0188BE365D0 SWAP2 SWAP1 LOG2 JUMPDEST PUSH1 0x1 JUMPDEST ISZERO PUSH2 0x232F JUMPI STOP JUMPDEST PUSH1 0x40 MLOAD PUSH3 0x461BCD PUSH1 0xE5 SHL DUP2 MSTORE PUSH1 0x20 PUSH1 0x4 DUP3 ADD MSTORE PUSH1 0x15 PUSH1 0x24 DUP3 ADD MSTORE PUSH21 0x141C9BDC1BDCD85B081251081B9BDD08199BDD5B99 PUSH1 0x5A SHL PUSH1 0x44 DUP3 ADD MSTORE PUSH1 0x64 SWAP1 REVERT JUMPDEST PUSH1 0x40 MLOAD PUSH3 0x461BCD PUSH1 0xE5 SHL DUP2 MSTORE PUSH1 0x20 PUSH1 0x4 DUP3 ADD MSTORE PUSH1 0x10 PUSH1 0x24 DUP3 ADD MSTORE PUSH16 0x105B1C9958591E481CD95B1958DD1959 PUSH1 0x82 SHL PUSH1 0x44 DUP3 ADD MSTORE PUSH1 0x64 SWAP1 REVERT JUMPDEST PUSH1 0x5 SWAP3 POP PUSH1 0x1 SWAP2 POP PUSH1 0xFF NOT AND OR SWAP2 ADD SSTORE PUSH2 0x2325 JUMP JUMPDEST PUSH1 0x40 MLOAD PUSH3 0x461BCD PUSH1 0xE5 SHL DUP2 MSTORE PUSH1 0x20 PUSH1 0x4 DUP3 ADD MSTORE PUSH1 0x11 PUSH1 0x24 DUP3 ADD MSTORE PUSH17 0x105B1C9958591E48195D985B1D585D1959 PUSH1 0x7A SHL PUSH1 0x44 DUP3 ADD MSTORE PUSH1 0x64 SWAP1 REVERT JUMPDEST POP POP SWAP1 POP PUSH2 0x2328 JUMP JUMPDEST PUSH1 0x40 SWAP1 PUSH1 0x3 NOT ADD SLT PUSH2 0x328 JUMPI PUSH1 0x4 CALLDATALOAD SWAP1 PUSH1 0x24 CALLDATALOAD SWAP1 JUMP JUMPDEST DUP1 SLOAD DUP3 LT ISZERO PUSH2 0x242D JUMPI PUSH1 0x0 MSTORE PUSH1 0x6 PUSH1 0x20 PUSH1 0x0 KECCAK256 SWAP2 MUL ADD SWAP1 PUSH1 0x0 SWAP1 JUMP JUMPDEST PUSH4 0x4E487B71 PUSH1 0xE0 SHL PUSH1 0x0 MSTORE PUSH1 0x32 PUSH1 0x4 MSTORE PUSH1 0x24 PUSH1 0x0 REVERT JUMPDEST SWAP1 PUSH1 0x1F DUP1 NOT SWAP2 ADD AND DUP2 ADD SWAP1 DUP2 LT PUSH1 0x1 PUSH1 0x1 PUSH1 0x40 SHL SUB DUP3 GT OR PUSH2 0xA98 JUMPI PUSH1 0x40 MSTORE JUMP JUMPDEST PUSH1 0x1 PUSH1 0x1 PUSH1 0x40 SHL SUB DUP2 GT PUSH2 0xA98 JUMPI PUSH1 0x1F ADD PUSH1 0x1F NOT AND PUSH1 0x20 ADD SWAP1 JUMP JUMPDEST DUP2 PUSH1 0x1F DUP3 ADD SLT ISZERO PUSH2 0x328 JUMPI DUP1 CALLDATALOAD SWAP1 PUSH2 0x2496 DUP3 PUSH2 0x2464 JUMP JUMPDEST SWAP3 PUSH2 0x24A4 PUSH1 0x40 MLOAD SWAP5 DUP6 PUSH2 0x2443 JUMP JUMPDEST DUP3 DUP5 MSTORE PUSH1 0x20 DUP4 DUP4 ADD ADD GT PUSH2 0x328 JUMPI DUP2 PUSH1 0x0 SWAP3 PUSH1 0x20 DUP1 SWAP4 ADD DUP4 DUP7 ADD CALLDATACOPY DUP4 ADD ADD MSTORE SWAP1 JUMP JUMPDEST PUSH1 0x1 PUSH1 0x1 PUSH1 0x40 SHL SUB DUP2 GT PUSH2 0xA98 JUMPI PUSH1 0x5 SHL PUSH1 0x20 ADD SWAP1 JUMP JUMPDEST SWAP3 SWAP2 SWAP1 SWAP3 PUSH2 0x24EA DUP5 PUSH2 0x24C6 JUMP JUMPDEST SWAP2 PUSH2 0x24F8 PUSH1 0x40 MLOAD SWAP4 DUP5 PUSH2 0x2443 JUMP JUMPDEST DUP3 SWAP5 DUP1 DUP5 MSTORE PUSH1 0x20 DUP1 SWAP5 ADD SWAP1 PUSH1 0x5 SHL DUP4 ADD SWAP3 DUP3 DUP5 GT PUSH2 0x328 JUMPI DUP1 SWAP2 JUMPDEST DUP5 DUP4 LT PUSH2 0x2522 JUMPI POP POP POP POP POP POP JUMP JUMPDEST DUP3 CALLDATALOAD PUSH1 0x1 PUSH1 0x1 PUSH1 0x40 SHL SUB DUP2 GT PUSH2 0x328 JUMPI DUP7 SWAP2 PUSH2 0x2541 DUP7 DUP5 SWAP4 DUP7 ADD PUSH2 0x247F JUMP JUMPDEST DUP2 MSTORE ADD SWAP3 ADD SWAP2 PUSH2 0x2513 JUMP JUMPDEST SWAP2 DUP2 PUSH1 0x1F DUP5 ADD SLT ISZERO PUSH2 0x328 JUMPI DUP3 CALLDATALOAD SWAP2 PUSH1 0x1 PUSH1 0x1 PUSH1 0x40 SHL SUB DUP4 GT PUSH2 0x328 JUMPI PUSH1 0x20 DUP1 DUP6 ADD SWAP5 DUP5 PUSH1 0x5 SHL ADD ADD GT PUSH2 0x328 JUMPI JUMP JUMPDEST SWAP1 PUSH1 0x1 DUP3 DUP2 SHR SWAP3 AND DUP1 ISZERO PUSH2 0x25AC JUMPI JUMPDEST PUSH1 0x20 DUP4 LT EQ PUSH2 0x2596 JUMPI JUMP JUMPDEST PUSH4 0x4E487B71 PUSH1 0xE0 SHL PUSH1 0x0 MSTORE PUSH1 0x22 PUSH1 0x4 MSTORE PUSH1 0x24 PUSH1 0x0 REVERT JUMPDEST SWAP2 PUSH1 0x7F AND SWAP2 PUSH2 0x258B JUMP JUMPDEST SWAP1 PUSH1 0x40 MLOAD SWAP2 DUP3 PUSH1 0x0 DUP3 SLOAD SWAP3 PUSH2 0x25CA DUP5 PUSH2 0x257C JUMP JUMPDEST SWAP1 DUP2 DUP5 MSTORE PUSH1 0x1 SWAP5 DUP6 DUP2 AND SWAP1 DUP2 PUSH1 0x0 EQ PUSH2 0x2639 JUMPI POP PUSH1 0x1 EQ PUSH2 0x25F6 JUMPI JUMPDEST POP POP PUSH2 0x25F4 SWAP3 POP SUB DUP4 PUSH2 0x2443 JUMP JUMPDEST JUMP JUMPDEST SWAP1 SWAP4 SWAP2 POP PUSH1 0x0 MSTORE PUSH1 0x20 SWAP1 DUP2 PUSH1 0x0 KECCAK256 SWAP4 PUSH1 0x0 SWAP2 JUMPDEST DUP2 DUP4 LT PUSH2 0x2621 JUMPI POP POP PUSH2 0x25F4 SWAP4 POP DUP3 ADD ADD CODESIZE DUP1 PUSH2 0x25E6 JUMP JUMPDEST DUP6 SLOAD DUP9 DUP5 ADD DUP6 ADD MSTORE SWAP5 DUP6 ADD SWAP5 DUP8 SWAP5 POP SWAP2 DUP4 ADD SWAP2 PUSH2 0x2609 JUMP JUMPDEST SWAP2 POP POP PUSH2 0x25F4 SWAP5 POP PUSH1 0x20 SWAP3 POP PUSH1 0xFF NOT AND DUP3 DUP5 ADD MSTORE ISZERO ISZERO PUSH1 0x5 SHL DUP3 ADD ADD CODESIZE DUP1 PUSH2 0x25E6 JUMP JUMPDEST SWAP2 SWAP1 DUP3 MLOAD SWAP3 DUP4 DUP3 MSTORE PUSH1 0x0 JUMPDEST DUP5 DUP2 LT PUSH2 0x2688 JUMPI POP POP DUP3 PUSH1 0x0 PUSH1 0x20 DUP1 SWAP5 SWAP6 DUP5 ADD ADD MSTORE PUSH1 0x1F DUP1 NOT SWAP2 ADD AND ADD ADD SWAP1 JUMP JUMPDEST PUSH1 0x20 DUP2 DUP4 ADD DUP2 ADD MLOAD DUP5 DUP4 ADD DUP3 ADD MSTORE ADD PUSH2 0x2667 JUMP JUMPDEST PUSH1 0x0 SLOAD PUSH1 0x1 PUSH1 0x1 PUSH1 0xA0 SHL SUB AND CALLER SUB PUSH2 0x26B0 JUMPI JUMP JUMPDEST PUSH1 0x64 PUSH1 0x40 MLOAD PUSH3 0x461BCD PUSH1 0xE5 SHL DUP2 MSTORE PUSH1 0x20 PUSH1 0x4 DUP3 ADD MSTORE PUSH1 0x20 PUSH1 0x24 DUP3 ADD MSTORE PUSH32 0x4F776E61626C653A2063616C6C6572206973206E6F7420746865206F776E6572 PUSH1 0x44 DUP3 ADD MSTORE REVERT JUMPDEST DUP2 DUP2 LT PUSH2 0x26FF JUMPI POP POP JUMP JUMPDEST PUSH1 0x0 DUP2 SSTORE PUSH1 0x1 ADD PUSH2 0x26F4 JUMP JUMPDEST SWAP2 SWAP1 PUSH1 0x1F DUP2 GT PUSH2 0x271A JUMPI POP POP POP JUMP JUMPDEST PUSH2 0x25F4 SWAP3 PUSH1 0x0 MSTORE PUSH1 0x20 PUSH1 0x0 KECCAK256 SWAP1 PUSH1 0x20 PUSH1 0x1F DUP5 ADD PUSH1 0x5 SHR DUP4 ADD SWAP4 LT PUSH2 0x2746 JUMPI JUMPDEST PUSH1 0x1F ADD PUSH1 0x5 SHR ADD SWAP1 PUSH2 0x26F4 JUMP JUMPDEST SWAP1 SWAP2 POP DUP2 SWAP1 PUSH2 0x2739 JUMP JUMPDEST PUSH1 0x1 PUSH1 0x40 SHL DUP3 GT PUSH2 0xA98 JUMPI DUP1 SLOAD SWAP2 DUP1 DUP3 SSTORE DUP3 DUP2 LT PUSH2 0x276D JUMPI POP POP POP JUMP JUMPDEST PUSH1 0x0 SWAP2 DUP3 MSTORE PUSH1 0x20 SWAP1 DUP2 DUP4 KECCAK256 SWAP4 DUP5 ADD SWAP4 ADD JUMPDEST DUP4 DUP2 LT PUSH2 0x278B JUMPI POP POP POP POP JUMP JUMPDEST DUP1 DUP4 PUSH2 0x2799 PUSH1 0x1 SWAP4 SLOAD PUSH2 0x257C JUMP JUMPDEST DUP1 PUSH2 0x27A7 JUMPI JUMPDEST POP POP ADD PUSH2 0x277E JUMP JUMPDEST PUSH1 0x1F DUP1 DUP3 GT DUP6 EQ PUSH2 0x27BE JUMPI POP POP DUP2 SSTORE JUMPDEST DUP4 CODESIZE PUSH2 0x279F JUMP JUMPDEST PUSH2 0x27D7 SWAP1 DUP5 DUP5 MSTORE DUP7 DUP5 KECCAK256 SWAP3 ADD PUSH1 0x5 SHR DUP3 ADD DUP6 DUP4 ADD PUSH2 0x26F4 JUMP JUMPDEST DUP2 DUP4 SSTORE SSTORE PUSH2 0x27B7 JUMP JUMPDEST PUSH1 0x0 NOT DUP2 EQ PUSH2 0xCF8 JUMPI PUSH1 0x1 ADD SWAP1 JUMP JUMPDEST ISZERO PUSH2 0x27F6 JUMPI JUMP JUMPDEST PUSH1 0x40 MLOAD PUSH3 0x461BCD PUSH1 0xE5 SHL DUP2 MSTORE PUSH1 0x20 PUSH1 0x4 DUP3 ADD MSTORE PUSH1 0xD PUSH1 0x24 DUP3 ADD MSTORE PUSH13 0x2737BA103B30B634B230BA37B9 PUSH1 0x99 SHL PUSH1 0x44 DUP3 ADD MSTORE PUSH1 0x64 SWAP1 REVERT JUMPDEST DUP1 SLOAD DUP3 LT ISZERO PUSH2 0x242D JUMPI PUSH1 0x0 MSTORE PUSH1 0x20 PUSH1 0x0 KECCAK256 ADD SWAP1 PUSH1 0x0 SWAP1 JUMP JUMPDEST PUSH1 0x2 PUSH1 0x1 SLOAD EQ PUSH2 0x2854 JUMPI PUSH1 0x2 PUSH1 0x1 SSTORE JUMP JUMPDEST PUSH1 0x40 MLOAD PUSH3 0x461BCD PUSH1 0xE5 SHL DUP2 MSTORE PUSH1 0x20 PUSH1 0x4 DUP3 ADD MSTORE PUSH1 0x1F PUSH1 0x24 DUP3 ADD MSTORE PUSH32 0x5265656E7472616E637947756172643A207265656E7472616E742063616C6C00 PUSH1 0x44 DUP3 ADD MSTORE PUSH1 0x64 SWAP1 REVERT INVALID LOG2 PUSH5 0x6970667358 0x22 SLT KECCAK256 PUSH17 0x16D691D410BABB3A1B716651F046910877 EXTCODEHASH 0xAB 0xCE 0xD7 0xD6 0xE2 DUP4 0xDE 0xDA 0xEB PUSH16 0x6F660464736F6C634300081400330000 "},"methodIdentifiers":{"acceptMilestone(uint256,uint256)":"93eb1026","approveProgram(uint256)":"b0d456ac","createEduProgram(string,uint256,string,uint256,uint256,address,string,string,string[])":"919af1da","eduPrograms(uint256)":"d613fd24","getFee()":"ced72f87","nextApplicationId(uint256)":"a1a57296","nextMilestoneId(uint256)":"83472f5b","nextProgramId()":"ba71b330","owner()":"8da5cb5b","programApplications(uint256,uint256)":"7d5cae03","programMilestones(uint256,uint256)":"d201593f","reclaimFunds(uint256)":"f9f161a8","renounceOwnership()":"715018a6","selectApplication(uint256,uint256,bool)":"4942ec02","selectedApplicationIndex(uint256)":"f6c78263","setFee(uint256)":"69fe0e2d","submitApplication(uint256,string[],string[],uint256[])":"a112ed4e","submitMilestone(uint256,uint256,string[])":"9e57d589","transferOwnership(address)":"f2fde38b","updateProgram(uint256,uint256,uint256,uint256,address)":"89001eb1"}}}}}