{"contracts/LdEduProgram.sol":{"LdEduProgram":{"abi":[{"inputs":[{"internalType":"address","name":"initialOwner","type":"address"}],"stateMutability":"nonpayable","type":"constructor"},{"anonymous":false,"inputs":[{"indexed":true,"internalType":"uint256","name":"programId","type":"uint256"},{"indexed":false,"internalType":"uint256","name":"applicationId","type":"uint256"},{"indexed":false,"internalType":"address","name":"builder","type":"address"},{"indexed":false,"internalType":"uint256[]","name":"milestoneIds","type":"uint256[]"}],"name":"ApplicationSelected","type":"event"},{"anonymous":false,"inputs":[{"indexed":false,"internalType":"uint256","name":"newFee","type":"uint256"}],"name":"FeeUpdated","type":"event"},{"anonymous":false,"inputs":[{"indexed":true,"internalType":"uint256","name":"id","type":"uint256"},{"indexed":false,"internalType":"address","name":"maker","type":"address"},{"indexed":false,"internalType":"uint256","name":"amount","type":"uint256"}],"name":"FundsReclaimed","type":"event"},{"anonymous":false,"inputs":[{"indexed":true,"internalType":"uint256","name":"id","type":"uint256"},{"indexed":false,"internalType":"uint256","name":"milestoneId","type":"uint256"},{"indexed":false,"internalType":"uint256","name":"reward","type":"uint256"}],"name":"MilestoneAccepted","type":"event"},{"anonymous":false,"inputs":[{"indexed":true,"internalType":"uint256","name":"id","type":"uint256"},{"indexed":false,"internalType":"uint256","name":"milestoneId","type":"uint256"}],"name":"MilestoneRejected","type":"event"},{"anonymous":false,"inputs":[{"indexed":true,"internalType":"uint256","name":"id","type":"uint256"},{"indexed":false,"internalType":"uint256","name":"milestoneId","type":"uint256"},{"indexed":false,"internalType":"string[]","name":"links","type":"string[]"}],"name":"MilestoneSubmitted","type":"event"},{"anonymous":false,"inputs":[{"indexed":true,"internalType":"address","name":"previousOwner","type":"address"},{"indexed":true,"internalType":"address","name":"newOwner","type":"address"}],"name":"OwnershipTransferred","type":"event"},{"anonymous":false,"inputs":[{"indexed":true,"internalType":"uint256","name":"id","type":"uint256"}],"name":"ProgramApplied","type":"event"},{"anonymous":false,"inputs":[{"indexed":true,"internalType":"uint256","name":"programId","type":"uint256"}],"name":"ProgramApproved","type":"event"},{"anonymous":false,"inputs":[{"indexed":true,"internalType":"uint256","name":"id","type":"uint256"},{"indexed":false,"internalType":"address","name":"builder","type":"address"},{"indexed":false,"internalType":"uint256","name":"amount","type":"uint256"}],"name":"ProgramClaimed","type":"event"},{"anonymous":false,"inputs":[{"indexed":true,"internalType":"uint256","name":"id","type":"uint256"},{"indexed":true,"internalType":"address","name":"maker","type":"address"},{"indexed":true,"internalType":"address","name":"validator","type":"address"},{"indexed":false,"internalType":"uint256","name":"price","type":"uint256"}],"name":"ProgramCreated","type":"event"},{"anonymous":false,"inputs":[{"indexed":false,"internalType":"uint256","name":"programId","type":"uint256"},{"indexed":false,"internalType":"uint256","name":"price","type":"uint256"},{"indexed":false,"internalType":"uint256","name":"startTime","type":"uint256"},{"indexed":false,"internalType":"uint256","name":"endTime","type":"uint256"},{"indexed":false,"internalType":"address","name":"newValidator","type":"address"}],"name":"ProgramEdited","type":"event"},{"inputs":[{"internalType":"uint256","name":"programId","type":"uint256"},{"internalType":"uint256","name":"milestoneId","type":"uint256"}],"name":"acceptMilestone","outputs":[],"stateMutability":"nonpayable","type":"function"},{"inputs":[{"internalType":"uint256","name":"programId","type":"uint256"}],"name":"approveProgram","outputs":[],"stateMutability":"nonpayable","type":"function"},{"inputs":[{"internalType":"string","name":"_name","type":"string"},{"internalType":"uint256","name":"_price","type":"uint256"},{"internalType":"string","name":"_keywords","type":"string"},{"internalType":"uint256","name":"_startTime","type":"uint256"},{"internalType":"uint256","name":"_endTime","type":"uint256"},{"internalType":"address","name":"_validator","type":"address"},{"internalType":"string","name":"_summary","type":"string"},{"internalType":"string","name":"_description","type":"string"},{"internalType":"string[]","name":"_links","type":"string[]"}],"name":"createEduProgram","outputs":[],"stateMutability":"payable","type":"function"},{"inputs":[{"internalType":"uint256","name":"","type":"uint256"}],"name":"eduPrograms","outputs":[{"internalType":"uint256","name":"id","type":"uint256"},{"internalType":"string","name":"name","type":"string"},{"internalType":"string","name":"keywords","type":"string"},{"internalType":"uint256","name":"price","type":"uint256"},{"internalType":"uint256","name":"startTime","type":"uint256"},{"internalType":"uint256","name":"endTime","type":"uint256"},{"internalType":"string","name":"summary","type":"string"},{"internalType":"string","name":"description","type":"string"},{"internalType":"address","name":"maker","type":"address"},{"internalType":"address","name":"validator","type":"address"},{"internalType":"bool","name":"approve","type":"bool"},{"internalType":"bool","name":"claimed","type":"bool"},{"internalType":"address","name":"builder","type":"address"}],"stateMutability":"view","type":"function"},{"inputs":[],"name":"getFee","outputs":[{"internalType":"uint256","name":"","type":"uint256"}],"stateMutability":"view","type":"function"},{"inputs":[{"internalType":"uint256","name":"programId","type":"uint256"}],"name":"getMilestones","outputs":[{"components":[{"internalType":"uint256","name":"id","type":"uint256"},{"internalType":"string","name":"name","type":"string"},{"internalType":"string","name":"description","type":"string"},{"internalType":"uint256","name":"price","type":"uint256"},{"internalType":"enum LdEduProgram.MilestoneStatus","name":"status","type":"uint8"},{"internalType":"string[]","name":"links","type":"string[]"}],"internalType":"struct LdEduProgram.Milestone[]","name":"","type":"tuple[]"}],"stateMutability":"view","type":"function"},{"inputs":[{"internalType":"uint256","name":"","type":"uint256"},{"internalType":"uint256","name":"","type":"uint256"}],"name":"milestoneIds","outputs":[{"internalType":"uint256","name":"","type":"uint256"}],"stateMutability":"view","type":"function"},{"inputs":[{"internalType":"uint256","name":"","type":"uint256"}],"name":"nextApplicationId","outputs":[{"internalType":"uint256","name":"","type":"uint256"}],"stateMutability":"view","type":"function"},{"inputs":[{"internalType":"uint256","name":"","type":"uint256"}],"name":"nextMilestoneId","outputs":[{"internalType":"uint256","name":"","type":"uint256"}],"stateMutability":"view","type":"function"},{"inputs":[],"name":"nextProgramId","outputs":[{"internalType":"uint256","name":"","type":"uint256"}],"stateMutability":"view","type":"function"},{"inputs":[],"name":"owner","outputs":[{"internalType":"address","name":"","type":"address"}],"stateMutability":"view","type":"function"},{"inputs":[{"internalType":"uint256","name":"","type":"uint256"},{"internalType":"uint256","name":"","type":"uint256"}],"name":"programApplications","outputs":[{"internalType":"uint256","name":"id","type":"uint256"},{"internalType":"address","name":"builder","type":"address"},{"internalType":"enum LdEduProgram.ApplicationStatus","name":"status","type":"uint8"}],"stateMutability":"view","type":"function"},{"inputs":[{"internalType":"uint256","name":"","type":"uint256"},{"internalType":"uint256","name":"","type":"uint256"}],"name":"programMilestones","outputs":[{"internalType":"uint256","name":"id","type":"uint256"},{"internalType":"string","name":"name","type":"string"},{"internalType":"string","name":"description","type":"string"},{"internalType":"uint256","name":"price","type":"uint256"},{"internalType":"enum LdEduProgram.MilestoneStatus","name":"status","type":"uint8"}],"stateMutability":"view","type":"function"},{"inputs":[{"internalType":"uint256","name":"programId","type":"uint256"}],"name":"reclaimFunds","outputs":[],"stateMutability":"nonpayable","type":"function"},{"inputs":[{"internalType":"uint256","name":"programId","type":"uint256"},{"internalType":"uint256","name":"milestoneId","type":"uint256"}],"name":"rejectMilestone","outputs":[],"stateMutability":"nonpayable","type":"function"},{"inputs":[],"name":"renounceOwnership","outputs":[],"stateMutability":"nonpayable","type":"function"},{"inputs":[{"internalType":"uint256","name":"programId","type":"uint256"},{"internalType":"uint256","name":"applicationId","type":"uint256"},{"internalType":"bool","name":"isSelected","type":"bool"}],"name":"selectApplication","outputs":[],"stateMutability":"nonpayable","type":"function"},{"inputs":[{"internalType":"uint256","name":"","type":"uint256"}],"name":"selectedApplicationIndex","outputs":[{"internalType":"uint256","name":"","type":"uint256"}],"stateMutability":"view","type":"function"},{"inputs":[{"internalType":"uint256","name":"_fee","type":"uint256"}],"name":"setFee","outputs":[],"stateMutability":"nonpayable","type":"function"},{"inputs":[{"internalType":"uint256","name":"programId","type":"uint256"},{"internalType":"string[]","name":"names","type":"string[]"},{"internalType":"string[]","name":"descriptions","type":"string[]"},{"internalType":"uint256[]","name":"prices","type":"uint256[]"}],"name":"submitApplication","outputs":[],"stateMutability":"nonpayable","type":"function"},{"inputs":[{"internalType":"uint256","name":"programId","type":"uint256"},{"internalType":"uint256","name":"milestoneId","type":"uint256"},{"internalType":"string[]","name":"links","type":"string[]"}],"name":"submitMilestone","outputs":[],"stateMutability":"nonpayable","type":"function"},{"inputs":[{"internalType":"address","name":"newOwner","type":"address"}],"name":"transferOwnership","outputs":[],"stateMutability":"nonpayable","type":"function"},{"inputs":[{"internalType":"uint256","name":"programId","type":"uint256"},{"internalType":"uint256","name":"price","type":"uint256"},{"internalType":"uint256","name":"startTime","type":"uint256"},{"internalType":"uint256","name":"endTime","type":"uint256"},{"internalType":"address","name":"newValidator","type":"address"}],"name":"updateProgram","outputs":[],"stateMutability":"nonpayable","type":"function"}],"evm":{"bytecode":{"linkReferences":{},"object":"6080346200007e57601f62002c8f38819003918201601f19168301916001600160401b0383118484101762000083578084926020946040528339810103126200007e57516001600160a01b03811681036200007e576200006e90620000643362000099565b6001805562000099565b604051612bae9081620000e18239f35b600080fd5b634e487b7160e01b600052604160045260246000fd5b600080546001600160a01b039283166001600160a01b03198216811783559216907f8be0079c531659141344cd1fd0a4f28419497f9722a3daafe3b4186f6b6457e09080a356fe6080604052600436101561001257600080fd5b60003560e01c80633abe6bd71461254357806342c549c0146122565780634942ec0214611b81578063544aabd014611b4257806369fe0e2d14611af6578063715018a614611a9d5780637d5cae0314611a3757806383472f5b14611a0b57806389001eb1146118a85780638da5cb5b1461187f578063919af1da146110c657806393eb102614610f455780639e57d58914610c07578063a112ed4e14610672578063a1a5729614610646578063b0d456ac146105b1578063ba71b33014610593578063ced72f8714610575578063d201593f146104e0578063d613fd24146103c3578063f2fde38b146102fd578063f6c78263146102d15763f9f161a81461011957600080fd5b346102cc5760203660031901126102cc57600435610135612b22565b8060005260026020526040600020600a810190815461015a60ff8260a01c1615612a92565b60ff8160a81c1661029557600582015442111561025857600982019260018060a01b0391828554169384330361021b5760ff60a81b19909116600160a81b1790915560030180549092600091829182918291828215610212575bf115610206579154905460408051929093166001600160a01b0316825260208201527fd37c0b9c7560299a7c963d03165111d712663805228e5ffca03d540c5d6e410e91819081015b0390a260018055005b6040513d6000823e3d90fd5b506108fc6101b4565b60405162461bcd60e51b81526020600482015260156024820152742737ba103a343290383937b3b930b69036b0b5b2b960591b6044820152606490fd5b60405162461bcd60e51b8152602060048201526015602482015274141c9bd9dc985b481b9bdd08195b991959081e595d605a1b6044820152606490fd5b60405162461bcd60e51b815260206004820152600f60248201526e105b1c9958591e4818db185a5b5959608a1b6044820152606490fd5b600080fd5b346102cc5760203660031901126102cc5760043560005260066020526020604060002054604051908152f35b346102cc5760203660031901126102cc576004356001600160a01b03818116918290036102cc5761032c6128c7565b811561036f57600054826001600160601b0360a01b821617600055167f8be0079c531659141344cd1fd0a4f28419497f9722a3daafe3b4186f6b6457e0600080a3005b60405162461bcd60e51b815260206004820152602660248201527f4f776e61626c653a206e6577206f776e657220697320746865207a65726f206160448201526564647265737360d01b6064820152608490fd5b346102cc5760203660031901126102cc57600435600052600260205260406000208054600182016103f390612821565b9161040060028201612821565b60038201546004830154600584015490939161041e60068401612821565b61042a60078501612821565b91600160a01b6001900393846009870154169785600a88015497600b015416976040519b8c9b8c528b6101a06020819201528c01610467916125fc565b8b810360408d0152610478916125fc565b9260608b015260808a015260a089015287810360c0890152610499916125fc565b86810360e08801526104aa916125fc565b9361010086015281166101208501528060a01c60ff16151561014085015260a81c60ff1615156101608401526101808301520390f35b346102cc576104ee366125e6565b9060005260046020526040600020906000526020526040600020805461051660018301612821565b9161057161052660028301612821565b61056160ff600460038601549501541691610553604051978897885260a0602089015260a08801906125fc565b9086820360408801526125fc565b926060850152608084019061263c565b0390f35b346102cc5760003660031901126102cc576020600a54604051908152f35b346102cc5760003660031901126102cc576020600954604051908152f35b346102cc5760203660031901126102cc576004356000818152600260205260409020600a810180549091610600906005906105f6336001600160a01b03861614612a1a565b0154421115612a56565b61061060ff8260a01c1615612a92565b60ff60a01b1916600160a01b1790557f3ca3d218d64ea45c582c714d84dcdfd87f8d3cb3a3449fe533c2cb6d614ab766600080a2005b346102cc5760203660031901126102cc5760043560005260076020526020604060002054604051908152f35b346102cc5760803660031901126102cc576004356024356001600160401b0381116102cc576106a59036906004016127b7565b90916044356001600160401b0381116102cc576106c69036906004016127b7565b906064356001600160401b0381116102cc576106e69036906004016127b7565b929091846000526002602052604060002061070660058201544210612a56565b82871480610bfe575b15610bc85760009060005b868110610b9257506003015403610b4e576107789185600052600760205261076c60406000209889549961074d8b612a0b565b90556040519861075c8a612693565b8a8a523360208b01523691612748565b60408801523691612748565b606085015261078682612731565b9161079460405193846126ae565b808352602083019060051b8201913683116102cc57905b828210610b3e575050506080830152600060a0830152600052600360205260406000208054600160401b811015610952576107eb91600182018155612677565b610b2857815181556001810160018060a01b036020840151166001600160601b0360a01b825416179055600281016040830151602081519161082d838561297b565b01916000526020600020916000905b828210610a4b5750505050600381016060830151602081519161085f838561297b565b01916000526020600020916000905b8282106109685750505050600481016080830151908151916001600160401b03831161095257600160401b8311610952576020908254848455808510610935575b500190600052602060002060005b83811061092157868660a060058801910151600381101561090b5760ff801983541691161790557f722325134a63ac150749cede63bb76d659fc9e4d78e10764480c6c79d283dc4f600080a2005b634e487b7160e01b600052602160045260246000fd5b6001906020845194019381840155016108bd565b61094c90846000528584600020918201910161291f565b876108af565b634e487b7160e01b600052604160045260246000fd5b80518051906001600160401b0382116109525761098f8261098988546127e7565b88612936565b602090601f83116001146109db5792826001949360209386956000926109d0575b5050600019600383901b1c191690841b1787555b0194019101909261086e565b015190508c806109b0565b908660005260206000209160005b601f1985168110610a33575083602093600196938796938794601f19811610610a1a575b505050811b0187556109c4565b015160001960f88460031b161c191690558c8080610a0d565b919260206001819286850151815501940192016109e9565b80518051906001600160401b03821161095257610a6c8261098988546127e7565b602090601f8311600114610ab8579282600194936020938695600092610aad575b5050600019600383901b1c191690841b1787555b0194019101909261083c565b015190508c80610a8d565b908660005260206000209160005b601f1985168110610b10575083602093600196938796938794601f19811610610af7575b505050811b018755610aa1565b015160001960f88460031b161c191690558c8080610aea565b91926020600181928685015181550194019201610ac6565b634e487b7160e01b600052600060045260246000fd5b81358152602091820191016107ab565b606460405162461bcd60e51b815260206004820152602060248201527f4d696c6573746f6e6520746f74616c20213d2070726f6772616d2070726963656044820152fd5b918260051b8601358101809111610bb257610bad9092612a0b565b61071a565b634e487b7160e01b600052601160045260246000fd5b60405162461bcd60e51b815260206004820152600e60248201526d092dce0eae840dad2e6dac2e8c6d60931b6044820152606490fd5b5084871461070f565b346102cc5760603660031901126102cc576004356024356001600160401b036044358181116102cc57610c3e9036906004016127b7565b84600052602060028152604060002060ff600a82015460a01c1615610f0957600b01546001600160a01b03163303610ed75785600052600481526040600020856000528152604060002092600484019384549460ff8616600481101561090b57610e9e57906005916001979695949397809660ff191617905501610cc2838261297b565b600090815281812090865b848210610d9c5750505081604051966040880190885260408389015252606086019460608360051b8801019581956000925b858410610d2f578a7fbaa1ee362891351add36bb95f60ba8e4031d4c60ece483917c0dc053d7b2c3d78b8b038ca2005b9091929394959697605f198a82030184528835601e19833603018112156102cc5782018681019190358481116102cc5780360383136102cc57878282808d96849695859652848401376000828201840152601f01601f191601019a01989796959190910193019190610cff565b8097939495969735601e19853603018112156102cc5784019081358981116102cc57803603878401136102cc57889181610de18993610ddb89546127e7565b89612936565b6000601f8211600114610e2f578382918697600093610e22575b505050600019600383901b1c191690841b1786555b01930191019091969594939296610ccd565b0101359050833880610dfb565b94601f1982169588600052846000209660005b818110610e83575091858798928589969510610e67575b50505050811b018655610e10565b60001960f88660031b161c19920101351690558f808581610e59565b838301870135895596909701968d968c969283019201610e42565b60405162461bcd60e51b8152600481018590526011602482015270105b1c9958591e481cdd589b5a5d1d1959607a1b6044820152606490fd5b6064906040519062461bcd60e51b82526004820152600b60248201526a2737ba10313ab4b63232b960a91b6044820152fd5b60405162461bcd60e51b8152600481018390526014602482015273141c9bd9dc985b481b9bdd08185c1c1c9bdd995960621b6044820152606490fd5b346102cc57610f53366125e6565b90610f5c612b22565b80600052602060028152604060002060018060a01b0390610f8482600a830154163314612a1a565b83600052600483526040600020856000528352604060002090600482019081549160ff8316600481101561090b57600b93610fc3600160029314612ae5565b60ff1916179055019060008080806003878754169501948554905af13d156110c1573d610fef816126cf565b90610ffd60405192836126ae565b81526000863d92013e5b1561108657937f27d841e82fb3b2469e89e27c70f2ec8597324e08569a13460e4dd8a1a3c0b10c604082977f7099040ff4abf6b015bd1004cbf11ec796c3d4abcaec3514db1c93599297d39f975480978351928352820152a25460408051929091166001600160a01b03168252602082019290925290819081016101fd565b60405162461bcd60e51b8152600481018590526013602482015272115512081d1c985b9cd9995c8819985a5b1959606a1b6044820152606490fd5b611007565b6101203660031901126102cc576004356001600160401b0381116102cc576110f29036906004016126ea565b6044356001600160401b0381116102cc576111119036906004016126ea565b9060a435906001600160a01b03821682036102cc5760c4356001600160401b0381116102cc576111459036906004016126ea565b60e4356001600160401b0381116102cc576111649036906004016126ea565b610104356001600160401b0381116102cc57366023820112156102cc57611195903690602481600401359101612748565b9160243534036118245760843560643510156117c5576009549560405194856101c08101106001600160401b036101c088011117610952576101c08601604052878652602086015260408501526024356060850152606435608085015260843560a085015260c084015260e08301526101008201523361012082015260018060a01b0382166101408201526000610160820152600061018082015260006101a082015282600052600260205260406000208151815560208201518051906001600160401b03821161095257819061127c8261127360018701546127e7565b60018701612936565b602090601f831160011461175357600092611748575b50508160011b916000199060031b1c19161760018201555b60408201518051906001600160401b0382116109525781906112dc826112d360028701546127e7565b60028701612936565b602090601f83116001146116d6576000926116cb575b50508160011b916000199060031b1c19161760028201555b606082015160038201556080820151600482015560a0820151600582015560c08201518051906001600160401b03821161095257819061135a8261135160068701546127e7565b60068701612936565b602090601f83116001146116595760009261164e575b50508160011b916000199060031b1c19161760068201555b60e08201518051906001600160401b0382116109525781906113ba826113b160078701546127e7565b60078701612936565b602090601f83116001146115dc576000926115d1575b50508160011b916000199060031b1c19161760078201555b600881016101008301516020815191611401838561297b565b01916000526020600020916000905b8282106114f45750505050600b600982019160018060a01b0361012085015116926001600160601b0360a01b9384825416179055600a810160018060a01b036101408601511681549060ff60a01b610160880151151560a01b169060ff60a81b610180890151151560a81b169269ffffffffffffffffffff60b01b16171717905501916101a060018060a01b0391015116908254161790556114b3600954612a0b565b60095560405160243581526001600160a01b039091169133917f808c887919683a350ed55b3499f97ed7f4093ecc5e131fadb8b075a85457af3a90602090a4005b80518051906001600160401b038211610952576115158261098988546127e7565b602090601f8311600114611561579282600194936020938695600092611556575b5050600019600383901b1c191690841b1787555b01940191019092611410565b015190508d80611536565b908660005260206000209160005b601f19851681106115b9575083602093600196938796938794601f198116106115a0575b505050811b01875561154a565b015160001960f88460031b161c191690558d8080611593565b9192602060018192868501518155019401920161156f565b0151905086806113d0565b9250600784016000526020600020906000935b601f1984168510611633576001945083601f1981161061161a575b505050811b0160078201556113e8565b015160001960f88460031b161c1916905586808061160a565b818101518355602094850194600190930192909101906115ef565b015190508680611370565b9250600684016000526020600020906000935b601f19841685106116b0576001945083601f19811610611697575b505050811b016006820155611388565b015160001960f88460031b161c19169055868080611687565b8181015183556020948501946001909301929091019061166c565b0151905086806112f2565b9250600284016000526020600020906000935b601f198416851061172d576001945083601f19811610611714575b505050811b01600282015561130a565b015160001960f88460031b161c19169055868080611704565b818101518355602094850194600190930192909101906116e9565b015190508680611292565b9250600184016000526020600020906000935b601f19841685106117aa576001945083601f19811610611791575b505050811b0160018201556112aa565b015160001960f88460031b161c19169055868080611781565b81810151835560209485019460019093019290910190611766565b60405162461bcd60e51b815260206004820152603160248201527f5468652053746172742074696d65206d757374206265206561726c69657220746044820152703430b7103a34329032b732103a34b6b29760791b6064820152608490fd5b60405162461bcd60e51b815260206004820152602d60248201527f546865204554482073656e7420646f6573206e6f74206d61746368207468652060448201526c70726f6772616d20707269636560981b6064820152608490fd5b346102cc5760003660031901126102cc576000546040516001600160a01b039091168152602090f35b346102cc5760a03660031901126102cc576024356001600160a01b036004356084358281169060643590604435908390036102cc5783600052600260205260406000209460098601541633036119d757818110156119a357851561196e5785600a867fe3d59d03839a10c8a5a85dd0d7e5a4ac45445821c5176529d2745adf6915a16198600360a099015583600482015584600582015501846001600160601b03881b8254161790556040519485526020850152604084015260608301526080820152a1005b60405162461bcd60e51b815260206004820152600d60248201526c496e76616c696420707269636560981b6044820152606490fd5b60405162461bcd60e51b815260206004820152600c60248201526b496e76616c69642074696d6560a01b6044820152606490fd5b60405162461bcd60e51b815260206004820152600c60248201526b27b7363c9031b932b0ba37b960a11b6044820152606490fd5b346102cc5760203660031901126102cc5760043560005260086020526020604060002054604051908152f35b346102cc57611a45366125e6565b90600052600360205260406000209081548110156102cc57611a6691612677565b50805460ff600560018060a01b0360018501541693015416916040519182526020820152600382101561090b576060916040820152f35b346102cc5760003660031901126102cc57611ab66128c7565b600080546001600160a01b0319811682556001600160a01b03167f8be0079c531659141344cd1fd0a4f28419497f9722a3daafe3b4186f6b6457e08280a3005b346102cc5760203660031901126102cc577f8c4d35e54a3f2ef1134138fd8ea3daee6a3c89e10d2665996babdf70261e2c766020600435611b356128c7565b80600a55604051908152a1005b346102cc57611b50366125e6565b906000526005602052604060002080548210156102cc57602091611b7391612649565b90546040519160031b1c8152f35b346102cc5760603660031901126102cc5760443580151581036102cc5760043560005260026020526040600020611bc560018060a01b03600a830154163314612a1a565b600435600052600360205260406000209060009160005b815481101561224c57611bef8183612677565b505460243514611c0757611c0290612a0b565b611bdc565b809350611c1391612677565b509260058401549060ff8216600381101561090b5761221357156121fe5750600b8101546001600160a01b03166121c65760058301805460ff191660029081179091556001840154600b830180546001600160a01b0319166001600160a01b0392909216919091179055600a909101805460ff60a01b1916600160a01b17905560043560009081526006602052604090209190915581015490611cb582612731565b91611cc360405193846126ae565b808352611cd2601f1991612731565b0136602084013760005b60028201548110156120fc576004356000526008602052604060002090815491611d0583612a0b565b9055611d148160028501612649565b50611d228260038601612649565b50611d308360048701612649565b90549060031b1c604051908160208101106001600160401b03602084011117610952576020820160405260008252611d86611d7960405195611d7187612693565b888752612821565b9360208601948552612821565b604085015260608401526000608084015260a0830152600435600052600460205260406000208460005260205260406000209082518255518051906001600160401b038211610952578190611de28261127360018701546127e7565b602090601f831160011461208a5760009261207f575b50508160011b916000199060031b1c19161760018201555b60408201518051906001600160401b038211610952578190611e39826112d360028701546127e7565b602090601f831160011461200d57600092612002575b50508160011b916000199060031b1c19161760028201555b606082015160038201556080820151600481101561090b5781600591600460a094019060ff80198354169116179055019101516020815191611ea9838561297b565b019160005260206000206000925b828410611f1f57505050506004356000526005602052604060002091825492600160401b8410156109525783611ef5916001611f1a96018155612649565b81549060031b9083821b91600019901b1916179055611f148286612ad1565b52612a0b565b611cdc565b80518051906001600160401b03821161095257611f4682611f4086546127e7565b86612936565b602090601f8311600114611f92579282600194936020938695600092611f87575b5050600019600383901b1c191690841b1785555b01920193019290611eb7565b015190508d80611f67565b908460005260206000209160005b601f1985168110611fea575083602093600196938796938794601f19811610611fd1575b505050811b018555611f7b565b015160001960f88460031b161c191690558d8080611fc4565b91926020600181928685015181550194019201611fa0565b015190508880611e4f565b9250600284016000526020600020906000935b601f1984168510612064576001945083601f1981161061204b575b505050811b016002820155611e67565b015160001960f88460031b161c1916905588808061203b565b81810151835560209485019460019093019290910190612020565b015190508880611df8565b9250600184016000526020600020906000935b601f19841685106120e1576001945083601f198116106120c8575b505050811b016001820155611e10565b015160001960f88460031b161c191690558880806120b8565b8181015183556020948501946001909301929091019061209d565b506001808060a01b03910154166040519060608201906024358352602083015260606040830152825180915260206080830193019060005b8181106121b057505050807f284aa8037c280e35f0609d480c6b37226bb54c7482d25efb48ffe0dce5b6f08391600435930390a25b60015b1561217357005b60405162461bcd60e51b8152602060048201526015602482015274105c1c1b1a58d85d1a5bdb881b9bdd08199bdd5b99605a1b6044820152606490fd5b8251855260209485019490920191600101612134565b60405162461bcd60e51b815260206004820152601060248201526f105b1c9958591e481cd95b1958dd195960821b6044820152606490fd5b600592506001915060ff191617910155612169565b60405162461bcd60e51b8152602060048201526011602482015270105b1c9958591e48195d985b1d585d1959607a1b6044820152606490fd5b505050905061216c565b346102cc576020806003193601126102cc5760043580600052600580835260406000209260405180828654918281520195600052826000209060005b81811061252f575050506122ac816122d4959603826126ae565b8051946122b886612731565b956122c660405197886126ae565b808752601f19958691612731565b018360005b8281106124f25750505060005b82518110156123e957816000526004845260406000206123068285612ad1565b51600052845260406000206040519061231e82612693565b80548252600190612330828201612821565b8784015261234060028201612821565b60408401526003810154606084015260ff60048201541690600482101561090b57889160808501520190815461237581612731565b9261238360405194856126ae565b818452600090815288812090898086015b8483106123cc57505050505050906123c7929160a08201526123b6828a612ad1565b526123c18189612ad1565b50612a0b565b6122e6565b859182916123d986612821565b8152019301910190918a90612394565b505050919290604051928084019181855283518093526040850182604085841b8801019501966000925b8584106124205787870388f35b90919293809596603f19898203018552895190815181526124626124508484015160c080878601528401906125fc565b604084015183820360408501526125fc565b906060808401519082015261247f6080808501519083019061263c565b60a08093015192818303910152815180825283820190848082881b85010194019260005b8281106124c657505050505090806001929a019401940192979594939190612413565b919395806124e0878b85600196989a0301895289516125fc565b970195019101918a95949391926124a3565b6040516124fe81612693565b60008152606080848301528060408301526000818301526000608083015260a082015282828b0101520184906122d9565b825488529684019660019283019201612292565b346102cc57612551366125e6565b81600052600260205261257560018060a01b03600a60406000200154163314612a1a565b81600052600460205260406000208160005260205260046040600020019081549060ff821692600484101561090b5760036020936125d660017f4e2fd11f84344693b41d2aba9910e33b34a4f02d4d3a65b65b2201f3c8fa3c899714612ae5565b60ff1916179055604051908152a2005b60409060031901126102cc576004359060243590565b919082519283825260005b848110612628575050826000602080949584010152601f8019910116010190565b602081830181015184830182015201612607565b90600482101561090b5752565b80548210156126615760005260206000200190600090565b634e487b7160e01b600052603260045260246000fd5b8054821015612661576000526006602060002091020190600090565b60c081019081106001600160401b0382111761095257604052565b90601f801991011681019081106001600160401b0382111761095257604052565b6001600160401b03811161095257601f01601f191660200190565b81601f820112156102cc57803590612701826126cf565b9261270f60405194856126ae565b828452602083830101116102cc57816000926020809301838601378301015290565b6001600160401b0381116109525760051b60200190565b9291909261275584612731565b9161276360405193846126ae565b829480845260208094019060051b8301928284116102cc5780915b84831061278d57505050505050565b82356001600160401b0381116102cc5786916127ac86849386016126ea565b81520192019161277e565b9181601f840112156102cc578235916001600160401b0383116102cc576020808501948460051b0101116102cc57565b90600182811c92168015612817575b602083101461280157565b634e487b7160e01b600052602260045260246000fd5b91607f16916127f6565b9060405191826000825492612835846127e7565b9081845260019485811690816000146128a45750600114612861575b505061285f925003836126ae565b565b9093915060005260209081600020936000915b81831061288c57505061285f93508201013880612851565b85548884018501529485019487945091830191612874565b91505061285f94506020925060ff191682840152151560051b8201013880612851565b6000546001600160a01b031633036128db57565b606460405162461bcd60e51b815260206004820152602060248201527f4f776e61626c653a2063616c6c6572206973206e6f7420746865206f776e65726044820152fd5b81811061292a575050565b6000815560010161291f565b9190601f811161294557505050565b61285f926000526020600020906020601f840160051c83019310612971575b601f0160051c019061291f565b9091508190612964565b600160401b82116109525780549180825582811061299857505050565b600091825260209081832093840193015b8381106129b65750505050565b80836129c4600193546127e7565b806129d2575b5050016129a9565b601f80821185146129e957505081555b83386129ca565b612a0290848452868420920160051c820185830161291f565b818355556129e2565b6000198114610bb25760010190565b15612a2157565b60405162461bcd60e51b815260206004820152600d60248201526c2737ba103b30b634b230ba37b960991b6044820152606490fd5b15612a5d57565b60405162461bcd60e51b815260206004820152600d60248201526c141c9bd9dc985b48195b991959609a1b6044820152606490fd5b15612a9957565b60405162461bcd60e51b815260206004820152601060248201526f105b1c9958591e48185c1c1c9bdd995960821b6044820152606490fd5b80518210156126615760209160051b010190565b15612aec57565b60405162461bcd60e51b815260206004820152600e60248201526d496e76616c69642073746174757360901b6044820152606490fd5b600260015414612b33576002600155565b60405162461bcd60e51b815260206004820152601f60248201527f5265656e7472616e637947756172643a207265656e7472616e742063616c6c006044820152606490fdfea26469706673582212206abc83972d18600436ec96de99453dc24173c151407a61aa1223c008ba3e13d564736f6c63430008140033","opcodes":"PUSH1 0x80 CALLVALUE PUSH3 0x7E JUMPI PUSH1 0x1F PUSH3 0x2C8F CODESIZE DUP2 SWAP1 SUB SWAP2 DUP3 ADD PUSH1 0x1F NOT AND DUP4 ADD SWAP2 PUSH1 0x1 PUSH1 0x1 PUSH1 0x40 SHL SUB DUP4 GT DUP5 DUP5 LT OR PUSH3 0x83 JUMPI DUP1 DUP5 SWAP3 PUSH1 0x20 SWAP5 PUSH1 0x40 MSTORE DUP4 CODECOPY DUP2 ADD SUB SLT PUSH3 0x7E JUMPI MLOAD PUSH1 0x1 PUSH1 0x1 PUSH1 0xA0 SHL SUB DUP2 AND DUP2 SUB PUSH3 0x7E JUMPI PUSH3 0x6E SWAP1 PUSH3 0x64 CALLER PUSH3 0x99 JUMP JUMPDEST PUSH1 0x1 DUP1 SSTORE PUSH3 0x99 JUMP JUMPDEST PUSH1 0x40 MLOAD PUSH2 0x2BAE SWAP1 DUP2 PUSH3 0xE1 DUP3 CODECOPY RETURN JUMPDEST PUSH1 0x0 DUP1 REVERT JUMPDEST PUSH4 0x4E487B71 PUSH1 0xE0 SHL PUSH1 0x0 MSTORE PUSH1 0x41 PUSH1 0x4 MSTORE PUSH1 0x24 PUSH1 0x0 REVERT JUMPDEST PUSH1 0x0 DUP1 SLOAD PUSH1 0x1 PUSH1 0x1 PUSH1 0xA0 SHL SUB SWAP3 DUP4 AND PUSH1 0x1 PUSH1 0x1 PUSH1 0xA0 SHL SUB NOT DUP3 AND DUP2 OR DUP4 SSTORE SWAP3 AND SWAP1 PUSH32 0x8BE0079C531659141344CD1FD0A4F28419497F9722A3DAAFE3B4186F6B6457E0 SWAP1 DUP1 LOG3 JUMP INVALID PUSH1 0x80 PUSH1 0x40 MSTORE PUSH1 0x4 CALLDATASIZE LT ISZERO PUSH2 0x12 JUMPI PUSH1 0x0 DUP1 REVERT JUMPDEST PUSH1 0x0 CALLDATALOAD PUSH1 0xE0 SHR DUP1 PUSH4 0x3ABE6BD7 EQ PUSH2 0x2543 JUMPI DUP1 PUSH4 0x42C549C0 EQ PUSH2 0x2256 JUMPI DUP1 PUSH4 0x4942EC02 EQ PUSH2 0x1B81 JUMPI DUP1 PUSH4 0x544AABD0 EQ PUSH2 0x1B42 JUMPI DUP1 PUSH4 0x69FE0E2D EQ PUSH2 0x1AF6 JUMPI DUP1 PUSH4 0x715018A6 EQ PUSH2 0x1A9D JUMPI DUP1 PUSH4 0x7D5CAE03 EQ PUSH2 0x1A37 JUMPI DUP1 PUSH4 0x83472F5B EQ PUSH2 0x1A0B JUMPI DUP1 PUSH4 0x89001EB1 EQ PUSH2 0x18A8 JUMPI DUP1 PUSH4 0x8DA5CB5B EQ PUSH2 0x187F JUMPI DUP1 PUSH4 0x919AF1DA EQ PUSH2 0x10C6 JUMPI DUP1 PUSH4 0x93EB1026 EQ PUSH2 0xF45 JUMPI DUP1 PUSH4 0x9E57D589 EQ PUSH2 0xC07 JUMPI DUP1 PUSH4 0xA112ED4E EQ PUSH2 0x672 JUMPI DUP1 PUSH4 0xA1A57296 EQ PUSH2 0x646 JUMPI DUP1 PUSH4 0xB0D456AC EQ PUSH2 0x5B1 JUMPI DUP1 PUSH4 0xBA71B330 EQ PUSH2 0x593 JUMPI DUP1 PUSH4 0xCED72F87 EQ PUSH2 0x575 JUMPI DUP1 PUSH4 0xD201593F EQ PUSH2 0x4E0 JUMPI DUP1 PUSH4 0xD613FD24 EQ PUSH2 0x3C3 JUMPI DUP1 PUSH4 0xF2FDE38B EQ PUSH2 0x2FD JUMPI DUP1 PUSH4 0xF6C78263 EQ PUSH2 0x2D1 JUMPI PUSH4 0xF9F161A8 EQ PUSH2 0x119 JUMPI PUSH1 0x0 DUP1 REVERT JUMPDEST CALLVALUE PUSH2 0x2CC JUMPI PUSH1 0x20 CALLDATASIZE PUSH1 0x3 NOT ADD SLT PUSH2 0x2CC JUMPI PUSH1 0x4 CALLDATALOAD PUSH2 0x135 PUSH2 0x2B22 JUMP JUMPDEST DUP1 PUSH1 0x0 MSTORE PUSH1 0x2 PUSH1 0x20 MSTORE PUSH1 0x40 PUSH1 0x0 KECCAK256 PUSH1 0xA DUP2 ADD SWAP1 DUP2 SLOAD PUSH2 0x15A PUSH1 0xFF DUP3 PUSH1 0xA0 SHR AND ISZERO PUSH2 0x2A92 JUMP JUMPDEST PUSH1 0xFF DUP2 PUSH1 0xA8 SHR AND PUSH2 0x295 JUMPI PUSH1 0x5 DUP3 ADD SLOAD TIMESTAMP GT ISZERO PUSH2 0x258 JUMPI PUSH1 0x9 DUP3 ADD SWAP3 PUSH1 0x1 DUP1 PUSH1 0xA0 SHL SUB SWAP2 DUP3 DUP6 SLOAD AND SWAP4 DUP5 CALLER SUB PUSH2 0x21B JUMPI PUSH1 0xFF PUSH1 0xA8 SHL NOT SWAP1 SWAP2 AND PUSH1 0x1 PUSH1 0xA8 SHL OR SWAP1 SWAP2 SSTORE PUSH1 0x3 ADD DUP1 SLOAD SWAP1 SWAP3 PUSH1 0x0 SWAP2 DUP3 SWAP2 DUP3 SWAP2 DUP3 SWAP2 DUP3 DUP3 ISZERO PUSH2 0x212 JUMPI JUMPDEST CALL ISZERO PUSH2 0x206 JUMPI SWAP2 SLOAD SWAP1 SLOAD PUSH1 0x40 DUP1 MLOAD SWAP3 SWAP1 SWAP4 AND PUSH1 0x1 PUSH1 0x1 PUSH1 0xA0 SHL SUB AND DUP3 MSTORE PUSH1 0x20 DUP3 ADD MSTORE PUSH32 0xD37C0B9C7560299A7C963D03165111D712663805228E5FFCA03D540C5D6E410E SWAP2 DUP2 SWAP1 DUP2 ADD JUMPDEST SUB SWAP1 LOG2 PUSH1 0x1 DUP1 SSTORE STOP JUMPDEST PUSH1 0x40 MLOAD RETURNDATASIZE PUSH1 0x0 DUP3 RETURNDATACOPY RETURNDATASIZE SWAP1 REVERT JUMPDEST POP PUSH2 0x8FC PUSH2 0x1B4 JUMP JUMPDEST PUSH1 0x40 MLOAD PUSH3 0x461BCD PUSH1 0xE5 SHL DUP2 MSTORE PUSH1 0x20 PUSH1 0x4 DUP3 ADD MSTORE PUSH1 0x15 PUSH1 0x24 DUP3 ADD MSTORE PUSH21 0x2737BA103A343290383937B3B930B69036B0B5B2B9 PUSH1 0x59 SHL PUSH1 0x44 DUP3 ADD MSTORE PUSH1 0x64 SWAP1 REVERT JUMPDEST PUSH1 0x40 MLOAD PUSH3 0x461BCD PUSH1 0xE5 SHL DUP2 MSTORE PUSH1 0x20 PUSH1 0x4 DUP3 ADD MSTORE PUSH1 0x15 PUSH1 0x24 DUP3 ADD MSTORE PUSH21 0x141C9BD9DC985B481B9BDD08195B991959081E595D PUSH1 0x5A SHL PUSH1 0x44 DUP3 ADD MSTORE PUSH1 0x64 SWAP1 REVERT JUMPDEST PUSH1 0x40 MLOAD PUSH3 0x461BCD PUSH1 0xE5 SHL DUP2 MSTORE PUSH1 0x20 PUSH1 0x4 DUP3 ADD MSTORE PUSH1 0xF PUSH1 0x24 DUP3 ADD MSTORE PUSH15 0x105B1C9958591E4818DB185A5B5959 PUSH1 0x8A SHL PUSH1 0x44 DUP3 ADD MSTORE PUSH1 0x64 SWAP1 REVERT JUMPDEST PUSH1 0x0 DUP1 REVERT JUMPDEST CALLVALUE PUSH2 0x2CC JUMPI PUSH1 0x20 CALLDATASIZE PUSH1 0x3 NOT ADD SLT PUSH2 0x2CC JUMPI PUSH1 0x4 CALLDATALOAD PUSH1 0x0 MSTORE PUSH1 0x6 PUSH1 0x20 MSTORE PUSH1 0x20 PUSH1 0x40 PUSH1 0x0 KECCAK256 SLOAD PUSH1 0x40 MLOAD SWAP1 DUP2 MSTORE RETURN JUMPDEST CALLVALUE PUSH2 0x2CC JUMPI PUSH1 0x20 CALLDATASIZE PUSH1 0x3 NOT ADD SLT PUSH2 0x2CC JUMPI PUSH1 0x4 CALLDATALOAD PUSH1 0x1 PUSH1 0x1 PUSH1 0xA0 SHL SUB DUP2 DUP2 AND SWAP2 DUP3 SWAP1 SUB PUSH2 0x2CC JUMPI PUSH2 0x32C PUSH2 0x28C7 JUMP JUMPDEST DUP2 ISZERO PUSH2 0x36F JUMPI PUSH1 0x0 SLOAD DUP3 PUSH1 0x1 PUSH1 0x1 PUSH1 0x60 SHL SUB PUSH1 0xA0 SHL DUP3 AND OR PUSH1 0x0 SSTORE AND PUSH32 0x8BE0079C531659141344CD1FD0A4F28419497F9722A3DAAFE3B4186F6B6457E0 PUSH1 0x0 DUP1 LOG3 STOP JUMPDEST PUSH1 0x40 MLOAD PUSH3 0x461BCD PUSH1 0xE5 SHL DUP2 MSTORE PUSH1 0x20 PUSH1 0x4 DUP3 ADD MSTORE PUSH1 0x26 PUSH1 0x24 DUP3 ADD MSTORE PUSH32 0x4F776E61626C653A206E6577206F776E657220697320746865207A65726F2061 PUSH1 0x44 DUP3 ADD MSTORE PUSH6 0x646472657373 PUSH1 0xD0 SHL PUSH1 0x64 DUP3 ADD MSTORE PUSH1 0x84 SWAP1 REVERT JUMPDEST CALLVALUE PUSH2 0x2CC JUMPI PUSH1 0x20 CALLDATASIZE PUSH1 0x3 NOT ADD SLT PUSH2 0x2CC JUMPI PUSH1 0x4 CALLDATALOAD PUSH1 0x0 MSTORE PUSH1 0x2 PUSH1 0x20 MSTORE PUSH1 0x40 PUSH1 0x0 KECCAK256 DUP1 SLOAD PUSH1 0x1 DUP3 ADD PUSH2 0x3F3 SWAP1 PUSH2 0x2821 JUMP JUMPDEST SWAP2 PUSH2 0x400 PUSH1 0x2 DUP3 ADD PUSH2 0x2821 JUMP JUMPDEST PUSH1 0x3 DUP3 ADD SLOAD PUSH1 0x4 DUP4 ADD SLOAD PUSH1 0x5 DUP5 ADD SLOAD SWAP1 SWAP4 SWAP2 PUSH2 0x41E PUSH1 0x6 DUP5 ADD PUSH2 0x2821 JUMP JUMPDEST PUSH2 0x42A PUSH1 0x7 DUP6 ADD PUSH2 0x2821 JUMP JUMPDEST SWAP2 PUSH1 0x1 PUSH1 0xA0 SHL PUSH1 0x1 SWAP1 SUB SWAP4 DUP5 PUSH1 0x9 DUP8 ADD SLOAD AND SWAP8 DUP6 PUSH1 0xA DUP9 ADD SLOAD SWAP8 PUSH1 0xB ADD SLOAD AND SWAP8 PUSH1 0x40 MLOAD SWAP12 DUP13 SWAP12 DUP13 MSTORE DUP12 PUSH2 0x1A0 PUSH1 0x20 DUP2 SWAP3 ADD MSTORE DUP13 ADD PUSH2 0x467 SWAP2 PUSH2 0x25FC JUMP JUMPDEST DUP12 DUP2 SUB PUSH1 0x40 DUP14 ADD MSTORE PUSH2 0x478 SWAP2 PUSH2 0x25FC JUMP JUMPDEST SWAP3 PUSH1 0x60 DUP12 ADD MSTORE PUSH1 0x80 DUP11 ADD MSTORE PUSH1 0xA0 DUP10 ADD MSTORE DUP8 DUP2 SUB PUSH1 0xC0 DUP10 ADD MSTORE PUSH2 0x499 SWAP2 PUSH2 0x25FC JUMP JUMPDEST DUP7 DUP2 SUB PUSH1 0xE0 DUP9 ADD MSTORE PUSH2 0x4AA SWAP2 PUSH2 0x25FC JUMP JUMPDEST SWAP4 PUSH2 0x100 DUP7 ADD MSTORE DUP2 AND PUSH2 0x120 DUP6 ADD MSTORE DUP1 PUSH1 0xA0 SHR PUSH1 0xFF AND ISZERO ISZERO PUSH2 0x140 DUP6 ADD MSTORE PUSH1 0xA8 SHR PUSH1 0xFF AND ISZERO ISZERO PUSH2 0x160 DUP5 ADD MSTORE PUSH2 0x180 DUP4 ADD MSTORE SUB SWAP1 RETURN JUMPDEST CALLVALUE PUSH2 0x2CC JUMPI PUSH2 0x4EE CALLDATASIZE PUSH2 0x25E6 JUMP JUMPDEST SWAP1 PUSH1 0x0 MSTORE PUSH1 0x4 PUSH1 0x20 MSTORE PUSH1 0x40 PUSH1 0x0 KECCAK256 SWAP1 PUSH1 0x0 MSTORE PUSH1 0x20 MSTORE PUSH1 0x40 PUSH1 0x0 KECCAK256 DUP1 SLOAD PUSH2 0x516 PUSH1 0x1 DUP4 ADD PUSH2 0x2821 JUMP JUMPDEST SWAP2 PUSH2 0x571 PUSH2 0x526 PUSH1 0x2 DUP4 ADD PUSH2 0x2821 JUMP JUMPDEST PUSH2 0x561 PUSH1 0xFF PUSH1 0x4 PUSH1 0x3 DUP7 ADD SLOAD SWAP6 ADD SLOAD AND SWAP2 PUSH2 0x553 PUSH1 0x40 MLOAD SWAP8 DUP9 SWAP8 DUP9 MSTORE PUSH1 0xA0 PUSH1 0x20 DUP10 ADD MSTORE PUSH1 0xA0 DUP9 ADD SWAP1 PUSH2 0x25FC JUMP JUMPDEST SWAP1 DUP7 DUP3 SUB PUSH1 0x40 DUP9 ADD MSTORE PUSH2 0x25FC JUMP JUMPDEST SWAP3 PUSH1 0x60 DUP6 ADD MSTORE PUSH1 0x80 DUP5 ADD SWAP1 PUSH2 0x263C JUMP JUMPDEST SUB SWAP1 RETURN JUMPDEST CALLVALUE PUSH2 0x2CC JUMPI PUSH1 0x0 CALLDATASIZE PUSH1 0x3 NOT ADD SLT PUSH2 0x2CC JUMPI PUSH1 0x20 PUSH1 0xA SLOAD PUSH1 0x40 MLOAD SWAP1 DUP2 MSTORE RETURN JUMPDEST CALLVALUE PUSH2 0x2CC JUMPI PUSH1 0x0 CALLDATASIZE PUSH1 0x3 NOT ADD SLT PUSH2 0x2CC JUMPI PUSH1 0x20 PUSH1 0x9 SLOAD PUSH1 0x40 MLOAD SWAP1 DUP2 MSTORE RETURN JUMPDEST CALLVALUE PUSH2 0x2CC JUMPI PUSH1 0x20 CALLDATASIZE PUSH1 0x3 NOT ADD SLT PUSH2 0x2CC JUMPI PUSH1 0x4 CALLDATALOAD PUSH1 0x0 DUP2 DUP2 MSTORE PUSH1 0x2 PUSH1 0x20 MSTORE PUSH1 0x40 SWAP1 KECCAK256 PUSH1 0xA DUP2 ADD DUP1 SLOAD SWAP1 SWAP2 PUSH2 0x600 SWAP1 PUSH1 0x5 SWAP1 PUSH2 0x5F6 CALLER PUSH1 0x1 PUSH1 0x1 PUSH1 0xA0 SHL SUB DUP7 AND EQ PUSH2 0x2A1A JUMP JUMPDEST ADD SLOAD TIMESTAMP GT ISZERO PUSH2 0x2A56 JUMP JUMPDEST PUSH2 0x610 PUSH1 0xFF DUP3 PUSH1 0xA0 SHR AND ISZERO PUSH2 0x2A92 JUMP JUMPDEST PUSH1 0xFF PUSH1 0xA0 SHL NOT AND PUSH1 0x1 PUSH1 0xA0 SHL OR SWAP1 SSTORE PUSH32 0x3CA3D218D64EA45C582C714D84DCDFD87F8D3CB3A3449FE533C2CB6D614AB766 PUSH1 0x0 DUP1 LOG2 STOP JUMPDEST CALLVALUE PUSH2 0x2CC JUMPI PUSH1 0x20 CALLDATASIZE PUSH1 0x3 NOT ADD SLT PUSH2 0x2CC JUMPI PUSH1 0x4 CALLDATALOAD PUSH1 0x0 MSTORE PUSH1 0x7 PUSH1 0x20 MSTORE PUSH1 0x20 PUSH1 0x40 PUSH1 0x0 KECCAK256 SLOAD PUSH1 0x40 MLOAD SWAP1 DUP2 MSTORE RETURN JUMPDEST CALLVALUE PUSH2 0x2CC JUMPI PUSH1 0x80 CALLDATASIZE PUSH1 0x3 NOT ADD SLT PUSH2 0x2CC JUMPI PUSH1 0x4 CALLDATALOAD PUSH1 0x24 CALLDATALOAD PUSH1 0x1 PUSH1 0x1 PUSH1 0x40 SHL SUB DUP2 GT PUSH2 0x2CC JUMPI PUSH2 0x6A5 SWAP1 CALLDATASIZE SWAP1 PUSH1 0x4 ADD PUSH2 0x27B7 JUMP JUMPDEST SWAP1 SWAP2 PUSH1 0x44 CALLDATALOAD PUSH1 0x1 PUSH1 0x1 PUSH1 0x40 SHL SUB DUP2 GT PUSH2 0x2CC JUMPI PUSH2 0x6C6 SWAP1 CALLDATASIZE SWAP1 PUSH1 0x4 ADD PUSH2 0x27B7 JUMP JUMPDEST SWAP1 PUSH1 0x64 CALLDATALOAD PUSH1 0x1 PUSH1 0x1 PUSH1 0x40 SHL SUB DUP2 GT PUSH2 0x2CC JUMPI PUSH2 0x6E6 SWAP1 CALLDATASIZE SWAP1 PUSH1 0x4 ADD PUSH2 0x27B7 JUMP JUMPDEST SWAP3 SWAP1 SWAP2 DUP5 PUSH1 0x0 MSTORE PUSH1 0x2 PUSH1 0x20 MSTORE PUSH1 0x40 PUSH1 0x0 KECCAK256 PUSH2 0x706 PUSH1 0x5 DUP3 ADD SLOAD TIMESTAMP LT PUSH2 0x2A56 JUMP JUMPDEST DUP3 DUP8 EQ DUP1 PUSH2 0xBFE JUMPI JUMPDEST ISZERO PUSH2 0xBC8 JUMPI PUSH1 0x0 SWAP1 PUSH1 0x0 JUMPDEST DUP7 DUP2 LT PUSH2 0xB92 JUMPI POP PUSH1 0x3 ADD SLOAD SUB PUSH2 0xB4E JUMPI PUSH2 0x778 SWAP2 DUP6 PUSH1 0x0 MSTORE PUSH1 0x7 PUSH1 0x20 MSTORE PUSH2 0x76C PUSH1 0x40 PUSH1 0x0 KECCAK256 SWAP9 DUP10 SLOAD SWAP10 PUSH2 0x74D DUP12 PUSH2 0x2A0B JUMP JUMPDEST SWAP1 SSTORE PUSH1 0x40 MLOAD SWAP9 PUSH2 0x75C DUP11 PUSH2 0x2693 JUMP JUMPDEST DUP11 DUP11 MSTORE CALLER PUSH1 0x20 DUP12 ADD MSTORE CALLDATASIZE SWAP2 PUSH2 0x2748 JUMP JUMPDEST PUSH1 0x40 DUP9 ADD MSTORE CALLDATASIZE SWAP2 PUSH2 0x2748 JUMP JUMPDEST PUSH1 0x60 DUP6 ADD MSTORE PUSH2 0x786 DUP3 PUSH2 0x2731 JUMP JUMPDEST SWAP2 PUSH2 0x794 PUSH1 0x40 MLOAD SWAP4 DUP5 PUSH2 0x26AE JUMP JUMPDEST DUP1 DUP4 MSTORE PUSH1 0x20 DUP4 ADD SWAP1 PUSH1 0x5 SHL DUP3 ADD SWAP2 CALLDATASIZE DUP4 GT PUSH2 0x2CC JUMPI SWAP1 JUMPDEST DUP3 DUP3 LT PUSH2 0xB3E JUMPI POP POP POP PUSH1 0x80 DUP4 ADD MSTORE PUSH1 0x0 PUSH1 0xA0 DUP4 ADD MSTORE PUSH1 0x0 MSTORE PUSH1 0x3 PUSH1 0x20 MSTORE PUSH1 0x40 PUSH1 0x0 KECCAK256 DUP1 SLOAD PUSH1 0x1 PUSH1 0x40 SHL DUP2 LT ISZERO PUSH2 0x952 JUMPI PUSH2 0x7EB SWAP2 PUSH1 0x1 DUP3 ADD DUP2 SSTORE PUSH2 0x2677 JUMP JUMPDEST PUSH2 0xB28 JUMPI DUP2 MLOAD DUP2 SSTORE PUSH1 0x1 DUP2 ADD PUSH1 0x1 DUP1 PUSH1 0xA0 SHL SUB PUSH1 0x20 DUP5 ADD MLOAD AND PUSH1 0x1 PUSH1 0x1 PUSH1 0x60 SHL SUB PUSH1 0xA0 SHL DUP3 SLOAD AND OR SWAP1 SSTORE PUSH1 0x2 DUP2 ADD PUSH1 0x40 DUP4 ADD MLOAD PUSH1 0x20 DUP2 MLOAD SWAP2 PUSH2 0x82D DUP4 DUP6 PUSH2 0x297B JUMP JUMPDEST ADD SWAP2 PUSH1 0x0 MSTORE PUSH1 0x20 PUSH1 0x0 KECCAK256 SWAP2 PUSH1 0x0 SWAP1 JUMPDEST DUP3 DUP3 LT PUSH2 0xA4B JUMPI POP POP POP POP PUSH1 0x3 DUP2 ADD PUSH1 0x60 DUP4 ADD MLOAD PUSH1 0x20 DUP2 MLOAD SWAP2 PUSH2 0x85F DUP4 DUP6 PUSH2 0x297B JUMP JUMPDEST ADD SWAP2 PUSH1 0x0 MSTORE PUSH1 0x20 PUSH1 0x0 KECCAK256 SWAP2 PUSH1 0x0 SWAP1 JUMPDEST DUP3 DUP3 LT PUSH2 0x968 JUMPI POP POP POP POP PUSH1 0x4 DUP2 ADD PUSH1 0x80 DUP4 ADD MLOAD SWAP1 DUP2 MLOAD SWAP2 PUSH1 0x1 PUSH1 0x1 PUSH1 0x40 SHL SUB DUP4 GT PUSH2 0x952 JUMPI PUSH1 0x1 PUSH1 0x40 SHL DUP4 GT PUSH2 0x952 JUMPI PUSH1 0x20 SWAP1 DUP3 SLOAD DUP5 DUP5 SSTORE DUP1 DUP6 LT PUSH2 0x935 JUMPI JUMPDEST POP ADD SWAP1 PUSH1 0x0 MSTORE PUSH1 0x20 PUSH1 0x0 KECCAK256 PUSH1 0x0 JUMPDEST DUP4 DUP2 LT PUSH2 0x921 JUMPI DUP7 DUP7 PUSH1 0xA0 PUSH1 0x5 DUP9 ADD SWAP2 ADD MLOAD PUSH1 0x3 DUP2 LT ISZERO PUSH2 0x90B JUMPI PUSH1 0xFF DUP1 NOT DUP4 SLOAD AND SWAP2 AND OR SWAP1 SSTORE PUSH32 0x722325134A63AC150749CEDE63BB76D659FC9E4D78E10764480C6C79D283DC4F PUSH1 0x0 DUP1 LOG2 STOP JUMPDEST PUSH4 0x4E487B71 PUSH1 0xE0 SHL PUSH1 0x0 MSTORE PUSH1 0x21 PUSH1 0x4 MSTORE PUSH1 0x24 PUSH1 0x0 REVERT JUMPDEST PUSH1 0x1 SWAP1 PUSH1 0x20 DUP5 MLOAD SWAP5 ADD SWAP4 DUP2 DUP5 ADD SSTORE ADD PUSH2 0x8BD JUMP JUMPDEST PUSH2 0x94C SWAP1 DUP5 PUSH1 0x0 MSTORE DUP6 DUP5 PUSH1 0x0 KECCAK256 SWAP2 DUP3 ADD SWAP2 ADD PUSH2 0x291F JUMP JUMPDEST DUP8 PUSH2 0x8AF JUMP JUMPDEST PUSH4 0x4E487B71 PUSH1 0xE0 SHL PUSH1 0x0 MSTORE PUSH1 0x41 PUSH1 0x4 MSTORE PUSH1 0x24 PUSH1 0x0 REVERT JUMPDEST DUP1 MLOAD DUP1 MLOAD SWAP1 PUSH1 0x1 PUSH1 0x1 PUSH1 0x40 SHL SUB DUP3 GT PUSH2 0x952 JUMPI PUSH2 0x98F DUP3 PUSH2 0x989 DUP9 SLOAD PUSH2 0x27E7 JUMP JUMPDEST DUP9 PUSH2 0x2936 JUMP JUMPDEST PUSH1 0x20 SWAP1 PUSH1 0x1F DUP4 GT PUSH1 0x1 EQ PUSH2 0x9DB JUMPI SWAP3 DUP3 PUSH1 0x1 SWAP5 SWAP4 PUSH1 0x20 SWAP4 DUP7 SWAP6 PUSH1 0x0 SWAP3 PUSH2 0x9D0 JUMPI JUMPDEST POP POP PUSH1 0x0 NOT PUSH1 0x3 DUP4 SWAP1 SHL SHR NOT AND SWAP1 DUP5 SHL OR DUP8 SSTORE JUMPDEST ADD SWAP5 ADD SWAP2 ADD SWAP1 SWAP3 PUSH2 0x86E JUMP JUMPDEST ADD MLOAD SWAP1 POP DUP13 DUP1 PUSH2 0x9B0 JUMP JUMPDEST SWAP1 DUP7 PUSH1 0x0 MSTORE PUSH1 0x20 PUSH1 0x0 KECCAK256 SWAP2 PUSH1 0x0 JUMPDEST PUSH1 0x1F NOT DUP6 AND DUP2 LT PUSH2 0xA33 JUMPI POP DUP4 PUSH1 0x20 SWAP4 PUSH1 0x1 SWAP7 SWAP4 DUP8 SWAP7 SWAP4 DUP8 SWAP5 PUSH1 0x1F NOT DUP2 AND LT PUSH2 0xA1A JUMPI JUMPDEST POP POP POP DUP2 SHL ADD DUP8 SSTORE PUSH2 0x9C4 JUMP JUMPDEST ADD MLOAD PUSH1 0x0 NOT PUSH1 0xF8 DUP5 PUSH1 0x3 SHL AND SHR NOT AND SWAP1 SSTORE DUP13 DUP1 DUP1 PUSH2 0xA0D JUMP JUMPDEST SWAP2 SWAP3 PUSH1 0x20 PUSH1 0x1 DUP2 SWAP3 DUP7 DUP6 ADD MLOAD DUP2 SSTORE ADD SWAP5 ADD SWAP3 ADD PUSH2 0x9E9 JUMP JUMPDEST DUP1 MLOAD DUP1 MLOAD SWAP1 PUSH1 0x1 PUSH1 0x1 PUSH1 0x40 SHL SUB DUP3 GT PUSH2 0x952 JUMPI PUSH2 0xA6C DUP3 PUSH2 0x989 DUP9 SLOAD PUSH2 0x27E7 JUMP JUMPDEST PUSH1 0x20 SWAP1 PUSH1 0x1F DUP4 GT PUSH1 0x1 EQ PUSH2 0xAB8 JUMPI SWAP3 DUP3 PUSH1 0x1 SWAP5 SWAP4 PUSH1 0x20 SWAP4 DUP7 SWAP6 PUSH1 0x0 SWAP3 PUSH2 0xAAD JUMPI JUMPDEST POP POP PUSH1 0x0 NOT PUSH1 0x3 DUP4 SWAP1 SHL SHR NOT AND SWAP1 DUP5 SHL OR DUP8 SSTORE JUMPDEST ADD SWAP5 ADD SWAP2 ADD SWAP1 SWAP3 PUSH2 0x83C JUMP JUMPDEST ADD MLOAD SWAP1 POP DUP13 DUP1 PUSH2 0xA8D JUMP JUMPDEST SWAP1 DUP7 PUSH1 0x0 MSTORE PUSH1 0x20 PUSH1 0x0 KECCAK256 SWAP2 PUSH1 0x0 JUMPDEST PUSH1 0x1F NOT DUP6 AND DUP2 LT PUSH2 0xB10 JUMPI POP DUP4 PUSH1 0x20 SWAP4 PUSH1 0x1 SWAP7 SWAP4 DUP8 SWAP7 SWAP4 DUP8 SWAP5 PUSH1 0x1F NOT DUP2 AND LT PUSH2 0xAF7 JUMPI JUMPDEST POP POP POP DUP2 SHL ADD DUP8 SSTORE PUSH2 0xAA1 JUMP JUMPDEST ADD MLOAD PUSH1 0x0 NOT PUSH1 0xF8 DUP5 PUSH1 0x3 SHL AND SHR NOT AND SWAP1 SSTORE DUP13 DUP1 DUP1 PUSH2 0xAEA JUMP JUMPDEST SWAP2 SWAP3 PUSH1 0x20 PUSH1 0x1 DUP2 SWAP3 DUP7 DUP6 ADD MLOAD DUP2 SSTORE ADD SWAP5 ADD SWAP3 ADD PUSH2 0xAC6 JUMP JUMPDEST PUSH4 0x4E487B71 PUSH1 0xE0 SHL PUSH1 0x0 MSTORE PUSH1 0x0 PUSH1 0x4 MSTORE PUSH1 0x24 PUSH1 0x0 REVERT JUMPDEST DUP2 CALLDATALOAD DUP2 MSTORE PUSH1 0x20 SWAP2 DUP3 ADD SWAP2 ADD PUSH2 0x7AB JUMP JUMPDEST PUSH1 0x64 PUSH1 0x40 MLOAD PUSH3 0x461BCD PUSH1 0xE5 SHL DUP2 MSTORE PUSH1 0x20 PUSH1 0x4 DUP3 ADD MSTORE PUSH1 0x20 PUSH1 0x24 DUP3 ADD MSTORE PUSH32 0x4D696C6573746F6E6520746F74616C20213D2070726F6772616D207072696365 PUSH1 0x44 DUP3 ADD MSTORE REVERT JUMPDEST SWAP2 DUP3 PUSH1 0x5 SHL DUP7 ADD CALLDATALOAD DUP2 ADD DUP1 SWAP2 GT PUSH2 0xBB2 JUMPI PUSH2 0xBAD SWAP1 SWAP3 PUSH2 0x2A0B JUMP JUMPDEST PUSH2 0x71A JUMP JUMPDEST PUSH4 0x4E487B71 PUSH1 0xE0 SHL PUSH1 0x0 MSTORE PUSH1 0x11 PUSH1 0x4 MSTORE PUSH1 0x24 PUSH1 0x0 REVERT JUMPDEST PUSH1 0x40 MLOAD PUSH3 0x461BCD PUSH1 0xE5 SHL DUP2 MSTORE PUSH1 0x20 PUSH1 0x4 DUP3 ADD MSTORE PUSH1 0xE PUSH1 0x24 DUP3 ADD MSTORE PUSH14 0x92DCE0EAE840DAD2E6DAC2E8C6D PUSH1 0x93 SHL PUSH1 0x44 DUP3 ADD MSTORE PUSH1 0x64 SWAP1 REVERT JUMPDEST POP DUP5 DUP8 EQ PUSH2 0x70F JUMP JUMPDEST CALLVALUE PUSH2 0x2CC JUMPI PUSH1 0x60 CALLDATASIZE PUSH1 0x3 NOT ADD SLT PUSH2 0x2CC JUMPI PUSH1 0x4 CALLDATALOAD PUSH1 0x24 CALLDATALOAD PUSH1 0x1 PUSH1 0x1 PUSH1 0x40 SHL SUB PUSH1 0x44 CALLDATALOAD DUP2 DUP2 GT PUSH2 0x2CC JUMPI PUSH2 0xC3E SWAP1 CALLDATASIZE SWAP1 PUSH1 0x4 ADD PUSH2 0x27B7 JUMP JUMPDEST DUP5 PUSH1 0x0 MSTORE PUSH1 0x20 PUSH1 0x2 DUP2 MSTORE PUSH1 0x40 PUSH1 0x0 KECCAK256 PUSH1 0xFF PUSH1 0xA DUP3 ADD SLOAD PUSH1 0xA0 SHR AND ISZERO PUSH2 0xF09 JUMPI PUSH1 0xB ADD SLOAD PUSH1 0x1 PUSH1 0x1 PUSH1 0xA0 SHL SUB AND CALLER SUB PUSH2 0xED7 JUMPI DUP6 PUSH1 0x0 MSTORE PUSH1 0x4 DUP2 MSTORE PUSH1 0x40 PUSH1 0x0 KECCAK256 DUP6 PUSH1 0x0 MSTORE DUP2 MSTORE PUSH1 0x40 PUSH1 0x0 KECCAK256 SWAP3 PUSH1 0x4 DUP5 ADD SWAP4 DUP5 SLOAD SWAP5 PUSH1 0xFF DUP7 AND PUSH1 0x4 DUP2 LT ISZERO PUSH2 0x90B JUMPI PUSH2 0xE9E JUMPI SWAP1 PUSH1 0x5 SWAP2 PUSH1 0x1 SWAP8 SWAP7 SWAP6 SWAP5 SWAP4 SWAP8 DUP1 SWAP7 PUSH1 0xFF NOT AND OR SWAP1 SSTORE ADD PUSH2 0xCC2 DUP4 DUP3 PUSH2 0x297B JUMP JUMPDEST PUSH1 0x0 SWAP1 DUP2 MSTORE DUP2 DUP2 KECCAK256 SWAP1 DUP7 JUMPDEST DUP5 DUP3 LT PUSH2 0xD9C JUMPI POP POP POP DUP2 PUSH1 0x40 MLOAD SWAP7 PUSH1 0x40 DUP9 ADD SWAP1 DUP9 MSTORE PUSH1 0x40 DUP4 DUP10 ADD MSTORE MSTORE PUSH1 0x60 DUP7 ADD SWAP5 PUSH1 0x60 DUP4 PUSH1 0x5 SHL DUP9 ADD ADD SWAP6 DUP2 SWAP6 PUSH1 0x0 SWAP3 JUMPDEST DUP6 DUP5 LT PUSH2 0xD2F JUMPI DUP11 PUSH32 0xBAA1EE362891351ADD36BB95F60BA8E4031D4C60ECE483917C0DC053D7B2C3D7 DUP12 DUP12 SUB DUP13 LOG2 STOP JUMPDEST SWAP1 SWAP2 SWAP3 SWAP4 SWAP5 SWAP6 SWAP7 SWAP8 PUSH1 0x5F NOT DUP11 DUP3 SUB ADD DUP5 MSTORE DUP9 CALLDATALOAD PUSH1 0x1E NOT DUP4 CALLDATASIZE SUB ADD DUP2 SLT ISZERO PUSH2 0x2CC JUMPI DUP3 ADD DUP7 DUP2 ADD SWAP2 SWAP1 CALLDATALOAD DUP5 DUP2 GT PUSH2 0x2CC JUMPI DUP1 CALLDATASIZE SUB DUP4 SGT PUSH2 0x2CC JUMPI DUP8 DUP3 DUP3 DUP1 DUP14 SWAP7 DUP5 SWAP7 SWAP6 DUP6 SWAP7 MSTORE DUP5 DUP5 ADD CALLDATACOPY PUSH1 0x0 DUP3 DUP3 ADD DUP5 ADD MSTORE PUSH1 0x1F ADD PUSH1 0x1F NOT AND ADD ADD SWAP11 ADD SWAP9 SWAP8 SWAP7 SWAP6 SWAP2 SWAP1 SWAP2 ADD SWAP4 ADD SWAP2 SWAP1 PUSH2 0xCFF JUMP JUMPDEST DUP1 SWAP8 SWAP4 SWAP5 SWAP6 SWAP7 SWAP8 CALLDATALOAD PUSH1 0x1E NOT DUP6 CALLDATASIZE SUB ADD DUP2 SLT ISZERO PUSH2 0x2CC JUMPI DUP5 ADD SWAP1 DUP2 CALLDATALOAD DUP10 DUP2 GT PUSH2 0x2CC JUMPI DUP1 CALLDATASIZE SUB DUP8 DUP5 ADD SGT PUSH2 0x2CC JUMPI DUP9 SWAP2 DUP2 PUSH2 0xDE1 DUP10 SWAP4 PUSH2 0xDDB DUP10 SLOAD PUSH2 0x27E7 JUMP JUMPDEST DUP10 PUSH2 0x2936 JUMP JUMPDEST PUSH1 0x0 PUSH1 0x1F DUP3 GT PUSH1 0x1 EQ PUSH2 0xE2F JUMPI DUP4 DUP3 SWAP2 DUP7 SWAP8 PUSH1 0x0 SWAP4 PUSH2 0xE22 JUMPI JUMPDEST POP POP POP PUSH1 0x0 NOT PUSH1 0x3 DUP4 SWAP1 SHL SHR NOT AND SWAP1 DUP5 SHL OR DUP7 SSTORE JUMPDEST ADD SWAP4 ADD SWAP2 ADD SWAP1 SWAP2 SWAP7 SWAP6 SWAP5 SWAP4 SWAP3 SWAP7 PUSH2 0xCCD JUMP JUMPDEST ADD ADD CALLDATALOAD SWAP1 POP DUP4 CODESIZE DUP1 PUSH2 0xDFB JUMP JUMPDEST SWAP5 PUSH1 0x1F NOT DUP3 AND SWAP6 DUP9 PUSH1 0x0 MSTORE DUP5 PUSH1 0x0 KECCAK256 SWAP7 PUSH1 0x0 JUMPDEST DUP2 DUP2 LT PUSH2 0xE83 JUMPI POP SWAP2 DUP6 DUP8 SWAP9 SWAP3 DUP6 DUP10 SWAP7 SWAP6 LT PUSH2 0xE67 JUMPI JUMPDEST POP POP POP POP DUP2 SHL ADD DUP7 SSTORE PUSH2 0xE10 JUMP JUMPDEST PUSH1 0x0 NOT PUSH1 0xF8 DUP7 PUSH1 0x3 SHL AND SHR NOT SWAP3 ADD ADD CALLDATALOAD AND SWAP1 SSTORE DUP16 DUP1 DUP6 DUP2 PUSH2 0xE59 JUMP JUMPDEST DUP4 DUP4 ADD DUP8 ADD CALLDATALOAD DUP10 SSTORE SWAP7 SWAP1 SWAP8 ADD SWAP7 DUP14 SWAP7 DUP13 SWAP7 SWAP3 DUP4 ADD SWAP3 ADD PUSH2 0xE42 JUMP JUMPDEST PUSH1 0x40 MLOAD PUSH3 0x461BCD PUSH1 0xE5 SHL DUP2 MSTORE PUSH1 0x4 DUP2 ADD DUP6 SWAP1 MSTORE PUSH1 0x11 PUSH1 0x24 DUP3 ADD MSTORE PUSH17 0x105B1C9958591E481CDD589B5A5D1D1959 PUSH1 0x7A SHL PUSH1 0x44 DUP3 ADD MSTORE PUSH1 0x64 SWAP1 REVERT JUMPDEST PUSH1 0x64 SWAP1 PUSH1 0x40 MLOAD SWAP1 PUSH3 0x461BCD PUSH1 0xE5 SHL DUP3 MSTORE PUSH1 0x4 DUP3 ADD MSTORE PUSH1 0xB PUSH1 0x24 DUP3 ADD MSTORE PUSH11 0x2737BA10313AB4B63232B9 PUSH1 0xA9 SHL PUSH1 0x44 DUP3 ADD MSTORE REVERT JUMPDEST PUSH1 0x40 MLOAD PUSH3 0x461BCD PUSH1 0xE5 SHL DUP2 MSTORE PUSH1 0x4 DUP2 ADD DUP4 SWAP1 MSTORE PUSH1 0x14 PUSH1 0x24 DUP3 ADD MSTORE PUSH20 0x141C9BD9DC985B481B9BDD08185C1C1C9BDD9959 PUSH1 0x62 SHL PUSH1 0x44 DUP3 ADD MSTORE PUSH1 0x64 SWAP1 REVERT JUMPDEST CALLVALUE PUSH2 0x2CC JUMPI PUSH2 0xF53 CALLDATASIZE PUSH2 0x25E6 JUMP JUMPDEST SWAP1 PUSH2 0xF5C PUSH2 0x2B22 JUMP JUMPDEST DUP1 PUSH1 0x0 MSTORE PUSH1 0x20 PUSH1 0x2 DUP2 MSTORE PUSH1 0x40 PUSH1 0x0 KECCAK256 PUSH1 0x1 DUP1 PUSH1 0xA0 SHL SUB SWAP1 PUSH2 0xF84 DUP3 PUSH1 0xA DUP4 ADD SLOAD AND CALLER EQ PUSH2 0x2A1A JUMP JUMPDEST DUP4 PUSH1 0x0 MSTORE PUSH1 0x4 DUP4 MSTORE PUSH1 0x40 PUSH1 0x0 KECCAK256 DUP6 PUSH1 0x0 MSTORE DUP4 MSTORE PUSH1 0x40 PUSH1 0x0 KECCAK256 SWAP1 PUSH1 0x4 DUP3 ADD SWAP1 DUP2 SLOAD SWAP2 PUSH1 0xFF DUP4 AND PUSH1 0x4 DUP2 LT ISZERO PUSH2 0x90B JUMPI PUSH1 0xB SWAP4 PUSH2 0xFC3 PUSH1 0x1 PUSH1 0x2 SWAP4 EQ PUSH2 0x2AE5 JUMP JUMPDEST PUSH1 0xFF NOT AND OR SWAP1 SSTORE ADD SWAP1 PUSH1 0x0 DUP1 DUP1 DUP1 PUSH1 0x3 DUP8 DUP8 SLOAD AND SWAP6 ADD SWAP5 DUP6 SLOAD SWAP1 GAS CALL RETURNDATASIZE ISZERO PUSH2 0x10C1 JUMPI RETURNDATASIZE PUSH2 0xFEF DUP2 PUSH2 0x26CF JUMP JUMPDEST SWAP1 PUSH2 0xFFD PUSH1 0x40 MLOAD SWAP3 DUP4 PUSH2 0x26AE JUMP JUMPDEST DUP2 MSTORE PUSH1 0x0 DUP7 RETURNDATASIZE SWAP3 ADD RETURNDATACOPY JUMPDEST ISZERO PUSH2 0x1086 JUMPI SWAP4 PUSH32 0x27D841E82FB3B2469E89E27C70F2EC8597324E08569A13460E4DD8A1A3C0B10C PUSH1 0x40 DUP3 SWAP8 PUSH32 0x7099040FF4ABF6B015BD1004CBF11EC796C3D4ABCAEC3514DB1C93599297D39F SWAP8 SLOAD DUP1 SWAP8 DUP4 MLOAD SWAP3 DUP4 MSTORE DUP3 ADD MSTORE LOG2 SLOAD PUSH1 0x40 DUP1 MLOAD SWAP3 SWAP1 SWAP2 AND PUSH1 0x1 PUSH1 0x1 PUSH1 0xA0 SHL SUB AND DUP3 MSTORE PUSH1 0x20 DUP3 ADD SWAP3 SWAP1 SWAP3 MSTORE SWAP1 DUP2 SWAP1 DUP2 ADD PUSH2 0x1FD JUMP JUMPDEST PUSH1 0x40 MLOAD PUSH3 0x461BCD PUSH1 0xE5 SHL DUP2 MSTORE PUSH1 0x4 DUP2 ADD DUP6 SWAP1 MSTORE PUSH1 0x13 PUSH1 0x24 DUP3 ADD MSTORE PUSH19 0x115512081D1C985B9CD9995C8819985A5B1959 PUSH1 0x6A SHL PUSH1 0x44 DUP3 ADD MSTORE PUSH1 0x64 SWAP1 REVERT JUMPDEST PUSH2 0x1007 JUMP JUMPDEST PUSH2 0x120 CALLDATASIZE PUSH1 0x3 NOT ADD SLT PUSH2 0x2CC JUMPI PUSH1 0x4 CALLDATALOAD PUSH1 0x1 PUSH1 0x1 PUSH1 0x40 SHL SUB DUP2 GT PUSH2 0x2CC JUMPI PUSH2 0x10F2 SWAP1 CALLDATASIZE SWAP1 PUSH1 0x4 ADD PUSH2 0x26EA JUMP JUMPDEST PUSH1 0x44 CALLDATALOAD PUSH1 0x1 PUSH1 0x1 PUSH1 0x40 SHL SUB DUP2 GT PUSH2 0x2CC JUMPI PUSH2 0x1111 SWAP1 CALLDATASIZE SWAP1 PUSH1 0x4 ADD PUSH2 0x26EA JUMP JUMPDEST SWAP1 PUSH1 0xA4 CALLDATALOAD SWAP1 PUSH1 0x1 PUSH1 0x1 PUSH1 0xA0 SHL SUB DUP3 AND DUP3 SUB PUSH2 0x2CC JUMPI PUSH1 0xC4 CALLDATALOAD PUSH1 0x1 PUSH1 0x1 PUSH1 0x40 SHL SUB DUP2 GT PUSH2 0x2CC JUMPI PUSH2 0x1145 SWAP1 CALLDATASIZE SWAP1 PUSH1 0x4 ADD PUSH2 0x26EA JUMP JUMPDEST PUSH1 0xE4 CALLDATALOAD PUSH1 0x1 PUSH1 0x1 PUSH1 0x40 SHL SUB DUP2 GT PUSH2 0x2CC JUMPI PUSH2 0x1164 SWAP1 CALLDATASIZE SWAP1 PUSH1 0x4 ADD PUSH2 0x26EA JUMP JUMPDEST PUSH2 0x104 CALLDATALOAD PUSH1 0x1 PUSH1 0x1 PUSH1 0x40 SHL SUB DUP2 GT PUSH2 0x2CC JUMPI CALLDATASIZE PUSH1 0x23 DUP3 ADD SLT ISZERO PUSH2 0x2CC JUMPI PUSH2 0x1195 SWAP1 CALLDATASIZE SWAP1 PUSH1 0x24 DUP2 PUSH1 0x4 ADD CALLDATALOAD SWAP2 ADD PUSH2 0x2748 JUMP JUMPDEST SWAP2 PUSH1 0x24 CALLDATALOAD CALLVALUE SUB PUSH2 0x1824 JUMPI PUSH1 0x84 CALLDATALOAD PUSH1 0x64 CALLDATALOAD LT ISZERO PUSH2 0x17C5 JUMPI PUSH1 0x9 SLOAD SWAP6 PUSH1 0x40 MLOAD SWAP5 DUP6 PUSH2 0x1C0 DUP2 ADD LT PUSH1 0x1 PUSH1 0x1 PUSH1 0x40 SHL SUB PUSH2 0x1C0 DUP9 ADD GT OR PUSH2 0x952 JUMPI PUSH2 0x1C0 DUP7 ADD PUSH1 0x40 MSTORE DUP8 DUP7 MSTORE PUSH1 0x20 DUP7 ADD MSTORE PUSH1 0x40 DUP6 ADD MSTORE PUSH1 0x24 CALLDATALOAD PUSH1 0x60 DUP6 ADD MSTORE PUSH1 0x64 CALLDATALOAD PUSH1 0x80 DUP6 ADD MSTORE PUSH1 0x84 CALLDATALOAD PUSH1 0xA0 DUP6 ADD MSTORE PUSH1 0xC0 DUP5 ADD MSTORE PUSH1 0xE0 DUP4 ADD MSTORE PUSH2 0x100 DUP3 ADD MSTORE CALLER PUSH2 0x120 DUP3 ADD MSTORE PUSH1 0x1 DUP1 PUSH1 0xA0 SHL SUB DUP3 AND PUSH2 0x140 DUP3 ADD MSTORE PUSH1 0x0 PUSH2 0x160 DUP3 ADD MSTORE PUSH1 0x0 PUSH2 0x180 DUP3 ADD MSTORE PUSH1 0x0 PUSH2 0x1A0 DUP3 ADD MSTORE DUP3 PUSH1 0x0 MSTORE PUSH1 0x2 PUSH1 0x20 MSTORE PUSH1 0x40 PUSH1 0x0 KECCAK256 DUP2 MLOAD DUP2 SSTORE PUSH1 0x20 DUP3 ADD MLOAD DUP1 MLOAD SWAP1 PUSH1 0x1 PUSH1 0x1 PUSH1 0x40 SHL SUB DUP3 GT PUSH2 0x952 JUMPI DUP2 SWAP1 PUSH2 0x127C DUP3 PUSH2 0x1273 PUSH1 0x1 DUP8 ADD SLOAD PUSH2 0x27E7 JUMP JUMPDEST PUSH1 0x1 DUP8 ADD PUSH2 0x2936 JUMP JUMPDEST PUSH1 0x20 SWAP1 PUSH1 0x1F DUP4 GT PUSH1 0x1 EQ PUSH2 0x1753 JUMPI PUSH1 0x0 SWAP3 PUSH2 0x1748 JUMPI JUMPDEST POP POP DUP2 PUSH1 0x1 SHL SWAP2 PUSH1 0x0 NOT SWAP1 PUSH1 0x3 SHL SHR NOT AND OR PUSH1 0x1 DUP3 ADD SSTORE JUMPDEST PUSH1 0x40 DUP3 ADD MLOAD DUP1 MLOAD SWAP1 PUSH1 0x1 PUSH1 0x1 PUSH1 0x40 SHL SUB DUP3 GT PUSH2 0x952 JUMPI DUP2 SWAP1 PUSH2 0x12DC DUP3 PUSH2 0x12D3 PUSH1 0x2 DUP8 ADD SLOAD PUSH2 0x27E7 JUMP JUMPDEST PUSH1 0x2 DUP8 ADD PUSH2 0x2936 JUMP JUMPDEST PUSH1 0x20 SWAP1 PUSH1 0x1F DUP4 GT PUSH1 0x1 EQ PUSH2 0x16D6 JUMPI PUSH1 0x0 SWAP3 PUSH2 0x16CB JUMPI JUMPDEST POP POP DUP2 PUSH1 0x1 SHL SWAP2 PUSH1 0x0 NOT SWAP1 PUSH1 0x3 SHL SHR NOT AND OR PUSH1 0x2 DUP3 ADD SSTORE JUMPDEST PUSH1 0x60 DUP3 ADD MLOAD PUSH1 0x3 DUP3 ADD SSTORE PUSH1 0x80 DUP3 ADD MLOAD PUSH1 0x4 DUP3 ADD SSTORE PUSH1 0xA0 DUP3 ADD MLOAD PUSH1 0x5 DUP3 ADD SSTORE PUSH1 0xC0 DUP3 ADD MLOAD DUP1 MLOAD SWAP1 PUSH1 0x1 PUSH1 0x1 PUSH1 0x40 SHL SUB DUP3 GT PUSH2 0x952 JUMPI DUP2 SWAP1 PUSH2 0x135A DUP3 PUSH2 0x1351 PUSH1 0x6 DUP8 ADD SLOAD PUSH2 0x27E7 JUMP JUMPDEST PUSH1 0x6 DUP8 ADD PUSH2 0x2936 JUMP JUMPDEST PUSH1 0x20 SWAP1 PUSH1 0x1F DUP4 GT PUSH1 0x1 EQ PUSH2 0x1659 JUMPI PUSH1 0x0 SWAP3 PUSH2 0x164E JUMPI JUMPDEST POP POP DUP2 PUSH1 0x1 SHL SWAP2 PUSH1 0x0 NOT SWAP1 PUSH1 0x3 SHL SHR NOT AND OR PUSH1 0x6 DUP3 ADD SSTORE JUMPDEST PUSH1 0xE0 DUP3 ADD MLOAD DUP1 MLOAD SWAP1 PUSH1 0x1 PUSH1 0x1 PUSH1 0x40 SHL SUB DUP3 GT PUSH2 0x952 JUMPI DUP2 SWAP1 PUSH2 0x13BA DUP3 PUSH2 0x13B1 PUSH1 0x7 DUP8 ADD SLOAD PUSH2 0x27E7 JUMP JUMPDEST PUSH1 0x7 DUP8 ADD PUSH2 0x2936 JUMP JUMPDEST PUSH1 0x20 SWAP1 PUSH1 0x1F DUP4 GT PUSH1 0x1 EQ PUSH2 0x15DC JUMPI PUSH1 0x0 SWAP3 PUSH2 0x15D1 JUMPI JUMPDEST POP POP DUP2 PUSH1 0x1 SHL SWAP2 PUSH1 0x0 NOT SWAP1 PUSH1 0x3 SHL SHR NOT AND OR PUSH1 0x7 DUP3 ADD SSTORE JUMPDEST PUSH1 0x8 DUP2 ADD PUSH2 0x100 DUP4 ADD MLOAD PUSH1 0x20 DUP2 MLOAD SWAP2 PUSH2 0x1401 DUP4 DUP6 PUSH2 0x297B JUMP JUMPDEST ADD SWAP2 PUSH1 0x0 MSTORE PUSH1 0x20 PUSH1 0x0 KECCAK256 SWAP2 PUSH1 0x0 SWAP1 JUMPDEST DUP3 DUP3 LT PUSH2 0x14F4 JUMPI POP POP POP POP PUSH1 0xB PUSH1 0x9 DUP3 ADD SWAP2 PUSH1 0x1 DUP1 PUSH1 0xA0 SHL SUB PUSH2 0x120 DUP6 ADD MLOAD AND SWAP3 PUSH1 0x1 PUSH1 0x1 PUSH1 0x60 SHL SUB PUSH1 0xA0 SHL SWAP4 DUP5 DUP3 SLOAD AND OR SWAP1 SSTORE PUSH1 0xA DUP2 ADD PUSH1 0x1 DUP1 PUSH1 0xA0 SHL SUB PUSH2 0x140 DUP7 ADD MLOAD AND DUP2 SLOAD SWAP1 PUSH1 0xFF PUSH1 0xA0 SHL PUSH2 0x160 DUP9 ADD MLOAD ISZERO ISZERO PUSH1 0xA0 SHL AND SWAP1 PUSH1 0xFF PUSH1 0xA8 SHL PUSH2 0x180 DUP10 ADD MLOAD ISZERO ISZERO PUSH1 0xA8 SHL AND SWAP3 PUSH10 0xFFFFFFFFFFFFFFFFFFFF PUSH1 0xB0 SHL AND OR OR OR SWAP1 SSTORE ADD SWAP2 PUSH2 0x1A0 PUSH1 0x1 DUP1 PUSH1 0xA0 SHL SUB SWAP2 ADD MLOAD AND SWAP1 DUP3 SLOAD AND OR SWAP1 SSTORE PUSH2 0x14B3 PUSH1 0x9 SLOAD PUSH2 0x2A0B JUMP JUMPDEST PUSH1 0x9 SSTORE PUSH1 0x40 MLOAD PUSH1 0x24 CALLDATALOAD DUP2 MSTORE PUSH1 0x1 PUSH1 0x1 PUSH1 0xA0 SHL SUB SWAP1 SWAP2 AND SWAP2 CALLER SWAP2 PUSH32 0x808C887919683A350ED55B3499F97ED7F4093ECC5E131FADB8B075A85457AF3A SWAP1 PUSH1 0x20 SWAP1 LOG4 STOP JUMPDEST DUP1 MLOAD DUP1 MLOAD SWAP1 PUSH1 0x1 PUSH1 0x1 PUSH1 0x40 SHL SUB DUP3 GT PUSH2 0x952 JUMPI PUSH2 0x1515 DUP3 PUSH2 0x989 DUP9 SLOAD PUSH2 0x27E7 JUMP JUMPDEST PUSH1 0x20 SWAP1 PUSH1 0x1F DUP4 GT PUSH1 0x1 EQ PUSH2 0x1561 JUMPI SWAP3 DUP3 PUSH1 0x1 SWAP5 SWAP4 PUSH1 0x20 SWAP4 DUP7 SWAP6 PUSH1 0x0 SWAP3 PUSH2 0x1556 JUMPI JUMPDEST POP POP PUSH1 0x0 NOT PUSH1 0x3 DUP4 SWAP1 SHL SHR NOT AND SWAP1 DUP5 SHL OR DUP8 SSTORE JUMPDEST ADD SWAP5 ADD SWAP2 ADD SWAP1 SWAP3 PUSH2 0x1410 JUMP JUMPDEST ADD MLOAD SWAP1 POP DUP14 DUP1 PUSH2 0x1536 JUMP JUMPDEST SWAP1 DUP7 PUSH1 0x0 MSTORE PUSH1 0x20 PUSH1 0x0 KECCAK256 SWAP2 PUSH1 0x0 JUMPDEST PUSH1 0x1F NOT DUP6 AND DUP2 LT PUSH2 0x15B9 JUMPI POP DUP4 PUSH1 0x20 SWAP4 PUSH1 0x1 SWAP7 SWAP4 DUP8 SWAP7 SWAP4 DUP8 SWAP5 PUSH1 0x1F NOT DUP2 AND LT PUSH2 0x15A0 JUMPI JUMPDEST POP POP POP DUP2 SHL ADD DUP8 SSTORE PUSH2 0x154A JUMP JUMPDEST ADD MLOAD PUSH1 0x0 NOT PUSH1 0xF8 DUP5 PUSH1 0x3 SHL AND SHR NOT AND SWAP1 SSTORE DUP14 DUP1 DUP1 PUSH2 0x1593 JUMP JUMPDEST SWAP2 SWAP3 PUSH1 0x20 PUSH1 0x1 DUP2 SWAP3 DUP7 DUP6 ADD MLOAD DUP2 SSTORE ADD SWAP5 ADD SWAP3 ADD PUSH2 0x156F JUMP JUMPDEST ADD MLOAD SWAP1 POP DUP7 DUP1 PUSH2 0x13D0 JUMP JUMPDEST SWAP3 POP PUSH1 0x7 DUP5 ADD PUSH1 0x0 MSTORE PUSH1 0x20 PUSH1 0x0 KECCAK256 SWAP1 PUSH1 0x0 SWAP4 JUMPDEST PUSH1 0x1F NOT DUP5 AND DUP6 LT PUSH2 0x1633 JUMPI PUSH1 0x1 SWAP5 POP DUP4 PUSH1 0x1F NOT DUP2 AND LT PUSH2 0x161A JUMPI JUMPDEST POP POP POP DUP2 SHL ADD PUSH1 0x7 DUP3 ADD SSTORE PUSH2 0x13E8 JUMP JUMPDEST ADD MLOAD PUSH1 0x0 NOT PUSH1 0xF8 DUP5 PUSH1 0x3 SHL AND SHR NOT AND SWAP1 SSTORE DUP7 DUP1 DUP1 PUSH2 0x160A JUMP JUMPDEST DUP2 DUP2 ADD MLOAD DUP4 SSTORE PUSH1 0x20 SWAP5 DUP6 ADD SWAP5 PUSH1 0x1 SWAP1 SWAP4 ADD SWAP3 SWAP1 SWAP2 ADD SWAP1 PUSH2 0x15EF JUMP JUMPDEST ADD MLOAD SWAP1 POP DUP7 DUP1 PUSH2 0x1370 JUMP JUMPDEST SWAP3 POP PUSH1 0x6 DUP5 ADD PUSH1 0x0 MSTORE PUSH1 0x20 PUSH1 0x0 KECCAK256 SWAP1 PUSH1 0x0 SWAP4 JUMPDEST PUSH1 0x1F NOT DUP5 AND DUP6 LT PUSH2 0x16B0 JUMPI PUSH1 0x1 SWAP5 POP DUP4 PUSH1 0x1F NOT DUP2 AND LT PUSH2 0x1697 JUMPI JUMPDEST POP POP POP DUP2 SHL ADD PUSH1 0x6 DUP3 ADD SSTORE PUSH2 0x1388 JUMP JUMPDEST ADD MLOAD PUSH1 0x0 NOT PUSH1 0xF8 DUP5 PUSH1 0x3 SHL AND SHR NOT AND SWAP1 SSTORE DUP7 DUP1 DUP1 PUSH2 0x1687 JUMP JUMPDEST DUP2 DUP2 ADD MLOAD DUP4 SSTORE PUSH1 0x20 SWAP5 DUP6 ADD SWAP5 PUSH1 0x1 SWAP1 SWAP4 ADD SWAP3 SWAP1 SWAP2 ADD SWAP1 PUSH2 0x166C JUMP JUMPDEST ADD MLOAD SWAP1 POP DUP7 DUP1 PUSH2 0x12F2 JUMP JUMPDEST SWAP3 POP PUSH1 0x2 DUP5 ADD PUSH1 0x0 MSTORE PUSH1 0x20 PUSH1 0x0 KECCAK256 SWAP1 PUSH1 0x0 SWAP4 JUMPDEST PUSH1 0x1F NOT DUP5 AND DUP6 LT PUSH2 0x172D JUMPI PUSH1 0x1 SWAP5 POP DUP4 PUSH1 0x1F NOT DUP2 AND LT PUSH2 0x1714 JUMPI JUMPDEST POP POP POP DUP2 SHL ADD PUSH1 0x2 DUP3 ADD SSTORE PUSH2 0x130A JUMP JUMPDEST ADD MLOAD PUSH1 0x0 NOT PUSH1 0xF8 DUP5 PUSH1 0x3 SHL AND SHR NOT AND SWAP1 SSTORE DUP7 DUP1 DUP1 PUSH2 0x1704 JUMP JUMPDEST DUP2 DUP2 ADD MLOAD DUP4 SSTORE PUSH1 0x20 SWAP5 DUP6 ADD SWAP5 PUSH1 0x1 SWAP1 SWAP4 ADD SWAP3 SWAP1 SWAP2 ADD SWAP1 PUSH2 0x16E9 JUMP JUMPDEST ADD MLOAD SWAP1 POP DUP7 DUP1 PUSH2 0x1292 JUMP JUMPDEST SWAP3 POP PUSH1 0x1 DUP5 ADD PUSH1 0x0 MSTORE PUSH1 0x20 PUSH1 0x0 KECCAK256 SWAP1 PUSH1 0x0 SWAP4 JUMPDEST PUSH1 0x1F NOT DUP5 AND DUP6 LT PUSH2 0x17AA JUMPI PUSH1 0x1 SWAP5 POP DUP4 PUSH1 0x1F NOT DUP2 AND LT PUSH2 0x1791 JUMPI JUMPDEST POP POP POP DUP2 SHL ADD PUSH1 0x1 DUP3 ADD SSTORE PUSH2 0x12AA JUMP JUMPDEST ADD MLOAD PUSH1 0x0 NOT PUSH1 0xF8 DUP5 PUSH1 0x3 SHL AND SHR NOT AND SWAP1 SSTORE DUP7 DUP1 DUP1 PUSH2 0x1781 JUMP JUMPDEST DUP2 DUP2 ADD MLOAD DUP4 SSTORE PUSH1 0x20 SWAP5 DUP6 ADD SWAP5 PUSH1 0x1 SWAP1 SWAP4 ADD SWAP3 SWAP1 SWAP2 ADD SWAP1 PUSH2 0x1766 JUMP JUMPDEST PUSH1 0x40 MLOAD PUSH3 0x461BCD PUSH1 0xE5 SHL DUP2 MSTORE PUSH1 0x20 PUSH1 0x4 DUP3 ADD MSTORE PUSH1 0x31 PUSH1 0x24 DUP3 ADD MSTORE PUSH32 0x5468652053746172742074696D65206D757374206265206561726C6965722074 PUSH1 0x44 DUP3 ADD MSTORE PUSH17 0x3430B7103A34329032B732103A34B6B297 PUSH1 0x79 SHL PUSH1 0x64 DUP3 ADD MSTORE PUSH1 0x84 SWAP1 REVERT JUMPDEST PUSH1 0x40 MLOAD PUSH3 0x461BCD PUSH1 0xE5 SHL DUP2 MSTORE PUSH1 0x20 PUSH1 0x4 DUP3 ADD MSTORE PUSH1 0x2D PUSH1 0x24 DUP3 ADD MSTORE PUSH32 0x546865204554482073656E7420646F6573206E6F74206D617463682074686520 PUSH1 0x44 DUP3 ADD MSTORE PUSH13 0x70726F6772616D207072696365 PUSH1 0x98 SHL PUSH1 0x64 DUP3 ADD MSTORE PUSH1 0x84 SWAP1 REVERT JUMPDEST CALLVALUE PUSH2 0x2CC JUMPI PUSH1 0x0 CALLDATASIZE PUSH1 0x3 NOT ADD SLT PUSH2 0x2CC JUMPI PUSH1 0x0 SLOAD PUSH1 0x40 MLOAD PUSH1 0x1 PUSH1 0x1 PUSH1 0xA0 SHL SUB SWAP1 SWAP2 AND DUP2 MSTORE PUSH1 0x20 SWAP1 RETURN JUMPDEST CALLVALUE PUSH2 0x2CC JUMPI PUSH1 0xA0 CALLDATASIZE PUSH1 0x3 NOT ADD SLT PUSH2 0x2CC JUMPI PUSH1 0x24 CALLDATALOAD PUSH1 0x1 PUSH1 0x1 PUSH1 0xA0 SHL SUB PUSH1 0x4 CALLDATALOAD PUSH1 0x84 CALLDATALOAD DUP3 DUP2 AND SWAP1 PUSH1 0x64 CALLDATALOAD SWAP1 PUSH1 0x44 CALLDATALOAD SWAP1 DUP4 SWAP1 SUB PUSH2 0x2CC JUMPI DUP4 PUSH1 0x0 MSTORE PUSH1 0x2 PUSH1 0x20 MSTORE PUSH1 0x40 PUSH1 0x0 KECCAK256 SWAP5 PUSH1 0x9 DUP7 ADD SLOAD AND CALLER SUB PUSH2 0x19D7 JUMPI DUP2 DUP2 LT ISZERO PUSH2 0x19A3 JUMPI DUP6 ISZERO PUSH2 0x196E JUMPI DUP6 PUSH1 0xA DUP7 PUSH32 0xE3D59D03839A10C8A5A85DD0D7E5A4AC45445821C5176529D2745ADF6915A161 SWAP9 PUSH1 0x3 PUSH1 0xA0 SWAP10 ADD SSTORE DUP4 PUSH1 0x4 DUP3 ADD SSTORE DUP5 PUSH1 0x5 DUP3 ADD SSTORE ADD DUP5 PUSH1 0x1 PUSH1 0x1 PUSH1 0x60 SHL SUB DUP9 SHL DUP3 SLOAD AND OR SWAP1 SSTORE PUSH1 0x40 MLOAD SWAP5 DUP6 MSTORE PUSH1 0x20 DUP6 ADD MSTORE PUSH1 0x40 DUP5 ADD MSTORE PUSH1 0x60 DUP4 ADD MSTORE PUSH1 0x80 DUP3 ADD MSTORE LOG1 STOP JUMPDEST PUSH1 0x40 MLOAD PUSH3 0x461BCD PUSH1 0xE5 SHL DUP2 MSTORE PUSH1 0x20 PUSH1 0x4 DUP3 ADD MSTORE PUSH1 0xD PUSH1 0x24 DUP3 ADD MSTORE PUSH13 0x496E76616C6964207072696365 PUSH1 0x98 SHL PUSH1 0x44 DUP3 ADD MSTORE PUSH1 0x64 SWAP1 REVERT JUMPDEST PUSH1 0x40 MLOAD PUSH3 0x461BCD PUSH1 0xE5 SHL DUP2 MSTORE PUSH1 0x20 PUSH1 0x4 DUP3 ADD MSTORE PUSH1 0xC PUSH1 0x24 DUP3 ADD MSTORE PUSH12 0x496E76616C69642074696D65 PUSH1 0xA0 SHL PUSH1 0x44 DUP3 ADD MSTORE PUSH1 0x64 SWAP1 REVERT JUMPDEST PUSH1 0x40 MLOAD PUSH3 0x461BCD PUSH1 0xE5 SHL DUP2 MSTORE PUSH1 0x20 PUSH1 0x4 DUP3 ADD MSTORE PUSH1 0xC PUSH1 0x24 DUP3 ADD MSTORE PUSH12 0x27B7363C9031B932B0BA37B9 PUSH1 0xA1 SHL PUSH1 0x44 DUP3 ADD MSTORE PUSH1 0x64 SWAP1 REVERT JUMPDEST CALLVALUE PUSH2 0x2CC JUMPI PUSH1 0x20 CALLDATASIZE PUSH1 0x3 NOT ADD SLT PUSH2 0x2CC JUMPI PUSH1 0x4 CALLDATALOAD PUSH1 0x0 MSTORE PUSH1 0x8 PUSH1 0x20 MSTORE PUSH1 0x20 PUSH1 0x40 PUSH1 0x0 KECCAK256 SLOAD PUSH1 0x40 MLOAD SWAP1 DUP2 MSTORE RETURN JUMPDEST CALLVALUE PUSH2 0x2CC JUMPI PUSH2 0x1A45 CALLDATASIZE PUSH2 0x25E6 JUMP JUMPDEST SWAP1 PUSH1 0x0 MSTORE PUSH1 0x3 PUSH1 0x20 MSTORE PUSH1 0x40 PUSH1 0x0 KECCAK256 SWAP1 DUP2 SLOAD DUP2 LT ISZERO PUSH2 0x2CC JUMPI PUSH2 0x1A66 SWAP2 PUSH2 0x2677 JUMP JUMPDEST POP DUP1 SLOAD PUSH1 0xFF PUSH1 0x5 PUSH1 0x1 DUP1 PUSH1 0xA0 SHL SUB PUSH1 0x1 DUP6 ADD SLOAD AND SWAP4 ADD SLOAD AND SWAP2 PUSH1 0x40 MLOAD SWAP2 DUP3 MSTORE PUSH1 0x20 DUP3 ADD MSTORE PUSH1 0x3 DUP3 LT ISZERO PUSH2 0x90B JUMPI PUSH1 0x60 SWAP2 PUSH1 0x40 DUP3 ADD MSTORE RETURN JUMPDEST CALLVALUE PUSH2 0x2CC JUMPI PUSH1 0x0 CALLDATASIZE PUSH1 0x3 NOT ADD SLT PUSH2 0x2CC JUMPI PUSH2 0x1AB6 PUSH2 0x28C7 JUMP JUMPDEST PUSH1 0x0 DUP1 SLOAD PUSH1 0x1 PUSH1 0x1 PUSH1 0xA0 SHL SUB NOT DUP2 AND DUP3 SSTORE PUSH1 0x1 PUSH1 0x1 PUSH1 0xA0 SHL SUB AND PUSH32 0x8BE0079C531659141344CD1FD0A4F28419497F9722A3DAAFE3B4186F6B6457E0 DUP3 DUP1 LOG3 STOP JUMPDEST CALLVALUE PUSH2 0x2CC JUMPI PUSH1 0x20 CALLDATASIZE PUSH1 0x3 NOT ADD SLT PUSH2 0x2CC JUMPI PUSH32 0x8C4D35E54A3F2EF1134138FD8EA3DAEE6A3C89E10D2665996BABDF70261E2C76 PUSH1 0x20 PUSH1 0x4 CALLDATALOAD PUSH2 0x1B35 PUSH2 0x28C7 JUMP JUMPDEST DUP1 PUSH1 0xA SSTORE PUSH1 0x40 MLOAD SWAP1 DUP2 MSTORE LOG1 STOP JUMPDEST CALLVALUE PUSH2 0x2CC JUMPI PUSH2 0x1B50 CALLDATASIZE PUSH2 0x25E6 JUMP JUMPDEST SWAP1 PUSH1 0x0 MSTORE PUSH1 0x5 PUSH1 0x20 MSTORE PUSH1 0x40 PUSH1 0x0 KECCAK256 DUP1 SLOAD DUP3 LT ISZERO PUSH2 0x2CC JUMPI PUSH1 0x20 SWAP2 PUSH2 0x1B73 SWAP2 PUSH2 0x2649 JUMP JUMPDEST SWAP1 SLOAD PUSH1 0x40 MLOAD SWAP2 PUSH1 0x3 SHL SHR DUP2 MSTORE RETURN JUMPDEST CALLVALUE PUSH2 0x2CC JUMPI PUSH1 0x60 CALLDATASIZE PUSH1 0x3 NOT ADD SLT PUSH2 0x2CC JUMPI PUSH1 0x44 CALLDATALOAD DUP1 ISZERO ISZERO DUP2 SUB PUSH2 0x2CC JUMPI PUSH1 0x4 CALLDATALOAD PUSH1 0x0 MSTORE PUSH1 0x2 PUSH1 0x20 MSTORE PUSH1 0x40 PUSH1 0x0 KECCAK256 PUSH2 0x1BC5 PUSH1 0x1 DUP1 PUSH1 0xA0 SHL SUB PUSH1 0xA DUP4 ADD SLOAD AND CALLER EQ PUSH2 0x2A1A JUMP JUMPDEST PUSH1 0x4 CALLDATALOAD PUSH1 0x0 MSTORE PUSH1 0x3 PUSH1 0x20 MSTORE PUSH1 0x40 PUSH1 0x0 KECCAK256 SWAP1 PUSH1 0x0 SWAP2 PUSH1 0x0 JUMPDEST DUP2 SLOAD DUP2 LT ISZERO PUSH2 0x224C JUMPI PUSH2 0x1BEF DUP2 DUP4 PUSH2 0x2677 JUMP JUMPDEST POP SLOAD PUSH1 0x24 CALLDATALOAD EQ PUSH2 0x1C07 JUMPI PUSH2 0x1C02 SWAP1 PUSH2 0x2A0B JUMP JUMPDEST PUSH2 0x1BDC JUMP JUMPDEST DUP1 SWAP4 POP PUSH2 0x1C13 SWAP2 PUSH2 0x2677 JUMP JUMPDEST POP SWAP3 PUSH1 0x5 DUP5 ADD SLOAD SWAP1 PUSH1 0xFF DUP3 AND PUSH1 0x3 DUP2 LT ISZERO PUSH2 0x90B JUMPI PUSH2 0x2213 JUMPI ISZERO PUSH2 0x21FE JUMPI POP PUSH1 0xB DUP2 ADD SLOAD PUSH1 0x1 PUSH1 0x1 PUSH1 0xA0 SHL SUB AND PUSH2 0x21C6 JUMPI PUSH1 0x5 DUP4 ADD DUP1 SLOAD PUSH1 0xFF NOT AND PUSH1 0x2 SWAP1 DUP2 OR SWAP1 SWAP2 SSTORE PUSH1 0x1 DUP5 ADD SLOAD PUSH1 0xB DUP4 ADD DUP1 SLOAD PUSH1 0x1 PUSH1 0x1 PUSH1 0xA0 SHL SUB NOT AND PUSH1 0x1 PUSH1 0x1 PUSH1 0xA0 SHL SUB SWAP3 SWAP1 SWAP3 AND SWAP2 SWAP1 SWAP2 OR SWAP1 SSTORE PUSH1 0xA SWAP1 SWAP2 ADD DUP1 SLOAD PUSH1 0xFF PUSH1 0xA0 SHL NOT AND PUSH1 0x1 PUSH1 0xA0 SHL OR SWAP1 SSTORE PUSH1 0x4 CALLDATALOAD PUSH1 0x0 SWAP1 DUP2 MSTORE PUSH1 0x6 PUSH1 0x20 MSTORE PUSH1 0x40 SWAP1 KECCAK256 SWAP2 SWAP1 SWAP2 SSTORE DUP2 ADD SLOAD SWAP1 PUSH2 0x1CB5 DUP3 PUSH2 0x2731 JUMP JUMPDEST SWAP2 PUSH2 0x1CC3 PUSH1 0x40 MLOAD SWAP4 DUP5 PUSH2 0x26AE JUMP JUMPDEST DUP1 DUP4 MSTORE PUSH2 0x1CD2 PUSH1 0x1F NOT SWAP2 PUSH2 0x2731 JUMP JUMPDEST ADD CALLDATASIZE PUSH1 0x20 DUP5 ADD CALLDATACOPY PUSH1 0x0 JUMPDEST PUSH1 0x2 DUP3 ADD SLOAD DUP2 LT ISZERO PUSH2 0x20FC JUMPI PUSH1 0x4 CALLDATALOAD PUSH1 0x0 MSTORE PUSH1 0x8 PUSH1 0x20 MSTORE PUSH1 0x40 PUSH1 0x0 KECCAK256 SWAP1 DUP2 SLOAD SWAP2 PUSH2 0x1D05 DUP4 PUSH2 0x2A0B JUMP JUMPDEST SWAP1 SSTORE PUSH2 0x1D14 DUP2 PUSH1 0x2 DUP6 ADD PUSH2 0x2649 JUMP JUMPDEST POP PUSH2 0x1D22 DUP3 PUSH1 0x3 DUP7 ADD PUSH2 0x2649 JUMP JUMPDEST POP PUSH2 0x1D30 DUP4 PUSH1 0x4 DUP8 ADD PUSH2 0x2649 JUMP JUMPDEST SWAP1 SLOAD SWAP1 PUSH1 0x3 SHL SHR PUSH1 0x40 MLOAD SWAP1 DUP2 PUSH1 0x20 DUP2 ADD LT PUSH1 0x1 PUSH1 0x1 PUSH1 0x40 SHL SUB PUSH1 0x20 DUP5 ADD GT OR PUSH2 0x952 JUMPI PUSH1 0x20 DUP3 ADD PUSH1 0x40 MSTORE PUSH1 0x0 DUP3 MSTORE PUSH2 0x1D86 PUSH2 0x1D79 PUSH1 0x40 MLOAD SWAP6 PUSH2 0x1D71 DUP8 PUSH2 0x2693 JUMP JUMPDEST DUP9 DUP8 MSTORE PUSH2 0x2821 JUMP JUMPDEST SWAP4 PUSH1 0x20 DUP7 ADD SWAP5 DUP6 MSTORE PUSH2 0x2821 JUMP JUMPDEST PUSH1 0x40 DUP6 ADD MSTORE PUSH1 0x60 DUP5 ADD MSTORE PUSH1 0x0 PUSH1 0x80 DUP5 ADD MSTORE PUSH1 0xA0 DUP4 ADD MSTORE PUSH1 0x4 CALLDATALOAD PUSH1 0x0 MSTORE PUSH1 0x4 PUSH1 0x20 MSTORE PUSH1 0x40 PUSH1 0x0 KECCAK256 DUP5 PUSH1 0x0 MSTORE PUSH1 0x20 MSTORE PUSH1 0x40 PUSH1 0x0 KECCAK256 SWAP1 DUP3 MLOAD DUP3 SSTORE MLOAD DUP1 MLOAD SWAP1 PUSH1 0x1 PUSH1 0x1 PUSH1 0x40 SHL SUB DUP3 GT PUSH2 0x952 JUMPI DUP2 SWAP1 PUSH2 0x1DE2 DUP3 PUSH2 0x1273 PUSH1 0x1 DUP8 ADD SLOAD PUSH2 0x27E7 JUMP JUMPDEST PUSH1 0x20 SWAP1 PUSH1 0x1F DUP4 GT PUSH1 0x1 EQ PUSH2 0x208A JUMPI PUSH1 0x0 SWAP3 PUSH2 0x207F JUMPI JUMPDEST POP POP DUP2 PUSH1 0x1 SHL SWAP2 PUSH1 0x0 NOT SWAP1 PUSH1 0x3 SHL SHR NOT AND OR PUSH1 0x1 DUP3 ADD SSTORE JUMPDEST PUSH1 0x40 DUP3 ADD MLOAD DUP1 MLOAD SWAP1 PUSH1 0x1 PUSH1 0x1 PUSH1 0x40 SHL SUB DUP3 GT PUSH2 0x952 JUMPI DUP2 SWAP1 PUSH2 0x1E39 DUP3 PUSH2 0x12D3 PUSH1 0x2 DUP8 ADD SLOAD PUSH2 0x27E7 JUMP JUMPDEST PUSH1 0x20 SWAP1 PUSH1 0x1F DUP4 GT PUSH1 0x1 EQ PUSH2 0x200D JUMPI PUSH1 0x0 SWAP3 PUSH2 0x2002 JUMPI JUMPDEST POP POP DUP2 PUSH1 0x1 SHL SWAP2 PUSH1 0x0 NOT SWAP1 PUSH1 0x3 SHL SHR NOT AND OR PUSH1 0x2 DUP3 ADD SSTORE JUMPDEST PUSH1 0x60 DUP3 ADD MLOAD PUSH1 0x3 DUP3 ADD SSTORE PUSH1 0x80 DUP3 ADD MLOAD PUSH1 0x4 DUP2 LT ISZERO PUSH2 0x90B JUMPI DUP2 PUSH1 0x5 SWAP2 PUSH1 0x4 PUSH1 0xA0 SWAP5 ADD SWAP1 PUSH1 0xFF DUP1 NOT DUP4 SLOAD AND SWAP2 AND OR SWAP1 SSTORE ADD SWAP2 ADD MLOAD PUSH1 0x20 DUP2 MLOAD SWAP2 PUSH2 0x1EA9 DUP4 DUP6 PUSH2 0x297B JUMP JUMPDEST ADD SWAP2 PUSH1 0x0 MSTORE PUSH1 0x20 PUSH1 0x0 KECCAK256 PUSH1 0x0 SWAP3 JUMPDEST DUP3 DUP5 LT PUSH2 0x1F1F JUMPI POP POP POP POP PUSH1 0x4 CALLDATALOAD PUSH1 0x0 MSTORE PUSH1 0x5 PUSH1 0x20 MSTORE PUSH1 0x40 PUSH1 0x0 KECCAK256 SWAP2 DUP3 SLOAD SWAP3 PUSH1 0x1 PUSH1 0x40 SHL DUP5 LT ISZERO PUSH2 0x952 JUMPI DUP4 PUSH2 0x1EF5 SWAP2 PUSH1 0x1 PUSH2 0x1F1A SWAP7 ADD DUP2 SSTORE PUSH2 0x2649 JUMP JUMPDEST DUP2 SLOAD SWAP1 PUSH1 0x3 SHL SWAP1 DUP4 DUP3 SHL SWAP2 PUSH1 0x0 NOT SWAP1 SHL NOT AND OR SWAP1 SSTORE PUSH2 0x1F14 DUP3 DUP7 PUSH2 0x2AD1 JUMP JUMPDEST MSTORE PUSH2 0x2A0B JUMP JUMPDEST PUSH2 0x1CDC JUMP JUMPDEST DUP1 MLOAD DUP1 MLOAD SWAP1 PUSH1 0x1 PUSH1 0x1 PUSH1 0x40 SHL SUB DUP3 GT PUSH2 0x952 JUMPI PUSH2 0x1F46 DUP3 PUSH2 0x1F40 DUP7 SLOAD PUSH2 0x27E7 JUMP JUMPDEST DUP7 PUSH2 0x2936 JUMP JUMPDEST PUSH1 0x20 SWAP1 PUSH1 0x1F DUP4 GT PUSH1 0x1 EQ PUSH2 0x1F92 JUMPI SWAP3 DUP3 PUSH1 0x1 SWAP5 SWAP4 PUSH1 0x20 SWAP4 DUP7 SWAP6 PUSH1 0x0 SWAP3 PUSH2 0x1F87 JUMPI JUMPDEST POP POP PUSH1 0x0 NOT PUSH1 0x3 DUP4 SWAP1 SHL SHR NOT AND SWAP1 DUP5 SHL OR DUP6 SSTORE JUMPDEST ADD SWAP3 ADD SWAP4 ADD SWAP3 SWAP1 PUSH2 0x1EB7 JUMP JUMPDEST ADD MLOAD SWAP1 POP DUP14 DUP1 PUSH2 0x1F67 JUMP JUMPDEST SWAP1 DUP5 PUSH1 0x0 MSTORE PUSH1 0x20 PUSH1 0x0 KECCAK256 SWAP2 PUSH1 0x0 JUMPDEST PUSH1 0x1F NOT DUP6 AND DUP2 LT PUSH2 0x1FEA JUMPI POP DUP4 PUSH1 0x20 SWAP4 PUSH1 0x1 SWAP7 SWAP4 DUP8 SWAP7 SWAP4 DUP8 SWAP5 PUSH1 0x1F NOT DUP2 AND LT PUSH2 0x1FD1 JUMPI JUMPDEST POP POP POP DUP2 SHL ADD DUP6 SSTORE PUSH2 0x1F7B JUMP JUMPDEST ADD MLOAD PUSH1 0x0 NOT PUSH1 0xF8 DUP5 PUSH1 0x3 SHL AND SHR NOT AND SWAP1 SSTORE DUP14 DUP1 DUP1 PUSH2 0x1FC4 JUMP JUMPDEST SWAP2 SWAP3 PUSH1 0x20 PUSH1 0x1 DUP2 SWAP3 DUP7 DUP6 ADD MLOAD DUP2 SSTORE ADD SWAP5 ADD SWAP3 ADD PUSH2 0x1FA0 JUMP JUMPDEST ADD MLOAD SWAP1 POP DUP9 DUP1 PUSH2 0x1E4F JUMP JUMPDEST SWAP3 POP PUSH1 0x2 DUP5 ADD PUSH1 0x0 MSTORE PUSH1 0x20 PUSH1 0x0 KECCAK256 SWAP1 PUSH1 0x0 SWAP4 JUMPDEST PUSH1 0x1F NOT DUP5 AND DUP6 LT PUSH2 0x2064 JUMPI PUSH1 0x1 SWAP5 POP DUP4 PUSH1 0x1F NOT DUP2 AND LT PUSH2 0x204B JUMPI JUMPDEST POP POP POP DUP2 SHL ADD PUSH1 0x2 DUP3 ADD SSTORE PUSH2 0x1E67 JUMP JUMPDEST ADD MLOAD PUSH1 0x0 NOT PUSH1 0xF8 DUP5 PUSH1 0x3 SHL AND SHR NOT AND SWAP1 SSTORE DUP9 DUP1 DUP1 PUSH2 0x203B JUMP JUMPDEST DUP2 DUP2 ADD MLOAD DUP4 SSTORE PUSH1 0x20 SWAP5 DUP6 ADD SWAP5 PUSH1 0x1 SWAP1 SWAP4 ADD SWAP3 SWAP1 SWAP2 ADD SWAP1 PUSH2 0x2020 JUMP JUMPDEST ADD MLOAD SWAP1 POP DUP9 DUP1 PUSH2 0x1DF8 JUMP JUMPDEST SWAP3 POP PUSH1 0x1 DUP5 ADD PUSH1 0x0 MSTORE PUSH1 0x20 PUSH1 0x0 KECCAK256 SWAP1 PUSH1 0x0 SWAP4 JUMPDEST PUSH1 0x1F NOT DUP5 AND DUP6 LT PUSH2 0x20E1 JUMPI PUSH1 0x1 SWAP5 POP DUP4 PUSH1 0x1F NOT DUP2 AND LT PUSH2 0x20C8 JUMPI JUMPDEST POP POP POP DUP2 SHL ADD PUSH1 0x1 DUP3 ADD SSTORE PUSH2 0x1E10 JUMP JUMPDEST ADD MLOAD PUSH1 0x0 NOT PUSH1 0xF8 DUP5 PUSH1 0x3 SHL AND SHR NOT AND SWAP1 SSTORE DUP9 DUP1 DUP1 PUSH2 0x20B8 JUMP JUMPDEST DUP2 DUP2 ADD MLOAD DUP4 SSTORE PUSH1 0x20 SWAP5 DUP6 ADD SWAP5 PUSH1 0x1 SWAP1 SWAP4 ADD SWAP3 SWAP1 SWAP2 ADD SWAP1 PUSH2 0x209D JUMP JUMPDEST POP PUSH1 0x1 DUP1 DUP1 PUSH1 0xA0 SHL SUB SWAP2 ADD SLOAD AND PUSH1 0x40 MLOAD SWAP1 PUSH1 0x60 DUP3 ADD SWAP1 PUSH1 0x24 CALLDATALOAD DUP4 MSTORE PUSH1 0x20 DUP4 ADD MSTORE PUSH1 0x60 PUSH1 0x40 DUP4 ADD MSTORE DUP3 MLOAD DUP1 SWAP2 MSTORE PUSH1 0x20 PUSH1 0x80 DUP4 ADD SWAP4 ADD SWAP1 PUSH1 0x0 JUMPDEST DUP2 DUP2 LT PUSH2 0x21B0 JUMPI POP POP POP DUP1 PUSH32 0x284AA8037C280E35F0609D480C6B37226BB54C7482D25EFB48FFE0DCE5B6F083 SWAP2 PUSH1 0x4 CALLDATALOAD SWAP4 SUB SWAP1 LOG2 JUMPDEST PUSH1 0x1 JUMPDEST ISZERO PUSH2 0x2173 JUMPI STOP JUMPDEST PUSH1 0x40 MLOAD PUSH3 0x461BCD PUSH1 0xE5 SHL DUP2 MSTORE PUSH1 0x20 PUSH1 0x4 DUP3 ADD MSTORE PUSH1 0x15 PUSH1 0x24 DUP3 ADD MSTORE PUSH21 0x105C1C1B1A58D85D1A5BDB881B9BDD08199BDD5B99 PUSH1 0x5A SHL PUSH1 0x44 DUP3 ADD MSTORE PUSH1 0x64 SWAP1 REVERT JUMPDEST DUP3 MLOAD DUP6 MSTORE PUSH1 0x20 SWAP5 DUP6 ADD SWAP5 SWAP1 SWAP3 ADD SWAP2 PUSH1 0x1 ADD PUSH2 0x2134 JUMP JUMPDEST PUSH1 0x40 MLOAD PUSH3 0x461BCD PUSH1 0xE5 SHL DUP2 MSTORE PUSH1 0x20 PUSH1 0x4 DUP3 ADD MSTORE PUSH1 0x10 PUSH1 0x24 DUP3 ADD MSTORE PUSH16 0x105B1C9958591E481CD95B1958DD1959 PUSH1 0x82 SHL PUSH1 0x44 DUP3 ADD MSTORE PUSH1 0x64 SWAP1 REVERT JUMPDEST PUSH1 0x5 SWAP3 POP PUSH1 0x1 SWAP2 POP PUSH1 0xFF NOT AND OR SWAP2 ADD SSTORE PUSH2 0x2169 JUMP JUMPDEST PUSH1 0x40 MLOAD PUSH3 0x461BCD PUSH1 0xE5 SHL DUP2 MSTORE PUSH1 0x20 PUSH1 0x4 DUP3 ADD MSTORE PUSH1 0x11 PUSH1 0x24 DUP3 ADD MSTORE PUSH17 0x105B1C9958591E48195D985B1D585D1959 PUSH1 0x7A SHL PUSH1 0x44 DUP3 ADD MSTORE PUSH1 0x64 SWAP1 REVERT JUMPDEST POP POP POP SWAP1 POP PUSH2 0x216C JUMP JUMPDEST CALLVALUE PUSH2 0x2CC JUMPI PUSH1 0x20 DUP1 PUSH1 0x3 NOT CALLDATASIZE ADD SLT PUSH2 0x2CC JUMPI PUSH1 0x4 CALLDATALOAD DUP1 PUSH1 0x0 MSTORE PUSH1 0x5 DUP1 DUP4 MSTORE PUSH1 0x40 PUSH1 0x0 KECCAK256 SWAP3 PUSH1 0x40 MLOAD DUP1 DUP3 DUP7 SLOAD SWAP2 DUP3 DUP2 MSTORE ADD SWAP6 PUSH1 0x0 MSTORE DUP3 PUSH1 0x0 KECCAK256 SWAP1 PUSH1 0x0 JUMPDEST DUP2 DUP2 LT PUSH2 0x252F JUMPI POP POP POP PUSH2 0x22AC DUP2 PUSH2 0x22D4 SWAP6 SWAP7 SUB DUP3 PUSH2 0x26AE JUMP JUMPDEST DUP1 MLOAD SWAP5 PUSH2 0x22B8 DUP7 PUSH2 0x2731 JUMP JUMPDEST SWAP6 PUSH2 0x22C6 PUSH1 0x40 MLOAD SWAP8 DUP9 PUSH2 0x26AE JUMP JUMPDEST DUP1 DUP8 MSTORE PUSH1 0x1F NOT SWAP6 DUP7 SWAP2 PUSH2 0x2731 JUMP JUMPDEST ADD DUP4 PUSH1 0x0 JUMPDEST DUP3 DUP2 LT PUSH2 0x24F2 JUMPI POP POP POP PUSH1 0x0 JUMPDEST DUP3 MLOAD DUP2 LT ISZERO PUSH2 0x23E9 JUMPI DUP2 PUSH1 0x0 MSTORE PUSH1 0x4 DUP5 MSTORE PUSH1 0x40 PUSH1 0x0 KECCAK256 PUSH2 0x2306 DUP3 DUP6 PUSH2 0x2AD1 JUMP JUMPDEST MLOAD PUSH1 0x0 MSTORE DUP5 MSTORE PUSH1 0x40 PUSH1 0x0 KECCAK256 PUSH1 0x40 MLOAD SWAP1 PUSH2 0x231E DUP3 PUSH2 0x2693 JUMP JUMPDEST DUP1 SLOAD DUP3 MSTORE PUSH1 0x1 SWAP1 PUSH2 0x2330 DUP3 DUP3 ADD PUSH2 0x2821 JUMP JUMPDEST DUP8 DUP5 ADD MSTORE PUSH2 0x2340 PUSH1 0x2 DUP3 ADD PUSH2 0x2821 JUMP JUMPDEST PUSH1 0x40 DUP5 ADD MSTORE PUSH1 0x3 DUP2 ADD SLOAD PUSH1 0x60 DUP5 ADD MSTORE PUSH1 0xFF PUSH1 0x4 DUP3 ADD SLOAD AND SWAP1 PUSH1 0x4 DUP3 LT ISZERO PUSH2 0x90B JUMPI DUP9 SWAP2 PUSH1 0x80 DUP6 ADD MSTORE ADD SWAP1 DUP2 SLOAD PUSH2 0x2375 DUP2 PUSH2 0x2731 JUMP JUMPDEST SWAP3 PUSH2 0x2383 PUSH1 0x40 MLOAD SWAP5 DUP6 PUSH2 0x26AE JUMP JUMPDEST DUP2 DUP5 MSTORE PUSH1 0x0 SWAP1 DUP2 MSTORE DUP9 DUP2 KECCAK256 SWAP1 DUP10 DUP1 DUP7 ADD JUMPDEST DUP5 DUP4 LT PUSH2 0x23CC JUMPI POP POP POP POP POP POP SWAP1 PUSH2 0x23C7 SWAP3 SWAP2 PUSH1 0xA0 DUP3 ADD MSTORE PUSH2 0x23B6 DUP3 DUP11 PUSH2 0x2AD1 JUMP JUMPDEST MSTORE PUSH2 0x23C1 DUP2 DUP10 PUSH2 0x2AD1 JUMP JUMPDEST POP PUSH2 0x2A0B JUMP JUMPDEST PUSH2 0x22E6 JUMP JUMPDEST DUP6 SWAP2 DUP3 SWAP2 PUSH2 0x23D9 DUP7 PUSH2 0x2821 JUMP JUMPDEST DUP2 MSTORE ADD SWAP4 ADD SWAP2 ADD SWAP1 SWAP2 DUP11 SWAP1 PUSH2 0x2394 JUMP JUMPDEST POP POP POP SWAP2 SWAP3 SWAP1 PUSH1 0x40 MLOAD SWAP3 DUP1 DUP5 ADD SWAP2 DUP2 DUP6 MSTORE DUP4 MLOAD DUP1 SWAP4 MSTORE PUSH1 0x40 DUP6 ADD DUP3 PUSH1 0x40 DUP6 DUP5 SHL DUP9 ADD ADD SWAP6 ADD SWAP7 PUSH1 0x0 SWAP3 JUMPDEST DUP6 DUP5 LT PUSH2 0x2420 JUMPI DUP8 DUP8 SUB DUP9 RETURN JUMPDEST SWAP1 SWAP2 SWAP3 SWAP4 DUP1 SWAP6 SWAP7 PUSH1 0x3F NOT DUP10 DUP3 SUB ADD DUP6 MSTORE DUP10 MLOAD SWAP1 DUP2 MLOAD DUP2 MSTORE PUSH2 0x2462 PUSH2 0x2450 DUP5 DUP5 ADD MLOAD PUSH1 0xC0 DUP1 DUP8 DUP7 ADD MSTORE DUP5 ADD SWAP1 PUSH2 0x25FC JUMP JUMPDEST PUSH1 0x40 DUP5 ADD MLOAD DUP4 DUP3 SUB PUSH1 0x40 DUP6 ADD MSTORE PUSH2 0x25FC JUMP JUMPDEST SWAP1 PUSH1 0x60 DUP1 DUP5 ADD MLOAD SWAP1 DUP3 ADD MSTORE PUSH2 0x247F PUSH1 0x80 DUP1 DUP6 ADD MLOAD SWAP1 DUP4 ADD SWAP1 PUSH2 0x263C JUMP JUMPDEST PUSH1 0xA0 DUP1 SWAP4 ADD MLOAD SWAP3 DUP2 DUP4 SUB SWAP2 ADD MSTORE DUP2 MLOAD DUP1 DUP3 MSTORE DUP4 DUP3 ADD SWAP1 DUP5 DUP1 DUP3 DUP9 SHL DUP6 ADD ADD SWAP5 ADD SWAP3 PUSH1 0x0 JUMPDEST DUP3 DUP2 LT PUSH2 0x24C6 JUMPI POP POP POP POP POP SWAP1 DUP1 PUSH1 0x1 SWAP3 SWAP11 ADD SWAP5 ADD SWAP5 ADD SWAP3 SWAP8 SWAP6 SWAP5 SWAP4 SWAP2 SWAP1 PUSH2 0x2413 JUMP JUMPDEST SWAP2 SWAP4 SWAP6 DUP1 PUSH2 0x24E0 DUP8 DUP12 DUP6 PUSH1 0x1 SWAP7 SWAP9 SWAP11 SUB ADD DUP10 MSTORE DUP10 MLOAD PUSH2 0x25FC JUMP JUMPDEST SWAP8 ADD SWAP6 ADD SWAP2 ADD SWAP2 DUP11 SWAP6 SWAP5 SWAP4 SWAP2 SWAP3 PUSH2 0x24A3 JUMP JUMPDEST PUSH1 0x40 MLOAD PUSH2 0x24FE DUP2 PUSH2 0x2693 JUMP JUMPDEST PUSH1 0x0 DUP2 MSTORE PUSH1 0x60 DUP1 DUP5 DUP4 ADD MSTORE DUP1 PUSH1 0x40 DUP4 ADD MSTORE PUSH1 0x0 DUP2 DUP4 ADD MSTORE PUSH1 0x0 PUSH1 0x80 DUP4 ADD MSTORE PUSH1 0xA0 DUP3 ADD MSTORE DUP3 DUP3 DUP12 ADD ADD MSTORE ADD DUP5 SWAP1 PUSH2 0x22D9 JUMP JUMPDEST DUP3 SLOAD DUP9 MSTORE SWAP7 DUP5 ADD SWAP7 PUSH1 0x1 SWAP3 DUP4 ADD SWAP3 ADD PUSH2 0x2292 JUMP JUMPDEST CALLVALUE PUSH2 0x2CC JUMPI PUSH2 0x2551 CALLDATASIZE PUSH2 0x25E6 JUMP JUMPDEST DUP2 PUSH1 0x0 MSTORE PUSH1 0x2 PUSH1 0x20 MSTORE PUSH2 0x2575 PUSH1 0x1 DUP1 PUSH1 0xA0 SHL SUB PUSH1 0xA PUSH1 0x40 PUSH1 0x0 KECCAK256 ADD SLOAD AND CALLER EQ PUSH2 0x2A1A JUMP JUMPDEST DUP2 PUSH1 0x0 MSTORE PUSH1 0x4 PUSH1 0x20 MSTORE PUSH1 0x40 PUSH1 0x0 KECCAK256 DUP2 PUSH1 0x0 MSTORE PUSH1 0x20 MSTORE PUSH1 0x4 PUSH1 0x40 PUSH1 0x0 KECCAK256 ADD SWAP1 DUP2 SLOAD SWAP1 PUSH1 0xFF DUP3 AND SWAP3 PUSH1 0x4 DUP5 LT ISZERO PUSH2 0x90B JUMPI PUSH1 0x3 PUSH1 0x20 SWAP4 PUSH2 0x25D6 PUSH1 0x1 PUSH32 0x4E2FD11F84344693B41D2ABA9910E33B34A4F02D4D3A65B65B2201F3C8FA3C89 SWAP8 EQ PUSH2 0x2AE5 JUMP JUMPDEST PUSH1 0xFF NOT AND OR SWAP1 SSTORE PUSH1 0x40 MLOAD SWAP1 DUP2 MSTORE LOG2 STOP JUMPDEST PUSH1 0x40 SWAP1 PUSH1 0x3 NOT ADD SLT PUSH2 0x2CC JUMPI PUSH1 0x4 CALLDATALOAD SWAP1 PUSH1 0x24 CALLDATALOAD SWAP1 JUMP JUMPDEST SWAP2 SWAP1 DUP3 MLOAD SWAP3 DUP4 DUP3 MSTORE PUSH1 0x0 JUMPDEST DUP5 DUP2 LT PUSH2 0x2628 JUMPI POP POP DUP3 PUSH1 0x0 PUSH1 0x20 DUP1 SWAP5 SWAP6 DUP5 ADD ADD MSTORE PUSH1 0x1F DUP1 NOT SWAP2 ADD AND ADD ADD SWAP1 JUMP JUMPDEST PUSH1 0x20 DUP2 DUP4 ADD DUP2 ADD MLOAD DUP5 DUP4 ADD DUP3 ADD MSTORE ADD PUSH2 0x2607 JUMP JUMPDEST SWAP1 PUSH1 0x4 DUP3 LT ISZERO PUSH2 0x90B JUMPI MSTORE JUMP JUMPDEST DUP1 SLOAD DUP3 LT ISZERO PUSH2 0x2661 JUMPI PUSH1 0x0 MSTORE PUSH1 0x20 PUSH1 0x0 KECCAK256 ADD SWAP1 PUSH1 0x0 SWAP1 JUMP JUMPDEST PUSH4 0x4E487B71 PUSH1 0xE0 SHL PUSH1 0x0 MSTORE PUSH1 0x32 PUSH1 0x4 MSTORE PUSH1 0x24 PUSH1 0x0 REVERT JUMPDEST DUP1 SLOAD DUP3 LT ISZERO PUSH2 0x2661 JUMPI PUSH1 0x0 MSTORE PUSH1 0x6 PUSH1 0x20 PUSH1 0x0 KECCAK256 SWAP2 MUL ADD SWAP1 PUSH1 0x0 SWAP1 JUMP JUMPDEST PUSH1 0xC0 DUP2 ADD SWAP1 DUP2 LT PUSH1 0x1 PUSH1 0x1 PUSH1 0x40 SHL SUB DUP3 GT OR PUSH2 0x952 JUMPI PUSH1 0x40 MSTORE JUMP JUMPDEST SWAP1 PUSH1 0x1F DUP1 NOT SWAP2 ADD AND DUP2 ADD SWAP1 DUP2 LT PUSH1 0x1 PUSH1 0x1 PUSH1 0x40 SHL SUB DUP3 GT OR PUSH2 0x952 JUMPI PUSH1 0x40 MSTORE JUMP JUMPDEST PUSH1 0x1 PUSH1 0x1 PUSH1 0x40 SHL SUB DUP2 GT PUSH2 0x952 JUMPI PUSH1 0x1F ADD PUSH1 0x1F NOT AND PUSH1 0x20 ADD SWAP1 JUMP JUMPDEST DUP2 PUSH1 0x1F DUP3 ADD SLT ISZERO PUSH2 0x2CC JUMPI DUP1 CALLDATALOAD SWAP1 PUSH2 0x2701 DUP3 PUSH2 0x26CF JUMP JUMPDEST SWAP3 PUSH2 0x270F PUSH1 0x40 MLOAD SWAP5 DUP6 PUSH2 0x26AE JUMP JUMPDEST DUP3 DUP5 MSTORE PUSH1 0x20 DUP4 DUP4 ADD ADD GT PUSH2 0x2CC JUMPI DUP2 PUSH1 0x0 SWAP3 PUSH1 0x20 DUP1 SWAP4 ADD DUP4 DUP7 ADD CALLDATACOPY DUP4 ADD ADD MSTORE SWAP1 JUMP JUMPDEST PUSH1 0x1 PUSH1 0x1 PUSH1 0x40 SHL SUB DUP2 GT PUSH2 0x952 JUMPI PUSH1 0x5 SHL PUSH1 0x20 ADD SWAP1 JUMP JUMPDEST SWAP3 SWAP2 SWAP1 SWAP3 PUSH2 0x2755 DUP5 PUSH2 0x2731 JUMP JUMPDEST SWAP2 PUSH2 0x2763 PUSH1 0x40 MLOAD SWAP4 DUP5 PUSH2 0x26AE JUMP JUMPDEST DUP3 SWAP5 DUP1 DUP5 MSTORE PUSH1 0x20 DUP1 SWAP5 ADD SWAP1 PUSH1 0x5 SHL DUP4 ADD SWAP3 DUP3 DUP5 GT PUSH2 0x2CC JUMPI DUP1 SWAP2 JUMPDEST DUP5 DUP4 LT PUSH2 0x278D JUMPI POP POP POP POP POP POP JUMP JUMPDEST DUP3 CALLDATALOAD PUSH1 0x1 PUSH1 0x1 PUSH1 0x40 SHL SUB DUP2 GT PUSH2 0x2CC JUMPI DUP7 SWAP2 PUSH2 0x27AC DUP7 DUP5 SWAP4 DUP7 ADD PUSH2 0x26EA JUMP JUMPDEST DUP2 MSTORE ADD SWAP3 ADD SWAP2 PUSH2 0x277E JUMP JUMPDEST SWAP2 DUP2 PUSH1 0x1F DUP5 ADD SLT ISZERO PUSH2 0x2CC JUMPI DUP3 CALLDATALOAD SWAP2 PUSH1 0x1 PUSH1 0x1 PUSH1 0x40 SHL SUB DUP4 GT PUSH2 0x2CC JUMPI PUSH1 0x20 DUP1 DUP6 ADD SWAP5 DUP5 PUSH1 0x5 SHL ADD ADD GT PUSH2 0x2CC JUMPI JUMP JUMPDEST SWAP1 PUSH1 0x1 DUP3 DUP2 SHR SWAP3 AND DUP1 ISZERO PUSH2 0x2817 JUMPI JUMPDEST PUSH1 0x20 DUP4 LT EQ PUSH2 0x2801 JUMPI JUMP JUMPDEST PUSH4 0x4E487B71 PUSH1 0xE0 SHL PUSH1 0x0 MSTORE PUSH1 0x22 PUSH1 0x4 MSTORE PUSH1 0x24 PUSH1 0x0 REVERT JUMPDEST SWAP2 PUSH1 0x7F AND SWAP2 PUSH2 0x27F6 JUMP JUMPDEST SWAP1 PUSH1 0x40 MLOAD SWAP2 DUP3 PUSH1 0x0 DUP3 SLOAD SWAP3 PUSH2 0x2835 DUP5 PUSH2 0x27E7 JUMP JUMPDEST SWAP1 DUP2 DUP5 MSTORE PUSH1 0x1 SWAP5 DUP6 DUP2 AND SWAP1 DUP2 PUSH1 0x0 EQ PUSH2 0x28A4 JUMPI POP PUSH1 0x1 EQ PUSH2 0x2861 JUMPI JUMPDEST POP POP PUSH2 0x285F SWAP3 POP SUB DUP4 PUSH2 0x26AE JUMP JUMPDEST JUMP JUMPDEST SWAP1 SWAP4 SWAP2 POP PUSH1 0x0 MSTORE PUSH1 0x20 SWAP1 DUP2 PUSH1 0x0 KECCAK256 SWAP4 PUSH1 0x0 SWAP2 JUMPDEST DUP2 DUP4 LT PUSH2 0x288C JUMPI POP POP PUSH2 0x285F SWAP4 POP DUP3 ADD ADD CODESIZE DUP1 PUSH2 0x2851 JUMP JUMPDEST DUP6 SLOAD DUP9 DUP5 ADD DUP6 ADD MSTORE SWAP5 DUP6 ADD SWAP5 DUP8 SWAP5 POP SWAP2 DUP4 ADD SWAP2 PUSH2 0x2874 JUMP JUMPDEST SWAP2 POP POP PUSH2 0x285F SWAP5 POP PUSH1 0x20 SWAP3 POP PUSH1 0xFF NOT AND DUP3 DUP5 ADD MSTORE ISZERO ISZERO PUSH1 0x5 SHL DUP3 ADD ADD CODESIZE DUP1 PUSH2 0x2851 JUMP JUMPDEST PUSH1 0x0 SLOAD PUSH1 0x1 PUSH1 0x1 PUSH1 0xA0 SHL SUB AND CALLER SUB PUSH2 0x28DB JUMPI JUMP JUMPDEST PUSH1 0x64 PUSH1 0x40 MLOAD PUSH3 0x461BCD PUSH1 0xE5 SHL DUP2 MSTORE PUSH1 0x20 PUSH1 0x4 DUP3 ADD MSTORE PUSH1 0x20 PUSH1 0x24 DUP3 ADD MSTORE PUSH32 0x4F776E61626C653A2063616C6C6572206973206E6F7420746865206F776E6572 PUSH1 0x44 DUP3 ADD MSTORE REVERT JUMPDEST DUP2 DUP2 LT PUSH2 0x292A JUMPI POP POP JUMP JUMPDEST PUSH1 0x0 DUP2 SSTORE PUSH1 0x1 ADD PUSH2 0x291F JUMP JUMPDEST SWAP2 SWAP1 PUSH1 0x1F DUP2 GT PUSH2 0x2945 JUMPI POP POP POP JUMP JUMPDEST PUSH2 0x285F SWAP3 PUSH1 0x0 MSTORE PUSH1 0x20 PUSH1 0x0 KECCAK256 SWAP1 PUSH1 0x20 PUSH1 0x1F DUP5 ADD PUSH1 0x5 SHR DUP4 ADD SWAP4 LT PUSH2 0x2971 JUMPI JUMPDEST PUSH1 0x1F ADD PUSH1 0x5 SHR ADD SWAP1 PUSH2 0x291F JUMP JUMPDEST SWAP1 SWAP2 POP DUP2 SWAP1 PUSH2 0x2964 JUMP JUMPDEST PUSH1 0x1 PUSH1 0x40 SHL DUP3 GT PUSH2 0x952 JUMPI DUP1 SLOAD SWAP2 DUP1 DUP3 SSTORE DUP3 DUP2 LT PUSH2 0x2998 JUMPI POP POP POP JUMP JUMPDEST PUSH1 0x0 SWAP2 DUP3 MSTORE PUSH1 0x20 SWAP1 DUP2 DUP4 KECCAK256 SWAP4 DUP5 ADD SWAP4 ADD JUMPDEST DUP4 DUP2 LT PUSH2 0x29B6 JUMPI POP POP POP POP JUMP JUMPDEST DUP1 DUP4 PUSH2 0x29C4 PUSH1 0x1 SWAP4 SLOAD PUSH2 0x27E7 JUMP JUMPDEST DUP1 PUSH2 0x29D2 JUMPI JUMPDEST POP POP ADD PUSH2 0x29A9 JUMP JUMPDEST PUSH1 0x1F DUP1 DUP3 GT DUP6 EQ PUSH2 0x29E9 JUMPI POP POP DUP2 SSTORE JUMPDEST DUP4 CODESIZE PUSH2 0x29CA JUMP JUMPDEST PUSH2 0x2A02 SWAP1 DUP5 DUP5 MSTORE DUP7 DUP5 KECCAK256 SWAP3 ADD PUSH1 0x5 SHR DUP3 ADD DUP6 DUP4 ADD PUSH2 0x291F JUMP JUMPDEST DUP2 DUP4 SSTORE SSTORE PUSH2 0x29E2 JUMP JUMPDEST PUSH1 0x0 NOT DUP2 EQ PUSH2 0xBB2 JUMPI PUSH1 0x1 ADD SWAP1 JUMP JUMPDEST ISZERO PUSH2 0x2A21 JUMPI JUMP JUMPDEST PUSH1 0x40 MLOAD PUSH3 0x461BCD PUSH1 0xE5 SHL DUP2 MSTORE PUSH1 0x20 PUSH1 0x4 DUP3 ADD MSTORE PUSH1 0xD PUSH1 0x24 DUP3 ADD MSTORE PUSH13 0x2737BA103B30B634B230BA37B9 PUSH1 0x99 SHL PUSH1 0x44 DUP3 ADD MSTORE PUSH1 0x64 SWAP1 REVERT JUMPDEST ISZERO PUSH2 0x2A5D JUMPI JUMP JUMPDEST PUSH1 0x40 MLOAD PUSH3 0x461BCD PUSH1 0xE5 SHL DUP2 MSTORE PUSH1 0x20 PUSH1 0x4 DUP3 ADD MSTORE PUSH1 0xD PUSH1 0x24 DUP3 ADD MSTORE PUSH13 0x141C9BD9DC985B48195B991959 PUSH1 0x9A SHL PUSH1 0x44 DUP3 ADD MSTORE PUSH1 0x64 SWAP1 REVERT JUMPDEST ISZERO PUSH2 0x2A99 JUMPI JUMP JUMPDEST PUSH1 0x40 MLOAD PUSH3 0x461BCD PUSH1 0xE5 SHL DUP2 MSTORE PUSH1 0x20 PUSH1 0x4 DUP3 ADD MSTORE PUSH1 0x10 PUSH1 0x24 DUP3 ADD MSTORE PUSH16 0x105B1C9958591E48185C1C1C9BDD9959 PUSH1 0x82 SHL PUSH1 0x44 DUP3 ADD MSTORE PUSH1 0x64 SWAP1 REVERT JUMPDEST DUP1 MLOAD DUP3 LT ISZERO PUSH2 0x2661 JUMPI PUSH1 0x20 SWAP2 PUSH1 0x5 SHL ADD ADD SWAP1 JUMP JUMPDEST ISZERO PUSH2 0x2AEC JUMPI JUMP JUMPDEST PUSH1 0x40 MLOAD PUSH3 0x461BCD PUSH1 0xE5 SHL DUP2 MSTORE PUSH1 0x20 PUSH1 0x4 DUP3 ADD MSTORE PUSH1 0xE PUSH1 0x24 DUP3 ADD MSTORE PUSH14 0x496E76616C696420737461747573 PUSH1 0x90 SHL PUSH1 0x44 DUP3 ADD MSTORE PUSH1 0x64 SWAP1 REVERT JUMPDEST PUSH1 0x2 PUSH1 0x1 SLOAD EQ PUSH2 0x2B33 JUMPI PUSH1 0x2 PUSH1 0x1 SSTORE JUMP JUMPDEST PUSH1 0x40 MLOAD PUSH3 0x461BCD PUSH1 0xE5 SHL DUP2 MSTORE PUSH1 0x20 PUSH1 0x4 DUP3 ADD MSTORE PUSH1 0x1F PUSH1 0x24 DUP3 ADD MSTORE PUSH32 0x5265656E7472616E637947756172643A207265656E7472616E742063616C6C00 PUSH1 0x44 DUP3 ADD MSTORE PUSH1 0x64 SWAP1 REVERT INVALID LOG2 PUSH5 0x6970667358 0x22 SLT KECCAK256 PUSH11 0xBC83972D18600436EC96DE SWAP10 GASLIMIT RETURNDATASIZE 0xC2 COINBASE PUSH20 0xC151407A61AA1223C008BA3E13D564736F6C6343 STOP ADDMOD EQ STOP CALLER "},"methodIdentifiers":{"acceptMilestone(uint256,uint256)":"93eb1026","approveProgram(uint256)":"b0d456ac","createEduProgram(string,uint256,string,uint256,uint256,address,string,string,string[])":"919af1da","eduPrograms(uint256)":"d613fd24","getFee()":"ced72f87","getMilestones(uint256)":"42c549c0","milestoneIds(uint256,uint256)":"544aabd0","nextApplicationId(uint256)":"a1a57296","nextMilestoneId(uint256)":"83472f5b","nextProgramId()":"ba71b330","owner()":"8da5cb5b","programApplications(uint256,uint256)":"7d5cae03","programMilestones(uint256,uint256)":"d201593f","reclaimFunds(uint256)":"f9f161a8","rejectMilestone(uint256,uint256)":"3abe6bd7","renounceOwnership()":"715018a6","selectApplication(uint256,uint256,bool)":"4942ec02","selectedApplicationIndex(uint256)":"f6c78263","setFee(uint256)":"69fe0e2d","submitApplication(uint256,string[],string[],uint256[])":"a112ed4e","submitMilestone(uint256,uint256,string[])":"9e57d589","transferOwnership(address)":"f2fde38b","updateProgram(uint256,uint256,uint256,uint256,address)":"89001eb1"}}}}}