{"contracts/LdEduProgram.sol":{"LdEduProgram":{"abi":[{"inputs":[{"internalType":"address","name":"initialOwner","type":"address"}],"stateMutability":"nonpayable","type":"constructor"},{"anonymous":false,"inputs":[{"indexed":false,"internalType":"uint256","name":"newFee","type":"uint256"}],"name":"FeeUpdated","type":"event"},{"anonymous":false,"inputs":[{"indexed":true,"internalType":"uint256","name":"id","type":"uint256"},{"indexed":false,"internalType":"address","name":"maker","type":"address"},{"indexed":false,"internalType":"uint256","name":"amount","type":"uint256"}],"name":"FundsReclaimed","type":"event"},{"anonymous":false,"inputs":[{"indexed":true,"internalType":"uint256","name":"programId","type":"uint256"},{"indexed":true,"internalType":"string","name":"milestoneId","type":"string"},{"indexed":true,"internalType":"address","name":"builder","type":"address"},{"indexed":false,"internalType":"uint256","name":"reward","type":"uint256"}],"name":"MilestoneAccepted","type":"event"},{"anonymous":false,"inputs":[{"indexed":true,"internalType":"address","name":"previousOwner","type":"address"},{"indexed":true,"internalType":"address","name":"newOwner","type":"address"}],"name":"OwnershipTransferred","type":"event"},{"anonymous":false,"inputs":[{"indexed":true,"internalType":"uint256","name":"id","type":"uint256"},{"indexed":true,"internalType":"address","name":"maker","type":"address"},{"indexed":true,"internalType":"address","name":"validator","type":"address"},{"indexed":false,"internalType":"uint256","name":"price","type":"uint256"}],"name":"ProgramCreated","type":"event"},{"anonymous":false,"inputs":[{"indexed":false,"internalType":"uint256","name":"programId","type":"uint256"},{"indexed":false,"internalType":"uint256","name":"price","type":"uint256"},{"indexed":false,"internalType":"uint256","name":"startTime","type":"uint256"},{"indexed":false,"internalType":"uint256","name":"endTime","type":"uint256"},{"indexed":false,"internalType":"address","name":"newValidator","type":"address"}],"name":"ProgramEdited","type":"event"},{"inputs":[{"internalType":"uint256","name":"programId","type":"uint256"},{"internalType":"string","name":"milestoneId","type":"string"},{"internalType":"address","name":"builder","type":"address"},{"internalType":"uint256","name":"reward","type":"uint256"}],"name":"acceptMilestone","outputs":[],"stateMutability":"nonpayable","type":"function"},{"inputs":[{"internalType":"string","name":"_name","type":"string"},{"internalType":"uint256","name":"_price","type":"uint256"},{"internalType":"string[]","name":"_keywords","type":"string[]"},{"internalType":"uint256","name":"_startTime","type":"uint256"},{"internalType":"uint256","name":"_endTime","type":"uint256"},{"internalType":"address","name":"_validator","type":"address"},{"internalType":"string","name":"_summary","type":"string"},{"internalType":"string","name":"_description","type":"string"},{"internalType":"string[]","name":"_links","type":"string[]"}],"name":"createEduProgram","outputs":[],"stateMutability":"payable","type":"function"},{"inputs":[{"internalType":"uint256","name":"","type":"uint256"}],"name":"eduPrograms","outputs":[{"internalType":"uint256","name":"id","type":"uint256"},{"internalType":"string","name":"name","type":"string"},{"internalType":"uint256","name":"price","type":"uint256"},{"internalType":"uint256","name":"startTime","type":"uint256"},{"internalType":"uint256","name":"endTime","type":"uint256"},{"internalType":"string","name":"summary","type":"string"},{"internalType":"string","name":"description","type":"string"},{"internalType":"address","name":"maker","type":"address"},{"internalType":"address","name":"validator","type":"address"},{"internalType":"bool","name":"approve","type":"bool"},{"internalType":"bool","name":"claimed","type":"bool"}],"stateMutability":"view","type":"function"},{"inputs":[],"name":"getFee","outputs":[{"internalType":"uint256","name":"","type":"uint256"}],"stateMutability":"view","type":"function"},{"inputs":[],"name":"nextProgramId","outputs":[{"internalType":"uint256","name":"","type":"uint256"}],"stateMutability":"view","type":"function"},{"inputs":[],"name":"owner","outputs":[{"internalType":"address","name":"","type":"address"}],"stateMutability":"view","type":"function"},{"inputs":[{"internalType":"uint256","name":"programId","type":"uint256"}],"name":"reclaimFunds","outputs":[],"stateMutability":"nonpayable","type":"function"},{"inputs":[],"name":"renounceOwnership","outputs":[],"stateMutability":"nonpayable","type":"function"},{"inputs":[{"internalType":"uint256","name":"_fee","type":"uint256"}],"name":"setFee","outputs":[],"stateMutability":"nonpayable","type":"function"},{"inputs":[{"internalType":"address","name":"newOwner","type":"address"}],"name":"transferOwnership","outputs":[],"stateMutability":"nonpayable","type":"function"},{"inputs":[{"internalType":"uint256","name":"programId","type":"uint256"},{"internalType":"uint256","name":"price","type":"uint256"},{"internalType":"uint256","name":"startTime","type":"uint256"},{"internalType":"uint256","name":"endTime","type":"uint256"},{"internalType":"address","name":"newValidator","type":"address"}],"name":"updateProgram","outputs":[],"stateMutability":"nonpayable","type":"function"}],"evm":{"bytecode":{"linkReferences":{},"object":"60803461007457601f61163338819003918201601f19168301916001600160401b038311848410176100795780849260209460405283398101031261007457516001600160a01b0381168103610074576100659061005c3361008f565b6001805561008f565b60405161155c90816100d78239f35b600080fd5b634e487b7160e01b600052604160045260246000fd5b600080546001600160a01b039283166001600160a01b03198216811783559216907f8be0079c531659141344cd1fd0a4f28419497f9722a3daafe3b4186f6b6457e09080a356fe6080604052600436101561001257600080fd5b60003560e01c806369fe0e2d146111dd578063715018a61461118457806378ea19b01461074557806389001eb1146105dd5780638da5cb5b146105b4578063ba71b33014610596578063ced72f8714610578578063d613fd241461048c578063f2479186146102b2578063f2fde38b146101e75763f9f161a81461009557600080fd5b346101e25760203660031901126101e2576004356100b16114d0565b806000526002602052604060002060058101544211156101a5576009810180546001600160a01b0392908316903382900361016857600a8101805460ff60a81b1916600160a81b1790556003018054909160009182918291829182821561015f575bf115610153577fd37c0b9c7560299a7c963d03165111d712663805228e5ffca03d540c5d6e410e926040925416905482519182526020820152a260018055005b6040513d6000823e3d90fd5b506108fc610113565b60405162461bcd60e51b81526020600482015260156024820152742737ba103a343290383937b3b930b69036b0b5b2b960591b6044820152606490fd5b60405162461bcd60e51b8152602060048201526015602482015274141c9bd9dc985b481b9bdd08195b991959081e595d605a1b6044820152606490fd5b600080fd5b346101e25760203660031901126101e2576004356001600160a01b03818116918290036101e257610216611461565b811561025e57600054826bffffffffffffffffffffffff60a01b821617600055167f8be0079c531659141344cd1fd0a4f28419497f9722a3daafe3b4186f6b6457e0600080a3005b60405162461bcd60e51b815260206004820152602660248201527f4f776e61626c653a206e6577206f776e657220697320746865207a65726f206160448201526564647265737360d01b6064820152608490fd5b346101e25760803660031901126101e2576004356024356001600160401b0381116101e2576102e5903690600401611260565b6001600160a01b03604435818116939192908490036101e2576064359261030a6114d0565b8260005260209060028252604060002090600a8201541633036104575760030180548511610412578447106103cd576000858781156103c3575b600092839283928392f115610153578054928584039384116103ad577f0283d9e3f5cdb8281e6971895ed99be8f40753cdb7e6afbc25c97e2b3462a9e49361039a92558260405192828480945193849201611419565b810103902093604051908152a460018055005b634e487b7160e01b600052601160045260246000fd5b6108fc9250610344565b60405162461bcd60e51b815260048101839052601d60248201527f496e73756666696369656e7420636f6e74726163742062616c616e63650000006044820152606490fd5b60405162461bcd60e51b815260048101839052601e60248201527f52657761726420657863656564732070726f6772616d2062616c616e636500006044820152606490fd5b60405162461bcd60e51b815260048101839052600d60248201526c2737ba103b30b634b230ba37b960991b6044820152606490fd5b346101e25760203660031901126101e2576004356000526002602052604060002080546104bb60018301611373565b9160ff600382015460048301549061054c60058501549161053e6104e160068801611373565b916104ee60078901611373565b9260018060a01b0395600a8760098c0154169a0154976105216040519d8e9d8e528d61016090816020820152019061143c565b9360408d015260608c015260808b015289820360a08b015261143c565b9087820360c089015261143c565b9360e08601528116610100850152818160a01c16151561012085015260a81c1615156101408301520390f35b346101e25760003660031901126101e2576020600454604051908152f35b346101e25760003660031901126101e2576020600354604051908152f35b346101e25760003660031901126101e2576000546040516001600160a01b039091168152602090f35b346101e25760a03660031901126101e2576024356001600160a01b036004356084358281169060643590604435908390036101e257836000526002602052604060002094600986015416330361071157818110156106dd5785156106a85785600a867fe3d59d03839a10c8a5a85dd0d7e5a4ac45445821c5176529d2745adf6915a16198600360a099015583600482015584600582015501846bffffffffffffffffffffffff881b8254161790556040519485526020850152604084015260608301526080820152a1005b60405162461bcd60e51b815260206004820152600d60248201526c496e76616c696420707269636560981b6044820152606490fd5b60405162461bcd60e51b815260206004820152600c60248201526b496e76616c69642074696d6560a01b6044820152606490fd5b60405162461bcd60e51b815260206004820152600c60248201526b27b7363c9031b932b0ba37b960a11b6044820152606490fd5b6101203660031901126101e2576004356001600160401b0381116101e257610771903690600401611260565b6044356001600160401b0381116101e2576107909036906004016112b6565b9060a4356001600160a01b03811681036101e25760c4356001600160401b0381116101e2576107c3903690600401611260565b9160e4356001600160401b0381116101e2576107e3903690600401611260565b610104356001600160401b0381116101e2576108039036906004016112b6565b906024948535340361112a5760843560643510156110cc576003549660405194856101a08101106001600160401b036101a0880111176110b7576101a086016040528886526020860152604085015285356060850152606435608085015260843560a085015260c084015260e08301526101008201523361012082015260018060a01b0382166101408201526000610160820152600061018082015283600052600260205260406000208151815560208201518051906001600160401b038211610cf45781906108d66001850154611339565b601f8111611082575b50602090601f831160011461101057600092611005575b50508160011b916000199060031b1c19161760018201555b6040820151805190600160401b8211610cf4576002830154826002850155808310610f8d575b506020016002830160005260206000206000915b838310610e6d5750505050606082015160038201556080820151600482015560a0820151600582015560c08201518051906001600160401b038211610cf45781906109966006850154611339565b601f8111610e38575b50602090601f8311600114610dc657600092610dbb575b50508160011b916000199060031b1c19161760068201555b60e08201518051906001600160401b038211610cf45781906109f36007850154611339565b601f8111610d86575b50602090601f8311600114610d1457600092610d09575b50508160011b916000199060031b1c19161760078201555b610100820151805190600160401b8211610cf4576008830154826008850155808310610c7c575b506020016008830160005260206000206000915b838310610b4757505050506101208201516009820180546001600160a01b0319166001600160a01b03928316179055610140830151600a9092018054610160850151610180909501516001600160b01b0319909116939092169290921792151560a01b60ff60a01b169290921791151560a81b60ff60a81b169190911790556003546000198114610b3257600101600355604051913582526001600160a01b03169133917f808c887919683a350ed55b3499f97ed7f4093ecc5e131fadb8b075a85457af3a90602090a4005b82634e487b7160e01b60005260116004526000fd5b80518051906001600160401b038211610c6757610b648454611339565b601f8111610c2a575b50602090601f8311600114610bba579282600194936020938695600092610baf575b5050600019600383901b1c191690841b1785555b01920192019190610a66565b015190508e80610b8f565b908460005260206000209160005b601f1985168110610c12575083602093600196938796938794601f19811610610bf9575b505050811b018555610ba3565b015160001960f88460031b161c191690558e8080610bec565b91926020600181928685015181550194019201610bc8565b610c5790856000526020600020601f850160051c81019160208610610c5d575b601f0160051c01906114b9565b8b610b6d565b9091508190610c4a565b89634e487b7160e01b60005260416004526000fd5b600884016000526020600020908382015b8183018110610c9d575050610a52565b80610caa60019254611339565b80610cb7575b5001610c8d565b601f81118314610ccd5750600081555b8b610cb0565b600090828252610ceb601f60208420920160051c82018583016114b9565b81835555610cc7565b85634e487b7160e01b60005260416004526000fd5b015190508780610a13565b9250600784016000526020600020906000935b601f1984168510610d6b576001945083601f19811610610d52575b505050811b016007820155610a2b565b015160001960f88460031b161c19169055878080610d42565b81810151835560209485019460019093019290910190610d27565b610db590600786016000526020600020601f850160051c81019160208610610c5d57601f0160051c01906114b9565b886109fc565b0151905087806109b6565b9250600684016000526020600020906000935b601f1984168510610e1d576001945083601f19811610610e04575b505050811b0160068201556109ce565b015160001960f88460031b161c19169055878080610df4565b81810151835560209485019460019093019290910190610dd9565b610e6790600686016000526020600020601f850160051c81019160208610610c5d57601f0160051c01906114b9565b8861099f565b80518051906001600160401b038211610c6757610e8a8454611339565b601f8111610f50575b50602090601f8311600114610ee0579282600194936020938695600092610ed5575b5050600019600383901b1c191690841b1785555b01920192019190610948565b015190508e80610eb5565b908460005260206000209160005b601f1985168110610f38575083602093600196938796938794601f19811610610f1f575b505050811b018555610ec9565b015160001960f88460031b161c191690558e8080610f12565b91926020600181928685015181550194019201610eee565b610f7d908560005260206000206005601f8601811c82019260208710610f83575b601f01901c01906114b9565b8b610e93565b9192508291610f71565b600284016000526020600020908382015b8183018110610fae575050610934565b80610fbb60019254611339565b80610fc8575b5001610f9e565b601f81118314610fde5750600081555b8b610fc1565b600090828252610ffc601f60208420920160051c82018583016114b9565b81835555610fd8565b0151905087806108f6565b9250600184016000526020600020906000935b601f1984168510611067576001945083601f1981161061104e575b505050811b01600182015561090e565b015160001960f88460031b161c1916905587808061103e565b81810151835560209485019460019093019290910190611023565b6110b190600186016000526020600020601f850160051c81019160208610610c5d57601f0160051c01906114b9565b886108df565b87634e487b7160e01b60005260416004526000fd5b60405162461bcd60e51b8152602060048201526031818801527f5468652053746172742074696d65206d757374206265206561726c69657220746044820152703430b7103a34329032b732103a34b6b29760791b6064820152608490fd5b60405162461bcd60e51b815260206004820152602d818801527f546865204554482073656e7420646f6573206e6f74206d61746368207468652060448201526c70726f6772616d20707269636560981b6064820152608490fd5b346101e25760003660031901126101e25761119d611461565b600080546001600160a01b0319811682556001600160a01b03167f8be0079c531659141344cd1fd0a4f28419497f9722a3daafe3b4186f6b6457e08280a3005b346101e25760203660031901126101e2577f8c4d35e54a3f2ef1134138fd8ea3daee6a3c89e10d2665996babdf70261e2c76602060043561121c611461565b80600455604051908152a1005b90601f801991011681019081106001600160401b0382111761124a57604052565b634e487b7160e01b600052604160045260246000fd5b81601f820112156101e2578035906001600160401b03821161124a5760405192611294601f8401601f191660200185611229565b828452602083830101116101e257816000926020809301838601378301015290565b9080601f830112156101e2578135906001600160401b039283831161124a578260051b604051946020946112ec86840188611229565b86528480870192840101938085116101e257858401925b858410611314575050505050505090565b83358381116101e257879161132e848480948a0101611260565b815201930192611303565b90600182811c92168015611369575b602083101461135357565b634e487b7160e01b600052602260045260246000fd5b91607f1691611348565b906040519182600082549261138784611339565b9081845260019485811690816000146113f657506001146113b3575b50506113b192500383611229565b565b9093915060005260209081600020936000915b8183106113de5750506113b1935082010138806113a3565b855488840185015294850194879450918301916113c6565b9150506113b194506020925060ff191682840152151560051b82010138806113a3565b60005b83811061142c5750506000910152565b818101518382015260200161141c565b9060209161145581518092818552858086019101611419565b601f01601f1916010190565b6000546001600160a01b0316330361147557565b606460405162461bcd60e51b815260206004820152602060248201527f4f776e61626c653a2063616c6c6572206973206e6f7420746865206f776e65726044820152fd5b8181106114c4575050565b600081556001016114b9565b6002600154146114e1576002600155565b60405162461bcd60e51b815260206004820152601f60248201527f5265656e7472616e637947756172643a207265656e7472616e742063616c6c006044820152606490fdfea2646970667358221220e2e7d6b19ee53e2fc21c2a6397e92aba4eb5dbf8110dee95884f2cb2f6639b2164736f6c63430008140033","opcodes":"PUSH1 0x80 CALLVALUE PUSH2 0x74 JUMPI PUSH1 0x1F PUSH2 0x1633 CODESIZE DUP2 SWAP1 SUB SWAP2 DUP3 ADD PUSH1 0x1F NOT AND DUP4 ADD SWAP2 PUSH1 0x1 PUSH1 0x1 PUSH1 0x40 SHL SUB DUP4 GT DUP5 DUP5 LT OR PUSH2 0x79 JUMPI DUP1 DUP5 SWAP3 PUSH1 0x20 SWAP5 PUSH1 0x40 MSTORE DUP4 CODECOPY DUP2 ADD SUB SLT PUSH2 0x74 JUMPI MLOAD PUSH1 0x1 PUSH1 0x1 PUSH1 0xA0 SHL SUB DUP2 AND DUP2 SUB PUSH2 0x74 JUMPI PUSH2 0x65 SWAP1 PUSH2 0x5C CALLER PUSH2 0x8F JUMP JUMPDEST PUSH1 0x1 DUP1 SSTORE PUSH2 0x8F JUMP JUMPDEST PUSH1 0x40 MLOAD PUSH2 0x155C SWAP1 DUP2 PUSH2 0xD7 DUP3 CODECOPY RETURN JUMPDEST PUSH1 0x0 DUP1 REVERT JUMPDEST PUSH4 0x4E487B71 PUSH1 0xE0 SHL PUSH1 0x0 MSTORE PUSH1 0x41 PUSH1 0x4 MSTORE PUSH1 0x24 PUSH1 0x0 REVERT JUMPDEST PUSH1 0x0 DUP1 SLOAD PUSH1 0x1 PUSH1 0x1 PUSH1 0xA0 SHL SUB SWAP3 DUP4 AND PUSH1 0x1 PUSH1 0x1 PUSH1 0xA0 SHL SUB NOT DUP3 AND DUP2 OR DUP4 SSTORE SWAP3 AND SWAP1 PUSH32 0x8BE0079C531659141344CD1FD0A4F28419497F9722A3DAAFE3B4186F6B6457E0 SWAP1 DUP1 LOG3 JUMP INVALID PUSH1 0x80 PUSH1 0x40 MSTORE PUSH1 0x4 CALLDATASIZE LT ISZERO PUSH2 0x12 JUMPI PUSH1 0x0 DUP1 REVERT JUMPDEST PUSH1 0x0 CALLDATALOAD PUSH1 0xE0 SHR DUP1 PUSH4 0x69FE0E2D EQ PUSH2 0x11DD JUMPI DUP1 PUSH4 0x715018A6 EQ PUSH2 0x1184 JUMPI DUP1 PUSH4 0x78EA19B0 EQ PUSH2 0x745 JUMPI DUP1 PUSH4 0x89001EB1 EQ PUSH2 0x5DD JUMPI DUP1 PUSH4 0x8DA5CB5B EQ PUSH2 0x5B4 JUMPI DUP1 PUSH4 0xBA71B330 EQ PUSH2 0x596 JUMPI DUP1 PUSH4 0xCED72F87 EQ PUSH2 0x578 JUMPI DUP1 PUSH4 0xD613FD24 EQ PUSH2 0x48C JUMPI DUP1 PUSH4 0xF2479186 EQ PUSH2 0x2B2 JUMPI DUP1 PUSH4 0xF2FDE38B EQ PUSH2 0x1E7 JUMPI PUSH4 0xF9F161A8 EQ PUSH2 0x95 JUMPI PUSH1 0x0 DUP1 REVERT JUMPDEST CALLVALUE PUSH2 0x1E2 JUMPI PUSH1 0x20 CALLDATASIZE PUSH1 0x3 NOT ADD SLT PUSH2 0x1E2 JUMPI PUSH1 0x4 CALLDATALOAD PUSH2 0xB1 PUSH2 0x14D0 JUMP JUMPDEST DUP1 PUSH1 0x0 MSTORE PUSH1 0x2 PUSH1 0x20 MSTORE PUSH1 0x40 PUSH1 0x0 KECCAK256 PUSH1 0x5 DUP2 ADD SLOAD TIMESTAMP GT ISZERO PUSH2 0x1A5 JUMPI PUSH1 0x9 DUP2 ADD DUP1 SLOAD PUSH1 0x1 PUSH1 0x1 PUSH1 0xA0 SHL SUB SWAP3 SWAP1 DUP4 AND SWAP1 CALLER DUP3 SWAP1 SUB PUSH2 0x168 JUMPI PUSH1 0xA DUP2 ADD DUP1 SLOAD PUSH1 0xFF PUSH1 0xA8 SHL NOT AND PUSH1 0x1 PUSH1 0xA8 SHL OR SWAP1 SSTORE PUSH1 0x3 ADD DUP1 SLOAD SWAP1 SWAP2 PUSH1 0x0 SWAP2 DUP3 SWAP2 DUP3 SWAP2 DUP3 SWAP2 DUP3 DUP3 ISZERO PUSH2 0x15F JUMPI JUMPDEST CALL ISZERO PUSH2 0x153 JUMPI PUSH32 0xD37C0B9C7560299A7C963D03165111D712663805228E5FFCA03D540C5D6E410E SWAP3 PUSH1 0x40 SWAP3 SLOAD AND SWAP1 SLOAD DUP3 MLOAD SWAP2 DUP3 MSTORE PUSH1 0x20 DUP3 ADD MSTORE LOG2 PUSH1 0x1 DUP1 SSTORE STOP JUMPDEST PUSH1 0x40 MLOAD RETURNDATASIZE PUSH1 0x0 DUP3 RETURNDATACOPY RETURNDATASIZE SWAP1 REVERT JUMPDEST POP PUSH2 0x8FC PUSH2 0x113 JUMP JUMPDEST PUSH1 0x40 MLOAD PUSH3 0x461BCD PUSH1 0xE5 SHL DUP2 MSTORE PUSH1 0x20 PUSH1 0x4 DUP3 ADD MSTORE PUSH1 0x15 PUSH1 0x24 DUP3 ADD MSTORE PUSH21 0x2737BA103A343290383937B3B930B69036B0B5B2B9 PUSH1 0x59 SHL PUSH1 0x44 DUP3 ADD MSTORE PUSH1 0x64 SWAP1 REVERT JUMPDEST PUSH1 0x40 MLOAD PUSH3 0x461BCD PUSH1 0xE5 SHL DUP2 MSTORE PUSH1 0x20 PUSH1 0x4 DUP3 ADD MSTORE PUSH1 0x15 PUSH1 0x24 DUP3 ADD MSTORE PUSH21 0x141C9BD9DC985B481B9BDD08195B991959081E595D PUSH1 0x5A SHL PUSH1 0x44 DUP3 ADD MSTORE PUSH1 0x64 SWAP1 REVERT JUMPDEST PUSH1 0x0 DUP1 REVERT JUMPDEST CALLVALUE PUSH2 0x1E2 JUMPI PUSH1 0x20 CALLDATASIZE PUSH1 0x3 NOT ADD SLT PUSH2 0x1E2 JUMPI PUSH1 0x4 CALLDATALOAD PUSH1 0x1 PUSH1 0x1 PUSH1 0xA0 SHL SUB DUP2 DUP2 AND SWAP2 DUP3 SWAP1 SUB PUSH2 0x1E2 JUMPI PUSH2 0x216 PUSH2 0x1461 JUMP JUMPDEST DUP2 ISZERO PUSH2 0x25E JUMPI PUSH1 0x0 SLOAD DUP3 PUSH12 0xFFFFFFFFFFFFFFFFFFFFFFFF PUSH1 0xA0 SHL DUP3 AND OR PUSH1 0x0 SSTORE AND PUSH32 0x8BE0079C531659141344CD1FD0A4F28419497F9722A3DAAFE3B4186F6B6457E0 PUSH1 0x0 DUP1 LOG3 STOP JUMPDEST PUSH1 0x40 MLOAD PUSH3 0x461BCD PUSH1 0xE5 SHL DUP2 MSTORE PUSH1 0x20 PUSH1 0x4 DUP3 ADD MSTORE PUSH1 0x26 PUSH1 0x24 DUP3 ADD MSTORE PUSH32 0x4F776E61626C653A206E6577206F776E657220697320746865207A65726F2061 PUSH1 0x44 DUP3 ADD MSTORE PUSH6 0x646472657373 PUSH1 0xD0 SHL PUSH1 0x64 DUP3 ADD MSTORE PUSH1 0x84 SWAP1 REVERT JUMPDEST CALLVALUE PUSH2 0x1E2 JUMPI PUSH1 0x80 CALLDATASIZE PUSH1 0x3 NOT ADD SLT PUSH2 0x1E2 JUMPI PUSH1 0x4 CALLDATALOAD PUSH1 0x24 CALLDATALOAD PUSH1 0x1 PUSH1 0x1 PUSH1 0x40 SHL SUB DUP2 GT PUSH2 0x1E2 JUMPI PUSH2 0x2E5 SWAP1 CALLDATASIZE SWAP1 PUSH1 0x4 ADD PUSH2 0x1260 JUMP JUMPDEST PUSH1 0x1 PUSH1 0x1 PUSH1 0xA0 SHL SUB PUSH1 0x44 CALLDATALOAD DUP2 DUP2 AND SWAP4 SWAP2 SWAP3 SWAP1 DUP5 SWAP1 SUB PUSH2 0x1E2 JUMPI PUSH1 0x64 CALLDATALOAD SWAP3 PUSH2 0x30A PUSH2 0x14D0 JUMP JUMPDEST DUP3 PUSH1 0x0 MSTORE PUSH1 0x20 SWAP1 PUSH1 0x2 DUP3 MSTORE PUSH1 0x40 PUSH1 0x0 KECCAK256 SWAP1 PUSH1 0xA DUP3 ADD SLOAD AND CALLER SUB PUSH2 0x457 JUMPI PUSH1 0x3 ADD DUP1 SLOAD DUP6 GT PUSH2 0x412 JUMPI DUP5 SELFBALANCE LT PUSH2 0x3CD JUMPI PUSH1 0x0 DUP6 DUP8 DUP2 ISZERO PUSH2 0x3C3 JUMPI JUMPDEST PUSH1 0x0 SWAP3 DUP4 SWAP3 DUP4 SWAP3 DUP4 SWAP3 CALL ISZERO PUSH2 0x153 JUMPI DUP1 SLOAD SWAP3 DUP6 DUP5 SUB SWAP4 DUP5 GT PUSH2 0x3AD JUMPI PUSH32 0x283D9E3F5CDB8281E6971895ED99BE8F40753CDB7E6AFBC25C97E2B3462A9E4 SWAP4 PUSH2 0x39A SWAP3 SSTORE DUP3 PUSH1 0x40 MLOAD SWAP3 DUP3 DUP5 DUP1 SWAP5 MLOAD SWAP4 DUP5 SWAP3 ADD PUSH2 0x1419 JUMP JUMPDEST DUP2 ADD SUB SWAP1 KECCAK256 SWAP4 PUSH1 0x40 MLOAD SWAP1 DUP2 MSTORE LOG4 PUSH1 0x1 DUP1 SSTORE STOP JUMPDEST PUSH4 0x4E487B71 PUSH1 0xE0 SHL PUSH1 0x0 MSTORE PUSH1 0x11 PUSH1 0x4 MSTORE PUSH1 0x24 PUSH1 0x0 REVERT JUMPDEST PUSH2 0x8FC SWAP3 POP PUSH2 0x344 JUMP JUMPDEST PUSH1 0x40 MLOAD PUSH3 0x461BCD PUSH1 0xE5 SHL DUP2 MSTORE PUSH1 0x4 DUP2 ADD DUP4 SWAP1 MSTORE PUSH1 0x1D PUSH1 0x24 DUP3 ADD MSTORE PUSH32 0x496E73756666696369656E7420636F6E74726163742062616C616E6365000000 PUSH1 0x44 DUP3 ADD MSTORE PUSH1 0x64 SWAP1 REVERT JUMPDEST PUSH1 0x40 MLOAD PUSH3 0x461BCD PUSH1 0xE5 SHL DUP2 MSTORE PUSH1 0x4 DUP2 ADD DUP4 SWAP1 MSTORE PUSH1 0x1E PUSH1 0x24 DUP3 ADD MSTORE PUSH32 0x52657761726420657863656564732070726F6772616D2062616C616E63650000 PUSH1 0x44 DUP3 ADD MSTORE PUSH1 0x64 SWAP1 REVERT JUMPDEST PUSH1 0x40 MLOAD PUSH3 0x461BCD PUSH1 0xE5 SHL DUP2 MSTORE PUSH1 0x4 DUP2 ADD DUP4 SWAP1 MSTORE PUSH1 0xD PUSH1 0x24 DUP3 ADD MSTORE PUSH13 0x2737BA103B30B634B230BA37B9 PUSH1 0x99 SHL PUSH1 0x44 DUP3 ADD MSTORE PUSH1 0x64 SWAP1 REVERT JUMPDEST CALLVALUE PUSH2 0x1E2 JUMPI PUSH1 0x20 CALLDATASIZE PUSH1 0x3 NOT ADD SLT PUSH2 0x1E2 JUMPI PUSH1 0x4 CALLDATALOAD PUSH1 0x0 MSTORE PUSH1 0x2 PUSH1 0x20 MSTORE PUSH1 0x40 PUSH1 0x0 KECCAK256 DUP1 SLOAD PUSH2 0x4BB PUSH1 0x1 DUP4 ADD PUSH2 0x1373 JUMP JUMPDEST SWAP2 PUSH1 0xFF PUSH1 0x3 DUP3 ADD SLOAD PUSH1 0x4 DUP4 ADD SLOAD SWAP1 PUSH2 0x54C PUSH1 0x5 DUP6 ADD SLOAD SWAP2 PUSH2 0x53E PUSH2 0x4E1 PUSH1 0x6 DUP9 ADD PUSH2 0x1373 JUMP JUMPDEST SWAP2 PUSH2 0x4EE PUSH1 0x7 DUP10 ADD PUSH2 0x1373 JUMP JUMPDEST SWAP3 PUSH1 0x1 DUP1 PUSH1 0xA0 SHL SUB SWAP6 PUSH1 0xA DUP8 PUSH1 0x9 DUP13 ADD SLOAD AND SWAP11 ADD SLOAD SWAP8 PUSH2 0x521 PUSH1 0x40 MLOAD SWAP14 DUP15 SWAP14 DUP15 MSTORE DUP14 PUSH2 0x160 SWAP1 DUP2 PUSH1 0x20 DUP3 ADD MSTORE ADD SWAP1 PUSH2 0x143C JUMP JUMPDEST SWAP4 PUSH1 0x40 DUP14 ADD MSTORE PUSH1 0x60 DUP13 ADD MSTORE PUSH1 0x80 DUP12 ADD MSTORE DUP10 DUP3 SUB PUSH1 0xA0 DUP12 ADD MSTORE PUSH2 0x143C JUMP JUMPDEST SWAP1 DUP8 DUP3 SUB PUSH1 0xC0 DUP10 ADD MSTORE PUSH2 0x143C JUMP JUMPDEST SWAP4 PUSH1 0xE0 DUP7 ADD MSTORE DUP2 AND PUSH2 0x100 DUP6 ADD MSTORE DUP2 DUP2 PUSH1 0xA0 SHR AND ISZERO ISZERO PUSH2 0x120 DUP6 ADD MSTORE PUSH1 0xA8 SHR AND ISZERO ISZERO PUSH2 0x140 DUP4 ADD MSTORE SUB SWAP1 RETURN JUMPDEST CALLVALUE PUSH2 0x1E2 JUMPI PUSH1 0x0 CALLDATASIZE PUSH1 0x3 NOT ADD SLT PUSH2 0x1E2 JUMPI PUSH1 0x20 PUSH1 0x4 SLOAD PUSH1 0x40 MLOAD SWAP1 DUP2 MSTORE RETURN JUMPDEST CALLVALUE PUSH2 0x1E2 JUMPI PUSH1 0x0 CALLDATASIZE PUSH1 0x3 NOT ADD SLT PUSH2 0x1E2 JUMPI PUSH1 0x20 PUSH1 0x3 SLOAD PUSH1 0x40 MLOAD SWAP1 DUP2 MSTORE RETURN JUMPDEST CALLVALUE PUSH2 0x1E2 JUMPI PUSH1 0x0 CALLDATASIZE PUSH1 0x3 NOT ADD SLT PUSH2 0x1E2 JUMPI PUSH1 0x0 SLOAD PUSH1 0x40 MLOAD PUSH1 0x1 PUSH1 0x1 PUSH1 0xA0 SHL SUB SWAP1 SWAP2 AND DUP2 MSTORE PUSH1 0x20 SWAP1 RETURN JUMPDEST CALLVALUE PUSH2 0x1E2 JUMPI PUSH1 0xA0 CALLDATASIZE PUSH1 0x3 NOT ADD SLT PUSH2 0x1E2 JUMPI PUSH1 0x24 CALLDATALOAD PUSH1 0x1 PUSH1 0x1 PUSH1 0xA0 SHL SUB PUSH1 0x4 CALLDATALOAD PUSH1 0x84 CALLDATALOAD DUP3 DUP2 AND SWAP1 PUSH1 0x64 CALLDATALOAD SWAP1 PUSH1 0x44 CALLDATALOAD SWAP1 DUP4 SWAP1 SUB PUSH2 0x1E2 JUMPI DUP4 PUSH1 0x0 MSTORE PUSH1 0x2 PUSH1 0x20 MSTORE PUSH1 0x40 PUSH1 0x0 KECCAK256 SWAP5 PUSH1 0x9 DUP7 ADD SLOAD AND CALLER SUB PUSH2 0x711 JUMPI DUP2 DUP2 LT ISZERO PUSH2 0x6DD JUMPI DUP6 ISZERO PUSH2 0x6A8 JUMPI DUP6 PUSH1 0xA DUP7 PUSH32 0xE3D59D03839A10C8A5A85DD0D7E5A4AC45445821C5176529D2745ADF6915A161 SWAP9 PUSH1 0x3 PUSH1 0xA0 SWAP10 ADD SSTORE DUP4 PUSH1 0x4 DUP3 ADD SSTORE DUP5 PUSH1 0x5 DUP3 ADD SSTORE ADD DUP5 PUSH12 0xFFFFFFFFFFFFFFFFFFFFFFFF DUP9 SHL DUP3 SLOAD AND OR SWAP1 SSTORE PUSH1 0x40 MLOAD SWAP5 DUP6 MSTORE PUSH1 0x20 DUP6 ADD MSTORE PUSH1 0x40 DUP5 ADD MSTORE PUSH1 0x60 DUP4 ADD MSTORE PUSH1 0x80 DUP3 ADD MSTORE LOG1 STOP JUMPDEST PUSH1 0x40 MLOAD PUSH3 0x461BCD PUSH1 0xE5 SHL DUP2 MSTORE PUSH1 0x20 PUSH1 0x4 DUP3 ADD MSTORE PUSH1 0xD PUSH1 0x24 DUP3 ADD MSTORE PUSH13 0x496E76616C6964207072696365 PUSH1 0x98 SHL PUSH1 0x44 DUP3 ADD MSTORE PUSH1 0x64 SWAP1 REVERT JUMPDEST PUSH1 0x40 MLOAD PUSH3 0x461BCD PUSH1 0xE5 SHL DUP2 MSTORE PUSH1 0x20 PUSH1 0x4 DUP3 ADD MSTORE PUSH1 0xC PUSH1 0x24 DUP3 ADD MSTORE PUSH12 0x496E76616C69642074696D65 PUSH1 0xA0 SHL PUSH1 0x44 DUP3 ADD MSTORE PUSH1 0x64 SWAP1 REVERT JUMPDEST PUSH1 0x40 MLOAD PUSH3 0x461BCD PUSH1 0xE5 SHL DUP2 MSTORE PUSH1 0x20 PUSH1 0x4 DUP3 ADD MSTORE PUSH1 0xC PUSH1 0x24 DUP3 ADD MSTORE PUSH12 0x27B7363C9031B932B0BA37B9 PUSH1 0xA1 SHL PUSH1 0x44 DUP3 ADD MSTORE PUSH1 0x64 SWAP1 REVERT JUMPDEST PUSH2 0x120 CALLDATASIZE PUSH1 0x3 NOT ADD SLT PUSH2 0x1E2 JUMPI PUSH1 0x4 CALLDATALOAD PUSH1 0x1 PUSH1 0x1 PUSH1 0x40 SHL SUB DUP2 GT PUSH2 0x1E2 JUMPI PUSH2 0x771 SWAP1 CALLDATASIZE SWAP1 PUSH1 0x4 ADD PUSH2 0x1260 JUMP JUMPDEST PUSH1 0x44 CALLDATALOAD PUSH1 0x1 PUSH1 0x1 PUSH1 0x40 SHL SUB DUP2 GT PUSH2 0x1E2 JUMPI PUSH2 0x790 SWAP1 CALLDATASIZE SWAP1 PUSH1 0x4 ADD PUSH2 0x12B6 JUMP JUMPDEST SWAP1 PUSH1 0xA4 CALLDATALOAD PUSH1 0x1 PUSH1 0x1 PUSH1 0xA0 SHL SUB DUP2 AND DUP2 SUB PUSH2 0x1E2 JUMPI PUSH1 0xC4 CALLDATALOAD PUSH1 0x1 PUSH1 0x1 PUSH1 0x40 SHL SUB DUP2 GT PUSH2 0x1E2 JUMPI PUSH2 0x7C3 SWAP1 CALLDATASIZE SWAP1 PUSH1 0x4 ADD PUSH2 0x1260 JUMP JUMPDEST SWAP2 PUSH1 0xE4 CALLDATALOAD PUSH1 0x1 PUSH1 0x1 PUSH1 0x40 SHL SUB DUP2 GT PUSH2 0x1E2 JUMPI PUSH2 0x7E3 SWAP1 CALLDATASIZE SWAP1 PUSH1 0x4 ADD PUSH2 0x1260 JUMP JUMPDEST PUSH2 0x104 CALLDATALOAD PUSH1 0x1 PUSH1 0x1 PUSH1 0x40 SHL SUB DUP2 GT PUSH2 0x1E2 JUMPI PUSH2 0x803 SWAP1 CALLDATASIZE SWAP1 PUSH1 0x4 ADD PUSH2 0x12B6 JUMP JUMPDEST SWAP1 PUSH1 0x24 SWAP5 DUP6 CALLDATALOAD CALLVALUE SUB PUSH2 0x112A JUMPI PUSH1 0x84 CALLDATALOAD PUSH1 0x64 CALLDATALOAD LT ISZERO PUSH2 0x10CC JUMPI PUSH1 0x3 SLOAD SWAP7 PUSH1 0x40 MLOAD SWAP5 DUP6 PUSH2 0x1A0 DUP2 ADD LT PUSH1 0x1 PUSH1 0x1 PUSH1 0x40 SHL SUB PUSH2 0x1A0 DUP9 ADD GT OR PUSH2 0x10B7 JUMPI PUSH2 0x1A0 DUP7 ADD PUSH1 0x40 MSTORE DUP9 DUP7 MSTORE PUSH1 0x20 DUP7 ADD MSTORE PUSH1 0x40 DUP6 ADD MSTORE DUP6 CALLDATALOAD PUSH1 0x60 DUP6 ADD MSTORE PUSH1 0x64 CALLDATALOAD PUSH1 0x80 DUP6 ADD MSTORE PUSH1 0x84 CALLDATALOAD PUSH1 0xA0 DUP6 ADD MSTORE PUSH1 0xC0 DUP5 ADD MSTORE PUSH1 0xE0 DUP4 ADD MSTORE PUSH2 0x100 DUP3 ADD MSTORE CALLER PUSH2 0x120 DUP3 ADD MSTORE PUSH1 0x1 DUP1 PUSH1 0xA0 SHL SUB DUP3 AND PUSH2 0x140 DUP3 ADD MSTORE PUSH1 0x0 PUSH2 0x160 DUP3 ADD MSTORE PUSH1 0x0 PUSH2 0x180 DUP3 ADD MSTORE DUP4 PUSH1 0x0 MSTORE PUSH1 0x2 PUSH1 0x20 MSTORE PUSH1 0x40 PUSH1 0x0 KECCAK256 DUP2 MLOAD DUP2 SSTORE PUSH1 0x20 DUP3 ADD MLOAD DUP1 MLOAD SWAP1 PUSH1 0x1 PUSH1 0x1 PUSH1 0x40 SHL SUB DUP3 GT PUSH2 0xCF4 JUMPI DUP2 SWAP1 PUSH2 0x8D6 PUSH1 0x1 DUP6 ADD SLOAD PUSH2 0x1339 JUMP JUMPDEST PUSH1 0x1F DUP2 GT PUSH2 0x1082 JUMPI JUMPDEST POP PUSH1 0x20 SWAP1 PUSH1 0x1F DUP4 GT PUSH1 0x1 EQ PUSH2 0x1010 JUMPI PUSH1 0x0 SWAP3 PUSH2 0x1005 JUMPI JUMPDEST POP POP DUP2 PUSH1 0x1 SHL SWAP2 PUSH1 0x0 NOT SWAP1 PUSH1 0x3 SHL SHR NOT AND OR PUSH1 0x1 DUP3 ADD SSTORE JUMPDEST PUSH1 0x40 DUP3 ADD MLOAD DUP1 MLOAD SWAP1 PUSH1 0x1 PUSH1 0x40 SHL DUP3 GT PUSH2 0xCF4 JUMPI PUSH1 0x2 DUP4 ADD SLOAD DUP3 PUSH1 0x2 DUP6 ADD SSTORE DUP1 DUP4 LT PUSH2 0xF8D JUMPI JUMPDEST POP PUSH1 0x20 ADD PUSH1 0x2 DUP4 ADD PUSH1 0x0 MSTORE PUSH1 0x20 PUSH1 0x0 KECCAK256 PUSH1 0x0 SWAP2 JUMPDEST DUP4 DUP4 LT PUSH2 0xE6D JUMPI POP POP POP POP PUSH1 0x60 DUP3 ADD MLOAD PUSH1 0x3 DUP3 ADD SSTORE PUSH1 0x80 DUP3 ADD MLOAD PUSH1 0x4 DUP3 ADD SSTORE PUSH1 0xA0 DUP3 ADD MLOAD PUSH1 0x5 DUP3 ADD SSTORE PUSH1 0xC0 DUP3 ADD MLOAD DUP1 MLOAD SWAP1 PUSH1 0x1 PUSH1 0x1 PUSH1 0x40 SHL SUB DUP3 GT PUSH2 0xCF4 JUMPI DUP2 SWAP1 PUSH2 0x996 PUSH1 0x6 DUP6 ADD SLOAD PUSH2 0x1339 JUMP JUMPDEST PUSH1 0x1F DUP2 GT PUSH2 0xE38 JUMPI JUMPDEST POP PUSH1 0x20 SWAP1 PUSH1 0x1F DUP4 GT PUSH1 0x1 EQ PUSH2 0xDC6 JUMPI PUSH1 0x0 SWAP3 PUSH2 0xDBB JUMPI JUMPDEST POP POP DUP2 PUSH1 0x1 SHL SWAP2 PUSH1 0x0 NOT SWAP1 PUSH1 0x3 SHL SHR NOT AND OR PUSH1 0x6 DUP3 ADD SSTORE JUMPDEST PUSH1 0xE0 DUP3 ADD MLOAD DUP1 MLOAD SWAP1 PUSH1 0x1 PUSH1 0x1 PUSH1 0x40 SHL SUB DUP3 GT PUSH2 0xCF4 JUMPI DUP2 SWAP1 PUSH2 0x9F3 PUSH1 0x7 DUP6 ADD SLOAD PUSH2 0x1339 JUMP JUMPDEST PUSH1 0x1F DUP2 GT PUSH2 0xD86 JUMPI JUMPDEST POP PUSH1 0x20 SWAP1 PUSH1 0x1F DUP4 GT PUSH1 0x1 EQ PUSH2 0xD14 JUMPI PUSH1 0x0 SWAP3 PUSH2 0xD09 JUMPI JUMPDEST POP POP DUP2 PUSH1 0x1 SHL SWAP2 PUSH1 0x0 NOT SWAP1 PUSH1 0x3 SHL SHR NOT AND OR PUSH1 0x7 DUP3 ADD SSTORE JUMPDEST PUSH2 0x100 DUP3 ADD MLOAD DUP1 MLOAD SWAP1 PUSH1 0x1 PUSH1 0x40 SHL DUP3 GT PUSH2 0xCF4 JUMPI PUSH1 0x8 DUP4 ADD SLOAD DUP3 PUSH1 0x8 DUP6 ADD SSTORE DUP1 DUP4 LT PUSH2 0xC7C JUMPI JUMPDEST POP PUSH1 0x20 ADD PUSH1 0x8 DUP4 ADD PUSH1 0x0 MSTORE PUSH1 0x20 PUSH1 0x0 KECCAK256 PUSH1 0x0 SWAP2 JUMPDEST DUP4 DUP4 LT PUSH2 0xB47 JUMPI POP POP POP POP PUSH2 0x120 DUP3 ADD MLOAD PUSH1 0x9 DUP3 ADD DUP1 SLOAD PUSH1 0x1 PUSH1 0x1 PUSH1 0xA0 SHL SUB NOT AND PUSH1 0x1 PUSH1 0x1 PUSH1 0xA0 SHL SUB SWAP3 DUP4 AND OR SWAP1 SSTORE PUSH2 0x140 DUP4 ADD MLOAD PUSH1 0xA SWAP1 SWAP3 ADD DUP1 SLOAD PUSH2 0x160 DUP6 ADD MLOAD PUSH2 0x180 SWAP1 SWAP6 ADD MLOAD PUSH1 0x1 PUSH1 0x1 PUSH1 0xB0 SHL SUB NOT SWAP1 SWAP2 AND SWAP4 SWAP1 SWAP3 AND SWAP3 SWAP1 SWAP3 OR SWAP3 ISZERO ISZERO PUSH1 0xA0 SHL PUSH1 0xFF PUSH1 0xA0 SHL AND SWAP3 SWAP1 SWAP3 OR SWAP2 ISZERO ISZERO PUSH1 0xA8 SHL PUSH1 0xFF PUSH1 0xA8 SHL AND SWAP2 SWAP1 SWAP2 OR SWAP1 SSTORE PUSH1 0x3 SLOAD PUSH1 0x0 NOT DUP2 EQ PUSH2 0xB32 JUMPI PUSH1 0x1 ADD PUSH1 0x3 SSTORE PUSH1 0x40 MLOAD SWAP2 CALLDATALOAD DUP3 MSTORE PUSH1 0x1 PUSH1 0x1 PUSH1 0xA0 SHL SUB AND SWAP2 CALLER SWAP2 PUSH32 0x808C887919683A350ED55B3499F97ED7F4093ECC5E131FADB8B075A85457AF3A SWAP1 PUSH1 0x20 SWAP1 LOG4 STOP JUMPDEST DUP3 PUSH4 0x4E487B71 PUSH1 0xE0 SHL PUSH1 0x0 MSTORE PUSH1 0x11 PUSH1 0x4 MSTORE PUSH1 0x0 REVERT JUMPDEST DUP1 MLOAD DUP1 MLOAD SWAP1 PUSH1 0x1 PUSH1 0x1 PUSH1 0x40 SHL SUB DUP3 GT PUSH2 0xC67 JUMPI PUSH2 0xB64 DUP5 SLOAD PUSH2 0x1339 JUMP JUMPDEST PUSH1 0x1F DUP2 GT PUSH2 0xC2A JUMPI JUMPDEST POP PUSH1 0x20 SWAP1 PUSH1 0x1F DUP4 GT PUSH1 0x1 EQ PUSH2 0xBBA JUMPI SWAP3 DUP3 PUSH1 0x1 SWAP5 SWAP4 PUSH1 0x20 SWAP4 DUP7 SWAP6 PUSH1 0x0 SWAP3 PUSH2 0xBAF JUMPI JUMPDEST POP POP PUSH1 0x0 NOT PUSH1 0x3 DUP4 SWAP1 SHL SHR NOT AND SWAP1 DUP5 SHL OR DUP6 SSTORE JUMPDEST ADD SWAP3 ADD SWAP3 ADD SWAP2 SWAP1 PUSH2 0xA66 JUMP JUMPDEST ADD MLOAD SWAP1 POP DUP15 DUP1 PUSH2 0xB8F JUMP JUMPDEST SWAP1 DUP5 PUSH1 0x0 MSTORE PUSH1 0x20 PUSH1 0x0 KECCAK256 SWAP2 PUSH1 0x0 JUMPDEST PUSH1 0x1F NOT DUP6 AND DUP2 LT PUSH2 0xC12 JUMPI POP DUP4 PUSH1 0x20 SWAP4 PUSH1 0x1 SWAP7 SWAP4 DUP8 SWAP7 SWAP4 DUP8 SWAP5 PUSH1 0x1F NOT DUP2 AND LT PUSH2 0xBF9 JUMPI JUMPDEST POP POP POP DUP2 SHL ADD DUP6 SSTORE PUSH2 0xBA3 JUMP JUMPDEST ADD MLOAD PUSH1 0x0 NOT PUSH1 0xF8 DUP5 PUSH1 0x3 SHL AND SHR NOT AND SWAP1 SSTORE DUP15 DUP1 DUP1 PUSH2 0xBEC JUMP JUMPDEST SWAP2 SWAP3 PUSH1 0x20 PUSH1 0x1 DUP2 SWAP3 DUP7 DUP6 ADD MLOAD DUP2 SSTORE ADD SWAP5 ADD SWAP3 ADD PUSH2 0xBC8 JUMP JUMPDEST PUSH2 0xC57 SWAP1 DUP6 PUSH1 0x0 MSTORE PUSH1 0x20 PUSH1 0x0 KECCAK256 PUSH1 0x1F DUP6 ADD PUSH1 0x5 SHR DUP2 ADD SWAP2 PUSH1 0x20 DUP7 LT PUSH2 0xC5D JUMPI JUMPDEST PUSH1 0x1F ADD PUSH1 0x5 SHR ADD SWAP1 PUSH2 0x14B9 JUMP JUMPDEST DUP12 PUSH2 0xB6D JUMP JUMPDEST SWAP1 SWAP2 POP DUP2 SWAP1 PUSH2 0xC4A JUMP JUMPDEST DUP10 PUSH4 0x4E487B71 PUSH1 0xE0 SHL PUSH1 0x0 MSTORE PUSH1 0x41 PUSH1 0x4 MSTORE PUSH1 0x0 REVERT JUMPDEST PUSH1 0x8 DUP5 ADD PUSH1 0x0 MSTORE PUSH1 0x20 PUSH1 0x0 KECCAK256 SWAP1 DUP4 DUP3 ADD JUMPDEST DUP2 DUP4 ADD DUP2 LT PUSH2 0xC9D JUMPI POP POP PUSH2 0xA52 JUMP JUMPDEST DUP1 PUSH2 0xCAA PUSH1 0x1 SWAP3 SLOAD PUSH2 0x1339 JUMP JUMPDEST DUP1 PUSH2 0xCB7 JUMPI JUMPDEST POP ADD PUSH2 0xC8D JUMP JUMPDEST PUSH1 0x1F DUP2 GT DUP4 EQ PUSH2 0xCCD JUMPI POP PUSH1 0x0 DUP2 SSTORE JUMPDEST DUP12 PUSH2 0xCB0 JUMP JUMPDEST PUSH1 0x0 SWAP1 DUP3 DUP3 MSTORE PUSH2 0xCEB PUSH1 0x1F PUSH1 0x20 DUP5 KECCAK256 SWAP3 ADD PUSH1 0x5 SHR DUP3 ADD DUP6 DUP4 ADD PUSH2 0x14B9 JUMP JUMPDEST DUP2 DUP4 SSTORE SSTORE PUSH2 0xCC7 JUMP JUMPDEST DUP6 PUSH4 0x4E487B71 PUSH1 0xE0 SHL PUSH1 0x0 MSTORE PUSH1 0x41 PUSH1 0x4 MSTORE PUSH1 0x0 REVERT JUMPDEST ADD MLOAD SWAP1 POP DUP8 DUP1 PUSH2 0xA13 JUMP JUMPDEST SWAP3 POP PUSH1 0x7 DUP5 ADD PUSH1 0x0 MSTORE PUSH1 0x20 PUSH1 0x0 KECCAK256 SWAP1 PUSH1 0x0 SWAP4 JUMPDEST PUSH1 0x1F NOT DUP5 AND DUP6 LT PUSH2 0xD6B JUMPI PUSH1 0x1 SWAP5 POP DUP4 PUSH1 0x1F NOT DUP2 AND LT PUSH2 0xD52 JUMPI JUMPDEST POP POP POP DUP2 SHL ADD PUSH1 0x7 DUP3 ADD SSTORE PUSH2 0xA2B JUMP JUMPDEST ADD MLOAD PUSH1 0x0 NOT PUSH1 0xF8 DUP5 PUSH1 0x3 SHL AND SHR NOT AND SWAP1 SSTORE DUP8 DUP1 DUP1 PUSH2 0xD42 JUMP JUMPDEST DUP2 DUP2 ADD MLOAD DUP4 SSTORE PUSH1 0x20 SWAP5 DUP6 ADD SWAP5 PUSH1 0x1 SWAP1 SWAP4 ADD SWAP3 SWAP1 SWAP2 ADD SWAP1 PUSH2 0xD27 JUMP JUMPDEST PUSH2 0xDB5 SWAP1 PUSH1 0x7 DUP7 ADD PUSH1 0x0 MSTORE PUSH1 0x20 PUSH1 0x0 KECCAK256 PUSH1 0x1F DUP6 ADD PUSH1 0x5 SHR DUP2 ADD SWAP2 PUSH1 0x20 DUP7 LT PUSH2 0xC5D JUMPI PUSH1 0x1F ADD PUSH1 0x5 SHR ADD SWAP1 PUSH2 0x14B9 JUMP JUMPDEST DUP9 PUSH2 0x9FC JUMP JUMPDEST ADD MLOAD SWAP1 POP DUP8 DUP1 PUSH2 0x9B6 JUMP JUMPDEST SWAP3 POP PUSH1 0x6 DUP5 ADD PUSH1 0x0 MSTORE PUSH1 0x20 PUSH1 0x0 KECCAK256 SWAP1 PUSH1 0x0 SWAP4 JUMPDEST PUSH1 0x1F NOT DUP5 AND DUP6 LT PUSH2 0xE1D JUMPI PUSH1 0x1 SWAP5 POP DUP4 PUSH1 0x1F NOT DUP2 AND LT PUSH2 0xE04 JUMPI JUMPDEST POP POP POP DUP2 SHL ADD PUSH1 0x6 DUP3 ADD SSTORE PUSH2 0x9CE JUMP JUMPDEST ADD MLOAD PUSH1 0x0 NOT PUSH1 0xF8 DUP5 PUSH1 0x3 SHL AND SHR NOT AND SWAP1 SSTORE DUP8 DUP1 DUP1 PUSH2 0xDF4 JUMP JUMPDEST DUP2 DUP2 ADD MLOAD DUP4 SSTORE PUSH1 0x20 SWAP5 DUP6 ADD SWAP5 PUSH1 0x1 SWAP1 SWAP4 ADD SWAP3 SWAP1 SWAP2 ADD SWAP1 PUSH2 0xDD9 JUMP JUMPDEST PUSH2 0xE67 SWAP1 PUSH1 0x6 DUP7 ADD PUSH1 0x0 MSTORE PUSH1 0x20 PUSH1 0x0 KECCAK256 PUSH1 0x1F DUP6 ADD PUSH1 0x5 SHR DUP2 ADD SWAP2 PUSH1 0x20 DUP7 LT PUSH2 0xC5D JUMPI PUSH1 0x1F ADD PUSH1 0x5 SHR ADD SWAP1 PUSH2 0x14B9 JUMP JUMPDEST DUP9 PUSH2 0x99F JUMP JUMPDEST DUP1 MLOAD DUP1 MLOAD SWAP1 PUSH1 0x1 PUSH1 0x1 PUSH1 0x40 SHL SUB DUP3 GT PUSH2 0xC67 JUMPI PUSH2 0xE8A DUP5 SLOAD PUSH2 0x1339 JUMP JUMPDEST PUSH1 0x1F DUP2 GT PUSH2 0xF50 JUMPI JUMPDEST POP PUSH1 0x20 SWAP1 PUSH1 0x1F DUP4 GT PUSH1 0x1 EQ PUSH2 0xEE0 JUMPI SWAP3 DUP3 PUSH1 0x1 SWAP5 SWAP4 PUSH1 0x20 SWAP4 DUP7 SWAP6 PUSH1 0x0 SWAP3 PUSH2 0xED5 JUMPI JUMPDEST POP POP PUSH1 0x0 NOT PUSH1 0x3 DUP4 SWAP1 SHL SHR NOT AND SWAP1 DUP5 SHL OR DUP6 SSTORE JUMPDEST ADD SWAP3 ADD SWAP3 ADD SWAP2 SWAP1 PUSH2 0x948 JUMP JUMPDEST ADD MLOAD SWAP1 POP DUP15 DUP1 PUSH2 0xEB5 JUMP JUMPDEST SWAP1 DUP5 PUSH1 0x0 MSTORE PUSH1 0x20 PUSH1 0x0 KECCAK256 SWAP2 PUSH1 0x0 JUMPDEST PUSH1 0x1F NOT DUP6 AND DUP2 LT PUSH2 0xF38 JUMPI POP DUP4 PUSH1 0x20 SWAP4 PUSH1 0x1 SWAP7 SWAP4 DUP8 SWAP7 SWAP4 DUP8 SWAP5 PUSH1 0x1F NOT DUP2 AND LT PUSH2 0xF1F JUMPI JUMPDEST POP POP POP DUP2 SHL ADD DUP6 SSTORE PUSH2 0xEC9 JUMP JUMPDEST ADD MLOAD PUSH1 0x0 NOT PUSH1 0xF8 DUP5 PUSH1 0x3 SHL AND SHR NOT AND SWAP1 SSTORE DUP15 DUP1 DUP1 PUSH2 0xF12 JUMP JUMPDEST SWAP2 SWAP3 PUSH1 0x20 PUSH1 0x1 DUP2 SWAP3 DUP7 DUP6 ADD MLOAD DUP2 SSTORE ADD SWAP5 ADD SWAP3 ADD PUSH2 0xEEE JUMP JUMPDEST PUSH2 0xF7D SWAP1 DUP6 PUSH1 0x0 MSTORE PUSH1 0x20 PUSH1 0x0 KECCAK256 PUSH1 0x5 PUSH1 0x1F DUP7 ADD DUP2 SHR DUP3 ADD SWAP3 PUSH1 0x20 DUP8 LT PUSH2 0xF83 JUMPI JUMPDEST PUSH1 0x1F ADD SWAP1 SHR ADD SWAP1 PUSH2 0x14B9 JUMP JUMPDEST DUP12 PUSH2 0xE93 JUMP JUMPDEST SWAP2 SWAP3 POP DUP3 SWAP2 PUSH2 0xF71 JUMP JUMPDEST PUSH1 0x2 DUP5 ADD PUSH1 0x0 MSTORE PUSH1 0x20 PUSH1 0x0 KECCAK256 SWAP1 DUP4 DUP3 ADD JUMPDEST DUP2 DUP4 ADD DUP2 LT PUSH2 0xFAE JUMPI POP POP PUSH2 0x934 JUMP JUMPDEST DUP1 PUSH2 0xFBB PUSH1 0x1 SWAP3 SLOAD PUSH2 0x1339 JUMP JUMPDEST DUP1 PUSH2 0xFC8 JUMPI JUMPDEST POP ADD PUSH2 0xF9E JUMP JUMPDEST PUSH1 0x1F DUP2 GT DUP4 EQ PUSH2 0xFDE JUMPI POP PUSH1 0x0 DUP2 SSTORE JUMPDEST DUP12 PUSH2 0xFC1 JUMP JUMPDEST PUSH1 0x0 SWAP1 DUP3 DUP3 MSTORE PUSH2 0xFFC PUSH1 0x1F PUSH1 0x20 DUP5 KECCAK256 SWAP3 ADD PUSH1 0x5 SHR DUP3 ADD DUP6 DUP4 ADD PUSH2 0x14B9 JUMP JUMPDEST DUP2 DUP4 SSTORE SSTORE PUSH2 0xFD8 JUMP JUMPDEST ADD MLOAD SWAP1 POP DUP8 DUP1 PUSH2 0x8F6 JUMP JUMPDEST SWAP3 POP PUSH1 0x1 DUP5 ADD PUSH1 0x0 MSTORE PUSH1 0x20 PUSH1 0x0 KECCAK256 SWAP1 PUSH1 0x0 SWAP4 JUMPDEST PUSH1 0x1F NOT DUP5 AND DUP6 LT PUSH2 0x1067 JUMPI PUSH1 0x1 SWAP5 POP DUP4 PUSH1 0x1F NOT DUP2 AND LT PUSH2 0x104E JUMPI JUMPDEST POP POP POP DUP2 SHL ADD PUSH1 0x1 DUP3 ADD SSTORE PUSH2 0x90E JUMP JUMPDEST ADD MLOAD PUSH1 0x0 NOT PUSH1 0xF8 DUP5 PUSH1 0x3 SHL AND SHR NOT AND SWAP1 SSTORE DUP8 DUP1 DUP1 PUSH2 0x103E JUMP JUMPDEST DUP2 DUP2 ADD MLOAD DUP4 SSTORE PUSH1 0x20 SWAP5 DUP6 ADD SWAP5 PUSH1 0x1 SWAP1 SWAP4 ADD SWAP3 SWAP1 SWAP2 ADD SWAP1 PUSH2 0x1023 JUMP JUMPDEST PUSH2 0x10B1 SWAP1 PUSH1 0x1 DUP7 ADD PUSH1 0x0 MSTORE PUSH1 0x20 PUSH1 0x0 KECCAK256 PUSH1 0x1F DUP6 ADD PUSH1 0x5 SHR DUP2 ADD SWAP2 PUSH1 0x20 DUP7 LT PUSH2 0xC5D JUMPI PUSH1 0x1F ADD PUSH1 0x5 SHR ADD SWAP1 PUSH2 0x14B9 JUMP JUMPDEST DUP9 PUSH2 0x8DF JUMP JUMPDEST DUP8 PUSH4 0x4E487B71 PUSH1 0xE0 SHL PUSH1 0x0 MSTORE PUSH1 0x41 PUSH1 0x4 MSTORE PUSH1 0x0 REVERT JUMPDEST PUSH1 0x40 MLOAD PUSH3 0x461BCD PUSH1 0xE5 SHL DUP2 MSTORE PUSH1 0x20 PUSH1 0x4 DUP3 ADD MSTORE PUSH1 0x31 DUP2 DUP9 ADD MSTORE PUSH32 0x5468652053746172742074696D65206D757374206265206561726C6965722074 PUSH1 0x44 DUP3 ADD MSTORE PUSH17 0x3430B7103A34329032B732103A34B6B297 PUSH1 0x79 SHL PUSH1 0x64 DUP3 ADD MSTORE PUSH1 0x84 SWAP1 REVERT JUMPDEST PUSH1 0x40 MLOAD PUSH3 0x461BCD PUSH1 0xE5 SHL DUP2 MSTORE PUSH1 0x20 PUSH1 0x4 DUP3 ADD MSTORE PUSH1 0x2D DUP2 DUP9 ADD MSTORE PUSH32 0x546865204554482073656E7420646F6573206E6F74206D617463682074686520 PUSH1 0x44 DUP3 ADD MSTORE PUSH13 0x70726F6772616D207072696365 PUSH1 0x98 SHL PUSH1 0x64 DUP3 ADD MSTORE PUSH1 0x84 SWAP1 REVERT JUMPDEST CALLVALUE PUSH2 0x1E2 JUMPI PUSH1 0x0 CALLDATASIZE PUSH1 0x3 NOT ADD SLT PUSH2 0x1E2 JUMPI PUSH2 0x119D PUSH2 0x1461 JUMP JUMPDEST PUSH1 0x0 DUP1 SLOAD PUSH1 0x1 PUSH1 0x1 PUSH1 0xA0 SHL SUB NOT DUP2 AND DUP3 SSTORE PUSH1 0x1 PUSH1 0x1 PUSH1 0xA0 SHL SUB AND PUSH32 0x8BE0079C531659141344CD1FD0A4F28419497F9722A3DAAFE3B4186F6B6457E0 DUP3 DUP1 LOG3 STOP JUMPDEST CALLVALUE PUSH2 0x1E2 JUMPI PUSH1 0x20 CALLDATASIZE PUSH1 0x3 NOT ADD SLT PUSH2 0x1E2 JUMPI PUSH32 0x8C4D35E54A3F2EF1134138FD8EA3DAEE6A3C89E10D2665996BABDF70261E2C76 PUSH1 0x20 PUSH1 0x4 CALLDATALOAD PUSH2 0x121C PUSH2 0x1461 JUMP JUMPDEST DUP1 PUSH1 0x4 SSTORE PUSH1 0x40 MLOAD SWAP1 DUP2 MSTORE LOG1 STOP JUMPDEST SWAP1 PUSH1 0x1F DUP1 NOT SWAP2 ADD AND DUP2 ADD SWAP1 DUP2 LT PUSH1 0x1 PUSH1 0x1 PUSH1 0x40 SHL SUB DUP3 GT OR PUSH2 0x124A JUMPI PUSH1 0x40 MSTORE JUMP JUMPDEST PUSH4 0x4E487B71 PUSH1 0xE0 SHL PUSH1 0x0 MSTORE PUSH1 0x41 PUSH1 0x4 MSTORE PUSH1 0x24 PUSH1 0x0 REVERT JUMPDEST DUP2 PUSH1 0x1F DUP3 ADD SLT ISZERO PUSH2 0x1E2 JUMPI DUP1 CALLDATALOAD SWAP1 PUSH1 0x1 PUSH1 0x1 PUSH1 0x40 SHL SUB DUP3 GT PUSH2 0x124A JUMPI PUSH1 0x40 MLOAD SWAP3 PUSH2 0x1294 PUSH1 0x1F DUP5 ADD PUSH1 0x1F NOT AND PUSH1 0x20 ADD DUP6 PUSH2 0x1229 JUMP JUMPDEST DUP3 DUP5 MSTORE PUSH1 0x20 DUP4 DUP4 ADD ADD GT PUSH2 0x1E2 JUMPI DUP2 PUSH1 0x0 SWAP3 PUSH1 0x20 DUP1 SWAP4 ADD DUP4 DUP7 ADD CALLDATACOPY DUP4 ADD ADD MSTORE SWAP1 JUMP JUMPDEST SWAP1 DUP1 PUSH1 0x1F DUP4 ADD SLT ISZERO PUSH2 0x1E2 JUMPI DUP2 CALLDATALOAD SWAP1 PUSH1 0x1 PUSH1 0x1 PUSH1 0x40 SHL SUB SWAP3 DUP4 DUP4 GT PUSH2 0x124A JUMPI DUP3 PUSH1 0x5 SHL PUSH1 0x40 MLOAD SWAP5 PUSH1 0x20 SWAP5 PUSH2 0x12EC DUP7 DUP5 ADD DUP9 PUSH2 0x1229 JUMP JUMPDEST DUP7 MSTORE DUP5 DUP1 DUP8 ADD SWAP3 DUP5 ADD ADD SWAP4 DUP1 DUP6 GT PUSH2 0x1E2 JUMPI DUP6 DUP5 ADD SWAP3 JUMPDEST DUP6 DUP5 LT PUSH2 0x1314 JUMPI POP POP POP POP POP POP POP SWAP1 JUMP JUMPDEST DUP4 CALLDATALOAD DUP4 DUP2 GT PUSH2 0x1E2 JUMPI DUP8 SWAP2 PUSH2 0x132E DUP5 DUP5 DUP1 SWAP5 DUP11 ADD ADD PUSH2 0x1260 JUMP JUMPDEST DUP2 MSTORE ADD SWAP4 ADD SWAP3 PUSH2 0x1303 JUMP JUMPDEST SWAP1 PUSH1 0x1 DUP3 DUP2 SHR SWAP3 AND DUP1 ISZERO PUSH2 0x1369 JUMPI JUMPDEST PUSH1 0x20 DUP4 LT EQ PUSH2 0x1353 JUMPI JUMP JUMPDEST PUSH4 0x4E487B71 PUSH1 0xE0 SHL PUSH1 0x0 MSTORE PUSH1 0x22 PUSH1 0x4 MSTORE PUSH1 0x24 PUSH1 0x0 REVERT JUMPDEST SWAP2 PUSH1 0x7F AND SWAP2 PUSH2 0x1348 JUMP JUMPDEST SWAP1 PUSH1 0x40 MLOAD SWAP2 DUP3 PUSH1 0x0 DUP3 SLOAD SWAP3 PUSH2 0x1387 DUP5 PUSH2 0x1339 JUMP JUMPDEST SWAP1 DUP2 DUP5 MSTORE PUSH1 0x1 SWAP5 DUP6 DUP2 AND SWAP1 DUP2 PUSH1 0x0 EQ PUSH2 0x13F6 JUMPI POP PUSH1 0x1 EQ PUSH2 0x13B3 JUMPI JUMPDEST POP POP PUSH2 0x13B1 SWAP3 POP SUB DUP4 PUSH2 0x1229 JUMP JUMPDEST JUMP JUMPDEST SWAP1 SWAP4 SWAP2 POP PUSH1 0x0 MSTORE PUSH1 0x20 SWAP1 DUP2 PUSH1 0x0 KECCAK256 SWAP4 PUSH1 0x0 SWAP2 JUMPDEST DUP2 DUP4 LT PUSH2 0x13DE JUMPI POP POP PUSH2 0x13B1 SWAP4 POP DUP3 ADD ADD CODESIZE DUP1 PUSH2 0x13A3 JUMP JUMPDEST DUP6 SLOAD DUP9 DUP5 ADD DUP6 ADD MSTORE SWAP5 DUP6 ADD SWAP5 DUP8 SWAP5 POP SWAP2 DUP4 ADD SWAP2 PUSH2 0x13C6 JUMP JUMPDEST SWAP2 POP POP PUSH2 0x13B1 SWAP5 POP PUSH1 0x20 SWAP3 POP PUSH1 0xFF NOT AND DUP3 DUP5 ADD MSTORE ISZERO ISZERO PUSH1 0x5 SHL DUP3 ADD ADD CODESIZE DUP1 PUSH2 0x13A3 JUMP JUMPDEST PUSH1 0x0 JUMPDEST DUP4 DUP2 LT PUSH2 0x142C JUMPI POP POP PUSH1 0x0 SWAP2 ADD MSTORE JUMP JUMPDEST DUP2 DUP2 ADD MLOAD DUP4 DUP3 ADD MSTORE PUSH1 0x20 ADD PUSH2 0x141C JUMP JUMPDEST SWAP1 PUSH1 0x20 SWAP2 PUSH2 0x1455 DUP2 MLOAD DUP1 SWAP3 DUP2 DUP6 MSTORE DUP6 DUP1 DUP7 ADD SWAP2 ADD PUSH2 0x1419 JUMP JUMPDEST PUSH1 0x1F ADD PUSH1 0x1F NOT AND ADD ADD SWAP1 JUMP JUMPDEST PUSH1 0x0 SLOAD PUSH1 0x1 PUSH1 0x1 PUSH1 0xA0 SHL SUB AND CALLER SUB PUSH2 0x1475 JUMPI JUMP JUMPDEST PUSH1 0x64 PUSH1 0x40 MLOAD PUSH3 0x461BCD PUSH1 0xE5 SHL DUP2 MSTORE PUSH1 0x20 PUSH1 0x4 DUP3 ADD MSTORE PUSH1 0x20 PUSH1 0x24 DUP3 ADD MSTORE PUSH32 0x4F776E61626C653A2063616C6C6572206973206E6F7420746865206F776E6572 PUSH1 0x44 DUP3 ADD MSTORE REVERT JUMPDEST DUP2 DUP2 LT PUSH2 0x14C4 JUMPI POP POP JUMP JUMPDEST PUSH1 0x0 DUP2 SSTORE PUSH1 0x1 ADD PUSH2 0x14B9 JUMP JUMPDEST PUSH1 0x2 PUSH1 0x1 SLOAD EQ PUSH2 0x14E1 JUMPI PUSH1 0x2 PUSH1 0x1 SSTORE JUMP JUMPDEST PUSH1 0x40 MLOAD PUSH3 0x461BCD PUSH1 0xE5 SHL DUP2 MSTORE PUSH1 0x20 PUSH1 0x4 DUP3 ADD MSTORE PUSH1 0x1F PUSH1 0x24 DUP3 ADD MSTORE PUSH32 0x5265656E7472616E637947756172643A207265656E7472616E742063616C6C00 PUSH1 0x44 DUP3 ADD MSTORE PUSH1 0x64 SWAP1 REVERT INVALID LOG2 PUSH5 0x6970667358 0x22 SLT KECCAK256 0xE2 0xE7 0xD6 0xB1 SWAP15 0xE5 RETURNDATACOPY 0x2F 0xC2 SHR 0x2A PUSH4 0x97E92ABA 0x4E 0xB5 0xDB 0xF8 GT 0xD 0xEE SWAP6 DUP9 0x4F 0x2C 0xB2 0xF6 PUSH4 0x9B216473 PUSH16 0x6C634300081400330000000000000000 "},"methodIdentifiers":{"acceptMilestone(uint256,string,address,uint256)":"f2479186","createEduProgram(string,uint256,string[],uint256,uint256,address,string,string,string[])":"78ea19b0","eduPrograms(uint256)":"d613fd24","getFee()":"ced72f87","nextProgramId()":"ba71b330","owner()":"8da5cb5b","reclaimFunds(uint256)":"f9f161a8","renounceOwnership()":"715018a6","setFee(uint256)":"69fe0e2d","transferOwnership(address)":"f2fde38b","updateProgram(uint256,uint256,uint256,uint256,address)":"89001eb1"}}}}}