{"contracts/LdEduProgram.sol":{"LdEduProgram":{"abi":[{"inputs":[{"internalType":"address","name":"initialOwner","type":"address"}],"stateMutability":"nonpayable","type":"constructor"},{"anonymous":false,"inputs":[{"indexed":true,"internalType":"uint256","name":"programId","type":"uint256"},{"indexed":false,"internalType":"uint256","name":"applicationId","type":"uint256"},{"indexed":false,"internalType":"address","name":"builder","type":"address"},{"indexed":false,"internalType":"uint256[]","name":"milestoneIds","type":"uint256[]"}],"name":"ApplicationSelected","type":"event"},{"anonymous":false,"inputs":[{"indexed":false,"internalType":"uint256","name":"newFee","type":"uint256"}],"name":"FeeUpdated","type":"event"},{"anonymous":false,"inputs":[{"indexed":true,"internalType":"uint256","name":"id","type":"uint256"},{"indexed":false,"internalType":"address","name":"maker","type":"address"},{"indexed":false,"internalType":"uint256","name":"amount","type":"uint256"}],"name":"FundsReclaimed","type":"event"},{"anonymous":false,"inputs":[{"indexed":true,"internalType":"uint256","name":"id","type":"uint256"},{"indexed":false,"internalType":"uint256","name":"milestoneId","type":"uint256"},{"indexed":false,"internalType":"uint256","name":"reward","type":"uint256"}],"name":"MilestoneAccepted","type":"event"},{"anonymous":false,"inputs":[{"indexed":true,"internalType":"uint256","name":"id","type":"uint256"},{"indexed":false,"internalType":"uint256","name":"milestoneId","type":"uint256"}],"name":"MilestoneRejected","type":"event"},{"anonymous":false,"inputs":[{"indexed":true,"internalType":"uint256","name":"id","type":"uint256"},{"indexed":false,"internalType":"uint256","name":"milestoneId","type":"uint256"},{"indexed":false,"internalType":"string[]","name":"links","type":"string[]"}],"name":"MilestoneSubmitted","type":"event"},{"anonymous":false,"inputs":[{"indexed":true,"internalType":"address","name":"previousOwner","type":"address"},{"indexed":true,"internalType":"address","name":"newOwner","type":"address"}],"name":"OwnershipTransferred","type":"event"},{"anonymous":false,"inputs":[{"indexed":true,"internalType":"uint256","name":"id","type":"uint256"},{"indexed":false,"internalType":"uint256[]","name":"milestoneIds","type":"uint256[]"}],"name":"ProgramApplied","type":"event"},{"anonymous":false,"inputs":[{"indexed":true,"internalType":"uint256","name":"programId","type":"uint256"}],"name":"ProgramApproved","type":"event"},{"anonymous":false,"inputs":[{"indexed":true,"internalType":"uint256","name":"id","type":"uint256"},{"indexed":false,"internalType":"address","name":"builder","type":"address"},{"indexed":false,"internalType":"uint256","name":"amount","type":"uint256"}],"name":"ProgramClaimed","type":"event"},{"anonymous":false,"inputs":[{"indexed":true,"internalType":"uint256","name":"id","type":"uint256"},{"indexed":true,"internalType":"address","name":"maker","type":"address"},{"indexed":true,"internalType":"address","name":"validator","type":"address"},{"indexed":false,"internalType":"uint256","name":"price","type":"uint256"}],"name":"ProgramCreated","type":"event"},{"anonymous":false,"inputs":[{"indexed":false,"internalType":"uint256","name":"programId","type":"uint256"},{"indexed":false,"internalType":"uint256","name":"price","type":"uint256"},{"indexed":false,"internalType":"uint256","name":"startTime","type":"uint256"},{"indexed":false,"internalType":"uint256","name":"endTime","type":"uint256"},{"indexed":false,"internalType":"address","name":"newValidator","type":"address"}],"name":"ProgramEdited","type":"event"},{"inputs":[{"internalType":"uint256","name":"programId","type":"uint256"},{"internalType":"uint256","name":"milestoneId","type":"uint256"}],"name":"acceptMilestone","outputs":[],"stateMutability":"nonpayable","type":"function"},{"inputs":[{"internalType":"uint256","name":"programId","type":"uint256"}],"name":"approveProgram","outputs":[],"stateMutability":"nonpayable","type":"function"},{"inputs":[{"internalType":"string","name":"_name","type":"string"},{"internalType":"uint256","name":"_price","type":"uint256"},{"internalType":"string[]","name":"_keywords","type":"string[]"},{"internalType":"uint256","name":"_startTime","type":"uint256"},{"internalType":"uint256","name":"_endTime","type":"uint256"},{"internalType":"address","name":"_validator","type":"address"},{"internalType":"string","name":"_summary","type":"string"},{"internalType":"string","name":"_description","type":"string"},{"internalType":"string[]","name":"_links","type":"string[]"}],"name":"createEduProgram","outputs":[],"stateMutability":"payable","type":"function"},{"inputs":[{"internalType":"uint256","name":"","type":"uint256"}],"name":"eduPrograms","outputs":[{"internalType":"uint256","name":"id","type":"uint256"},{"internalType":"string","name":"name","type":"string"},{"internalType":"uint256","name":"price","type":"uint256"},{"internalType":"uint256","name":"startTime","type":"uint256"},{"internalType":"uint256","name":"endTime","type":"uint256"},{"internalType":"string","name":"summary","type":"string"},{"internalType":"string","name":"description","type":"string"},{"internalType":"address","name":"maker","type":"address"},{"internalType":"address","name":"validator","type":"address"},{"internalType":"bool","name":"approve","type":"bool"},{"internalType":"bool","name":"claimed","type":"bool"},{"internalType":"address","name":"builder","type":"address"}],"stateMutability":"view","type":"function"},{"inputs":[],"name":"getFee","outputs":[{"internalType":"uint256","name":"","type":"uint256"}],"stateMutability":"view","type":"function"},{"inputs":[{"internalType":"uint256","name":"programId","type":"uint256"}],"name":"getMilestones","outputs":[{"components":[{"internalType":"uint256","name":"id","type":"uint256"},{"internalType":"string","name":"name","type":"string"},{"internalType":"string","name":"description","type":"string"},{"internalType":"uint256","name":"price","type":"uint256"},{"internalType":"enum LdEduProgram.MilestoneStatus","name":"status","type":"uint8"},{"internalType":"string[]","name":"links","type":"string[]"}],"internalType":"struct LdEduProgram.Milestone[]","name":"","type":"tuple[]"}],"stateMutability":"view","type":"function"},{"inputs":[{"internalType":"uint256","name":"","type":"uint256"},{"internalType":"uint256","name":"","type":"uint256"}],"name":"milestoneIds","outputs":[{"internalType":"uint256","name":"","type":"uint256"}],"stateMutability":"view","type":"function"},{"inputs":[{"internalType":"uint256","name":"","type":"uint256"}],"name":"nextApplicationId","outputs":[{"internalType":"uint256","name":"","type":"uint256"}],"stateMutability":"view","type":"function"},{"inputs":[{"internalType":"uint256","name":"","type":"uint256"}],"name":"nextMilestoneId","outputs":[{"internalType":"uint256","name":"","type":"uint256"}],"stateMutability":"view","type":"function"},{"inputs":[],"name":"nextProgramId","outputs":[{"internalType":"uint256","name":"","type":"uint256"}],"stateMutability":"view","type":"function"},{"inputs":[],"name":"owner","outputs":[{"internalType":"address","name":"","type":"address"}],"stateMutability":"view","type":"function"},{"inputs":[{"internalType":"uint256","name":"","type":"uint256"},{"internalType":"uint256","name":"","type":"uint256"}],"name":"programApplications","outputs":[{"internalType":"uint256","name":"id","type":"uint256"},{"internalType":"address","name":"builder","type":"address"},{"internalType":"enum LdEduProgram.ApplicationStatus","name":"status","type":"uint8"}],"stateMutability":"view","type":"function"},{"inputs":[{"internalType":"uint256","name":"","type":"uint256"},{"internalType":"uint256","name":"","type":"uint256"}],"name":"programMilestones","outputs":[{"internalType":"uint256","name":"id","type":"uint256"},{"internalType":"string","name":"name","type":"string"},{"internalType":"string","name":"description","type":"string"},{"internalType":"uint256","name":"price","type":"uint256"},{"internalType":"enum LdEduProgram.MilestoneStatus","name":"status","type":"uint8"}],"stateMutability":"view","type":"function"},{"inputs":[{"internalType":"uint256","name":"programId","type":"uint256"}],"name":"reclaimFunds","outputs":[],"stateMutability":"nonpayable","type":"function"},{"inputs":[{"internalType":"uint256","name":"programId","type":"uint256"},{"internalType":"uint256","name":"milestoneId","type":"uint256"}],"name":"rejectMilestone","outputs":[],"stateMutability":"nonpayable","type":"function"},{"inputs":[],"name":"renounceOwnership","outputs":[],"stateMutability":"nonpayable","type":"function"},{"inputs":[{"internalType":"uint256","name":"programId","type":"uint256"},{"internalType":"uint256","name":"applicationId","type":"uint256"},{"internalType":"bool","name":"isSelected","type":"bool"}],"name":"selectApplication","outputs":[],"stateMutability":"nonpayable","type":"function"},{"inputs":[{"internalType":"uint256","name":"","type":"uint256"}],"name":"selectedApplicationIndex","outputs":[{"internalType":"uint256","name":"","type":"uint256"}],"stateMutability":"view","type":"function"},{"inputs":[{"internalType":"uint256","name":"_fee","type":"uint256"}],"name":"setFee","outputs":[],"stateMutability":"nonpayable","type":"function"},{"inputs":[{"internalType":"uint256","name":"programId","type":"uint256"},{"internalType":"string[]","name":"names","type":"string[]"},{"internalType":"string[]","name":"descriptions","type":"string[]"},{"internalType":"uint256[]","name":"prices","type":"uint256[]"}],"name":"submitApplication","outputs":[],"stateMutability":"nonpayable","type":"function"},{"inputs":[{"internalType":"uint256","name":"programId","type":"uint256"},{"internalType":"uint256","name":"milestoneId","type":"uint256"},{"internalType":"string[]","name":"links","type":"string[]"}],"name":"submitMilestone","outputs":[],"stateMutability":"nonpayable","type":"function"},{"inputs":[{"internalType":"address","name":"newOwner","type":"address"}],"name":"transferOwnership","outputs":[],"stateMutability":"nonpayable","type":"function"},{"inputs":[{"internalType":"uint256","name":"programId","type":"uint256"},{"internalType":"uint256","name":"price","type":"uint256"},{"internalType":"uint256","name":"startTime","type":"uint256"},{"internalType":"uint256","name":"endTime","type":"uint256"},{"internalType":"address","name":"newValidator","type":"address"}],"name":"updateProgram","outputs":[],"stateMutability":"nonpayable","type":"function"}],"evm":{"bytecode":{"linkReferences":{},"object":"6080346200007e57601f62002d5a38819003918201601f19168301916001600160401b0383118484101762000083578084926020946040528339810103126200007e57516001600160a01b03811681036200007e576200006e90620000643362000099565b6001805562000099565b604051612c799081620000e18239f35b600080fd5b634e487b7160e01b600052604160045260246000fd5b600080546001600160a01b039283166001600160a01b03198216811783559216907f8be0079c531659141344cd1fd0a4f28419497f9722a3daafe3b4186f6b6457e09080a356fe6080604052600436101561001257600080fd5b60003560e01c80633abe6bd71461254b57806342c549c0146122875780634942ec021461202d578063544aabd014611fee57806369fe0e2d14611fa2578063715018a614611f4957806378ea19b0146117785780637d5cae031461171257806383472f5b146116e657806389001eb1146115835780638da5cb5b1461155a57806393eb1026146113d95780639e57d58914611092578063a112ed4e14610653578063a1a5729614610627578063b0d456ac14610592578063ba71b33014610574578063ced72f8714610556578063d201593f146104c1578063d613fd24146103c3578063f2fde38b146102fd578063f6c78263146102d15763f9f161a81461011957600080fd5b346102cc5760203660031901126102cc57600435610135612bed565b8060005260026020526040600020600a810190815461015a60ff8260a01c1615612ac3565b60ff8160a81c1661029557600582015442111561025857600982019260018060a01b0391828554169384330361021b5760ff60a81b19909116600160a81b1790915560030180549092600091829182918291828215610212575bf115610206579154905460408051929093166001600160a01b0316825260208201527fd37c0b9c7560299a7c963d03165111d712663805228e5ffca03d540c5d6e410e91819081015b0390a260018055005b6040513d6000823e3d90fd5b506108fc6101b4565b60405162461bcd60e51b81526020600482015260156024820152742737ba103a343290383937b3b930b69036b0b5b2b960591b6044820152606490fd5b60405162461bcd60e51b8152602060048201526015602482015274141c9bd9dc985b481b9bdd08195b991959081e595d605a1b6044820152606490fd5b60405162461bcd60e51b815260206004820152600f60248201526e105b1c9958591e4818db185a5b5959608a1b6044820152606490fd5b600080fd5b346102cc5760203660031901126102cc5760043560005260066020526020604060002054604051908152f35b346102cc5760203660031901126102cc576004356001600160a01b03818116918290036102cc5761032c6128f8565b811561036f57600054826001600160601b0360a01b821617600055167f8be0079c531659141344cd1fd0a4f28419497f9722a3daafe3b4186f6b6457e0600080a3005b60405162461bcd60e51b815260206004820152602660248201527f4f776e61626c653a206e6577206f776e657220697320746865207a65726f206160448201526564647265737360d01b6064820152608490fd5b346102cc5760203660031901126102cc57600435600052600260205260406000208054600182016103f390612852565b6003830154600484015460058501549294909161041260068301612852565b61041e60078401612852565b90600160a01b6001900392836009860154169684600a87015496600b015416966040519a8b9a8b526101808060208d01528b0161045a91612604565b9260408b015260608a0152608089015287810360a089015261047b91612604565b86810360c088015261048c91612604565b9360e086015281166101008501528060a01c60ff16151561012085015260a81c60ff1615156101408401526101608301520390f35b346102cc576104cf366125ee565b906000526004602052604060002090600052602052604060002080546104f760018301612852565b9161055261050760028301612852565b61054260ff600460038601549501541691610534604051978897885260a0602089015260a0880190612604565b908682036040880152612604565b9260608501526080840190612644565b0390f35b346102cc5760003660031901126102cc576020600a54604051908152f35b346102cc5760003660031901126102cc576020600954604051908152f35b346102cc5760203660031901126102cc576004356000818152600260205260409020600a8101805490916105e1906005906105d7336001600160a01b03861614612a4b565b0154421115612a87565b6105f160ff8260a01c1615612ac3565b60ff60a01b1916600160a01b1790557f3ca3d218d64ea45c582c714d84dcdfd87f8d3cb3a3449fe533c2cb6d614ab766600080a2005b346102cc5760203660031901126102cc5760043560005260076020526020604060002054604051908152f35b346102cc5760803660031901126102cc576024356001600160401b0381116102cc576106839036906004016127e8565b6044356001600160401b0381116102cc576106a29036906004016127e8565b6064939193356001600160401b0381116102cc576106c49036906004016127e8565b90600435600052600260205260406000206106e460058201544210612a87565b83861480611089575b156110535760009060005b84811061101857506003015403610fd457600435600052600760205260406000209586549661072688612a3c565b90556040516107348161267f565b878152336020820152610748368888612742565b6040820152610758368684612742565b60608201526107668461272b565b610773604051918261269a565b84815260208101368660051b8601116102cc5784905b8660051b86018210610fc45750506080820152600060a0820152600435600052600360205260406000208054600160401b811015610bb1576107d0916001820181556127cc565b919091610fae57805182556001820160018060a01b036020830151166001600160601b0360a01b825416179055600282016040820151602081519161081583856129ac565b01916000526020600020916000905b828210610ed15750505050600382016060820151602081519161084783856129ac565b01916000526020600020916000905b828210610dee575050505060808101518051906001600160401b038211610bb157600160401b8211610bb1576020906004850154836004870155808410610dce575b500160048401600052602060002060005b838110610dba575050505060a00151906003821015610caa576005019060ff801983541691161790556108db8661272b565b956108e9604051978861269a565b808752601f196108f88261272b565b0136602089013760005b81811061096e578888604051906020820160208352815180915260206040840192019060005b81811061095857857f09bbfa816c7e14e18babfca167b7eb6d09305cca69bdb107b37b18c6a6082b2686860387a2005b8251845260209384019390920191600101610928565b600435600052600860205260406000209081549161098b83612a3c565b905561099881848a612b44565b906109a4838a88612b44565b916109b0858b8b612b02565b3590604051928360208101106001600160401b03602086011117610bb1576109f7610a06926020860160405260008652604051976109ed8961267f565b8a895236916126d6565b946020870195865236916126d6565b604085015260608401526000608084015260a0830152600435600052600460205260406000208460005260205260406000209082518255518051906001600160401b038211610bb1578190610a6b82610a626001870154612818565b60018701612967565b602090601f8311600114610d4857600092610d3d575b50508160011b916000199060031b1c19161760018201555b60408201518051906001600160401b038211610bb1578190610acb82610ac26002870154612818565b60028701612967565b602090601f8311600114610ccb57600092610cc0575b50508160011b916000199060031b1c19161760028201555b6060820151600382015560808201516004811015610caa5781600591600460a094019060ff80198354169116179055019101516020815191610b3b83856129ac565b019160005260206000206000925b828410610bc757505050506004356000526005602052604060002091825492600160401b841015610bb15783610b87916001610bac96018155612651565b81549060031b9083821b91600019901b1916179055610ba6828b612b5f565b52612a3c565b610902565b634e487b7160e01b600052604160045260246000fd5b80518051906001600160401b038211610bb157610bee82610be88654612818565b86612967565b602090601f8311600114610c3a579282600194936020938695600092610c2f575b5050600019600383901b1c191690841b1785555b01920193019290610b49565b015190503880610c0f565b908460005260206000209160005b601f1985168110610c92575083602093600196938796938794601f19811610610c79575b505050811b018555610c23565b015160001960f88460031b161c19169055388080610c6c565b91926020600181928685015181550194019201610c48565b634e487b7160e01b600052602160045260246000fd5b015190508e80610ae1565b9250600284016000526020600020906000935b601f1984168510610d22576001945083601f19811610610d09575b505050811b016002820155610af9565b015160001960f88460031b161c191690558e8080610cf9565b81810151835560209485019460019093019290910190610cde565b015190508e80610a81565b9250600184016000526020600020906000935b601f1984168510610d9f576001945083601f19811610610d86575b505050811b016001820155610a99565b015160001960f88460031b161c191690558e8080610d76565b81810151835560209485019460019093019290910190610d5b565b6001906020845194019381840155016108a9565b610de8906004870160005284846000209182019101612950565b8c610898565b80518051906001600160401b038211610bb157610e1582610e0f8854612818565b88612967565b602090601f8311600114610e61579282600194936020938695600092610e56575b5050600019600383901b1c191690841b1787555b01940191019092610856565b015190503880610e36565b908660005260206000209160005b601f1985168110610eb9575083602093600196938796938794601f19811610610ea0575b505050811b018755610e4a565b015160001960f88460031b161c19169055388080610e93565b91926020600181928685015181550194019201610e6f565b80518051906001600160401b038211610bb157610ef282610e0f8854612818565b602090601f8311600114610f3e579282600194936020938695600092610f33575b5050600019600383901b1c191690841b1787555b01940191019092610824565b015190503880610f13565b908660005260206000209160005b601f1985168110610f96575083602093600196938796938794601f19811610610f7d575b505050811b018755610f27565b015160001960f88460031b161c19169055388080610f70565b91926020600181928685015181550194019201610f4c565b634e487b7160e01b600052600060045260246000fd5b8135815260209182019101610789565b606460405162461bcd60e51b815260206004820152602060248201527f4d696c6573746f6e6520746f74616c20213d2070726f6772616d2070726963656044820152fd5b91611024838686612b02565b35810180911161103d576110389092612a3c565b6106f8565b634e487b7160e01b600052601160045260246000fd5b60405162461bcd60e51b815260206004820152600e60248201526d092dce0eae840dad2e6dac2e8c6d60931b6044820152606490fd5b508286146106ed565b346102cc5760603660031901126102cc5760043560248035906001600160401b03906044358281116102cc576110cc9036906004016127e8565b908560005260209060028252604060002060ff600a82015460a01c161561139e57600b01546001600160a01b0316330361136c5786600052600482526040600020866000528252604060002093600485019485549560ff871660048110156113575761131f57906005916001989796959498809760ff19161790550161115284826129ac565b6000908152828120875b85831061122c575050505081604051966040880190885260408389015252606086019460608360051b8801019581956000925b8584106111bf578a7fbaa1ee362891351add36bb95f60ba8e4031d4c60ece483917c0dc053d7b2c3d78b8b038ca2005b9091929394959697605f198a82030184528835601e19833603018112156102cc5782018681019190358481116102cc5780360383136102cc57878282808d96849695859652848401376000828201840152601f01601f191601019a0198979695919091019301919061118f565b61123b818a969798999a612b12565b8a819392931161130a578991816112578a93610e0f8854612818565b6000601f82116001146112a15781908596600092611296575b5050600019600383901b1c191690841b1785555b0192019201919097969594939761115c565b013590503880611270565b94601f1982169587600052846000209660005b8181106112f157509186979184889594106112d7575b505050811b018555611284565b0135600019600384901b60f8161c191690553880806112ca565b83830135895596909701968e968d9692830192016112b4565b85634e487b7160e01b60005260416004526000fd5b60405162461bcd60e51b81526004810186905260118185015270105b1c9958591e481cdd589b5a5d1d1959607a1b6044820152606490fd5b83634e487b7160e01b60005260216004526000fd5b60405162461bcd60e51b815260048101839052600b818601526a2737ba10313ab4b63232b960a91b6044820152606490fd5b60405162461bcd60e51b81526004810184905260148187015273141c9bd9dc985b481b9bdd08185c1c1c9bdd995960621b6044820152606490fd5b346102cc576113e7366125ee565b906113f0612bed565b80600052602060028152604060002060018060a01b039061141882600a830154163314612a4b565b83600052600483526040600020856000528352604060002090600482019081549160ff83166004811015610caa57600b93611457600160029314612bb0565b60ff1916179055019060008080806003878754169501948554905af13d15611555573d611483816126bb565b90611491604051928361269a565b81526000863d92013e5b1561151a57937f27d841e82fb3b2469e89e27c70f2ec8597324e08569a13460e4dd8a1a3c0b10c604082977f7099040ff4abf6b015bd1004cbf11ec796c3d4abcaec3514db1c93599297d39f975480978351928352820152a25460408051929091166001600160a01b03168252602082019290925290819081016101fd565b60405162461bcd60e51b8152600481018590526013602482015272115512081d1c985b9cd9995c8819985a5b1959606a1b6044820152606490fd5b61149b565b346102cc5760003660031901126102cc576000546040516001600160a01b039091168152602090f35b346102cc5760a03660031901126102cc576024356001600160a01b036004356084358281169060643590604435908390036102cc5783600052600260205260406000209460098601541633036116b2578181101561167e5785156116495785600a867fe3d59d03839a10c8a5a85dd0d7e5a4ac45445821c5176529d2745adf6915a16198600360a099015583600482015584600582015501846001600160601b03881b8254161790556040519485526020850152604084015260608301526080820152a1005b60405162461bcd60e51b815260206004820152600d60248201526c496e76616c696420707269636560981b6044820152606490fd5b60405162461bcd60e51b815260206004820152600c60248201526b496e76616c69642074696d6560a01b6044820152606490fd5b60405162461bcd60e51b815260206004820152600c60248201526b27b7363c9031b932b0ba37b960a11b6044820152606490fd5b346102cc5760203660031901126102cc5760043560005260086020526020604060002054604051908152f35b346102cc57611720366125ee565b90600052600360205260406000209081548110156102cc57611741916127cc565b50805460ff600560018060a01b03600185015416930154169160405191825260208201526003821015610caa576060916040820152f35b6101203660031901126102cc576004356001600160401b0381116102cc576117a490369060040161270d565b6044356001600160401b0381116102cc576117c39036906004016127b1565b9060a435906001600160a01b03821682036102cc5760c4356001600160401b0381116102cc576117f790369060040161270d565b60e4356001600160401b0381116102cc5761181690369060040161270d565b610104356001600160401b0381116102cc576118369036906004016127b1565b916024353403611eee576084356064351015611e8f576009549560405194856101c08101106001600160401b036101c088011117610bb1576101c08601604052878652602086015260408501526024356060850152606435608085015260843560a085015260c084015260e08301526101008201523361012082015260018060a01b0382166101408201526000610160820152600061018082015260006101a082015282600052600260205260406000208151815560208201518051906001600160401b038211610bb157819061191482610a626001870154612818565b602090601f8311600114611e1d57600092611e12575b50508160011b916000199060031b1c19161760018201555b600281016040830151602081519161195a83856129ac565b01916000526020600020916000905b828210611d355750505050606082015160038201556080820151600482015560a0820151600582015560c08201518051906001600160401b038211610bb15781906119c4826119bb6006870154612818565b60068701612967565b602090601f8311600114611cc357600092611cb8575b50508160011b916000199060031b1c19161760068201555b60e08201518051906001600160401b038211610bb1578190611a2482611a1b6007870154612818565b60078701612967565b602090601f8311600114611c4657600092611c3b575b50508160011b916000199060031b1c19161760078201555b600881016101008301516020815191611a6b83856129ac565b01916000526020600020916000905b828210611b5e5750505050600b600982019160018060a01b0361012085015116926001600160601b0360a01b9384825416179055600a810160018060a01b036101408601511681549060ff60a01b610160880151151560a01b169060ff60a81b610180890151151560a81b169269ffffffffffffffffffff60b01b16171717905501916101a060018060a01b039101511690825416179055611b1d600954612a3c565b60095560405160243581526001600160a01b039091169133917f808c887919683a350ed55b3499f97ed7f4093ecc5e131fadb8b075a85457af3a90602090a4005b80518051906001600160401b038211610bb157611b7f82610e0f8854612818565b602090601f8311600114611bcb579282600194936020938695600092611bc0575b5050600019600383901b1c191690841b1787555b01940191019092611a7a565b015190508d80611ba0565b908660005260206000209160005b601f1985168110611c23575083602093600196938796938794601f19811610611c0a575b505050811b018755611bb4565b015160001960f88460031b161c191690558d8080611bfd565b91926020600181928685015181550194019201611bd9565b015190508680611a3a565b9250600784016000526020600020906000935b601f1984168510611c9d576001945083601f19811610611c84575b505050811b016007820155611a52565b015160001960f88460031b161c19169055868080611c74565b81810151835560209485019460019093019290910190611c59565b0151905086806119da565b9250600684016000526020600020906000935b601f1984168510611d1a576001945083601f19811610611d01575b505050811b0160068201556119f2565b015160001960f88460031b161c19169055868080611cf1565b81810151835560209485019460019093019290910190611cd6565b80518051906001600160401b038211610bb157611d5682610e0f8854612818565b602090601f8311600114611da2579282600194936020938695600092611d97575b5050600019600383901b1c191690841b1787555b01940191019092611969565b015190508d80611d77565b908660005260206000209160005b601f1985168110611dfa575083602093600196938796938794601f19811610611de1575b505050811b018755611d8b565b015160001960f88460031b161c191690558d8080611dd4565b91926020600181928685015181550194019201611db0565b01519050868061192a565b9250600184016000526020600020906000935b601f1984168510611e74576001945083601f19811610611e5b575b505050811b016001820155611942565b015160001960f88460031b161c19169055868080611e4b565b81810151835560209485019460019093019290910190611e30565b60405162461bcd60e51b815260206004820152603160248201527f5468652053746172742074696d65206d757374206265206561726c69657220746044820152703430b7103a34329032b732103a34b6b29760791b6064820152608490fd5b60405162461bcd60e51b815260206004820152602d60248201527f546865204554482073656e7420646f6573206e6f74206d61746368207468652060448201526c70726f6772616d20707269636560981b6064820152608490fd5b346102cc5760003660031901126102cc57611f626128f8565b600080546001600160a01b0319811682556001600160a01b03167f8be0079c531659141344cd1fd0a4f28419497f9722a3daafe3b4186f6b6457e08280a3005b346102cc5760203660031901126102cc577f8c4d35e54a3f2ef1134138fd8ea3daee6a3c89e10d2665996babdf70261e2c766020600435611fe16128f8565b80600a55604051908152a1005b346102cc57611ffc366125ee565b906000526005602052604060002080548210156102cc5760209161201f91612651565b90546040519160031b1c8152f35b346102cc5760603660031901126102cc5760443580151581036102cc576004356000526002908160205260406000209161207460018060a01b03600a850154163314612a4b565b6004356000526003918260205260406000209260009360005b815481101561227b576120a081836127cc565b5054602435146120b8576120b390612a3c565b61208d565b8095506120c4916127cc565b509160058301549160ff831690811015610caa57612242571561222c5750600b8401546001600160a01b03166121f4576005818101805460ff19169093179092556001018054600b850180546001600160a01b0319166001600160a01b03928316179055600a909401805460ff60a01b1916600160a01b17905560043560008181526006602090815260408083209690965592549383528490208451602435815293909516918301919091526060928201839052927f284aa8037c280e35f0609d480c6b37226bb54c7482d25efb48ffe0dce5b6f0839282916121a991830190612b73565b0390a25b60015b156121b757005b60405162461bcd60e51b8152602060048201526015602482015274105c1c1b1a58d85d1a5bdb881b9bdd08199bdd5b99605a1b6044820152606490fd5b60405162461bcd60e51b815260206004820152601060248201526f105b1c9958591e481cd95b1958dd195960821b6044820152606490fd5b60ff1916600117600590910155506121ad915050565b60405162461bcd60e51b8152602060048201526011602482015270105b1c9958591e48195d985b1d585d1959607a1b6044820152606490fd5b505050505090506121b0565b346102cc576020806003193601126102cc576122f060043591826000526005908181526122c16122c8604060002060405192838092612b73565b038261269a565b8051946122d48661272b565b956122e2604051978861269a565b808752601f1995869161272b565b018360005b82811061250e5750505060005b825181101561240557816000526004845260406000206123228285612b5f565b51600052845260406000206040519061233a8261267f565b8054825260019061234c828201612852565b8784015261235c60028201612852565b60408401526003810154606084015260ff600482015416906004821015610caa5788916080850152019081546123918161272b565b9261239f604051948561269a565b818452600090815288812090898086015b8483106123e857505050505050906123e3929160a08201526123d2828a612b5f565b526123dd8189612b5f565b50612a3c565b612302565b859182916123f586612852565b8152019301910190918a906123b0565b505050919290604051928084019181855283518093526040850182604085841b8801019501966000925b85841061243c5787870388f35b90919293809596603f198982030185528951908151815261247e61246c8484015160c08087860152840190612604565b60408401518382036040850152612604565b906060808401519082015261249b60808085015190830190612644565b60a08093015192818303910152815180825283820190848082881b85010194019260005b8281106124e257505050505090806001929a01940194019297959493919061242f565b919395806124fc878b85600196989a030189528951612604565b970195019101918a95949391926124bf565b60405161251a8161267f565b60008152606080848301528060408301526000818301526000608083015260a082015282828b0101520184906122f5565b346102cc57612559366125ee565b81600052600260205261257d60018060a01b03600a60406000200154163314612a4b565b81600052600460205260406000208160005260205260046040600020019081549060ff8216926004841015610caa5760036020936125de60017f4e2fd11f84344693b41d2aba9910e33b34a4f02d4d3a65b65b2201f3c8fa3c899714612bb0565b60ff1916179055604051908152a2005b60409060031901126102cc576004359060243590565b919082519283825260005b848110612630575050826000602080949584010152601f8019910116010190565b60208183018101518483018201520161260f565b906004821015610caa5752565b80548210156126695760005260206000200190600090565b634e487b7160e01b600052603260045260246000fd5b60c081019081106001600160401b03821117610bb157604052565b90601f801991011681019081106001600160401b03821117610bb157604052565b6001600160401b038111610bb157601f01601f191660200190565b9291926126e2826126bb565b916126f0604051938461269a565b8294818452818301116102cc578281602093846000960137010152565b9080601f830112156102cc57816020612728933591016126d6565b90565b6001600160401b038111610bb15760051b60200190565b9291909261274f8461272b565b9161275d604051938461269a565b829480845260208094019060051b8301928284116102cc5780915b84831061278757505050505050565b82356001600160401b0381116102cc5786916127a6868493860161270d565b815201920191612778565b9080601f830112156102cc5781602061272893359101612742565b8054821015612669576000526006602060002091020190600090565b9181601f840112156102cc578235916001600160401b0383116102cc576020808501948460051b0101116102cc57565b90600182811c92168015612848575b602083101461283257565b634e487b7160e01b600052602260045260246000fd5b91607f1691612827565b906040519182600082549261286684612818565b9081845260019485811690816000146128d55750600114612892575b50506128909250038361269a565b565b9093915060005260209081600020936000915b8183106128bd57505061289093508201013880612882565b855488840185015294850194879450918301916128a5565b91505061289094506020925060ff191682840152151560051b8201013880612882565b6000546001600160a01b0316330361290c57565b606460405162461bcd60e51b815260206004820152602060248201527f4f776e61626c653a2063616c6c6572206973206e6f7420746865206f776e65726044820152fd5b81811061295b575050565b60008155600101612950565b9190601f811161297657505050565b612890926000526020600020906020601f840160051c830193106129a2575b601f0160051c0190612950565b9091508190612995565b600160401b8211610bb1578054918082558281106129c957505050565b600091825260209081832093840193015b8381106129e75750505050565b80836129f560019354612818565b80612a03575b5050016129da565b601f8082118514612a1a57505081555b83386129fb565b612a3390848452868420920160051c8201858301612950565b81835555612a13565b600019811461103d5760010190565b15612a5257565b60405162461bcd60e51b815260206004820152600d60248201526c2737ba103b30b634b230ba37b960991b6044820152606490fd5b15612a8e57565b60405162461bcd60e51b815260206004820152600d60248201526c141c9bd9dc985b48195b991959609a1b6044820152606490fd5b15612aca57565b60405162461bcd60e51b815260206004820152601060248201526f105b1c9958591e48185c1c1c9bdd995960821b6044820152606490fd5b91908110156126695760051b0190565b903590601e19813603018212156102cc57018035906001600160401b0382116102cc576020019181360383136102cc57565b9082101561266957612b5b9160051b810190612b12565b9091565b80518210156126695760209160051b010190565b90815480825260208092019260005281600020916000905b828210612b99575050505090565b835485529384019360019384019390910190612b8b565b15612bb757565b60405162461bcd60e51b815260206004820152600e60248201526d496e76616c69642073746174757360901b6044820152606490fd5b600260015414612bfe576002600155565b60405162461bcd60e51b815260206004820152601f60248201527f5265656e7472616e637947756172643a207265656e7472616e742063616c6c006044820152606490fdfea2646970667358221220ae977a61818adbf55bffd448e7192581c41029c2e06021efb0f21f446ae16b0c64736f6c63430008140033","opcodes":"PUSH1 0x80 CALLVALUE PUSH3 0x7E JUMPI PUSH1 0x1F PUSH3 0x2D5A CODESIZE DUP2 SWAP1 SUB SWAP2 DUP3 ADD PUSH1 0x1F NOT AND DUP4 ADD SWAP2 PUSH1 0x1 PUSH1 0x1 PUSH1 0x40 SHL SUB DUP4 GT DUP5 DUP5 LT OR PUSH3 0x83 JUMPI DUP1 DUP5 SWAP3 PUSH1 0x20 SWAP5 PUSH1 0x40 MSTORE DUP4 CODECOPY DUP2 ADD SUB SLT PUSH3 0x7E JUMPI MLOAD PUSH1 0x1 PUSH1 0x1 PUSH1 0xA0 SHL SUB DUP2 AND DUP2 SUB PUSH3 0x7E JUMPI PUSH3 0x6E SWAP1 PUSH3 0x64 CALLER PUSH3 0x99 JUMP JUMPDEST PUSH1 0x1 DUP1 SSTORE PUSH3 0x99 JUMP JUMPDEST PUSH1 0x40 MLOAD PUSH2 0x2C79 SWAP1 DUP2 PUSH3 0xE1 DUP3 CODECOPY RETURN JUMPDEST PUSH1 0x0 DUP1 REVERT JUMPDEST PUSH4 0x4E487B71 PUSH1 0xE0 SHL PUSH1 0x0 MSTORE PUSH1 0x41 PUSH1 0x4 MSTORE PUSH1 0x24 PUSH1 0x0 REVERT JUMPDEST PUSH1 0x0 DUP1 SLOAD PUSH1 0x1 PUSH1 0x1 PUSH1 0xA0 SHL SUB SWAP3 DUP4 AND PUSH1 0x1 PUSH1 0x1 PUSH1 0xA0 SHL SUB NOT DUP3 AND DUP2 OR DUP4 SSTORE SWAP3 AND SWAP1 PUSH32 0x8BE0079C531659141344CD1FD0A4F28419497F9722A3DAAFE3B4186F6B6457E0 SWAP1 DUP1 LOG3 JUMP INVALID PUSH1 0x80 PUSH1 0x40 MSTORE PUSH1 0x4 CALLDATASIZE LT ISZERO PUSH2 0x12 JUMPI PUSH1 0x0 DUP1 REVERT JUMPDEST PUSH1 0x0 CALLDATALOAD PUSH1 0xE0 SHR DUP1 PUSH4 0x3ABE6BD7 EQ PUSH2 0x254B JUMPI DUP1 PUSH4 0x42C549C0 EQ PUSH2 0x2287 JUMPI DUP1 PUSH4 0x4942EC02 EQ PUSH2 0x202D JUMPI DUP1 PUSH4 0x544AABD0 EQ PUSH2 0x1FEE JUMPI DUP1 PUSH4 0x69FE0E2D EQ PUSH2 0x1FA2 JUMPI DUP1 PUSH4 0x715018A6 EQ PUSH2 0x1F49 JUMPI DUP1 PUSH4 0x78EA19B0 EQ PUSH2 0x1778 JUMPI DUP1 PUSH4 0x7D5CAE03 EQ PUSH2 0x1712 JUMPI DUP1 PUSH4 0x83472F5B EQ PUSH2 0x16E6 JUMPI DUP1 PUSH4 0x89001EB1 EQ PUSH2 0x1583 JUMPI DUP1 PUSH4 0x8DA5CB5B EQ PUSH2 0x155A JUMPI DUP1 PUSH4 0x93EB1026 EQ PUSH2 0x13D9 JUMPI DUP1 PUSH4 0x9E57D589 EQ PUSH2 0x1092 JUMPI DUP1 PUSH4 0xA112ED4E EQ PUSH2 0x653 JUMPI DUP1 PUSH4 0xA1A57296 EQ PUSH2 0x627 JUMPI DUP1 PUSH4 0xB0D456AC EQ PUSH2 0x592 JUMPI DUP1 PUSH4 0xBA71B330 EQ PUSH2 0x574 JUMPI DUP1 PUSH4 0xCED72F87 EQ PUSH2 0x556 JUMPI DUP1 PUSH4 0xD201593F EQ PUSH2 0x4C1 JUMPI DUP1 PUSH4 0xD613FD24 EQ PUSH2 0x3C3 JUMPI DUP1 PUSH4 0xF2FDE38B EQ PUSH2 0x2FD JUMPI DUP1 PUSH4 0xF6C78263 EQ PUSH2 0x2D1 JUMPI PUSH4 0xF9F161A8 EQ PUSH2 0x119 JUMPI PUSH1 0x0 DUP1 REVERT JUMPDEST CALLVALUE PUSH2 0x2CC JUMPI PUSH1 0x20 CALLDATASIZE PUSH1 0x3 NOT ADD SLT PUSH2 0x2CC JUMPI PUSH1 0x4 CALLDATALOAD PUSH2 0x135 PUSH2 0x2BED JUMP JUMPDEST DUP1 PUSH1 0x0 MSTORE PUSH1 0x2 PUSH1 0x20 MSTORE PUSH1 0x40 PUSH1 0x0 KECCAK256 PUSH1 0xA DUP2 ADD SWAP1 DUP2 SLOAD PUSH2 0x15A PUSH1 0xFF DUP3 PUSH1 0xA0 SHR AND ISZERO PUSH2 0x2AC3 JUMP JUMPDEST PUSH1 0xFF DUP2 PUSH1 0xA8 SHR AND PUSH2 0x295 JUMPI PUSH1 0x5 DUP3 ADD SLOAD TIMESTAMP GT ISZERO PUSH2 0x258 JUMPI PUSH1 0x9 DUP3 ADD SWAP3 PUSH1 0x1 DUP1 PUSH1 0xA0 SHL SUB SWAP2 DUP3 DUP6 SLOAD AND SWAP4 DUP5 CALLER SUB PUSH2 0x21B JUMPI PUSH1 0xFF PUSH1 0xA8 SHL NOT SWAP1 SWAP2 AND PUSH1 0x1 PUSH1 0xA8 SHL OR SWAP1 SWAP2 SSTORE PUSH1 0x3 ADD DUP1 SLOAD SWAP1 SWAP3 PUSH1 0x0 SWAP2 DUP3 SWAP2 DUP3 SWAP2 DUP3 SWAP2 DUP3 DUP3 ISZERO PUSH2 0x212 JUMPI JUMPDEST CALL ISZERO PUSH2 0x206 JUMPI SWAP2 SLOAD SWAP1 SLOAD PUSH1 0x40 DUP1 MLOAD SWAP3 SWAP1 SWAP4 AND PUSH1 0x1 PUSH1 0x1 PUSH1 0xA0 SHL SUB AND DUP3 MSTORE PUSH1 0x20 DUP3 ADD MSTORE PUSH32 0xD37C0B9C7560299A7C963D03165111D712663805228E5FFCA03D540C5D6E410E SWAP2 DUP2 SWAP1 DUP2 ADD JUMPDEST SUB SWAP1 LOG2 PUSH1 0x1 DUP1 SSTORE STOP JUMPDEST PUSH1 0x40 MLOAD RETURNDATASIZE PUSH1 0x0 DUP3 RETURNDATACOPY RETURNDATASIZE SWAP1 REVERT JUMPDEST POP PUSH2 0x8FC PUSH2 0x1B4 JUMP JUMPDEST PUSH1 0x40 MLOAD PUSH3 0x461BCD PUSH1 0xE5 SHL DUP2 MSTORE PUSH1 0x20 PUSH1 0x4 DUP3 ADD MSTORE PUSH1 0x15 PUSH1 0x24 DUP3 ADD MSTORE PUSH21 0x2737BA103A343290383937B3B930B69036B0B5B2B9 PUSH1 0x59 SHL PUSH1 0x44 DUP3 ADD MSTORE PUSH1 0x64 SWAP1 REVERT JUMPDEST PUSH1 0x40 MLOAD PUSH3 0x461BCD PUSH1 0xE5 SHL DUP2 MSTORE PUSH1 0x20 PUSH1 0x4 DUP3 ADD MSTORE PUSH1 0x15 PUSH1 0x24 DUP3 ADD MSTORE PUSH21 0x141C9BD9DC985B481B9BDD08195B991959081E595D PUSH1 0x5A SHL PUSH1 0x44 DUP3 ADD MSTORE PUSH1 0x64 SWAP1 REVERT JUMPDEST PUSH1 0x40 MLOAD PUSH3 0x461BCD PUSH1 0xE5 SHL DUP2 MSTORE PUSH1 0x20 PUSH1 0x4 DUP3 ADD MSTORE PUSH1 0xF PUSH1 0x24 DUP3 ADD MSTORE PUSH15 0x105B1C9958591E4818DB185A5B5959 PUSH1 0x8A SHL PUSH1 0x44 DUP3 ADD MSTORE PUSH1 0x64 SWAP1 REVERT JUMPDEST PUSH1 0x0 DUP1 REVERT JUMPDEST CALLVALUE PUSH2 0x2CC JUMPI PUSH1 0x20 CALLDATASIZE PUSH1 0x3 NOT ADD SLT PUSH2 0x2CC JUMPI PUSH1 0x4 CALLDATALOAD PUSH1 0x0 MSTORE PUSH1 0x6 PUSH1 0x20 MSTORE PUSH1 0x20 PUSH1 0x40 PUSH1 0x0 KECCAK256 SLOAD PUSH1 0x40 MLOAD SWAP1 DUP2 MSTORE RETURN JUMPDEST CALLVALUE PUSH2 0x2CC JUMPI PUSH1 0x20 CALLDATASIZE PUSH1 0x3 NOT ADD SLT PUSH2 0x2CC JUMPI PUSH1 0x4 CALLDATALOAD PUSH1 0x1 PUSH1 0x1 PUSH1 0xA0 SHL SUB DUP2 DUP2 AND SWAP2 DUP3 SWAP1 SUB PUSH2 0x2CC JUMPI PUSH2 0x32C PUSH2 0x28F8 JUMP JUMPDEST DUP2 ISZERO PUSH2 0x36F JUMPI PUSH1 0x0 SLOAD DUP3 PUSH1 0x1 PUSH1 0x1 PUSH1 0x60 SHL SUB PUSH1 0xA0 SHL DUP3 AND OR PUSH1 0x0 SSTORE AND PUSH32 0x8BE0079C531659141344CD1FD0A4F28419497F9722A3DAAFE3B4186F6B6457E0 PUSH1 0x0 DUP1 LOG3 STOP JUMPDEST PUSH1 0x40 MLOAD PUSH3 0x461BCD PUSH1 0xE5 SHL DUP2 MSTORE PUSH1 0x20 PUSH1 0x4 DUP3 ADD MSTORE PUSH1 0x26 PUSH1 0x24 DUP3 ADD MSTORE PUSH32 0x4F776E61626C653A206E6577206F776E657220697320746865207A65726F2061 PUSH1 0x44 DUP3 ADD MSTORE PUSH6 0x646472657373 PUSH1 0xD0 SHL PUSH1 0x64 DUP3 ADD MSTORE PUSH1 0x84 SWAP1 REVERT JUMPDEST CALLVALUE PUSH2 0x2CC JUMPI PUSH1 0x20 CALLDATASIZE PUSH1 0x3 NOT ADD SLT PUSH2 0x2CC JUMPI PUSH1 0x4 CALLDATALOAD PUSH1 0x0 MSTORE PUSH1 0x2 PUSH1 0x20 MSTORE PUSH1 0x40 PUSH1 0x0 KECCAK256 DUP1 SLOAD PUSH1 0x1 DUP3 ADD PUSH2 0x3F3 SWAP1 PUSH2 0x2852 JUMP JUMPDEST PUSH1 0x3 DUP4 ADD SLOAD PUSH1 0x4 DUP5 ADD SLOAD PUSH1 0x5 DUP6 ADD SLOAD SWAP3 SWAP5 SWAP1 SWAP2 PUSH2 0x412 PUSH1 0x6 DUP4 ADD PUSH2 0x2852 JUMP JUMPDEST PUSH2 0x41E PUSH1 0x7 DUP5 ADD PUSH2 0x2852 JUMP JUMPDEST SWAP1 PUSH1 0x1 PUSH1 0xA0 SHL PUSH1 0x1 SWAP1 SUB SWAP3 DUP4 PUSH1 0x9 DUP7 ADD SLOAD AND SWAP7 DUP5 PUSH1 0xA DUP8 ADD SLOAD SWAP7 PUSH1 0xB ADD SLOAD AND SWAP7 PUSH1 0x40 MLOAD SWAP11 DUP12 SWAP11 DUP12 MSTORE PUSH2 0x180 DUP1 PUSH1 0x20 DUP14 ADD MSTORE DUP12 ADD PUSH2 0x45A SWAP2 PUSH2 0x2604 JUMP JUMPDEST SWAP3 PUSH1 0x40 DUP12 ADD MSTORE PUSH1 0x60 DUP11 ADD MSTORE PUSH1 0x80 DUP10 ADD MSTORE DUP8 DUP2 SUB PUSH1 0xA0 DUP10 ADD MSTORE PUSH2 0x47B SWAP2 PUSH2 0x2604 JUMP JUMPDEST DUP7 DUP2 SUB PUSH1 0xC0 DUP9 ADD MSTORE PUSH2 0x48C SWAP2 PUSH2 0x2604 JUMP JUMPDEST SWAP4 PUSH1 0xE0 DUP7 ADD MSTORE DUP2 AND PUSH2 0x100 DUP6 ADD MSTORE DUP1 PUSH1 0xA0 SHR PUSH1 0xFF AND ISZERO ISZERO PUSH2 0x120 DUP6 ADD MSTORE PUSH1 0xA8 SHR PUSH1 0xFF AND ISZERO ISZERO PUSH2 0x140 DUP5 ADD MSTORE PUSH2 0x160 DUP4 ADD MSTORE SUB SWAP1 RETURN JUMPDEST CALLVALUE PUSH2 0x2CC JUMPI PUSH2 0x4CF CALLDATASIZE PUSH2 0x25EE JUMP JUMPDEST SWAP1 PUSH1 0x0 MSTORE PUSH1 0x4 PUSH1 0x20 MSTORE PUSH1 0x40 PUSH1 0x0 KECCAK256 SWAP1 PUSH1 0x0 MSTORE PUSH1 0x20 MSTORE PUSH1 0x40 PUSH1 0x0 KECCAK256 DUP1 SLOAD PUSH2 0x4F7 PUSH1 0x1 DUP4 ADD PUSH2 0x2852 JUMP JUMPDEST SWAP2 PUSH2 0x552 PUSH2 0x507 PUSH1 0x2 DUP4 ADD PUSH2 0x2852 JUMP JUMPDEST PUSH2 0x542 PUSH1 0xFF PUSH1 0x4 PUSH1 0x3 DUP7 ADD SLOAD SWAP6 ADD SLOAD AND SWAP2 PUSH2 0x534 PUSH1 0x40 MLOAD SWAP8 DUP9 SWAP8 DUP9 MSTORE PUSH1 0xA0 PUSH1 0x20 DUP10 ADD MSTORE PUSH1 0xA0 DUP9 ADD SWAP1 PUSH2 0x2604 JUMP JUMPDEST SWAP1 DUP7 DUP3 SUB PUSH1 0x40 DUP9 ADD MSTORE PUSH2 0x2604 JUMP JUMPDEST SWAP3 PUSH1 0x60 DUP6 ADD MSTORE PUSH1 0x80 DUP5 ADD SWAP1 PUSH2 0x2644 JUMP JUMPDEST SUB SWAP1 RETURN JUMPDEST CALLVALUE PUSH2 0x2CC JUMPI PUSH1 0x0 CALLDATASIZE PUSH1 0x3 NOT ADD SLT PUSH2 0x2CC JUMPI PUSH1 0x20 PUSH1 0xA SLOAD PUSH1 0x40 MLOAD SWAP1 DUP2 MSTORE RETURN JUMPDEST CALLVALUE PUSH2 0x2CC JUMPI PUSH1 0x0 CALLDATASIZE PUSH1 0x3 NOT ADD SLT PUSH2 0x2CC JUMPI PUSH1 0x20 PUSH1 0x9 SLOAD PUSH1 0x40 MLOAD SWAP1 DUP2 MSTORE RETURN JUMPDEST CALLVALUE PUSH2 0x2CC JUMPI PUSH1 0x20 CALLDATASIZE PUSH1 0x3 NOT ADD SLT PUSH2 0x2CC JUMPI PUSH1 0x4 CALLDATALOAD PUSH1 0x0 DUP2 DUP2 MSTORE PUSH1 0x2 PUSH1 0x20 MSTORE PUSH1 0x40 SWAP1 KECCAK256 PUSH1 0xA DUP2 ADD DUP1 SLOAD SWAP1 SWAP2 PUSH2 0x5E1 SWAP1 PUSH1 0x5 SWAP1 PUSH2 0x5D7 CALLER PUSH1 0x1 PUSH1 0x1 PUSH1 0xA0 SHL SUB DUP7 AND EQ PUSH2 0x2A4B JUMP JUMPDEST ADD SLOAD TIMESTAMP GT ISZERO PUSH2 0x2A87 JUMP JUMPDEST PUSH2 0x5F1 PUSH1 0xFF DUP3 PUSH1 0xA0 SHR AND ISZERO PUSH2 0x2AC3 JUMP JUMPDEST PUSH1 0xFF PUSH1 0xA0 SHL NOT AND PUSH1 0x1 PUSH1 0xA0 SHL OR SWAP1 SSTORE PUSH32 0x3CA3D218D64EA45C582C714D84DCDFD87F8D3CB3A3449FE533C2CB6D614AB766 PUSH1 0x0 DUP1 LOG2 STOP JUMPDEST CALLVALUE PUSH2 0x2CC JUMPI PUSH1 0x20 CALLDATASIZE PUSH1 0x3 NOT ADD SLT PUSH2 0x2CC JUMPI PUSH1 0x4 CALLDATALOAD PUSH1 0x0 MSTORE PUSH1 0x7 PUSH1 0x20 MSTORE PUSH1 0x20 PUSH1 0x40 PUSH1 0x0 KECCAK256 SLOAD PUSH1 0x40 MLOAD SWAP1 DUP2 MSTORE RETURN JUMPDEST CALLVALUE PUSH2 0x2CC JUMPI PUSH1 0x80 CALLDATASIZE PUSH1 0x3 NOT ADD SLT PUSH2 0x2CC JUMPI PUSH1 0x24 CALLDATALOAD PUSH1 0x1 PUSH1 0x1 PUSH1 0x40 SHL SUB DUP2 GT PUSH2 0x2CC JUMPI PUSH2 0x683 SWAP1 CALLDATASIZE SWAP1 PUSH1 0x4 ADD PUSH2 0x27E8 JUMP JUMPDEST PUSH1 0x44 CALLDATALOAD PUSH1 0x1 PUSH1 0x1 PUSH1 0x40 SHL SUB DUP2 GT PUSH2 0x2CC JUMPI PUSH2 0x6A2 SWAP1 CALLDATASIZE SWAP1 PUSH1 0x4 ADD PUSH2 0x27E8 JUMP JUMPDEST PUSH1 0x64 SWAP4 SWAP2 SWAP4 CALLDATALOAD PUSH1 0x1 PUSH1 0x1 PUSH1 0x40 SHL SUB DUP2 GT PUSH2 0x2CC JUMPI PUSH2 0x6C4 SWAP1 CALLDATASIZE SWAP1 PUSH1 0x4 ADD PUSH2 0x27E8 JUMP JUMPDEST SWAP1 PUSH1 0x4 CALLDATALOAD PUSH1 0x0 MSTORE PUSH1 0x2 PUSH1 0x20 MSTORE PUSH1 0x40 PUSH1 0x0 KECCAK256 PUSH2 0x6E4 PUSH1 0x5 DUP3 ADD SLOAD TIMESTAMP LT PUSH2 0x2A87 JUMP JUMPDEST DUP4 DUP7 EQ DUP1 PUSH2 0x1089 JUMPI JUMPDEST ISZERO PUSH2 0x1053 JUMPI PUSH1 0x0 SWAP1 PUSH1 0x0 JUMPDEST DUP5 DUP2 LT PUSH2 0x1018 JUMPI POP PUSH1 0x3 ADD SLOAD SUB PUSH2 0xFD4 JUMPI PUSH1 0x4 CALLDATALOAD PUSH1 0x0 MSTORE PUSH1 0x7 PUSH1 0x20 MSTORE PUSH1 0x40 PUSH1 0x0 KECCAK256 SWAP6 DUP7 SLOAD SWAP7 PUSH2 0x726 DUP9 PUSH2 0x2A3C JUMP JUMPDEST SWAP1 SSTORE PUSH1 0x40 MLOAD PUSH2 0x734 DUP2 PUSH2 0x267F JUMP JUMPDEST DUP8 DUP2 MSTORE CALLER PUSH1 0x20 DUP3 ADD MSTORE PUSH2 0x748 CALLDATASIZE DUP9 DUP9 PUSH2 0x2742 JUMP JUMPDEST PUSH1 0x40 DUP3 ADD MSTORE PUSH2 0x758 CALLDATASIZE DUP7 DUP5 PUSH2 0x2742 JUMP JUMPDEST PUSH1 0x60 DUP3 ADD MSTORE PUSH2 0x766 DUP5 PUSH2 0x272B JUMP JUMPDEST PUSH2 0x773 PUSH1 0x40 MLOAD SWAP2 DUP3 PUSH2 0x269A JUMP JUMPDEST DUP5 DUP2 MSTORE PUSH1 0x20 DUP2 ADD CALLDATASIZE DUP7 PUSH1 0x5 SHL DUP7 ADD GT PUSH2 0x2CC JUMPI DUP5 SWAP1 JUMPDEST DUP7 PUSH1 0x5 SHL DUP7 ADD DUP3 LT PUSH2 0xFC4 JUMPI POP POP PUSH1 0x80 DUP3 ADD MSTORE PUSH1 0x0 PUSH1 0xA0 DUP3 ADD MSTORE PUSH1 0x4 CALLDATALOAD PUSH1 0x0 MSTORE PUSH1 0x3 PUSH1 0x20 MSTORE PUSH1 0x40 PUSH1 0x0 KECCAK256 DUP1 SLOAD PUSH1 0x1 PUSH1 0x40 SHL DUP2 LT ISZERO PUSH2 0xBB1 JUMPI PUSH2 0x7D0 SWAP2 PUSH1 0x1 DUP3 ADD DUP2 SSTORE PUSH2 0x27CC JUMP JUMPDEST SWAP2 SWAP1 SWAP2 PUSH2 0xFAE JUMPI DUP1 MLOAD DUP3 SSTORE PUSH1 0x1 DUP3 ADD PUSH1 0x1 DUP1 PUSH1 0xA0 SHL SUB PUSH1 0x20 DUP4 ADD MLOAD AND PUSH1 0x1 PUSH1 0x1 PUSH1 0x60 SHL SUB PUSH1 0xA0 SHL DUP3 SLOAD AND OR SWAP1 SSTORE PUSH1 0x2 DUP3 ADD PUSH1 0x40 DUP3 ADD MLOAD PUSH1 0x20 DUP2 MLOAD SWAP2 PUSH2 0x815 DUP4 DUP6 PUSH2 0x29AC JUMP JUMPDEST ADD SWAP2 PUSH1 0x0 MSTORE PUSH1 0x20 PUSH1 0x0 KECCAK256 SWAP2 PUSH1 0x0 SWAP1 JUMPDEST DUP3 DUP3 LT PUSH2 0xED1 JUMPI POP POP POP POP PUSH1 0x3 DUP3 ADD PUSH1 0x60 DUP3 ADD MLOAD PUSH1 0x20 DUP2 MLOAD SWAP2 PUSH2 0x847 DUP4 DUP6 PUSH2 0x29AC JUMP JUMPDEST ADD SWAP2 PUSH1 0x0 MSTORE PUSH1 0x20 PUSH1 0x0 KECCAK256 SWAP2 PUSH1 0x0 SWAP1 JUMPDEST DUP3 DUP3 LT PUSH2 0xDEE JUMPI POP POP POP POP PUSH1 0x80 DUP2 ADD MLOAD DUP1 MLOAD SWAP1 PUSH1 0x1 PUSH1 0x1 PUSH1 0x40 SHL SUB DUP3 GT PUSH2 0xBB1 JUMPI PUSH1 0x1 PUSH1 0x40 SHL DUP3 GT PUSH2 0xBB1 JUMPI PUSH1 0x20 SWAP1 PUSH1 0x4 DUP6 ADD SLOAD DUP4 PUSH1 0x4 DUP8 ADD SSTORE DUP1 DUP5 LT PUSH2 0xDCE JUMPI JUMPDEST POP ADD PUSH1 0x4 DUP5 ADD PUSH1 0x0 MSTORE PUSH1 0x20 PUSH1 0x0 KECCAK256 PUSH1 0x0 JUMPDEST DUP4 DUP2 LT PUSH2 0xDBA JUMPI POP POP POP POP PUSH1 0xA0 ADD MLOAD SWAP1 PUSH1 0x3 DUP3 LT ISZERO PUSH2 0xCAA JUMPI PUSH1 0x5 ADD SWAP1 PUSH1 0xFF DUP1 NOT DUP4 SLOAD AND SWAP2 AND OR SWAP1 SSTORE PUSH2 0x8DB DUP7 PUSH2 0x272B JUMP JUMPDEST SWAP6 PUSH2 0x8E9 PUSH1 0x40 MLOAD SWAP8 DUP9 PUSH2 0x269A JUMP JUMPDEST DUP1 DUP8 MSTORE PUSH1 0x1F NOT PUSH2 0x8F8 DUP3 PUSH2 0x272B JUMP JUMPDEST ADD CALLDATASIZE PUSH1 0x20 DUP10 ADD CALLDATACOPY PUSH1 0x0 JUMPDEST DUP2 DUP2 LT PUSH2 0x96E JUMPI DUP9 DUP9 PUSH1 0x40 MLOAD SWAP1 PUSH1 0x20 DUP3 ADD PUSH1 0x20 DUP4 MSTORE DUP2 MLOAD DUP1 SWAP2 MSTORE PUSH1 0x20 PUSH1 0x40 DUP5 ADD SWAP3 ADD SWAP1 PUSH1 0x0 JUMPDEST DUP2 DUP2 LT PUSH2 0x958 JUMPI DUP6 PUSH32 0x9BBFA816C7E14E18BABFCA167B7EB6D09305CCA69BDB107B37B18C6A6082B26 DUP7 DUP7 SUB DUP8 LOG2 STOP JUMPDEST DUP3 MLOAD DUP5 MSTORE PUSH1 0x20 SWAP4 DUP5 ADD SWAP4 SWAP1 SWAP3 ADD SWAP2 PUSH1 0x1 ADD PUSH2 0x928 JUMP JUMPDEST PUSH1 0x4 CALLDATALOAD PUSH1 0x0 MSTORE PUSH1 0x8 PUSH1 0x20 MSTORE PUSH1 0x40 PUSH1 0x0 KECCAK256 SWAP1 DUP2 SLOAD SWAP2 PUSH2 0x98B DUP4 PUSH2 0x2A3C JUMP JUMPDEST SWAP1 SSTORE PUSH2 0x998 DUP2 DUP5 DUP11 PUSH2 0x2B44 JUMP JUMPDEST SWAP1 PUSH2 0x9A4 DUP4 DUP11 DUP9 PUSH2 0x2B44 JUMP JUMPDEST SWAP2 PUSH2 0x9B0 DUP6 DUP12 DUP12 PUSH2 0x2B02 JUMP JUMPDEST CALLDATALOAD SWAP1 PUSH1 0x40 MLOAD SWAP3 DUP4 PUSH1 0x20 DUP2 ADD LT PUSH1 0x1 PUSH1 0x1 PUSH1 0x40 SHL SUB PUSH1 0x20 DUP7 ADD GT OR PUSH2 0xBB1 JUMPI PUSH2 0x9F7 PUSH2 0xA06 SWAP3 PUSH1 0x20 DUP7 ADD PUSH1 0x40 MSTORE PUSH1 0x0 DUP7 MSTORE PUSH1 0x40 MLOAD SWAP8 PUSH2 0x9ED DUP10 PUSH2 0x267F JUMP JUMPDEST DUP11 DUP10 MSTORE CALLDATASIZE SWAP2 PUSH2 0x26D6 JUMP JUMPDEST SWAP5 PUSH1 0x20 DUP8 ADD SWAP6 DUP7 MSTORE CALLDATASIZE SWAP2 PUSH2 0x26D6 JUMP JUMPDEST PUSH1 0x40 DUP6 ADD MSTORE PUSH1 0x60 DUP5 ADD MSTORE PUSH1 0x0 PUSH1 0x80 DUP5 ADD MSTORE PUSH1 0xA0 DUP4 ADD MSTORE PUSH1 0x4 CALLDATALOAD PUSH1 0x0 MSTORE PUSH1 0x4 PUSH1 0x20 MSTORE PUSH1 0x40 PUSH1 0x0 KECCAK256 DUP5 PUSH1 0x0 MSTORE PUSH1 0x20 MSTORE PUSH1 0x40 PUSH1 0x0 KECCAK256 SWAP1 DUP3 MLOAD DUP3 SSTORE MLOAD DUP1 MLOAD SWAP1 PUSH1 0x1 PUSH1 0x1 PUSH1 0x40 SHL SUB DUP3 GT PUSH2 0xBB1 JUMPI DUP2 SWAP1 PUSH2 0xA6B DUP3 PUSH2 0xA62 PUSH1 0x1 DUP8 ADD SLOAD PUSH2 0x2818 JUMP JUMPDEST PUSH1 0x1 DUP8 ADD PUSH2 0x2967 JUMP JUMPDEST PUSH1 0x20 SWAP1 PUSH1 0x1F DUP4 GT PUSH1 0x1 EQ PUSH2 0xD48 JUMPI PUSH1 0x0 SWAP3 PUSH2 0xD3D JUMPI JUMPDEST POP POP DUP2 PUSH1 0x1 SHL SWAP2 PUSH1 0x0 NOT SWAP1 PUSH1 0x3 SHL SHR NOT AND OR PUSH1 0x1 DUP3 ADD SSTORE JUMPDEST PUSH1 0x40 DUP3 ADD MLOAD DUP1 MLOAD SWAP1 PUSH1 0x1 PUSH1 0x1 PUSH1 0x40 SHL SUB DUP3 GT PUSH2 0xBB1 JUMPI DUP2 SWAP1 PUSH2 0xACB DUP3 PUSH2 0xAC2 PUSH1 0x2 DUP8 ADD SLOAD PUSH2 0x2818 JUMP JUMPDEST PUSH1 0x2 DUP8 ADD PUSH2 0x2967 JUMP JUMPDEST PUSH1 0x20 SWAP1 PUSH1 0x1F DUP4 GT PUSH1 0x1 EQ PUSH2 0xCCB JUMPI PUSH1 0x0 SWAP3 PUSH2 0xCC0 JUMPI JUMPDEST POP POP DUP2 PUSH1 0x1 SHL SWAP2 PUSH1 0x0 NOT SWAP1 PUSH1 0x3 SHL SHR NOT AND OR PUSH1 0x2 DUP3 ADD SSTORE JUMPDEST PUSH1 0x60 DUP3 ADD MLOAD PUSH1 0x3 DUP3 ADD SSTORE PUSH1 0x80 DUP3 ADD MLOAD PUSH1 0x4 DUP2 LT ISZERO PUSH2 0xCAA JUMPI DUP2 PUSH1 0x5 SWAP2 PUSH1 0x4 PUSH1 0xA0 SWAP5 ADD SWAP1 PUSH1 0xFF DUP1 NOT DUP4 SLOAD AND SWAP2 AND OR SWAP1 SSTORE ADD SWAP2 ADD MLOAD PUSH1 0x20 DUP2 MLOAD SWAP2 PUSH2 0xB3B DUP4 DUP6 PUSH2 0x29AC JUMP JUMPDEST ADD SWAP2 PUSH1 0x0 MSTORE PUSH1 0x20 PUSH1 0x0 KECCAK256 PUSH1 0x0 SWAP3 JUMPDEST DUP3 DUP5 LT PUSH2 0xBC7 JUMPI POP POP POP POP PUSH1 0x4 CALLDATALOAD PUSH1 0x0 MSTORE PUSH1 0x5 PUSH1 0x20 MSTORE PUSH1 0x40 PUSH1 0x0 KECCAK256 SWAP2 DUP3 SLOAD SWAP3 PUSH1 0x1 PUSH1 0x40 SHL DUP5 LT ISZERO PUSH2 0xBB1 JUMPI DUP4 PUSH2 0xB87 SWAP2 PUSH1 0x1 PUSH2 0xBAC SWAP7 ADD DUP2 SSTORE PUSH2 0x2651 JUMP JUMPDEST DUP2 SLOAD SWAP1 PUSH1 0x3 SHL SWAP1 DUP4 DUP3 SHL SWAP2 PUSH1 0x0 NOT SWAP1 SHL NOT AND OR SWAP1 SSTORE PUSH2 0xBA6 DUP3 DUP12 PUSH2 0x2B5F JUMP JUMPDEST MSTORE PUSH2 0x2A3C JUMP JUMPDEST PUSH2 0x902 JUMP JUMPDEST PUSH4 0x4E487B71 PUSH1 0xE0 SHL PUSH1 0x0 MSTORE PUSH1 0x41 PUSH1 0x4 MSTORE PUSH1 0x24 PUSH1 0x0 REVERT JUMPDEST DUP1 MLOAD DUP1 MLOAD SWAP1 PUSH1 0x1 PUSH1 0x1 PUSH1 0x40 SHL SUB DUP3 GT PUSH2 0xBB1 JUMPI PUSH2 0xBEE DUP3 PUSH2 0xBE8 DUP7 SLOAD PUSH2 0x2818 JUMP JUMPDEST DUP7 PUSH2 0x2967 JUMP JUMPDEST PUSH1 0x20 SWAP1 PUSH1 0x1F DUP4 GT PUSH1 0x1 EQ PUSH2 0xC3A JUMPI SWAP3 DUP3 PUSH1 0x1 SWAP5 SWAP4 PUSH1 0x20 SWAP4 DUP7 SWAP6 PUSH1 0x0 SWAP3 PUSH2 0xC2F JUMPI JUMPDEST POP POP PUSH1 0x0 NOT PUSH1 0x3 DUP4 SWAP1 SHL SHR NOT AND SWAP1 DUP5 SHL OR DUP6 SSTORE JUMPDEST ADD SWAP3 ADD SWAP4 ADD SWAP3 SWAP1 PUSH2 0xB49 JUMP JUMPDEST ADD MLOAD SWAP1 POP CODESIZE DUP1 PUSH2 0xC0F JUMP JUMPDEST SWAP1 DUP5 PUSH1 0x0 MSTORE PUSH1 0x20 PUSH1 0x0 KECCAK256 SWAP2 PUSH1 0x0 JUMPDEST PUSH1 0x1F NOT DUP6 AND DUP2 LT PUSH2 0xC92 JUMPI POP DUP4 PUSH1 0x20 SWAP4 PUSH1 0x1 SWAP7 SWAP4 DUP8 SWAP7 SWAP4 DUP8 SWAP5 PUSH1 0x1F NOT DUP2 AND LT PUSH2 0xC79 JUMPI JUMPDEST POP POP POP DUP2 SHL ADD DUP6 SSTORE PUSH2 0xC23 JUMP JUMPDEST ADD MLOAD PUSH1 0x0 NOT PUSH1 0xF8 DUP5 PUSH1 0x3 SHL AND SHR NOT AND SWAP1 SSTORE CODESIZE DUP1 DUP1 PUSH2 0xC6C JUMP JUMPDEST SWAP2 SWAP3 PUSH1 0x20 PUSH1 0x1 DUP2 SWAP3 DUP7 DUP6 ADD MLOAD DUP2 SSTORE ADD SWAP5 ADD SWAP3 ADD PUSH2 0xC48 JUMP JUMPDEST PUSH4 0x4E487B71 PUSH1 0xE0 SHL PUSH1 0x0 MSTORE PUSH1 0x21 PUSH1 0x4 MSTORE PUSH1 0x24 PUSH1 0x0 REVERT JUMPDEST ADD MLOAD SWAP1 POP DUP15 DUP1 PUSH2 0xAE1 JUMP JUMPDEST SWAP3 POP PUSH1 0x2 DUP5 ADD PUSH1 0x0 MSTORE PUSH1 0x20 PUSH1 0x0 KECCAK256 SWAP1 PUSH1 0x0 SWAP4 JUMPDEST PUSH1 0x1F NOT DUP5 AND DUP6 LT PUSH2 0xD22 JUMPI PUSH1 0x1 SWAP5 POP DUP4 PUSH1 0x1F NOT DUP2 AND LT PUSH2 0xD09 JUMPI JUMPDEST POP POP POP DUP2 SHL ADD PUSH1 0x2 DUP3 ADD SSTORE PUSH2 0xAF9 JUMP JUMPDEST ADD MLOAD PUSH1 0x0 NOT PUSH1 0xF8 DUP5 PUSH1 0x3 SHL AND SHR NOT AND SWAP1 SSTORE DUP15 DUP1 DUP1 PUSH2 0xCF9 JUMP JUMPDEST DUP2 DUP2 ADD MLOAD DUP4 SSTORE PUSH1 0x20 SWAP5 DUP6 ADD SWAP5 PUSH1 0x1 SWAP1 SWAP4 ADD SWAP3 SWAP1 SWAP2 ADD SWAP1 PUSH2 0xCDE JUMP JUMPDEST ADD MLOAD SWAP1 POP DUP15 DUP1 PUSH2 0xA81 JUMP JUMPDEST SWAP3 POP PUSH1 0x1 DUP5 ADD PUSH1 0x0 MSTORE PUSH1 0x20 PUSH1 0x0 KECCAK256 SWAP1 PUSH1 0x0 SWAP4 JUMPDEST PUSH1 0x1F NOT DUP5 AND DUP6 LT PUSH2 0xD9F JUMPI PUSH1 0x1 SWAP5 POP DUP4 PUSH1 0x1F NOT DUP2 AND LT PUSH2 0xD86 JUMPI JUMPDEST POP POP POP DUP2 SHL ADD PUSH1 0x1 DUP3 ADD SSTORE PUSH2 0xA99 JUMP JUMPDEST ADD MLOAD PUSH1 0x0 NOT PUSH1 0xF8 DUP5 PUSH1 0x3 SHL AND SHR NOT AND SWAP1 SSTORE DUP15 DUP1 DUP1 PUSH2 0xD76 JUMP JUMPDEST DUP2 DUP2 ADD MLOAD DUP4 SSTORE PUSH1 0x20 SWAP5 DUP6 ADD SWAP5 PUSH1 0x1 SWAP1 SWAP4 ADD SWAP3 SWAP1 SWAP2 ADD SWAP1 PUSH2 0xD5B JUMP JUMPDEST PUSH1 0x1 SWAP1 PUSH1 0x20 DUP5 MLOAD SWAP5 ADD SWAP4 DUP2 DUP5 ADD SSTORE ADD PUSH2 0x8A9 JUMP JUMPDEST PUSH2 0xDE8 SWAP1 PUSH1 0x4 DUP8 ADD PUSH1 0x0 MSTORE DUP5 DUP5 PUSH1 0x0 KECCAK256 SWAP2 DUP3 ADD SWAP2 ADD PUSH2 0x2950 JUMP JUMPDEST DUP13 PUSH2 0x898 JUMP JUMPDEST DUP1 MLOAD DUP1 MLOAD SWAP1 PUSH1 0x1 PUSH1 0x1 PUSH1 0x40 SHL SUB DUP3 GT PUSH2 0xBB1 JUMPI PUSH2 0xE15 DUP3 PUSH2 0xE0F DUP9 SLOAD PUSH2 0x2818 JUMP JUMPDEST DUP9 PUSH2 0x2967 JUMP JUMPDEST PUSH1 0x20 SWAP1 PUSH1 0x1F DUP4 GT PUSH1 0x1 EQ PUSH2 0xE61 JUMPI SWAP3 DUP3 PUSH1 0x1 SWAP5 SWAP4 PUSH1 0x20 SWAP4 DUP7 SWAP6 PUSH1 0x0 SWAP3 PUSH2 0xE56 JUMPI JUMPDEST POP POP PUSH1 0x0 NOT PUSH1 0x3 DUP4 SWAP1 SHL SHR NOT AND SWAP1 DUP5 SHL OR DUP8 SSTORE JUMPDEST ADD SWAP5 ADD SWAP2 ADD SWAP1 SWAP3 PUSH2 0x856 JUMP JUMPDEST ADD MLOAD SWAP1 POP CODESIZE DUP1 PUSH2 0xE36 JUMP JUMPDEST SWAP1 DUP7 PUSH1 0x0 MSTORE PUSH1 0x20 PUSH1 0x0 KECCAK256 SWAP2 PUSH1 0x0 JUMPDEST PUSH1 0x1F NOT DUP6 AND DUP2 LT PUSH2 0xEB9 JUMPI POP DUP4 PUSH1 0x20 SWAP4 PUSH1 0x1 SWAP7 SWAP4 DUP8 SWAP7 SWAP4 DUP8 SWAP5 PUSH1 0x1F NOT DUP2 AND LT PUSH2 0xEA0 JUMPI JUMPDEST POP POP POP DUP2 SHL ADD DUP8 SSTORE PUSH2 0xE4A JUMP JUMPDEST ADD MLOAD PUSH1 0x0 NOT PUSH1 0xF8 DUP5 PUSH1 0x3 SHL AND SHR NOT AND SWAP1 SSTORE CODESIZE DUP1 DUP1 PUSH2 0xE93 JUMP JUMPDEST SWAP2 SWAP3 PUSH1 0x20 PUSH1 0x1 DUP2 SWAP3 DUP7 DUP6 ADD MLOAD DUP2 SSTORE ADD SWAP5 ADD SWAP3 ADD PUSH2 0xE6F JUMP JUMPDEST DUP1 MLOAD DUP1 MLOAD SWAP1 PUSH1 0x1 PUSH1 0x1 PUSH1 0x40 SHL SUB DUP3 GT PUSH2 0xBB1 JUMPI PUSH2 0xEF2 DUP3 PUSH2 0xE0F DUP9 SLOAD PUSH2 0x2818 JUMP JUMPDEST PUSH1 0x20 SWAP1 PUSH1 0x1F DUP4 GT PUSH1 0x1 EQ PUSH2 0xF3E JUMPI SWAP3 DUP3 PUSH1 0x1 SWAP5 SWAP4 PUSH1 0x20 SWAP4 DUP7 SWAP6 PUSH1 0x0 SWAP3 PUSH2 0xF33 JUMPI JUMPDEST POP POP PUSH1 0x0 NOT PUSH1 0x3 DUP4 SWAP1 SHL SHR NOT AND SWAP1 DUP5 SHL OR DUP8 SSTORE JUMPDEST ADD SWAP5 ADD SWAP2 ADD SWAP1 SWAP3 PUSH2 0x824 JUMP JUMPDEST ADD MLOAD SWAP1 POP CODESIZE DUP1 PUSH2 0xF13 JUMP JUMPDEST SWAP1 DUP7 PUSH1 0x0 MSTORE PUSH1 0x20 PUSH1 0x0 KECCAK256 SWAP2 PUSH1 0x0 JUMPDEST PUSH1 0x1F NOT DUP6 AND DUP2 LT PUSH2 0xF96 JUMPI POP DUP4 PUSH1 0x20 SWAP4 PUSH1 0x1 SWAP7 SWAP4 DUP8 SWAP7 SWAP4 DUP8 SWAP5 PUSH1 0x1F NOT DUP2 AND LT PUSH2 0xF7D JUMPI JUMPDEST POP POP POP DUP2 SHL ADD DUP8 SSTORE PUSH2 0xF27 JUMP JUMPDEST ADD MLOAD PUSH1 0x0 NOT PUSH1 0xF8 DUP5 PUSH1 0x3 SHL AND SHR NOT AND SWAP1 SSTORE CODESIZE DUP1 DUP1 PUSH2 0xF70 JUMP JUMPDEST SWAP2 SWAP3 PUSH1 0x20 PUSH1 0x1 DUP2 SWAP3 DUP7 DUP6 ADD MLOAD DUP2 SSTORE ADD SWAP5 ADD SWAP3 ADD PUSH2 0xF4C JUMP JUMPDEST PUSH4 0x4E487B71 PUSH1 0xE0 SHL PUSH1 0x0 MSTORE PUSH1 0x0 PUSH1 0x4 MSTORE PUSH1 0x24 PUSH1 0x0 REVERT JUMPDEST DUP2 CALLDATALOAD DUP2 MSTORE PUSH1 0x20 SWAP2 DUP3 ADD SWAP2 ADD PUSH2 0x789 JUMP JUMPDEST PUSH1 0x64 PUSH1 0x40 MLOAD PUSH3 0x461BCD PUSH1 0xE5 SHL DUP2 MSTORE PUSH1 0x20 PUSH1 0x4 DUP3 ADD MSTORE PUSH1 0x20 PUSH1 0x24 DUP3 ADD MSTORE PUSH32 0x4D696C6573746F6E6520746F74616C20213D2070726F6772616D207072696365 PUSH1 0x44 DUP3 ADD MSTORE REVERT JUMPDEST SWAP2 PUSH2 0x1024 DUP4 DUP7 DUP7 PUSH2 0x2B02 JUMP JUMPDEST CALLDATALOAD DUP2 ADD DUP1 SWAP2 GT PUSH2 0x103D JUMPI PUSH2 0x1038 SWAP1 SWAP3 PUSH2 0x2A3C JUMP JUMPDEST PUSH2 0x6F8 JUMP JUMPDEST PUSH4 0x4E487B71 PUSH1 0xE0 SHL PUSH1 0x0 MSTORE PUSH1 0x11 PUSH1 0x4 MSTORE PUSH1 0x24 PUSH1 0x0 REVERT JUMPDEST PUSH1 0x40 MLOAD PUSH3 0x461BCD PUSH1 0xE5 SHL DUP2 MSTORE PUSH1 0x20 PUSH1 0x4 DUP3 ADD MSTORE PUSH1 0xE PUSH1 0x24 DUP3 ADD MSTORE PUSH14 0x92DCE0EAE840DAD2E6DAC2E8C6D PUSH1 0x93 SHL PUSH1 0x44 DUP3 ADD MSTORE PUSH1 0x64 SWAP1 REVERT JUMPDEST POP DUP3 DUP7 EQ PUSH2 0x6ED JUMP JUMPDEST CALLVALUE PUSH2 0x2CC JUMPI PUSH1 0x60 CALLDATASIZE PUSH1 0x3 NOT ADD SLT PUSH2 0x2CC JUMPI PUSH1 0x4 CALLDATALOAD PUSH1 0x24 DUP1 CALLDATALOAD SWAP1 PUSH1 0x1 PUSH1 0x1 PUSH1 0x40 SHL SUB SWAP1 PUSH1 0x44 CALLDATALOAD DUP3 DUP2 GT PUSH2 0x2CC JUMPI PUSH2 0x10CC SWAP1 CALLDATASIZE SWAP1 PUSH1 0x4 ADD PUSH2 0x27E8 JUMP JUMPDEST SWAP1 DUP6 PUSH1 0x0 MSTORE PUSH1 0x20 SWAP1 PUSH1 0x2 DUP3 MSTORE PUSH1 0x40 PUSH1 0x0 KECCAK256 PUSH1 0xFF PUSH1 0xA DUP3 ADD SLOAD PUSH1 0xA0 SHR AND ISZERO PUSH2 0x139E JUMPI PUSH1 0xB ADD SLOAD PUSH1 0x1 PUSH1 0x1 PUSH1 0xA0 SHL SUB AND CALLER SUB PUSH2 0x136C JUMPI DUP7 PUSH1 0x0 MSTORE PUSH1 0x4 DUP3 MSTORE PUSH1 0x40 PUSH1 0x0 KECCAK256 DUP7 PUSH1 0x0 MSTORE DUP3 MSTORE PUSH1 0x40 PUSH1 0x0 KECCAK256 SWAP4 PUSH1 0x4 DUP6 ADD SWAP5 DUP6 SLOAD SWAP6 PUSH1 0xFF DUP8 AND PUSH1 0x4 DUP2 LT ISZERO PUSH2 0x1357 JUMPI PUSH2 0x131F JUMPI SWAP1 PUSH1 0x5 SWAP2 PUSH1 0x1 SWAP9 SWAP8 SWAP7 SWAP6 SWAP5 SWAP9 DUP1 SWAP8 PUSH1 0xFF NOT AND OR SWAP1 SSTORE ADD PUSH2 0x1152 DUP5 DUP3 PUSH2 0x29AC JUMP JUMPDEST PUSH1 0x0 SWAP1 DUP2 MSTORE DUP3 DUP2 KECCAK256 DUP8 JUMPDEST DUP6 DUP4 LT PUSH2 0x122C JUMPI POP POP POP POP DUP2 PUSH1 0x40 MLOAD SWAP7 PUSH1 0x40 DUP9 ADD SWAP1 DUP9 MSTORE PUSH1 0x40 DUP4 DUP10 ADD MSTORE MSTORE PUSH1 0x60 DUP7 ADD SWAP5 PUSH1 0x60 DUP4 PUSH1 0x5 SHL DUP9 ADD ADD SWAP6 DUP2 SWAP6 PUSH1 0x0 SWAP3 JUMPDEST DUP6 DUP5 LT PUSH2 0x11BF JUMPI DUP11 PUSH32 0xBAA1EE362891351ADD36BB95F60BA8E4031D4C60ECE483917C0DC053D7B2C3D7 DUP12 DUP12 SUB DUP13 LOG2 STOP JUMPDEST SWAP1 SWAP2 SWAP3 SWAP4 SWAP5 SWAP6 SWAP7 SWAP8 PUSH1 0x5F NOT DUP11 DUP3 SUB ADD DUP5 MSTORE DUP9 CALLDATALOAD PUSH1 0x1E NOT DUP4 CALLDATASIZE SUB ADD DUP2 SLT ISZERO PUSH2 0x2CC JUMPI DUP3 ADD DUP7 DUP2 ADD SWAP2 SWAP1 CALLDATALOAD DUP5 DUP2 GT PUSH2 0x2CC JUMPI DUP1 CALLDATASIZE SUB DUP4 SGT PUSH2 0x2CC JUMPI DUP8 DUP3 DUP3 DUP1 DUP14 SWAP7 DUP5 SWAP7 SWAP6 DUP6 SWAP7 MSTORE DUP5 DUP5 ADD CALLDATACOPY PUSH1 0x0 DUP3 DUP3 ADD DUP5 ADD MSTORE PUSH1 0x1F ADD PUSH1 0x1F NOT AND ADD ADD SWAP11 ADD SWAP9 SWAP8 SWAP7 SWAP6 SWAP2 SWAP1 SWAP2 ADD SWAP4 ADD SWAP2 SWAP1 PUSH2 0x118F JUMP JUMPDEST PUSH2 0x123B DUP2 DUP11 SWAP7 SWAP8 SWAP9 SWAP10 SWAP11 PUSH2 0x2B12 JUMP JUMPDEST DUP11 DUP2 SWAP4 SWAP3 SWAP4 GT PUSH2 0x130A JUMPI DUP10 SWAP2 DUP2 PUSH2 0x1257 DUP11 SWAP4 PUSH2 0xE0F DUP9 SLOAD PUSH2 0x2818 JUMP JUMPDEST PUSH1 0x0 PUSH1 0x1F DUP3 GT PUSH1 0x1 EQ PUSH2 0x12A1 JUMPI DUP2 SWAP1 DUP6 SWAP7 PUSH1 0x0 SWAP3 PUSH2 0x1296 JUMPI JUMPDEST POP POP PUSH1 0x0 NOT PUSH1 0x3 DUP4 SWAP1 SHL SHR NOT AND SWAP1 DUP5 SHL OR DUP6 SSTORE JUMPDEST ADD SWAP3 ADD SWAP3 ADD SWAP2 SWAP1 SWAP8 SWAP7 SWAP6 SWAP5 SWAP4 SWAP8 PUSH2 0x115C JUMP JUMPDEST ADD CALLDATALOAD SWAP1 POP CODESIZE DUP1 PUSH2 0x1270 JUMP JUMPDEST SWAP5 PUSH1 0x1F NOT DUP3 AND SWAP6 DUP8 PUSH1 0x0 MSTORE DUP5 PUSH1 0x0 KECCAK256 SWAP7 PUSH1 0x0 JUMPDEST DUP2 DUP2 LT PUSH2 0x12F1 JUMPI POP SWAP2 DUP7 SWAP8 SWAP2 DUP5 DUP9 SWAP6 SWAP5 LT PUSH2 0x12D7 JUMPI JUMPDEST POP POP POP DUP2 SHL ADD DUP6 SSTORE PUSH2 0x1284 JUMP JUMPDEST ADD CALLDATALOAD PUSH1 0x0 NOT PUSH1 0x3 DUP5 SWAP1 SHL PUSH1 0xF8 AND SHR NOT AND SWAP1 SSTORE CODESIZE DUP1 DUP1 PUSH2 0x12CA JUMP JUMPDEST DUP4 DUP4 ADD CALLDATALOAD DUP10 SSTORE SWAP7 SWAP1 SWAP8 ADD SWAP7 DUP15 SWAP7 DUP14 SWAP7 SWAP3 DUP4 ADD SWAP3 ADD PUSH2 0x12B4 JUMP JUMPDEST DUP6 PUSH4 0x4E487B71 PUSH1 0xE0 SHL PUSH1 0x0 MSTORE PUSH1 0x41 PUSH1 0x4 MSTORE PUSH1 0x0 REVERT JUMPDEST PUSH1 0x40 MLOAD PUSH3 0x461BCD PUSH1 0xE5 SHL DUP2 MSTORE PUSH1 0x4 DUP2 ADD DUP7 SWAP1 MSTORE PUSH1 0x11 DUP2 DUP6 ADD MSTORE PUSH17 0x105B1C9958591E481CDD589B5A5D1D1959 PUSH1 0x7A SHL PUSH1 0x44 DUP3 ADD MSTORE PUSH1 0x64 SWAP1 REVERT JUMPDEST DUP4 PUSH4 0x4E487B71 PUSH1 0xE0 SHL PUSH1 0x0 MSTORE PUSH1 0x21 PUSH1 0x4 MSTORE PUSH1 0x0 REVERT JUMPDEST PUSH1 0x40 MLOAD PUSH3 0x461BCD PUSH1 0xE5 SHL DUP2 MSTORE PUSH1 0x4 DUP2 ADD DUP4 SWAP1 MSTORE PUSH1 0xB DUP2 DUP7 ADD MSTORE PUSH11 0x2737BA10313AB4B63232B9 PUSH1 0xA9 SHL PUSH1 0x44 DUP3 ADD MSTORE PUSH1 0x64 SWAP1 REVERT JUMPDEST PUSH1 0x40 MLOAD PUSH3 0x461BCD PUSH1 0xE5 SHL DUP2 MSTORE PUSH1 0x4 DUP2 ADD DUP5 SWAP1 MSTORE PUSH1 0x14 DUP2 DUP8 ADD MSTORE PUSH20 0x141C9BD9DC985B481B9BDD08185C1C1C9BDD9959 PUSH1 0x62 SHL PUSH1 0x44 DUP3 ADD MSTORE PUSH1 0x64 SWAP1 REVERT JUMPDEST CALLVALUE PUSH2 0x2CC JUMPI PUSH2 0x13E7 CALLDATASIZE PUSH2 0x25EE JUMP JUMPDEST SWAP1 PUSH2 0x13F0 PUSH2 0x2BED JUMP JUMPDEST DUP1 PUSH1 0x0 MSTORE PUSH1 0x20 PUSH1 0x2 DUP2 MSTORE PUSH1 0x40 PUSH1 0x0 KECCAK256 PUSH1 0x1 DUP1 PUSH1 0xA0 SHL SUB SWAP1 PUSH2 0x1418 DUP3 PUSH1 0xA DUP4 ADD SLOAD AND CALLER EQ PUSH2 0x2A4B JUMP JUMPDEST DUP4 PUSH1 0x0 MSTORE PUSH1 0x4 DUP4 MSTORE PUSH1 0x40 PUSH1 0x0 KECCAK256 DUP6 PUSH1 0x0 MSTORE DUP4 MSTORE PUSH1 0x40 PUSH1 0x0 KECCAK256 SWAP1 PUSH1 0x4 DUP3 ADD SWAP1 DUP2 SLOAD SWAP2 PUSH1 0xFF DUP4 AND PUSH1 0x4 DUP2 LT ISZERO PUSH2 0xCAA JUMPI PUSH1 0xB SWAP4 PUSH2 0x1457 PUSH1 0x1 PUSH1 0x2 SWAP4 EQ PUSH2 0x2BB0 JUMP JUMPDEST PUSH1 0xFF NOT AND OR SWAP1 SSTORE ADD SWAP1 PUSH1 0x0 DUP1 DUP1 DUP1 PUSH1 0x3 DUP8 DUP8 SLOAD AND SWAP6 ADD SWAP5 DUP6 SLOAD SWAP1 GAS CALL RETURNDATASIZE ISZERO PUSH2 0x1555 JUMPI RETURNDATASIZE PUSH2 0x1483 DUP2 PUSH2 0x26BB JUMP JUMPDEST SWAP1 PUSH2 0x1491 PUSH1 0x40 MLOAD SWAP3 DUP4 PUSH2 0x269A JUMP JUMPDEST DUP2 MSTORE PUSH1 0x0 DUP7 RETURNDATASIZE SWAP3 ADD RETURNDATACOPY JUMPDEST ISZERO PUSH2 0x151A JUMPI SWAP4 PUSH32 0x27D841E82FB3B2469E89E27C70F2EC8597324E08569A13460E4DD8A1A3C0B10C PUSH1 0x40 DUP3 SWAP8 PUSH32 0x7099040FF4ABF6B015BD1004CBF11EC796C3D4ABCAEC3514DB1C93599297D39F SWAP8 SLOAD DUP1 SWAP8 DUP4 MLOAD SWAP3 DUP4 MSTORE DUP3 ADD MSTORE LOG2 SLOAD PUSH1 0x40 DUP1 MLOAD SWAP3 SWAP1 SWAP2 AND PUSH1 0x1 PUSH1 0x1 PUSH1 0xA0 SHL SUB AND DUP3 MSTORE PUSH1 0x20 DUP3 ADD SWAP3 SWAP1 SWAP3 MSTORE SWAP1 DUP2 SWAP1 DUP2 ADD PUSH2 0x1FD JUMP JUMPDEST PUSH1 0x40 MLOAD PUSH3 0x461BCD PUSH1 0xE5 SHL DUP2 MSTORE PUSH1 0x4 DUP2 ADD DUP6 SWAP1 MSTORE PUSH1 0x13 PUSH1 0x24 DUP3 ADD MSTORE PUSH19 0x115512081D1C985B9CD9995C8819985A5B1959 PUSH1 0x6A SHL PUSH1 0x44 DUP3 ADD MSTORE PUSH1 0x64 SWAP1 REVERT JUMPDEST PUSH2 0x149B JUMP JUMPDEST CALLVALUE PUSH2 0x2CC JUMPI PUSH1 0x0 CALLDATASIZE PUSH1 0x3 NOT ADD SLT PUSH2 0x2CC JUMPI PUSH1 0x0 SLOAD PUSH1 0x40 MLOAD PUSH1 0x1 PUSH1 0x1 PUSH1 0xA0 SHL SUB SWAP1 SWAP2 AND DUP2 MSTORE PUSH1 0x20 SWAP1 RETURN JUMPDEST CALLVALUE PUSH2 0x2CC JUMPI PUSH1 0xA0 CALLDATASIZE PUSH1 0x3 NOT ADD SLT PUSH2 0x2CC JUMPI PUSH1 0x24 CALLDATALOAD PUSH1 0x1 PUSH1 0x1 PUSH1 0xA0 SHL SUB PUSH1 0x4 CALLDATALOAD PUSH1 0x84 CALLDATALOAD DUP3 DUP2 AND SWAP1 PUSH1 0x64 CALLDATALOAD SWAP1 PUSH1 0x44 CALLDATALOAD SWAP1 DUP4 SWAP1 SUB PUSH2 0x2CC JUMPI DUP4 PUSH1 0x0 MSTORE PUSH1 0x2 PUSH1 0x20 MSTORE PUSH1 0x40 PUSH1 0x0 KECCAK256 SWAP5 PUSH1 0x9 DUP7 ADD SLOAD AND CALLER SUB PUSH2 0x16B2 JUMPI DUP2 DUP2 LT ISZERO PUSH2 0x167E JUMPI DUP6 ISZERO PUSH2 0x1649 JUMPI DUP6 PUSH1 0xA DUP7 PUSH32 0xE3D59D03839A10C8A5A85DD0D7E5A4AC45445821C5176529D2745ADF6915A161 SWAP9 PUSH1 0x3 PUSH1 0xA0 SWAP10 ADD SSTORE DUP4 PUSH1 0x4 DUP3 ADD SSTORE DUP5 PUSH1 0x5 DUP3 ADD SSTORE ADD DUP5 PUSH1 0x1 PUSH1 0x1 PUSH1 0x60 SHL SUB DUP9 SHL DUP3 SLOAD AND OR SWAP1 SSTORE PUSH1 0x40 MLOAD SWAP5 DUP6 MSTORE PUSH1 0x20 DUP6 ADD MSTORE PUSH1 0x40 DUP5 ADD MSTORE PUSH1 0x60 DUP4 ADD MSTORE PUSH1 0x80 DUP3 ADD MSTORE LOG1 STOP JUMPDEST PUSH1 0x40 MLOAD PUSH3 0x461BCD PUSH1 0xE5 SHL DUP2 MSTORE PUSH1 0x20 PUSH1 0x4 DUP3 ADD MSTORE PUSH1 0xD PUSH1 0x24 DUP3 ADD MSTORE PUSH13 0x496E76616C6964207072696365 PUSH1 0x98 SHL PUSH1 0x44 DUP3 ADD MSTORE PUSH1 0x64 SWAP1 REVERT JUMPDEST PUSH1 0x40 MLOAD PUSH3 0x461BCD PUSH1 0xE5 SHL DUP2 MSTORE PUSH1 0x20 PUSH1 0x4 DUP3 ADD MSTORE PUSH1 0xC PUSH1 0x24 DUP3 ADD MSTORE PUSH12 0x496E76616C69642074696D65 PUSH1 0xA0 SHL PUSH1 0x44 DUP3 ADD MSTORE PUSH1 0x64 SWAP1 REVERT JUMPDEST PUSH1 0x40 MLOAD PUSH3 0x461BCD PUSH1 0xE5 SHL DUP2 MSTORE PUSH1 0x20 PUSH1 0x4 DUP3 ADD MSTORE PUSH1 0xC PUSH1 0x24 DUP3 ADD MSTORE PUSH12 0x27B7363C9031B932B0BA37B9 PUSH1 0xA1 SHL PUSH1 0x44 DUP3 ADD MSTORE PUSH1 0x64 SWAP1 REVERT JUMPDEST CALLVALUE PUSH2 0x2CC JUMPI PUSH1 0x20 CALLDATASIZE PUSH1 0x3 NOT ADD SLT PUSH2 0x2CC JUMPI PUSH1 0x4 CALLDATALOAD PUSH1 0x0 MSTORE PUSH1 0x8 PUSH1 0x20 MSTORE PUSH1 0x20 PUSH1 0x40 PUSH1 0x0 KECCAK256 SLOAD PUSH1 0x40 MLOAD SWAP1 DUP2 MSTORE RETURN JUMPDEST CALLVALUE PUSH2 0x2CC JUMPI PUSH2 0x1720 CALLDATASIZE PUSH2 0x25EE JUMP JUMPDEST SWAP1 PUSH1 0x0 MSTORE PUSH1 0x3 PUSH1 0x20 MSTORE PUSH1 0x40 PUSH1 0x0 KECCAK256 SWAP1 DUP2 SLOAD DUP2 LT ISZERO PUSH2 0x2CC JUMPI PUSH2 0x1741 SWAP2 PUSH2 0x27CC JUMP JUMPDEST POP DUP1 SLOAD PUSH1 0xFF PUSH1 0x5 PUSH1 0x1 DUP1 PUSH1 0xA0 SHL SUB PUSH1 0x1 DUP6 ADD SLOAD AND SWAP4 ADD SLOAD AND SWAP2 PUSH1 0x40 MLOAD SWAP2 DUP3 MSTORE PUSH1 0x20 DUP3 ADD MSTORE PUSH1 0x3 DUP3 LT ISZERO PUSH2 0xCAA JUMPI PUSH1 0x60 SWAP2 PUSH1 0x40 DUP3 ADD MSTORE RETURN JUMPDEST PUSH2 0x120 CALLDATASIZE PUSH1 0x3 NOT ADD SLT PUSH2 0x2CC JUMPI PUSH1 0x4 CALLDATALOAD PUSH1 0x1 PUSH1 0x1 PUSH1 0x40 SHL SUB DUP2 GT PUSH2 0x2CC JUMPI PUSH2 0x17A4 SWAP1 CALLDATASIZE SWAP1 PUSH1 0x4 ADD PUSH2 0x270D JUMP JUMPDEST PUSH1 0x44 CALLDATALOAD PUSH1 0x1 PUSH1 0x1 PUSH1 0x40 SHL SUB DUP2 GT PUSH2 0x2CC JUMPI PUSH2 0x17C3 SWAP1 CALLDATASIZE SWAP1 PUSH1 0x4 ADD PUSH2 0x27B1 JUMP JUMPDEST SWAP1 PUSH1 0xA4 CALLDATALOAD SWAP1 PUSH1 0x1 PUSH1 0x1 PUSH1 0xA0 SHL SUB DUP3 AND DUP3 SUB PUSH2 0x2CC JUMPI PUSH1 0xC4 CALLDATALOAD PUSH1 0x1 PUSH1 0x1 PUSH1 0x40 SHL SUB DUP2 GT PUSH2 0x2CC JUMPI PUSH2 0x17F7 SWAP1 CALLDATASIZE SWAP1 PUSH1 0x4 ADD PUSH2 0x270D JUMP JUMPDEST PUSH1 0xE4 CALLDATALOAD PUSH1 0x1 PUSH1 0x1 PUSH1 0x40 SHL SUB DUP2 GT PUSH2 0x2CC JUMPI PUSH2 0x1816 SWAP1 CALLDATASIZE SWAP1 PUSH1 0x4 ADD PUSH2 0x270D JUMP JUMPDEST PUSH2 0x104 CALLDATALOAD PUSH1 0x1 PUSH1 0x1 PUSH1 0x40 SHL SUB DUP2 GT PUSH2 0x2CC JUMPI PUSH2 0x1836 SWAP1 CALLDATASIZE SWAP1 PUSH1 0x4 ADD PUSH2 0x27B1 JUMP JUMPDEST SWAP2 PUSH1 0x24 CALLDATALOAD CALLVALUE SUB PUSH2 0x1EEE JUMPI PUSH1 0x84 CALLDATALOAD PUSH1 0x64 CALLDATALOAD LT ISZERO PUSH2 0x1E8F JUMPI PUSH1 0x9 SLOAD SWAP6 PUSH1 0x40 MLOAD SWAP5 DUP6 PUSH2 0x1C0 DUP2 ADD LT PUSH1 0x1 PUSH1 0x1 PUSH1 0x40 SHL SUB PUSH2 0x1C0 DUP9 ADD GT OR PUSH2 0xBB1 JUMPI PUSH2 0x1C0 DUP7 ADD PUSH1 0x40 MSTORE DUP8 DUP7 MSTORE PUSH1 0x20 DUP7 ADD MSTORE PUSH1 0x40 DUP6 ADD MSTORE PUSH1 0x24 CALLDATALOAD PUSH1 0x60 DUP6 ADD MSTORE PUSH1 0x64 CALLDATALOAD PUSH1 0x80 DUP6 ADD MSTORE PUSH1 0x84 CALLDATALOAD PUSH1 0xA0 DUP6 ADD MSTORE PUSH1 0xC0 DUP5 ADD MSTORE PUSH1 0xE0 DUP4 ADD MSTORE PUSH2 0x100 DUP3 ADD MSTORE CALLER PUSH2 0x120 DUP3 ADD MSTORE PUSH1 0x1 DUP1 PUSH1 0xA0 SHL SUB DUP3 AND PUSH2 0x140 DUP3 ADD MSTORE PUSH1 0x0 PUSH2 0x160 DUP3 ADD MSTORE PUSH1 0x0 PUSH2 0x180 DUP3 ADD MSTORE PUSH1 0x0 PUSH2 0x1A0 DUP3 ADD MSTORE DUP3 PUSH1 0x0 MSTORE PUSH1 0x2 PUSH1 0x20 MSTORE PUSH1 0x40 PUSH1 0x0 KECCAK256 DUP2 MLOAD DUP2 SSTORE PUSH1 0x20 DUP3 ADD MLOAD DUP1 MLOAD SWAP1 PUSH1 0x1 PUSH1 0x1 PUSH1 0x40 SHL SUB DUP3 GT PUSH2 0xBB1 JUMPI DUP2 SWAP1 PUSH2 0x1914 DUP3 PUSH2 0xA62 PUSH1 0x1 DUP8 ADD SLOAD PUSH2 0x2818 JUMP JUMPDEST PUSH1 0x20 SWAP1 PUSH1 0x1F DUP4 GT PUSH1 0x1 EQ PUSH2 0x1E1D JUMPI PUSH1 0x0 SWAP3 PUSH2 0x1E12 JUMPI JUMPDEST POP POP DUP2 PUSH1 0x1 SHL SWAP2 PUSH1 0x0 NOT SWAP1 PUSH1 0x3 SHL SHR NOT AND OR PUSH1 0x1 DUP3 ADD SSTORE JUMPDEST PUSH1 0x2 DUP2 ADD PUSH1 0x40 DUP4 ADD MLOAD PUSH1 0x20 DUP2 MLOAD SWAP2 PUSH2 0x195A DUP4 DUP6 PUSH2 0x29AC JUMP JUMPDEST ADD SWAP2 PUSH1 0x0 MSTORE PUSH1 0x20 PUSH1 0x0 KECCAK256 SWAP2 PUSH1 0x0 SWAP1 JUMPDEST DUP3 DUP3 LT PUSH2 0x1D35 JUMPI POP POP POP POP PUSH1 0x60 DUP3 ADD MLOAD PUSH1 0x3 DUP3 ADD SSTORE PUSH1 0x80 DUP3 ADD MLOAD PUSH1 0x4 DUP3 ADD SSTORE PUSH1 0xA0 DUP3 ADD MLOAD PUSH1 0x5 DUP3 ADD SSTORE PUSH1 0xC0 DUP3 ADD MLOAD DUP1 MLOAD SWAP1 PUSH1 0x1 PUSH1 0x1 PUSH1 0x40 SHL SUB DUP3 GT PUSH2 0xBB1 JUMPI DUP2 SWAP1 PUSH2 0x19C4 DUP3 PUSH2 0x19BB PUSH1 0x6 DUP8 ADD SLOAD PUSH2 0x2818 JUMP JUMPDEST PUSH1 0x6 DUP8 ADD PUSH2 0x2967 JUMP JUMPDEST PUSH1 0x20 SWAP1 PUSH1 0x1F DUP4 GT PUSH1 0x1 EQ PUSH2 0x1CC3 JUMPI PUSH1 0x0 SWAP3 PUSH2 0x1CB8 JUMPI JUMPDEST POP POP DUP2 PUSH1 0x1 SHL SWAP2 PUSH1 0x0 NOT SWAP1 PUSH1 0x3 SHL SHR NOT AND OR PUSH1 0x6 DUP3 ADD SSTORE JUMPDEST PUSH1 0xE0 DUP3 ADD MLOAD DUP1 MLOAD SWAP1 PUSH1 0x1 PUSH1 0x1 PUSH1 0x40 SHL SUB DUP3 GT PUSH2 0xBB1 JUMPI DUP2 SWAP1 PUSH2 0x1A24 DUP3 PUSH2 0x1A1B PUSH1 0x7 DUP8 ADD SLOAD PUSH2 0x2818 JUMP JUMPDEST PUSH1 0x7 DUP8 ADD PUSH2 0x2967 JUMP JUMPDEST PUSH1 0x20 SWAP1 PUSH1 0x1F DUP4 GT PUSH1 0x1 EQ PUSH2 0x1C46 JUMPI PUSH1 0x0 SWAP3 PUSH2 0x1C3B JUMPI JUMPDEST POP POP DUP2 PUSH1 0x1 SHL SWAP2 PUSH1 0x0 NOT SWAP1 PUSH1 0x3 SHL SHR NOT AND OR PUSH1 0x7 DUP3 ADD SSTORE JUMPDEST PUSH1 0x8 DUP2 ADD PUSH2 0x100 DUP4 ADD MLOAD PUSH1 0x20 DUP2 MLOAD SWAP2 PUSH2 0x1A6B DUP4 DUP6 PUSH2 0x29AC JUMP JUMPDEST ADD SWAP2 PUSH1 0x0 MSTORE PUSH1 0x20 PUSH1 0x0 KECCAK256 SWAP2 PUSH1 0x0 SWAP1 JUMPDEST DUP3 DUP3 LT PUSH2 0x1B5E JUMPI POP POP POP POP PUSH1 0xB PUSH1 0x9 DUP3 ADD SWAP2 PUSH1 0x1 DUP1 PUSH1 0xA0 SHL SUB PUSH2 0x120 DUP6 ADD MLOAD AND SWAP3 PUSH1 0x1 PUSH1 0x1 PUSH1 0x60 SHL SUB PUSH1 0xA0 SHL SWAP4 DUP5 DUP3 SLOAD AND OR SWAP1 SSTORE PUSH1 0xA DUP2 ADD PUSH1 0x1 DUP1 PUSH1 0xA0 SHL SUB PUSH2 0x140 DUP7 ADD MLOAD AND DUP2 SLOAD SWAP1 PUSH1 0xFF PUSH1 0xA0 SHL PUSH2 0x160 DUP9 ADD MLOAD ISZERO ISZERO PUSH1 0xA0 SHL AND SWAP1 PUSH1 0xFF PUSH1 0xA8 SHL PUSH2 0x180 DUP10 ADD MLOAD ISZERO ISZERO PUSH1 0xA8 SHL AND SWAP3 PUSH10 0xFFFFFFFFFFFFFFFFFFFF PUSH1 0xB0 SHL AND OR OR OR SWAP1 SSTORE ADD SWAP2 PUSH2 0x1A0 PUSH1 0x1 DUP1 PUSH1 0xA0 SHL SUB SWAP2 ADD MLOAD AND SWAP1 DUP3 SLOAD AND OR SWAP1 SSTORE PUSH2 0x1B1D PUSH1 0x9 SLOAD PUSH2 0x2A3C JUMP JUMPDEST PUSH1 0x9 SSTORE PUSH1 0x40 MLOAD PUSH1 0x24 CALLDATALOAD DUP2 MSTORE PUSH1 0x1 PUSH1 0x1 PUSH1 0xA0 SHL SUB SWAP1 SWAP2 AND SWAP2 CALLER SWAP2 PUSH32 0x808C887919683A350ED55B3499F97ED7F4093ECC5E131FADB8B075A85457AF3A SWAP1 PUSH1 0x20 SWAP1 LOG4 STOP JUMPDEST DUP1 MLOAD DUP1 MLOAD SWAP1 PUSH1 0x1 PUSH1 0x1 PUSH1 0x40 SHL SUB DUP3 GT PUSH2 0xBB1 JUMPI PUSH2 0x1B7F DUP3 PUSH2 0xE0F DUP9 SLOAD PUSH2 0x2818 JUMP JUMPDEST PUSH1 0x20 SWAP1 PUSH1 0x1F DUP4 GT PUSH1 0x1 EQ PUSH2 0x1BCB JUMPI SWAP3 DUP3 PUSH1 0x1 SWAP5 SWAP4 PUSH1 0x20 SWAP4 DUP7 SWAP6 PUSH1 0x0 SWAP3 PUSH2 0x1BC0 JUMPI JUMPDEST POP POP PUSH1 0x0 NOT PUSH1 0x3 DUP4 SWAP1 SHL SHR NOT AND SWAP1 DUP5 SHL OR DUP8 SSTORE JUMPDEST ADD SWAP5 ADD SWAP2 ADD SWAP1 SWAP3 PUSH2 0x1A7A JUMP JUMPDEST ADD MLOAD SWAP1 POP DUP14 DUP1 PUSH2 0x1BA0 JUMP JUMPDEST SWAP1 DUP7 PUSH1 0x0 MSTORE PUSH1 0x20 PUSH1 0x0 KECCAK256 SWAP2 PUSH1 0x0 JUMPDEST PUSH1 0x1F NOT DUP6 AND DUP2 LT PUSH2 0x1C23 JUMPI POP DUP4 PUSH1 0x20 SWAP4 PUSH1 0x1 SWAP7 SWAP4 DUP8 SWAP7 SWAP4 DUP8 SWAP5 PUSH1 0x1F NOT DUP2 AND LT PUSH2 0x1C0A JUMPI JUMPDEST POP POP POP DUP2 SHL ADD DUP8 SSTORE PUSH2 0x1BB4 JUMP JUMPDEST ADD MLOAD PUSH1 0x0 NOT PUSH1 0xF8 DUP5 PUSH1 0x3 SHL AND SHR NOT AND SWAP1 SSTORE DUP14 DUP1 DUP1 PUSH2 0x1BFD JUMP JUMPDEST SWAP2 SWAP3 PUSH1 0x20 PUSH1 0x1 DUP2 SWAP3 DUP7 DUP6 ADD MLOAD DUP2 SSTORE ADD SWAP5 ADD SWAP3 ADD PUSH2 0x1BD9 JUMP JUMPDEST ADD MLOAD SWAP1 POP DUP7 DUP1 PUSH2 0x1A3A JUMP JUMPDEST SWAP3 POP PUSH1 0x7 DUP5 ADD PUSH1 0x0 MSTORE PUSH1 0x20 PUSH1 0x0 KECCAK256 SWAP1 PUSH1 0x0 SWAP4 JUMPDEST PUSH1 0x1F NOT DUP5 AND DUP6 LT PUSH2 0x1C9D JUMPI PUSH1 0x1 SWAP5 POP DUP4 PUSH1 0x1F NOT DUP2 AND LT PUSH2 0x1C84 JUMPI JUMPDEST POP POP POP DUP2 SHL ADD PUSH1 0x7 DUP3 ADD SSTORE PUSH2 0x1A52 JUMP JUMPDEST ADD MLOAD PUSH1 0x0 NOT PUSH1 0xF8 DUP5 PUSH1 0x3 SHL AND SHR NOT AND SWAP1 SSTORE DUP7 DUP1 DUP1 PUSH2 0x1C74 JUMP JUMPDEST DUP2 DUP2 ADD MLOAD DUP4 SSTORE PUSH1 0x20 SWAP5 DUP6 ADD SWAP5 PUSH1 0x1 SWAP1 SWAP4 ADD SWAP3 SWAP1 SWAP2 ADD SWAP1 PUSH2 0x1C59 JUMP JUMPDEST ADD MLOAD SWAP1 POP DUP7 DUP1 PUSH2 0x19DA JUMP JUMPDEST SWAP3 POP PUSH1 0x6 DUP5 ADD PUSH1 0x0 MSTORE PUSH1 0x20 PUSH1 0x0 KECCAK256 SWAP1 PUSH1 0x0 SWAP4 JUMPDEST PUSH1 0x1F NOT DUP5 AND DUP6 LT PUSH2 0x1D1A JUMPI PUSH1 0x1 SWAP5 POP DUP4 PUSH1 0x1F NOT DUP2 AND LT PUSH2 0x1D01 JUMPI JUMPDEST POP POP POP DUP2 SHL ADD PUSH1 0x6 DUP3 ADD SSTORE PUSH2 0x19F2 JUMP JUMPDEST ADD MLOAD PUSH1 0x0 NOT PUSH1 0xF8 DUP5 PUSH1 0x3 SHL AND SHR NOT AND SWAP1 SSTORE DUP7 DUP1 DUP1 PUSH2 0x1CF1 JUMP JUMPDEST DUP2 DUP2 ADD MLOAD DUP4 SSTORE PUSH1 0x20 SWAP5 DUP6 ADD SWAP5 PUSH1 0x1 SWAP1 SWAP4 ADD SWAP3 SWAP1 SWAP2 ADD SWAP1 PUSH2 0x1CD6 JUMP JUMPDEST DUP1 MLOAD DUP1 MLOAD SWAP1 PUSH1 0x1 PUSH1 0x1 PUSH1 0x40 SHL SUB DUP3 GT PUSH2 0xBB1 JUMPI PUSH2 0x1D56 DUP3 PUSH2 0xE0F DUP9 SLOAD PUSH2 0x2818 JUMP JUMPDEST PUSH1 0x20 SWAP1 PUSH1 0x1F DUP4 GT PUSH1 0x1 EQ PUSH2 0x1DA2 JUMPI SWAP3 DUP3 PUSH1 0x1 SWAP5 SWAP4 PUSH1 0x20 SWAP4 DUP7 SWAP6 PUSH1 0x0 SWAP3 PUSH2 0x1D97 JUMPI JUMPDEST POP POP PUSH1 0x0 NOT PUSH1 0x3 DUP4 SWAP1 SHL SHR NOT AND SWAP1 DUP5 SHL OR DUP8 SSTORE JUMPDEST ADD SWAP5 ADD SWAP2 ADD SWAP1 SWAP3 PUSH2 0x1969 JUMP JUMPDEST ADD MLOAD SWAP1 POP DUP14 DUP1 PUSH2 0x1D77 JUMP JUMPDEST SWAP1 DUP7 PUSH1 0x0 MSTORE PUSH1 0x20 PUSH1 0x0 KECCAK256 SWAP2 PUSH1 0x0 JUMPDEST PUSH1 0x1F NOT DUP6 AND DUP2 LT PUSH2 0x1DFA JUMPI POP DUP4 PUSH1 0x20 SWAP4 PUSH1 0x1 SWAP7 SWAP4 DUP8 SWAP7 SWAP4 DUP8 SWAP5 PUSH1 0x1F NOT DUP2 AND LT PUSH2 0x1DE1 JUMPI JUMPDEST POP POP POP DUP2 SHL ADD DUP8 SSTORE PUSH2 0x1D8B JUMP JUMPDEST ADD MLOAD PUSH1 0x0 NOT PUSH1 0xF8 DUP5 PUSH1 0x3 SHL AND SHR NOT AND SWAP1 SSTORE DUP14 DUP1 DUP1 PUSH2 0x1DD4 JUMP JUMPDEST SWAP2 SWAP3 PUSH1 0x20 PUSH1 0x1 DUP2 SWAP3 DUP7 DUP6 ADD MLOAD DUP2 SSTORE ADD SWAP5 ADD SWAP3 ADD PUSH2 0x1DB0 JUMP JUMPDEST ADD MLOAD SWAP1 POP DUP7 DUP1 PUSH2 0x192A JUMP JUMPDEST SWAP3 POP PUSH1 0x1 DUP5 ADD PUSH1 0x0 MSTORE PUSH1 0x20 PUSH1 0x0 KECCAK256 SWAP1 PUSH1 0x0 SWAP4 JUMPDEST PUSH1 0x1F NOT DUP5 AND DUP6 LT PUSH2 0x1E74 JUMPI PUSH1 0x1 SWAP5 POP DUP4 PUSH1 0x1F NOT DUP2 AND LT PUSH2 0x1E5B JUMPI JUMPDEST POP POP POP DUP2 SHL ADD PUSH1 0x1 DUP3 ADD SSTORE PUSH2 0x1942 JUMP JUMPDEST ADD MLOAD PUSH1 0x0 NOT PUSH1 0xF8 DUP5 PUSH1 0x3 SHL AND SHR NOT AND SWAP1 SSTORE DUP7 DUP1 DUP1 PUSH2 0x1E4B JUMP JUMPDEST DUP2 DUP2 ADD MLOAD DUP4 SSTORE PUSH1 0x20 SWAP5 DUP6 ADD SWAP5 PUSH1 0x1 SWAP1 SWAP4 ADD SWAP3 SWAP1 SWAP2 ADD SWAP1 PUSH2 0x1E30 JUMP JUMPDEST PUSH1 0x40 MLOAD PUSH3 0x461BCD PUSH1 0xE5 SHL DUP2 MSTORE PUSH1 0x20 PUSH1 0x4 DUP3 ADD MSTORE PUSH1 0x31 PUSH1 0x24 DUP3 ADD MSTORE PUSH32 0x5468652053746172742074696D65206D757374206265206561726C6965722074 PUSH1 0x44 DUP3 ADD MSTORE PUSH17 0x3430B7103A34329032B732103A34B6B297 PUSH1 0x79 SHL PUSH1 0x64 DUP3 ADD MSTORE PUSH1 0x84 SWAP1 REVERT JUMPDEST PUSH1 0x40 MLOAD PUSH3 0x461BCD PUSH1 0xE5 SHL DUP2 MSTORE PUSH1 0x20 PUSH1 0x4 DUP3 ADD MSTORE PUSH1 0x2D PUSH1 0x24 DUP3 ADD MSTORE PUSH32 0x546865204554482073656E7420646F6573206E6F74206D617463682074686520 PUSH1 0x44 DUP3 ADD MSTORE PUSH13 0x70726F6772616D207072696365 PUSH1 0x98 SHL PUSH1 0x64 DUP3 ADD MSTORE PUSH1 0x84 SWAP1 REVERT JUMPDEST CALLVALUE PUSH2 0x2CC JUMPI PUSH1 0x0 CALLDATASIZE PUSH1 0x3 NOT ADD SLT PUSH2 0x2CC JUMPI PUSH2 0x1F62 PUSH2 0x28F8 JUMP JUMPDEST PUSH1 0x0 DUP1 SLOAD PUSH1 0x1 PUSH1 0x1 PUSH1 0xA0 SHL SUB NOT DUP2 AND DUP3 SSTORE PUSH1 0x1 PUSH1 0x1 PUSH1 0xA0 SHL SUB AND PUSH32 0x8BE0079C531659141344CD1FD0A4F28419497F9722A3DAAFE3B4186F6B6457E0 DUP3 DUP1 LOG3 STOP JUMPDEST CALLVALUE PUSH2 0x2CC JUMPI PUSH1 0x20 CALLDATASIZE PUSH1 0x3 NOT ADD SLT PUSH2 0x2CC JUMPI PUSH32 0x8C4D35E54A3F2EF1134138FD8EA3DAEE6A3C89E10D2665996BABDF70261E2C76 PUSH1 0x20 PUSH1 0x4 CALLDATALOAD PUSH2 0x1FE1 PUSH2 0x28F8 JUMP JUMPDEST DUP1 PUSH1 0xA SSTORE PUSH1 0x40 MLOAD SWAP1 DUP2 MSTORE LOG1 STOP JUMPDEST CALLVALUE PUSH2 0x2CC JUMPI PUSH2 0x1FFC CALLDATASIZE PUSH2 0x25EE JUMP JUMPDEST SWAP1 PUSH1 0x0 MSTORE PUSH1 0x5 PUSH1 0x20 MSTORE PUSH1 0x40 PUSH1 0x0 KECCAK256 DUP1 SLOAD DUP3 LT ISZERO PUSH2 0x2CC JUMPI PUSH1 0x20 SWAP2 PUSH2 0x201F SWAP2 PUSH2 0x2651 JUMP JUMPDEST SWAP1 SLOAD PUSH1 0x40 MLOAD SWAP2 PUSH1 0x3 SHL SHR DUP2 MSTORE RETURN JUMPDEST CALLVALUE PUSH2 0x2CC JUMPI PUSH1 0x60 CALLDATASIZE PUSH1 0x3 NOT ADD SLT PUSH2 0x2CC JUMPI PUSH1 0x44 CALLDATALOAD DUP1 ISZERO ISZERO DUP2 SUB PUSH2 0x2CC JUMPI PUSH1 0x4 CALLDATALOAD PUSH1 0x0 MSTORE PUSH1 0x2 SWAP1 DUP2 PUSH1 0x20 MSTORE PUSH1 0x40 PUSH1 0x0 KECCAK256 SWAP2 PUSH2 0x2074 PUSH1 0x1 DUP1 PUSH1 0xA0 SHL SUB PUSH1 0xA DUP6 ADD SLOAD AND CALLER EQ PUSH2 0x2A4B JUMP JUMPDEST PUSH1 0x4 CALLDATALOAD PUSH1 0x0 MSTORE PUSH1 0x3 SWAP2 DUP3 PUSH1 0x20 MSTORE PUSH1 0x40 PUSH1 0x0 KECCAK256 SWAP3 PUSH1 0x0 SWAP4 PUSH1 0x0 JUMPDEST DUP2 SLOAD DUP2 LT ISZERO PUSH2 0x227B JUMPI PUSH2 0x20A0 DUP2 DUP4 PUSH2 0x27CC JUMP JUMPDEST POP SLOAD PUSH1 0x24 CALLDATALOAD EQ PUSH2 0x20B8 JUMPI PUSH2 0x20B3 SWAP1 PUSH2 0x2A3C JUMP JUMPDEST PUSH2 0x208D JUMP JUMPDEST DUP1 SWAP6 POP PUSH2 0x20C4 SWAP2 PUSH2 0x27CC JUMP JUMPDEST POP SWAP2 PUSH1 0x5 DUP4 ADD SLOAD SWAP2 PUSH1 0xFF DUP4 AND SWAP1 DUP2 LT ISZERO PUSH2 0xCAA JUMPI PUSH2 0x2242 JUMPI ISZERO PUSH2 0x222C JUMPI POP PUSH1 0xB DUP5 ADD SLOAD PUSH1 0x1 PUSH1 0x1 PUSH1 0xA0 SHL SUB AND PUSH2 0x21F4 JUMPI PUSH1 0x5 DUP2 DUP2 ADD DUP1 SLOAD PUSH1 0xFF NOT AND SWAP1 SWAP4 OR SWAP1 SWAP3 SSTORE PUSH1 0x1 ADD DUP1 SLOAD PUSH1 0xB DUP6 ADD DUP1 SLOAD PUSH1 0x1 PUSH1 0x1 PUSH1 0xA0 SHL SUB NOT AND PUSH1 0x1 PUSH1 0x1 PUSH1 0xA0 SHL SUB SWAP3 DUP4 AND OR SWAP1 SSTORE PUSH1 0xA SWAP1 SWAP5 ADD DUP1 SLOAD PUSH1 0xFF PUSH1 0xA0 SHL NOT AND PUSH1 0x1 PUSH1 0xA0 SHL OR SWAP1 SSTORE PUSH1 0x4 CALLDATALOAD PUSH1 0x0 DUP2 DUP2 MSTORE PUSH1 0x6 PUSH1 0x20 SWAP1 DUP2 MSTORE PUSH1 0x40 DUP1 DUP4 KECCAK256 SWAP7 SWAP1 SWAP7 SSTORE SWAP3 SLOAD SWAP4 DUP4 MSTORE DUP5 SWAP1 KECCAK256 DUP5 MLOAD PUSH1 0x24 CALLDATALOAD DUP2 MSTORE SWAP4 SWAP1 SWAP6 AND SWAP2 DUP4 ADD SWAP2 SWAP1 SWAP2 MSTORE PUSH1 0x60 SWAP3 DUP3 ADD DUP4 SWAP1 MSTORE SWAP3 PUSH32 0x284AA8037C280E35F0609D480C6B37226BB54C7482D25EFB48FFE0DCE5B6F083 SWAP3 DUP3 SWAP2 PUSH2 0x21A9 SWAP2 DUP4 ADD SWAP1 PUSH2 0x2B73 JUMP JUMPDEST SUB SWAP1 LOG2 JUMPDEST PUSH1 0x1 JUMPDEST ISZERO PUSH2 0x21B7 JUMPI STOP JUMPDEST PUSH1 0x40 MLOAD PUSH3 0x461BCD PUSH1 0xE5 SHL DUP2 MSTORE PUSH1 0x20 PUSH1 0x4 DUP3 ADD MSTORE PUSH1 0x15 PUSH1 0x24 DUP3 ADD MSTORE PUSH21 0x105C1C1B1A58D85D1A5BDB881B9BDD08199BDD5B99 PUSH1 0x5A SHL PUSH1 0x44 DUP3 ADD MSTORE PUSH1 0x64 SWAP1 REVERT JUMPDEST PUSH1 0x40 MLOAD PUSH3 0x461BCD PUSH1 0xE5 SHL DUP2 MSTORE PUSH1 0x20 PUSH1 0x4 DUP3 ADD MSTORE PUSH1 0x10 PUSH1 0x24 DUP3 ADD MSTORE PUSH16 0x105B1C9958591E481CD95B1958DD1959 PUSH1 0x82 SHL PUSH1 0x44 DUP3 ADD MSTORE PUSH1 0x64 SWAP1 REVERT JUMPDEST PUSH1 0xFF NOT AND PUSH1 0x1 OR PUSH1 0x5 SWAP1 SWAP2 ADD SSTORE POP PUSH2 0x21AD SWAP2 POP POP JUMP JUMPDEST PUSH1 0x40 MLOAD PUSH3 0x461BCD PUSH1 0xE5 SHL DUP2 MSTORE PUSH1 0x20 PUSH1 0x4 DUP3 ADD MSTORE PUSH1 0x11 PUSH1 0x24 DUP3 ADD MSTORE PUSH17 0x105B1C9958591E48195D985B1D585D1959 PUSH1 0x7A SHL PUSH1 0x44 DUP3 ADD MSTORE PUSH1 0x64 SWAP1 REVERT JUMPDEST POP POP POP POP POP SWAP1 POP PUSH2 0x21B0 JUMP JUMPDEST CALLVALUE PUSH2 0x2CC JUMPI PUSH1 0x20 DUP1 PUSH1 0x3 NOT CALLDATASIZE ADD SLT PUSH2 0x2CC JUMPI PUSH2 0x22F0 PUSH1 0x4 CALLDATALOAD SWAP2 DUP3 PUSH1 0x0 MSTORE PUSH1 0x5 SWAP1 DUP2 DUP2 MSTORE PUSH2 0x22C1 PUSH2 0x22C8 PUSH1 0x40 PUSH1 0x0 KECCAK256 PUSH1 0x40 MLOAD SWAP3 DUP4 DUP1 SWAP3 PUSH2 0x2B73 JUMP JUMPDEST SUB DUP3 PUSH2 0x269A JUMP JUMPDEST DUP1 MLOAD SWAP5 PUSH2 0x22D4 DUP7 PUSH2 0x272B JUMP JUMPDEST SWAP6 PUSH2 0x22E2 PUSH1 0x40 MLOAD SWAP8 DUP9 PUSH2 0x269A JUMP JUMPDEST DUP1 DUP8 MSTORE PUSH1 0x1F NOT SWAP6 DUP7 SWAP2 PUSH2 0x272B JUMP JUMPDEST ADD DUP4 PUSH1 0x0 JUMPDEST DUP3 DUP2 LT PUSH2 0x250E JUMPI POP POP POP PUSH1 0x0 JUMPDEST DUP3 MLOAD DUP2 LT ISZERO PUSH2 0x2405 JUMPI DUP2 PUSH1 0x0 MSTORE PUSH1 0x4 DUP5 MSTORE PUSH1 0x40 PUSH1 0x0 KECCAK256 PUSH2 0x2322 DUP3 DUP6 PUSH2 0x2B5F JUMP JUMPDEST MLOAD PUSH1 0x0 MSTORE DUP5 MSTORE PUSH1 0x40 PUSH1 0x0 KECCAK256 PUSH1 0x40 MLOAD SWAP1 PUSH2 0x233A DUP3 PUSH2 0x267F JUMP JUMPDEST DUP1 SLOAD DUP3 MSTORE PUSH1 0x1 SWAP1 PUSH2 0x234C DUP3 DUP3 ADD PUSH2 0x2852 JUMP JUMPDEST DUP8 DUP5 ADD MSTORE PUSH2 0x235C PUSH1 0x2 DUP3 ADD PUSH2 0x2852 JUMP JUMPDEST PUSH1 0x40 DUP5 ADD MSTORE PUSH1 0x3 DUP2 ADD SLOAD PUSH1 0x60 DUP5 ADD MSTORE PUSH1 0xFF PUSH1 0x4 DUP3 ADD SLOAD AND SWAP1 PUSH1 0x4 DUP3 LT ISZERO PUSH2 0xCAA JUMPI DUP9 SWAP2 PUSH1 0x80 DUP6 ADD MSTORE ADD SWAP1 DUP2 SLOAD PUSH2 0x2391 DUP2 PUSH2 0x272B JUMP JUMPDEST SWAP3 PUSH2 0x239F PUSH1 0x40 MLOAD SWAP5 DUP6 PUSH2 0x269A JUMP JUMPDEST DUP2 DUP5 MSTORE PUSH1 0x0 SWAP1 DUP2 MSTORE DUP9 DUP2 KECCAK256 SWAP1 DUP10 DUP1 DUP7 ADD JUMPDEST DUP5 DUP4 LT PUSH2 0x23E8 JUMPI POP POP POP POP POP POP SWAP1 PUSH2 0x23E3 SWAP3 SWAP2 PUSH1 0xA0 DUP3 ADD MSTORE PUSH2 0x23D2 DUP3 DUP11 PUSH2 0x2B5F JUMP JUMPDEST MSTORE PUSH2 0x23DD DUP2 DUP10 PUSH2 0x2B5F JUMP JUMPDEST POP PUSH2 0x2A3C JUMP JUMPDEST PUSH2 0x2302 JUMP JUMPDEST DUP6 SWAP2 DUP3 SWAP2 PUSH2 0x23F5 DUP7 PUSH2 0x2852 JUMP JUMPDEST DUP2 MSTORE ADD SWAP4 ADD SWAP2 ADD SWAP1 SWAP2 DUP11 SWAP1 PUSH2 0x23B0 JUMP JUMPDEST POP POP POP SWAP2 SWAP3 SWAP1 PUSH1 0x40 MLOAD SWAP3 DUP1 DUP5 ADD SWAP2 DUP2 DUP6 MSTORE DUP4 MLOAD DUP1 SWAP4 MSTORE PUSH1 0x40 DUP6 ADD DUP3 PUSH1 0x40 DUP6 DUP5 SHL DUP9 ADD ADD SWAP6 ADD SWAP7 PUSH1 0x0 SWAP3 JUMPDEST DUP6 DUP5 LT PUSH2 0x243C JUMPI DUP8 DUP8 SUB DUP9 RETURN JUMPDEST SWAP1 SWAP2 SWAP3 SWAP4 DUP1 SWAP6 SWAP7 PUSH1 0x3F NOT DUP10 DUP3 SUB ADD DUP6 MSTORE DUP10 MLOAD SWAP1 DUP2 MLOAD DUP2 MSTORE PUSH2 0x247E PUSH2 0x246C DUP5 DUP5 ADD MLOAD PUSH1 0xC0 DUP1 DUP8 DUP7 ADD MSTORE DUP5 ADD SWAP1 PUSH2 0x2604 JUMP JUMPDEST PUSH1 0x40 DUP5 ADD MLOAD DUP4 DUP3 SUB PUSH1 0x40 DUP6 ADD MSTORE PUSH2 0x2604 JUMP JUMPDEST SWAP1 PUSH1 0x60 DUP1 DUP5 ADD MLOAD SWAP1 DUP3 ADD MSTORE PUSH2 0x249B PUSH1 0x80 DUP1 DUP6 ADD MLOAD SWAP1 DUP4 ADD SWAP1 PUSH2 0x2644 JUMP JUMPDEST PUSH1 0xA0 DUP1 SWAP4 ADD MLOAD SWAP3 DUP2 DUP4 SUB SWAP2 ADD MSTORE DUP2 MLOAD DUP1 DUP3 MSTORE DUP4 DUP3 ADD SWAP1 DUP5 DUP1 DUP3 DUP9 SHL DUP6 ADD ADD SWAP5 ADD SWAP3 PUSH1 0x0 JUMPDEST DUP3 DUP2 LT PUSH2 0x24E2 JUMPI POP POP POP POP POP SWAP1 DUP1 PUSH1 0x1 SWAP3 SWAP11 ADD SWAP5 ADD SWAP5 ADD SWAP3 SWAP8 SWAP6 SWAP5 SWAP4 SWAP2 SWAP1 PUSH2 0x242F JUMP JUMPDEST SWAP2 SWAP4 SWAP6 DUP1 PUSH2 0x24FC DUP8 DUP12 DUP6 PUSH1 0x1 SWAP7 SWAP9 SWAP11 SUB ADD DUP10 MSTORE DUP10 MLOAD PUSH2 0x2604 JUMP JUMPDEST SWAP8 ADD SWAP6 ADD SWAP2 ADD SWAP2 DUP11 SWAP6 SWAP5 SWAP4 SWAP2 SWAP3 PUSH2 0x24BF JUMP JUMPDEST PUSH1 0x40 MLOAD PUSH2 0x251A DUP2 PUSH2 0x267F JUMP JUMPDEST PUSH1 0x0 DUP2 MSTORE PUSH1 0x60 DUP1 DUP5 DUP4 ADD MSTORE DUP1 PUSH1 0x40 DUP4 ADD MSTORE PUSH1 0x0 DUP2 DUP4 ADD MSTORE PUSH1 0x0 PUSH1 0x80 DUP4 ADD MSTORE PUSH1 0xA0 DUP3 ADD MSTORE DUP3 DUP3 DUP12 ADD ADD MSTORE ADD DUP5 SWAP1 PUSH2 0x22F5 JUMP JUMPDEST CALLVALUE PUSH2 0x2CC JUMPI PUSH2 0x2559 CALLDATASIZE PUSH2 0x25EE JUMP JUMPDEST DUP2 PUSH1 0x0 MSTORE PUSH1 0x2 PUSH1 0x20 MSTORE PUSH2 0x257D PUSH1 0x1 DUP1 PUSH1 0xA0 SHL SUB PUSH1 0xA PUSH1 0x40 PUSH1 0x0 KECCAK256 ADD SLOAD AND CALLER EQ PUSH2 0x2A4B JUMP JUMPDEST DUP2 PUSH1 0x0 MSTORE PUSH1 0x4 PUSH1 0x20 MSTORE PUSH1 0x40 PUSH1 0x0 KECCAK256 DUP2 PUSH1 0x0 MSTORE PUSH1 0x20 MSTORE PUSH1 0x4 PUSH1 0x40 PUSH1 0x0 KECCAK256 ADD SWAP1 DUP2 SLOAD SWAP1 PUSH1 0xFF DUP3 AND SWAP3 PUSH1 0x4 DUP5 LT ISZERO PUSH2 0xCAA JUMPI PUSH1 0x3 PUSH1 0x20 SWAP4 PUSH2 0x25DE PUSH1 0x1 PUSH32 0x4E2FD11F84344693B41D2ABA9910E33B34A4F02D4D3A65B65B2201F3C8FA3C89 SWAP8 EQ PUSH2 0x2BB0 JUMP JUMPDEST PUSH1 0xFF NOT AND OR SWAP1 SSTORE PUSH1 0x40 MLOAD SWAP1 DUP2 MSTORE LOG2 STOP JUMPDEST PUSH1 0x40 SWAP1 PUSH1 0x3 NOT ADD SLT PUSH2 0x2CC JUMPI PUSH1 0x4 CALLDATALOAD SWAP1 PUSH1 0x24 CALLDATALOAD SWAP1 JUMP JUMPDEST SWAP2 SWAP1 DUP3 MLOAD SWAP3 DUP4 DUP3 MSTORE PUSH1 0x0 JUMPDEST DUP5 DUP2 LT PUSH2 0x2630 JUMPI POP POP DUP3 PUSH1 0x0 PUSH1 0x20 DUP1 SWAP5 SWAP6 DUP5 ADD ADD MSTORE PUSH1 0x1F DUP1 NOT SWAP2 ADD AND ADD ADD SWAP1 JUMP JUMPDEST PUSH1 0x20 DUP2 DUP4 ADD DUP2 ADD MLOAD DUP5 DUP4 ADD DUP3 ADD MSTORE ADD PUSH2 0x260F JUMP JUMPDEST SWAP1 PUSH1 0x4 DUP3 LT ISZERO PUSH2 0xCAA JUMPI MSTORE JUMP JUMPDEST DUP1 SLOAD DUP3 LT ISZERO PUSH2 0x2669 JUMPI PUSH1 0x0 MSTORE PUSH1 0x20 PUSH1 0x0 KECCAK256 ADD SWAP1 PUSH1 0x0 SWAP1 JUMP JUMPDEST PUSH4 0x4E487B71 PUSH1 0xE0 SHL PUSH1 0x0 MSTORE PUSH1 0x32 PUSH1 0x4 MSTORE PUSH1 0x24 PUSH1 0x0 REVERT JUMPDEST PUSH1 0xC0 DUP2 ADD SWAP1 DUP2 LT PUSH1 0x1 PUSH1 0x1 PUSH1 0x40 SHL SUB DUP3 GT OR PUSH2 0xBB1 JUMPI PUSH1 0x40 MSTORE JUMP JUMPDEST SWAP1 PUSH1 0x1F DUP1 NOT SWAP2 ADD AND DUP2 ADD SWAP1 DUP2 LT PUSH1 0x1 PUSH1 0x1 PUSH1 0x40 SHL SUB DUP3 GT OR PUSH2 0xBB1 JUMPI PUSH1 0x40 MSTORE JUMP JUMPDEST PUSH1 0x1 PUSH1 0x1 PUSH1 0x40 SHL SUB DUP2 GT PUSH2 0xBB1 JUMPI PUSH1 0x1F ADD PUSH1 0x1F NOT AND PUSH1 0x20 ADD SWAP1 JUMP JUMPDEST SWAP3 SWAP2 SWAP3 PUSH2 0x26E2 DUP3 PUSH2 0x26BB JUMP JUMPDEST SWAP2 PUSH2 0x26F0 PUSH1 0x40 MLOAD SWAP4 DUP5 PUSH2 0x269A JUMP JUMPDEST DUP3 SWAP5 DUP2 DUP5 MSTORE DUP2 DUP4 ADD GT PUSH2 0x2CC JUMPI DUP3 DUP2 PUSH1 0x20 SWAP4 DUP5 PUSH1 0x0 SWAP7 ADD CALLDATACOPY ADD ADD MSTORE JUMP JUMPDEST SWAP1 DUP1 PUSH1 0x1F DUP4 ADD SLT ISZERO PUSH2 0x2CC JUMPI DUP2 PUSH1 0x20 PUSH2 0x2728 SWAP4 CALLDATALOAD SWAP2 ADD PUSH2 0x26D6 JUMP JUMPDEST SWAP1 JUMP JUMPDEST PUSH1 0x1 PUSH1 0x1 PUSH1 0x40 SHL SUB DUP2 GT PUSH2 0xBB1 JUMPI PUSH1 0x5 SHL PUSH1 0x20 ADD SWAP1 JUMP JUMPDEST SWAP3 SWAP2 SWAP1 SWAP3 PUSH2 0x274F DUP5 PUSH2 0x272B JUMP JUMPDEST SWAP2 PUSH2 0x275D PUSH1 0x40 MLOAD SWAP4 DUP5 PUSH2 0x269A JUMP JUMPDEST DUP3 SWAP5 DUP1 DUP5 MSTORE PUSH1 0x20 DUP1 SWAP5 ADD SWAP1 PUSH1 0x5 SHL DUP4 ADD SWAP3 DUP3 DUP5 GT PUSH2 0x2CC JUMPI DUP1 SWAP2 JUMPDEST DUP5 DUP4 LT PUSH2 0x2787 JUMPI POP POP POP POP POP POP JUMP JUMPDEST DUP3 CALLDATALOAD PUSH1 0x1 PUSH1 0x1 PUSH1 0x40 SHL SUB DUP2 GT PUSH2 0x2CC JUMPI DUP7 SWAP2 PUSH2 0x27A6 DUP7 DUP5 SWAP4 DUP7 ADD PUSH2 0x270D JUMP JUMPDEST DUP2 MSTORE ADD SWAP3 ADD SWAP2 PUSH2 0x2778 JUMP JUMPDEST SWAP1 DUP1 PUSH1 0x1F DUP4 ADD SLT ISZERO PUSH2 0x2CC JUMPI DUP2 PUSH1 0x20 PUSH2 0x2728 SWAP4 CALLDATALOAD SWAP2 ADD PUSH2 0x2742 JUMP JUMPDEST DUP1 SLOAD DUP3 LT ISZERO PUSH2 0x2669 JUMPI PUSH1 0x0 MSTORE PUSH1 0x6 PUSH1 0x20 PUSH1 0x0 KECCAK256 SWAP2 MUL ADD SWAP1 PUSH1 0x0 SWAP1 JUMP JUMPDEST SWAP2 DUP2 PUSH1 0x1F DUP5 ADD SLT ISZERO PUSH2 0x2CC JUMPI DUP3 CALLDATALOAD SWAP2 PUSH1 0x1 PUSH1 0x1 PUSH1 0x40 SHL SUB DUP4 GT PUSH2 0x2CC JUMPI PUSH1 0x20 DUP1 DUP6 ADD SWAP5 DUP5 PUSH1 0x5 SHL ADD ADD GT PUSH2 0x2CC JUMPI JUMP JUMPDEST SWAP1 PUSH1 0x1 DUP3 DUP2 SHR SWAP3 AND DUP1 ISZERO PUSH2 0x2848 JUMPI JUMPDEST PUSH1 0x20 DUP4 LT EQ PUSH2 0x2832 JUMPI JUMP JUMPDEST PUSH4 0x4E487B71 PUSH1 0xE0 SHL PUSH1 0x0 MSTORE PUSH1 0x22 PUSH1 0x4 MSTORE PUSH1 0x24 PUSH1 0x0 REVERT JUMPDEST SWAP2 PUSH1 0x7F AND SWAP2 PUSH2 0x2827 JUMP JUMPDEST SWAP1 PUSH1 0x40 MLOAD SWAP2 DUP3 PUSH1 0x0 DUP3 SLOAD SWAP3 PUSH2 0x2866 DUP5 PUSH2 0x2818 JUMP JUMPDEST SWAP1 DUP2 DUP5 MSTORE PUSH1 0x1 SWAP5 DUP6 DUP2 AND SWAP1 DUP2 PUSH1 0x0 EQ PUSH2 0x28D5 JUMPI POP PUSH1 0x1 EQ PUSH2 0x2892 JUMPI JUMPDEST POP POP PUSH2 0x2890 SWAP3 POP SUB DUP4 PUSH2 0x269A JUMP JUMPDEST JUMP JUMPDEST SWAP1 SWAP4 SWAP2 POP PUSH1 0x0 MSTORE PUSH1 0x20 SWAP1 DUP2 PUSH1 0x0 KECCAK256 SWAP4 PUSH1 0x0 SWAP2 JUMPDEST DUP2 DUP4 LT PUSH2 0x28BD JUMPI POP POP PUSH2 0x2890 SWAP4 POP DUP3 ADD ADD CODESIZE DUP1 PUSH2 0x2882 JUMP JUMPDEST DUP6 SLOAD DUP9 DUP5 ADD DUP6 ADD MSTORE SWAP5 DUP6 ADD SWAP5 DUP8 SWAP5 POP SWAP2 DUP4 ADD SWAP2 PUSH2 0x28A5 JUMP JUMPDEST SWAP2 POP POP PUSH2 0x2890 SWAP5 POP PUSH1 0x20 SWAP3 POP PUSH1 0xFF NOT AND DUP3 DUP5 ADD MSTORE ISZERO ISZERO PUSH1 0x5 SHL DUP3 ADD ADD CODESIZE DUP1 PUSH2 0x2882 JUMP JUMPDEST PUSH1 0x0 SLOAD PUSH1 0x1 PUSH1 0x1 PUSH1 0xA0 SHL SUB AND CALLER SUB PUSH2 0x290C JUMPI JUMP JUMPDEST PUSH1 0x64 PUSH1 0x40 MLOAD PUSH3 0x461BCD PUSH1 0xE5 SHL DUP2 MSTORE PUSH1 0x20 PUSH1 0x4 DUP3 ADD MSTORE PUSH1 0x20 PUSH1 0x24 DUP3 ADD MSTORE PUSH32 0x4F776E61626C653A2063616C6C6572206973206E6F7420746865206F776E6572 PUSH1 0x44 DUP3 ADD MSTORE REVERT JUMPDEST DUP2 DUP2 LT PUSH2 0x295B JUMPI POP POP JUMP JUMPDEST PUSH1 0x0 DUP2 SSTORE PUSH1 0x1 ADD PUSH2 0x2950 JUMP JUMPDEST SWAP2 SWAP1 PUSH1 0x1F DUP2 GT PUSH2 0x2976 JUMPI POP POP POP JUMP JUMPDEST PUSH2 0x2890 SWAP3 PUSH1 0x0 MSTORE PUSH1 0x20 PUSH1 0x0 KECCAK256 SWAP1 PUSH1 0x20 PUSH1 0x1F DUP5 ADD PUSH1 0x5 SHR DUP4 ADD SWAP4 LT PUSH2 0x29A2 JUMPI JUMPDEST PUSH1 0x1F ADD PUSH1 0x5 SHR ADD SWAP1 PUSH2 0x2950 JUMP JUMPDEST SWAP1 SWAP2 POP DUP2 SWAP1 PUSH2 0x2995 JUMP JUMPDEST PUSH1 0x1 PUSH1 0x40 SHL DUP3 GT PUSH2 0xBB1 JUMPI DUP1 SLOAD SWAP2 DUP1 DUP3 SSTORE DUP3 DUP2 LT PUSH2 0x29C9 JUMPI POP POP POP JUMP JUMPDEST PUSH1 0x0 SWAP2 DUP3 MSTORE PUSH1 0x20 SWAP1 DUP2 DUP4 KECCAK256 SWAP4 DUP5 ADD SWAP4 ADD JUMPDEST DUP4 DUP2 LT PUSH2 0x29E7 JUMPI POP POP POP POP JUMP JUMPDEST DUP1 DUP4 PUSH2 0x29F5 PUSH1 0x1 SWAP4 SLOAD PUSH2 0x2818 JUMP JUMPDEST DUP1 PUSH2 0x2A03 JUMPI JUMPDEST POP POP ADD PUSH2 0x29DA JUMP JUMPDEST PUSH1 0x1F DUP1 DUP3 GT DUP6 EQ PUSH2 0x2A1A JUMPI POP POP DUP2 SSTORE JUMPDEST DUP4 CODESIZE PUSH2 0x29FB JUMP JUMPDEST PUSH2 0x2A33 SWAP1 DUP5 DUP5 MSTORE DUP7 DUP5 KECCAK256 SWAP3 ADD PUSH1 0x5 SHR DUP3 ADD DUP6 DUP4 ADD PUSH2 0x2950 JUMP JUMPDEST DUP2 DUP4 SSTORE SSTORE PUSH2 0x2A13 JUMP JUMPDEST PUSH1 0x0 NOT DUP2 EQ PUSH2 0x103D JUMPI PUSH1 0x1 ADD SWAP1 JUMP JUMPDEST ISZERO PUSH2 0x2A52 JUMPI JUMP JUMPDEST PUSH1 0x40 MLOAD PUSH3 0x461BCD PUSH1 0xE5 SHL DUP2 MSTORE PUSH1 0x20 PUSH1 0x4 DUP3 ADD MSTORE PUSH1 0xD PUSH1 0x24 DUP3 ADD MSTORE PUSH13 0x2737BA103B30B634B230BA37B9 PUSH1 0x99 SHL PUSH1 0x44 DUP3 ADD MSTORE PUSH1 0x64 SWAP1 REVERT JUMPDEST ISZERO PUSH2 0x2A8E JUMPI JUMP JUMPDEST PUSH1 0x40 MLOAD PUSH3 0x461BCD PUSH1 0xE5 SHL DUP2 MSTORE PUSH1 0x20 PUSH1 0x4 DUP3 ADD MSTORE PUSH1 0xD PUSH1 0x24 DUP3 ADD MSTORE PUSH13 0x141C9BD9DC985B48195B991959 PUSH1 0x9A SHL PUSH1 0x44 DUP3 ADD MSTORE PUSH1 0x64 SWAP1 REVERT JUMPDEST ISZERO PUSH2 0x2ACA JUMPI JUMP JUMPDEST PUSH1 0x40 MLOAD PUSH3 0x461BCD PUSH1 0xE5 SHL DUP2 MSTORE PUSH1 0x20 PUSH1 0x4 DUP3 ADD MSTORE PUSH1 0x10 PUSH1 0x24 DUP3 ADD MSTORE PUSH16 0x105B1C9958591E48185C1C1C9BDD9959 PUSH1 0x82 SHL PUSH1 0x44 DUP3 ADD MSTORE PUSH1 0x64 SWAP1 REVERT JUMPDEST SWAP2 SWAP1 DUP2 LT ISZERO PUSH2 0x2669 JUMPI PUSH1 0x5 SHL ADD SWAP1 JUMP JUMPDEST SWAP1 CALLDATALOAD SWAP1 PUSH1 0x1E NOT DUP2 CALLDATASIZE SUB ADD DUP3 SLT ISZERO PUSH2 0x2CC JUMPI ADD DUP1 CALLDATALOAD SWAP1 PUSH1 0x1 PUSH1 0x1 PUSH1 0x40 SHL SUB DUP3 GT PUSH2 0x2CC JUMPI PUSH1 0x20 ADD SWAP2 DUP2 CALLDATASIZE SUB DUP4 SGT PUSH2 0x2CC JUMPI JUMP JUMPDEST SWAP1 DUP3 LT ISZERO PUSH2 0x2669 JUMPI PUSH2 0x2B5B SWAP2 PUSH1 0x5 SHL DUP2 ADD SWAP1 PUSH2 0x2B12 JUMP JUMPDEST SWAP1 SWAP2 JUMP JUMPDEST DUP1 MLOAD DUP3 LT ISZERO PUSH2 0x2669 JUMPI PUSH1 0x20 SWAP2 PUSH1 0x5 SHL ADD ADD SWAP1 JUMP JUMPDEST SWAP1 DUP2 SLOAD DUP1 DUP3 MSTORE PUSH1 0x20 DUP1 SWAP3 ADD SWAP3 PUSH1 0x0 MSTORE DUP2 PUSH1 0x0 KECCAK256 SWAP2 PUSH1 0x0 SWAP1 JUMPDEST DUP3 DUP3 LT PUSH2 0x2B99 JUMPI POP POP POP POP SWAP1 JUMP JUMPDEST DUP4 SLOAD DUP6 MSTORE SWAP4 DUP5 ADD SWAP4 PUSH1 0x1 SWAP4 DUP5 ADD SWAP4 SWAP1 SWAP2 ADD SWAP1 PUSH2 0x2B8B JUMP JUMPDEST ISZERO PUSH2 0x2BB7 JUMPI JUMP JUMPDEST PUSH1 0x40 MLOAD PUSH3 0x461BCD PUSH1 0xE5 SHL DUP2 MSTORE PUSH1 0x20 PUSH1 0x4 DUP3 ADD MSTORE PUSH1 0xE PUSH1 0x24 DUP3 ADD MSTORE PUSH14 0x496E76616C696420737461747573 PUSH1 0x90 SHL PUSH1 0x44 DUP3 ADD MSTORE PUSH1 0x64 SWAP1 REVERT JUMPDEST PUSH1 0x2 PUSH1 0x1 SLOAD EQ PUSH2 0x2BFE JUMPI PUSH1 0x2 PUSH1 0x1 SSTORE JUMP JUMPDEST PUSH1 0x40 MLOAD PUSH3 0x461BCD PUSH1 0xE5 SHL DUP2 MSTORE PUSH1 0x20 PUSH1 0x4 DUP3 ADD MSTORE PUSH1 0x1F PUSH1 0x24 DUP3 ADD MSTORE PUSH32 0x5265656E7472616E637947756172643A207265656E7472616E742063616C6C00 PUSH1 0x44 DUP3 ADD MSTORE PUSH1 0x64 SWAP1 REVERT INVALID LOG2 PUSH5 0x6970667358 0x22 SLT KECCAK256 0xAE SWAP8 PUSH27 0x61818ADBF55BFFD448E7192581C41029C2E06021EFB0F21F446AE1 PUSH12 0xC64736F6C63430008140033 "},"methodIdentifiers":{"acceptMilestone(uint256,uint256)":"93eb1026","approveProgram(uint256)":"b0d456ac","createEduProgram(string,uint256,string[],uint256,uint256,address,string,string,string[])":"78ea19b0","eduPrograms(uint256)":"d613fd24","getFee()":"ced72f87","getMilestones(uint256)":"42c549c0","milestoneIds(uint256,uint256)":"544aabd0","nextApplicationId(uint256)":"a1a57296","nextMilestoneId(uint256)":"83472f5b","nextProgramId()":"ba71b330","owner()":"8da5cb5b","programApplications(uint256,uint256)":"7d5cae03","programMilestones(uint256,uint256)":"d201593f","reclaimFunds(uint256)":"f9f161a8","rejectMilestone(uint256,uint256)":"3abe6bd7","renounceOwnership()":"715018a6","selectApplication(uint256,uint256,bool)":"4942ec02","selectedApplicationIndex(uint256)":"f6c78263","setFee(uint256)":"69fe0e2d","submitApplication(uint256,string[],string[],uint256[])":"a112ed4e","submitMilestone(uint256,uint256,string[])":"9e57d589","transferOwnership(address)":"f2fde38b","updateProgram(uint256,uint256,uint256,uint256,address)":"89001eb1"}}}}}