{
	"contracts/LdEduProgram.sol": {
		"LdEduProgram": {
			"abi": [
				{
					"inputs": [
						{
							"internalType": "address",
							"name": "initialOwner",
							"type": "address"
						}
					],
					"stateMutability": "nonpayable",
					"type": "constructor"
				},
				{
					"anonymous": false,
					"inputs": [
						{
							"indexed": false,
							"internalType": "uint256",
							"name": "newFee",
							"type": "uint256"
						}
					],
					"name": "FeeUpdated",
					"type": "event"
				},
				{
					"anonymous": false,
					"inputs": [
						{
							"indexed": true,
							"internalType": "uint256",
							"name": "id",
							"type": "uint256"
						},
						{
							"indexed": false,
							"internalType": "address",
							"name": "maker",
							"type": "address"
						},
						{
							"indexed": false,
							"internalType": "uint256",
							"name": "amount",
							"type": "uint256"
						},
						{
							"indexed": false,
							"internalType": "address",
							"name": "token",
							"type": "address"
						}
					],
					"name": "FundsReclaimed",
					"type": "event"
				},
				{
					"anonymous": false,
					"inputs": [
						{
							"indexed": true,
							"internalType": "uint256",
							"name": "programId",
							"type": "uint256"
						},
						{
							"indexed": true,
							"internalType": "string",
							"name": "milestoneId",
							"type": "string"
						},
						{
							"indexed": true,
							"internalType": "address",
							"name": "builder",
							"type": "address"
						},
						{
							"indexed": false,
							"internalType": "uint256",
							"name": "reward",
							"type": "uint256"
						},
						{
							"indexed": false,
							"internalType": "address",
							"name": "token",
							"type": "address"
						}
					],
					"name": "MilestoneAccepted",
					"type": "event"
				},
				{
					"anonymous": false,
					"inputs": [
						{
							"indexed": true,
							"internalType": "address",
							"name": "previousOwner",
							"type": "address"
						},
						{
							"indexed": true,
							"internalType": "address",
							"name": "newOwner",
							"type": "address"
						}
					],
					"name": "OwnershipTransferred",
					"type": "event"
				},
				{
					"anonymous": false,
					"inputs": [
						{
							"indexed": true,
							"internalType": "uint256",
							"name": "id",
							"type": "uint256"
						},
						{
							"indexed": true,
							"internalType": "address",
							"name": "maker",
							"type": "address"
						},
						{
							"indexed": true,
							"internalType": "address",
							"name": "validator",
							"type": "address"
						},
						{
							"indexed": false,
							"internalType": "uint256",
							"name": "price",
							"type": "uint256"
						},
						{
							"indexed": false,
							"internalType": "address",
							"name": "token",
							"type": "address"
						}
					],
					"name": "ProgramCreated",
					"type": "event"
				},
				{
					"anonymous": false,
					"inputs": [
						{
							"indexed": false,
							"internalType": "uint256",
							"name": "programId",
							"type": "uint256"
						},
						{
							"indexed": false,
							"internalType": "uint256",
							"name": "price",
							"type": "uint256"
						},
						{
							"indexed": false,
							"internalType": "uint256",
							"name": "startTime",
							"type": "uint256"
						},
						{
							"indexed": false,
							"internalType": "uint256",
							"name": "endTime",
							"type": "uint256"
						},
						{
							"indexed": false,
							"internalType": "address",
							"name": "newValidator",
							"type": "address"
						}
					],
					"name": "ProgramEdited",
					"type": "event"
				},
				{
					"anonymous": false,
					"inputs": [
						{
							"indexed": false,
							"internalType": "address",
							"name": "token",
							"type": "address"
						},
						{
							"indexed": false,
							"internalType": "bool",
							"name": "status",
							"type": "bool"
						}
					],
					"name": "TokenWhitelisted",
					"type": "event"
				},
				{
					"inputs": [],
					"name": "ETH_ADDRESS",
					"outputs": [
						{
							"internalType": "address",
							"name": "",
							"type": "address"
						}
					],
					"stateMutability": "view",
					"type": "function"
				},
				{
					"inputs": [
						{
							"internalType": "uint256",
							"name": "programId",
							"type": "uint256"
						},
						{
							"internalType": "string",
							"name": "milestoneId",
							"type": "string"
						},
						{
							"internalType": "address",
							"name": "builder",
							"type": "address"
						},
						{
							"internalType": "uint256",
							"name": "reward",
							"type": "uint256"
						}
					],
					"name": "acceptMilestone",
					"outputs": [],
					"stateMutability": "nonpayable",
					"type": "function"
				},
				{
					"inputs": [
						{
							"internalType": "string",
							"name": "_name",
							"type": "string"
						},
						{
							"internalType": "uint256",
							"name": "_price",
							"type": "uint256"
						},
						{
							"internalType": "string[]",
							"name": "_keywords",
							"type": "string[]"
						},
						{
							"internalType": "uint256",
							"name": "_startTime",
							"type": "uint256"
						},
						{
							"internalType": "uint256",
							"name": "_endTime",
							"type": "uint256"
						},
						{
							"internalType": "address",
							"name": "_validator",
							"type": "address"
						},
						{
							"internalType": "string",
							"name": "_summary",
							"type": "string"
						},
						{
							"internalType": "string",
							"name": "_description",
							"type": "string"
						},
						{
							"internalType": "string[]",
							"name": "_links",
							"type": "string[]"
						},
						{
							"internalType": "address",
							"name": "_token",
							"type": "address"
						}
					],
					"name": "createEduProgram",
					"outputs": [],
					"stateMutability": "payable",
					"type": "function"
				},
				{
					"inputs": [
						{
							"internalType": "uint256",
							"name": "",
							"type": "uint256"
						}
					],
					"name": "eduPrograms",
					"outputs": [
						{
							"internalType": "uint256",
							"name": "id",
							"type": "uint256"
						},
						{
							"internalType": "string",
							"name": "name",
							"type": "string"
						},
						{
							"internalType": "uint256",
							"name": "price",
							"type": "uint256"
						},
						{
							"internalType": "uint256",
							"name": "startTime",
							"type": "uint256"
						},
						{
							"internalType": "uint256",
							"name": "endTime",
							"type": "uint256"
						},
						{
							"internalType": "string",
							"name": "summary",
							"type": "string"
						},
						{
							"internalType": "string",
							"name": "description",
							"type": "string"
						},
						{
							"internalType": "address",
							"name": "maker",
							"type": "address"
						},
						{
							"internalType": "address",
							"name": "validator",
							"type": "address"
						},
						{
							"internalType": "bool",
							"name": "approve",
							"type": "bool"
						},
						{
							"internalType": "bool",
							"name": "claimed",
							"type": "bool"
						},
						{
							"internalType": "address",
							"name": "token",
							"type": "address"
						}
					],
					"stateMutability": "view",
					"type": "function"
				},
				{
					"inputs": [
						{
							"internalType": "address",
							"name": "token",
							"type": "address"
						},
						{
							"internalType": "uint256",
							"name": "amount",
							"type": "uint256"
						}
					],
					"name": "emergencyWithdraw",
					"outputs": [],
					"stateMutability": "nonpayable",
					"type": "function"
				},
				{
					"inputs": [
						{
							"internalType": "address",
							"name": "token",
							"type": "address"
						}
					],
					"name": "getContractBalance",
					"outputs": [
						{
							"internalType": "uint256",
							"name": "",
							"type": "uint256"
						}
					],
					"stateMutability": "view",
					"type": "function"
				},
				{
					"inputs": [],
					"name": "getFee",
					"outputs": [
						{
							"internalType": "uint256",
							"name": "",
							"type": "uint256"
						}
					],
					"stateMutability": "view",
					"type": "function"
				},
				{
					"inputs": [
						{
							"internalType": "uint256",
							"name": "programId",
							"type": "uint256"
						}
					],
					"name": "getProgramDetails",
					"outputs": [
						{
							"internalType": "string",
							"name": "name",
							"type": "string"
						},
						{
							"internalType": "uint256",
							"name": "price",
							"type": "uint256"
						},
						{
							"internalType": "address",
							"name": "maker",
							"type": "address"
						},
						{
							"internalType": "address",
							"name": "validator",
							"type": "address"
						},
						{
							"internalType": "address",
							"name": "token",
							"type": "address"
						},
						{
							"internalType": "bool",
							"name": "claimed",
							"type": "bool"
						}
					],
					"stateMutability": "view",
					"type": "function"
				},
				{
					"inputs": [
						{
							"internalType": "uint256",
							"name": "programId",
							"type": "uint256"
						}
					],
					"name": "getProgramKeywords",
					"outputs": [
						{
							"internalType": "string[]",
							"name": "",
							"type": "string[]"
						}
					],
					"stateMutability": "view",
					"type": "function"
				},
				{
					"inputs": [
						{
							"internalType": "uint256",
							"name": "programId",
							"type": "uint256"
						}
					],
					"name": "getProgramLinks",
					"outputs": [
						{
							"internalType": "string[]",
							"name": "",
							"type": "string[]"
						}
					],
					"stateMutability": "view",
					"type": "function"
				},
				{
					"inputs": [],
					"name": "nextProgramId",
					"outputs": [
						{
							"internalType": "uint256",
							"name": "",
							"type": "uint256"
						}
					],
					"stateMutability": "view",
					"type": "function"
				},
				{
					"inputs": [],
					"name": "owner",
					"outputs": [
						{
							"internalType": "address",
							"name": "",
							"type": "address"
						}
					],
					"stateMutability": "view",
					"type": "function"
				},
				{
					"inputs": [
						{
							"internalType": "uint256",
							"name": "programId",
							"type": "uint256"
						}
					],
					"name": "reclaimFunds",
					"outputs": [],
					"stateMutability": "nonpayable",
					"type": "function"
				},
				{
					"inputs": [],
					"name": "renounceOwnership",
					"outputs": [],
					"stateMutability": "nonpayable",
					"type": "function"
				},
				{
					"inputs": [
						{
							"internalType": "uint256",
							"name": "_fee",
							"type": "uint256"
						}
					],
					"name": "setFee",
					"outputs": [],
					"stateMutability": "nonpayable",
					"type": "function"
				},
				{
					"inputs": [
						{
							"internalType": "address",
							"name": "token",
							"type": "address"
						},
						{
							"internalType": "bool",
							"name": "status",
							"type": "bool"
						}
					],
					"name": "setTokenWhitelist",
					"outputs": [],
					"stateMutability": "nonpayable",
					"type": "function"
				},
				{
					"inputs": [
						{
							"internalType": "address",
							"name": "newOwner",
							"type": "address"
						}
					],
					"name": "transferOwnership",
					"outputs": [],
					"stateMutability": "nonpayable",
					"type": "function"
				},
				{
					"inputs": [
						{
							"internalType": "uint256",
							"name": "programId",
							"type": "uint256"
						},
						{
							"internalType": "uint256",
							"name": "price",
							"type": "uint256"
						},
						{
							"internalType": "uint256",
							"name": "startTime",
							"type": "uint256"
						},
						{
							"internalType": "uint256",
							"name": "endTime",
							"type": "uint256"
						},
						{
							"internalType": "address",
							"name": "newValidator",
							"type": "address"
						}
					],
					"name": "updateProgram",
					"outputs": [],
					"stateMutability": "nonpayable",
					"type": "function"
				},
				{
					"inputs": [
						{
							"internalType": "address",
							"name": "",
							"type": "address"
						}
					],
					"name": "whitelistedTokens",
					"outputs": [
						{
							"internalType": "bool",
							"name": "",
							"type": "bool"
						}
					],
					"stateMutability": "view",
					"type": "function"
				}
			],
			"devdoc": {
				"kind": "dev",
				"methods": {
					"owner()": {
						"details": "Returns the address of the current owner."
					},
					"renounceOwnership()": {
						"details": "Leaves the contract without owner. It will not be possible to call `onlyOwner` functions. Can only be called by the current owner. NOTE: Renouncing ownership will leave the contract without an owner, thereby disabling any functionality that is only available to the owner."
					},
					"transferOwnership(address)": {
						"details": "Transfers ownership of the contract to a new account (`newOwner`). Can only be called by the current owner."
					}
				},
				"version": 1
			},
			"evm": {
				"assembly": "    /* \"contracts/LdEduProgram.sol\":367:8209  contract LdEduProgram is Ownable, ReentrancyGuard {... */\n  mstore(0x40, 0x80)\n    /* \"contracts/LdEduProgram.sol\":1892:2031  constructor(address initialOwner) Ownable() {... */\n  callvalue\n  dup1\n  iszero\n  tag_1\n  jumpi\n  revert(0x00, 0x00)\ntag_1:\n  pop\n  mload(0x40)\n  sub(codesize, bytecodeSize)\n  dup1\n  bytecodeSize\n  dup4\n  codecopy\n  dup2\n  dup2\n  add\n  0x40\n  mstore\n  dup2\n  add\n  swap1\n  tag_2\n  swap2\n  swap1\n  tag_3\n  jump\t// in\ntag_2:\n    /* \"@openzeppelin/contracts/access/Ownable.sol\":936:968  _transferOwnership(_msgSender()) */\n  tag_8\n    /* \"@openzeppelin/contracts/access/Ownable.sol\":955:967  _msgSender() */\n  tag_9\n    /* \"@openzeppelin/contracts/access/Ownable.sol\":955:965  _msgSender */\n  shl(0x20, tag_10)\n    /* \"@openzeppelin/contracts/access/Ownable.sol\":955:967  _msgSender() */\n  0x20\n  shr\n  jump\t// in\ntag_9:\n    /* \"@openzeppelin/contracts/access/Ownable.sol\":936:954  _transferOwnership */\n  shl(0x20, tag_11)\n    /* \"@openzeppelin/contracts/access/Ownable.sol\":936:968  _transferOwnership(_msgSender()) */\n  0x20\n  shr\n  jump\t// in\ntag_8:\n    /* \"@openzeppelin/contracts/security/ReentrancyGuard.sol\":1716:1717  1 */\n  0x01\n    /* \"@openzeppelin/contracts/security/ReentrancyGuard.sol\":1821:1828  _status */\n  dup1\n    /* \"@openzeppelin/contracts/security/ReentrancyGuard.sol\":1821:1843  _status = _NOT_ENTERED */\n  dup2\n  swap1\n  sstore\n  pop\n    /* \"contracts/LdEduProgram.sol\":2020:2024  true */\n  0x01\n    /* \"contracts/LdEduProgram.sol\":1987:2004  whitelistedTokens */\n  0x03\n    /* \"contracts/LdEduProgram.sol\":1987:2017  whitelistedTokens[ETH_ADDRESS] */\n  0x00\n    /* \"contracts/LdEduProgram.sol\":1883:1884  0 */\n  0x00\n    /* \"contracts/LdEduProgram.sol\":1987:2017  whitelistedTokens[ETH_ADDRESS] */\n  0xffffffffffffffffffffffffffffffffffffffff\n  and\n  0xffffffffffffffffffffffffffffffffffffffff\n  and\n  dup2\n  mstore\n  0x20\n  add\n  swap1\n  dup2\n  mstore\n  0x20\n  add\n  0x00\n  keccak256\n  0x00\n    /* \"contracts/LdEduProgram.sol\":1987:2024  whitelistedTokens[ETH_ADDRESS] = true */\n  0x0100\n  exp\n  dup2\n  sload\n  dup2\n  0xff\n  mul\n  not\n  and\n  swap1\n  dup4\n  iszero\n  iszero\n  mul\n  or\n  swap1\n  sstore\n  pop\n    /* \"contracts/LdEduProgram.sol\":1892:2031  constructor(address initialOwner) Ownable() {... */\n  pop\n    /* \"contracts/LdEduProgram.sol\":367:8209  contract LdEduProgram is Ownable, ReentrancyGuard {... */\n  jump(tag_14)\n    /* \"@openzeppelin/contracts/utils/Context.sol\":655:751  function _msgSender() internal view virtual returns (address) {... */\ntag_10:\n    /* \"@openzeppelin/contracts/utils/Context.sol\":708:715  address */\n  0x00\n    /* \"@openzeppelin/contracts/utils/Context.sol\":734:744  msg.sender */\n  caller\n    /* \"@openzeppelin/contracts/utils/Context.sol\":727:744  return msg.sender */\n  swap1\n  pop\n    /* \"@openzeppelin/contracts/utils/Context.sol\":655:751  function _msgSender() internal view virtual returns (address) {... */\n  swap1\n  jump\t// out\n    /* \"@openzeppelin/contracts/access/Ownable.sol\":2426:2613  function _transferOwnership(address newOwner) internal virtual {... */\ntag_11:\n    /* \"@openzeppelin/contracts/access/Ownable.sol\":2499:2515  address oldOwner */\n  0x00\n    /* \"@openzeppelin/contracts/access/Ownable.sol\":2518:2524  _owner */\n  0x00\n  0x00\n  swap1\n  sload\n  swap1\n  0x0100\n  exp\n  swap1\n  div\n  0xffffffffffffffffffffffffffffffffffffffff\n  and\n    /* \"@openzeppelin/contracts/access/Ownable.sol\":2499:2524  address oldOwner = _owner */\n  swap1\n  pop\n    /* \"@openzeppelin/contracts/access/Ownable.sol\":2543:2551  newOwner */\n  dup2\n    /* \"@openzeppelin/contracts/access/Ownable.sol\":2534:2540  _owner */\n  0x00\n  0x00\n    /* \"@openzeppelin/contracts/access/Ownable.sol\":2534:2551  _owner = newOwner */\n  0x0100\n  exp\n  dup2\n  sload\n  dup2\n  0xffffffffffffffffffffffffffffffffffffffff\n  mul\n  not\n  and\n  swap1\n  dup4\n  0xffffffffffffffffffffffffffffffffffffffff\n  and\n  mul\n  or\n  swap1\n  sstore\n  pop\n    /* \"@openzeppelin/contracts/access/Ownable.sol\":2597:2605  newOwner */\n  dup2\n    /* \"@openzeppelin/contracts/access/Ownable.sol\":2566:2606  OwnershipTransferred(oldOwner, newOwner) */\n  0xffffffffffffffffffffffffffffffffffffffff\n  and\n    /* \"@openzeppelin/contracts/access/Ownable.sol\":2587:2595  oldOwner */\n  dup2\n    /* \"@openzeppelin/contracts/access/Ownable.sol\":2566:2606  OwnershipTransferred(oldOwner, newOwner) */\n  0xffffffffffffffffffffffffffffffffffffffff\n  and\n  0x8be0079c531659141344cd1fd0a4f28419497f9722a3daafe3b4186f6b6457e0\n  mload(0x40)\n  mload(0x40)\n  dup1\n  swap2\n  sub\n  swap1\n  log3\n    /* \"@openzeppelin/contracts/access/Ownable.sol\":2489:2613  {... */\n  pop\n    /* \"@openzeppelin/contracts/access/Ownable.sol\":2426:2613  function _transferOwnership(address newOwner) internal virtual {... */\n  pop\n  jump\t// out\n    /* \"#utility.yul\":88:205   */\ntag_18:\n    /* \"#utility.yul\":197:198   */\n  0x00\n    /* \"#utility.yul\":194:195   */\n  0x00\n    /* \"#utility.yul\":187:199   */\n  revert\n    /* \"#utility.yul\":334:460   */\ntag_20:\n    /* \"#utility.yul\":371:378   */\n  0x00\n    /* \"#utility.yul\":411:453   */\n  0xffffffffffffffffffffffffffffffffffffffff\n    /* \"#utility.yul\":404:409   */\n  dup3\n    /* \"#utility.yul\":400:454   */\n  and\n    /* \"#utility.yul\":389:454   */\n  swap1\n  pop\n    /* \"#utility.yul\":334:460   */\n  swap2\n  swap1\n  pop\n  jump\t// out\n    /* \"#utility.yul\":466:562   */\ntag_21:\n    /* \"#utility.yul\":503:510   */\n  0x00\n    /* \"#utility.yul\":532:556   */\n  tag_30\n    /* \"#utility.yul\":550:555   */\n  dup3\n    /* \"#utility.yul\":532:556   */\n  tag_20\n  jump\t// in\ntag_30:\n    /* \"#utility.yul\":521:556   */\n  swap1\n  pop\n    /* \"#utility.yul\":466:562   */\n  swap2\n  swap1\n  pop\n  jump\t// out\n    /* \"#utility.yul\":568:690   */\ntag_22:\n    /* \"#utility.yul\":641:665   */\n  tag_32\n    /* \"#utility.yul\":659:664   */\n  dup2\n    /* \"#utility.yul\":641:665   */\n  tag_21\n  jump\t// in\ntag_32:\n    /* \"#utility.yul\":634:639   */\n  dup2\n    /* \"#utility.yul\":631:666   */\n  eq\n    /* \"#utility.yul\":621:684   */\n  tag_33\n  jumpi\n    /* \"#utility.yul\":680:681   */\n  0x00\n    /* \"#utility.yul\":677:678   */\n  0x00\n    /* \"#utility.yul\":670:682   */\n  revert\n    /* \"#utility.yul\":621:684   */\ntag_33:\n    /* \"#utility.yul\":568:690   */\n  pop\n  jump\t// out\n    /* \"#utility.yul\":696:839   */\ntag_23:\n    /* \"#utility.yul\":753:758   */\n  0x00\n    /* \"#utility.yul\":784:790   */\n  dup2\n    /* \"#utility.yul\":778:791   */\n  mload\n    /* \"#utility.yul\":769:791   */\n  swap1\n  pop\n    /* \"#utility.yul\":800:833   */\n  tag_35\n    /* \"#utility.yul\":827:832   */\n  dup2\n    /* \"#utility.yul\":800:833   */\n  tag_22\n  jump\t// in\ntag_35:\n    /* \"#utility.yul\":696:839   */\n  swap3\n  swap2\n  pop\n  pop\n  jump\t// out\n    /* \"#utility.yul\":845:1196   */\ntag_3:\n    /* \"#utility.yul\":915:921   */\n  0x00\n    /* \"#utility.yul\":964:966   */\n  0x20\n    /* \"#utility.yul\":952:961   */\n  dup3\n    /* \"#utility.yul\":943:950   */\n  dup5\n    /* \"#utility.yul\":939:962   */\n  sub\n    /* \"#utility.yul\":935:967   */\n  slt\n    /* \"#utility.yul\":932:1051   */\n  iszero\n  tag_37\n  jumpi\n    /* \"#utility.yul\":970:1049   */\n  tag_38\n  tag_18\n  jump\t// in\ntag_38:\n    /* \"#utility.yul\":932:1051   */\ntag_37:\n    /* \"#utility.yul\":1090:1091   */\n  0x00\n    /* \"#utility.yul\":1115:1179   */\n  tag_39\n    /* \"#utility.yul\":1171:1178   */\n  dup5\n    /* \"#utility.yul\":1162:1168   */\n  dup3\n    /* \"#utility.yul\":1151:1160   */\n  dup6\n    /* \"#utility.yul\":1147:1169   */\n  add\n    /* \"#utility.yul\":1115:1179   */\n  tag_23\n  jump\t// in\ntag_39:\n    /* \"#utility.yul\":1105:1179   */\n  swap2\n  pop\n    /* \"#utility.yul\":1061:1189   */\n  pop\n    /* \"#utility.yul\":845:1196   */\n  swap3\n  swap2\n  pop\n  pop\n  jump\t// out\n    /* \"contracts/LdEduProgram.sol\":367:8209  contract LdEduProgram is Ownable, ReentrancyGuard {... */\ntag_14:\n  dataSize(sub_0)\n  dup1\n  dataOffset(sub_0)\n  0x00\n  codecopy\n  0x00\n  return\nstop\n\nsub_0: assembly {\n        /* \"contracts/LdEduProgram.sol\":367:8209  contract LdEduProgram is Ownable, ReentrancyGuard {... */\n      mstore(0x40, 0x80)\n      jumpi(tag_1, lt(calldatasize, 0x04))\n      shr(0xe0, calldataload(0x00))\n      dup1\n      0x9b46c801\n      gt\n      tag_21\n      jumpi\n      dup1\n      0xd613fd24\n      gt\n      tag_22\n      jumpi\n      dup1\n      0xd613fd24\n      eq\n      tag_16\n      jumpi\n      dup1\n      0xdaf9c210\n      eq\n      tag_17\n      jumpi\n      dup1\n      0xf2479186\n      eq\n      tag_18\n      jumpi\n      dup1\n      0xf2fde38b\n      eq\n      tag_19\n      jumpi\n      dup1\n      0xf9f161a8\n      eq\n      tag_20\n      jumpi\n      jump(tag_1)\n    tag_22:\n      dup1\n      0x9b46c801\n      eq\n      tag_11\n      jumpi\n      dup1\n      0xa734f06e\n      eq\n      tag_12\n      jumpi\n      dup1\n      0xba71b330\n      eq\n      tag_13\n      jumpi\n      dup1\n      0xc9bcc97e\n      eq\n      tag_14\n      jumpi\n      dup1\n      0xced72f87\n      eq\n      tag_15\n      jumpi\n      jump(tag_1)\n    tag_21:\n      dup1\n      0x715018a6\n      gt\n      tag_23\n      jumpi\n      dup1\n      0x715018a6\n      eq\n      tag_6\n      jumpi\n      dup1\n      0x7d30b663\n      eq\n      tag_7\n      jumpi\n      dup1\n      0x89001eb1\n      eq\n      tag_8\n      jumpi\n      dup1\n      0x8da5cb5b\n      eq\n      tag_9\n      jumpi\n      dup1\n      0x95ccea67\n      eq\n      tag_10\n      jumpi\n      jump(tag_1)\n    tag_23:\n      dup1\n      0x1fbbaae8\n      eq\n      tag_2\n      jumpi\n      dup1\n      0x3ccaca8e\n      eq\n      tag_3\n      jumpi\n      dup1\n      0x43ab265f\n      eq\n      tag_4\n      jumpi\n      dup1\n      0x69fe0e2d\n      eq\n      tag_5\n      jumpi\n    tag_1:\n      revert(0x00, 0x00)\n        /* \"contracts/LdEduProgram.sol\":7923:8065  function getProgramKeywords(uint256 programId) external view returns (string[] memory) {... */\n    tag_2:\n      callvalue\n      dup1\n      iszero\n      tag_24\n      jumpi\n      revert(0x00, 0x00)\n    tag_24:\n      pop\n      tag_25\n      0x04\n      dup1\n      calldatasize\n      sub\n      dup2\n      add\n      swap1\n      tag_26\n      swap2\n      swap1\n      tag_27\n      jump\t// in\n    tag_26:\n      tag_28\n      jump\t// in\n    tag_25:\n      mload(0x40)\n      tag_29\n      swap2\n      swap1\n      tag_30\n      jump\t// in\n    tag_29:\n      mload(0x40)\n      dup1\n      swap2\n      sub\n      swap1\n      return\n        /* \"contracts/LdEduProgram.sol\":8071:8207  function getProgramLinks(uint256 programId) external view returns (string[] memory) {... */\n    tag_3:\n      callvalue\n      dup1\n      iszero\n      tag_31\n      jumpi\n      revert(0x00, 0x00)\n    tag_31:\n      pop\n      tag_32\n      0x04\n      dup1\n      calldatasize\n      sub\n      dup2\n      add\n      swap1\n      tag_33\n      swap2\n      swap1\n      tag_27\n      jump\t// in\n    tag_33:\n      tag_34\n      jump\t// in\n    tag_32:\n      mload(0x40)\n      tag_35\n      swap2\n      swap1\n      tag_30\n      jump\t// in\n    tag_35:\n      mload(0x40)\n      dup1\n      swap2\n      sub\n      swap1\n      return\n        /* \"contracts/LdEduProgram.sol\":7158:7404  function getContractBalance(address token) external view returns (uint256) {... */\n    tag_4:\n      callvalue\n      dup1\n      iszero\n      tag_36\n      jumpi\n      revert(0x00, 0x00)\n    tag_36:\n      pop\n      tag_37\n      0x04\n      dup1\n      calldatasize\n      sub\n      dup2\n      add\n      swap1\n      tag_38\n      swap2\n      swap1\n      tag_39\n      jump\t// in\n    tag_38:\n      tag_40\n      jump\t// in\n    tag_37:\n      mload(0x40)\n      tag_41\n      swap2\n      swap1\n      tag_42\n      jump\t// in\n    tag_41:\n      mload(0x40)\n      dup1\n      swap2\n      sub\n      swap1\n      return\n        /* \"contracts/LdEduProgram.sol\":6531:6638  function setFee(uint256 _fee) external onlyOwner {... */\n    tag_5:\n      callvalue\n      dup1\n      iszero\n      tag_43\n      jumpi\n      revert(0x00, 0x00)\n    tag_43:\n      pop\n      tag_44\n      0x04\n      dup1\n      calldatasize\n      sub\n      dup2\n      add\n      swap1\n      tag_45\n      swap2\n      swap1\n      tag_27\n      jump\t// in\n    tag_45:\n      tag_46\n      jump\t// in\n    tag_44:\n      stop\n        /* \"@openzeppelin/contracts/access/Ownable.sol\":1824:1925  function renounceOwnership() public virtual onlyOwner {... */\n    tag_6:\n      callvalue\n      dup1\n      iszero\n      tag_47\n      jumpi\n      revert(0x00, 0x00)\n    tag_47:\n      pop\n      tag_48\n      tag_49\n      jump\t// in\n    tag_48:\n      stop\n        /* \"contracts/LdEduProgram.sol\":2253:3889  function createEduProgram(... */\n    tag_7:\n      tag_50\n      0x04\n      dup1\n      calldatasize\n      sub\n      dup2\n      add\n      swap1\n      tag_51\n      swap2\n      swap1\n      tag_52\n      jump\t// in\n    tag_51:\n      tag_53\n      jump\t// in\n    tag_50:\n      stop\n        /* \"contracts/LdEduProgram.sol\":5897:6525  function updateProgram(... */\n    tag_8:\n      callvalue\n      dup1\n      iszero\n      tag_54\n      jumpi\n      revert(0x00, 0x00)\n    tag_54:\n      pop\n      tag_55\n      0x04\n      dup1\n      calldatasize\n      sub\n      dup2\n      add\n      swap1\n      tag_56\n      swap2\n      swap1\n      tag_57\n      jump\t// in\n    tag_56:\n      tag_58\n      jump\t// in\n    tag_55:\n      stop\n        /* \"@openzeppelin/contracts/access/Ownable.sol\":1201:1286  function owner() public view virtual returns (address) {... */\n    tag_9:\n      callvalue\n      dup1\n      iszero\n      tag_59\n      jumpi\n      revert(0x00, 0x00)\n    tag_59:\n      pop\n      tag_60\n      tag_61\n      jump\t// in\n    tag_60:\n      mload(0x40)\n      tag_62\n      swap2\n      swap1\n      tag_63\n      jump\t// in\n    tag_62:\n      mload(0x40)\n      dup1\n      swap2\n      sub\n      swap1\n      return\n        /* \"contracts/LdEduProgram.sol\":6784:7108  function emergencyWithdraw(address token, uint256 amount) external onlyOwner {... */\n    tag_10:\n      callvalue\n      dup1\n      iszero\n      tag_64\n      jumpi\n      revert(0x00, 0x00)\n    tag_64:\n      pop\n      tag_65\n      0x04\n      dup1\n      calldatasize\n      sub\n      dup2\n      add\n      swap1\n      tag_66\n      swap2\n      swap1\n      tag_67\n      jump\t// in\n    tag_66:\n      tag_68\n      jump\t// in\n    tag_65:\n      stop\n        /* \"contracts/LdEduProgram.sol\":7434:7917  function getProgramDetails(uint256 programId) external view returns (... */\n    tag_11:\n      callvalue\n      dup1\n      iszero\n      tag_69\n      jumpi\n      revert(0x00, 0x00)\n    tag_69:\n      pop\n      tag_70\n      0x04\n      dup1\n      calldatasize\n      sub\n      dup2\n      add\n      swap1\n      tag_71\n      swap2\n      swap1\n      tag_27\n      jump\t// in\n    tag_71:\n      tag_72\n      jump\t// in\n    tag_70:\n      mload(0x40)\n      tag_73\n      swap7\n      swap6\n      swap5\n      swap4\n      swap3\n      swap2\n      swap1\n      tag_74\n      jump\t// in\n    tag_73:\n      mload(0x40)\n      dup1\n      swap2\n      sub\n      swap1\n      return\n        /* \"contracts/LdEduProgram.sol\":1837:1885  address public constant ETH_ADDRESS = address(0) */\n    tag_12:\n      callvalue\n      dup1\n      iszero\n      tag_75\n      jumpi\n      revert(0x00, 0x00)\n    tag_75:\n      pop\n      tag_76\n      tag_77\n      jump\t// in\n    tag_76:\n      mload(0x40)\n      tag_78\n      swap2\n      swap1\n      tag_63\n      jump\t// in\n    tag_78:\n      mload(0x40)\n      dup1\n      swap2\n      sub\n      swap1\n      return\n        /* \"contracts/LdEduProgram.sol\":1743:1771  uint256 public nextProgramId */\n    tag_13:\n      callvalue\n      dup1\n      iszero\n      tag_79\n      jumpi\n      revert(0x00, 0x00)\n    tag_79:\n      pop\n      tag_80\n      tag_81\n      jump\t// in\n    tag_80:\n      mload(0x40)\n      tag_82\n      swap2\n      swap1\n      tag_42\n      jump\t// in\n    tag_82:\n      mload(0x40)\n      dup1\n      swap2\n      sub\n      swap1\n      return\n        /* \"contracts/LdEduProgram.sol\":2077:2247  function setTokenWhitelist(address token, bool status) external onlyOwner {... */\n    tag_14:\n      callvalue\n      dup1\n      iszero\n      tag_83\n      jumpi\n      revert(0x00, 0x00)\n    tag_83:\n      pop\n      tag_84\n      0x04\n      dup1\n      calldatasize\n      sub\n      dup2\n      add\n      swap1\n      tag_85\n      swap2\n      swap1\n      tag_86\n      jump\t// in\n    tag_85:\n      tag_87\n      jump\t// in\n    tag_84:\n      stop\n        /* \"contracts/LdEduProgram.sol\":6644:6721  function getFee() external view returns (uint256) {... */\n    tag_15:\n      callvalue\n      dup1\n      iszero\n      tag_88\n      jumpi\n      revert(0x00, 0x00)\n    tag_88:\n      pop\n      tag_89\n      tag_90\n      jump\t// in\n    tag_89:\n      mload(0x40)\n      tag_91\n      swap2\n      swap1\n      tag_42\n      jump\t// in\n    tag_91:\n      mload(0x40)\n      dup1\n      swap2\n      sub\n      swap1\n      return\n        /* \"contracts/LdEduProgram.sol\":1610:1659  mapping(uint256 => EduProgram) public eduPrograms */\n    tag_16:\n      callvalue\n      dup1\n      iszero\n      tag_92\n      jumpi\n      revert(0x00, 0x00)\n    tag_92:\n      pop\n      tag_93\n      0x04\n      dup1\n      calldatasize\n      sub\n      dup2\n      add\n      swap1\n      tag_94\n      swap2\n      swap1\n      tag_27\n      jump\t// in\n    tag_94:\n      tag_95\n      jump\t// in\n    tag_93:\n      mload(0x40)\n      tag_96\n      swap13\n      swap12\n      swap11\n      swap10\n      swap9\n      swap8\n      swap7\n      swap6\n      swap5\n      swap4\n      swap3\n      swap2\n      swap1\n      tag_97\n      jump\t// in\n    tag_96:\n      mload(0x40)\n      dup1\n      swap2\n      sub\n      swap1\n      return\n        /* \"contracts/LdEduProgram.sol\":1665:1714  mapping(address => bool) public whitelistedTokens */\n    tag_17:\n      callvalue\n      dup1\n      iszero\n      tag_98\n      jumpi\n      revert(0x00, 0x00)\n    tag_98:\n      pop\n      tag_99\n      0x04\n      dup1\n      calldatasize\n      sub\n      dup2\n      add\n      swap1\n      tag_100\n      swap2\n      swap1\n      tag_39\n      jump\t// in\n    tag_100:\n      tag_101\n      jump\t// in\n    tag_99:\n      mload(0x40)\n      tag_102\n      swap2\n      swap1\n      tag_103\n      jump\t// in\n    tag_102:\n      mload(0x40)\n      dup1\n      swap2\n      sub\n      swap1\n      return\n        /* \"contracts/LdEduProgram.sol\":3895:4938  function acceptMilestone(... */\n    tag_18:\n      callvalue\n      dup1\n      iszero\n      tag_104\n      jumpi\n      revert(0x00, 0x00)\n    tag_104:\n      pop\n      tag_105\n      0x04\n      dup1\n      calldatasize\n      sub\n      dup2\n      add\n      swap1\n      tag_106\n      swap2\n      swap1\n      tag_107\n      jump\t// in\n    tag_106:\n      tag_108\n      jump\t// in\n    tag_105:\n      stop\n        /* \"@openzeppelin/contracts/access/Ownable.sol\":2074:2272  function transferOwnership(address newOwner) public virtual onlyOwner {... */\n    tag_19:\n      callvalue\n      dup1\n      iszero\n      tag_109\n      jumpi\n      revert(0x00, 0x00)\n    tag_109:\n      pop\n      tag_110\n      0x04\n      dup1\n      calldatasize\n      sub\n      dup2\n      add\n      swap1\n      tag_111\n      swap2\n      swap1\n      tag_39\n      jump\t// in\n    tag_111:\n      tag_112\n      jump\t// in\n    tag_110:\n      stop\n        /* \"contracts/LdEduProgram.sol\":4944:5891  function reclaimFunds(uint256 programId) external nonReentrant {... */\n    tag_20:\n      callvalue\n      dup1\n      iszero\n      tag_113\n      jumpi\n      revert(0x00, 0x00)\n    tag_113:\n      pop\n      tag_114\n      0x04\n      dup1\n      calldatasize\n      sub\n      dup2\n      add\n      swap1\n      tag_115\n      swap2\n      swap1\n      tag_27\n      jump\t// in\n    tag_115:\n      tag_116\n      jump\t// in\n    tag_114:\n      stop\n        /* \"contracts/LdEduProgram.sol\":7923:8065  function getProgramKeywords(uint256 programId) external view returns (string[] memory) {... */\n    tag_28:\n        /* \"contracts/LdEduProgram.sol\":7993:8008  string[] memory */\n      0x60\n        /* \"contracts/LdEduProgram.sol\":8027:8038  eduPrograms */\n      0x02\n        /* \"contracts/LdEduProgram.sol\":8027:8049  eduPrograms[programId] */\n      0x00\n        /* \"contracts/LdEduProgram.sol\":8039:8048  programId */\n      dup4\n        /* \"contracts/LdEduProgram.sol\":8027:8049  eduPrograms[programId] */\n      dup2\n      mstore\n      0x20\n      add\n      swap1\n      dup2\n      mstore\n      0x20\n      add\n      0x00\n      keccak256\n        /* \"contracts/LdEduProgram.sol\":8027:8058  eduPrograms[programId].keywords */\n      0x02\n      add\n        /* \"contracts/LdEduProgram.sol\":8020:8058  return eduPrograms[programId].keywords */\n      dup1\n      sload\n      dup1\n      0x20\n      mul\n      0x20\n      add\n      mload(0x40)\n      swap1\n      dup2\n      add\n      0x40\n      mstore\n      dup1\n      swap3\n      swap2\n      swap1\n      dup2\n      dup2\n      mstore\n      0x20\n      add\n      0x00\n      swap1\n    tag_118:\n      dup3\n      dup3\n      lt\n      iszero\n      tag_119\n      jumpi\n      dup4\n      dup3\n      swap1\n      0x00\n      mstore\n      keccak256(0x00, 0x20)\n      add\n      dup1\n      sload\n      tag_121\n      swap1\n      tag_122\n      jump\t// in\n    tag_121:\n      dup1\n      0x1f\n      add\n      0x20\n      dup1\n      swap2\n      div\n      mul\n      0x20\n      add\n      mload(0x40)\n      swap1\n      dup2\n      add\n      0x40\n      mstore\n      dup1\n      swap3\n      swap2\n      swap1\n      dup2\n      dup2\n      mstore\n      0x20\n      add\n      dup3\n      dup1\n      sload\n      tag_123\n      swap1\n      tag_122\n      jump\t// in\n    tag_123:\n      dup1\n      iszero\n      tag_124\n      jumpi\n      dup1\n      0x1f\n      lt\n      tag_125\n      jumpi\n      0x0100\n      dup1\n      dup4\n      sload\n      div\n      mul\n      dup4\n      mstore\n      swap2\n      0x20\n      add\n      swap2\n      jump(tag_124)\n    tag_125:\n      dup3\n      add\n      swap2\n      swap1\n      0x00\n      mstore\n      keccak256(0x00, 0x20)\n      swap1\n    tag_126:\n      dup2\n      sload\n      dup2\n      mstore\n      swap1\n      0x01\n      add\n      swap1\n      0x20\n      add\n      dup1\n      dup4\n      gt\n      tag_126\n      jumpi\n      dup3\n      swap1\n      sub\n      0x1f\n      and\n      dup3\n      add\n      swap2\n    tag_124:\n      pop\n      pop\n      pop\n      pop\n      pop\n      dup2\n      mstore\n      0x20\n      add\n      swap1\n      0x01\n      add\n      swap1\n      jump(tag_118)\n    tag_119:\n      pop\n      pop\n      pop\n      pop\n      swap1\n      pop\n        /* \"contracts/LdEduProgram.sol\":7923:8065  function getProgramKeywords(uint256 programId) external view returns (string[] memory) {... */\n      swap2\n      swap1\n      pop\n      jump\t// out\n        /* \"contracts/LdEduProgram.sol\":8071:8207  function getProgramLinks(uint256 programId) external view returns (string[] memory) {... */\n    tag_34:\n        /* \"contracts/LdEduProgram.sol\":8138:8153  string[] memory */\n      0x60\n        /* \"contracts/LdEduProgram.sol\":8172:8183  eduPrograms */\n      0x02\n        /* \"contracts/LdEduProgram.sol\":8172:8194  eduPrograms[programId] */\n      0x00\n        /* \"contracts/LdEduProgram.sol\":8184:8193  programId */\n      dup4\n        /* \"contracts/LdEduProgram.sol\":8172:8194  eduPrograms[programId] */\n      dup2\n      mstore\n      0x20\n      add\n      swap1\n      dup2\n      mstore\n      0x20\n      add\n      0x00\n      keccak256\n        /* \"contracts/LdEduProgram.sol\":8172:8200  eduPrograms[programId].links */\n      0x08\n      add\n        /* \"contracts/LdEduProgram.sol\":8165:8200  return eduPrograms[programId].links */\n      dup1\n      sload\n      dup1\n      0x20\n      mul\n      0x20\n      add\n      mload(0x40)\n      swap1\n      dup2\n      add\n      0x40\n      mstore\n      dup1\n      swap3\n      swap2\n      swap1\n      dup2\n      dup2\n      mstore\n      0x20\n      add\n      0x00\n      swap1\n    tag_128:\n      dup3\n      dup3\n      lt\n      iszero\n      tag_129\n      jumpi\n      dup4\n      dup3\n      swap1\n      0x00\n      mstore\n      keccak256(0x00, 0x20)\n      add\n      dup1\n      sload\n      tag_131\n      swap1\n      tag_122\n      jump\t// in\n    tag_131:\n      dup1\n      0x1f\n      add\n      0x20\n      dup1\n      swap2\n      div\n      mul\n      0x20\n      add\n      mload(0x40)\n      swap1\n      dup2\n      add\n      0x40\n      mstore\n      dup1\n      swap3\n      swap2\n      swap1\n      dup2\n      dup2\n      mstore\n      0x20\n      add\n      dup3\n      dup1\n      sload\n      tag_132\n      swap1\n      tag_122\n      jump\t// in\n    tag_132:\n      dup1\n      iszero\n      tag_133\n      jumpi\n      dup1\n      0x1f\n      lt\n      tag_134\n      jumpi\n      0x0100\n      dup1\n      dup4\n      sload\n      div\n      mul\n      dup4\n      mstore\n      swap2\n      0x20\n      add\n      swap2\n      jump(tag_133)\n    tag_134:\n      dup3\n      add\n      swap2\n      swap1\n      0x00\n      mstore\n      keccak256(0x00, 0x20)\n      swap1\n    tag_135:\n      dup2\n      sload\n      dup2\n      mstore\n      swap1\n      0x01\n      add\n      swap1\n      0x20\n      add\n      dup1\n      dup4\n      gt\n      tag_135\n      jumpi\n      dup3\n      swap1\n      sub\n      0x1f\n      and\n      dup3\n      add\n      swap2\n    tag_133:\n      pop\n      pop\n      pop\n      pop\n      pop\n      dup2\n      mstore\n      0x20\n      add\n      swap1\n      0x01\n      add\n      swap1\n      jump(tag_128)\n    tag_129:\n      pop\n      pop\n      pop\n      pop\n      swap1\n      pop\n        /* \"contracts/LdEduProgram.sol\":8071:8207  function getProgramLinks(uint256 programId) external view returns (string[] memory) {... */\n      swap2\n      swap1\n      pop\n      jump\t// out\n        /* \"contracts/LdEduProgram.sol\":7158:7404  function getContractBalance(address token) external view returns (uint256) {... */\n    tag_40:\n        /* \"contracts/LdEduProgram.sol\":7224:7231  uint256 */\n      0x00\n        /* \"contracts/LdEduProgram.sol\":1883:1884  0 */\n      0x00\n        /* \"contracts/LdEduProgram.sol\":7247:7267  token == ETH_ADDRESS */\n      0xffffffffffffffffffffffffffffffffffffffff\n      and\n        /* \"contracts/LdEduProgram.sol\":7247:7252  token */\n      dup3\n        /* \"contracts/LdEduProgram.sol\":7247:7267  token == ETH_ADDRESS */\n      0xffffffffffffffffffffffffffffffffffffffff\n      and\n      sub\n        /* \"contracts/LdEduProgram.sol\":7243:7398  if (token == ETH_ADDRESS) {... */\n      tag_137\n      jumpi\n        /* \"contracts/LdEduProgram.sol\":7290:7311  address(this).balance */\n      selfbalance\n        /* \"contracts/LdEduProgram.sol\":7283:7311  return address(this).balance */\n      swap1\n      pop\n      jump(tag_136)\n        /* \"contracts/LdEduProgram.sol\":7243:7398  if (token == ETH_ADDRESS) {... */\n    tag_137:\n        /* \"contracts/LdEduProgram.sol\":7356:7361  token */\n      dup2\n        /* \"contracts/LdEduProgram.sol\":7349:7372  IERC20(token).balanceOf */\n      0xffffffffffffffffffffffffffffffffffffffff\n      and\n      0x70a08231\n        /* \"contracts/LdEduProgram.sol\":7381:7385  this */\n      address\n        /* \"contracts/LdEduProgram.sol\":7349:7387  IERC20(token).balanceOf(address(this)) */\n      mload(0x40)\n      dup3\n      0xffffffff\n      and\n      0xe0\n      shl\n      dup2\n      mstore\n      0x04\n      add\n      tag_139\n      swap2\n      swap1\n      tag_63\n      jump\t// in\n    tag_139:\n      0x20\n      mload(0x40)\n      dup1\n      dup4\n      sub\n      dup2\n      dup7\n      gas\n      staticcall\n      iszero\n      dup1\n      iszero\n      tag_141\n      jumpi\n      returndatacopy(0x00, 0x00, returndatasize)\n      revert(0x00, returndatasize)\n    tag_141:\n      pop\n      pop\n      pop\n      pop\n      mload(0x40)\n      returndatasize\n      not(0x1f)\n      0x1f\n      dup3\n      add\n      and\n      dup3\n      add\n      dup1\n      0x40\n      mstore\n      pop\n      dup2\n      add\n      swap1\n      tag_142\n      swap2\n      swap1\n      tag_143\n      jump\t// in\n    tag_142:\n        /* \"contracts/LdEduProgram.sol\":7342:7387  return IERC20(token).balanceOf(address(this)) */\n      swap1\n      pop\n        /* \"contracts/LdEduProgram.sol\":7158:7404  function getContractBalance(address token) external view returns (uint256) {... */\n    tag_136:\n      swap2\n      swap1\n      pop\n      jump\t// out\n        /* \"contracts/LdEduProgram.sol\":6531:6638  function setFee(uint256 _fee) external onlyOwner {... */\n    tag_46:\n        /* \"@openzeppelin/contracts/access/Ownable.sol\":1094:1107  _checkOwner() */\n      tag_145\n        /* \"@openzeppelin/contracts/access/Ownable.sol\":1094:1105  _checkOwner */\n      tag_146\n        /* \"@openzeppelin/contracts/access/Ownable.sol\":1094:1107  _checkOwner() */\n      jump\t// in\n    tag_145:\n        /* \"contracts/LdEduProgram.sol\":6596:6600  _fee */\n      dup1\n        /* \"contracts/LdEduProgram.sol\":6590:6593  fee */\n      0x05\n        /* \"contracts/LdEduProgram.sol\":6590:6600  fee = _fee */\n      dup2\n      swap1\n      sstore\n      pop\n        /* \"contracts/LdEduProgram.sol\":6615:6631  FeeUpdated(_fee) */\n      0x8c4d35e54a3f2ef1134138fd8ea3daee6a3c89e10d2665996babdf70261e2c76\n        /* \"contracts/LdEduProgram.sol\":6626:6630  _fee */\n      dup2\n        /* \"contracts/LdEduProgram.sol\":6615:6631  FeeUpdated(_fee) */\n      mload(0x40)\n      tag_148\n      swap2\n      swap1\n      tag_42\n      jump\t// in\n    tag_148:\n      mload(0x40)\n      dup1\n      swap2\n      sub\n      swap1\n      log1\n        /* \"contracts/LdEduProgram.sol\":6531:6638  function setFee(uint256 _fee) external onlyOwner {... */\n      pop\n      jump\t// out\n        /* \"@openzeppelin/contracts/access/Ownable.sol\":1824:1925  function renounceOwnership() public virtual onlyOwner {... */\n    tag_49:\n        /* \"@openzeppelin/contracts/access/Ownable.sol\":1094:1107  _checkOwner() */\n      tag_150\n        /* \"@openzeppelin/contracts/access/Ownable.sol\":1094:1105  _checkOwner */\n      tag_146\n        /* \"@openzeppelin/contracts/access/Ownable.sol\":1094:1107  _checkOwner() */\n      jump\t// in\n    tag_150:\n        /* \"@openzeppelin/contracts/access/Ownable.sol\":1888:1918  _transferOwnership(address(0)) */\n      tag_152\n        /* \"@openzeppelin/contracts/access/Ownable.sol\":1915:1916  0 */\n      0x00\n        /* \"@openzeppelin/contracts/access/Ownable.sol\":1888:1906  _transferOwnership */\n      tag_153\n        /* \"@openzeppelin/contracts/access/Ownable.sol\":1888:1918  _transferOwnership(address(0)) */\n      jump\t// in\n    tag_152:\n        /* \"@openzeppelin/contracts/access/Ownable.sol\":1824:1925  function renounceOwnership() public virtual onlyOwner {... */\n      jump\t// out\n        /* \"contracts/LdEduProgram.sol\":2253:3889  function createEduProgram(... */\n    tag_53:\n        /* \"contracts/LdEduProgram.sol\":2656:2673  whitelistedTokens */\n      0x03\n        /* \"contracts/LdEduProgram.sol\":2656:2681  whitelistedTokens[_token] */\n      0x00\n        /* \"contracts/LdEduProgram.sol\":2674:2680  _token */\n      dup3\n        /* \"contracts/LdEduProgram.sol\":2656:2681  whitelistedTokens[_token] */\n      0xffffffffffffffffffffffffffffffffffffffff\n      and\n      0xffffffffffffffffffffffffffffffffffffffff\n      and\n      dup2\n      mstore\n      0x20\n      add\n      swap1\n      dup2\n      mstore\n      0x20\n      add\n      0x00\n      keccak256\n      0x00\n      swap1\n      sload\n      swap1\n      0x0100\n      exp\n      swap1\n      div\n      0xff\n      and\n        /* \"contracts/LdEduProgram.sol\":2648:2707  require(whitelistedTokens[_token], \"Token not whitelisted\") */\n      tag_155\n      jumpi\n      mload(0x40)\n      0x08c379a000000000000000000000000000000000000000000000000000000000\n      dup2\n      mstore\n      0x04\n      add\n      tag_156\n      swap1\n      tag_157\n      jump\t// in\n    tag_156:\n      mload(0x40)\n      dup1\n      swap2\n      sub\n      swap1\n      revert\n    tag_155:\n        /* \"contracts/LdEduProgram.sol\":2738:2746  _endTime */\n      dup6\n        /* \"contracts/LdEduProgram.sol\":2725:2735  _startTime */\n      dup8\n        /* \"contracts/LdEduProgram.sol\":2725:2746  _startTime < _endTime */\n      lt\n        /* \"contracts/LdEduProgram.sol\":2717:2800  require(_startTime < _endTime, \"The Start time must be earlier than the end time.\") */\n      tag_158\n      jumpi\n      mload(0x40)\n      0x08c379a000000000000000000000000000000000000000000000000000000000\n      dup2\n      mstore\n      0x04\n      add\n      tag_159\n      swap1\n      tag_160\n      jump\t// in\n    tag_159:\n      mload(0x40)\n      dup1\n      swap2\n      sub\n      swap1\n      revert\n    tag_158:\n        /* \"contracts/LdEduProgram.sol\":2827:2828  0 */\n      0x00\n        /* \"contracts/LdEduProgram.sol\":2818:2824  _price */\n      dup10\n        /* \"contracts/LdEduProgram.sol\":2818:2828  _price > 0 */\n      gt\n        /* \"contracts/LdEduProgram.sol\":2810:2861  require(_price > 0, \"Price must be greater than 0\") */\n      tag_161\n      jumpi\n      mload(0x40)\n      0x08c379a000000000000000000000000000000000000000000000000000000000\n      dup2\n      mstore\n      0x04\n      add\n      tag_162\n      swap1\n      tag_163\n      jump\t// in\n    tag_162:\n      mload(0x40)\n      dup1\n      swap2\n      sub\n      swap1\n      revert\n    tag_161:\n        /* \"contracts/LdEduProgram.sol\":2872:2889  uint256 programId */\n      0x00\n        /* \"contracts/LdEduProgram.sol\":2892:2905  nextProgramId */\n      sload(0x04)\n        /* \"contracts/LdEduProgram.sol\":2872:2905  uint256 programId = nextProgramId */\n      swap1\n      pop\n        /* \"contracts/LdEduProgram.sol\":1883:1884  0 */\n      0x00\n        /* \"contracts/LdEduProgram.sol\":2920:2941  _token == ETH_ADDRESS */\n      0xffffffffffffffffffffffffffffffffffffffff\n      and\n        /* \"contracts/LdEduProgram.sol\":2920:2926  _token */\n      dup3\n        /* \"contracts/LdEduProgram.sol\":2920:2941  _token == ETH_ADDRESS */\n      0xffffffffffffffffffffffffffffffffffffffff\n      and\n      sub\n        /* \"contracts/LdEduProgram.sol\":2916:3287  if (_token == ETH_ADDRESS) {... */\n      tag_164\n      jumpi\n        /* \"contracts/LdEduProgram.sol\":3004:3010  _price */\n      dup10\n        /* \"contracts/LdEduProgram.sol\":2991:3000  msg.value */\n      callvalue\n        /* \"contracts/LdEduProgram.sol\":2991:3010  msg.value == _price */\n      eq\n        /* \"contracts/LdEduProgram.sol\":2983:3060  require(msg.value == _price, \"The ETH sent does not match the program price\") */\n      tag_165\n      jumpi\n      mload(0x40)\n      0x08c379a000000000000000000000000000000000000000000000000000000000\n      dup2\n      mstore\n      0x04\n      add\n      tag_166\n      swap1\n      tag_167\n      jump\t// in\n    tag_166:\n      mload(0x40)\n      dup1\n      swap2\n      sub\n      swap1\n      revert\n    tag_165:\n        /* \"contracts/LdEduProgram.sol\":2916:3287  if (_token == ETH_ADDRESS) {... */\n      jump(tag_168)\n    tag_164:\n        /* \"contracts/LdEduProgram.sol\":3148:3149  0 */\n      0x00\n        /* \"contracts/LdEduProgram.sol\":3135:3144  msg.value */\n      callvalue\n        /* \"contracts/LdEduProgram.sol\":3135:3149  msg.value == 0 */\n      eq\n        /* \"contracts/LdEduProgram.sol\":3127:3196  require(msg.value == 0, \"Should not send ETH when paying with token\") */\n      tag_169\n      jumpi\n      mload(0x40)\n      0x08c379a000000000000000000000000000000000000000000000000000000000\n      dup2\n      mstore\n      0x04\n      add\n      tag_170\n      swap1\n      tag_171\n      jump\t// in\n    tag_170:\n      mload(0x40)\n      dup1\n      swap2\n      sub\n      swap1\n      revert\n    tag_169:\n        /* \"contracts/LdEduProgram.sol\":3210:3276  IERC20(_token).safeTransferFrom(msg.sender, address(this), _price) */\n      tag_172\n        /* \"contracts/LdEduProgram.sol\":3242:3252  msg.sender */\n      caller\n        /* \"contracts/LdEduProgram.sol\":3262:3266  this */\n      address\n        /* \"contracts/LdEduProgram.sol\":3269:3275  _price */\n      dup13\n        /* \"contracts/LdEduProgram.sol\":3217:3223  _token */\n      dup6\n        /* \"contracts/LdEduProgram.sol\":3210:3241  IERC20(_token).safeTransferFrom */\n      0xffffffffffffffffffffffffffffffffffffffff\n      and\n      tag_173\n      swap1\n        /* \"contracts/LdEduProgram.sol\":3210:3276  IERC20(_token).safeTransferFrom(msg.sender, address(this), _price) */\n      swap4\n      swap3\n      swap2\n      swap1\n      0xffffffff\n      and\n      jump\t// in\n    tag_172:\n        /* \"contracts/LdEduProgram.sol\":2916:3287  if (_token == ETH_ADDRESS) {... */\n    tag_168:\n        /* \"contracts/LdEduProgram.sol\":3322:3768  EduProgram({... */\n      mload(0x40)\n      dup1\n      0x01c0\n      add\n      0x40\n      mstore\n      dup1\n        /* \"contracts/LdEduProgram.sol\":3351:3360  programId */\n      dup3\n        /* \"contracts/LdEduProgram.sol\":3322:3768  EduProgram({... */\n      dup2\n      mstore\n      0x20\n      add\n        /* \"contracts/LdEduProgram.sol\":3380:3385  _name */\n      dup13\n        /* \"contracts/LdEduProgram.sol\":3322:3768  EduProgram({... */\n      dup2\n      mstore\n      0x20\n      add\n        /* \"contracts/LdEduProgram.sol\":3409:3418  _keywords */\n      dup11\n        /* \"contracts/LdEduProgram.sol\":3322:3768  EduProgram({... */\n      dup2\n      mstore\n      0x20\n      add\n        /* \"contracts/LdEduProgram.sol\":3439:3445  _price */\n      dup12\n        /* \"contracts/LdEduProgram.sol\":3322:3768  EduProgram({... */\n      dup2\n      mstore\n      0x20\n      add\n        /* \"contracts/LdEduProgram.sol\":3470:3480  _startTime */\n      dup10\n        /* \"contracts/LdEduProgram.sol\":3322:3768  EduProgram({... */\n      dup2\n      mstore\n      0x20\n      add\n        /* \"contracts/LdEduProgram.sol\":3503:3511  _endTime */\n      dup9\n        /* \"contracts/LdEduProgram.sol\":3322:3768  EduProgram({... */\n      dup2\n      mstore\n      0x20\n      add\n        /* \"contracts/LdEduProgram.sol\":3534:3542  _summary */\n      dup7\n        /* \"contracts/LdEduProgram.sol\":3322:3768  EduProgram({... */\n      dup2\n      mstore\n      0x20\n      add\n        /* \"contracts/LdEduProgram.sol\":3569:3581  _description */\n      dup6\n        /* \"contracts/LdEduProgram.sol\":3322:3768  EduProgram({... */\n      dup2\n      mstore\n      0x20\n      add\n        /* \"contracts/LdEduProgram.sol\":3602:3608  _links */\n      dup5\n        /* \"contracts/LdEduProgram.sol\":3322:3768  EduProgram({... */\n      dup2\n      mstore\n      0x20\n      add\n        /* \"contracts/LdEduProgram.sol\":3629:3639  msg.sender */\n      caller\n        /* \"contracts/LdEduProgram.sol\":3322:3768  EduProgram({... */\n      0xffffffffffffffffffffffffffffffffffffffff\n      and\n      dup2\n      mstore\n      0x20\n      add\n        /* \"contracts/LdEduProgram.sol\":3664:3674  _validator */\n      dup8\n        /* \"contracts/LdEduProgram.sol\":3322:3768  EduProgram({... */\n      0xffffffffffffffffffffffffffffffffffffffff\n      and\n      dup2\n      mstore\n      0x20\n      add\n        /* \"contracts/LdEduProgram.sol\":3697:3702  false */\n      0x00\n        /* \"contracts/LdEduProgram.sol\":3322:3768  EduProgram({... */\n      iszero\n      iszero\n      dup2\n      mstore\n      0x20\n      add\n        /* \"contracts/LdEduProgram.sol\":3725:3730  false */\n      0x00\n        /* \"contracts/LdEduProgram.sol\":3322:3768  EduProgram({... */\n      iszero\n      iszero\n      dup2\n      mstore\n      0x20\n      add\n        /* \"contracts/LdEduProgram.sol\":3751:3757  _token */\n      dup4\n        /* \"contracts/LdEduProgram.sol\":3322:3768  EduProgram({... */\n      0xffffffffffffffffffffffffffffffffffffffff\n      and\n      dup2\n      mstore\n      pop\n        /* \"contracts/LdEduProgram.sol\":3297:3308  eduPrograms */\n      0x02\n        /* \"contracts/LdEduProgram.sol\":3297:3319  eduPrograms[programId] */\n      0x00\n        /* \"contracts/LdEduProgram.sol\":3309:3318  programId */\n      dup4\n        /* \"contracts/LdEduProgram.sol\":3297:3319  eduPrograms[programId] */\n      dup2\n      mstore\n      0x20\n      add\n      swap1\n      dup2\n      mstore\n      0x20\n      add\n      0x00\n      keccak256\n        /* \"contracts/LdEduProgram.sol\":3297:3768  eduPrograms[programId] = EduProgram({... */\n      0x00\n      dup3\n      add\n      mload\n      dup2\n      0x00\n      add\n      sstore\n      0x20\n      dup3\n      add\n      mload\n      dup2\n      0x01\n      add\n      swap1\n      dup2\n      tag_174\n      swap2\n      swap1\n      tag_175\n      jump\t// in\n    tag_174:\n      pop\n      0x40\n      dup3\n      add\n      mload\n      dup2\n      0x02\n      add\n      swap1\n      dup1\n      mload\n      swap1\n      0x20\n      add\n      swap1\n      tag_176\n      swap3\n      swap2\n      swap1\n      tag_177\n      jump\t// in\n    tag_176:\n      pop\n      0x60\n      dup3\n      add\n      mload\n      dup2\n      0x03\n      add\n      sstore\n      0x80\n      dup3\n      add\n      mload\n      dup2\n      0x04\n      add\n      sstore\n      0xa0\n      dup3\n      add\n      mload\n      dup2\n      0x05\n      add\n      sstore\n      0xc0\n      dup3\n      add\n      mload\n      dup2\n      0x06\n      add\n      swap1\n      dup2\n      tag_178\n      swap2\n      swap1\n      tag_175\n      jump\t// in\n    tag_178:\n      pop\n      0xe0\n      dup3\n      add\n      mload\n      dup2\n      0x07\n      add\n      swap1\n      dup2\n      tag_179\n      swap2\n      swap1\n      tag_175\n      jump\t// in\n    tag_179:\n      pop\n      0x0100\n      dup3\n      add\n      mload\n      dup2\n      0x08\n      add\n      swap1\n      dup1\n      mload\n      swap1\n      0x20\n      add\n      swap1\n      tag_180\n      swap3\n      swap2\n      swap1\n      tag_177\n      jump\t// in\n    tag_180:\n      pop\n      0x0120\n      dup3\n      add\n      mload\n      dup2\n      0x09\n      add\n      exp(0x0100, 0x00)\n      dup2\n      sload\n      dup2\n      0xffffffffffffffffffffffffffffffffffffffff\n      mul\n      not\n      and\n      swap1\n      dup4\n      0xffffffffffffffffffffffffffffffffffffffff\n      and\n      mul\n      or\n      swap1\n      sstore\n      pop\n      0x0140\n      dup3\n      add\n      mload\n      dup2\n      0x0a\n      add\n      exp(0x0100, 0x00)\n      dup2\n      sload\n      dup2\n      0xffffffffffffffffffffffffffffffffffffffff\n      mul\n      not\n      and\n      swap1\n      dup4\n      0xffffffffffffffffffffffffffffffffffffffff\n      and\n      mul\n      or\n      swap1\n      sstore\n      pop\n      0x0160\n      dup3\n      add\n      mload\n      dup2\n      0x0a\n      add\n      exp(0x0100, 0x14)\n      dup2\n      sload\n      dup2\n      0xff\n      mul\n      not\n      and\n      swap1\n      dup4\n      iszero\n      iszero\n      mul\n      or\n      swap1\n      sstore\n      pop\n      0x0180\n      dup3\n      add\n      mload\n      dup2\n      0x0a\n      add\n      exp(0x0100, 0x15)\n      dup2\n      sload\n      dup2\n      0xff\n      mul\n      not\n      and\n      swap1\n      dup4\n      iszero\n      iszero\n      mul\n      or\n      swap1\n      sstore\n      pop\n      0x01a0\n      dup3\n      add\n      mload\n      dup2\n      0x0b\n      add\n      exp(0x0100, 0x00)\n      dup2\n      sload\n      dup2\n      0xffffffffffffffffffffffffffffffffffffffff\n      mul\n      not\n      and\n      swap1\n      dup4\n      0xffffffffffffffffffffffffffffffffffffffff\n      and\n      mul\n      or\n      swap1\n      sstore\n      pop\n      swap1\n      pop\n      pop\n        /* \"contracts/LdEduProgram.sol\":3787:3800  nextProgramId */\n      0x04\n      0x00\n        /* \"contracts/LdEduProgram.sol\":3787:3802  nextProgramId++ */\n      dup2\n      sload\n      dup1\n      swap3\n      swap2\n      swap1\n      tag_181\n      swap1\n      tag_182\n      jump\t// in\n    tag_181:\n      swap2\n      swap1\n      pop\n      sstore\n      pop\n        /* \"contracts/LdEduProgram.sol\":3855:3865  _validator */\n      dup6\n        /* \"contracts/LdEduProgram.sol\":3817:3882  ProgramCreated(programId, msg.sender, _validator, _price, _token) */\n      0xffffffffffffffffffffffffffffffffffffffff\n      and\n        /* \"contracts/LdEduProgram.sol\":3843:3853  msg.sender */\n      caller\n        /* \"contracts/LdEduProgram.sol\":3817:3882  ProgramCreated(programId, msg.sender, _validator, _price, _token) */\n      0xffffffffffffffffffffffffffffffffffffffff\n      and\n        /* \"contracts/LdEduProgram.sol\":3832:3841  programId */\n      dup3\n        /* \"contracts/LdEduProgram.sol\":3817:3882  ProgramCreated(programId, msg.sender, _validator, _price, _token) */\n      0xdd511ba7adfc2d92b666c725a9d6073b35763fe9017f7b3c0c75767e25b0f2cc\n        /* \"contracts/LdEduProgram.sol\":3867:3873  _price */\n      dup14\n        /* \"contracts/LdEduProgram.sol\":3875:3881  _token */\n      dup7\n        /* \"contracts/LdEduProgram.sol\":3817:3882  ProgramCreated(programId, msg.sender, _validator, _price, _token) */\n      mload(0x40)\n      tag_183\n      swap3\n      swap2\n      swap1\n      tag_184\n      jump\t// in\n    tag_183:\n      mload(0x40)\n      dup1\n      swap2\n      sub\n      swap1\n      log4\n        /* \"contracts/LdEduProgram.sol\":2638:3889  {... */\n      pop\n        /* \"contracts/LdEduProgram.sol\":2253:3889  function createEduProgram(... */\n      pop\n      pop\n      pop\n      pop\n      pop\n      pop\n      pop\n      pop\n      pop\n      pop\n      jump\t// out\n        /* \"contracts/LdEduProgram.sol\":5897:6525  function updateProgram(... */\n    tag_58:\n        /* \"contracts/LdEduProgram.sol\":6077:6103  EduProgram storage program */\n      0x00\n        /* \"contracts/LdEduProgram.sol\":6106:6117  eduPrograms */\n      0x02\n        /* \"contracts/LdEduProgram.sol\":6106:6128  eduPrograms[programId] */\n      0x00\n        /* \"contracts/LdEduProgram.sol\":6118:6127  programId */\n      dup8\n        /* \"contracts/LdEduProgram.sol\":6106:6128  eduPrograms[programId] */\n      dup2\n      mstore\n      0x20\n      add\n      swap1\n      dup2\n      mstore\n      0x20\n      add\n      0x00\n      keccak256\n        /* \"contracts/LdEduProgram.sol\":6077:6128  EduProgram storage program = eduPrograms[programId] */\n      swap1\n      pop\n        /* \"contracts/LdEduProgram.sol\":6160:6167  program */\n      dup1\n        /* \"contracts/LdEduProgram.sol\":6160:6173  program.maker */\n      0x09\n      add\n      0x00\n      swap1\n      sload\n      swap1\n      0x0100\n      exp\n      swap1\n      div\n      0xffffffffffffffffffffffffffffffffffffffff\n      and\n        /* \"contracts/LdEduProgram.sol\":6146:6173  msg.sender == program.maker */\n      0xffffffffffffffffffffffffffffffffffffffff\n      and\n        /* \"contracts/LdEduProgram.sol\":6146:6156  msg.sender */\n      caller\n        /* \"contracts/LdEduProgram.sol\":6146:6173  msg.sender == program.maker */\n      0xffffffffffffffffffffffffffffffffffffffff\n      and\n      eq\n        /* \"contracts/LdEduProgram.sol\":6138:6190  require(msg.sender == program.maker, \"Only creator\") */\n      tag_186\n      jumpi\n      mload(0x40)\n      0x08c379a000000000000000000000000000000000000000000000000000000000\n      dup2\n      mstore\n      0x04\n      add\n      tag_187\n      swap1\n      tag_188\n      jump\t// in\n    tag_187:\n      mload(0x40)\n      dup1\n      swap2\n      sub\n      swap1\n      revert\n    tag_186:\n        /* \"contracts/LdEduProgram.sol\":6220:6227  endTime */\n      dup3\n        /* \"contracts/LdEduProgram.sol\":6208:6217  startTime */\n      dup5\n        /* \"contracts/LdEduProgram.sol\":6208:6227  startTime < endTime */\n      lt\n        /* \"contracts/LdEduProgram.sol\":6200:6244  require(startTime < endTime, \"Invalid time\") */\n      tag_189\n      jumpi\n      mload(0x40)\n      0x08c379a000000000000000000000000000000000000000000000000000000000\n      dup2\n      mstore\n      0x04\n      add\n      tag_190\n      swap1\n      tag_191\n      jump\t// in\n    tag_190:\n      mload(0x40)\n      dup1\n      swap2\n      sub\n      swap1\n      revert\n    tag_189:\n        /* \"contracts/LdEduProgram.sol\":6270:6271  0 */\n      0x00\n        /* \"contracts/LdEduProgram.sol\":6262:6267  price */\n      dup6\n        /* \"contracts/LdEduProgram.sol\":6262:6271  price > 0 */\n      gt\n        /* \"contracts/LdEduProgram.sol\":6254:6289  require(price > 0, \"Invalid price\") */\n      tag_192\n      jumpi\n      mload(0x40)\n      0x08c379a000000000000000000000000000000000000000000000000000000000\n      dup2\n      mstore\n      0x04\n      add\n      tag_193\n      swap1\n      tag_194\n      jump\t// in\n    tag_193:\n      mload(0x40)\n      dup1\n      swap2\n      sub\n      swap1\n      revert\n    tag_192:\n        /* \"contracts/LdEduProgram.sol\":6316:6321  price */\n      dup5\n        /* \"contracts/LdEduProgram.sol\":6300:6307  program */\n      dup2\n        /* \"contracts/LdEduProgram.sol\":6300:6313  program.price */\n      0x03\n      add\n        /* \"contracts/LdEduProgram.sol\":6300:6321  program.price = price */\n      dup2\n      swap1\n      sstore\n      pop\n        /* \"contracts/LdEduProgram.sol\":6351:6360  startTime */\n      dup4\n        /* \"contracts/LdEduProgram.sol\":6331:6338  program */\n      dup2\n        /* \"contracts/LdEduProgram.sol\":6331:6348  program.startTime */\n      0x04\n      add\n        /* \"contracts/LdEduProgram.sol\":6331:6360  program.startTime = startTime */\n      dup2\n      swap1\n      sstore\n      pop\n        /* \"contracts/LdEduProgram.sol\":6388:6395  endTime */\n      dup3\n        /* \"contracts/LdEduProgram.sol\":6370:6377  program */\n      dup2\n        /* \"contracts/LdEduProgram.sol\":6370:6385  program.endTime */\n      0x05\n      add\n        /* \"contracts/LdEduProgram.sol\":6370:6395  program.endTime = endTime */\n      dup2\n      swap1\n      sstore\n      pop\n        /* \"contracts/LdEduProgram.sol\":6425:6437  newValidator */\n      dup2\n        /* \"contracts/LdEduProgram.sol\":6405:6412  program */\n      dup2\n        /* \"contracts/LdEduProgram.sol\":6405:6422  program.validator */\n      0x0a\n      add\n      0x00\n        /* \"contracts/LdEduProgram.sol\":6405:6437  program.validator = newValidator */\n      0x0100\n      exp\n      dup2\n      sload\n      dup2\n      0xffffffffffffffffffffffffffffffffffffffff\n      mul\n      not\n      and\n      swap1\n      dup4\n      0xffffffffffffffffffffffffffffffffffffffff\n      and\n      mul\n      or\n      swap1\n      sstore\n      pop\n        /* \"contracts/LdEduProgram.sol\":6453:6518  ProgramEdited(programId, price, startTime, endTime, newValidator) */\n      0xe3d59d03839a10c8a5a85dd0d7e5a4ac45445821c5176529d2745adf6915a161\n        /* \"contracts/LdEduProgram.sol\":6467:6476  programId */\n      dup7\n        /* \"contracts/LdEduProgram.sol\":6478:6483  price */\n      dup7\n        /* \"contracts/LdEduProgram.sol\":6485:6494  startTime */\n      dup7\n        /* \"contracts/LdEduProgram.sol\":6496:6503  endTime */\n      dup7\n        /* \"contracts/LdEduProgram.sol\":6505:6517  newValidator */\n      dup7\n        /* \"contracts/LdEduProgram.sol\":6453:6518  ProgramEdited(programId, price, startTime, endTime, newValidator) */\n      mload(0x40)\n      tag_195\n      swap6\n      swap5\n      swap4\n      swap3\n      swap2\n      swap1\n      tag_196\n      jump\t// in\n    tag_195:\n      mload(0x40)\n      dup1\n      swap2\n      sub\n      swap1\n      log1\n        /* \"contracts/LdEduProgram.sol\":6067:6525  {... */\n      pop\n        /* \"contracts/LdEduProgram.sol\":5897:6525  function updateProgram(... */\n      pop\n      pop\n      pop\n      pop\n      pop\n      jump\t// out\n        /* \"@openzeppelin/contracts/access/Ownable.sol\":1201:1286  function owner() public view virtual returns (address) {... */\n    tag_61:\n        /* \"@openzeppelin/contracts/access/Ownable.sol\":1247:1254  address */\n      0x00\n        /* \"@openzeppelin/contracts/access/Ownable.sol\":1273:1279  _owner */\n      0x00\n      0x00\n      swap1\n      sload\n      swap1\n      0x0100\n      exp\n      swap1\n      div\n      0xffffffffffffffffffffffffffffffffffffffff\n      and\n        /* \"@openzeppelin/contracts/access/Ownable.sol\":1266:1279  return _owner */\n      swap1\n      pop\n        /* \"@openzeppelin/contracts/access/Ownable.sol\":1201:1286  function owner() public view virtual returns (address) {... */\n      swap1\n      jump\t// out\n        /* \"contracts/LdEduProgram.sol\":6784:7108  function emergencyWithdraw(address token, uint256 amount) external onlyOwner {... */\n    tag_68:\n        /* \"@openzeppelin/contracts/access/Ownable.sol\":1094:1107  _checkOwner() */\n      tag_199\n        /* \"@openzeppelin/contracts/access/Ownable.sol\":1094:1105  _checkOwner */\n      tag_146\n        /* \"@openzeppelin/contracts/access/Ownable.sol\":1094:1107  _checkOwner() */\n      jump\t// in\n    tag_199:\n        /* \"contracts/LdEduProgram.sol\":1883:1884  0 */\n      0x00\n        /* \"contracts/LdEduProgram.sol\":6875:6895  token == ETH_ADDRESS */\n      0xffffffffffffffffffffffffffffffffffffffff\n      and\n        /* \"contracts/LdEduProgram.sol\":6875:6880  token */\n      dup3\n        /* \"contracts/LdEduProgram.sol\":6875:6895  token == ETH_ADDRESS */\n      0xffffffffffffffffffffffffffffffffffffffff\n      and\n      sub\n        /* \"contracts/LdEduProgram.sol\":6871:7102  if (token == ETH_ADDRESS) {... */\n      tag_201\n      jumpi\n        /* \"contracts/LdEduProgram.sol\":6912:6921  bool sent */\n      0x00\n        /* \"contracts/LdEduProgram.sol\":6935:6942  owner() */\n      tag_202\n        /* \"contracts/LdEduProgram.sol\":6935:6940  owner */\n      tag_61\n        /* \"contracts/LdEduProgram.sol\":6935:6942  owner() */\n      jump\t// in\n    tag_202:\n        /* \"contracts/LdEduProgram.sol\":6927:6948  payable(owner()).call */\n      0xffffffffffffffffffffffffffffffffffffffff\n      and\n        /* \"contracts/LdEduProgram.sol\":6956:6962  amount */\n      dup3\n        /* \"contracts/LdEduProgram.sol\":6927:6967  payable(owner()).call{value: amount}(\"\") */\n      mload(0x40)\n      tag_203\n      swap1\n      tag_204\n      jump\t// in\n    tag_203:\n      0x00\n      mload(0x40)\n      dup1\n      dup4\n      sub\n      dup2\n      dup6\n      dup8\n      gas\n      call\n      swap3\n      pop\n      pop\n      pop\n      returndatasize\n      dup1\n      0x00\n      dup2\n      eq\n      tag_207\n      jumpi\n      mload(0x40)\n      swap2\n      pop\n      and(add(returndatasize, 0x3f), not(0x1f))\n      dup3\n      add\n      0x40\n      mstore\n      returndatasize\n      dup3\n      mstore\n      returndatasize\n      0x00\n      0x20\n      dup5\n      add\n      returndatacopy\n      jump(tag_206)\n    tag_207:\n      0x60\n      swap2\n      pop\n    tag_206:\n      pop\n        /* \"contracts/LdEduProgram.sol\":6911:6967  (bool sent, ) = payable(owner()).call{value: amount}(\"\") */\n      pop\n      swap1\n      pop\n        /* \"contracts/LdEduProgram.sol\":6989:6993  sent */\n      dup1\n        /* \"contracts/LdEduProgram.sol\":6981:7017  require(sent, \"ETH transfer failed\") */\n      tag_208\n      jumpi\n      mload(0x40)\n      0x08c379a000000000000000000000000000000000000000000000000000000000\n      dup2\n      mstore\n      0x04\n      add\n      tag_209\n      swap1\n      tag_210\n      jump\t// in\n    tag_209:\n      mload(0x40)\n      dup1\n      swap2\n      sub\n      swap1\n      revert\n    tag_208:\n        /* \"contracts/LdEduProgram.sol\":6897:7028  {... */\n      pop\n        /* \"contracts/LdEduProgram.sol\":6871:7102  if (token == ETH_ADDRESS) {... */\n      jump(tag_211)\n    tag_201:\n        /* \"contracts/LdEduProgram.sol\":7048:7091  IERC20(token).safeTransfer(owner(), amount) */\n      tag_212\n        /* \"contracts/LdEduProgram.sol\":7075:7082  owner() */\n      tag_213\n        /* \"contracts/LdEduProgram.sol\":7075:7080  owner */\n      tag_61\n        /* \"contracts/LdEduProgram.sol\":7075:7082  owner() */\n      jump\t// in\n    tag_213:\n        /* \"contracts/LdEduProgram.sol\":7084:7090  amount */\n      dup3\n        /* \"contracts/LdEduProgram.sol\":7055:7060  token */\n      dup5\n        /* \"contracts/LdEduProgram.sol\":7048:7074  IERC20(token).safeTransfer */\n      0xffffffffffffffffffffffffffffffffffffffff\n      and\n      tag_214\n      swap1\n        /* \"contracts/LdEduProgram.sol\":7048:7091  IERC20(token).safeTransfer(owner(), amount) */\n      swap3\n      swap2\n      swap1\n      0xffffffff\n      and\n      jump\t// in\n    tag_212:\n        /* \"contracts/LdEduProgram.sol\":6871:7102  if (token == ETH_ADDRESS) {... */\n    tag_211:\n        /* \"contracts/LdEduProgram.sol\":6784:7108  function emergencyWithdraw(address token, uint256 amount) external onlyOwner {... */\n      pop\n      pop\n      jump\t// out\n        /* \"contracts/LdEduProgram.sol\":7434:7917  function getProgramDetails(uint256 programId) external view returns (... */\n    tag_72:\n        /* \"contracts/LdEduProgram.sol\":7512:7530  string memory name */\n      0x60\n        /* \"contracts/LdEduProgram.sol\":7540:7553  uint256 price */\n      0x00\n        /* \"contracts/LdEduProgram.sol\":7563:7576  address maker */\n      0x00\n        /* \"contracts/LdEduProgram.sol\":7586:7603  address validator */\n      0x00\n        /* \"contracts/LdEduProgram.sol\":7613:7626  address token */\n      0x00\n        /* \"contracts/LdEduProgram.sol\":7636:7648  bool claimed */\n      0x00\n        /* \"contracts/LdEduProgram.sol\":7665:7691  EduProgram storage program */\n      0x00\n        /* \"contracts/LdEduProgram.sol\":7694:7705  eduPrograms */\n      0x02\n        /* \"contracts/LdEduProgram.sol\":7694:7716  eduPrograms[programId] */\n      0x00\n        /* \"contracts/LdEduProgram.sol\":7706:7715  programId */\n      dup10\n        /* \"contracts/LdEduProgram.sol\":7694:7716  eduPrograms[programId] */\n      dup2\n      mstore\n      0x20\n      add\n      swap1\n      dup2\n      mstore\n      0x20\n      add\n      0x00\n      keccak256\n        /* \"contracts/LdEduProgram.sol\":7665:7716  EduProgram storage program = eduPrograms[programId] */\n      swap1\n      pop\n        /* \"contracts/LdEduProgram.sol\":7747:7754  program */\n      dup1\n        /* \"contracts/LdEduProgram.sol\":7747:7759  program.name */\n      0x01\n      add\n        /* \"contracts/LdEduProgram.sol\":7773:7780  program */\n      dup2\n        /* \"contracts/LdEduProgram.sol\":7773:7786  program.price */\n      0x03\n      add\n      sload\n        /* \"contracts/LdEduProgram.sol\":7800:7807  program */\n      dup3\n        /* \"contracts/LdEduProgram.sol\":7800:7813  program.maker */\n      0x09\n      add\n      0x00\n      swap1\n      sload\n      swap1\n      0x0100\n      exp\n      swap1\n      div\n      0xffffffffffffffffffffffffffffffffffffffff\n      and\n        /* \"contracts/LdEduProgram.sol\":7827:7834  program */\n      dup4\n        /* \"contracts/LdEduProgram.sol\":7827:7844  program.validator */\n      0x0a\n      add\n      0x00\n      swap1\n      sload\n      swap1\n      0x0100\n      exp\n      swap1\n      div\n      0xffffffffffffffffffffffffffffffffffffffff\n      and\n        /* \"contracts/LdEduProgram.sol\":7858:7865  program */\n      dup5\n        /* \"contracts/LdEduProgram.sol\":7858:7871  program.token */\n      0x0b\n      add\n      0x00\n      swap1\n      sload\n      swap1\n      0x0100\n      exp\n      swap1\n      div\n      0xffffffffffffffffffffffffffffffffffffffff\n      and\n        /* \"contracts/LdEduProgram.sol\":7885:7892  program */\n      dup6\n        /* \"contracts/LdEduProgram.sol\":7885:7900  program.claimed */\n      0x0a\n      add\n      0x15\n      swap1\n      sload\n      swap1\n      0x0100\n      exp\n      swap1\n      div\n      0xff\n      and\n        /* \"contracts/LdEduProgram.sol\":7726:7910  return (... */\n      dup6\n      dup1\n      sload\n      tag_216\n      swap1\n      tag_122\n      jump\t// in\n    tag_216:\n      dup1\n      0x1f\n      add\n      0x20\n      dup1\n      swap2\n      div\n      mul\n      0x20\n      add\n      mload(0x40)\n      swap1\n      dup2\n      add\n      0x40\n      mstore\n      dup1\n      swap3\n      swap2\n      swap1\n      dup2\n      dup2\n      mstore\n      0x20\n      add\n      dup3\n      dup1\n      sload\n      tag_217\n      swap1\n      tag_122\n      jump\t// in\n    tag_217:\n      dup1\n      iszero\n      tag_218\n      jumpi\n      dup1\n      0x1f\n      lt\n      tag_219\n      jumpi\n      0x0100\n      dup1\n      dup4\n      sload\n      div\n      mul\n      dup4\n      mstore\n      swap2\n      0x20\n      add\n      swap2\n      jump(tag_218)\n    tag_219:\n      dup3\n      add\n      swap2\n      swap1\n      0x00\n      mstore\n      keccak256(0x00, 0x20)\n      swap1\n    tag_220:\n      dup2\n      sload\n      dup2\n      mstore\n      swap1\n      0x01\n      add\n      swap1\n      0x20\n      add\n      dup1\n      dup4\n      gt\n      tag_220\n      jumpi\n      dup3\n      swap1\n      sub\n      0x1f\n      and\n      dup3\n      add\n      swap2\n    tag_218:\n      pop\n      pop\n      pop\n      pop\n      pop\n      swap6\n      pop\n      swap7\n      pop\n      swap7\n      pop\n      swap7\n      pop\n      swap7\n      pop\n      swap7\n      pop\n      swap7\n      pop\n      pop\n        /* \"contracts/LdEduProgram.sol\":7434:7917  function getProgramDetails(uint256 programId) external view returns (... */\n      swap2\n      swap4\n      swap6\n      pop\n      swap2\n      swap4\n      swap6\n      jump\t// out\n        /* \"contracts/LdEduProgram.sol\":1837:1885  address public constant ETH_ADDRESS = address(0) */\n    tag_77:\n        /* \"contracts/LdEduProgram.sol\":1883:1884  0 */\n      0x00\n        /* \"contracts/LdEduProgram.sol\":1837:1885  address public constant ETH_ADDRESS = address(0) */\n      dup2\n      jump\t// out\n        /* \"contracts/LdEduProgram.sol\":1743:1771  uint256 public nextProgramId */\n    tag_81:\n      sload(0x04)\n      dup2\n      jump\t// out\n        /* \"contracts/LdEduProgram.sol\":2077:2247  function setTokenWhitelist(address token, bool status) external onlyOwner {... */\n    tag_87:\n        /* \"@openzeppelin/contracts/access/Ownable.sol\":1094:1107  _checkOwner() */\n      tag_222\n        /* \"@openzeppelin/contracts/access/Ownable.sol\":1094:1105  _checkOwner */\n      tag_146\n        /* \"@openzeppelin/contracts/access/Ownable.sol\":1094:1107  _checkOwner() */\n      jump\t// in\n    tag_222:\n        /* \"contracts/LdEduProgram.sol\":2188:2194  status */\n      dup1\n        /* \"contracts/LdEduProgram.sol\":2161:2178  whitelistedTokens */\n      0x03\n        /* \"contracts/LdEduProgram.sol\":2161:2185  whitelistedTokens[token] */\n      0x00\n        /* \"contracts/LdEduProgram.sol\":2179:2184  token */\n      dup5\n        /* \"contracts/LdEduProgram.sol\":2161:2185  whitelistedTokens[token] */\n      0xffffffffffffffffffffffffffffffffffffffff\n      and\n      0xffffffffffffffffffffffffffffffffffffffff\n      and\n      dup2\n      mstore\n      0x20\n      add\n      swap1\n      dup2\n      mstore\n      0x20\n      add\n      0x00\n      keccak256\n      0x00\n        /* \"contracts/LdEduProgram.sol\":2161:2194  whitelistedTokens[token] = status */\n      0x0100\n      exp\n      dup2\n      sload\n      dup2\n      0xff\n      mul\n      not\n      and\n      swap1\n      dup4\n      iszero\n      iszero\n      mul\n      or\n      swap1\n      sstore\n      pop\n        /* \"contracts/LdEduProgram.sol\":2209:2240  TokenWhitelisted(token, status) */\n      0xef81a9943b96c8df4ef243401c9bf5159146166211356898b52d382086168d92\n        /* \"contracts/LdEduProgram.sol\":2226:2231  token */\n      dup3\n        /* \"contracts/LdEduProgram.sol\":2233:2239  status */\n      dup3\n        /* \"contracts/LdEduProgram.sol\":2209:2240  TokenWhitelisted(token, status) */\n      mload(0x40)\n      tag_224\n      swap3\n      swap2\n      swap1\n      tag_225\n      jump\t// in\n    tag_224:\n      mload(0x40)\n      dup1\n      swap2\n      sub\n      swap1\n      log1\n        /* \"contracts/LdEduProgram.sol\":2077:2247  function setTokenWhitelist(address token, bool status) external onlyOwner {... */\n      pop\n      pop\n      jump\t// out\n        /* \"contracts/LdEduProgram.sol\":6644:6721  function getFee() external view returns (uint256) {... */\n    tag_90:\n        /* \"contracts/LdEduProgram.sol\":6685:6692  uint256 */\n      0x00\n        /* \"contracts/LdEduProgram.sol\":6711:6714  fee */\n      sload(0x05)\n        /* \"contracts/LdEduProgram.sol\":6704:6714  return fee */\n      swap1\n      pop\n        /* \"contracts/LdEduProgram.sol\":6644:6721  function getFee() external view returns (uint256) {... */\n      swap1\n      jump\t// out\n        /* \"contracts/LdEduProgram.sol\":1610:1659  mapping(uint256 => EduProgram) public eduPrograms */\n    tag_95:\n      mstore(0x20, 0x02)\n      dup1\n      0x00\n      mstore\n      keccak256(0x00, 0x40)\n      0x00\n      swap2\n      pop\n      swap1\n      pop\n      dup1\n      0x00\n      add\n      sload\n      swap1\n      dup1\n      0x01\n      add\n      dup1\n      sload\n      tag_227\n      swap1\n      tag_122\n      jump\t// in\n    tag_227:\n      dup1\n      0x1f\n      add\n      0x20\n      dup1\n      swap2\n      div\n      mul\n      0x20\n      add\n      mload(0x40)\n      swap1\n      dup2\n      add\n      0x40\n      mstore\n      dup1\n      swap3\n      swap2\n      swap1\n      dup2\n      dup2\n      mstore\n      0x20\n      add\n      dup3\n      dup1\n      sload\n      tag_228\n      swap1\n      tag_122\n      jump\t// in\n    tag_228:\n      dup1\n      iszero\n      tag_229\n      jumpi\n      dup1\n      0x1f\n      lt\n      tag_230\n      jumpi\n      0x0100\n      dup1\n      dup4\n      sload\n      div\n      mul\n      dup4\n      mstore\n      swap2\n      0x20\n      add\n      swap2\n      jump(tag_229)\n    tag_230:\n      dup3\n      add\n      swap2\n      swap1\n      0x00\n      mstore\n      keccak256(0x00, 0x20)\n      swap1\n    tag_231:\n      dup2\n      sload\n      dup2\n      mstore\n      swap1\n      0x01\n      add\n      swap1\n      0x20\n      add\n      dup1\n      dup4\n      gt\n      tag_231\n      jumpi\n      dup3\n      swap1\n      sub\n      0x1f\n      and\n      dup3\n      add\n      swap2\n    tag_229:\n      pop\n      pop\n      pop\n      pop\n      pop\n      swap1\n      dup1\n      0x03\n      add\n      sload\n      swap1\n      dup1\n      0x04\n      add\n      sload\n      swap1\n      dup1\n      0x05\n      add\n      sload\n      swap1\n      dup1\n      0x06\n      add\n      dup1\n      sload\n      tag_232\n      swap1\n      tag_122\n      jump\t// in\n    tag_232:\n      dup1\n      0x1f\n      add\n      0x20\n      dup1\n      swap2\n      div\n      mul\n      0x20\n      add\n      mload(0x40)\n      swap1\n      dup2\n      add\n      0x40\n      mstore\n      dup1\n      swap3\n      swap2\n      swap1\n      dup2\n      dup2\n      mstore\n      0x20\n      add\n      dup3\n      dup1\n      sload\n      tag_233\n      swap1\n      tag_122\n      jump\t// in\n    tag_233:\n      dup1\n      iszero\n      tag_234\n      jumpi\n      dup1\n      0x1f\n      lt\n      tag_235\n      jumpi\n      0x0100\n      dup1\n      dup4\n      sload\n      div\n      mul\n      dup4\n      mstore\n      swap2\n      0x20\n      add\n      swap2\n      jump(tag_234)\n    tag_235:\n      dup3\n      add\n      swap2\n      swap1\n      0x00\n      mstore\n      keccak256(0x00, 0x20)\n      swap1\n    tag_236:\n      dup2\n      sload\n      dup2\n      mstore\n      swap1\n      0x01\n      add\n      swap1\n      0x20\n      add\n      dup1\n      dup4\n      gt\n      tag_236\n      jumpi\n      dup3\n      swap1\n      sub\n      0x1f\n      and\n      dup3\n      add\n      swap2\n    tag_234:\n      pop\n      pop\n      pop\n      pop\n      pop\n      swap1\n      dup1\n      0x07\n      add\n      dup1\n      sload\n      tag_237\n      swap1\n      tag_122\n      jump\t// in\n    tag_237:\n      dup1\n      0x1f\n      add\n      0x20\n      dup1\n      swap2\n      div\n      mul\n      0x20\n      add\n      mload(0x40)\n      swap1\n      dup2\n      add\n      0x40\n      mstore\n      dup1\n      swap3\n      swap2\n      swap1\n      dup2\n      dup2\n      mstore\n      0x20\n      add\n      dup3\n      dup1\n      sload\n      tag_238\n      swap1\n      tag_122\n      jump\t// in\n    tag_238:\n      dup1\n      iszero\n      tag_239\n      jumpi\n      dup1\n      0x1f\n      lt\n      tag_240\n      jumpi\n      0x0100\n      dup1\n      dup4\n      sload\n      div\n      mul\n      dup4\n      mstore\n      swap2\n      0x20\n      add\n      swap2\n      jump(tag_239)\n    tag_240:\n      dup3\n      add\n      swap2\n      swap1\n      0x00\n      mstore\n      keccak256(0x00, 0x20)\n      swap1\n    tag_241:\n      dup2\n      sload\n      dup2\n      mstore\n      swap1\n      0x01\n      add\n      swap1\n      0x20\n      add\n      dup1\n      dup4\n      gt\n      tag_241\n      jumpi\n      dup3\n      swap1\n      sub\n      0x1f\n      and\n      dup3\n      add\n      swap2\n    tag_239:\n      pop\n      pop\n      pop\n      pop\n      pop\n      swap1\n      dup1\n      0x09\n      add\n      0x00\n      swap1\n      sload\n      swap1\n      0x0100\n      exp\n      swap1\n      div\n      0xffffffffffffffffffffffffffffffffffffffff\n      and\n      swap1\n      dup1\n      0x0a\n      add\n      0x00\n      swap1\n      sload\n      swap1\n      0x0100\n      exp\n      swap1\n      div\n      0xffffffffffffffffffffffffffffffffffffffff\n      and\n      swap1\n      dup1\n      0x0a\n      add\n      0x14\n      swap1\n      sload\n      swap1\n      0x0100\n      exp\n      swap1\n      div\n      0xff\n      and\n      swap1\n      dup1\n      0x0a\n      add\n      0x15\n      swap1\n      sload\n      swap1\n      0x0100\n      exp\n      swap1\n      div\n      0xff\n      and\n      swap1\n      dup1\n      0x0b\n      add\n      0x00\n      swap1\n      sload\n      swap1\n      0x0100\n      exp\n      swap1\n      div\n      0xffffffffffffffffffffffffffffffffffffffff\n      and\n      swap1\n      pop\n      dup13\n      jump\t// out\n        /* \"contracts/LdEduProgram.sol\":1665:1714  mapping(address => bool) public whitelistedTokens */\n    tag_101:\n      mstore(0x20, 0x03)\n      dup1\n      0x00\n      mstore\n      keccak256(0x00, 0x40)\n      0x00\n      swap2\n      pop\n      sload\n      swap1\n      0x0100\n      exp\n      swap1\n      div\n      0xff\n      and\n      dup2\n      jump\t// out\n        /* \"contracts/LdEduProgram.sol\":3895:4938  function acceptMilestone(... */\n    tag_108:\n        /* \"@openzeppelin/contracts/security/ReentrancyGuard.sol\":2261:2282  _nonReentrantBefore() */\n      tag_243\n        /* \"@openzeppelin/contracts/security/ReentrancyGuard.sol\":2261:2280  _nonReentrantBefore */\n      tag_244\n        /* \"@openzeppelin/contracts/security/ReentrancyGuard.sol\":2261:2282  _nonReentrantBefore() */\n      jump\t// in\n    tag_243:\n        /* \"contracts/LdEduProgram.sol\":4069:4095  EduProgram storage program */\n      0x00\n        /* \"contracts/LdEduProgram.sol\":4098:4109  eduPrograms */\n      0x02\n        /* \"contracts/LdEduProgram.sol\":4098:4120  eduPrograms[programId] */\n      0x00\n        /* \"contracts/LdEduProgram.sol\":4110:4119  programId */\n      dup7\n        /* \"contracts/LdEduProgram.sol\":4098:4120  eduPrograms[programId] */\n      dup2\n      mstore\n      0x20\n      add\n      swap1\n      dup2\n      mstore\n      0x20\n      add\n      0x00\n      keccak256\n        /* \"contracts/LdEduProgram.sol\":4069:4120  EduProgram storage program = eduPrograms[programId] */\n      swap1\n      pop\n        /* \"contracts/LdEduProgram.sol\":4152:4159  program */\n      dup1\n        /* \"contracts/LdEduProgram.sol\":4152:4169  program.validator */\n      0x0a\n      add\n      0x00\n      swap1\n      sload\n      swap1\n      0x0100\n      exp\n      swap1\n      div\n      0xffffffffffffffffffffffffffffffffffffffff\n      and\n        /* \"contracts/LdEduProgram.sol\":4138:4169  msg.sender == program.validator */\n      0xffffffffffffffffffffffffffffffffffffffff\n      and\n        /* \"contracts/LdEduProgram.sol\":4138:4148  msg.sender */\n      caller\n        /* \"contracts/LdEduProgram.sol\":4138:4169  msg.sender == program.validator */\n      0xffffffffffffffffffffffffffffffffffffffff\n      and\n      eq\n        /* \"contracts/LdEduProgram.sol\":4130:4187  require(msg.sender == program.validator, \"Not validator\") */\n      tag_246\n      jumpi\n      mload(0x40)\n      0x08c379a000000000000000000000000000000000000000000000000000000000\n      dup2\n      mstore\n      0x04\n      add\n      tag_247\n      swap1\n      tag_248\n      jump\t// in\n    tag_247:\n      mload(0x40)\n      dup1\n      swap2\n      sub\n      swap1\n      revert\n    tag_246:\n        /* \"contracts/LdEduProgram.sol\":4215:4222  program */\n      dup1\n        /* \"contracts/LdEduProgram.sol\":4215:4228  program.price */\n      0x03\n      add\n      sload\n        /* \"contracts/LdEduProgram.sol\":4205:4211  reward */\n      dup3\n        /* \"contracts/LdEduProgram.sol\":4205:4228  reward <= program.price */\n      gt\n      iszero\n        /* \"contracts/LdEduProgram.sol\":4197:4263  require(reward <= program.price, \"Reward exceeds program balance\") */\n      tag_249\n      jumpi\n      mload(0x40)\n      0x08c379a000000000000000000000000000000000000000000000000000000000\n      dup2\n      mstore\n      0x04\n      add\n      tag_250\n      swap1\n      tag_251\n      jump\t// in\n    tag_250:\n      mload(0x40)\n      dup1\n      swap2\n      sub\n      swap1\n      revert\n    tag_249:\n        /* \"contracts/LdEduProgram.sol\":1883:1884  0 */\n      0x00\n        /* \"contracts/LdEduProgram.sol\":4278:4306  program.token == ETH_ADDRESS */\n      0xffffffffffffffffffffffffffffffffffffffff\n      and\n        /* \"contracts/LdEduProgram.sol\":4278:4285  program */\n      dup2\n        /* \"contracts/LdEduProgram.sol\":4278:4291  program.token */\n      0x0b\n      add\n      0x00\n      swap1\n      sload\n      swap1\n      0x0100\n      exp\n      swap1\n      div\n      0xffffffffffffffffffffffffffffffffffffffff\n      and\n        /* \"contracts/LdEduProgram.sol\":4278:4306  program.token == ETH_ADDRESS */\n      0xffffffffffffffffffffffffffffffffffffffff\n      and\n      sub\n        /* \"contracts/LdEduProgram.sol\":4274:4810  if (program.token == ETH_ADDRESS) {... */\n      tag_252\n      jumpi\n        /* \"contracts/LdEduProgram.sol\":4381:4387  reward */\n      dup2\n        /* \"contracts/LdEduProgram.sol\":4356:4377  address(this).balance */\n      selfbalance\n        /* \"contracts/LdEduProgram.sol\":4356:4387  address(this).balance >= reward */\n      lt\n      iszero\n        /* \"contracts/LdEduProgram.sol\":4348:4425  require(address(this).balance >= reward, \"Insufficient contract ETH balance\") */\n      tag_253\n      jumpi\n      mload(0x40)\n      0x08c379a000000000000000000000000000000000000000000000000000000000\n      dup2\n      mstore\n      0x04\n      add\n      tag_254\n      swap1\n      tag_255\n      jump\t// in\n    tag_254:\n      mload(0x40)\n      dup1\n      swap2\n      sub\n      swap1\n      revert\n    tag_253:\n        /* \"contracts/LdEduProgram.sol\":4440:4449  bool sent */\n      0x00\n        /* \"contracts/LdEduProgram.sol\":4463:4470  builder */\n      dup4\n        /* \"contracts/LdEduProgram.sol\":4455:4476  payable(builder).call */\n      0xffffffffffffffffffffffffffffffffffffffff\n      and\n        /* \"contracts/LdEduProgram.sol\":4484:4490  reward */\n      dup4\n        /* \"contracts/LdEduProgram.sol\":4455:4495  payable(builder).call{value: reward}(\"\") */\n      mload(0x40)\n      tag_256\n      swap1\n      tag_204\n      jump\t// in\n    tag_256:\n      0x00\n      mload(0x40)\n      dup1\n      dup4\n      sub\n      dup2\n      dup6\n      dup8\n      gas\n      call\n      swap3\n      pop\n      pop\n      pop\n      returndatasize\n      dup1\n      0x00\n      dup2\n      eq\n      tag_259\n      jumpi\n      mload(0x40)\n      swap2\n      pop\n      and(add(returndatasize, 0x3f), not(0x1f))\n      dup3\n      add\n      0x40\n      mstore\n      returndatasize\n      dup3\n      mstore\n      returndatasize\n      0x00\n      0x20\n      dup5\n      add\n      returndatacopy\n      jump(tag_258)\n    tag_259:\n      0x60\n      swap2\n      pop\n    tag_258:\n      pop\n        /* \"contracts/LdEduProgram.sol\":4439:4495  (bool sent, ) = payable(builder).call{value: reward}(\"\") */\n      pop\n      swap1\n      pop\n        /* \"contracts/LdEduProgram.sol\":4517:4521  sent */\n      dup1\n        /* \"contracts/LdEduProgram.sol\":4509:4545  require(sent, \"ETH transfer failed\") */\n      tag_260\n      jumpi\n      mload(0x40)\n      0x08c379a000000000000000000000000000000000000000000000000000000000\n      dup2\n      mstore\n      0x04\n      add\n      tag_261\n      swap1\n      tag_210\n      jump\t// in\n    tag_261:\n      mload(0x40)\n      dup1\n      swap2\n      sub\n      swap1\n      revert\n    tag_260:\n        /* \"contracts/LdEduProgram.sol\":4308:4556  {... */\n      pop\n        /* \"contracts/LdEduProgram.sol\":4274:4810  if (program.token == ETH_ADDRESS) {... */\n      jump(tag_262)\n    tag_252:\n        /* \"contracts/LdEduProgram.sol\":4612:4624  IERC20 token */\n      0x00\n        /* \"contracts/LdEduProgram.sol\":4634:4641  program */\n      dup2\n        /* \"contracts/LdEduProgram.sol\":4634:4647  program.token */\n      0x0b\n      add\n      0x00\n      swap1\n      sload\n      swap1\n      0x0100\n      exp\n      swap1\n      div\n      0xffffffffffffffffffffffffffffffffffffffff\n      and\n        /* \"contracts/LdEduProgram.sol\":4612:4648  IERC20 token = IERC20(program.token) */\n      swap1\n      pop\n        /* \"contracts/LdEduProgram.sol\":4704:4710  reward */\n      dup3\n        /* \"contracts/LdEduProgram.sol\":4670:4675  token */\n      dup2\n        /* \"contracts/LdEduProgram.sol\":4670:4685  token.balanceOf */\n      0xffffffffffffffffffffffffffffffffffffffff\n      and\n      0x70a08231\n        /* \"contracts/LdEduProgram.sol\":4694:4698  this */\n      address\n        /* \"contracts/LdEduProgram.sol\":4670:4700  token.balanceOf(address(this)) */\n      mload(0x40)\n      dup3\n      0xffffffff\n      and\n      0xe0\n      shl\n      dup2\n      mstore\n      0x04\n      add\n      tag_263\n      swap2\n      swap1\n      tag_63\n      jump\t// in\n    tag_263:\n      0x20\n      mload(0x40)\n      dup1\n      dup4\n      sub\n      dup2\n      dup7\n      gas\n      staticcall\n      iszero\n      dup1\n      iszero\n      tag_265\n      jumpi\n      returndatacopy(0x00, 0x00, returndatasize)\n      revert(0x00, returndatasize)\n    tag_265:\n      pop\n      pop\n      pop\n      pop\n      mload(0x40)\n      returndatasize\n      not(0x1f)\n      0x1f\n      dup3\n      add\n      and\n      dup3\n      add\n      dup1\n      0x40\n      mstore\n      pop\n      dup2\n      add\n      swap1\n      tag_266\n      swap2\n      swap1\n      tag_143\n      jump\t// in\n    tag_266:\n        /* \"contracts/LdEduProgram.sol\":4670:4710  token.balanceOf(address(this)) >= reward */\n      lt\n      iszero\n        /* \"contracts/LdEduProgram.sol\":4662:4750  require(token.balanceOf(address(this)) >= reward, \"Insufficient contract token balance\") */\n      tag_267\n      jumpi\n      mload(0x40)\n      0x08c379a000000000000000000000000000000000000000000000000000000000\n      dup2\n      mstore\n      0x04\n      add\n      tag_268\n      swap1\n      tag_269\n      jump\t// in\n    tag_268:\n      mload(0x40)\n      dup1\n      swap2\n      sub\n      swap1\n      revert\n    tag_267:\n        /* \"contracts/LdEduProgram.sol\":4764:4799  token.safeTransfer(builder, reward) */\n      tag_270\n        /* \"contracts/LdEduProgram.sol\":4783:4790  builder */\n      dup5\n        /* \"contracts/LdEduProgram.sol\":4792:4798  reward */\n      dup5\n        /* \"contracts/LdEduProgram.sol\":4764:4769  token */\n      dup4\n        /* \"contracts/LdEduProgram.sol\":4764:4782  token.safeTransfer */\n      0xffffffffffffffffffffffffffffffffffffffff\n      and\n      tag_214\n      swap1\n        /* \"contracts/LdEduProgram.sol\":4764:4799  token.safeTransfer(builder, reward) */\n      swap3\n      swap2\n      swap1\n      0xffffffff\n      and\n      jump\t// in\n    tag_270:\n        /* \"contracts/LdEduProgram.sol\":4562:4810  {... */\n      pop\n        /* \"contracts/LdEduProgram.sol\":4274:4810  if (program.token == ETH_ADDRESS) {... */\n    tag_262:\n        /* \"contracts/LdEduProgram.sol\":4837:4843  reward */\n      dup2\n        /* \"contracts/LdEduProgram.sol\":4820:4827  program */\n      dup2\n        /* \"contracts/LdEduProgram.sol\":4820:4833  program.price */\n      0x03\n      add\n      0x00\n        /* \"contracts/LdEduProgram.sol\":4820:4843  program.price -= reward */\n      dup3\n      dup3\n      sload\n      tag_271\n      swap2\n      swap1\n      tag_272\n      jump\t// in\n    tag_271:\n      swap3\n      pop\n      pop\n      dup2\n      swap1\n      sstore\n      pop\n        /* \"contracts/LdEduProgram.sol\":4900:4907  builder */\n      dup3\n        /* \"contracts/LdEduProgram.sol\":4858:4931  MilestoneAccepted(programId, milestoneId, builder, reward, program.token) */\n      0xffffffffffffffffffffffffffffffffffffffff\n      and\n        /* \"contracts/LdEduProgram.sol\":4887:4898  milestoneId */\n      dup5\n        /* \"contracts/LdEduProgram.sol\":4858:4931  MilestoneAccepted(programId, milestoneId, builder, reward, program.token) */\n      mload(0x40)\n      tag_273\n      swap2\n      swap1\n      tag_274\n      jump\t// in\n    tag_273:\n      mload(0x40)\n      dup1\n      swap2\n      sub\n      swap1\n      keccak256\n        /* \"contracts/LdEduProgram.sol\":4876:4885  programId */\n      dup7\n        /* \"contracts/LdEduProgram.sol\":4858:4931  MilestoneAccepted(programId, milestoneId, builder, reward, program.token) */\n      0x555b83c563488d2669fdf07d7a266edb2edd33c3ea9aa61761f5b5365ca69884\n        /* \"contracts/LdEduProgram.sol\":4909:4915  reward */\n      dup6\n        /* \"contracts/LdEduProgram.sol\":4917:4924  program */\n      dup6\n        /* \"contracts/LdEduProgram.sol\":4917:4930  program.token */\n      0x0b\n      add\n      0x00\n      swap1\n      sload\n      swap1\n      0x0100\n      exp\n      swap1\n      div\n      0xffffffffffffffffffffffffffffffffffffffff\n      and\n        /* \"contracts/LdEduProgram.sol\":4858:4931  MilestoneAccepted(programId, milestoneId, builder, reward, program.token) */\n      mload(0x40)\n      tag_275\n      swap3\n      swap2\n      swap1\n      tag_184\n      jump\t// in\n    tag_275:\n      mload(0x40)\n      dup1\n      swap2\n      sub\n      swap1\n      log4\n        /* \"contracts/LdEduProgram.sol\":4059:4938  {... */\n      pop\n        /* \"@openzeppelin/contracts/security/ReentrancyGuard.sol\":2303:2323  _nonReentrantAfter() */\n      tag_276\n        /* \"@openzeppelin/contracts/security/ReentrancyGuard.sol\":2303:2321  _nonReentrantAfter */\n      tag_277\n        /* \"@openzeppelin/contracts/security/ReentrancyGuard.sol\":2303:2323  _nonReentrantAfter() */\n      jump\t// in\n    tag_276:\n        /* \"contracts/LdEduProgram.sol\":3895:4938  function acceptMilestone(... */\n      pop\n      pop\n      pop\n      pop\n      jump\t// out\n        /* \"@openzeppelin/contracts/access/Ownable.sol\":2074:2272  function transferOwnership(address newOwner) public virtual onlyOwner {... */\n    tag_112:\n        /* \"@openzeppelin/contracts/access/Ownable.sol\":1094:1107  _checkOwner() */\n      tag_279\n        /* \"@openzeppelin/contracts/access/Ownable.sol\":1094:1105  _checkOwner */\n      tag_146\n        /* \"@openzeppelin/contracts/access/Ownable.sol\":1094:1107  _checkOwner() */\n      jump\t// in\n    tag_279:\n        /* \"@openzeppelin/contracts/access/Ownable.sol\":2182:2183  0 */\n      0x00\n        /* \"@openzeppelin/contracts/access/Ownable.sol\":2162:2184  newOwner != address(0) */\n      0xffffffffffffffffffffffffffffffffffffffff\n      and\n        /* \"@openzeppelin/contracts/access/Ownable.sol\":2162:2170  newOwner */\n      dup2\n        /* \"@openzeppelin/contracts/access/Ownable.sol\":2162:2184  newOwner != address(0) */\n      0xffffffffffffffffffffffffffffffffffffffff\n      and\n      sub\n        /* \"@openzeppelin/contracts/access/Ownable.sol\":2154:2227  require(newOwner != address(0), \"Ownable: new owner is the zero address\") */\n      tag_281\n      jumpi\n      mload(0x40)\n      0x08c379a000000000000000000000000000000000000000000000000000000000\n      dup2\n      mstore\n      0x04\n      add\n      tag_282\n      swap1\n      tag_283\n      jump\t// in\n    tag_282:\n      mload(0x40)\n      dup1\n      swap2\n      sub\n      swap1\n      revert\n    tag_281:\n        /* \"@openzeppelin/contracts/access/Ownable.sol\":2237:2265  _transferOwnership(newOwner) */\n      tag_284\n        /* \"@openzeppelin/contracts/access/Ownable.sol\":2256:2264  newOwner */\n      dup2\n        /* \"@openzeppelin/contracts/access/Ownable.sol\":2237:2255  _transferOwnership */\n      tag_153\n        /* \"@openzeppelin/contracts/access/Ownable.sol\":2237:2265  _transferOwnership(newOwner) */\n      jump\t// in\n    tag_284:\n        /* \"@openzeppelin/contracts/access/Ownable.sol\":2074:2272  function transferOwnership(address newOwner) public virtual onlyOwner {... */\n      pop\n      jump\t// out\n        /* \"contracts/LdEduProgram.sol\":4944:5891  function reclaimFunds(uint256 programId) external nonReentrant {... */\n    tag_116:\n        /* \"@openzeppelin/contracts/security/ReentrancyGuard.sol\":2261:2282  _nonReentrantBefore() */\n      tag_286\n        /* \"@openzeppelin/contracts/security/ReentrancyGuard.sol\":2261:2280  _nonReentrantBefore */\n      tag_244\n        /* \"@openzeppelin/contracts/security/ReentrancyGuard.sol\":2261:2282  _nonReentrantBefore() */\n      jump\t// in\n    tag_286:\n        /* \"contracts/LdEduProgram.sol\":5017:5043  EduProgram storage program */\n      0x00\n        /* \"contracts/LdEduProgram.sol\":5046:5057  eduPrograms */\n      0x02\n        /* \"contracts/LdEduProgram.sol\":5046:5068  eduPrograms[programId] */\n      0x00\n        /* \"contracts/LdEduProgram.sol\":5058:5067  programId */\n      dup4\n        /* \"contracts/LdEduProgram.sol\":5046:5068  eduPrograms[programId] */\n      dup2\n      mstore\n      0x20\n      add\n      swap1\n      dup2\n      mstore\n      0x20\n      add\n      0x00\n      keccak256\n        /* \"contracts/LdEduProgram.sol\":5017:5068  EduProgram storage program = eduPrograms[programId] */\n      swap1\n      pop\n        /* \"contracts/LdEduProgram.sol\":5104:5111  program */\n      dup1\n        /* \"contracts/LdEduProgram.sol\":5104:5119  program.endTime */\n      0x05\n      add\n      sload\n        /* \"contracts/LdEduProgram.sol\":5086:5101  block.timestamp */\n      timestamp\n        /* \"contracts/LdEduProgram.sol\":5086:5119  block.timestamp > program.endTime */\n      gt\n        /* \"contracts/LdEduProgram.sol\":5078:5145  require(block.timestamp > program.endTime, \"Program not ended yet\") */\n      tag_288\n      jumpi\n      mload(0x40)\n      0x08c379a000000000000000000000000000000000000000000000000000000000\n      dup2\n      mstore\n      0x04\n      add\n      tag_289\n      swap1\n      tag_290\n      jump\t// in\n    tag_289:\n      mload(0x40)\n      dup1\n      swap2\n      sub\n      swap1\n      revert\n    tag_288:\n        /* \"contracts/LdEduProgram.sol\":5177:5184  program */\n      dup1\n        /* \"contracts/LdEduProgram.sol\":5177:5190  program.maker */\n      0x09\n      add\n      0x00\n      swap1\n      sload\n      swap1\n      0x0100\n      exp\n      swap1\n      div\n      0xffffffffffffffffffffffffffffffffffffffff\n      and\n        /* \"contracts/LdEduProgram.sol\":5163:5190  msg.sender == program.maker */\n      0xffffffffffffffffffffffffffffffffffffffff\n      and\n        /* \"contracts/LdEduProgram.sol\":5163:5173  msg.sender */\n      caller\n        /* \"contracts/LdEduProgram.sol\":5163:5190  msg.sender == program.maker */\n      0xffffffffffffffffffffffffffffffffffffffff\n      and\n      eq\n        /* \"contracts/LdEduProgram.sol\":5155:5216  require(msg.sender == program.maker, \"Not the program maker\") */\n      tag_291\n      jumpi\n      mload(0x40)\n      0x08c379a000000000000000000000000000000000000000000000000000000000\n      dup2\n      mstore\n      0x04\n      add\n      tag_292\n      swap1\n      tag_293\n      jump\t// in\n    tag_292:\n      mload(0x40)\n      dup1\n      swap2\n      sub\n      swap1\n      revert\n    tag_291:\n        /* \"contracts/LdEduProgram.sol\":5235:5242  program */\n      dup1\n        /* \"contracts/LdEduProgram.sol\":5235:5250  program.claimed */\n      0x0a\n      add\n      0x15\n      swap1\n      sload\n      swap1\n      0x0100\n      exp\n      swap1\n      div\n      0xff\n      and\n        /* \"contracts/LdEduProgram.sol\":5234:5250  !program.claimed */\n      iszero\n        /* \"contracts/LdEduProgram.sol\":5226:5270  require(!program.claimed, \"Already claimed\") */\n      tag_294\n      jumpi\n      mload(0x40)\n      0x08c379a000000000000000000000000000000000000000000000000000000000\n      dup2\n      mstore\n      0x04\n      add\n      tag_295\n      swap1\n      tag_296\n      jump\t// in\n    tag_295:\n      mload(0x40)\n      dup1\n      swap2\n      sub\n      swap1\n      revert\n    tag_294:\n        /* \"contracts/LdEduProgram.sol\":5281:5304  uint256 remainingAmount */\n      0x00\n        /* \"contracts/LdEduProgram.sol\":5307:5314  program */\n      dup2\n        /* \"contracts/LdEduProgram.sol\":5307:5320  program.price */\n      0x03\n      add\n      sload\n        /* \"contracts/LdEduProgram.sol\":5281:5320  uint256 remainingAmount = program.price */\n      swap1\n      pop\n        /* \"contracts/LdEduProgram.sol\":5356:5357  0 */\n      0x00\n        /* \"contracts/LdEduProgram.sol\":5338:5353  remainingAmount */\n      dup2\n        /* \"contracts/LdEduProgram.sol\":5338:5357  remainingAmount > 0 */\n      gt\n        /* \"contracts/LdEduProgram.sol\":5330:5381  require(remainingAmount > 0, \"No funds to reclaim\") */\n      tag_297\n      jumpi\n      mload(0x40)\n      0x08c379a000000000000000000000000000000000000000000000000000000000\n      dup2\n      mstore\n      0x04\n      add\n      tag_298\n      swap1\n      tag_299\n      jump\t// in\n    tag_298:\n      mload(0x40)\n      dup1\n      swap2\n      sub\n      swap1\n      revert\n    tag_297:\n        /* \"contracts/LdEduProgram.sol\":5410:5414  true */\n      0x01\n        /* \"contracts/LdEduProgram.sol\":5392:5399  program */\n      dup3\n        /* \"contracts/LdEduProgram.sol\":5392:5407  program.claimed */\n      0x0a\n      add\n      0x15\n        /* \"contracts/LdEduProgram.sol\":5392:5414  program.claimed = true */\n      0x0100\n      exp\n      dup2\n      sload\n      dup2\n      0xff\n      mul\n      not\n      and\n      swap1\n      dup4\n      iszero\n      iszero\n      mul\n      or\n      swap1\n      sstore\n      pop\n        /* \"contracts/LdEduProgram.sol\":5440:5441  0 */\n      0x00\n        /* \"contracts/LdEduProgram.sol\":5424:5431  program */\n      dup3\n        /* \"contracts/LdEduProgram.sol\":5424:5437  program.price */\n      0x03\n      add\n        /* \"contracts/LdEduProgram.sol\":5424:5441  program.price = 0 */\n      dup2\n      swap1\n      sstore\n      pop\n        /* \"contracts/LdEduProgram.sol\":1883:1884  0 */\n      0x00\n        /* \"contracts/LdEduProgram.sol\":5480:5508  program.token == ETH_ADDRESS */\n      0xffffffffffffffffffffffffffffffffffffffff\n      and\n        /* \"contracts/LdEduProgram.sol\":5480:5487  program */\n      dup3\n        /* \"contracts/LdEduProgram.sol\":5480:5493  program.token */\n      0x0b\n      add\n      0x00\n      swap1\n      sload\n      swap1\n      0x0100\n      exp\n      swap1\n      div\n      0xffffffffffffffffffffffffffffffffffffffff\n      and\n        /* \"contracts/LdEduProgram.sol\":5480:5508  program.token == ETH_ADDRESS */\n      0xffffffffffffffffffffffffffffffffffffffff\n      and\n      sub\n        /* \"contracts/LdEduProgram.sol\":5476:5789  if (program.token == ETH_ADDRESS) {... */\n      tag_300\n      jumpi\n        /* \"contracts/LdEduProgram.sol\":5525:5534  bool sent */\n      0x00\n        /* \"contracts/LdEduProgram.sol\":5548:5555  program */\n      dup3\n        /* \"contracts/LdEduProgram.sol\":5548:5561  program.maker */\n      0x09\n      add\n      0x00\n      swap1\n      sload\n      swap1\n      0x0100\n      exp\n      swap1\n      div\n      0xffffffffffffffffffffffffffffffffffffffff\n      and\n        /* \"contracts/LdEduProgram.sol\":5540:5567  payable(program.maker).call */\n      0xffffffffffffffffffffffffffffffffffffffff\n      and\n        /* \"contracts/LdEduProgram.sol\":5575:5590  remainingAmount */\n      dup3\n        /* \"contracts/LdEduProgram.sol\":5540:5595  payable(program.maker).call{value: remainingAmount}(\"\") */\n      mload(0x40)\n      tag_301\n      swap1\n      tag_204\n      jump\t// in\n    tag_301:\n      0x00\n      mload(0x40)\n      dup1\n      dup4\n      sub\n      dup2\n      dup6\n      dup8\n      gas\n      call\n      swap3\n      pop\n      pop\n      pop\n      returndatasize\n      dup1\n      0x00\n      dup2\n      eq\n      tag_304\n      jumpi\n      mload(0x40)\n      swap2\n      pop\n      and(add(returndatasize, 0x3f), not(0x1f))\n      dup3\n      add\n      0x40\n      mstore\n      returndatasize\n      dup3\n      mstore\n      returndatasize\n      0x00\n      0x20\n      dup5\n      add\n      returndatacopy\n      jump(tag_303)\n    tag_304:\n      0x60\n      swap2\n      pop\n    tag_303:\n      pop\n        /* \"contracts/LdEduProgram.sol\":5524:5595  (bool sent, ) = payable(program.maker).call{value: remainingAmount}(\"\") */\n      pop\n      swap1\n      pop\n        /* \"contracts/LdEduProgram.sol\":5617:5621  sent */\n      dup1\n        /* \"contracts/LdEduProgram.sol\":5609:5645  require(sent, \"ETH transfer failed\") */\n      tag_305\n      jumpi\n      mload(0x40)\n      0x08c379a000000000000000000000000000000000000000000000000000000000\n      dup2\n      mstore\n      0x04\n      add\n      tag_306\n      swap1\n      tag_210\n      jump\t// in\n    tag_306:\n      mload(0x40)\n      dup1\n      swap2\n      sub\n      swap1\n      revert\n    tag_305:\n        /* \"contracts/LdEduProgram.sol\":5510:5656  {... */\n      pop\n        /* \"contracts/LdEduProgram.sol\":5476:5789  if (program.token == ETH_ADDRESS) {... */\n      jump(tag_307)\n    tag_300:\n        /* \"contracts/LdEduProgram.sol\":5712:5778  IERC20(program.token).safeTransfer(program.maker, remainingAmount) */\n      tag_308\n        /* \"contracts/LdEduProgram.sol\":5747:5754  program */\n      dup3\n        /* \"contracts/LdEduProgram.sol\":5747:5760  program.maker */\n      0x09\n      add\n      0x00\n      swap1\n      sload\n      swap1\n      0x0100\n      exp\n      swap1\n      div\n      0xffffffffffffffffffffffffffffffffffffffff\n      and\n        /* \"contracts/LdEduProgram.sol\":5762:5777  remainingAmount */\n      dup3\n        /* \"contracts/LdEduProgram.sol\":5719:5726  program */\n      dup5\n        /* \"contracts/LdEduProgram.sol\":5719:5732  program.token */\n      0x0b\n      add\n      0x00\n      swap1\n      sload\n      swap1\n      0x0100\n      exp\n      swap1\n      div\n      0xffffffffffffffffffffffffffffffffffffffff\n      and\n        /* \"contracts/LdEduProgram.sol\":5712:5746  IERC20(program.token).safeTransfer */\n      0xffffffffffffffffffffffffffffffffffffffff\n      and\n      tag_214\n      swap1\n        /* \"contracts/LdEduProgram.sol\":5712:5778  IERC20(program.token).safeTransfer(program.maker, remainingAmount) */\n      swap3\n      swap2\n      swap1\n      0xffffffff\n      and\n      jump\t// in\n    tag_308:\n        /* \"contracts/LdEduProgram.sol\":5476:5789  if (program.token == ETH_ADDRESS) {... */\n    tag_307:\n        /* \"contracts/LdEduProgram.sol\":5827:5836  programId */\n      dup3\n        /* \"contracts/LdEduProgram.sol\":5812:5884  FundsReclaimed(programId, program.maker, remainingAmount, program.token) */\n      0xdf220afda5d5d16927c8d84713af8457f72e8bd4af288509a77c48754f4acd90\n        /* \"contracts/LdEduProgram.sol\":5838:5845  program */\n      dup4\n        /* \"contracts/LdEduProgram.sol\":5838:5851  program.maker */\n      0x09\n      add\n      0x00\n      swap1\n      sload\n      swap1\n      0x0100\n      exp\n      swap1\n      div\n      0xffffffffffffffffffffffffffffffffffffffff\n      and\n        /* \"contracts/LdEduProgram.sol\":5853:5868  remainingAmount */\n      dup4\n        /* \"contracts/LdEduProgram.sol\":5870:5877  program */\n      dup6\n        /* \"contracts/LdEduProgram.sol\":5870:5883  program.token */\n      0x0b\n      add\n      0x00\n      swap1\n      sload\n      swap1\n      0x0100\n      exp\n      swap1\n      div\n      0xffffffffffffffffffffffffffffffffffffffff\n      and\n        /* \"contracts/LdEduProgram.sol\":5812:5884  FundsReclaimed(programId, program.maker, remainingAmount, program.token) */\n      mload(0x40)\n      tag_309\n      swap4\n      swap3\n      swap2\n      swap1\n      tag_310\n      jump\t// in\n    tag_309:\n      mload(0x40)\n      dup1\n      swap2\n      sub\n      swap1\n      log2\n        /* \"contracts/LdEduProgram.sol\":5007:5891  {... */\n      pop\n      pop\n        /* \"@openzeppelin/contracts/security/ReentrancyGuard.sol\":2303:2323  _nonReentrantAfter() */\n      tag_311\n        /* \"@openzeppelin/contracts/security/ReentrancyGuard.sol\":2303:2321  _nonReentrantAfter */\n      tag_277\n        /* \"@openzeppelin/contracts/security/ReentrancyGuard.sol\":2303:2323  _nonReentrantAfter() */\n      jump\t// in\n    tag_311:\n        /* \"contracts/LdEduProgram.sol\":4944:5891  function reclaimFunds(uint256 programId) external nonReentrant {... */\n      pop\n      jump\t// out\n        /* \"@openzeppelin/contracts/access/Ownable.sol\":1359:1489  function _checkOwner() internal view virtual {... */\n    tag_146:\n        /* \"@openzeppelin/contracts/access/Ownable.sol\":1433:1445  _msgSender() */\n      tag_313\n        /* \"@openzeppelin/contracts/access/Ownable.sol\":1433:1443  _msgSender */\n      tag_314\n        /* \"@openzeppelin/contracts/access/Ownable.sol\":1433:1445  _msgSender() */\n      jump\t// in\n    tag_313:\n        /* \"@openzeppelin/contracts/access/Ownable.sol\":1422:1445  owner() == _msgSender() */\n      0xffffffffffffffffffffffffffffffffffffffff\n      and\n        /* \"@openzeppelin/contracts/access/Ownable.sol\":1422:1429  owner() */\n      tag_315\n        /* \"@openzeppelin/contracts/access/Ownable.sol\":1422:1427  owner */\n      tag_61\n        /* \"@openzeppelin/contracts/access/Ownable.sol\":1422:1429  owner() */\n      jump\t// in\n    tag_315:\n        /* \"@openzeppelin/contracts/access/Ownable.sol\":1422:1445  owner() == _msgSender() */\n      0xffffffffffffffffffffffffffffffffffffffff\n      and\n      eq\n        /* \"@openzeppelin/contracts/access/Ownable.sol\":1414:1482  require(owner() == _msgSender(), \"Ownable: caller is not the owner\") */\n      tag_316\n      jumpi\n      mload(0x40)\n      0x08c379a000000000000000000000000000000000000000000000000000000000\n      dup2\n      mstore\n      0x04\n      add\n      tag_317\n      swap1\n      tag_318\n      jump\t// in\n    tag_317:\n      mload(0x40)\n      dup1\n      swap2\n      sub\n      swap1\n      revert\n    tag_316:\n        /* \"@openzeppelin/contracts/access/Ownable.sol\":1359:1489  function _checkOwner() internal view virtual {... */\n      jump\t// out\n        /* \"@openzeppelin/contracts/access/Ownable.sol\":2426:2613  function _transferOwnership(address newOwner) internal virtual {... */\n    tag_153:\n        /* \"@openzeppelin/contracts/access/Ownable.sol\":2499:2515  address oldOwner */\n      0x00\n        /* \"@openzeppelin/contracts/access/Ownable.sol\":2518:2524  _owner */\n      0x00\n      0x00\n      swap1\n      sload\n      swap1\n      0x0100\n      exp\n      swap1\n      div\n      0xffffffffffffffffffffffffffffffffffffffff\n      and\n        /* \"@openzeppelin/contracts/access/Ownable.sol\":2499:2524  address oldOwner = _owner */\n      swap1\n      pop\n        /* \"@openzeppelin/contracts/access/Ownable.sol\":2543:2551  newOwner */\n      dup2\n        /* \"@openzeppelin/contracts/access/Ownable.sol\":2534:2540  _owner */\n      0x00\n      0x00\n        /* \"@openzeppelin/contracts/access/Ownable.sol\":2534:2551  _owner = newOwner */\n      0x0100\n      exp\n      dup2\n      sload\n      dup2\n      0xffffffffffffffffffffffffffffffffffffffff\n      mul\n      not\n      and\n      swap1\n      dup4\n      0xffffffffffffffffffffffffffffffffffffffff\n      and\n      mul\n      or\n      swap1\n      sstore\n      pop\n        /* \"@openzeppelin/contracts/access/Ownable.sol\":2597:2605  newOwner */\n      dup2\n        /* \"@openzeppelin/contracts/access/Ownable.sol\":2566:2606  OwnershipTransferred(oldOwner, newOwner) */\n      0xffffffffffffffffffffffffffffffffffffffff\n      and\n        /* \"@openzeppelin/contracts/access/Ownable.sol\":2587:2595  oldOwner */\n      dup2\n        /* \"@openzeppelin/contracts/access/Ownable.sol\":2566:2606  OwnershipTransferred(oldOwner, newOwner) */\n      0xffffffffffffffffffffffffffffffffffffffff\n      and\n      0x8be0079c531659141344cd1fd0a4f28419497f9722a3daafe3b4186f6b6457e0\n      mload(0x40)\n      mload(0x40)\n      dup1\n      swap2\n      sub\n      swap1\n      log3\n        /* \"@openzeppelin/contracts/access/Ownable.sol\":2489:2613  {... */\n      pop\n        /* \"@openzeppelin/contracts/access/Ownable.sol\":2426:2613  function _transferOwnership(address newOwner) internal virtual {... */\n      pop\n      jump\t// out\n        /* \"@openzeppelin/contracts/token/ERC20/utils/SafeERC20.sol\":1355:1558  function safeTransferFrom(IERC20 token, address from, address to, uint256 value) internal {... */\n    tag_173:\n        /* \"@openzeppelin/contracts/token/ERC20/utils/SafeERC20.sol\":1455:1551  _callOptionalReturn(token, abi.encodeWithSelector(token.transferFrom.selector, from, to, value)) */\n      tag_321\n        /* \"@openzeppelin/contracts/token/ERC20/utils/SafeERC20.sol\":1475:1480  token */\n      dup5\n        /* \"@openzeppelin/contracts/token/ERC20/utils/SafeERC20.sol\":1505:1532  token.transferFrom.selector */\n      shl(0xe0, 0x23b872dd)\n        /* \"@openzeppelin/contracts/token/ERC20/utils/SafeERC20.sol\":1534:1538  from */\n      dup6\n        /* \"@openzeppelin/contracts/token/ERC20/utils/SafeERC20.sol\":1540:1542  to */\n      dup6\n        /* \"@openzeppelin/contracts/token/ERC20/utils/SafeERC20.sol\":1544:1549  value */\n      dup6\n        /* \"@openzeppelin/contracts/token/ERC20/utils/SafeERC20.sol\":1482:1550  abi.encodeWithSelector(token.transferFrom.selector, from, to, value) */\n      add(0x24, mload(0x40))\n      tag_322\n      swap4\n      swap3\n      swap2\n      swap1\n      tag_323\n      jump\t// in\n    tag_322:\n      mload(0x40)\n      0x20\n      dup2\n      dup4\n      sub\n      sub\n      dup2\n      mstore\n      swap1\n      0x40\n      mstore\n      swap1\n      not(0xffffffffffffffffffffffffffffffffffffffffffffffffffffffff)\n      and\n      0x20\n      dup3\n      add\n      dup1\n      mload\n      0xffffffffffffffffffffffffffffffffffffffffffffffffffffffff\n      dup4\n      dup2\n      dup4\n      and\n      or\n      dup4\n      mstore\n      pop\n      pop\n      pop\n      pop\n        /* \"@openzeppelin/contracts/token/ERC20/utils/SafeERC20.sol\":1455:1474  _callOptionalReturn */\n      tag_324\n        /* \"@openzeppelin/contracts/token/ERC20/utils/SafeERC20.sol\":1455:1551  _callOptionalReturn(token, abi.encodeWithSelector(token.transferFrom.selector, from, to, value)) */\n      jump\t// in\n    tag_321:\n        /* \"@openzeppelin/contracts/token/ERC20/utils/SafeERC20.sol\":1355:1558  function safeTransferFrom(IERC20 token, address from, address to, uint256 value) internal {... */\n      pop\n      pop\n      pop\n      pop\n      jump\t// out\n        /* \"@openzeppelin/contracts/token/ERC20/utils/SafeERC20.sol\":941:1116  function safeTransfer(IERC20 token, address to, uint256 value) internal {... */\n    tag_214:\n        /* \"@openzeppelin/contracts/token/ERC20/utils/SafeERC20.sol\":1023:1109  _callOptionalReturn(token, abi.encodeWithSelector(token.transfer.selector, to, value)) */\n      tag_326\n        /* \"@openzeppelin/contracts/token/ERC20/utils/SafeERC20.sol\":1043:1048  token */\n      dup4\n        /* \"@openzeppelin/contracts/token/ERC20/utils/SafeERC20.sol\":1073:1096  token.transfer.selector */\n      shl(0xe0, 0xa9059cbb)\n        /* \"@openzeppelin/contracts/token/ERC20/utils/SafeERC20.sol\":1098:1100  to */\n      dup5\n        /* \"@openzeppelin/contracts/token/ERC20/utils/SafeERC20.sol\":1102:1107  value */\n      dup5\n        /* \"@openzeppelin/contracts/token/ERC20/utils/SafeERC20.sol\":1050:1108  abi.encodeWithSelector(token.transfer.selector, to, value) */\n      add(0x24, mload(0x40))\n      tag_327\n      swap3\n      swap2\n      swap1\n      tag_328\n      jump\t// in\n    tag_327:\n      mload(0x40)\n      0x20\n      dup2\n      dup4\n      sub\n      sub\n      dup2\n      mstore\n      swap1\n      0x40\n      mstore\n      swap1\n      not(0xffffffffffffffffffffffffffffffffffffffffffffffffffffffff)\n      and\n      0x20\n      dup3\n      add\n      dup1\n      mload\n      0xffffffffffffffffffffffffffffffffffffffffffffffffffffffff\n      dup4\n      dup2\n      dup4\n      and\n      or\n      dup4\n      mstore\n      pop\n      pop\n      pop\n      pop\n        /* \"@openzeppelin/contracts/token/ERC20/utils/SafeERC20.sol\":1023:1042  _callOptionalReturn */\n      tag_324\n        /* \"@openzeppelin/contracts/token/ERC20/utils/SafeERC20.sol\":1023:1109  _callOptionalReturn(token, abi.encodeWithSelector(token.transfer.selector, to, value)) */\n      jump\t// in\n    tag_326:\n        /* \"@openzeppelin/contracts/token/ERC20/utils/SafeERC20.sol\":941:1116  function safeTransfer(IERC20 token, address to, uint256 value) internal {... */\n      pop\n      pop\n      pop\n      jump\t// out\n        /* \"@openzeppelin/contracts/security/ReentrancyGuard.sol\":2336:2623  function _nonReentrantBefore() private {... */\n    tag_244:\n        /* \"@openzeppelin/contracts/security/ReentrancyGuard.sol\":1759:1760  2 */\n      0x02\n        /* \"@openzeppelin/contracts/security/ReentrancyGuard.sol\":2468:2475  _status */\n      sload(0x01)\n        /* \"@openzeppelin/contracts/security/ReentrancyGuard.sol\":2468:2487  _status != _ENTERED */\n      sub\n        /* \"@openzeppelin/contracts/security/ReentrancyGuard.sol\":2460:2523  require(_status != _ENTERED, \"ReentrancyGuard: reentrant call\") */\n      tag_330\n      jumpi\n      mload(0x40)\n      0x08c379a000000000000000000000000000000000000000000000000000000000\n      dup2\n      mstore\n      0x04\n      add\n      tag_331\n      swap1\n      tag_332\n      jump\t// in\n    tag_331:\n      mload(0x40)\n      dup1\n      swap2\n      sub\n      swap1\n      revert\n    tag_330:\n        /* \"@openzeppelin/contracts/security/ReentrancyGuard.sol\":1759:1760  2 */\n      0x02\n        /* \"@openzeppelin/contracts/security/ReentrancyGuard.sol\":2598:2605  _status */\n      0x01\n        /* \"@openzeppelin/contracts/security/ReentrancyGuard.sol\":2598:2616  _status = _ENTERED */\n      dup2\n      swap1\n      sstore\n      pop\n        /* \"@openzeppelin/contracts/security/ReentrancyGuard.sol\":2336:2623  function _nonReentrantBefore() private {... */\n      jump\t// out\n        /* \"@openzeppelin/contracts/security/ReentrancyGuard.sol\":2629:2838  function _nonReentrantAfter() private {... */\n    tag_277:\n        /* \"@openzeppelin/contracts/security/ReentrancyGuard.sol\":1716:1717  1 */\n      0x01\n        /* \"@openzeppelin/contracts/security/ReentrancyGuard.sol\":2809:2816  _status */\n      dup1\n        /* \"@openzeppelin/contracts/security/ReentrancyGuard.sol\":2809:2831  _status = _NOT_ENTERED */\n      dup2\n      swap1\n      sstore\n      pop\n        /* \"@openzeppelin/contracts/security/ReentrancyGuard.sol\":2629:2838  function _nonReentrantAfter() private {... */\n      jump\t// out\n        /* \"@openzeppelin/contracts/utils/Context.sol\":655:751  function _msgSender() internal view virtual returns (address) {... */\n    tag_314:\n        /* \"@openzeppelin/contracts/utils/Context.sol\":708:715  address */\n      0x00\n        /* \"@openzeppelin/contracts/utils/Context.sol\":734:744  msg.sender */\n      caller\n        /* \"@openzeppelin/contracts/utils/Context.sol\":727:744  return msg.sender */\n      swap1\n      pop\n        /* \"@openzeppelin/contracts/utils/Context.sol\":655:751  function _msgSender() internal view virtual returns (address) {... */\n      swap1\n      jump\t// out\n        /* \"@openzeppelin/contracts/token/ERC20/utils/SafeERC20.sol\":5196:5838  function _callOptionalReturn(IERC20 token, bytes memory data) private {... */\n    tag_324:\n        /* \"@openzeppelin/contracts/token/ERC20/utils/SafeERC20.sol\":5615:5638  bytes memory returndata */\n      0x00\n        /* \"@openzeppelin/contracts/token/ERC20/utils/SafeERC20.sol\":5641:5710  address(token).functionCall(data, \"SafeERC20: low-level call failed\") */\n      tag_336\n        /* \"@openzeppelin/contracts/token/ERC20/utils/SafeERC20.sol\":5669:5673  data */\n      dup3\n        /* \"@openzeppelin/contracts/token/ERC20/utils/SafeERC20.sol\":5641:5710  address(token).functionCall(data, \"SafeERC20: low-level call failed\") */\n      mload(0x40)\n      dup1\n      0x40\n      add\n      0x40\n      mstore\n      dup1\n      0x20\n      dup2\n      mstore\n      0x20\n      add\n      0x5361666545524332303a206c6f772d6c6576656c2063616c6c206661696c6564\n      dup2\n      mstore\n      pop\n        /* \"@openzeppelin/contracts/token/ERC20/utils/SafeERC20.sol\":5649:5654  token */\n      dup6\n        /* \"@openzeppelin/contracts/token/ERC20/utils/SafeERC20.sol\":5641:5668  address(token).functionCall */\n      0xffffffffffffffffffffffffffffffffffffffff\n      and\n      tag_337\n      swap1\n        /* \"@openzeppelin/contracts/token/ERC20/utils/SafeERC20.sol\":5641:5710  address(token).functionCall(data, \"SafeERC20: low-level call failed\") */\n      swap3\n      swap2\n      swap1\n      0xffffffff\n      and\n      jump\t// in\n    tag_336:\n        /* \"@openzeppelin/contracts/token/ERC20/utils/SafeERC20.sol\":5615:5710  bytes memory returndata = address(token).functionCall(data, \"SafeERC20: low-level call failed\") */\n      swap1\n      pop\n        /* \"@openzeppelin/contracts/token/ERC20/utils/SafeERC20.sol\":5749:5750  0 */\n      0x00\n        /* \"@openzeppelin/contracts/token/ERC20/utils/SafeERC20.sol\":5728:5738  returndata */\n      dup2\n        /* \"@openzeppelin/contracts/token/ERC20/utils/SafeERC20.sol\":5728:5745  returndata.length */\n      mload\n        /* \"@openzeppelin/contracts/token/ERC20/utils/SafeERC20.sol\":5728:5750  returndata.length == 0 */\n      eq\n        /* \"@openzeppelin/contracts/token/ERC20/utils/SafeERC20.sol\":5728:5784  returndata.length == 0 || abi.decode(returndata, (bool)) */\n      dup1\n      tag_338\n      jumpi\n      pop\n        /* \"@openzeppelin/contracts/token/ERC20/utils/SafeERC20.sol\":5765:5775  returndata */\n      dup1\n        /* \"@openzeppelin/contracts/token/ERC20/utils/SafeERC20.sol\":5754:5784  abi.decode(returndata, (bool)) */\n      dup1\n      0x20\n      add\n      swap1\n      mload\n      dup2\n      add\n      swap1\n      tag_339\n      swap2\n      swap1\n      tag_340\n      jump\t// in\n    tag_339:\n        /* \"@openzeppelin/contracts/token/ERC20/utils/SafeERC20.sol\":5728:5784  returndata.length == 0 || abi.decode(returndata, (bool)) */\n    tag_338:\n        /* \"@openzeppelin/contracts/token/ERC20/utils/SafeERC20.sol\":5720:5831  require(returndata.length == 0 || abi.decode(returndata, (bool)), \"SafeERC20: ERC20 operation did not succeed\") */\n      tag_341\n      jumpi\n      mload(0x40)\n      0x08c379a000000000000000000000000000000000000000000000000000000000\n      dup2\n      mstore\n      0x04\n      add\n      tag_342\n      swap1\n      tag_343\n      jump\t// in\n    tag_342:\n      mload(0x40)\n      dup1\n      swap2\n      sub\n      swap1\n      revert\n    tag_341:\n        /* \"@openzeppelin/contracts/token/ERC20/utils/SafeERC20.sol\":5266:5838  {... */\n      pop\n        /* \"@openzeppelin/contracts/token/ERC20/utils/SafeERC20.sol\":5196:5838  function _callOptionalReturn(IERC20 token, bytes memory data) private {... */\n      pop\n      pop\n      jump\t// out\n        /* \"@openzeppelin/contracts/utils/Address.sol\":4108:4331  function functionCall(... */\n    tag_337:\n        /* \"@openzeppelin/contracts/utils/Address.sol\":4241:4253  bytes memory */\n      0x60\n        /* \"@openzeppelin/contracts/utils/Address.sol\":4272:4324  functionCallWithValue(target, data, 0, errorMessage) */\n      tag_345\n        /* \"@openzeppelin/contracts/utils/Address.sol\":4294:4300  target */\n      dup5\n        /* \"@openzeppelin/contracts/utils/Address.sol\":4302:4306  data */\n      dup5\n        /* \"@openzeppelin/contracts/utils/Address.sol\":4308:4309  0 */\n      0x00\n        /* \"@openzeppelin/contracts/utils/Address.sol\":4311:4323  errorMessage */\n      dup6\n        /* \"@openzeppelin/contracts/utils/Address.sol\":4272:4293  functionCallWithValue */\n      tag_346\n        /* \"@openzeppelin/contracts/utils/Address.sol\":4272:4324  functionCallWithValue(target, data, 0, errorMessage) */\n      jump\t// in\n    tag_345:\n        /* \"@openzeppelin/contracts/utils/Address.sol\":4265:4324  return functionCallWithValue(target, data, 0, errorMessage) */\n      swap1\n      pop\n        /* \"@openzeppelin/contracts/utils/Address.sol\":4108:4331  function functionCall(... */\n      swap4\n      swap3\n      pop\n      pop\n      pop\n      jump\t// out\n        /* \"@openzeppelin/contracts/utils/Address.sol\":5165:5611  function functionCallWithValue(... */\n    tag_346:\n        /* \"@openzeppelin/contracts/utils/Address.sol\":5330:5342  bytes memory */\n      0x60\n        /* \"@openzeppelin/contracts/utils/Address.sol\":5387:5392  value */\n      dup3\n        /* \"@openzeppelin/contracts/utils/Address.sol\":5362:5383  address(this).balance */\n      selfbalance\n        /* \"@openzeppelin/contracts/utils/Address.sol\":5362:5392  address(this).balance >= value */\n      lt\n      iszero\n        /* \"@openzeppelin/contracts/utils/Address.sol\":5354:5435  require(address(this).balance >= value, \"Address: insufficient balance for call\") */\n      tag_348\n      jumpi\n      mload(0x40)\n      0x08c379a000000000000000000000000000000000000000000000000000000000\n      dup2\n      mstore\n      0x04\n      add\n      tag_349\n      swap1\n      tag_350\n      jump\t// in\n    tag_349:\n      mload(0x40)\n      dup1\n      swap2\n      sub\n      swap1\n      revert\n    tag_348:\n        /* \"@openzeppelin/contracts/utils/Address.sol\":5446:5458  bool success */\n      0x00\n        /* \"@openzeppelin/contracts/utils/Address.sol\":5460:5483  bytes memory returndata */\n      0x00\n        /* \"@openzeppelin/contracts/utils/Address.sol\":5487:5493  target */\n      dup7\n        /* \"@openzeppelin/contracts/utils/Address.sol\":5487:5498  target.call */\n      0xffffffffffffffffffffffffffffffffffffffff\n      and\n        /* \"@openzeppelin/contracts/utils/Address.sol\":5506:5511  value */\n      dup6\n        /* \"@openzeppelin/contracts/utils/Address.sol\":5513:5517  data */\n      dup8\n        /* \"@openzeppelin/contracts/utils/Address.sol\":5487:5518  target.call{value: value}(data) */\n      mload(0x40)\n      tag_351\n      swap2\n      swap1\n      tag_352\n      jump\t// in\n    tag_351:\n      0x00\n      mload(0x40)\n      dup1\n      dup4\n      sub\n      dup2\n      dup6\n      dup8\n      gas\n      call\n      swap3\n      pop\n      pop\n      pop\n      returndatasize\n      dup1\n      0x00\n      dup2\n      eq\n      tag_355\n      jumpi\n      mload(0x40)\n      swap2\n      pop\n      and(add(returndatasize, 0x3f), not(0x1f))\n      dup3\n      add\n      0x40\n      mstore\n      returndatasize\n      dup3\n      mstore\n      returndatasize\n      0x00\n      0x20\n      dup5\n      add\n      returndatacopy\n      jump(tag_354)\n    tag_355:\n      0x60\n      swap2\n      pop\n    tag_354:\n      pop\n        /* \"@openzeppelin/contracts/utils/Address.sol\":5445:5518  (bool success, bytes memory returndata) = target.call{value: value}(data) */\n      swap2\n      pop\n      swap2\n      pop\n        /* \"@openzeppelin/contracts/utils/Address.sol\":5535:5604  verifyCallResultFromTarget(target, success, returndata, errorMessage) */\n      tag_356\n        /* \"@openzeppelin/contracts/utils/Address.sol\":5562:5568  target */\n      dup8\n        /* \"@openzeppelin/contracts/utils/Address.sol\":5570:5577  success */\n      dup4\n        /* \"@openzeppelin/contracts/utils/Address.sol\":5579:5589  returndata */\n      dup4\n        /* \"@openzeppelin/contracts/utils/Address.sol\":5591:5603  errorMessage */\n      dup8\n        /* \"@openzeppelin/contracts/utils/Address.sol\":5535:5561  verifyCallResultFromTarget */\n      tag_357\n        /* \"@openzeppelin/contracts/utils/Address.sol\":5535:5604  verifyCallResultFromTarget(target, success, returndata, errorMessage) */\n      jump\t// in\n    tag_356:\n        /* \"@openzeppelin/contracts/utils/Address.sol\":5528:5604  return verifyCallResultFromTarget(target, success, returndata, errorMessage) */\n      swap3\n      pop\n      pop\n      pop\n        /* \"@openzeppelin/contracts/utils/Address.sol\":5165:5611  function functionCallWithValue(... */\n      swap5\n      swap4\n      pop\n      pop\n      pop\n      pop\n      jump\t// out\n        /* \"@openzeppelin/contracts/utils/Address.sol\":7671:8299  function verifyCallResultFromTarget(... */\n    tag_357:\n        /* \"@openzeppelin/contracts/utils/Address.sol\":7851:7863  bytes memory */\n      0x60\n        /* \"@openzeppelin/contracts/utils/Address.sol\":7879:7886  success */\n      dup4\n        /* \"@openzeppelin/contracts/utils/Address.sol\":7875:8293  if (success) {... */\n      iszero\n      tag_359\n      jumpi\n        /* \"@openzeppelin/contracts/utils/Address.sol\":7927:7928  0 */\n      0x00\n        /* \"@openzeppelin/contracts/utils/Address.sol\":7906:7916  returndata */\n      dup4\n        /* \"@openzeppelin/contracts/utils/Address.sol\":7906:7923  returndata.length */\n      mload\n        /* \"@openzeppelin/contracts/utils/Address.sol\":7906:7928  returndata.length == 0 */\n      sub\n        /* \"@openzeppelin/contracts/utils/Address.sol\":7902:8188  if (returndata.length == 0) {... */\n      tag_360\n      jumpi\n        /* \"@openzeppelin/contracts/utils/Address.sol\":8121:8139  isContract(target) */\n      tag_361\n        /* \"@openzeppelin/contracts/utils/Address.sol\":8132:8138  target */\n      dup6\n        /* \"@openzeppelin/contracts/utils/Address.sol\":8121:8131  isContract */\n      tag_362\n        /* \"@openzeppelin/contracts/utils/Address.sol\":8121:8139  isContract(target) */\n      jump\t// in\n    tag_361:\n        /* \"@openzeppelin/contracts/utils/Address.sol\":8113:8173  require(isContract(target), \"Address: call to non-contract\") */\n      tag_363\n      jumpi\n      mload(0x40)\n      0x08c379a000000000000000000000000000000000000000000000000000000000\n      dup2\n      mstore\n      0x04\n      add\n      tag_364\n      swap1\n      tag_365\n      jump\t// in\n    tag_364:\n      mload(0x40)\n      dup1\n      swap2\n      sub\n      swap1\n      revert\n    tag_363:\n        /* \"@openzeppelin/contracts/utils/Address.sol\":7902:8188  if (returndata.length == 0) {... */\n    tag_360:\n        /* \"@openzeppelin/contracts/utils/Address.sol\":8208:8218  returndata */\n      dup3\n        /* \"@openzeppelin/contracts/utils/Address.sol\":8201:8218  return returndata */\n      swap1\n      pop\n      jump(tag_358)\n        /* \"@openzeppelin/contracts/utils/Address.sol\":7875:8293  if (success) {... */\n    tag_359:\n        /* \"@openzeppelin/contracts/utils/Address.sol\":8249:8282  _revert(returndata, errorMessage) */\n      tag_367\n        /* \"@openzeppelin/contracts/utils/Address.sol\":8257:8267  returndata */\n      dup4\n        /* \"@openzeppelin/contracts/utils/Address.sol\":8269:8281  errorMessage */\n      dup4\n        /* \"@openzeppelin/contracts/utils/Address.sol\":8249:8256  _revert */\n      tag_368\n        /* \"@openzeppelin/contracts/utils/Address.sol\":8249:8282  _revert(returndata, errorMessage) */\n      jump\t// in\n    tag_367:\n        /* \"@openzeppelin/contracts/utils/Address.sol\":7671:8299  function verifyCallResultFromTarget(... */\n    tag_358:\n      swap5\n      swap4\n      pop\n      pop\n      pop\n      pop\n      jump\t// out\n        /* \"@openzeppelin/contracts/utils/Address.sol\":1412:1732  function isContract(address account) internal view returns (bool) {... */\n    tag_362:\n        /* \"@openzeppelin/contracts/utils/Address.sol\":1472:1476  bool */\n      0x00\n        /* \"@openzeppelin/contracts/utils/Address.sol\":1724:1725  0 */\n      0x00\n        /* \"@openzeppelin/contracts/utils/Address.sol\":1702:1709  account */\n      dup3\n        /* \"@openzeppelin/contracts/utils/Address.sol\":1702:1721  account.code.length */\n      0xffffffffffffffffffffffffffffffffffffffff\n      and\n      extcodesize\n        /* \"@openzeppelin/contracts/utils/Address.sol\":1702:1725  account.code.length > 0 */\n      gt\n        /* \"@openzeppelin/contracts/utils/Address.sol\":1695:1725  return account.code.length > 0 */\n      swap1\n      pop\n        /* \"@openzeppelin/contracts/utils/Address.sol\":1412:1732  function isContract(address account) internal view returns (bool) {... */\n      swap2\n      swap1\n      pop\n      jump\t// out\n        /* \"@openzeppelin/contracts/utils/Address.sol\":8821:9361  function _revert(bytes memory returndata, string memory errorMessage) private pure {... */\n    tag_368:\n        /* \"@openzeppelin/contracts/utils/Address.sol\":9000:9001  0 */\n      0x00\n        /* \"@openzeppelin/contracts/utils/Address.sol\":8980:8990  returndata */\n      dup3\n        /* \"@openzeppelin/contracts/utils/Address.sol\":8980:8997  returndata.length */\n      mload\n        /* \"@openzeppelin/contracts/utils/Address.sol\":8980:9001  returndata.length > 0 */\n      gt\n        /* \"@openzeppelin/contracts/utils/Address.sol\":8976:9355  if (returndata.length > 0) {... */\n      iszero\n      tag_371\n      jumpi\n        /* \"@openzeppelin/contracts/utils/Address.sol\":9208:9218  returndata */\n      dup2\n        /* \"@openzeppelin/contracts/utils/Address.sol\":9202:9219  mload(returndata) */\n      mload\n        /* \"@openzeppelin/contracts/utils/Address.sol\":9264:9279  returndata_size */\n      dup1\n        /* \"@openzeppelin/contracts/utils/Address.sol\":9251:9261  returndata */\n      dup4\n        /* \"@openzeppelin/contracts/utils/Address.sol\":9247:9249  32 */\n      0x20\n        /* \"@openzeppelin/contracts/utils/Address.sol\":9243:9262  add(32, returndata) */\n      add\n        /* \"@openzeppelin/contracts/utils/Address.sol\":9236:9280  revert(add(32, returndata), returndata_size) */\n      revert\n        /* \"@openzeppelin/contracts/utils/Address.sol\":8976:9355  if (returndata.length > 0) {... */\n    tag_371:\n        /* \"@openzeppelin/contracts/utils/Address.sol\":9331:9343  errorMessage */\n      dup1\n        /* \"@openzeppelin/contracts/utils/Address.sol\":9324:9344  revert(errorMessage) */\n      mload(0x40)\n      0x08c379a000000000000000000000000000000000000000000000000000000000\n      dup2\n      mstore\n      0x04\n      add\n      tag_373\n      swap2\n      swap1\n      tag_374\n      jump\t// in\n    tag_373:\n      mload(0x40)\n      dup1\n      swap2\n      sub\n      swap1\n      revert\n    tag_177:\n      dup3\n      dup1\n      sload\n      dup3\n      dup3\n      sstore\n      swap1\n      0x00\n      mstore\n      keccak256(0x00, 0x20)\n      swap1\n      dup2\n      add\n      swap3\n      dup3\n      iszero\n      tag_375\n      jumpi\n      swap2\n      0x20\n      mul\n      dup3\n      add\n    tag_376:\n      dup3\n      dup2\n      gt\n      iszero\n      tag_377\n      jumpi\n      dup3\n      mload\n      dup3\n      swap1\n      dup2\n      tag_378\n      swap2\n      swap1\n      tag_175\n      jump\t// in\n    tag_378:\n      pop\n      swap2\n      0x20\n      add\n      swap2\n      swap1\n      0x01\n      add\n      swap1\n      jump(tag_376)\n    tag_377:\n    tag_375:\n      pop\n      swap1\n      pop\n      tag_379\n      swap2\n      swap1\n      tag_380\n      jump\t// in\n    tag_379:\n      pop\n      swap1\n      jump\t// out\n    tag_380:\n    tag_381:\n      dup1\n      dup3\n      gt\n      iszero\n      tag_382\n      jumpi\n      0x00\n      dup2\n      dup2\n      tag_383\n      swap2\n      swap1\n      tag_384\n      jump\t// in\n    tag_383:\n      pop\n      0x01\n      add\n      jump(tag_381)\n    tag_382:\n      pop\n      swap1\n      jump\t// out\n    tag_384:\n      pop\n      dup1\n      sload\n      tag_385\n      swap1\n      tag_122\n      jump\t// in\n    tag_385:\n      0x00\n      dup3\n      sstore\n      dup1\n      0x1f\n      lt\n      tag_387\n      jumpi\n      pop\n      jump(tag_386)\n    tag_387:\n      0x1f\n      add\n      0x20\n      swap1\n      div\n      swap1\n      0x00\n      mstore\n      keccak256(0x00, 0x20)\n      swap1\n      dup2\n      add\n      swap1\n      tag_388\n      swap2\n      swap1\n      tag_389\n      jump\t// in\n    tag_388:\n    tag_386:\n      pop\n      jump\t// out\n    tag_389:\n    tag_390:\n      dup1\n      dup3\n      gt\n      iszero\n      tag_391\n      jumpi\n      0x00\n      dup2\n      0x00\n      swap1\n      sstore\n      pop\n      0x01\n      add\n      jump(tag_390)\n    tag_391:\n      pop\n      swap1\n      jump\t// out\n        /* \"#utility.yul\":7:82   */\n    tag_392:\n        /* \"#utility.yul\":40:46   */\n      0x00\n        /* \"#utility.yul\":73:75   */\n      0x40\n        /* \"#utility.yul\":67:76   */\n      mload\n        /* \"#utility.yul\":57:76   */\n      swap1\n      pop\n        /* \"#utility.yul\":7:82   */\n      swap1\n      jump\t// out\n        /* \"#utility.yul\":88:205   */\n    tag_393:\n        /* \"#utility.yul\":197:198   */\n      0x00\n        /* \"#utility.yul\":194:195   */\n      0x00\n        /* \"#utility.yul\":187:199   */\n      revert\n        /* \"#utility.yul\":211:328   */\n    tag_394:\n        /* \"#utility.yul\":320:321   */\n      0x00\n        /* \"#utility.yul\":317:318   */\n      0x00\n        /* \"#utility.yul\":310:322   */\n      revert\n        /* \"#utility.yul\":334:411   */\n    tag_395:\n        /* \"#utility.yul\":371:378   */\n      0x00\n        /* \"#utility.yul\":400:405   */\n      dup2\n        /* \"#utility.yul\":389:405   */\n      swap1\n      pop\n        /* \"#utility.yul\":334:411   */\n      swap2\n      swap1\n      pop\n      jump\t// out\n        /* \"#utility.yul\":417:539   */\n    tag_396:\n        /* \"#utility.yul\":490:514   */\n      tag_512\n        /* \"#utility.yul\":508:513   */\n      dup2\n        /* \"#utility.yul\":490:514   */\n      tag_395\n      jump\t// in\n    tag_512:\n        /* \"#utility.yul\":483:488   */\n      dup2\n        /* \"#utility.yul\":480:515   */\n      eq\n        /* \"#utility.yul\":470:533   */\n      tag_513\n      jumpi\n        /* \"#utility.yul\":529:530   */\n      0x00\n        /* \"#utility.yul\":526:527   */\n      0x00\n        /* \"#utility.yul\":519:531   */\n      revert\n        /* \"#utility.yul\":470:533   */\n    tag_513:\n        /* \"#utility.yul\":417:539   */\n      pop\n      jump\t// out\n        /* \"#utility.yul\":545:684   */\n    tag_397:\n        /* \"#utility.yul\":591:596   */\n      0x00\n        /* \"#utility.yul\":629:635   */\n      dup2\n        /* \"#utility.yul\":616:636   */\n      calldataload\n        /* \"#utility.yul\":607:636   */\n      swap1\n      pop\n        /* \"#utility.yul\":645:678   */\n      tag_515\n        /* \"#utility.yul\":672:677   */\n      dup2\n        /* \"#utility.yul\":645:678   */\n      tag_396\n      jump\t// in\n    tag_515:\n        /* \"#utility.yul\":545:684   */\n      swap3\n      swap2\n      pop\n      pop\n      jump\t// out\n        /* \"#utility.yul\":690:1019   */\n    tag_27:\n        /* \"#utility.yul\":749:755   */\n      0x00\n        /* \"#utility.yul\":798:800   */\n      0x20\n        /* \"#utility.yul\":786:795   */\n      dup3\n        /* \"#utility.yul\":777:784   */\n      dup5\n        /* \"#utility.yul\":773:796   */\n      sub\n        /* \"#utility.yul\":769:801   */\n      slt\n        /* \"#utility.yul\":766:885   */\n      iszero\n      tag_517\n      jumpi\n        /* \"#utility.yul\":804:883   */\n      tag_518\n      tag_393\n      jump\t// in\n    tag_518:\n        /* \"#utility.yul\":766:885   */\n    tag_517:\n        /* \"#utility.yul\":924:925   */\n      0x00\n        /* \"#utility.yul\":949:1002   */\n      tag_519\n        /* \"#utility.yul\":994:1001   */\n      dup5\n        /* \"#utility.yul\":985:991   */\n      dup3\n        /* \"#utility.yul\":974:983   */\n      dup6\n        /* \"#utility.yul\":970:992   */\n      add\n        /* \"#utility.yul\":949:1002   */\n      tag_397\n      jump\t// in\n    tag_519:\n        /* \"#utility.yul\":939:1002   */\n      swap2\n      pop\n        /* \"#utility.yul\":895:1012   */\n      pop\n        /* \"#utility.yul\":690:1019   */\n      swap3\n      swap2\n      pop\n      pop\n      jump\t// out\n        /* \"#utility.yul\":1025:1149   */\n    tag_398:\n        /* \"#utility.yul\":1102:1108   */\n      0x00\n        /* \"#utility.yul\":1136:1141   */\n      dup2\n        /* \"#utility.yul\":1130:1142   */\n      mload\n        /* \"#utility.yul\":1120:1142   */\n      swap1\n      pop\n        /* \"#utility.yul\":1025:1149   */\n      swap2\n      swap1\n      pop\n      jump\t// out\n        /* \"#utility.yul\":1155:1349   */\n    tag_399:\n        /* \"#utility.yul\":1264:1275   */\n      0x00\n        /* \"#utility.yul\":1298:1304   */\n      dup3\n        /* \"#utility.yul\":1293:1296   */\n      dup3\n        /* \"#utility.yul\":1286:1305   */\n      mstore\n        /* \"#utility.yul\":1338:1342   */\n      0x20\n        /* \"#utility.yul\":1333:1336   */\n      dup3\n        /* \"#utility.yul\":1329:1343   */\n      add\n        /* \"#utility.yul\":1314:1343   */\n      swap1\n      pop\n        /* \"#utility.yul\":1155:1349   */\n      swap3\n      swap2\n      pop\n      pop\n      jump\t// out\n        /* \"#utility.yul\":1355:1497   */\n    tag_400:\n        /* \"#utility.yul\":1432:1436   */\n      0x00\n        /* \"#utility.yul\":1455:1458   */\n      dup2\n        /* \"#utility.yul\":1447:1458   */\n      swap1\n      pop\n        /* \"#utility.yul\":1485:1489   */\n      0x20\n        /* \"#utility.yul\":1480:1483   */\n      dup3\n        /* \"#utility.yul\":1476:1490   */\n      add\n        /* \"#utility.yul\":1468:1490   */\n      swap1\n      pop\n        /* \"#utility.yul\":1355:1497   */\n      swap2\n      swap1\n      pop\n      jump\t// out\n        /* \"#utility.yul\":1503:1602   */\n    tag_401:\n        /* \"#utility.yul\":1555:1561   */\n      0x00\n        /* \"#utility.yul\":1589:1594   */\n      dup2\n        /* \"#utility.yul\":1583:1595   */\n      mload\n        /* \"#utility.yul\":1573:1595   */\n      swap1\n      pop\n        /* \"#utility.yul\":1503:1602   */\n      swap2\n      swap1\n      pop\n      jump\t// out\n        /* \"#utility.yul\":1608:1767   */\n    tag_402:\n        /* \"#utility.yul\":1682:1693   */\n      0x00\n        /* \"#utility.yul\":1716:1722   */\n      dup3\n        /* \"#utility.yul\":1711:1714   */\n      dup3\n        /* \"#utility.yul\":1704:1723   */\n      mstore\n        /* \"#utility.yul\":1756:1760   */\n      0x20\n        /* \"#utility.yul\":1751:1754   */\n      dup3\n        /* \"#utility.yul\":1747:1761   */\n      add\n        /* \"#utility.yul\":1732:1761   */\n      swap1\n      pop\n        /* \"#utility.yul\":1608:1767   */\n      swap3\n      swap2\n      pop\n      pop\n      jump\t// out\n        /* \"#utility.yul\":1773:1912   */\n    tag_403:\n        /* \"#utility.yul\":1862:1868   */\n      dup3\n        /* \"#utility.yul\":1857:1860   */\n      dup2\n        /* \"#utility.yul\":1852:1855   */\n      dup4\n        /* \"#utility.yul\":1846:1869   */\n      mcopy\n        /* \"#utility.yul\":1903:1904   */\n      0x00\n        /* \"#utility.yul\":1894:1900   */\n      dup4\n        /* \"#utility.yul\":1889:1892   */\n      dup4\n        /* \"#utility.yul\":1885:1901   */\n      add\n        /* \"#utility.yul\":1878:1905   */\n      mstore\n        /* \"#utility.yul\":1773:1912   */\n      pop\n      pop\n      pop\n      jump\t// out\n        /* \"#utility.yul\":1918:2020   */\n    tag_404:\n        /* \"#utility.yul\":1959:1965   */\n      0x00\n        /* \"#utility.yul\":2010:2012   */\n      0x1f\n        /* \"#utility.yul\":2006:2013   */\n      not\n        /* \"#utility.yul\":2001:2003   */\n      0x1f\n        /* \"#utility.yul\":1994:1999   */\n      dup4\n        /* \"#utility.yul\":1990:2004   */\n      add\n        /* \"#utility.yul\":1986:2014   */\n      and\n        /* \"#utility.yul\":1976:2014   */\n      swap1\n      pop\n        /* \"#utility.yul\":1918:2020   */\n      swap2\n      swap1\n      pop\n      jump\t// out\n        /* \"#utility.yul\":2026:2383   */\n    tag_405:\n        /* \"#utility.yul\":2104:2107   */\n      0x00\n        /* \"#utility.yul\":2132:2171   */\n      tag_528\n        /* \"#utility.yul\":2165:2170   */\n      dup3\n        /* \"#utility.yul\":2132:2171   */\n      tag_401\n      jump\t// in\n    tag_528:\n        /* \"#utility.yul\":2187:2248   */\n      tag_529\n        /* \"#utility.yul\":2241:2247   */\n      dup2\n        /* \"#utility.yul\":2236:2239   */\n      dup6\n        /* \"#utility.yul\":2187:2248   */\n      tag_402\n      jump\t// in\n    tag_529:\n        /* \"#utility.yul\":2180:2248   */\n      swap4\n      pop\n        /* \"#utility.yul\":2257:2322   */\n      tag_530\n        /* \"#utility.yul\":2315:2321   */\n      dup2\n        /* \"#utility.yul\":2310:2313   */\n      dup6\n        /* \"#utility.yul\":2303:2307   */\n      0x20\n        /* \"#utility.yul\":2296:2301   */\n      dup7\n        /* \"#utility.yul\":2292:2308   */\n      add\n        /* \"#utility.yul\":2257:2322   */\n      tag_403\n      jump\t// in\n    tag_530:\n        /* \"#utility.yul\":2347:2376   */\n      tag_531\n        /* \"#utility.yul\":2369:2375   */\n      dup2\n        /* \"#utility.yul\":2347:2376   */\n      tag_404\n      jump\t// in\n    tag_531:\n        /* \"#utility.yul\":2342:2345   */\n      dup5\n        /* \"#utility.yul\":2338:2377   */\n      add\n        /* \"#utility.yul\":2331:2377   */\n      swap2\n      pop\n        /* \"#utility.yul\":2108:2383   */\n      pop\n        /* \"#utility.yul\":2026:2383   */\n      swap3\n      swap2\n      pop\n      pop\n      jump\t// out\n        /* \"#utility.yul\":2389:2585   */\n    tag_406:\n        /* \"#utility.yul\":2478:2488   */\n      0x00\n        /* \"#utility.yul\":2513:2579   */\n      tag_533\n        /* \"#utility.yul\":2575:2578   */\n      dup4\n        /* \"#utility.yul\":2567:2573   */\n      dup4\n        /* \"#utility.yul\":2513:2579   */\n      tag_405\n      jump\t// in\n    tag_533:\n        /* \"#utility.yul\":2499:2579   */\n      swap1\n      pop\n        /* \"#utility.yul\":2389:2585   */\n      swap3\n      swap2\n      pop\n      pop\n      jump\t// out\n        /* \"#utility.yul\":2591:2714   */\n    tag_407:\n        /* \"#utility.yul\":2671:2675   */\n      0x00\n        /* \"#utility.yul\":2703:2707   */\n      0x20\n        /* \"#utility.yul\":2698:2701   */\n      dup3\n        /* \"#utility.yul\":2694:2708   */\n      add\n        /* \"#utility.yul\":2686:2708   */\n      swap1\n      pop\n        /* \"#utility.yul\":2591:2714   */\n      swap2\n      swap1\n      pop\n      jump\t// out\n        /* \"#utility.yul\":2748:3739   */\n    tag_408:\n        /* \"#utility.yul\":2887:2890   */\n      0x00\n        /* \"#utility.yul\":2916:2980   */\n      tag_536\n        /* \"#utility.yul\":2974:2979   */\n      dup3\n        /* \"#utility.yul\":2916:2980   */\n      tag_398\n      jump\t// in\n    tag_536:\n        /* \"#utility.yul\":2996:3092   */\n      tag_537\n        /* \"#utility.yul\":3085:3091   */\n      dup2\n        /* \"#utility.yul\":3080:3083   */\n      dup6\n        /* \"#utility.yul\":2996:3092   */\n      tag_399\n      jump\t// in\n    tag_537:\n        /* \"#utility.yul\":2989:3092   */\n      swap4\n      pop\n        /* \"#utility.yul\":3118:3121   */\n      dup4\n        /* \"#utility.yul\":3163:3167   */\n      0x20\n        /* \"#utility.yul\":3155:3161   */\n      dup3\n        /* \"#utility.yul\":3151:3168   */\n      mul\n        /* \"#utility.yul\":3146:3149   */\n      dup6\n        /* \"#utility.yul\":3142:3169   */\n      add\n        /* \"#utility.yul\":3193:3259   */\n      tag_538\n        /* \"#utility.yul\":3253:3258   */\n      dup6\n        /* \"#utility.yul\":3193:3259   */\n      tag_400\n      jump\t// in\n    tag_538:\n        /* \"#utility.yul\":3282:3289   */\n      dup1\n        /* \"#utility.yul\":3313:3314   */\n      0x00\n        /* \"#utility.yul\":3298:3694   */\n    tag_539:\n        /* \"#utility.yul\":3323:3329   */\n      dup6\n        /* \"#utility.yul\":3320:3321   */\n      dup2\n        /* \"#utility.yul\":3317:3330   */\n      lt\n        /* \"#utility.yul\":3298:3694   */\n      iszero\n      tag_541\n      jumpi\n        /* \"#utility.yul\":3394:3403   */\n      dup5\n        /* \"#utility.yul\":3388:3392   */\n      dup5\n        /* \"#utility.yul\":3384:3404   */\n      sub\n        /* \"#utility.yul\":3379:3382   */\n      dup10\n        /* \"#utility.yul\":3372:3405   */\n      mstore\n        /* \"#utility.yul\":3445:3451   */\n      dup2\n        /* \"#utility.yul\":3439:3452   */\n      mload\n        /* \"#utility.yul\":3473:3557   */\n      tag_542\n        /* \"#utility.yul\":3552:3556   */\n      dup6\n        /* \"#utility.yul\":3537:3550   */\n      dup3\n        /* \"#utility.yul\":3473:3557   */\n      tag_406\n      jump\t// in\n    tag_542:\n        /* \"#utility.yul\":3465:3557   */\n      swap5\n      pop\n        /* \"#utility.yul\":3580:3650   */\n      tag_543\n        /* \"#utility.yul\":3643:3649   */\n      dup4\n        /* \"#utility.yul\":3580:3650   */\n      tag_407\n      jump\t// in\n    tag_543:\n        /* \"#utility.yul\":3570:3650   */\n      swap3\n      pop\n        /* \"#utility.yul\":3679:3683   */\n      0x20\n        /* \"#utility.yul\":3674:3677   */\n      dup11\n        /* \"#utility.yul\":3670:3684   */\n      add\n        /* \"#utility.yul\":3663:3684   */\n      swap10\n      pop\n        /* \"#utility.yul\":3358:3694   */\n      pop\n        /* \"#utility.yul\":3345:3346   */\n      0x01\n        /* \"#utility.yul\":3342:3343   */\n      dup2\n        /* \"#utility.yul\":3338:3347   */\n      add\n        /* \"#utility.yul\":3333:3347   */\n      swap1\n      pop\n        /* \"#utility.yul\":3298:3694   */\n      jump(tag_539)\n    tag_541:\n        /* \"#utility.yul\":3302:3316   */\n      pop\n        /* \"#utility.yul\":3710:3714   */\n      dup3\n        /* \"#utility.yul\":3703:3714   */\n      swap8\n      pop\n        /* \"#utility.yul\":3730:3733   */\n      dup8\n        /* \"#utility.yul\":3723:3733   */\n      swap6\n      pop\n        /* \"#utility.yul\":2892:3739   */\n      pop\n      pop\n      pop\n      pop\n      pop\n        /* \"#utility.yul\":2748:3739   */\n      swap3\n      swap2\n      pop\n      pop\n      jump\t// out\n        /* \"#utility.yul\":3745:4158   */\n    tag_30:\n        /* \"#utility.yul\":3908:3912   */\n      0x00\n        /* \"#utility.yul\":3946:3948   */\n      0x20\n        /* \"#utility.yul\":3935:3944   */\n      dup3\n        /* \"#utility.yul\":3931:3949   */\n      add\n        /* \"#utility.yul\":3923:3949   */\n      swap1\n      pop\n        /* \"#utility.yul\":3995:4004   */\n      dup2\n        /* \"#utility.yul\":3989:3993   */\n      dup2\n        /* \"#utility.yul\":3985:4005   */\n      sub\n        /* \"#utility.yul\":3981:3982   */\n      0x00\n        /* \"#utility.yul\":3970:3979   */\n      dup4\n        /* \"#utility.yul\":3966:3983   */\n      add\n        /* \"#utility.yul\":3959:4006   */\n      mstore\n        /* \"#utility.yul\":4023:4151   */\n      tag_545\n        /* \"#utility.yul\":4146:4150   */\n      dup2\n        /* \"#utility.yul\":4137:4143   */\n      dup5\n        /* \"#utility.yul\":4023:4151   */\n      tag_408\n      jump\t// in\n    tag_545:\n        /* \"#utility.yul\":4015:4151   */\n      swap1\n      pop\n        /* \"#utility.yul\":3745:4158   */\n      swap3\n      swap2\n      pop\n      pop\n      jump\t// out\n        /* \"#utility.yul\":4164:4290   */\n    tag_409:\n        /* \"#utility.yul\":4201:4208   */\n      0x00\n        /* \"#utility.yul\":4241:4283   */\n      0xffffffffffffffffffffffffffffffffffffffff\n        /* \"#utility.yul\":4234:4239   */\n      dup3\n        /* \"#utility.yul\":4230:4284   */\n      and\n        /* \"#utility.yul\":4219:4284   */\n      swap1\n      pop\n        /* \"#utility.yul\":4164:4290   */\n      swap2\n      swap1\n      pop\n      jump\t// out\n        /* \"#utility.yul\":4296:4392   */\n    tag_410:\n        /* \"#utility.yul\":4333:4340   */\n      0x00\n        /* \"#utility.yul\":4362:4386   */\n      tag_548\n        /* \"#utility.yul\":4380:4385   */\n      dup3\n        /* \"#utility.yul\":4362:4386   */\n      tag_409\n      jump\t// in\n    tag_548:\n        /* \"#utility.yul\":4351:4386   */\n      swap1\n      pop\n        /* \"#utility.yul\":4296:4392   */\n      swap2\n      swap1\n      pop\n      jump\t// out\n        /* \"#utility.yul\":4398:4520   */\n    tag_411:\n        /* \"#utility.yul\":4471:4495   */\n      tag_550\n        /* \"#utility.yul\":4489:4494   */\n      dup2\n        /* \"#utility.yul\":4471:4495   */\n      tag_410\n      jump\t// in\n    tag_550:\n        /* \"#utility.yul\":4464:4469   */\n      dup2\n        /* \"#utility.yul\":4461:4496   */\n      eq\n        /* \"#utility.yul\":4451:4514   */\n      tag_551\n      jumpi\n        /* \"#utility.yul\":4510:4511   */\n      0x00\n        /* \"#utility.yul\":4507:4508   */\n      0x00\n        /* \"#utility.yul\":4500:4512   */\n      revert\n        /* \"#utility.yul\":4451:4514   */\n    tag_551:\n        /* \"#utility.yul\":4398:4520   */\n      pop\n      jump\t// out\n        /* \"#utility.yul\":4526:4665   */\n    tag_412:\n        /* \"#utility.yul\":4572:4577   */\n      0x00\n        /* \"#utility.yul\":4610:4616   */\n      dup2\n        /* \"#utility.yul\":4597:4617   */\n      calldataload\n        /* \"#utility.yul\":4588:4617   */\n      swap1\n      pop\n        /* \"#utility.yul\":4626:4659   */\n      tag_553\n        /* \"#utility.yul\":4653:4658   */\n      dup2\n        /* \"#utility.yul\":4626:4659   */\n      tag_411\n      jump\t// in\n    tag_553:\n        /* \"#utility.yul\":4526:4665   */\n      swap3\n      swap2\n      pop\n      pop\n      jump\t// out\n        /* \"#utility.yul\":4671:5000   */\n    tag_39:\n        /* \"#utility.yul\":4730:4736   */\n      0x00\n        /* \"#utility.yul\":4779:4781   */\n      0x20\n        /* \"#utility.yul\":4767:4776   */\n      dup3\n        /* \"#utility.yul\":4758:4765   */\n      dup5\n        /* \"#utility.yul\":4754:4777   */\n      sub\n        /* \"#utility.yul\":4750:4782   */\n      slt\n        /* \"#utility.yul\":4747:4866   */\n      iszero\n      tag_555\n      jumpi\n        /* \"#utility.yul\":4785:4864   */\n      tag_556\n      tag_393\n      jump\t// in\n    tag_556:\n        /* \"#utility.yul\":4747:4866   */\n    tag_555:\n        /* \"#utility.yul\":4905:4906   */\n      0x00\n        /* \"#utility.yul\":4930:4983   */\n      tag_557\n        /* \"#utility.yul\":4975:4982   */\n      dup5\n        /* \"#utility.yul\":4966:4972   */\n      dup3\n        /* \"#utility.yul\":4955:4964   */\n      dup6\n        /* \"#utility.yul\":4951:4973   */\n      add\n        /* \"#utility.yul\":4930:4983   */\n      tag_412\n      jump\t// in\n    tag_557:\n        /* \"#utility.yul\":4920:4983   */\n      swap2\n      pop\n        /* \"#utility.yul\":4876:4993   */\n      pop\n        /* \"#utility.yul\":4671:5000   */\n      swap3\n      swap2\n      pop\n      pop\n      jump\t// out\n        /* \"#utility.yul\":5006:5124   */\n    tag_413:\n        /* \"#utility.yul\":5093:5117   */\n      tag_559\n        /* \"#utility.yul\":5111:5116   */\n      dup2\n        /* \"#utility.yul\":5093:5117   */\n      tag_395\n      jump\t// in\n    tag_559:\n        /* \"#utility.yul\":5088:5091   */\n      dup3\n        /* \"#utility.yul\":5081:5118   */\n      mstore\n        /* \"#utility.yul\":5006:5124   */\n      pop\n      pop\n      jump\t// out\n        /* \"#utility.yul\":5130:5352   */\n    tag_42:\n        /* \"#utility.yul\":5223:5227   */\n      0x00\n        /* \"#utility.yul\":5261:5263   */\n      0x20\n        /* \"#utility.yul\":5250:5259   */\n      dup3\n        /* \"#utility.yul\":5246:5264   */\n      add\n        /* \"#utility.yul\":5238:5264   */\n      swap1\n      pop\n        /* \"#utility.yul\":5274:5345   */\n      tag_561\n        /* \"#utility.yul\":5342:5343   */\n      0x00\n        /* \"#utility.yul\":5331:5340   */\n      dup4\n        /* \"#utility.yul\":5327:5344   */\n      add\n        /* \"#utility.yul\":5318:5324   */\n      dup5\n        /* \"#utility.yul\":5274:5345   */\n      tag_413\n      jump\t// in\n    tag_561:\n        /* \"#utility.yul\":5130:5352   */\n      swap3\n      swap2\n      pop\n      pop\n      jump\t// out\n        /* \"#utility.yul\":5358:5475   */\n    tag_414:\n        /* \"#utility.yul\":5467:5468   */\n      0x00\n        /* \"#utility.yul\":5464:5465   */\n      0x00\n        /* \"#utility.yul\":5457:5469   */\n      revert\n        /* \"#utility.yul\":5481:5598   */\n    tag_415:\n        /* \"#utility.yul\":5590:5591   */\n      0x00\n        /* \"#utility.yul\":5587:5588   */\n      0x00\n        /* \"#utility.yul\":5580:5592   */\n      revert\n        /* \"#utility.yul\":5604:5784   */\n    tag_416:\n        /* \"#utility.yul\":5652:5729   */\n      0x4e487b7100000000000000000000000000000000000000000000000000000000\n        /* \"#utility.yul\":5649:5650   */\n      0x00\n        /* \"#utility.yul\":5642:5730   */\n      mstore\n        /* \"#utility.yul\":5749:5753   */\n      0x41\n        /* \"#utility.yul\":5746:5747   */\n      0x04\n        /* \"#utility.yul\":5739:5754   */\n      mstore\n        /* \"#utility.yul\":5773:5777   */\n      0x24\n        /* \"#utility.yul\":5770:5771   */\n      0x00\n        /* \"#utility.yul\":5763:5778   */\n      revert\n        /* \"#utility.yul\":5790:6071   */\n    tag_417:\n        /* \"#utility.yul\":5873:5900   */\n      tag_566\n        /* \"#utility.yul\":5895:5899   */\n      dup3\n        /* \"#utility.yul\":5873:5900   */\n      tag_404\n      jump\t// in\n    tag_566:\n        /* \"#utility.yul\":5865:5871   */\n      dup2\n        /* \"#utility.yul\":5861:5901   */\n      add\n        /* \"#utility.yul\":6003:6009   */\n      dup2\n        /* \"#utility.yul\":5991:6001   */\n      dup2\n        /* \"#utility.yul\":5988:6010   */\n      lt\n        /* \"#utility.yul\":5967:5985   */\n      0xffffffffffffffff\n        /* \"#utility.yul\":5955:5965   */\n      dup3\n        /* \"#utility.yul\":5952:5986   */\n      gt\n        /* \"#utility.yul\":5949:6011   */\n      or\n        /* \"#utility.yul\":5946:6034   */\n      iszero\n      tag_567\n      jumpi\n        /* \"#utility.yul\":6014:6032   */\n      tag_568\n      tag_416\n      jump\t// in\n    tag_568:\n        /* \"#utility.yul\":5946:6034   */\n    tag_567:\n        /* \"#utility.yul\":6054:6064   */\n      dup1\n        /* \"#utility.yul\":6050:6052   */\n      0x40\n        /* \"#utility.yul\":6043:6065   */\n      mstore\n        /* \"#utility.yul\":5833:6071   */\n      pop\n        /* \"#utility.yul\":5790:6071   */\n      pop\n      pop\n      jump\t// out\n        /* \"#utility.yul\":6077:6206   */\n    tag_418:\n        /* \"#utility.yul\":6111:6117   */\n      0x00\n        /* \"#utility.yul\":6138:6158   */\n      tag_570\n      tag_392\n      jump\t// in\n    tag_570:\n        /* \"#utility.yul\":6128:6158   */\n      swap1\n      pop\n        /* \"#utility.yul\":6167:6200   */\n      tag_571\n        /* \"#utility.yul\":6195:6199   */\n      dup3\n        /* \"#utility.yul\":6187:6193   */\n      dup3\n        /* \"#utility.yul\":6167:6200   */\n      tag_417\n      jump\t// in\n    tag_571:\n        /* \"#utility.yul\":6077:6206   */\n      swap2\n      swap1\n      pop\n      jump\t// out\n        /* \"#utility.yul\":6212:6520   */\n    tag_419:\n        /* \"#utility.yul\":6274:6278   */\n      0x00\n        /* \"#utility.yul\":6364:6382   */\n      0xffffffffffffffff\n        /* \"#utility.yul\":6356:6362   */\n      dup3\n        /* \"#utility.yul\":6353:6383   */\n      gt\n        /* \"#utility.yul\":6350:6406   */\n      iszero\n      tag_573\n      jumpi\n        /* \"#utility.yul\":6386:6404   */\n      tag_574\n      tag_416\n      jump\t// in\n    tag_574:\n        /* \"#utility.yul\":6350:6406   */\n    tag_573:\n        /* \"#utility.yul\":6424:6453   */\n      tag_575\n        /* \"#utility.yul\":6446:6452   */\n      dup3\n        /* \"#utility.yul\":6424:6453   */\n      tag_404\n      jump\t// in\n    tag_575:\n        /* \"#utility.yul\":6416:6453   */\n      swap1\n      pop\n        /* \"#utility.yul\":6508:6512   */\n      0x20\n        /* \"#utility.yul\":6502:6506   */\n      dup2\n        /* \"#utility.yul\":6498:6513   */\n      add\n        /* \"#utility.yul\":6490:6513   */\n      swap1\n      pop\n        /* \"#utility.yul\":6212:6520   */\n      swap2\n      swap1\n      pop\n      jump\t// out\n        /* \"#utility.yul\":6526:6674   */\n    tag_420:\n        /* \"#utility.yul\":6624:6630   */\n      dup3\n        /* \"#utility.yul\":6619:6622   */\n      dup2\n        /* \"#utility.yul\":6614:6617   */\n      dup4\n        /* \"#utility.yul\":6601:6631   */\n      calldatacopy\n        /* \"#utility.yul\":6665:6666   */\n      0x00\n        /* \"#utility.yul\":6656:6662   */\n      dup4\n        /* \"#utility.yul\":6651:6654   */\n      dup4\n        /* \"#utility.yul\":6647:6663   */\n      add\n        /* \"#utility.yul\":6640:6667   */\n      mstore\n        /* \"#utility.yul\":6526:6674   */\n      pop\n      pop\n      pop\n      jump\t// out\n        /* \"#utility.yul\":6680:7105   */\n    tag_421:\n        /* \"#utility.yul\":6758:6763   */\n      0x00\n        /* \"#utility.yul\":6783:6849   */\n      tag_578\n        /* \"#utility.yul\":6799:6848   */\n      tag_579\n        /* \"#utility.yul\":6841:6847   */\n      dup5\n        /* \"#utility.yul\":6799:6848   */\n      tag_419\n      jump\t// in\n    tag_579:\n        /* \"#utility.yul\":6783:6849   */\n      tag_418\n      jump\t// in\n    tag_578:\n        /* \"#utility.yul\":6774:6849   */\n      swap1\n      pop\n        /* \"#utility.yul\":6872:6878   */\n      dup3\n        /* \"#utility.yul\":6865:6870   */\n      dup2\n        /* \"#utility.yul\":6858:6879   */\n      mstore\n        /* \"#utility.yul\":6910:6914   */\n      0x20\n        /* \"#utility.yul\":6903:6908   */\n      dup2\n        /* \"#utility.yul\":6899:6915   */\n      add\n        /* \"#utility.yul\":6948:6951   */\n      dup5\n        /* \"#utility.yul\":6939:6945   */\n      dup5\n        /* \"#utility.yul\":6934:6937   */\n      dup5\n        /* \"#utility.yul\":6930:6946   */\n      add\n        /* \"#utility.yul\":6927:6952   */\n      gt\n        /* \"#utility.yul\":6924:7036   */\n      iszero\n      tag_580\n      jumpi\n        /* \"#utility.yul\":6955:7034   */\n      tag_581\n      tag_415\n      jump\t// in\n    tag_581:\n        /* \"#utility.yul\":6924:7036   */\n    tag_580:\n        /* \"#utility.yul\":7045:7099   */\n      tag_582\n        /* \"#utility.yul\":7092:7098   */\n      dup5\n        /* \"#utility.yul\":7087:7090   */\n      dup3\n        /* \"#utility.yul\":7082:7085   */\n      dup6\n        /* \"#utility.yul\":7045:7099   */\n      tag_420\n      jump\t// in\n    tag_582:\n        /* \"#utility.yul\":6764:7105   */\n      pop\n        /* \"#utility.yul\":6680:7105   */\n      swap4\n      swap3\n      pop\n      pop\n      pop\n      jump\t// out\n        /* \"#utility.yul\":7125:7465   */\n    tag_422:\n        /* \"#utility.yul\":7181:7186   */\n      0x00\n        /* \"#utility.yul\":7230:7233   */\n      dup3\n        /* \"#utility.yul\":7223:7227   */\n      0x1f\n        /* \"#utility.yul\":7215:7221   */\n      dup4\n        /* \"#utility.yul\":7211:7228   */\n      add\n        /* \"#utility.yul\":7207:7234   */\n      slt\n        /* \"#utility.yul\":7197:7319   */\n      tag_584\n      jumpi\n        /* \"#utility.yul\":7238:7317   */\n      tag_585\n      tag_414\n      jump\t// in\n    tag_585:\n        /* \"#utility.yul\":7197:7319   */\n    tag_584:\n        /* \"#utility.yul\":7355:7361   */\n      dup2\n        /* \"#utility.yul\":7342:7362   */\n      calldataload\n        /* \"#utility.yul\":7380:7459   */\n      tag_586\n        /* \"#utility.yul\":7455:7458   */\n      dup5\n        /* \"#utility.yul\":7447:7453   */\n      dup3\n        /* \"#utility.yul\":7440:7444   */\n      0x20\n        /* \"#utility.yul\":7432:7438   */\n      dup7\n        /* \"#utility.yul\":7428:7445   */\n      add\n        /* \"#utility.yul\":7380:7459   */\n      tag_421\n      jump\t// in\n    tag_586:\n        /* \"#utility.yul\":7371:7459   */\n      swap2\n      pop\n        /* \"#utility.yul\":7187:7465   */\n      pop\n        /* \"#utility.yul\":7125:7465   */\n      swap3\n      swap2\n      pop\n      pop\n      jump\t// out\n        /* \"#utility.yul\":7471:7792   */\n    tag_423:\n        /* \"#utility.yul\":7558:7562   */\n      0x00\n        /* \"#utility.yul\":7648:7666   */\n      0xffffffffffffffff\n        /* \"#utility.yul\":7640:7646   */\n      dup3\n        /* \"#utility.yul\":7637:7667   */\n      gt\n        /* \"#utility.yul\":7634:7690   */\n      iszero\n      tag_588\n      jumpi\n        /* \"#utility.yul\":7670:7688   */\n      tag_589\n      tag_416\n      jump\t// in\n    tag_589:\n        /* \"#utility.yul\":7634:7690   */\n    tag_588:\n        /* \"#utility.yul\":7720:7724   */\n      0x20\n        /* \"#utility.yul\":7712:7718   */\n      dup3\n        /* \"#utility.yul\":7708:7725   */\n      mul\n        /* \"#utility.yul\":7700:7725   */\n      swap1\n      pop\n        /* \"#utility.yul\":7780:7784   */\n      0x20\n        /* \"#utility.yul\":7774:7778   */\n      dup2\n        /* \"#utility.yul\":7770:7785   */\n      add\n        /* \"#utility.yul\":7762:7785   */\n      swap1\n      pop\n        /* \"#utility.yul\":7471:7792   */\n      swap2\n      swap1\n      pop\n      jump\t// out\n        /* \"#utility.yul\":7798:7915   */\n    tag_424:\n        /* \"#utility.yul\":7907:7908   */\n      0x00\n        /* \"#utility.yul\":7904:7905   */\n      0x00\n        /* \"#utility.yul\":7897:7909   */\n      revert\n        /* \"#utility.yul\":7937:8882   */\n    tag_425:\n        /* \"#utility.yul\":8043:8048   */\n      0x00\n        /* \"#utility.yul\":8068:8159   */\n      tag_592\n        /* \"#utility.yul\":8084:8158   */\n      tag_593\n        /* \"#utility.yul\":8151:8157   */\n      dup5\n        /* \"#utility.yul\":8084:8158   */\n      tag_423\n      jump\t// in\n    tag_593:\n        /* \"#utility.yul\":8068:8159   */\n      tag_418\n      jump\t// in\n    tag_592:\n        /* \"#utility.yul\":8059:8159   */\n      swap1\n      pop\n        /* \"#utility.yul\":8179:8184   */\n      dup1\n        /* \"#utility.yul\":8208:8214   */\n      dup4\n        /* \"#utility.yul\":8201:8206   */\n      dup3\n        /* \"#utility.yul\":8194:8215   */\n      mstore\n        /* \"#utility.yul\":8242:8246   */\n      0x20\n        /* \"#utility.yul\":8235:8240   */\n      dup3\n        /* \"#utility.yul\":8231:8247   */\n      add\n        /* \"#utility.yul\":8224:8247   */\n      swap1\n      pop\n        /* \"#utility.yul\":8295:8299   */\n      0x20\n        /* \"#utility.yul\":8287:8293   */\n      dup5\n        /* \"#utility.yul\":8283:8300   */\n      mul\n        /* \"#utility.yul\":8275:8281   */\n      dup4\n        /* \"#utility.yul\":8271:8301   */\n      add\n        /* \"#utility.yul\":8324:8327   */\n      dup6\n        /* \"#utility.yul\":8316:8322   */\n      dup2\n        /* \"#utility.yul\":8313:8328   */\n      gt\n        /* \"#utility.yul\":8310:8432   */\n      iszero\n      tag_594\n      jumpi\n        /* \"#utility.yul\":8343:8422   */\n      tag_595\n      tag_424\n      jump\t// in\n    tag_595:\n        /* \"#utility.yul\":8310:8432   */\n    tag_594:\n        /* \"#utility.yul\":8458:8464   */\n      dup4\n        /* \"#utility.yul\":8441:8876   */\n    tag_596:\n        /* \"#utility.yul\":8475:8481   */\n      dup2\n        /* \"#utility.yul\":8470:8473   */\n      dup2\n        /* \"#utility.yul\":8467:8482   */\n      lt\n        /* \"#utility.yul\":8441:8876   */\n      iszero\n      tag_598\n      jumpi\n        /* \"#utility.yul\":8564:8567   */\n      dup1\n        /* \"#utility.yul\":8551:8568   */\n      calldataload\n        /* \"#utility.yul\":8600:8618   */\n      0xffffffffffffffff\n        /* \"#utility.yul\":8587:8598   */\n      dup2\n        /* \"#utility.yul\":8584:8619   */\n      gt\n        /* \"#utility.yul\":8581:8703   */\n      iszero\n      tag_599\n      jumpi\n        /* \"#utility.yul\":8622:8701   */\n      tag_600\n      tag_414\n      jump\t// in\n    tag_600:\n        /* \"#utility.yul\":8581:8703   */\n    tag_599:\n        /* \"#utility.yul\":8746:8757   */\n      dup1\n        /* \"#utility.yul\":8738:8744   */\n      dup7\n        /* \"#utility.yul\":8734:8758   */\n      add\n        /* \"#utility.yul\":8784:8831   */\n      tag_601\n        /* \"#utility.yul\":8827:8830   */\n      dup10\n        /* \"#utility.yul\":8815:8825   */\n      dup3\n        /* \"#utility.yul\":8784:8831   */\n      tag_422\n      jump\t// in\n    tag_601:\n        /* \"#utility.yul\":8779:8782   */\n      dup6\n        /* \"#utility.yul\":8772:8832   */\n      mstore\n        /* \"#utility.yul\":8861:8865   */\n      0x20\n        /* \"#utility.yul\":8856:8859   */\n      dup6\n        /* \"#utility.yul\":8852:8866   */\n      add\n        /* \"#utility.yul\":8845:8866   */\n      swap5\n      pop\n        /* \"#utility.yul\":8517:8876   */\n      pop\n      pop\n        /* \"#utility.yul\":8501:8505   */\n      0x20\n        /* \"#utility.yul\":8496:8499   */\n      dup2\n        /* \"#utility.yul\":8492:8506   */\n      add\n        /* \"#utility.yul\":8485:8506   */\n      swap1\n      pop\n        /* \"#utility.yul\":8441:8876   */\n      jump(tag_596)\n    tag_598:\n        /* \"#utility.yul\":8445:8466   */\n      pop\n        /* \"#utility.yul\":8049:8882   */\n      pop\n      pop\n        /* \"#utility.yul\":7937:8882   */\n      swap4\n      swap3\n      pop\n      pop\n      pop\n      jump\t// out\n        /* \"#utility.yul\":8904:9294   */\n    tag_426:\n        /* \"#utility.yul\":8985:8990   */\n      0x00\n        /* \"#utility.yul\":9034:9037   */\n      dup3\n        /* \"#utility.yul\":9027:9031   */\n      0x1f\n        /* \"#utility.yul\":9019:9025   */\n      dup4\n        /* \"#utility.yul\":9015:9032   */\n      add\n        /* \"#utility.yul\":9011:9038   */\n      slt\n        /* \"#utility.yul\":9001:9123   */\n      tag_603\n      jumpi\n        /* \"#utility.yul\":9042:9121   */\n      tag_604\n      tag_414\n      jump\t// in\n    tag_604:\n        /* \"#utility.yul\":9001:9123   */\n    tag_603:\n        /* \"#utility.yul\":9159:9165   */\n      dup2\n        /* \"#utility.yul\":9146:9166   */\n      calldataload\n        /* \"#utility.yul\":9184:9288   */\n      tag_605\n        /* \"#utility.yul\":9284:9287   */\n      dup5\n        /* \"#utility.yul\":9276:9282   */\n      dup3\n        /* \"#utility.yul\":9269:9273   */\n      0x20\n        /* \"#utility.yul\":9261:9267   */\n      dup7\n        /* \"#utility.yul\":9257:9274   */\n      add\n        /* \"#utility.yul\":9184:9288   */\n      tag_425\n      jump\t// in\n    tag_605:\n        /* \"#utility.yul\":9175:9288   */\n      swap2\n      pop\n        /* \"#utility.yul\":8991:9294   */\n      pop\n        /* \"#utility.yul\":8904:9294   */\n      swap3\n      swap2\n      pop\n      pop\n      jump\t// out\n        /* \"#utility.yul\":9300:11941   */\n    tag_52:\n        /* \"#utility.yul\":9540:9546   */\n      0x00\n        /* \"#utility.yul\":9548:9554   */\n      0x00\n        /* \"#utility.yul\":9556:9562   */\n      0x00\n        /* \"#utility.yul\":9564:9570   */\n      0x00\n        /* \"#utility.yul\":9572:9578   */\n      0x00\n        /* \"#utility.yul\":9580:9586   */\n      0x00\n        /* \"#utility.yul\":9588:9594   */\n      0x00\n        /* \"#utility.yul\":9596:9602   */\n      0x00\n        /* \"#utility.yul\":9604:9610   */\n      0x00\n        /* \"#utility.yul\":9612:9618   */\n      0x00\n        /* \"#utility.yul\":9661:9664   */\n      0x0140\n        /* \"#utility.yul\":9649:9658   */\n      dup12\n        /* \"#utility.yul\":9640:9647   */\n      dup14\n        /* \"#utility.yul\":9636:9659   */\n      sub\n        /* \"#utility.yul\":9632:9665   */\n      slt\n        /* \"#utility.yul\":9629:9749   */\n      iszero\n      tag_607\n      jumpi\n        /* \"#utility.yul\":9668:9747   */\n      tag_608\n      tag_393\n      jump\t// in\n    tag_608:\n        /* \"#utility.yul\":9629:9749   */\n    tag_607:\n        /* \"#utility.yul\":9816:9817   */\n      0x00\n        /* \"#utility.yul\":9805:9814   */\n      dup12\n        /* \"#utility.yul\":9801:9818   */\n      add\n        /* \"#utility.yul\":9788:9819   */\n      calldataload\n        /* \"#utility.yul\":9846:9864   */\n      0xffffffffffffffff\n        /* \"#utility.yul\":9838:9844   */\n      dup2\n        /* \"#utility.yul\":9835:9865   */\n      gt\n        /* \"#utility.yul\":9832:9949   */\n      iszero\n      tag_609\n      jumpi\n        /* \"#utility.yul\":9868:9947   */\n      tag_610\n      tag_394\n      jump\t// in\n    tag_610:\n        /* \"#utility.yul\":9832:9949   */\n    tag_609:\n        /* \"#utility.yul\":9973:10036   */\n      tag_611\n        /* \"#utility.yul\":10028:10035   */\n      dup14\n        /* \"#utility.yul\":10019:10025   */\n      dup3\n        /* \"#utility.yul\":10008:10017   */\n      dup15\n        /* \"#utility.yul\":10004:10026   */\n      add\n        /* \"#utility.yul\":9973:10036   */\n      tag_422\n      jump\t// in\n    tag_611:\n        /* \"#utility.yul\":9963:10036   */\n      swap11\n      pop\n        /* \"#utility.yul\":9759:10046   */\n      pop\n        /* \"#utility.yul\":10085:10087   */\n      0x20\n        /* \"#utility.yul\":10111:10164   */\n      tag_612\n        /* \"#utility.yul\":10156:10163   */\n      dup14\n        /* \"#utility.yul\":10147:10153   */\n      dup3\n        /* \"#utility.yul\":10136:10145   */\n      dup15\n        /* \"#utility.yul\":10132:10154   */\n      add\n        /* \"#utility.yul\":10111:10164   */\n      tag_397\n      jump\t// in\n    tag_612:\n        /* \"#utility.yul\":10101:10164   */\n      swap10\n      pop\n        /* \"#utility.yul\":10056:10174   */\n      pop\n        /* \"#utility.yul\":10241:10243   */\n      0x40\n        /* \"#utility.yul\":10230:10239   */\n      dup12\n        /* \"#utility.yul\":10226:10244   */\n      add\n        /* \"#utility.yul\":10213:10245   */\n      calldataload\n        /* \"#utility.yul\":10272:10290   */\n      0xffffffffffffffff\n        /* \"#utility.yul\":10264:10270   */\n      dup2\n        /* \"#utility.yul\":10261:10291   */\n      gt\n        /* \"#utility.yul\":10258:10375   */\n      iszero\n      tag_613\n      jumpi\n        /* \"#utility.yul\":10294:10373   */\n      tag_614\n      tag_394\n      jump\t// in\n    tag_614:\n        /* \"#utility.yul\":10258:10375   */\n    tag_613:\n        /* \"#utility.yul\":10399:10487   */\n      tag_615\n        /* \"#utility.yul\":10479:10486   */\n      dup14\n        /* \"#utility.yul\":10470:10476   */\n      dup3\n        /* \"#utility.yul\":10459:10468   */\n      dup15\n        /* \"#utility.yul\":10455:10477   */\n      add\n        /* \"#utility.yul\":10399:10487   */\n      tag_426\n      jump\t// in\n    tag_615:\n        /* \"#utility.yul\":10389:10487   */\n      swap9\n      pop\n        /* \"#utility.yul\":10184:10497   */\n      pop\n        /* \"#utility.yul\":10536:10538   */\n      0x60\n        /* \"#utility.yul\":10562:10615   */\n      tag_616\n        /* \"#utility.yul\":10607:10614   */\n      dup14\n        /* \"#utility.yul\":10598:10604   */\n      dup3\n        /* \"#utility.yul\":10587:10596   */\n      dup15\n        /* \"#utility.yul\":10583:10605   */\n      add\n        /* \"#utility.yul\":10562:10615   */\n      tag_397\n      jump\t// in\n    tag_616:\n        /* \"#utility.yul\":10552:10615   */\n      swap8\n      pop\n        /* \"#utility.yul\":10507:10625   */\n      pop\n        /* \"#utility.yul\":10664:10667   */\n      0x80\n        /* \"#utility.yul\":10691:10744   */\n      tag_617\n        /* \"#utility.yul\":10736:10743   */\n      dup14\n        /* \"#utility.yul\":10727:10733   */\n      dup3\n        /* \"#utility.yul\":10716:10725   */\n      dup15\n        /* \"#utility.yul\":10712:10734   */\n      add\n        /* \"#utility.yul\":10691:10744   */\n      tag_397\n      jump\t// in\n    tag_617:\n        /* \"#utility.yul\":10681:10744   */\n      swap7\n      pop\n        /* \"#utility.yul\":10635:10754   */\n      pop\n        /* \"#utility.yul\":10793:10796   */\n      0xa0\n        /* \"#utility.yul\":10820:10873   */\n      tag_618\n        /* \"#utility.yul\":10865:10872   */\n      dup14\n        /* \"#utility.yul\":10856:10862   */\n      dup3\n        /* \"#utility.yul\":10845:10854   */\n      dup15\n        /* \"#utility.yul\":10841:10863   */\n      add\n        /* \"#utility.yul\":10820:10873   */\n      tag_412\n      jump\t// in\n    tag_618:\n        /* \"#utility.yul\":10810:10873   */\n      swap6\n      pop\n        /* \"#utility.yul\":10764:10883   */\n      pop\n        /* \"#utility.yul\":10950:10953   */\n      0xc0\n        /* \"#utility.yul\":10939:10948   */\n      dup12\n        /* \"#utility.yul\":10935:10954   */\n      add\n        /* \"#utility.yul\":10922:10955   */\n      calldataload\n        /* \"#utility.yul\":10982:11000   */\n      0xffffffffffffffff\n        /* \"#utility.yul\":10974:10980   */\n      dup2\n        /* \"#utility.yul\":10971:11001   */\n      gt\n        /* \"#utility.yul\":10968:11085   */\n      iszero\n      tag_619\n      jumpi\n        /* \"#utility.yul\":11004:11083   */\n      tag_620\n      tag_394\n      jump\t// in\n    tag_620:\n        /* \"#utility.yul\":10968:11085   */\n    tag_619:\n        /* \"#utility.yul\":11109:11172   */\n      tag_621\n        /* \"#utility.yul\":11164:11171   */\n      dup14\n        /* \"#utility.yul\":11155:11161   */\n      dup3\n        /* \"#utility.yul\":11144:11153   */\n      dup15\n        /* \"#utility.yul\":11140:11162   */\n      add\n        /* \"#utility.yul\":11109:11172   */\n      tag_422\n      jump\t// in\n    tag_621:\n        /* \"#utility.yul\":11099:11172   */\n      swap5\n      pop\n        /* \"#utility.yul\":10893:11182   */\n      pop\n        /* \"#utility.yul\":11249:11252   */\n      0xe0\n        /* \"#utility.yul\":11238:11247   */\n      dup12\n        /* \"#utility.yul\":11234:11253   */\n      add\n        /* \"#utility.yul\":11221:11254   */\n      calldataload\n        /* \"#utility.yul\":11281:11299   */\n      0xffffffffffffffff\n        /* \"#utility.yul\":11273:11279   */\n      dup2\n        /* \"#utility.yul\":11270:11300   */\n      gt\n        /* \"#utility.yul\":11267:11384   */\n      iszero\n      tag_622\n      jumpi\n        /* \"#utility.yul\":11303:11382   */\n      tag_623\n      tag_394\n      jump\t// in\n    tag_623:\n        /* \"#utility.yul\":11267:11384   */\n    tag_622:\n        /* \"#utility.yul\":11408:11471   */\n      tag_624\n        /* \"#utility.yul\":11463:11470   */\n      dup14\n        /* \"#utility.yul\":11454:11460   */\n      dup3\n        /* \"#utility.yul\":11443:11452   */\n      dup15\n        /* \"#utility.yul\":11439:11461   */\n      add\n        /* \"#utility.yul\":11408:11471   */\n      tag_422\n      jump\t// in\n    tag_624:\n        /* \"#utility.yul\":11398:11471   */\n      swap4\n      pop\n        /* \"#utility.yul\":11192:11481   */\n      pop\n        /* \"#utility.yul\":11548:11551   */\n      0x0100\n        /* \"#utility.yul\":11537:11546   */\n      dup12\n        /* \"#utility.yul\":11533:11552   */\n      add\n        /* \"#utility.yul\":11520:11553   */\n      calldataload\n        /* \"#utility.yul\":11580:11598   */\n      0xffffffffffffffff\n        /* \"#utility.yul\":11572:11578   */\n      dup2\n        /* \"#utility.yul\":11569:11599   */\n      gt\n        /* \"#utility.yul\":11566:11683   */\n      iszero\n      tag_625\n      jumpi\n        /* \"#utility.yul\":11602:11681   */\n      tag_626\n      tag_394\n      jump\t// in\n    tag_626:\n        /* \"#utility.yul\":11566:11683   */\n    tag_625:\n        /* \"#utility.yul\":11707:11795   */\n      tag_627\n        /* \"#utility.yul\":11787:11794   */\n      dup14\n        /* \"#utility.yul\":11778:11784   */\n      dup3\n        /* \"#utility.yul\":11767:11776   */\n      dup15\n        /* \"#utility.yul\":11763:11785   */\n      add\n        /* \"#utility.yul\":11707:11795   */\n      tag_426\n      jump\t// in\n    tag_627:\n        /* \"#utility.yul\":11697:11795   */\n      swap3\n      pop\n        /* \"#utility.yul\":11491:11805   */\n      pop\n        /* \"#utility.yul\":11844:11847   */\n      0x0120\n        /* \"#utility.yul\":11871:11924   */\n      tag_628\n        /* \"#utility.yul\":11916:11923   */\n      dup14\n        /* \"#utility.yul\":11907:11913   */\n      dup3\n        /* \"#utility.yul\":11896:11905   */\n      dup15\n        /* \"#utility.yul\":11892:11914   */\n      add\n        /* \"#utility.yul\":11871:11924   */\n      tag_412\n      jump\t// in\n    tag_628:\n        /* \"#utility.yul\":11861:11924   */\n      swap2\n      pop\n        /* \"#utility.yul\":11815:11934   */\n      pop\n        /* \"#utility.yul\":9300:11941   */\n      swap3\n      swap6\n      swap9\n      swap12\n      swap2\n      swap5\n      swap8\n      swap11\n      pop\n      swap3\n      swap6\n      swap9\n      pop\n      jump\t// out\n        /* \"#utility.yul\":11947:12858   */\n    tag_57:\n        /* \"#utility.yul\":12042:12048   */\n      0x00\n        /* \"#utility.yul\":12050:12056   */\n      0x00\n        /* \"#utility.yul\":12058:12064   */\n      0x00\n        /* \"#utility.yul\":12066:12072   */\n      0x00\n        /* \"#utility.yul\":12074:12080   */\n      0x00\n        /* \"#utility.yul\":12123:12126   */\n      0xa0\n        /* \"#utility.yul\":12111:12120   */\n      dup7\n        /* \"#utility.yul\":12102:12109   */\n      dup9\n        /* \"#utility.yul\":12098:12121   */\n      sub\n        /* \"#utility.yul\":12094:12127   */\n      slt\n        /* \"#utility.yul\":12091:12211   */\n      iszero\n      tag_630\n      jumpi\n        /* \"#utility.yul\":12130:12209   */\n      tag_631\n      tag_393\n      jump\t// in\n    tag_631:\n        /* \"#utility.yul\":12091:12211   */\n    tag_630:\n        /* \"#utility.yul\":12250:12251   */\n      0x00\n        /* \"#utility.yul\":12275:12328   */\n      tag_632\n        /* \"#utility.yul\":12320:12327   */\n      dup9\n        /* \"#utility.yul\":12311:12317   */\n      dup3\n        /* \"#utility.yul\":12300:12309   */\n      dup10\n        /* \"#utility.yul\":12296:12318   */\n      add\n        /* \"#utility.yul\":12275:12328   */\n      tag_397\n      jump\t// in\n    tag_632:\n        /* \"#utility.yul\":12265:12328   */\n      swap6\n      pop\n        /* \"#utility.yul\":12221:12338   */\n      pop\n        /* \"#utility.yul\":12377:12379   */\n      0x20\n        /* \"#utility.yul\":12403:12456   */\n      tag_633\n        /* \"#utility.yul\":12448:12455   */\n      dup9\n        /* \"#utility.yul\":12439:12445   */\n      dup3\n        /* \"#utility.yul\":12428:12437   */\n      dup10\n        /* \"#utility.yul\":12424:12446   */\n      add\n        /* \"#utility.yul\":12403:12456   */\n      tag_397\n      jump\t// in\n    tag_633:\n        /* \"#utility.yul\":12393:12456   */\n      swap5\n      pop\n        /* \"#utility.yul\":12348:12466   */\n      pop\n        /* \"#utility.yul\":12505:12507   */\n      0x40\n        /* \"#utility.yul\":12531:12584   */\n      tag_634\n        /* \"#utility.yul\":12576:12583   */\n      dup9\n        /* \"#utility.yul\":12567:12573   */\n      dup3\n        /* \"#utility.yul\":12556:12565   */\n      dup10\n        /* \"#utility.yul\":12552:12574   */\n      add\n        /* \"#utility.yul\":12531:12584   */\n      tag_397\n      jump\t// in\n    tag_634:\n        /* \"#utility.yul\":12521:12584   */\n      swap4\n      pop\n        /* \"#utility.yul\":12476:12594   */\n      pop\n        /* \"#utility.yul\":12633:12635   */\n      0x60\n        /* \"#utility.yul\":12659:12712   */\n      tag_635\n        /* \"#utility.yul\":12704:12711   */\n      dup9\n        /* \"#utility.yul\":12695:12701   */\n      dup3\n        /* \"#utility.yul\":12684:12693   */\n      dup10\n        /* \"#utility.yul\":12680:12702   */\n      add\n        /* \"#utility.yul\":12659:12712   */\n      tag_397\n      jump\t// in\n    tag_635:\n        /* \"#utility.yul\":12649:12712   */\n      swap3\n      pop\n        /* \"#utility.yul\":12604:12722   */\n      pop\n        /* \"#utility.yul\":12761:12764   */\n      0x80\n        /* \"#utility.yul\":12788:12841   */\n      tag_636\n        /* \"#utility.yul\":12833:12840   */\n      dup9\n        /* \"#utility.yul\":12824:12830   */\n      dup3\n        /* \"#utility.yul\":12813:12822   */\n      dup10\n        /* \"#utility.yul\":12809:12831   */\n      add\n        /* \"#utility.yul\":12788:12841   */\n      tag_412\n      jump\t// in\n    tag_636:\n        /* \"#utility.yul\":12778:12841   */\n      swap2\n      pop\n        /* \"#utility.yul\":12732:12851   */\n      pop\n        /* \"#utility.yul\":11947:12858   */\n      swap3\n      swap6\n      pop\n      swap3\n      swap6\n      swap1\n      swap4\n      pop\n      jump\t// out\n        /* \"#utility.yul\":12864:12982   */\n    tag_427:\n        /* \"#utility.yul\":12951:12975   */\n      tag_638\n        /* \"#utility.yul\":12969:12974   */\n      dup2\n        /* \"#utility.yul\":12951:12975   */\n      tag_410\n      jump\t// in\n    tag_638:\n        /* \"#utility.yul\":12946:12949   */\n      dup3\n        /* \"#utility.yul\":12939:12976   */\n      mstore\n        /* \"#utility.yul\":12864:12982   */\n      pop\n      pop\n      jump\t// out\n        /* \"#utility.yul\":12988:13210   */\n    tag_63:\n        /* \"#utility.yul\":13081:13085   */\n      0x00\n        /* \"#utility.yul\":13119:13121   */\n      0x20\n        /* \"#utility.yul\":13108:13117   */\n      dup3\n        /* \"#utility.yul\":13104:13122   */\n      add\n        /* \"#utility.yul\":13096:13122   */\n      swap1\n      pop\n        /* \"#utility.yul\":13132:13203   */\n      tag_640\n        /* \"#utility.yul\":13200:13201   */\n      0x00\n        /* \"#utility.yul\":13189:13198   */\n      dup4\n        /* \"#utility.yul\":13185:13202   */\n      add\n        /* \"#utility.yul\":13176:13182   */\n      dup5\n        /* \"#utility.yul\":13132:13203   */\n      tag_427\n      jump\t// in\n    tag_640:\n        /* \"#utility.yul\":12988:13210   */\n      swap3\n      swap2\n      pop\n      pop\n      jump\t// out\n        /* \"#utility.yul\":13216:13690   */\n    tag_67:\n        /* \"#utility.yul\":13284:13290   */\n      0x00\n        /* \"#utility.yul\":13292:13298   */\n      0x00\n        /* \"#utility.yul\":13341:13343   */\n      0x40\n        /* \"#utility.yul\":13329:13338   */\n      dup4\n        /* \"#utility.yul\":13320:13327   */\n      dup6\n        /* \"#utility.yul\":13316:13339   */\n      sub\n        /* \"#utility.yul\":13312:13344   */\n      slt\n        /* \"#utility.yul\":13309:13428   */\n      iszero\n      tag_642\n      jumpi\n        /* \"#utility.yul\":13347:13426   */\n      tag_643\n      tag_393\n      jump\t// in\n    tag_643:\n        /* \"#utility.yul\":13309:13428   */\n    tag_642:\n        /* \"#utility.yul\":13467:13468   */\n      0x00\n        /* \"#utility.yul\":13492:13545   */\n      tag_644\n        /* \"#utility.yul\":13537:13544   */\n      dup6\n        /* \"#utility.yul\":13528:13534   */\n      dup3\n        /* \"#utility.yul\":13517:13526   */\n      dup7\n        /* \"#utility.yul\":13513:13535   */\n      add\n        /* \"#utility.yul\":13492:13545   */\n      tag_412\n      jump\t// in\n    tag_644:\n        /* \"#utility.yul\":13482:13545   */\n      swap3\n      pop\n        /* \"#utility.yul\":13438:13555   */\n      pop\n        /* \"#utility.yul\":13594:13596   */\n      0x20\n        /* \"#utility.yul\":13620:13673   */\n      tag_645\n        /* \"#utility.yul\":13665:13672   */\n      dup6\n        /* \"#utility.yul\":13656:13662   */\n      dup3\n        /* \"#utility.yul\":13645:13654   */\n      dup7\n        /* \"#utility.yul\":13641:13663   */\n      add\n        /* \"#utility.yul\":13620:13673   */\n      tag_397\n      jump\t// in\n    tag_645:\n        /* \"#utility.yul\":13610:13673   */\n      swap2\n      pop\n        /* \"#utility.yul\":13565:13683   */\n      pop\n        /* \"#utility.yul\":13216:13690   */\n      swap3\n      pop\n      swap3\n      swap1\n      pop\n      jump\t// out\n        /* \"#utility.yul\":13696:13865   */\n    tag_428:\n        /* \"#utility.yul\":13780:13791   */\n      0x00\n        /* \"#utility.yul\":13814:13820   */\n      dup3\n        /* \"#utility.yul\":13809:13812   */\n      dup3\n        /* \"#utility.yul\":13802:13821   */\n      mstore\n        /* \"#utility.yul\":13854:13858   */\n      0x20\n        /* \"#utility.yul\":13849:13852   */\n      dup3\n        /* \"#utility.yul\":13845:13859   */\n      add\n        /* \"#utility.yul\":13830:13859   */\n      swap1\n      pop\n        /* \"#utility.yul\":13696:13865   */\n      swap3\n      swap2\n      pop\n      pop\n      jump\t// out\n        /* \"#utility.yul\":13871:14248   */\n    tag_429:\n        /* \"#utility.yul\":13959:13962   */\n      0x00\n        /* \"#utility.yul\":13987:14026   */\n      tag_648\n        /* \"#utility.yul\":14020:14025   */\n      dup3\n        /* \"#utility.yul\":13987:14026   */\n      tag_401\n      jump\t// in\n    tag_648:\n        /* \"#utility.yul\":14042:14113   */\n      tag_649\n        /* \"#utility.yul\":14106:14112   */\n      dup2\n        /* \"#utility.yul\":14101:14104   */\n      dup6\n        /* \"#utility.yul\":14042:14113   */\n      tag_428\n      jump\t// in\n    tag_649:\n        /* \"#utility.yul\":14035:14113   */\n      swap4\n      pop\n        /* \"#utility.yul\":14122:14187   */\n      tag_650\n        /* \"#utility.yul\":14180:14186   */\n      dup2\n        /* \"#utility.yul\":14175:14178   */\n      dup6\n        /* \"#utility.yul\":14168:14172   */\n      0x20\n        /* \"#utility.yul\":14161:14166   */\n      dup7\n        /* \"#utility.yul\":14157:14173   */\n      add\n        /* \"#utility.yul\":14122:14187   */\n      tag_403\n      jump\t// in\n    tag_650:\n        /* \"#utility.yul\":14212:14241   */\n      tag_651\n        /* \"#utility.yul\":14234:14240   */\n      dup2\n        /* \"#utility.yul\":14212:14241   */\n      tag_404\n      jump\t// in\n    tag_651:\n        /* \"#utility.yul\":14207:14210   */\n      dup5\n        /* \"#utility.yul\":14203:14242   */\n      add\n        /* \"#utility.yul\":14196:14242   */\n      swap2\n      pop\n        /* \"#utility.yul\":13963:14248   */\n      pop\n        /* \"#utility.yul\":13871:14248   */\n      swap3\n      swap2\n      pop\n      pop\n      jump\t// out\n        /* \"#utility.yul\":14254:14344   */\n    tag_430:\n        /* \"#utility.yul\":14288:14295   */\n      0x00\n        /* \"#utility.yul\":14331:14336   */\n      dup2\n        /* \"#utility.yul\":14324:14337   */\n      iszero\n        /* \"#utility.yul\":14317:14338   */\n      iszero\n        /* \"#utility.yul\":14306:14338   */\n      swap1\n      pop\n        /* \"#utility.yul\":14254:14344   */\n      swap2\n      swap1\n      pop\n      jump\t// out\n        /* \"#utility.yul\":14350:14459   */\n    tag_431:\n        /* \"#utility.yul\":14431:14452   */\n      tag_654\n        /* \"#utility.yul\":14446:14451   */\n      dup2\n        /* \"#utility.yul\":14431:14452   */\n      tag_430\n      jump\t// in\n    tag_654:\n        /* \"#utility.yul\":14426:14429   */\n      dup3\n        /* \"#utility.yul\":14419:14453   */\n      mstore\n        /* \"#utility.yul\":14350:14459   */\n      pop\n      pop\n      jump\t// out\n        /* \"#utility.yul\":14465:15319   */\n    tag_74:\n        /* \"#utility.yul\":14712:14716   */\n      0x00\n        /* \"#utility.yul\":14750:14753   */\n      0xc0\n        /* \"#utility.yul\":14739:14748   */\n      dup3\n        /* \"#utility.yul\":14735:14754   */\n      add\n        /* \"#utility.yul\":14727:14754   */\n      swap1\n      pop\n        /* \"#utility.yul\":14800:14809   */\n      dup2\n        /* \"#utility.yul\":14794:14798   */\n      dup2\n        /* \"#utility.yul\":14790:14810   */\n      sub\n        /* \"#utility.yul\":14786:14787   */\n      0x00\n        /* \"#utility.yul\":14775:14784   */\n      dup4\n        /* \"#utility.yul\":14771:14788   */\n      add\n        /* \"#utility.yul\":14764:14811   */\n      mstore\n        /* \"#utility.yul\":14828:14906   */\n      tag_656\n        /* \"#utility.yul\":14901:14905   */\n      dup2\n        /* \"#utility.yul\":14892:14898   */\n      dup10\n        /* \"#utility.yul\":14828:14906   */\n      tag_429\n      jump\t// in\n    tag_656:\n        /* \"#utility.yul\":14820:14906   */\n      swap1\n      pop\n        /* \"#utility.yul\":14916:14988   */\n      tag_657\n        /* \"#utility.yul\":14984:14986   */\n      0x20\n        /* \"#utility.yul\":14973:14982   */\n      dup4\n        /* \"#utility.yul\":14969:14987   */\n      add\n        /* \"#utility.yul\":14960:14966   */\n      dup9\n        /* \"#utility.yul\":14916:14988   */\n      tag_413\n      jump\t// in\n    tag_657:\n        /* \"#utility.yul\":14998:15070   */\n      tag_658\n        /* \"#utility.yul\":15066:15068   */\n      0x40\n        /* \"#utility.yul\":15055:15064   */\n      dup4\n        /* \"#utility.yul\":15051:15069   */\n      add\n        /* \"#utility.yul\":15042:15048   */\n      dup8\n        /* \"#utility.yul\":14998:15070   */\n      tag_427\n      jump\t// in\n    tag_658:\n        /* \"#utility.yul\":15080:15152   */\n      tag_659\n        /* \"#utility.yul\":15148:15150   */\n      0x60\n        /* \"#utility.yul\":15137:15146   */\n      dup4\n        /* \"#utility.yul\":15133:15151   */\n      add\n        /* \"#utility.yul\":15124:15130   */\n      dup7\n        /* \"#utility.yul\":15080:15152   */\n      tag_427\n      jump\t// in\n    tag_659:\n        /* \"#utility.yul\":15162:15235   */\n      tag_660\n        /* \"#utility.yul\":15230:15233   */\n      0x80\n        /* \"#utility.yul\":15219:15228   */\n      dup4\n        /* \"#utility.yul\":15215:15234   */\n      add\n        /* \"#utility.yul\":15206:15212   */\n      dup6\n        /* \"#utility.yul\":15162:15235   */\n      tag_427\n      jump\t// in\n    tag_660:\n        /* \"#utility.yul\":15245:15312   */\n      tag_661\n        /* \"#utility.yul\":15307:15310   */\n      0xa0\n        /* \"#utility.yul\":15296:15305   */\n      dup4\n        /* \"#utility.yul\":15292:15311   */\n      add\n        /* \"#utility.yul\":15283:15289   */\n      dup5\n        /* \"#utility.yul\":15245:15312   */\n      tag_431\n      jump\t// in\n    tag_661:\n        /* \"#utility.yul\":14465:15319   */\n      swap8\n      swap7\n      pop\n      pop\n      pop\n      pop\n      pop\n      pop\n      pop\n      jump\t// out\n        /* \"#utility.yul\":15325:15441   */\n    tag_432:\n        /* \"#utility.yul\":15395:15416   */\n      tag_663\n        /* \"#utility.yul\":15410:15415   */\n      dup2\n        /* \"#utility.yul\":15395:15416   */\n      tag_430\n      jump\t// in\n    tag_663:\n        /* \"#utility.yul\":15388:15393   */\n      dup2\n        /* \"#utility.yul\":15385:15417   */\n      eq\n        /* \"#utility.yul\":15375:15435   */\n      tag_664\n      jumpi\n        /* \"#utility.yul\":15431:15432   */\n      0x00\n        /* \"#utility.yul\":15428:15429   */\n      0x00\n        /* \"#utility.yul\":15421:15433   */\n      revert\n        /* \"#utility.yul\":15375:15435   */\n    tag_664:\n        /* \"#utility.yul\":15325:15441   */\n      pop\n      jump\t// out\n        /* \"#utility.yul\":15447:15580   */\n    tag_433:\n        /* \"#utility.yul\":15490:15495   */\n      0x00\n        /* \"#utility.yul\":15528:15534   */\n      dup2\n        /* \"#utility.yul\":15515:15535   */\n      calldataload\n        /* \"#utility.yul\":15506:15535   */\n      swap1\n      pop\n        /* \"#utility.yul\":15544:15574   */\n      tag_666\n        /* \"#utility.yul\":15568:15573   */\n      dup2\n        /* \"#utility.yul\":15544:15574   */\n      tag_432\n      jump\t// in\n    tag_666:\n        /* \"#utility.yul\":15447:15580   */\n      swap3\n      swap2\n      pop\n      pop\n      jump\t// out\n        /* \"#utility.yul\":15586:16054   */\n    tag_86:\n        /* \"#utility.yul\":15651:15657   */\n      0x00\n        /* \"#utility.yul\":15659:15665   */\n      0x00\n        /* \"#utility.yul\":15708:15710   */\n      0x40\n        /* \"#utility.yul\":15696:15705   */\n      dup4\n        /* \"#utility.yul\":15687:15694   */\n      dup6\n        /* \"#utility.yul\":15683:15706   */\n      sub\n        /* \"#utility.yul\":15679:15711   */\n      slt\n        /* \"#utility.yul\":15676:15795   */\n      iszero\n      tag_668\n      jumpi\n        /* \"#utility.yul\":15714:15793   */\n      tag_669\n      tag_393\n      jump\t// in\n    tag_669:\n        /* \"#utility.yul\":15676:15795   */\n    tag_668:\n        /* \"#utility.yul\":15834:15835   */\n      0x00\n        /* \"#utility.yul\":15859:15912   */\n      tag_670\n        /* \"#utility.yul\":15904:15911   */\n      dup6\n        /* \"#utility.yul\":15895:15901   */\n      dup3\n        /* \"#utility.yul\":15884:15893   */\n      dup7\n        /* \"#utility.yul\":15880:15902   */\n      add\n        /* \"#utility.yul\":15859:15912   */\n      tag_412\n      jump\t// in\n    tag_670:\n        /* \"#utility.yul\":15849:15912   */\n      swap3\n      pop\n        /* \"#utility.yul\":15805:15922   */\n      pop\n        /* \"#utility.yul\":15961:15963   */\n      0x20\n        /* \"#utility.yul\":15987:16037   */\n      tag_671\n        /* \"#utility.yul\":16029:16036   */\n      dup6\n        /* \"#utility.yul\":16020:16026   */\n      dup3\n        /* \"#utility.yul\":16009:16018   */\n      dup7\n        /* \"#utility.yul\":16005:16027   */\n      add\n        /* \"#utility.yul\":15987:16037   */\n      tag_433\n      jump\t// in\n    tag_671:\n        /* \"#utility.yul\":15977:16037   */\n      swap2\n      pop\n        /* \"#utility.yul\":15932:16047   */\n      pop\n        /* \"#utility.yul\":15586:16054   */\n      swap3\n      pop\n      swap3\n      swap1\n      pop\n      jump\t// out\n        /* \"#utility.yul\":16060:17754   */\n    tag_97:\n        /* \"#utility.yul\":16511:16515   */\n      0x00\n        /* \"#utility.yul\":16549:16552   */\n      0x0180\n        /* \"#utility.yul\":16538:16547   */\n      dup3\n        /* \"#utility.yul\":16534:16553   */\n      add\n        /* \"#utility.yul\":16526:16553   */\n      swap1\n      pop\n        /* \"#utility.yul\":16563:16634   */\n      tag_673\n        /* \"#utility.yul\":16631:16632   */\n      0x00\n        /* \"#utility.yul\":16620:16629   */\n      dup4\n        /* \"#utility.yul\":16616:16633   */\n      add\n        /* \"#utility.yul\":16607:16613   */\n      dup16\n        /* \"#utility.yul\":16563:16634   */\n      tag_413\n      jump\t// in\n    tag_673:\n        /* \"#utility.yul\":16681:16690   */\n      dup2\n        /* \"#utility.yul\":16675:16679   */\n      dup2\n        /* \"#utility.yul\":16671:16691   */\n      sub\n        /* \"#utility.yul\":16666:16668   */\n      0x20\n        /* \"#utility.yul\":16655:16664   */\n      dup4\n        /* \"#utility.yul\":16651:16669   */\n      add\n        /* \"#utility.yul\":16644:16692   */\n      mstore\n        /* \"#utility.yul\":16709:16787   */\n      tag_674\n        /* \"#utility.yul\":16782:16786   */\n      dup2\n        /* \"#utility.yul\":16773:16779   */\n      dup15\n        /* \"#utility.yul\":16709:16787   */\n      tag_429\n      jump\t// in\n    tag_674:\n        /* \"#utility.yul\":16701:16787   */\n      swap1\n      pop\n        /* \"#utility.yul\":16797:16869   */\n      tag_675\n        /* \"#utility.yul\":16865:16867   */\n      0x40\n        /* \"#utility.yul\":16854:16863   */\n      dup4\n        /* \"#utility.yul\":16850:16868   */\n      add\n        /* \"#utility.yul\":16841:16847   */\n      dup14\n        /* \"#utility.yul\":16797:16869   */\n      tag_413\n      jump\t// in\n    tag_675:\n        /* \"#utility.yul\":16879:16951   */\n      tag_676\n        /* \"#utility.yul\":16947:16949   */\n      0x60\n        /* \"#utility.yul\":16936:16945   */\n      dup4\n        /* \"#utility.yul\":16932:16950   */\n      add\n        /* \"#utility.yul\":16923:16929   */\n      dup13\n        /* \"#utility.yul\":16879:16951   */\n      tag_413\n      jump\t// in\n    tag_676:\n        /* \"#utility.yul\":16961:17034   */\n      tag_677\n        /* \"#utility.yul\":17029:17032   */\n      0x80\n        /* \"#utility.yul\":17018:17027   */\n      dup4\n        /* \"#utility.yul\":17014:17033   */\n      add\n        /* \"#utility.yul\":17005:17011   */\n      dup12\n        /* \"#utility.yul\":16961:17034   */\n      tag_413\n      jump\t// in\n    tag_677:\n        /* \"#utility.yul\":17082:17091   */\n      dup2\n        /* \"#utility.yul\":17076:17080   */\n      dup2\n        /* \"#utility.yul\":17072:17092   */\n      sub\n        /* \"#utility.yul\":17066:17069   */\n      0xa0\n        /* \"#utility.yul\":17055:17064   */\n      dup4\n        /* \"#utility.yul\":17051:17070   */\n      add\n        /* \"#utility.yul\":17044:17093   */\n      mstore\n        /* \"#utility.yul\":17110:17188   */\n      tag_678\n        /* \"#utility.yul\":17183:17187   */\n      dup2\n        /* \"#utility.yul\":17174:17180   */\n      dup11\n        /* \"#utility.yul\":17110:17188   */\n      tag_429\n      jump\t// in\n    tag_678:\n        /* \"#utility.yul\":17102:17188   */\n      swap1\n      pop\n        /* \"#utility.yul\":17236:17245   */\n      dup2\n        /* \"#utility.yul\":17230:17234   */\n      dup2\n        /* \"#utility.yul\":17226:17246   */\n      sub\n        /* \"#utility.yul\":17220:17223   */\n      0xc0\n        /* \"#utility.yul\":17209:17218   */\n      dup4\n        /* \"#utility.yul\":17205:17224   */\n      add\n        /* \"#utility.yul\":17198:17247   */\n      mstore\n        /* \"#utility.yul\":17264:17342   */\n      tag_679\n        /* \"#utility.yul\":17337:17341   */\n      dup2\n        /* \"#utility.yul\":17328:17334   */\n      dup10\n        /* \"#utility.yul\":17264:17342   */\n      tag_429\n      jump\t// in\n    tag_679:\n        /* \"#utility.yul\":17256:17342   */\n      swap1\n      pop\n        /* \"#utility.yul\":17352:17425   */\n      tag_680\n        /* \"#utility.yul\":17420:17423   */\n      0xe0\n        /* \"#utility.yul\":17409:17418   */\n      dup4\n        /* \"#utility.yul\":17405:17424   */\n      add\n        /* \"#utility.yul\":17396:17402   */\n      dup9\n        /* \"#utility.yul\":17352:17425   */\n      tag_427\n      jump\t// in\n    tag_680:\n        /* \"#utility.yul\":17435:17508   */\n      tag_681\n        /* \"#utility.yul\":17503:17506   */\n      0x0100\n        /* \"#utility.yul\":17492:17501   */\n      dup4\n        /* \"#utility.yul\":17488:17507   */\n      add\n        /* \"#utility.yul\":17479:17485   */\n      dup8\n        /* \"#utility.yul\":17435:17508   */\n      tag_427\n      jump\t// in\n    tag_681:\n        /* \"#utility.yul\":17518:17585   */\n      tag_682\n        /* \"#utility.yul\":17580:17583   */\n      0x0120\n        /* \"#utility.yul\":17569:17578   */\n      dup4\n        /* \"#utility.yul\":17565:17584   */\n      add\n        /* \"#utility.yul\":17556:17562   */\n      dup7\n        /* \"#utility.yul\":17518:17585   */\n      tag_431\n      jump\t// in\n    tag_682:\n        /* \"#utility.yul\":17595:17663   */\n      tag_683\n        /* \"#utility.yul\":17658:17661   */\n      0x0140\n        /* \"#utility.yul\":17647:17656   */\n      dup4\n        /* \"#utility.yul\":17643:17662   */\n      add\n        /* \"#utility.yul\":17633:17640   */\n      dup6\n        /* \"#utility.yul\":17595:17663   */\n      tag_431\n      jump\t// in\n    tag_683:\n        /* \"#utility.yul\":17673:17747   */\n      tag_684\n        /* \"#utility.yul\":17742:17745   */\n      0x0160\n        /* \"#utility.yul\":17731:17740   */\n      dup4\n        /* \"#utility.yul\":17727:17746   */\n      add\n        /* \"#utility.yul\":17717:17724   */\n      dup5\n        /* \"#utility.yul\":17673:17747   */\n      tag_427\n      jump\t// in\n    tag_684:\n        /* \"#utility.yul\":16060:17754   */\n      swap14\n      swap13\n      pop\n      pop\n      pop\n      pop\n      pop\n      pop\n      pop\n      pop\n      pop\n      pop\n      pop\n      pop\n      pop\n      jump\t// out\n        /* \"#utility.yul\":17760:17970   */\n    tag_103:\n        /* \"#utility.yul\":17847:17851   */\n      0x00\n        /* \"#utility.yul\":17885:17887   */\n      0x20\n        /* \"#utility.yul\":17874:17883   */\n      dup3\n        /* \"#utility.yul\":17870:17888   */\n      add\n        /* \"#utility.yul\":17862:17888   */\n      swap1\n      pop\n        /* \"#utility.yul\":17898:17963   */\n      tag_686\n        /* \"#utility.yul\":17960:17961   */\n      0x00\n        /* \"#utility.yul\":17949:17958   */\n      dup4\n        /* \"#utility.yul\":17945:17962   */\n      add\n        /* \"#utility.yul\":17936:17942   */\n      dup5\n        /* \"#utility.yul\":17898:17963   */\n      tag_431\n      jump\t// in\n    tag_686:\n        /* \"#utility.yul\":17760:17970   */\n      swap3\n      swap2\n      pop\n      pop\n      jump\t// out\n        /* \"#utility.yul\":17976:18921   */\n    tag_107:\n        /* \"#utility.yul\":18072:18078   */\n      0x00\n        /* \"#utility.yul\":18080:18086   */\n      0x00\n        /* \"#utility.yul\":18088:18094   */\n      0x00\n        /* \"#utility.yul\":18096:18102   */\n      0x00\n        /* \"#utility.yul\":18145:18148   */\n      0x80\n        /* \"#utility.yul\":18133:18142   */\n      dup6\n        /* \"#utility.yul\":18124:18131   */\n      dup8\n        /* \"#utility.yul\":18120:18143   */\n      sub\n        /* \"#utility.yul\":18116:18149   */\n      slt\n        /* \"#utility.yul\":18113:18233   */\n      iszero\n      tag_688\n      jumpi\n        /* \"#utility.yul\":18152:18231   */\n      tag_689\n      tag_393\n      jump\t// in\n    tag_689:\n        /* \"#utility.yul\":18113:18233   */\n    tag_688:\n        /* \"#utility.yul\":18272:18273   */\n      0x00\n        /* \"#utility.yul\":18297:18350   */\n      tag_690\n        /* \"#utility.yul\":18342:18349   */\n      dup8\n        /* \"#utility.yul\":18333:18339   */\n      dup3\n        /* \"#utility.yul\":18322:18331   */\n      dup9\n        /* \"#utility.yul\":18318:18340   */\n      add\n        /* \"#utility.yul\":18297:18350   */\n      tag_397\n      jump\t// in\n    tag_690:\n        /* \"#utility.yul\":18287:18350   */\n      swap5\n      pop\n        /* \"#utility.yul\":18243:18360   */\n      pop\n        /* \"#utility.yul\":18427:18429   */\n      0x20\n        /* \"#utility.yul\":18416:18425   */\n      dup6\n        /* \"#utility.yul\":18412:18430   */\n      add\n        /* \"#utility.yul\":18399:18431   */\n      calldataload\n        /* \"#utility.yul\":18458:18476   */\n      0xffffffffffffffff\n        /* \"#utility.yul\":18450:18456   */\n      dup2\n        /* \"#utility.yul\":18447:18477   */\n      gt\n        /* \"#utility.yul\":18444:18561   */\n      iszero\n      tag_691\n      jumpi\n        /* \"#utility.yul\":18480:18559   */\n      tag_692\n      tag_394\n      jump\t// in\n    tag_692:\n        /* \"#utility.yul\":18444:18561   */\n    tag_691:\n        /* \"#utility.yul\":18585:18648   */\n      tag_693\n        /* \"#utility.yul\":18640:18647   */\n      dup8\n        /* \"#utility.yul\":18631:18637   */\n      dup3\n        /* \"#utility.yul\":18620:18629   */\n      dup9\n        /* \"#utility.yul\":18616:18638   */\n      add\n        /* \"#utility.yul\":18585:18648   */\n      tag_422\n      jump\t// in\n    tag_693:\n        /* \"#utility.yul\":18575:18648   */\n      swap4\n      pop\n        /* \"#utility.yul\":18370:18658   */\n      pop\n        /* \"#utility.yul\":18697:18699   */\n      0x40\n        /* \"#utility.yul\":18723:18776   */\n      tag_694\n        /* \"#utility.yul\":18768:18775   */\n      dup8\n        /* \"#utility.yul\":18759:18765   */\n      dup3\n        /* \"#utility.yul\":18748:18757   */\n      dup9\n        /* \"#utility.yul\":18744:18766   */\n      add\n        /* \"#utility.yul\":18723:18776   */\n      tag_412\n      jump\t// in\n    tag_694:\n        /* \"#utility.yul\":18713:18776   */\n      swap3\n      pop\n        /* \"#utility.yul\":18668:18786   */\n      pop\n        /* \"#utility.yul\":18825:18827   */\n      0x60\n        /* \"#utility.yul\":18851:18904   */\n      tag_695\n        /* \"#utility.yul\":18896:18903   */\n      dup8\n        /* \"#utility.yul\":18887:18893   */\n      dup3\n        /* \"#utility.yul\":18876:18885   */\n      dup9\n        /* \"#utility.yul\":18872:18894   */\n      add\n        /* \"#utility.yul\":18851:18904   */\n      tag_397\n      jump\t// in\n    tag_695:\n        /* \"#utility.yul\":18841:18904   */\n      swap2\n      pop\n        /* \"#utility.yul\":18796:18914   */\n      pop\n        /* \"#utility.yul\":17976:18921   */\n      swap3\n      swap6\n      swap2\n      swap5\n      pop\n      swap3\n      pop\n      jump\t// out\n        /* \"#utility.yul\":18927:19107   */\n    tag_434:\n        /* \"#utility.yul\":18975:19052   */\n      0x4e487b7100000000000000000000000000000000000000000000000000000000\n        /* \"#utility.yul\":18972:18973   */\n      0x00\n        /* \"#utility.yul\":18965:19053   */\n      mstore\n        /* \"#utility.yul\":19072:19076   */\n      0x22\n        /* \"#utility.yul\":19069:19070   */\n      0x04\n        /* \"#utility.yul\":19062:19077   */\n      mstore\n        /* \"#utility.yul\":19096:19100   */\n      0x24\n        /* \"#utility.yul\":19093:19094   */\n      0x00\n        /* \"#utility.yul\":19086:19101   */\n      revert\n        /* \"#utility.yul\":19113:19433   */\n    tag_122:\n        /* \"#utility.yul\":19157:19163   */\n      0x00\n        /* \"#utility.yul\":19194:19195   */\n      0x02\n        /* \"#utility.yul\":19188:19192   */\n      dup3\n        /* \"#utility.yul\":19184:19196   */\n      div\n        /* \"#utility.yul\":19174:19196   */\n      swap1\n      pop\n        /* \"#utility.yul\":19241:19242   */\n      0x01\n        /* \"#utility.yul\":19235:19239   */\n      dup3\n        /* \"#utility.yul\":19231:19243   */\n      and\n        /* \"#utility.yul\":19262:19280   */\n      dup1\n        /* \"#utility.yul\":19252:19333   */\n      tag_698\n      jumpi\n        /* \"#utility.yul\":19318:19322   */\n      0x7f\n        /* \"#utility.yul\":19310:19316   */\n      dup3\n        /* \"#utility.yul\":19306:19323   */\n      and\n        /* \"#utility.yul\":19296:19323   */\n      swap2\n      pop\n        /* \"#utility.yul\":19252:19333   */\n    tag_698:\n        /* \"#utility.yul\":19380:19382   */\n      0x20\n        /* \"#utility.yul\":19372:19378   */\n      dup3\n        /* \"#utility.yul\":19369:19383   */\n      lt\n        /* \"#utility.yul\":19349:19367   */\n      dup2\n        /* \"#utility.yul\":19346:19384   */\n      sub\n        /* \"#utility.yul\":19343:19427   */\n      tag_699\n      jumpi\n        /* \"#utility.yul\":19399:19417   */\n      tag_700\n      tag_434\n      jump\t// in\n    tag_700:\n        /* \"#utility.yul\":19343:19427   */\n    tag_699:\n        /* \"#utility.yul\":19164:19433   */\n      pop\n        /* \"#utility.yul\":19113:19433   */\n      swap2\n      swap1\n      pop\n      jump\t// out\n        /* \"#utility.yul\":19439:19582   */\n    tag_435:\n        /* \"#utility.yul\":19496:19501   */\n      0x00\n        /* \"#utility.yul\":19527:19533   */\n      dup2\n        /* \"#utility.yul\":19521:19534   */\n      mload\n        /* \"#utility.yul\":19512:19534   */\n      swap1\n      pop\n        /* \"#utility.yul\":19543:19576   */\n      tag_702\n        /* \"#utility.yul\":19570:19575   */\n      dup2\n        /* \"#utility.yul\":19543:19576   */\n      tag_396\n      jump\t// in\n    tag_702:\n        /* \"#utility.yul\":19439:19582   */\n      swap3\n      swap2\n      pop\n      pop\n      jump\t// out\n        /* \"#utility.yul\":19588:19939   */\n    tag_143:\n        /* \"#utility.yul\":19658:19664   */\n      0x00\n        /* \"#utility.yul\":19707:19709   */\n      0x20\n        /* \"#utility.yul\":19695:19704   */\n      dup3\n        /* \"#utility.yul\":19686:19693   */\n      dup5\n        /* \"#utility.yul\":19682:19705   */\n      sub\n        /* \"#utility.yul\":19678:19710   */\n      slt\n        /* \"#utility.yul\":19675:19794   */\n      iszero\n      tag_704\n      jumpi\n        /* \"#utility.yul\":19713:19792   */\n      tag_705\n      tag_393\n      jump\t// in\n    tag_705:\n        /* \"#utility.yul\":19675:19794   */\n    tag_704:\n        /* \"#utility.yul\":19833:19834   */\n      0x00\n        /* \"#utility.yul\":19858:19922   */\n      tag_706\n        /* \"#utility.yul\":19914:19921   */\n      dup5\n        /* \"#utility.yul\":19905:19911   */\n      dup3\n        /* \"#utility.yul\":19894:19903   */\n      dup6\n        /* \"#utility.yul\":19890:19912   */\n      add\n        /* \"#utility.yul\":19858:19922   */\n      tag_435\n      jump\t// in\n    tag_706:\n        /* \"#utility.yul\":19848:19922   */\n      swap2\n      pop\n        /* \"#utility.yul\":19804:19932   */\n      pop\n        /* \"#utility.yul\":19588:19939   */\n      swap3\n      swap2\n      pop\n      pop\n      jump\t// out\n        /* \"#utility.yul\":19945:20116   */\n    tag_436:\n        /* \"#utility.yul\":20085:20108   */\n      0x546f6b656e206e6f742077686974656c69737465640000000000000000000000\n        /* \"#utility.yul\":20081:20082   */\n      0x00\n        /* \"#utility.yul\":20073:20079   */\n      dup3\n        /* \"#utility.yul\":20069:20083   */\n      add\n        /* \"#utility.yul\":20062:20109   */\n      mstore\n        /* \"#utility.yul\":19945:20116   */\n      pop\n      jump\t// out\n        /* \"#utility.yul\":20122:20488   */\n    tag_437:\n        /* \"#utility.yul\":20264:20267   */\n      0x00\n        /* \"#utility.yul\":20285:20352   */\n      tag_709\n        /* \"#utility.yul\":20349:20351   */\n      0x15\n        /* \"#utility.yul\":20344:20347   */\n      dup4\n        /* \"#utility.yul\":20285:20352   */\n      tag_428\n      jump\t// in\n    tag_709:\n        /* \"#utility.yul\":20278:20352   */\n      swap2\n      pop\n        /* \"#utility.yul\":20361:20454   */\n      tag_710\n        /* \"#utility.yul\":20450:20453   */\n      dup3\n        /* \"#utility.yul\":20361:20454   */\n      tag_436\n      jump\t// in\n    tag_710:\n        /* \"#utility.yul\":20479:20481   */\n      0x20\n        /* \"#utility.yul\":20474:20477   */\n      dup3\n        /* \"#utility.yul\":20470:20482   */\n      add\n        /* \"#utility.yul\":20463:20482   */\n      swap1\n      pop\n        /* \"#utility.yul\":20122:20488   */\n      swap2\n      swap1\n      pop\n      jump\t// out\n        /* \"#utility.yul\":20494:20913   */\n    tag_157:\n        /* \"#utility.yul\":20660:20664   */\n      0x00\n        /* \"#utility.yul\":20698:20700   */\n      0x20\n        /* \"#utility.yul\":20687:20696   */\n      dup3\n        /* \"#utility.yul\":20683:20701   */\n      add\n        /* \"#utility.yul\":20675:20701   */\n      swap1\n      pop\n        /* \"#utility.yul\":20747:20756   */\n      dup2\n        /* \"#utility.yul\":20741:20745   */\n      dup2\n        /* \"#utility.yul\":20737:20757   */\n      sub\n        /* \"#utility.yul\":20733:20734   */\n      0x00\n        /* \"#utility.yul\":20722:20731   */\n      dup4\n        /* \"#utility.yul\":20718:20735   */\n      add\n        /* \"#utility.yul\":20711:20758   */\n      mstore\n        /* \"#utility.yul\":20775:20906   */\n      tag_712\n        /* \"#utility.yul\":20901:20905   */\n      dup2\n        /* \"#utility.yul\":20775:20906   */\n      tag_437\n      jump\t// in\n    tag_712:\n        /* \"#utility.yul\":20767:20906   */\n      swap1\n      pop\n        /* \"#utility.yul\":20494:20913   */\n      swap2\n      swap1\n      pop\n      jump\t// out\n        /* \"#utility.yul\":20919:21155   */\n    tag_438:\n        /* \"#utility.yul\":21059:21093   */\n      0x5468652053746172742074696d65206d757374206265206561726c6965722074\n        /* \"#utility.yul\":21055:21056   */\n      0x00\n        /* \"#utility.yul\":21047:21053   */\n      dup3\n        /* \"#utility.yul\":21043:21057   */\n      add\n        /* \"#utility.yul\":21036:21094   */\n      mstore\n        /* \"#utility.yul\":21128:21147   */\n      0x68616e2074686520656e642074696d652e000000000000000000000000000000\n        /* \"#utility.yul\":21123:21125   */\n      0x20\n        /* \"#utility.yul\":21115:21121   */\n      dup3\n        /* \"#utility.yul\":21111:21126   */\n      add\n        /* \"#utility.yul\":21104:21148   */\n      mstore\n        /* \"#utility.yul\":20919:21155   */\n      pop\n      jump\t// out\n        /* \"#utility.yul\":21161:21527   */\n    tag_439:\n        /* \"#utility.yul\":21303:21306   */\n      0x00\n        /* \"#utility.yul\":21324:21391   */\n      tag_715\n        /* \"#utility.yul\":21388:21390   */\n      0x31\n        /* \"#utility.yul\":21383:21386   */\n      dup4\n        /* \"#utility.yul\":21324:21391   */\n      tag_428\n      jump\t// in\n    tag_715:\n        /* \"#utility.yul\":21317:21391   */\n      swap2\n      pop\n        /* \"#utility.yul\":21400:21493   */\n      tag_716\n        /* \"#utility.yul\":21489:21492   */\n      dup3\n        /* \"#utility.yul\":21400:21493   */\n      tag_438\n      jump\t// in\n    tag_716:\n        /* \"#utility.yul\":21518:21520   */\n      0x40\n        /* \"#utility.yul\":21513:21516   */\n      dup3\n        /* \"#utility.yul\":21509:21521   */\n      add\n        /* \"#utility.yul\":21502:21521   */\n      swap1\n      pop\n        /* \"#utility.yul\":21161:21527   */\n      swap2\n      swap1\n      pop\n      jump\t// out\n        /* \"#utility.yul\":21533:21952   */\n    tag_160:\n        /* \"#utility.yul\":21699:21703   */\n      0x00\n        /* \"#utility.yul\":21737:21739   */\n      0x20\n        /* \"#utility.yul\":21726:21735   */\n      dup3\n        /* \"#utility.yul\":21722:21740   */\n      add\n        /* \"#utility.yul\":21714:21740   */\n      swap1\n      pop\n        /* \"#utility.yul\":21786:21795   */\n      dup2\n        /* \"#utility.yul\":21780:21784   */\n      dup2\n        /* \"#utility.yul\":21776:21796   */\n      sub\n        /* \"#utility.yul\":21772:21773   */\n      0x00\n        /* \"#utility.yul\":21761:21770   */\n      dup4\n        /* \"#utility.yul\":21757:21774   */\n      add\n        /* \"#utility.yul\":21750:21797   */\n      mstore\n        /* \"#utility.yul\":21814:21945   */\n      tag_718\n        /* \"#utility.yul\":21940:21944   */\n      dup2\n        /* \"#utility.yul\":21814:21945   */\n      tag_439\n      jump\t// in\n    tag_718:\n        /* \"#utility.yul\":21806:21945   */\n      swap1\n      pop\n        /* \"#utility.yul\":21533:21952   */\n      swap2\n      swap1\n      pop\n      jump\t// out\n        /* \"#utility.yul\":21958:22136   */\n    tag_440:\n        /* \"#utility.yul\":22098:22128   */\n      0x5072696365206d7573742062652067726561746572207468616e203000000000\n        /* \"#utility.yul\":22094:22095   */\n      0x00\n        /* \"#utility.yul\":22086:22092   */\n      dup3\n        /* \"#utility.yul\":22082:22096   */\n      add\n        /* \"#utility.yul\":22075:22129   */\n      mstore\n        /* \"#utility.yul\":21958:22136   */\n      pop\n      jump\t// out\n        /* \"#utility.yul\":22142:22508   */\n    tag_441:\n        /* \"#utility.yul\":22284:22287   */\n      0x00\n        /* \"#utility.yul\":22305:22372   */\n      tag_721\n        /* \"#utility.yul\":22369:22371   */\n      0x1c\n        /* \"#utility.yul\":22364:22367   */\n      dup4\n        /* \"#utility.yul\":22305:22372   */\n      tag_428\n      jump\t// in\n    tag_721:\n        /* \"#utility.yul\":22298:22372   */\n      swap2\n      pop\n        /* \"#utility.yul\":22381:22474   */\n      tag_722\n        /* \"#utility.yul\":22470:22473   */\n      dup3\n        /* \"#utility.yul\":22381:22474   */\n      tag_440\n      jump\t// in\n    tag_722:\n        /* \"#utility.yul\":22499:22501   */\n      0x20\n        /* \"#utility.yul\":22494:22497   */\n      dup3\n        /* \"#utility.yul\":22490:22502   */\n      add\n        /* \"#utility.yul\":22483:22502   */\n      swap1\n      pop\n        /* \"#utility.yul\":22142:22508   */\n      swap2\n      swap1\n      pop\n      jump\t// out\n        /* \"#utility.yul\":22514:22933   */\n    tag_163:\n        /* \"#utility.yul\":22680:22684   */\n      0x00\n        /* \"#utility.yul\":22718:22720   */\n      0x20\n        /* \"#utility.yul\":22707:22716   */\n      dup3\n        /* \"#utility.yul\":22703:22721   */\n      add\n        /* \"#utility.yul\":22695:22721   */\n      swap1\n      pop\n        /* \"#utility.yul\":22767:22776   */\n      dup2\n        /* \"#utility.yul\":22761:22765   */\n      dup2\n        /* \"#utility.yul\":22757:22777   */\n      sub\n        /* \"#utility.yul\":22753:22754   */\n      0x00\n        /* \"#utility.yul\":22742:22751   */\n      dup4\n        /* \"#utility.yul\":22738:22755   */\n      add\n        /* \"#utility.yul\":22731:22778   */\n      mstore\n        /* \"#utility.yul\":22795:22926   */\n      tag_724\n        /* \"#utility.yul\":22921:22925   */\n      dup2\n        /* \"#utility.yul\":22795:22926   */\n      tag_441\n      jump\t// in\n    tag_724:\n        /* \"#utility.yul\":22787:22926   */\n      swap1\n      pop\n        /* \"#utility.yul\":22514:22933   */\n      swap2\n      swap1\n      pop\n      jump\t// out\n        /* \"#utility.yul\":22939:23171   */\n    tag_442:\n        /* \"#utility.yul\":23079:23113   */\n      0x546865204554482073656e7420646f6573206e6f74206d617463682074686520\n        /* \"#utility.yul\":23075:23076   */\n      0x00\n        /* \"#utility.yul\":23067:23073   */\n      dup3\n        /* \"#utility.yul\":23063:23077   */\n      add\n        /* \"#utility.yul\":23056:23114   */\n      mstore\n        /* \"#utility.yul\":23148:23163   */\n      0x70726f6772616d20707269636500000000000000000000000000000000000000\n        /* \"#utility.yul\":23143:23145   */\n      0x20\n        /* \"#utility.yul\":23135:23141   */\n      dup3\n        /* \"#utility.yul\":23131:23146   */\n      add\n        /* \"#utility.yul\":23124:23164   */\n      mstore\n        /* \"#utility.yul\":22939:23171   */\n      pop\n      jump\t// out\n        /* \"#utility.yul\":23177:23543   */\n    tag_443:\n        /* \"#utility.yul\":23319:23322   */\n      0x00\n        /* \"#utility.yul\":23340:23407   */\n      tag_727\n        /* \"#utility.yul\":23404:23406   */\n      0x2d\n        /* \"#utility.yul\":23399:23402   */\n      dup4\n        /* \"#utility.yul\":23340:23407   */\n      tag_428\n      jump\t// in\n    tag_727:\n        /* \"#utility.yul\":23333:23407   */\n      swap2\n      pop\n        /* \"#utility.yul\":23416:23509   */\n      tag_728\n        /* \"#utility.yul\":23505:23508   */\n      dup3\n        /* \"#utility.yul\":23416:23509   */\n      tag_442\n      jump\t// in\n    tag_728:\n        /* \"#utility.yul\":23534:23536   */\n      0x40\n        /* \"#utility.yul\":23529:23532   */\n      dup3\n        /* \"#utility.yul\":23525:23537   */\n      add\n        /* \"#utility.yul\":23518:23537   */\n      swap1\n      pop\n        /* \"#utility.yul\":23177:23543   */\n      swap2\n      swap1\n      pop\n      jump\t// out\n        /* \"#utility.yul\":23549:23968   */\n    tag_167:\n        /* \"#utility.yul\":23715:23719   */\n      0x00\n        /* \"#utility.yul\":23753:23755   */\n      0x20\n        /* \"#utility.yul\":23742:23751   */\n      dup3\n        /* \"#utility.yul\":23738:23756   */\n      add\n        /* \"#utility.yul\":23730:23756   */\n      swap1\n      pop\n        /* \"#utility.yul\":23802:23811   */\n      dup2\n        /* \"#utility.yul\":23796:23800   */\n      dup2\n        /* \"#utility.yul\":23792:23812   */\n      sub\n        /* \"#utility.yul\":23788:23789   */\n      0x00\n        /* \"#utility.yul\":23777:23786   */\n      dup4\n        /* \"#utility.yul\":23773:23790   */\n      add\n        /* \"#utility.yul\":23766:23813   */\n      mstore\n        /* \"#utility.yul\":23830:23961   */\n      tag_730\n        /* \"#utility.yul\":23956:23960   */\n      dup2\n        /* \"#utility.yul\":23830:23961   */\n      tag_443\n      jump\t// in\n    tag_730:\n        /* \"#utility.yul\":23822:23961   */\n      swap1\n      pop\n        /* \"#utility.yul\":23549:23968   */\n      swap2\n      swap1\n      pop\n      jump\t// out\n        /* \"#utility.yul\":23974:24203   */\n    tag_444:\n        /* \"#utility.yul\":24114:24148   */\n      0x53686f756c64206e6f742073656e6420455448207768656e20706179696e6720\n        /* \"#utility.yul\":24110:24111   */\n      0x00\n        /* \"#utility.yul\":24102:24108   */\n      dup3\n        /* \"#utility.yul\":24098:24112   */\n      add\n        /* \"#utility.yul\":24091:24149   */\n      mstore\n        /* \"#utility.yul\":24183:24195   */\n      0x7769746820746f6b656e00000000000000000000000000000000000000000000\n        /* \"#utility.yul\":24178:24180   */\n      0x20\n        /* \"#utility.yul\":24170:24176   */\n      dup3\n        /* \"#utility.yul\":24166:24181   */\n      add\n        /* \"#utility.yul\":24159:24196   */\n      mstore\n        /* \"#utility.yul\":23974:24203   */\n      pop\n      jump\t// out\n        /* \"#utility.yul\":24209:24575   */\n    tag_445:\n        /* \"#utility.yul\":24351:24354   */\n      0x00\n        /* \"#utility.yul\":24372:24439   */\n      tag_733\n        /* \"#utility.yul\":24436:24438   */\n      0x2a\n        /* \"#utility.yul\":24431:24434   */\n      dup4\n        /* \"#utility.yul\":24372:24439   */\n      tag_428\n      jump\t// in\n    tag_733:\n        /* \"#utility.yul\":24365:24439   */\n      swap2\n      pop\n        /* \"#utility.yul\":24448:24541   */\n      tag_734\n        /* \"#utility.yul\":24537:24540   */\n      dup3\n        /* \"#utility.yul\":24448:24541   */\n      tag_444\n      jump\t// in\n    tag_734:\n        /* \"#utility.yul\":24566:24568   */\n      0x40\n        /* \"#utility.yul\":24561:24564   */\n      dup3\n        /* \"#utility.yul\":24557:24569   */\n      add\n        /* \"#utility.yul\":24550:24569   */\n      swap1\n      pop\n        /* \"#utility.yul\":24209:24575   */\n      swap2\n      swap1\n      pop\n      jump\t// out\n        /* \"#utility.yul\":24581:25000   */\n    tag_171:\n        /* \"#utility.yul\":24747:24751   */\n      0x00\n        /* \"#utility.yul\":24785:24787   */\n      0x20\n        /* \"#utility.yul\":24774:24783   */\n      dup3\n        /* \"#utility.yul\":24770:24788   */\n      add\n        /* \"#utility.yul\":24762:24788   */\n      swap1\n      pop\n        /* \"#utility.yul\":24834:24843   */\n      dup2\n        /* \"#utility.yul\":24828:24832   */\n      dup2\n        /* \"#utility.yul\":24824:24844   */\n      sub\n        /* \"#utility.yul\":24820:24821   */\n      0x00\n        /* \"#utility.yul\":24809:24818   */\n      dup4\n        /* \"#utility.yul\":24805:24822   */\n      add\n        /* \"#utility.yul\":24798:24845   */\n      mstore\n        /* \"#utility.yul\":24862:24993   */\n      tag_736\n        /* \"#utility.yul\":24988:24992   */\n      dup2\n        /* \"#utility.yul\":24862:24993   */\n      tag_445\n      jump\t// in\n    tag_736:\n        /* \"#utility.yul\":24854:24993   */\n      swap1\n      pop\n        /* \"#utility.yul\":24581:25000   */\n      swap2\n      swap1\n      pop\n      jump\t// out\n        /* \"#utility.yul\":25006:25147   */\n    tag_446:\n        /* \"#utility.yul\":25055:25059   */\n      0x00\n        /* \"#utility.yul\":25078:25081   */\n      dup2\n        /* \"#utility.yul\":25070:25081   */\n      swap1\n      pop\n        /* \"#utility.yul\":25101:25104   */\n      dup2\n        /* \"#utility.yul\":25098:25099   */\n      0x00\n        /* \"#utility.yul\":25091:25105   */\n      mstore\n        /* \"#utility.yul\":25135:25139   */\n      0x20\n        /* \"#utility.yul\":25132:25133   */\n      0x00\n        /* \"#utility.yul\":25122:25140   */\n      keccak256\n        /* \"#utility.yul\":25114:25140   */\n      swap1\n      pop\n        /* \"#utility.yul\":25006:25147   */\n      swap2\n      swap1\n      pop\n      jump\t// out\n        /* \"#utility.yul\":25153:25246   */\n    tag_447:\n        /* \"#utility.yul\":25190:25196   */\n      0x00\n        /* \"#utility.yul\":25237:25239   */\n      0x20\n        /* \"#utility.yul\":25232:25234   */\n      0x1f\n        /* \"#utility.yul\":25225:25230   */\n      dup4\n        /* \"#utility.yul\":25221:25235   */\n      add\n        /* \"#utility.yul\":25217:25240   */\n      div\n        /* \"#utility.yul\":25207:25240   */\n      swap1\n      pop\n        /* \"#utility.yul\":25153:25246   */\n      swap2\n      swap1\n      pop\n      jump\t// out\n        /* \"#utility.yul\":25252:25359   */\n    tag_448:\n        /* \"#utility.yul\":25296:25304   */\n      0x00\n        /* \"#utility.yul\":25346:25351   */\n      dup3\n        /* \"#utility.yul\":25340:25344   */\n      dup3\n        /* \"#utility.yul\":25336:25352   */\n      shl\n        /* \"#utility.yul\":25315:25352   */\n      swap1\n      pop\n        /* \"#utility.yul\":25252:25359   */\n      swap3\n      swap2\n      pop\n      pop\n      jump\t// out\n        /* \"#utility.yul\":25365:25758   */\n    tag_449:\n        /* \"#utility.yul\":25434:25440   */\n      0x00\n        /* \"#utility.yul\":25484:25485   */\n      0x08\n        /* \"#utility.yul\":25472:25482   */\n      dup4\n        /* \"#utility.yul\":25468:25486   */\n      mul\n        /* \"#utility.yul\":25507:25604   */\n      tag_741\n        /* \"#utility.yul\":25537:25603   */\n      0xffffffffffffffffffffffffffffffffffffffffffffffffffffffffffffffff\n        /* \"#utility.yul\":25526:25535   */\n      dup3\n        /* \"#utility.yul\":25507:25604   */\n      tag_448\n      jump\t// in\n    tag_741:\n        /* \"#utility.yul\":25625:25664   */\n      tag_742\n        /* \"#utility.yul\":25655:25663   */\n      dup7\n        /* \"#utility.yul\":25644:25653   */\n      dup4\n        /* \"#utility.yul\":25625:25664   */\n      tag_448\n      jump\t// in\n    tag_742:\n        /* \"#utility.yul\":25613:25664   */\n      swap6\n      pop\n        /* \"#utility.yul\":25697:25701   */\n      dup1\n        /* \"#utility.yul\":25693:25702   */\n      not\n        /* \"#utility.yul\":25686:25691   */\n      dup5\n        /* \"#utility.yul\":25682:25703   */\n      and\n        /* \"#utility.yul\":25673:25703   */\n      swap4\n      pop\n        /* \"#utility.yul\":25746:25750   */\n      dup1\n        /* \"#utility.yul\":25736:25744   */\n      dup7\n        /* \"#utility.yul\":25732:25751   */\n      and\n        /* \"#utility.yul\":25725:25730   */\n      dup5\n        /* \"#utility.yul\":25722:25752   */\n      or\n        /* \"#utility.yul\":25712:25752   */\n      swap3\n      pop\n        /* \"#utility.yul\":25441:25758   */\n      pop\n      pop\n        /* \"#utility.yul\":25365:25758   */\n      swap4\n      swap3\n      pop\n      pop\n      pop\n      jump\t// out\n        /* \"#utility.yul\":25764:25824   */\n    tag_450:\n        /* \"#utility.yul\":25792:25795   */\n      0x00\n        /* \"#utility.yul\":25813:25818   */\n      dup2\n        /* \"#utility.yul\":25806:25818   */\n      swap1\n      pop\n        /* \"#utility.yul\":25764:25824   */\n      swap2\n      swap1\n      pop\n      jump\t// out\n        /* \"#utility.yul\":25830:25972   */\n    tag_451:\n        /* \"#utility.yul\":25880:25889   */\n      0x00\n        /* \"#utility.yul\":25913:25966   */\n      tag_745\n        /* \"#utility.yul\":25931:25965   */\n      tag_746\n        /* \"#utility.yul\":25940:25964   */\n      tag_747\n        /* \"#utility.yul\":25958:25963   */\n      dup5\n        /* \"#utility.yul\":25940:25964   */\n      tag_395\n      jump\t// in\n    tag_747:\n        /* \"#utility.yul\":25931:25965   */\n      tag_450\n      jump\t// in\n    tag_746:\n        /* \"#utility.yul\":25913:25966   */\n      tag_395\n      jump\t// in\n    tag_745:\n        /* \"#utility.yul\":25900:25966   */\n      swap1\n      pop\n        /* \"#utility.yul\":25830:25972   */\n      swap2\n      swap1\n      pop\n      jump\t// out\n        /* \"#utility.yul\":25978:26053   */\n    tag_452:\n        /* \"#utility.yul\":26021:26024   */\n      0x00\n        /* \"#utility.yul\":26042:26047   */\n      dup2\n        /* \"#utility.yul\":26035:26047   */\n      swap1\n      pop\n        /* \"#utility.yul\":25978:26053   */\n      swap2\n      swap1\n      pop\n      jump\t// out\n        /* \"#utility.yul\":26059:26328   */\n    tag_453:\n        /* \"#utility.yul\":26169:26208   */\n      tag_750\n        /* \"#utility.yul\":26200:26207   */\n      dup4\n        /* \"#utility.yul\":26169:26208   */\n      tag_451\n      jump\t// in\n    tag_750:\n        /* \"#utility.yul\":26230:26321   */\n      tag_751\n        /* \"#utility.yul\":26279:26320   */\n      tag_752\n        /* \"#utility.yul\":26303:26319   */\n      dup3\n        /* \"#utility.yul\":26279:26320   */\n      tag_452\n      jump\t// in\n    tag_752:\n        /* \"#utility.yul\":26271:26277   */\n      dup5\n        /* \"#utility.yul\":26264:26268   */\n      dup5\n        /* \"#utility.yul\":26258:26269   */\n      sload\n        /* \"#utility.yul\":26230:26321   */\n      tag_449\n      jump\t// in\n    tag_751:\n        /* \"#utility.yul\":26224:26228   */\n      dup3\n        /* \"#utility.yul\":26217:26322   */\n      sstore\n        /* \"#utility.yul\":26135:26328   */\n      pop\n        /* \"#utility.yul\":26059:26328   */\n      pop\n      pop\n      pop\n      jump\t// out\n        /* \"#utility.yul\":26334:26407   */\n    tag_454:\n        /* \"#utility.yul\":26379:26382   */\n      0x00\n        /* \"#utility.yul\":26400:26401   */\n      0x00\n        /* \"#utility.yul\":26393:26401   */\n      swap1\n      pop\n        /* \"#utility.yul\":26334:26407   */\n      swap1\n      jump\t// out\n        /* \"#utility.yul\":26413:26602   */\n    tag_455:\n        /* \"#utility.yul\":26490:26522   */\n      tag_755\n      tag_454\n      jump\t// in\n    tag_755:\n        /* \"#utility.yul\":26531:26596   */\n      tag_756\n        /* \"#utility.yul\":26589:26595   */\n      dup2\n        /* \"#utility.yul\":26581:26587   */\n      dup5\n        /* \"#utility.yul\":26575:26579   */\n      dup5\n        /* \"#utility.yul\":26531:26596   */\n      tag_453\n      jump\t// in\n    tag_756:\n        /* \"#utility.yul\":26466:26602   */\n      pop\n        /* \"#utility.yul\":26413:26602   */\n      pop\n      pop\n      jump\t// out\n        /* \"#utility.yul\":26608:26794   */\n    tag_456:\n        /* \"#utility.yul\":26668:26788   */\n    tag_758:\n        /* \"#utility.yul\":26685:26688   */\n      dup2\n        /* \"#utility.yul\":26678:26683   */\n      dup2\n        /* \"#utility.yul\":26675:26689   */\n      lt\n        /* \"#utility.yul\":26668:26788   */\n      iszero\n      tag_760\n      jumpi\n        /* \"#utility.yul\":26739:26778   */\n      tag_761\n        /* \"#utility.yul\":26776:26777   */\n      0x00\n        /* \"#utility.yul\":26769:26774   */\n      dup3\n        /* \"#utility.yul\":26739:26778   */\n      tag_455\n      jump\t// in\n    tag_761:\n        /* \"#utility.yul\":26712:26713   */\n      0x01\n        /* \"#utility.yul\":26705:26710   */\n      dup2\n        /* \"#utility.yul\":26701:26714   */\n      add\n        /* \"#utility.yul\":26692:26714   */\n      swap1\n      pop\n        /* \"#utility.yul\":26668:26788   */\n      jump(tag_758)\n    tag_760:\n        /* \"#utility.yul\":26608:26794   */\n      pop\n      pop\n      jump\t// out\n        /* \"#utility.yul\":26800:27343   */\n    tag_457:\n        /* \"#utility.yul\":26901:26903   */\n      0x1f\n        /* \"#utility.yul\":26896:26899   */\n      dup3\n        /* \"#utility.yul\":26893:26904   */\n      gt\n        /* \"#utility.yul\":26890:27336   */\n      iszero\n      tag_763\n      jumpi\n        /* \"#utility.yul\":26935:26973   */\n      tag_764\n        /* \"#utility.yul\":26967:26972   */\n      dup2\n        /* \"#utility.yul\":26935:26973   */\n      tag_446\n      jump\t// in\n    tag_764:\n        /* \"#utility.yul\":27019:27048   */\n      tag_765\n        /* \"#utility.yul\":27037:27047   */\n      dup5\n        /* \"#utility.yul\":27019:27048   */\n      tag_447\n      jump\t// in\n    tag_765:\n        /* \"#utility.yul\":27009:27017   */\n      dup2\n        /* \"#utility.yul\":27005:27049   */\n      add\n        /* \"#utility.yul\":27202:27204   */\n      0x20\n        /* \"#utility.yul\":27190:27200   */\n      dup6\n        /* \"#utility.yul\":27187:27205   */\n      lt\n        /* \"#utility.yul\":27184:27233   */\n      iszero\n      tag_766\n      jumpi\n        /* \"#utility.yul\":27223:27231   */\n      dup2\n        /* \"#utility.yul\":27208:27231   */\n      swap1\n      pop\n        /* \"#utility.yul\":27184:27233   */\n    tag_766:\n        /* \"#utility.yul\":27246:27326   */\n      tag_767\n        /* \"#utility.yul\":27302:27324   */\n      tag_768\n        /* \"#utility.yul\":27320:27323   */\n      dup6\n        /* \"#utility.yul\":27302:27324   */\n      tag_447\n      jump\t// in\n    tag_768:\n        /* \"#utility.yul\":27292:27300   */\n      dup4\n        /* \"#utility.yul\":27288:27325   */\n      add\n        /* \"#utility.yul\":27275:27286   */\n      dup3\n        /* \"#utility.yul\":27246:27326   */\n      tag_456\n      jump\t// in\n    tag_767:\n        /* \"#utility.yul\":26905:27336   */\n      pop\n      pop\n        /* \"#utility.yul\":26890:27336   */\n    tag_763:\n        /* \"#utility.yul\":26800:27343   */\n      pop\n      pop\n      pop\n      jump\t// out\n        /* \"#utility.yul\":27349:27466   */\n    tag_458:\n        /* \"#utility.yul\":27403:27411   */\n      0x00\n        /* \"#utility.yul\":27453:27458   */\n      dup3\n        /* \"#utility.yul\":27447:27451   */\n      dup3\n        /* \"#utility.yul\":27443:27459   */\n      shr\n        /* \"#utility.yul\":27422:27459   */\n      swap1\n      pop\n        /* \"#utility.yul\":27349:27466   */\n      swap3\n      swap2\n      pop\n      pop\n      jump\t// out\n        /* \"#utility.yul\":27472:27641   */\n    tag_459:\n        /* \"#utility.yul\":27516:27522   */\n      0x00\n        /* \"#utility.yul\":27549:27600   */\n      tag_771\n        /* \"#utility.yul\":27597:27598   */\n      0x00\n        /* \"#utility.yul\":27593:27599   */\n      not\n        /* \"#utility.yul\":27585:27590   */\n      dup5\n        /* \"#utility.yul\":27582:27583   */\n      0x08\n        /* \"#utility.yul\":27578:27591   */\n      mul\n        /* \"#utility.yul\":27549:27600   */\n      tag_458\n      jump\t// in\n    tag_771:\n        /* \"#utility.yul\":27545:27601   */\n      not\n        /* \"#utility.yul\":27630:27634   */\n      dup1\n        /* \"#utility.yul\":27624:27628   */\n      dup4\n        /* \"#utility.yul\":27620:27635   */\n      and\n        /* \"#utility.yul\":27610:27635   */\n      swap2\n      pop\n        /* \"#utility.yul\":27523:27641   */\n      pop\n        /* \"#utility.yul\":27472:27641   */\n      swap3\n      swap2\n      pop\n      pop\n      jump\t// out\n        /* \"#utility.yul\":27646:27941   */\n    tag_460:\n        /* \"#utility.yul\":27722:27726   */\n      0x00\n        /* \"#utility.yul\":27868:27897   */\n      tag_773\n        /* \"#utility.yul\":27893:27896   */\n      dup4\n        /* \"#utility.yul\":27887:27891   */\n      dup4\n        /* \"#utility.yul\":27868:27897   */\n      tag_459\n      jump\t// in\n    tag_773:\n        /* \"#utility.yul\":27860:27897   */\n      swap2\n      pop\n        /* \"#utility.yul\":27930:27933   */\n      dup3\n        /* \"#utility.yul\":27927:27928   */\n      0x02\n        /* \"#utility.yul\":27923:27934   */\n      mul\n        /* \"#utility.yul\":27917:27921   */\n      dup3\n        /* \"#utility.yul\":27914:27935   */\n      or\n        /* \"#utility.yul\":27906:27935   */\n      swap1\n      pop\n        /* \"#utility.yul\":27646:27941   */\n      swap3\n      swap2\n      pop\n      pop\n      jump\t// out\n        /* \"#utility.yul\":27946:29341   */\n    tag_175:\n        /* \"#utility.yul\":28063:28100   */\n      tag_775\n        /* \"#utility.yul\":28096:28099   */\n      dup3\n        /* \"#utility.yul\":28063:28100   */\n      tag_401\n      jump\t// in\n    tag_775:\n        /* \"#utility.yul\":28165:28183   */\n      0xffffffffffffffff\n        /* \"#utility.yul\":28157:28163   */\n      dup2\n        /* \"#utility.yul\":28154:28184   */\n      gt\n        /* \"#utility.yul\":28151:28207   */\n      iszero\n      tag_776\n      jumpi\n        /* \"#utility.yul\":28187:28205   */\n      tag_777\n      tag_416\n      jump\t// in\n    tag_777:\n        /* \"#utility.yul\":28151:28207   */\n    tag_776:\n        /* \"#utility.yul\":28231:28269   */\n      tag_778\n        /* \"#utility.yul\":28263:28267   */\n      dup3\n        /* \"#utility.yul\":28257:28268   */\n      sload\n        /* \"#utility.yul\":28231:28269   */\n      tag_122\n      jump\t// in\n    tag_778:\n        /* \"#utility.yul\":28316:28383   */\n      tag_779\n        /* \"#utility.yul\":28376:28382   */\n      dup3\n        /* \"#utility.yul\":28368:28374   */\n      dup3\n        /* \"#utility.yul\":28362:28366   */\n      dup6\n        /* \"#utility.yul\":28316:28383   */\n      tag_457\n      jump\t// in\n    tag_779:\n        /* \"#utility.yul\":28410:28411   */\n      0x00\n        /* \"#utility.yul\":28434:28438   */\n      0x20\n        /* \"#utility.yul\":28421:28438   */\n      swap1\n      pop\n        /* \"#utility.yul\":28466:28468   */\n      0x1f\n        /* \"#utility.yul\":28458:28464   */\n      dup4\n        /* \"#utility.yul\":28455:28469   */\n      gt\n        /* \"#utility.yul\":28483:28484   */\n      0x01\n        /* \"#utility.yul\":28478:29096   */\n      dup2\n      eq\n      tag_781\n      jumpi\n        /* \"#utility.yul\":29140:29141   */\n      0x00\n        /* \"#utility.yul\":29157:29163   */\n      dup5\n        /* \"#utility.yul\":29154:29231   */\n      iszero\n      tag_782\n      jumpi\n        /* \"#utility.yul\":29206:29215   */\n      dup3\n        /* \"#utility.yul\":29201:29204   */\n      dup8\n        /* \"#utility.yul\":29197:29216   */\n      add\n        /* \"#utility.yul\":29191:29217   */\n      mload\n        /* \"#utility.yul\":29182:29217   */\n      swap1\n      pop\n        /* \"#utility.yul\":29154:29231   */\n    tag_782:\n        /* \"#utility.yul\":29257:29324   */\n      tag_783\n        /* \"#utility.yul\":29317:29323   */\n      dup6\n        /* \"#utility.yul\":29310:29315   */\n      dup3\n        /* \"#utility.yul\":29257:29324   */\n      tag_460\n      jump\t// in\n    tag_783:\n        /* \"#utility.yul\":29251:29255   */\n      dup7\n        /* \"#utility.yul\":29244:29325   */\n      sstore\n        /* \"#utility.yul\":29113:29335   */\n      pop\n        /* \"#utility.yul\":28448:29335   */\n      jump(tag_780)\n        /* \"#utility.yul\":28478:29096   */\n    tag_781:\n        /* \"#utility.yul\":28530:28534   */\n      0x1f\n        /* \"#utility.yul\":28526:28535   */\n      not\n        /* \"#utility.yul\":28518:28524   */\n      dup5\n        /* \"#utility.yul\":28514:28536   */\n      and\n        /* \"#utility.yul\":28564:28601   */\n      tag_784\n        /* \"#utility.yul\":28596:28600   */\n      dup7\n        /* \"#utility.yul\":28564:28601   */\n      tag_446\n      jump\t// in\n    tag_784:\n        /* \"#utility.yul\":28623:28624   */\n      0x00\n        /* \"#utility.yul\":28637:28845   */\n    tag_785:\n        /* \"#utility.yul\":28651:28658   */\n      dup3\n        /* \"#utility.yul\":28648:28649   */\n      dup2\n        /* \"#utility.yul\":28645:28659   */\n      lt\n        /* \"#utility.yul\":28637:28845   */\n      iszero\n      tag_787\n      jumpi\n        /* \"#utility.yul\":28730:28739   */\n      dup5\n        /* \"#utility.yul\":28725:28728   */\n      dup10\n        /* \"#utility.yul\":28721:28740   */\n      add\n        /* \"#utility.yul\":28715:28741   */\n      mload\n        /* \"#utility.yul\":28707:28713   */\n      dup3\n        /* \"#utility.yul\":28700:28742   */\n      sstore\n        /* \"#utility.yul\":28781:28782   */\n      0x01\n        /* \"#utility.yul\":28773:28779   */\n      dup3\n        /* \"#utility.yul\":28769:28783   */\n      add\n        /* \"#utility.yul\":28759:28783   */\n      swap2\n      pop\n        /* \"#utility.yul\":28828:28830   */\n      0x20\n        /* \"#utility.yul\":28817:28826   */\n      dup6\n        /* \"#utility.yul\":28813:28831   */\n      add\n        /* \"#utility.yul\":28800:28831   */\n      swap5\n      pop\n        /* \"#utility.yul\":28674:28678   */\n      0x20\n        /* \"#utility.yul\":28671:28672   */\n      dup2\n        /* \"#utility.yul\":28667:28679   */\n      add\n        /* \"#utility.yul\":28662:28679   */\n      swap1\n      pop\n        /* \"#utility.yul\":28637:28845   */\n      jump(tag_785)\n    tag_787:\n        /* \"#utility.yul\":28873:28879   */\n      dup7\n        /* \"#utility.yul\":28864:28871   */\n      dup4\n        /* \"#utility.yul\":28861:28880   */\n      lt\n        /* \"#utility.yul\":28858:29037   */\n      iszero\n      tag_788\n      jumpi\n        /* \"#utility.yul\":28931:28940   */\n      dup5\n        /* \"#utility.yul\":28926:28929   */\n      dup10\n        /* \"#utility.yul\":28922:28941   */\n      add\n        /* \"#utility.yul\":28916:28942   */\n      mload\n        /* \"#utility.yul\":28974:29022   */\n      tag_789\n        /* \"#utility.yul\":29016:29020   */\n      0x1f\n        /* \"#utility.yul\":29008:29014   */\n      dup10\n        /* \"#utility.yul\":29004:29021   */\n      and\n        /* \"#utility.yul\":28993:29002   */\n      dup3\n        /* \"#utility.yul\":28974:29022   */\n      tag_459\n      jump\t// in\n    tag_789:\n        /* \"#utility.yul\":28966:28972   */\n      dup4\n        /* \"#utility.yul\":28959:29023   */\n      sstore\n        /* \"#utility.yul\":28881:29037   */\n      pop\n        /* \"#utility.yul\":28858:29037   */\n    tag_788:\n        /* \"#utility.yul\":29083:29084   */\n      0x01\n        /* \"#utility.yul\":29079:29080   */\n      0x02\n        /* \"#utility.yul\":29071:29077   */\n      dup9\n        /* \"#utility.yul\":29067:29081   */\n      mul\n        /* \"#utility.yul\":29063:29085   */\n      add\n        /* \"#utility.yul\":29057:29061   */\n      dup9\n        /* \"#utility.yul\":29050:29086   */\n      sstore\n        /* \"#utility.yul\":28485:29096   */\n      pop\n      pop\n      pop\n        /* \"#utility.yul\":28448:29335   */\n    tag_780:\n      pop\n        /* \"#utility.yul\":28038:29341   */\n      pop\n      pop\n      pop\n        /* \"#utility.yul\":27946:29341   */\n      pop\n      pop\n      jump\t// out\n        /* \"#utility.yul\":29347:29527   */\n    tag_461:\n        /* \"#utility.yul\":29395:29472   */\n      0x4e487b7100000000000000000000000000000000000000000000000000000000\n        /* \"#utility.yul\":29392:29393   */\n      0x00\n        /* \"#utility.yul\":29385:29473   */\n      mstore\n        /* \"#utility.yul\":29492:29496   */\n      0x11\n        /* \"#utility.yul\":29489:29490   */\n      0x04\n        /* \"#utility.yul\":29482:29497   */\n      mstore\n        /* \"#utility.yul\":29516:29520   */\n      0x24\n        /* \"#utility.yul\":29513:29514   */\n      0x00\n        /* \"#utility.yul\":29506:29521   */\n      revert\n        /* \"#utility.yul\":29533:29766   */\n    tag_182:\n        /* \"#utility.yul\":29572:29575   */\n      0x00\n        /* \"#utility.yul\":29595:29619   */\n      tag_792\n        /* \"#utility.yul\":29613:29618   */\n      dup3\n        /* \"#utility.yul\":29595:29619   */\n      tag_395\n      jump\t// in\n    tag_792:\n        /* \"#utility.yul\":29586:29619   */\n      swap2\n      pop\n        /* \"#utility.yul\":29641:29707   */\n      0xffffffffffffffffffffffffffffffffffffffffffffffffffffffffffffffff\n        /* \"#utility.yul\":29634:29639   */\n      dup3\n        /* \"#utility.yul\":29631:29708   */\n      sub\n        /* \"#utility.yul\":29628:29731   */\n      tag_793\n      jumpi\n        /* \"#utility.yul\":29711:29729   */\n      tag_794\n      tag_461\n      jump\t// in\n    tag_794:\n        /* \"#utility.yul\":29628:29731   */\n    tag_793:\n        /* \"#utility.yul\":29758:29759   */\n      0x01\n        /* \"#utility.yul\":29751:29756   */\n      dup3\n        /* \"#utility.yul\":29747:29760   */\n      add\n        /* \"#utility.yul\":29740:29760   */\n      swap1\n      pop\n        /* \"#utility.yul\":29533:29766   */\n      swap2\n      swap1\n      pop\n      jump\t// out\n        /* \"#utility.yul\":29772:30104   */\n    tag_184:\n        /* \"#utility.yul\":29893:29897   */\n      0x00\n        /* \"#utility.yul\":29931:29933   */\n      0x40\n        /* \"#utility.yul\":29920:29929   */\n      dup3\n        /* \"#utility.yul\":29916:29934   */\n      add\n        /* \"#utility.yul\":29908:29934   */\n      swap1\n      pop\n        /* \"#utility.yul\":29944:30015   */\n      tag_796\n        /* \"#utility.yul\":30012:30013   */\n      0x00\n        /* \"#utility.yul\":30001:30010   */\n      dup4\n        /* \"#utility.yul\":29997:30014   */\n      add\n        /* \"#utility.yul\":29988:29994   */\n      dup6\n        /* \"#utility.yul\":29944:30015   */\n      tag_413\n      jump\t// in\n    tag_796:\n        /* \"#utility.yul\":30025:30097   */\n      tag_797\n        /* \"#utility.yul\":30093:30095   */\n      0x20\n        /* \"#utility.yul\":30082:30091   */\n      dup4\n        /* \"#utility.yul\":30078:30096   */\n      add\n        /* \"#utility.yul\":30069:30075   */\n      dup5\n        /* \"#utility.yul\":30025:30097   */\n      tag_427\n      jump\t// in\n    tag_797:\n        /* \"#utility.yul\":29772:30104   */\n      swap4\n      swap3\n      pop\n      pop\n      pop\n      jump\t// out\n        /* \"#utility.yul\":30110:30272   */\n    tag_462:\n        /* \"#utility.yul\":30250:30264   */\n      0x4f6e6c792063726561746f720000000000000000000000000000000000000000\n        /* \"#utility.yul\":30246:30247   */\n      0x00\n        /* \"#utility.yul\":30238:30244   */\n      dup3\n        /* \"#utility.yul\":30234:30248   */\n      add\n        /* \"#utility.yul\":30227:30265   */\n      mstore\n        /* \"#utility.yul\":30110:30272   */\n      pop\n      jump\t// out\n        /* \"#utility.yul\":30278:30644   */\n    tag_463:\n        /* \"#utility.yul\":30420:30423   */\n      0x00\n        /* \"#utility.yul\":30441:30508   */\n      tag_800\n        /* \"#utility.yul\":30505:30507   */\n      0x0c\n        /* \"#utility.yul\":30500:30503   */\n      dup4\n        /* \"#utility.yul\":30441:30508   */\n      tag_428\n      jump\t// in\n    tag_800:\n        /* \"#utility.yul\":30434:30508   */\n      swap2\n      pop\n        /* \"#utility.yul\":30517:30610   */\n      tag_801\n        /* \"#utility.yul\":30606:30609   */\n      dup3\n        /* \"#utility.yul\":30517:30610   */\n      tag_462\n      jump\t// in\n    tag_801:\n        /* \"#utility.yul\":30635:30637   */\n      0x20\n        /* \"#utility.yul\":30630:30633   */\n      dup3\n        /* \"#utility.yul\":30626:30638   */\n      add\n        /* \"#utility.yul\":30619:30638   */\n      swap1\n      pop\n        /* \"#utility.yul\":30278:30644   */\n      swap2\n      swap1\n      pop\n      jump\t// out\n        /* \"#utility.yul\":30650:31069   */\n    tag_188:\n        /* \"#utility.yul\":30816:30820   */\n      0x00\n        /* \"#utility.yul\":30854:30856   */\n      0x20\n        /* \"#utility.yul\":30843:30852   */\n      dup3\n        /* \"#utility.yul\":30839:30857   */\n      add\n        /* \"#utility.yul\":30831:30857   */\n      swap1\n      pop\n        /* \"#utility.yul\":30903:30912   */\n      dup2\n        /* \"#utility.yul\":30897:30901   */\n      dup2\n        /* \"#utility.yul\":30893:30913   */\n      sub\n        /* \"#utility.yul\":30889:30890   */\n      0x00\n        /* \"#utility.yul\":30878:30887   */\n      dup4\n        /* \"#utility.yul\":30874:30891   */\n      add\n        /* \"#utility.yul\":30867:30914   */\n      mstore\n        /* \"#utility.yul\":30931:31062   */\n      tag_803\n        /* \"#utility.yul\":31057:31061   */\n      dup2\n        /* \"#utility.yul\":30931:31062   */\n      tag_463\n      jump\t// in\n    tag_803:\n        /* \"#utility.yul\":30923:31062   */\n      swap1\n      pop\n        /* \"#utility.yul\":30650:31069   */\n      swap2\n      swap1\n      pop\n      jump\t// out\n        /* \"#utility.yul\":31075:31237   */\n    tag_464:\n        /* \"#utility.yul\":31215:31229   */\n      0x496e76616c69642074696d650000000000000000000000000000000000000000\n        /* \"#utility.yul\":31211:31212   */\n      0x00\n        /* \"#utility.yul\":31203:31209   */\n      dup3\n        /* \"#utility.yul\":31199:31213   */\n      add\n        /* \"#utility.yul\":31192:31230   */\n      mstore\n        /* \"#utility.yul\":31075:31237   */\n      pop\n      jump\t// out\n        /* \"#utility.yul\":31243:31609   */\n    tag_465:\n        /* \"#utility.yul\":31385:31388   */\n      0x00\n        /* \"#utility.yul\":31406:31473   */\n      tag_806\n        /* \"#utility.yul\":31470:31472   */\n      0x0c\n        /* \"#utility.yul\":31465:31468   */\n      dup4\n        /* \"#utility.yul\":31406:31473   */\n      tag_428\n      jump\t// in\n    tag_806:\n        /* \"#utility.yul\":31399:31473   */\n      swap2\n      pop\n        /* \"#utility.yul\":31482:31575   */\n      tag_807\n        /* \"#utility.yul\":31571:31574   */\n      dup3\n        /* \"#utility.yul\":31482:31575   */\n      tag_464\n      jump\t// in\n    tag_807:\n        /* \"#utility.yul\":31600:31602   */\n      0x20\n        /* \"#utility.yul\":31595:31598   */\n      dup3\n        /* \"#utility.yul\":31591:31603   */\n      add\n        /* \"#utility.yul\":31584:31603   */\n      swap1\n      pop\n        /* \"#utility.yul\":31243:31609   */\n      swap2\n      swap1\n      pop\n      jump\t// out\n        /* \"#utility.yul\":31615:32034   */\n    tag_191:\n        /* \"#utility.yul\":31781:31785   */\n      0x00\n        /* \"#utility.yul\":31819:31821   */\n      0x20\n        /* \"#utility.yul\":31808:31817   */\n      dup3\n        /* \"#utility.yul\":31804:31822   */\n      add\n        /* \"#utility.yul\":31796:31822   */\n      swap1\n      pop\n        /* \"#utility.yul\":31868:31877   */\n      dup2\n        /* \"#utility.yul\":31862:31866   */\n      dup2\n        /* \"#utility.yul\":31858:31878   */\n      sub\n        /* \"#utility.yul\":31854:31855   */\n      0x00\n        /* \"#utility.yul\":31843:31852   */\n      dup4\n        /* \"#utility.yul\":31839:31856   */\n      add\n        /* \"#utility.yul\":31832:31879   */\n      mstore\n        /* \"#utility.yul\":31896:32027   */\n      tag_809\n        /* \"#utility.yul\":32022:32026   */\n      dup2\n        /* \"#utility.yul\":31896:32027   */\n      tag_465\n      jump\t// in\n    tag_809:\n        /* \"#utility.yul\":31888:32027   */\n      swap1\n      pop\n        /* \"#utility.yul\":31615:32034   */\n      swap2\n      swap1\n      pop\n      jump\t// out\n        /* \"#utility.yul\":32040:32203   */\n    tag_466:\n        /* \"#utility.yul\":32180:32195   */\n      0x496e76616c696420707269636500000000000000000000000000000000000000\n        /* \"#utility.yul\":32176:32177   */\n      0x00\n        /* \"#utility.yul\":32168:32174   */\n      dup3\n        /* \"#utility.yul\":32164:32178   */\n      add\n        /* \"#utility.yul\":32157:32196   */\n      mstore\n        /* \"#utility.yul\":32040:32203   */\n      pop\n      jump\t// out\n        /* \"#utility.yul\":32209:32575   */\n    tag_467:\n        /* \"#utility.yul\":32351:32354   */\n      0x00\n        /* \"#utility.yul\":32372:32439   */\n      tag_812\n        /* \"#utility.yul\":32436:32438   */\n      0x0d\n        /* \"#utility.yul\":32431:32434   */\n      dup4\n        /* \"#utility.yul\":32372:32439   */\n      tag_428\n      jump\t// in\n    tag_812:\n        /* \"#utility.yul\":32365:32439   */\n      swap2\n      pop\n        /* \"#utility.yul\":32448:32541   */\n      tag_813\n        /* \"#utility.yul\":32537:32540   */\n      dup3\n        /* \"#utility.yul\":32448:32541   */\n      tag_466\n      jump\t// in\n    tag_813:\n        /* \"#utility.yul\":32566:32568   */\n      0x20\n        /* \"#utility.yul\":32561:32564   */\n      dup3\n        /* \"#utility.yul\":32557:32569   */\n      add\n        /* \"#utility.yul\":32550:32569   */\n      swap1\n      pop\n        /* \"#utility.yul\":32209:32575   */\n      swap2\n      swap1\n      pop\n      jump\t// out\n        /* \"#utility.yul\":32581:33000   */\n    tag_194:\n        /* \"#utility.yul\":32747:32751   */\n      0x00\n        /* \"#utility.yul\":32785:32787   */\n      0x20\n        /* \"#utility.yul\":32774:32783   */\n      dup3\n        /* \"#utility.yul\":32770:32788   */\n      add\n        /* \"#utility.yul\":32762:32788   */\n      swap1\n      pop\n        /* \"#utility.yul\":32834:32843   */\n      dup2\n        /* \"#utility.yul\":32828:32832   */\n      dup2\n        /* \"#utility.yul\":32824:32844   */\n      sub\n        /* \"#utility.yul\":32820:32821   */\n      0x00\n        /* \"#utility.yul\":32809:32818   */\n      dup4\n        /* \"#utility.yul\":32805:32822   */\n      add\n        /* \"#utility.yul\":32798:32845   */\n      mstore\n        /* \"#utility.yul\":32862:32993   */\n      tag_815\n        /* \"#utility.yul\":32988:32992   */\n      dup2\n        /* \"#utility.yul\":32862:32993   */\n      tag_467\n      jump\t// in\n    tag_815:\n        /* \"#utility.yul\":32854:32993   */\n      swap1\n      pop\n        /* \"#utility.yul\":32581:33000   */\n      swap2\n      swap1\n      pop\n      jump\t// out\n        /* \"#utility.yul\":33006:33670   */\n    tag_196:\n        /* \"#utility.yul\":33211:33215   */\n      0x00\n        /* \"#utility.yul\":33249:33252   */\n      0xa0\n        /* \"#utility.yul\":33238:33247   */\n      dup3\n        /* \"#utility.yul\":33234:33253   */\n      add\n        /* \"#utility.yul\":33226:33253   */\n      swap1\n      pop\n        /* \"#utility.yul\":33263:33334   */\n      tag_817\n        /* \"#utility.yul\":33331:33332   */\n      0x00\n        /* \"#utility.yul\":33320:33329   */\n      dup4\n        /* \"#utility.yul\":33316:33333   */\n      add\n        /* \"#utility.yul\":33307:33313   */\n      dup9\n        /* \"#utility.yul\":33263:33334   */\n      tag_413\n      jump\t// in\n    tag_817:\n        /* \"#utility.yul\":33344:33416   */\n      tag_818\n        /* \"#utility.yul\":33412:33414   */\n      0x20\n        /* \"#utility.yul\":33401:33410   */\n      dup4\n        /* \"#utility.yul\":33397:33415   */\n      add\n        /* \"#utility.yul\":33388:33394   */\n      dup8\n        /* \"#utility.yul\":33344:33416   */\n      tag_413\n      jump\t// in\n    tag_818:\n        /* \"#utility.yul\":33426:33498   */\n      tag_819\n        /* \"#utility.yul\":33494:33496   */\n      0x40\n        /* \"#utility.yul\":33483:33492   */\n      dup4\n        /* \"#utility.yul\":33479:33497   */\n      add\n        /* \"#utility.yul\":33470:33476   */\n      dup7\n        /* \"#utility.yul\":33426:33498   */\n      tag_413\n      jump\t// in\n    tag_819:\n        /* \"#utility.yul\":33508:33580   */\n      tag_820\n        /* \"#utility.yul\":33576:33578   */\n      0x60\n        /* \"#utility.yul\":33565:33574   */\n      dup4\n        /* \"#utility.yul\":33561:33579   */\n      add\n        /* \"#utility.yul\":33552:33558   */\n      dup6\n        /* \"#utility.yul\":33508:33580   */\n      tag_413\n      jump\t// in\n    tag_820:\n        /* \"#utility.yul\":33590:33663   */\n      tag_821\n        /* \"#utility.yul\":33658:33661   */\n      0x80\n        /* \"#utility.yul\":33647:33656   */\n      dup4\n        /* \"#utility.yul\":33643:33662   */\n      add\n        /* \"#utility.yul\":33634:33640   */\n      dup5\n        /* \"#utility.yul\":33590:33663   */\n      tag_427\n      jump\t// in\n    tag_821:\n        /* \"#utility.yul\":33006:33670   */\n      swap7\n      swap6\n      pop\n      pop\n      pop\n      pop\n      pop\n      pop\n      jump\t// out\n        /* \"#utility.yul\":33676:33823   */\n    tag_468:\n        /* \"#utility.yul\":33777:33788   */\n      0x00\n        /* \"#utility.yul\":33814:33817   */\n      dup2\n        /* \"#utility.yul\":33799:33817   */\n      swap1\n      pop\n        /* \"#utility.yul\":33676:33823   */\n      swap3\n      swap2\n      pop\n      pop\n      jump\t// out\n        /* \"#utility.yul\":33829:33943   */\n    tag_469:\n      pop\n      jump\t// out\n        /* \"#utility.yul\":33949:34347   */\n    tag_470:\n        /* \"#utility.yul\":34108:34111   */\n      0x00\n        /* \"#utility.yul\":34129:34212   */\n      tag_825\n        /* \"#utility.yul\":34210:34211   */\n      0x00\n        /* \"#utility.yul\":34205:34208   */\n      dup4\n        /* \"#utility.yul\":34129:34212   */\n      tag_468\n      jump\t// in\n    tag_825:\n        /* \"#utility.yul\":34122:34212   */\n      swap2\n      pop\n        /* \"#utility.yul\":34221:34314   */\n      tag_826\n        /* \"#utility.yul\":34310:34313   */\n      dup3\n        /* \"#utility.yul\":34221:34314   */\n      tag_469\n      jump\t// in\n    tag_826:\n        /* \"#utility.yul\":34339:34340   */\n      0x00\n        /* \"#utility.yul\":34334:34337   */\n      dup3\n        /* \"#utility.yul\":34330:34341   */\n      add\n        /* \"#utility.yul\":34323:34341   */\n      swap1\n      pop\n        /* \"#utility.yul\":33949:34347   */\n      swap2\n      swap1\n      pop\n      jump\t// out\n        /* \"#utility.yul\":34353:34732   */\n    tag_204:\n        /* \"#utility.yul\":34537:34540   */\n      0x00\n        /* \"#utility.yul\":34559:34706   */\n      tag_828\n        /* \"#utility.yul\":34702:34705   */\n      dup3\n        /* \"#utility.yul\":34559:34706   */\n      tag_470\n      jump\t// in\n    tag_828:\n        /* \"#utility.yul\":34552:34706   */\n      swap2\n      pop\n        /* \"#utility.yul\":34723:34726   */\n      dup2\n        /* \"#utility.yul\":34716:34726   */\n      swap1\n      pop\n        /* \"#utility.yul\":34353:34732   */\n      swap2\n      swap1\n      pop\n      jump\t// out\n        /* \"#utility.yul\":34738:34907   */\n    tag_471:\n        /* \"#utility.yul\":34878:34899   */\n      0x455448207472616e73666572206661696c656400000000000000000000000000\n        /* \"#utility.yul\":34874:34875   */\n      0x00\n        /* \"#utility.yul\":34866:34872   */\n      dup3\n        /* \"#utility.yul\":34862:34876   */\n      add\n        /* \"#utility.yul\":34855:34900   */\n      mstore\n        /* \"#utility.yul\":34738:34907   */\n      pop\n      jump\t// out\n        /* \"#utility.yul\":34913:35279   */\n    tag_472:\n        /* \"#utility.yul\":35055:35058   */\n      0x00\n        /* \"#utility.yul\":35076:35143   */\n      tag_831\n        /* \"#utility.yul\":35140:35142   */\n      0x13\n        /* \"#utility.yul\":35135:35138   */\n      dup4\n        /* \"#utility.yul\":35076:35143   */\n      tag_428\n      jump\t// in\n    tag_831:\n        /* \"#utility.yul\":35069:35143   */\n      swap2\n      pop\n        /* \"#utility.yul\":35152:35245   */\n      tag_832\n        /* \"#utility.yul\":35241:35244   */\n      dup3\n        /* \"#utility.yul\":35152:35245   */\n      tag_471\n      jump\t// in\n    tag_832:\n        /* \"#utility.yul\":35270:35272   */\n      0x20\n        /* \"#utility.yul\":35265:35268   */\n      dup3\n        /* \"#utility.yul\":35261:35273   */\n      add\n        /* \"#utility.yul\":35254:35273   */\n      swap1\n      pop\n        /* \"#utility.yul\":34913:35279   */\n      swap2\n      swap1\n      pop\n      jump\t// out\n        /* \"#utility.yul\":35285:35704   */\n    tag_210:\n        /* \"#utility.yul\":35451:35455   */\n      0x00\n        /* \"#utility.yul\":35489:35491   */\n      0x20\n        /* \"#utility.yul\":35478:35487   */\n      dup3\n        /* \"#utility.yul\":35474:35492   */\n      add\n        /* \"#utility.yul\":35466:35492   */\n      swap1\n      pop\n        /* \"#utility.yul\":35538:35547   */\n      dup2\n        /* \"#utility.yul\":35532:35536   */\n      dup2\n        /* \"#utility.yul\":35528:35548   */\n      sub\n        /* \"#utility.yul\":35524:35525   */\n      0x00\n        /* \"#utility.yul\":35513:35522   */\n      dup4\n        /* \"#utility.yul\":35509:35526   */\n      add\n        /* \"#utility.yul\":35502:35549   */\n      mstore\n        /* \"#utility.yul\":35566:35697   */\n      tag_834\n        /* \"#utility.yul\":35692:35696   */\n      dup2\n        /* \"#utility.yul\":35566:35697   */\n      tag_472\n      jump\t// in\n    tag_834:\n        /* \"#utility.yul\":35558:35697   */\n      swap1\n      pop\n        /* \"#utility.yul\":35285:35704   */\n      swap2\n      swap1\n      pop\n      jump\t// out\n        /* \"#utility.yul\":35710:36030   */\n    tag_225:\n        /* \"#utility.yul\":35825:35829   */\n      0x00\n        /* \"#utility.yul\":35863:35865   */\n      0x40\n        /* \"#utility.yul\":35852:35861   */\n      dup3\n        /* \"#utility.yul\":35848:35866   */\n      add\n        /* \"#utility.yul\":35840:35866   */\n      swap1\n      pop\n        /* \"#utility.yul\":35876:35947   */\n      tag_836\n        /* \"#utility.yul\":35944:35945   */\n      0x00\n        /* \"#utility.yul\":35933:35942   */\n      dup4\n        /* \"#utility.yul\":35929:35946   */\n      add\n        /* \"#utility.yul\":35920:35926   */\n      dup6\n        /* \"#utility.yul\":35876:35947   */\n      tag_427\n      jump\t// in\n    tag_836:\n        /* \"#utility.yul\":35957:36023   */\n      tag_837\n        /* \"#utility.yul\":36019:36021   */\n      0x20\n        /* \"#utility.yul\":36008:36017   */\n      dup4\n        /* \"#utility.yul\":36004:36022   */\n      add\n        /* \"#utility.yul\":35995:36001   */\n      dup5\n        /* \"#utility.yul\":35957:36023   */\n      tag_431\n      jump\t// in\n    tag_837:\n        /* \"#utility.yul\":35710:36030   */\n      swap4\n      swap3\n      pop\n      pop\n      pop\n      jump\t// out\n        /* \"#utility.yul\":36036:36199   */\n    tag_473:\n        /* \"#utility.yul\":36176:36191   */\n      0x4e6f742076616c696461746f7200000000000000000000000000000000000000\n        /* \"#utility.yul\":36172:36173   */\n      0x00\n        /* \"#utility.yul\":36164:36170   */\n      dup3\n        /* \"#utility.yul\":36160:36174   */\n      add\n        /* \"#utility.yul\":36153:36192   */\n      mstore\n        /* \"#utility.yul\":36036:36199   */\n      pop\n      jump\t// out\n        /* \"#utility.yul\":36205:36571   */\n    tag_474:\n        /* \"#utility.yul\":36347:36350   */\n      0x00\n        /* \"#utility.yul\":36368:36435   */\n      tag_840\n        /* \"#utility.yul\":36432:36434   */\n      0x0d\n        /* \"#utility.yul\":36427:36430   */\n      dup4\n        /* \"#utility.yul\":36368:36435   */\n      tag_428\n      jump\t// in\n    tag_840:\n        /* \"#utility.yul\":36361:36435   */\n      swap2\n      pop\n        /* \"#utility.yul\":36444:36537   */\n      tag_841\n        /* \"#utility.yul\":36533:36536   */\n      dup3\n        /* \"#utility.yul\":36444:36537   */\n      tag_473\n      jump\t// in\n    tag_841:\n        /* \"#utility.yul\":36562:36564   */\n      0x20\n        /* \"#utility.yul\":36557:36560   */\n      dup3\n        /* \"#utility.yul\":36553:36565   */\n      add\n        /* \"#utility.yul\":36546:36565   */\n      swap1\n      pop\n        /* \"#utility.yul\":36205:36571   */\n      swap2\n      swap1\n      pop\n      jump\t// out\n        /* \"#utility.yul\":36577:36996   */\n    tag_248:\n        /* \"#utility.yul\":36743:36747   */\n      0x00\n        /* \"#utility.yul\":36781:36783   */\n      0x20\n        /* \"#utility.yul\":36770:36779   */\n      dup3\n        /* \"#utility.yul\":36766:36784   */\n      add\n        /* \"#utility.yul\":36758:36784   */\n      swap1\n      pop\n        /* \"#utility.yul\":36830:36839   */\n      dup2\n        /* \"#utility.yul\":36824:36828   */\n      dup2\n        /* \"#utility.yul\":36820:36840   */\n      sub\n        /* \"#utility.yul\":36816:36817   */\n      0x00\n        /* \"#utility.yul\":36805:36814   */\n      dup4\n        /* \"#utility.yul\":36801:36818   */\n      add\n        /* \"#utility.yul\":36794:36841   */\n      mstore\n        /* \"#utility.yul\":36858:36989   */\n      tag_843\n        /* \"#utility.yul\":36984:36988   */\n      dup2\n        /* \"#utility.yul\":36858:36989   */\n      tag_474\n      jump\t// in\n    tag_843:\n        /* \"#utility.yul\":36850:36989   */\n      swap1\n      pop\n        /* \"#utility.yul\":36577:36996   */\n      swap2\n      swap1\n      pop\n      jump\t// out\n        /* \"#utility.yul\":37002:37182   */\n    tag_475:\n        /* \"#utility.yul\":37142:37174   */\n      0x52657761726420657863656564732070726f6772616d2062616c616e63650000\n        /* \"#utility.yul\":37138:37139   */\n      0x00\n        /* \"#utility.yul\":37130:37136   */\n      dup3\n        /* \"#utility.yul\":37126:37140   */\n      add\n        /* \"#utility.yul\":37119:37175   */\n      mstore\n        /* \"#utility.yul\":37002:37182   */\n      pop\n      jump\t// out\n        /* \"#utility.yul\":37188:37554   */\n    tag_476:\n        /* \"#utility.yul\":37330:37333   */\n      0x00\n        /* \"#utility.yul\":37351:37418   */\n      tag_846\n        /* \"#utility.yul\":37415:37417   */\n      0x1e\n        /* \"#utility.yul\":37410:37413   */\n      dup4\n        /* \"#utility.yul\":37351:37418   */\n      tag_428\n      jump\t// in\n    tag_846:\n        /* \"#utility.yul\":37344:37418   */\n      swap2\n      pop\n        /* \"#utility.yul\":37427:37520   */\n      tag_847\n        /* \"#utility.yul\":37516:37519   */\n      dup3\n        /* \"#utility.yul\":37427:37520   */\n      tag_475\n      jump\t// in\n    tag_847:\n        /* \"#utility.yul\":37545:37547   */\n      0x20\n        /* \"#utility.yul\":37540:37543   */\n      dup3\n        /* \"#utility.yul\":37536:37548   */\n      add\n        /* \"#utility.yul\":37529:37548   */\n      swap1\n      pop\n        /* \"#utility.yul\":37188:37554   */\n      swap2\n      swap1\n      pop\n      jump\t// out\n        /* \"#utility.yul\":37560:37979   */\n    tag_251:\n        /* \"#utility.yul\":37726:37730   */\n      0x00\n        /* \"#utility.yul\":37764:37766   */\n      0x20\n        /* \"#utility.yul\":37753:37762   */\n      dup3\n        /* \"#utility.yul\":37749:37767   */\n      add\n        /* \"#utility.yul\":37741:37767   */\n      swap1\n      pop\n        /* \"#utility.yul\":37813:37822   */\n      dup2\n        /* \"#utility.yul\":37807:37811   */\n      dup2\n        /* \"#utility.yul\":37803:37823   */\n      sub\n        /* \"#utility.yul\":37799:37800   */\n      0x00\n        /* \"#utility.yul\":37788:37797   */\n      dup4\n        /* \"#utility.yul\":37784:37801   */\n      add\n        /* \"#utility.yul\":37777:37824   */\n      mstore\n        /* \"#utility.yul\":37841:37972   */\n      tag_849\n        /* \"#utility.yul\":37967:37971   */\n      dup2\n        /* \"#utility.yul\":37841:37972   */\n      tag_476\n      jump\t// in\n    tag_849:\n        /* \"#utility.yul\":37833:37972   */\n      swap1\n      pop\n        /* \"#utility.yul\":37560:37979   */\n      swap2\n      swap1\n      pop\n      jump\t// out\n        /* \"#utility.yul\":37985:38205   */\n    tag_477:\n        /* \"#utility.yul\":38125:38159   */\n      0x496e73756666696369656e7420636f6e7472616374204554482062616c616e63\n        /* \"#utility.yul\":38121:38122   */\n      0x00\n        /* \"#utility.yul\":38113:38119   */\n      dup3\n        /* \"#utility.yul\":38109:38123   */\n      add\n        /* \"#utility.yul\":38102:38160   */\n      mstore\n        /* \"#utility.yul\":38194:38197   */\n      0x6500000000000000000000000000000000000000000000000000000000000000\n        /* \"#utility.yul\":38189:38191   */\n      0x20\n        /* \"#utility.yul\":38181:38187   */\n      dup3\n        /* \"#utility.yul\":38177:38192   */\n      add\n        /* \"#utility.yul\":38170:38198   */\n      mstore\n        /* \"#utility.yul\":37985:38205   */\n      pop\n      jump\t// out\n        /* \"#utility.yul\":38211:38577   */\n    tag_478:\n        /* \"#utility.yul\":38353:38356   */\n      0x00\n        /* \"#utility.yul\":38374:38441   */\n      tag_852\n        /* \"#utility.yul\":38438:38440   */\n      0x21\n        /* \"#utility.yul\":38433:38436   */\n      dup4\n        /* \"#utility.yul\":38374:38441   */\n      tag_428\n      jump\t// in\n    tag_852:\n        /* \"#utility.yul\":38367:38441   */\n      swap2\n      pop\n        /* \"#utility.yul\":38450:38543   */\n      tag_853\n        /* \"#utility.yul\":38539:38542   */\n      dup3\n        /* \"#utility.yul\":38450:38543   */\n      tag_477\n      jump\t// in\n    tag_853:\n        /* \"#utility.yul\":38568:38570   */\n      0x40\n        /* \"#utility.yul\":38563:38566   */\n      dup3\n        /* \"#utility.yul\":38559:38571   */\n      add\n        /* \"#utility.yul\":38552:38571   */\n      swap1\n      pop\n        /* \"#utility.yul\":38211:38577   */\n      swap2\n      swap1\n      pop\n      jump\t// out\n        /* \"#utility.yul\":38583:39002   */\n    tag_255:\n        /* \"#utility.yul\":38749:38753   */\n      0x00\n        /* \"#utility.yul\":38787:38789   */\n      0x20\n        /* \"#utility.yul\":38776:38785   */\n      dup3\n        /* \"#utility.yul\":38772:38790   */\n      add\n        /* \"#utility.yul\":38764:38790   */\n      swap1\n      pop\n        /* \"#utility.yul\":38836:38845   */\n      dup2\n        /* \"#utility.yul\":38830:38834   */\n      dup2\n        /* \"#utility.yul\":38826:38846   */\n      sub\n        /* \"#utility.yul\":38822:38823   */\n      0x00\n        /* \"#utility.yul\":38811:38820   */\n      dup4\n        /* \"#utility.yul\":38807:38824   */\n      add\n        /* \"#utility.yul\":38800:38847   */\n      mstore\n        /* \"#utility.yul\":38864:38995   */\n      tag_855\n        /* \"#utility.yul\":38990:38994   */\n      dup2\n        /* \"#utility.yul\":38864:38995   */\n      tag_478\n      jump\t// in\n    tag_855:\n        /* \"#utility.yul\":38856:38995   */\n      swap1\n      pop\n        /* \"#utility.yul\":38583:39002   */\n      swap2\n      swap1\n      pop\n      jump\t// out\n        /* \"#utility.yul\":39008:39230   */\n    tag_479:\n        /* \"#utility.yul\":39148:39182   */\n      0x496e73756666696369656e7420636f6e747261637420746f6b656e2062616c61\n        /* \"#utility.yul\":39144:39145   */\n      0x00\n        /* \"#utility.yul\":39136:39142   */\n      dup3\n        /* \"#utility.yul\":39132:39146   */\n      add\n        /* \"#utility.yul\":39125:39183   */\n      mstore\n        /* \"#utility.yul\":39217:39222   */\n      0x6e63650000000000000000000000000000000000000000000000000000000000\n        /* \"#utility.yul\":39212:39214   */\n      0x20\n        /* \"#utility.yul\":39204:39210   */\n      dup3\n        /* \"#utility.yul\":39200:39215   */\n      add\n        /* \"#utility.yul\":39193:39223   */\n      mstore\n        /* \"#utility.yul\":39008:39230   */\n      pop\n      jump\t// out\n        /* \"#utility.yul\":39236:39602   */\n    tag_480:\n        /* \"#utility.yul\":39378:39381   */\n      0x00\n        /* \"#utility.yul\":39399:39466   */\n      tag_858\n        /* \"#utility.yul\":39463:39465   */\n      0x23\n        /* \"#utility.yul\":39458:39461   */\n      dup4\n        /* \"#utility.yul\":39399:39466   */\n      tag_428\n      jump\t// in\n    tag_858:\n        /* \"#utility.yul\":39392:39466   */\n      swap2\n      pop\n        /* \"#utility.yul\":39475:39568   */\n      tag_859\n        /* \"#utility.yul\":39564:39567   */\n      dup3\n        /* \"#utility.yul\":39475:39568   */\n      tag_479\n      jump\t// in\n    tag_859:\n        /* \"#utility.yul\":39593:39595   */\n      0x40\n        /* \"#utility.yul\":39588:39591   */\n      dup3\n        /* \"#utility.yul\":39584:39596   */\n      add\n        /* \"#utility.yul\":39577:39596   */\n      swap1\n      pop\n        /* \"#utility.yul\":39236:39602   */\n      swap2\n      swap1\n      pop\n      jump\t// out\n        /* \"#utility.yul\":39608:40027   */\n    tag_269:\n        /* \"#utility.yul\":39774:39778   */\n      0x00\n        /* \"#utility.yul\":39812:39814   */\n      0x20\n        /* \"#utility.yul\":39801:39810   */\n      dup3\n        /* \"#utility.yul\":39797:39815   */\n      add\n        /* \"#utility.yul\":39789:39815   */\n      swap1\n      pop\n        /* \"#utility.yul\":39861:39870   */\n      dup2\n        /* \"#utility.yul\":39855:39859   */\n      dup2\n        /* \"#utility.yul\":39851:39871   */\n      sub\n        /* \"#utility.yul\":39847:39848   */\n      0x00\n        /* \"#utility.yul\":39836:39845   */\n      dup4\n        /* \"#utility.yul\":39832:39849   */\n      add\n        /* \"#utility.yul\":39825:39872   */\n      mstore\n        /* \"#utility.yul\":39889:40020   */\n      tag_861\n        /* \"#utility.yul\":40015:40019   */\n      dup2\n        /* \"#utility.yul\":39889:40020   */\n      tag_480\n      jump\t// in\n    tag_861:\n        /* \"#utility.yul\":39881:40020   */\n      swap1\n      pop\n        /* \"#utility.yul\":39608:40027   */\n      swap2\n      swap1\n      pop\n      jump\t// out\n        /* \"#utility.yul\":40033:40227   */\n    tag_272:\n        /* \"#utility.yul\":40073:40077   */\n      0x00\n        /* \"#utility.yul\":40093:40113   */\n      tag_863\n        /* \"#utility.yul\":40111:40112   */\n      dup3\n        /* \"#utility.yul\":40093:40113   */\n      tag_395\n      jump\t// in\n    tag_863:\n        /* \"#utility.yul\":40088:40113   */\n      swap2\n      pop\n        /* \"#utility.yul\":40127:40147   */\n      tag_864\n        /* \"#utility.yul\":40145:40146   */\n      dup4\n        /* \"#utility.yul\":40127:40147   */\n      tag_395\n      jump\t// in\n    tag_864:\n        /* \"#utility.yul\":40122:40147   */\n      swap3\n      pop\n        /* \"#utility.yul\":40171:40172   */\n      dup3\n        /* \"#utility.yul\":40168:40169   */\n      dup3\n        /* \"#utility.yul\":40164:40173   */\n      sub\n        /* \"#utility.yul\":40156:40173   */\n      swap1\n      pop\n        /* \"#utility.yul\":40195:40196   */\n      dup2\n        /* \"#utility.yul\":40189:40193   */\n      dup2\n        /* \"#utility.yul\":40186:40197   */\n      gt\n        /* \"#utility.yul\":40183:40220   */\n      iszero\n      tag_865\n      jumpi\n        /* \"#utility.yul\":40200:40218   */\n      tag_866\n      tag_461\n      jump\t// in\n    tag_866:\n        /* \"#utility.yul\":40183:40220   */\n    tag_865:\n        /* \"#utility.yul\":40033:40227   */\n      swap3\n      swap2\n      pop\n      pop\n      jump\t// out\n        /* \"#utility.yul\":40233:40381   */\n    tag_481:\n        /* \"#utility.yul\":40335:40346   */\n      0x00\n        /* \"#utility.yul\":40372:40375   */\n      dup2\n        /* \"#utility.yul\":40357:40375   */\n      swap1\n      pop\n        /* \"#utility.yul\":40233:40381   */\n      swap3\n      swap2\n      pop\n      pop\n      jump\t// out\n        /* \"#utility.yul\":40387:40777   */\n    tag_482:\n        /* \"#utility.yul\":40493:40496   */\n      0x00\n        /* \"#utility.yul\":40521:40560   */\n      tag_869\n        /* \"#utility.yul\":40554:40559   */\n      dup3\n        /* \"#utility.yul\":40521:40560   */\n      tag_401\n      jump\t// in\n    tag_869:\n        /* \"#utility.yul\":40576:40665   */\n      tag_870\n        /* \"#utility.yul\":40658:40664   */\n      dup2\n        /* \"#utility.yul\":40653:40656   */\n      dup6\n        /* \"#utility.yul\":40576:40665   */\n      tag_481\n      jump\t// in\n    tag_870:\n        /* \"#utility.yul\":40569:40665   */\n      swap4\n      pop\n        /* \"#utility.yul\":40674:40739   */\n      tag_871\n        /* \"#utility.yul\":40732:40738   */\n      dup2\n        /* \"#utility.yul\":40727:40730   */\n      dup6\n        /* \"#utility.yul\":40720:40724   */\n      0x20\n        /* \"#utility.yul\":40713:40718   */\n      dup7\n        /* \"#utility.yul\":40709:40725   */\n      add\n        /* \"#utility.yul\":40674:40739   */\n      tag_403\n      jump\t// in\n    tag_871:\n        /* \"#utility.yul\":40764:40770   */\n      dup1\n        /* \"#utility.yul\":40759:40762   */\n      dup5\n        /* \"#utility.yul\":40755:40771   */\n      add\n        /* \"#utility.yul\":40748:40771   */\n      swap2\n      pop\n        /* \"#utility.yul\":40497:40777   */\n      pop\n        /* \"#utility.yul\":40387:40777   */\n      swap3\n      swap2\n      pop\n      pop\n      jump\t// out\n        /* \"#utility.yul\":40783:41058   */\n    tag_274:\n        /* \"#utility.yul\":40915:40918   */\n      0x00\n        /* \"#utility.yul\":40937:41032   */\n      tag_873\n        /* \"#utility.yul\":41028:41031   */\n      dup3\n        /* \"#utility.yul\":41019:41025   */\n      dup5\n        /* \"#utility.yul\":40937:41032   */\n      tag_482\n      jump\t// in\n    tag_873:\n        /* \"#utility.yul\":40930:41032   */\n      swap2\n      pop\n        /* \"#utility.yul\":41049:41052   */\n      dup2\n        /* \"#utility.yul\":41042:41052   */\n      swap1\n      pop\n        /* \"#utility.yul\":40783:41058   */\n      swap3\n      swap2\n      pop\n      pop\n      jump\t// out\n        /* \"#utility.yul\":41064:41289   */\n    tag_483:\n        /* \"#utility.yul\":41204:41238   */\n      0x4f776e61626c653a206e6577206f776e657220697320746865207a65726f2061\n        /* \"#utility.yul\":41200:41201   */\n      0x00\n        /* \"#utility.yul\":41192:41198   */\n      dup3\n        /* \"#utility.yul\":41188:41202   */\n      add\n        /* \"#utility.yul\":41181:41239   */\n      mstore\n        /* \"#utility.yul\":41273:41281   */\n      0x6464726573730000000000000000000000000000000000000000000000000000\n        /* \"#utility.yul\":41268:41270   */\n      0x20\n        /* \"#utility.yul\":41260:41266   */\n      dup3\n        /* \"#utility.yul\":41256:41271   */\n      add\n        /* \"#utility.yul\":41249:41282   */\n      mstore\n        /* \"#utility.yul\":41064:41289   */\n      pop\n      jump\t// out\n        /* \"#utility.yul\":41295:41661   */\n    tag_484:\n        /* \"#utility.yul\":41437:41440   */\n      0x00\n        /* \"#utility.yul\":41458:41525   */\n      tag_876\n        /* \"#utility.yul\":41522:41524   */\n      0x26\n        /* \"#utility.yul\":41517:41520   */\n      dup4\n        /* \"#utility.yul\":41458:41525   */\n      tag_428\n      jump\t// in\n    tag_876:\n        /* \"#utility.yul\":41451:41525   */\n      swap2\n      pop\n        /* \"#utility.yul\":41534:41627   */\n      tag_877\n        /* \"#utility.yul\":41623:41626   */\n      dup3\n        /* \"#utility.yul\":41534:41627   */\n      tag_483\n      jump\t// in\n    tag_877:\n        /* \"#utility.yul\":41652:41654   */\n      0x40\n        /* \"#utility.yul\":41647:41650   */\n      dup3\n        /* \"#utility.yul\":41643:41655   */\n      add\n        /* \"#utility.yul\":41636:41655   */\n      swap1\n      pop\n        /* \"#utility.yul\":41295:41661   */\n      swap2\n      swap1\n      pop\n      jump\t// out\n        /* \"#utility.yul\":41667:42086   */\n    tag_283:\n        /* \"#utility.yul\":41833:41837   */\n      0x00\n        /* \"#utility.yul\":41871:41873   */\n      0x20\n        /* \"#utility.yul\":41860:41869   */\n      dup3\n        /* \"#utility.yul\":41856:41874   */\n      add\n        /* \"#utility.yul\":41848:41874   */\n      swap1\n      pop\n        /* \"#utility.yul\":41920:41929   */\n      dup2\n        /* \"#utility.yul\":41914:41918   */\n      dup2\n        /* \"#utility.yul\":41910:41930   */\n      sub\n        /* \"#utility.yul\":41906:41907   */\n      0x00\n        /* \"#utility.yul\":41895:41904   */\n      dup4\n        /* \"#utility.yul\":41891:41908   */\n      add\n        /* \"#utility.yul\":41884:41931   */\n      mstore\n        /* \"#utility.yul\":41948:42079   */\n      tag_879\n        /* \"#utility.yul\":42074:42078   */\n      dup2\n        /* \"#utility.yul\":41948:42079   */\n      tag_484\n      jump\t// in\n    tag_879:\n        /* \"#utility.yul\":41940:42079   */\n      swap1\n      pop\n        /* \"#utility.yul\":41667:42086   */\n      swap2\n      swap1\n      pop\n      jump\t// out\n        /* \"#utility.yul\":42092:42263   */\n    tag_485:\n        /* \"#utility.yul\":42232:42255   */\n      0x50726f6772616d206e6f7420656e646564207965740000000000000000000000\n        /* \"#utility.yul\":42228:42229   */\n      0x00\n        /* \"#utility.yul\":42220:42226   */\n      dup3\n        /* \"#utility.yul\":42216:42230   */\n      add\n        /* \"#utility.yul\":42209:42256   */\n      mstore\n        /* \"#utility.yul\":42092:42263   */\n      pop\n      jump\t// out\n        /* \"#utility.yul\":42269:42635   */\n    tag_486:\n        /* \"#utility.yul\":42411:42414   */\n      0x00\n        /* \"#utility.yul\":42432:42499   */\n      tag_882\n        /* \"#utility.yul\":42496:42498   */\n      0x15\n        /* \"#utility.yul\":42491:42494   */\n      dup4\n        /* \"#utility.yul\":42432:42499   */\n      tag_428\n      jump\t// in\n    tag_882:\n        /* \"#utility.yul\":42425:42499   */\n      swap2\n      pop\n        /* \"#utility.yul\":42508:42601   */\n      tag_883\n        /* \"#utility.yul\":42597:42600   */\n      dup3\n        /* \"#utility.yul\":42508:42601   */\n      tag_485\n      jump\t// in\n    tag_883:\n        /* \"#utility.yul\":42626:42628   */\n      0x20\n        /* \"#utility.yul\":42621:42624   */\n      dup3\n        /* \"#utility.yul\":42617:42629   */\n      add\n        /* \"#utility.yul\":42610:42629   */\n      swap1\n      pop\n        /* \"#utility.yul\":42269:42635   */\n      swap2\n      swap1\n      pop\n      jump\t// out\n        /* \"#utility.yul\":42641:43060   */\n    tag_290:\n        /* \"#utility.yul\":42807:42811   */\n      0x00\n        /* \"#utility.yul\":42845:42847   */\n      0x20\n        /* \"#utility.yul\":42834:42843   */\n      dup3\n        /* \"#utility.yul\":42830:42848   */\n      add\n        /* \"#utility.yul\":42822:42848   */\n      swap1\n      pop\n        /* \"#utility.yul\":42894:42903   */\n      dup2\n        /* \"#utility.yul\":42888:42892   */\n      dup2\n        /* \"#utility.yul\":42884:42904   */\n      sub\n        /* \"#utility.yul\":42880:42881   */\n      0x00\n        /* \"#utility.yul\":42869:42878   */\n      dup4\n        /* \"#utility.yul\":42865:42882   */\n      add\n        /* \"#utility.yul\":42858:42905   */\n      mstore\n        /* \"#utility.yul\":42922:43053   */\n      tag_885\n        /* \"#utility.yul\":43048:43052   */\n      dup2\n        /* \"#utility.yul\":42922:43053   */\n      tag_486\n      jump\t// in\n    tag_885:\n        /* \"#utility.yul\":42914:43053   */\n      swap1\n      pop\n        /* \"#utility.yul\":42641:43060   */\n      swap2\n      swap1\n      pop\n      jump\t// out\n        /* \"#utility.yul\":43066:43237   */\n    tag_487:\n        /* \"#utility.yul\":43206:43229   */\n      0x4e6f74207468652070726f6772616d206d616b65720000000000000000000000\n        /* \"#utility.yul\":43202:43203   */\n      0x00\n        /* \"#utility.yul\":43194:43200   */\n      dup3\n        /* \"#utility.yul\":43190:43204   */\n      add\n        /* \"#utility.yul\":43183:43230   */\n      mstore\n        /* \"#utility.yul\":43066:43237   */\n      pop\n      jump\t// out\n        /* \"#utility.yul\":43243:43609   */\n    tag_488:\n        /* \"#utility.yul\":43385:43388   */\n      0x00\n        /* \"#utility.yul\":43406:43473   */\n      tag_888\n        /* \"#utility.yul\":43470:43472   */\n      0x15\n        /* \"#utility.yul\":43465:43468   */\n      dup4\n        /* \"#utility.yul\":43406:43473   */\n      tag_428\n      jump\t// in\n    tag_888:\n        /* \"#utility.yul\":43399:43473   */\n      swap2\n      pop\n        /* \"#utility.yul\":43482:43575   */\n      tag_889\n        /* \"#utility.yul\":43571:43574   */\n      dup3\n        /* \"#utility.yul\":43482:43575   */\n      tag_487\n      jump\t// in\n    tag_889:\n        /* \"#utility.yul\":43600:43602   */\n      0x20\n        /* \"#utility.yul\":43595:43598   */\n      dup3\n        /* \"#utility.yul\":43591:43603   */\n      add\n        /* \"#utility.yul\":43584:43603   */\n      swap1\n      pop\n        /* \"#utility.yul\":43243:43609   */\n      swap2\n      swap1\n      pop\n      jump\t// out\n        /* \"#utility.yul\":43615:44034   */\n    tag_293:\n        /* \"#utility.yul\":43781:43785   */\n      0x00\n        /* \"#utility.yul\":43819:43821   */\n      0x20\n        /* \"#utility.yul\":43808:43817   */\n      dup3\n        /* \"#utility.yul\":43804:43822   */\n      add\n        /* \"#utility.yul\":43796:43822   */\n      swap1\n      pop\n        /* \"#utility.yul\":43868:43877   */\n      dup2\n        /* \"#utility.yul\":43862:43866   */\n      dup2\n        /* \"#utility.yul\":43858:43878   */\n      sub\n        /* \"#utility.yul\":43854:43855   */\n      0x00\n        /* \"#utility.yul\":43843:43852   */\n      dup4\n        /* \"#utility.yul\":43839:43856   */\n      add\n        /* \"#utility.yul\":43832:43879   */\n      mstore\n        /* \"#utility.yul\":43896:44027   */\n      tag_891\n        /* \"#utility.yul\":44022:44026   */\n      dup2\n        /* \"#utility.yul\":43896:44027   */\n      tag_488\n      jump\t// in\n    tag_891:\n        /* \"#utility.yul\":43888:44027   */\n      swap1\n      pop\n        /* \"#utility.yul\":43615:44034   */\n      swap2\n      swap1\n      pop\n      jump\t// out\n        /* \"#utility.yul\":44040:44205   */\n    tag_489:\n        /* \"#utility.yul\":44180:44197   */\n      0x416c726561647920636c61696d65640000000000000000000000000000000000\n        /* \"#utility.yul\":44176:44177   */\n      0x00\n        /* \"#utility.yul\":44168:44174   */\n      dup3\n        /* \"#utility.yul\":44164:44178   */\n      add\n        /* \"#utility.yul\":44157:44198   */\n      mstore\n        /* \"#utility.yul\":44040:44205   */\n      pop\n      jump\t// out\n        /* \"#utility.yul\":44211:44577   */\n    tag_490:\n        /* \"#utility.yul\":44353:44356   */\n      0x00\n        /* \"#utility.yul\":44374:44441   */\n      tag_894\n        /* \"#utility.yul\":44438:44440   */\n      0x0f\n        /* \"#utility.yul\":44433:44436   */\n      dup4\n        /* \"#utility.yul\":44374:44441   */\n      tag_428\n      jump\t// in\n    tag_894:\n        /* \"#utility.yul\":44367:44441   */\n      swap2\n      pop\n        /* \"#utility.yul\":44450:44543   */\n      tag_895\n        /* \"#utility.yul\":44539:44542   */\n      dup3\n        /* \"#utility.yul\":44450:44543   */\n      tag_489\n      jump\t// in\n    tag_895:\n        /* \"#utility.yul\":44568:44570   */\n      0x20\n        /* \"#utility.yul\":44563:44566   */\n      dup3\n        /* \"#utility.yul\":44559:44571   */\n      add\n        /* \"#utility.yul\":44552:44571   */\n      swap1\n      pop\n        /* \"#utility.yul\":44211:44577   */\n      swap2\n      swap1\n      pop\n      jump\t// out\n        /* \"#utility.yul\":44583:45002   */\n    tag_296:\n        /* \"#utility.yul\":44749:44753   */\n      0x00\n        /* \"#utility.yul\":44787:44789   */\n      0x20\n        /* \"#utility.yul\":44776:44785   */\n      dup3\n        /* \"#utility.yul\":44772:44790   */\n      add\n        /* \"#utility.yul\":44764:44790   */\n      swap1\n      pop\n        /* \"#utility.yul\":44836:44845   */\n      dup2\n        /* \"#utility.yul\":44830:44834   */\n      dup2\n        /* \"#utility.yul\":44826:44846   */\n      sub\n        /* \"#utility.yul\":44822:44823   */\n      0x00\n        /* \"#utility.yul\":44811:44820   */\n      dup4\n        /* \"#utility.yul\":44807:44824   */\n      add\n        /* \"#utility.yul\":44800:44847   */\n      mstore\n        /* \"#utility.yul\":44864:44995   */\n      tag_897\n        /* \"#utility.yul\":44990:44994   */\n      dup2\n        /* \"#utility.yul\":44864:44995   */\n      tag_490\n      jump\t// in\n    tag_897:\n        /* \"#utility.yul\":44856:44995   */\n      swap1\n      pop\n        /* \"#utility.yul\":44583:45002   */\n      swap2\n      swap1\n      pop\n      jump\t// out\n        /* \"#utility.yul\":45008:45177   */\n    tag_491:\n        /* \"#utility.yul\":45148:45169   */\n      0x4e6f2066756e647320746f207265636c61696d00000000000000000000000000\n        /* \"#utility.yul\":45144:45145   */\n      0x00\n        /* \"#utility.yul\":45136:45142   */\n      dup3\n        /* \"#utility.yul\":45132:45146   */\n      add\n        /* \"#utility.yul\":45125:45170   */\n      mstore\n        /* \"#utility.yul\":45008:45177   */\n      pop\n      jump\t// out\n        /* \"#utility.yul\":45183:45549   */\n    tag_492:\n        /* \"#utility.yul\":45325:45328   */\n      0x00\n        /* \"#utility.yul\":45346:45413   */\n      tag_900\n        /* \"#utility.yul\":45410:45412   */\n      0x13\n        /* \"#utility.yul\":45405:45408   */\n      dup4\n        /* \"#utility.yul\":45346:45413   */\n      tag_428\n      jump\t// in\n    tag_900:\n        /* \"#utility.yul\":45339:45413   */\n      swap2\n      pop\n        /* \"#utility.yul\":45422:45515   */\n      tag_901\n        /* \"#utility.yul\":45511:45514   */\n      dup3\n        /* \"#utility.yul\":45422:45515   */\n      tag_491\n      jump\t// in\n    tag_901:\n        /* \"#utility.yul\":45540:45542   */\n      0x20\n        /* \"#utility.yul\":45535:45538   */\n      dup3\n        /* \"#utility.yul\":45531:45543   */\n      add\n        /* \"#utility.yul\":45524:45543   */\n      swap1\n      pop\n        /* \"#utility.yul\":45183:45549   */\n      swap2\n      swap1\n      pop\n      jump\t// out\n        /* \"#utility.yul\":45555:45974   */\n    tag_299:\n        /* \"#utility.yul\":45721:45725   */\n      0x00\n        /* \"#utility.yul\":45759:45761   */\n      0x20\n        /* \"#utility.yul\":45748:45757   */\n      dup3\n        /* \"#utility.yul\":45744:45762   */\n      add\n        /* \"#utility.yul\":45736:45762   */\n      swap1\n      pop\n        /* \"#utility.yul\":45808:45817   */\n      dup2\n        /* \"#utility.yul\":45802:45806   */\n      dup2\n        /* \"#utility.yul\":45798:45818   */\n      sub\n        /* \"#utility.yul\":45794:45795   */\n      0x00\n        /* \"#utility.yul\":45783:45792   */\n      dup4\n        /* \"#utility.yul\":45779:45796   */\n      add\n        /* \"#utility.yul\":45772:45819   */\n      mstore\n        /* \"#utility.yul\":45836:45967   */\n      tag_903\n        /* \"#utility.yul\":45962:45966   */\n      dup2\n        /* \"#utility.yul\":45836:45967   */\n      tag_492\n      jump\t// in\n    tag_903:\n        /* \"#utility.yul\":45828:45967   */\n      swap1\n      pop\n        /* \"#utility.yul\":45555:45974   */\n      swap2\n      swap1\n      pop\n      jump\t// out\n        /* \"#utility.yul\":45980:46422   */\n    tag_310:\n        /* \"#utility.yul\":46129:46133   */\n      0x00\n        /* \"#utility.yul\":46167:46169   */\n      0x60\n        /* \"#utility.yul\":46156:46165   */\n      dup3\n        /* \"#utility.yul\":46152:46170   */\n      add\n        /* \"#utility.yul\":46144:46170   */\n      swap1\n      pop\n        /* \"#utility.yul\":46180:46251   */\n      tag_905\n        /* \"#utility.yul\":46248:46249   */\n      0x00\n        /* \"#utility.yul\":46237:46246   */\n      dup4\n        /* \"#utility.yul\":46233:46250   */\n      add\n        /* \"#utility.yul\":46224:46230   */\n      dup7\n        /* \"#utility.yul\":46180:46251   */\n      tag_427\n      jump\t// in\n    tag_905:\n        /* \"#utility.yul\":46261:46333   */\n      tag_906\n        /* \"#utility.yul\":46329:46331   */\n      0x20\n        /* \"#utility.yul\":46318:46327   */\n      dup4\n        /* \"#utility.yul\":46314:46332   */\n      add\n        /* \"#utility.yul\":46305:46311   */\n      dup6\n        /* \"#utility.yul\":46261:46333   */\n      tag_413\n      jump\t// in\n    tag_906:\n        /* \"#utility.yul\":46343:46415   */\n      tag_907\n        /* \"#utility.yul\":46411:46413   */\n      0x40\n        /* \"#utility.yul\":46400:46409   */\n      dup4\n        /* \"#utility.yul\":46396:46414   */\n      add\n        /* \"#utility.yul\":46387:46393   */\n      dup5\n        /* \"#utility.yul\":46343:46415   */\n      tag_427\n      jump\t// in\n    tag_907:\n        /* \"#utility.yul\":45980:46422   */\n      swap5\n      swap4\n      pop\n      pop\n      pop\n      pop\n      jump\t// out\n        /* \"#utility.yul\":46428:46610   */\n    tag_493:\n        /* \"#utility.yul\":46568:46602   */\n      0x4f776e61626c653a2063616c6c6572206973206e6f7420746865206f776e6572\n        /* \"#utility.yul\":46564:46565   */\n      0x00\n        /* \"#utility.yul\":46556:46562   */\n      dup3\n        /* \"#utility.yul\":46552:46566   */\n      add\n        /* \"#utility.yul\":46545:46603   */\n      mstore\n        /* \"#utility.yul\":46428:46610   */\n      pop\n      jump\t// out\n        /* \"#utility.yul\":46616:46982   */\n    tag_494:\n        /* \"#utility.yul\":46758:46761   */\n      0x00\n        /* \"#utility.yul\":46779:46846   */\n      tag_910\n        /* \"#utility.yul\":46843:46845   */\n      0x20\n        /* \"#utility.yul\":46838:46841   */\n      dup4\n        /* \"#utility.yul\":46779:46846   */\n      tag_428\n      jump\t// in\n    tag_910:\n        /* \"#utility.yul\":46772:46846   */\n      swap2\n      pop\n        /* \"#utility.yul\":46855:46948   */\n      tag_911\n        /* \"#utility.yul\":46944:46947   */\n      dup3\n        /* \"#utility.yul\":46855:46948   */\n      tag_493\n      jump\t// in\n    tag_911:\n        /* \"#utility.yul\":46973:46975   */\n      0x20\n        /* \"#utility.yul\":46968:46971   */\n      dup3\n        /* \"#utility.yul\":46964:46976   */\n      add\n        /* \"#utility.yul\":46957:46976   */\n      swap1\n      pop\n        /* \"#utility.yul\":46616:46982   */\n      swap2\n      swap1\n      pop\n      jump\t// out\n        /* \"#utility.yul\":46988:47407   */\n    tag_318:\n        /* \"#utility.yul\":47154:47158   */\n      0x00\n        /* \"#utility.yul\":47192:47194   */\n      0x20\n        /* \"#utility.yul\":47181:47190   */\n      dup3\n        /* \"#utility.yul\":47177:47195   */\n      add\n        /* \"#utility.yul\":47169:47195   */\n      swap1\n      pop\n        /* \"#utility.yul\":47241:47250   */\n      dup2\n        /* \"#utility.yul\":47235:47239   */\n      dup2\n        /* \"#utility.yul\":47231:47251   */\n      sub\n        /* \"#utility.yul\":47227:47228   */\n      0x00\n        /* \"#utility.yul\":47216:47225   */\n      dup4\n        /* \"#utility.yul\":47212:47229   */\n      add\n        /* \"#utility.yul\":47205:47252   */\n      mstore\n        /* \"#utility.yul\":47269:47400   */\n      tag_913\n        /* \"#utility.yul\":47395:47399   */\n      dup2\n        /* \"#utility.yul\":47269:47400   */\n      tag_494\n      jump\t// in\n    tag_913:\n        /* \"#utility.yul\":47261:47400   */\n      swap1\n      pop\n        /* \"#utility.yul\":46988:47407   */\n      swap2\n      swap1\n      pop\n      jump\t// out\n        /* \"#utility.yul\":47413:47855   */\n    tag_323:\n        /* \"#utility.yul\":47562:47566   */\n      0x00\n        /* \"#utility.yul\":47600:47602   */\n      0x60\n        /* \"#utility.yul\":47589:47598   */\n      dup3\n        /* \"#utility.yul\":47585:47603   */\n      add\n        /* \"#utility.yul\":47577:47603   */\n      swap1\n      pop\n        /* \"#utility.yul\":47613:47684   */\n      tag_915\n        /* \"#utility.yul\":47681:47682   */\n      0x00\n        /* \"#utility.yul\":47670:47679   */\n      dup4\n        /* \"#utility.yul\":47666:47683   */\n      add\n        /* \"#utility.yul\":47657:47663   */\n      dup7\n        /* \"#utility.yul\":47613:47684   */\n      tag_427\n      jump\t// in\n    tag_915:\n        /* \"#utility.yul\":47694:47766   */\n      tag_916\n        /* \"#utility.yul\":47762:47764   */\n      0x20\n        /* \"#utility.yul\":47751:47760   */\n      dup4\n        /* \"#utility.yul\":47747:47765   */\n      add\n        /* \"#utility.yul\":47738:47744   */\n      dup6\n        /* \"#utility.yul\":47694:47766   */\n      tag_427\n      jump\t// in\n    tag_916:\n        /* \"#utility.yul\":47776:47848   */\n      tag_917\n        /* \"#utility.yul\":47844:47846   */\n      0x40\n        /* \"#utility.yul\":47833:47842   */\n      dup4\n        /* \"#utility.yul\":47829:47847   */\n      add\n        /* \"#utility.yul\":47820:47826   */\n      dup5\n        /* \"#utility.yul\":47776:47848   */\n      tag_413\n      jump\t// in\n    tag_917:\n        /* \"#utility.yul\":47413:47855   */\n      swap5\n      swap4\n      pop\n      pop\n      pop\n      pop\n      jump\t// out\n        /* \"#utility.yul\":47861:48193   */\n    tag_328:\n        /* \"#utility.yul\":47982:47986   */\n      0x00\n        /* \"#utility.yul\":48020:48022   */\n      0x40\n        /* \"#utility.yul\":48009:48018   */\n      dup3\n        /* \"#utility.yul\":48005:48023   */\n      add\n        /* \"#utility.yul\":47997:48023   */\n      swap1\n      pop\n        /* \"#utility.yul\":48033:48104   */\n      tag_919\n        /* \"#utility.yul\":48101:48102   */\n      0x00\n        /* \"#utility.yul\":48090:48099   */\n      dup4\n        /* \"#utility.yul\":48086:48103   */\n      add\n        /* \"#utility.yul\":48077:48083   */\n      dup6\n        /* \"#utility.yul\":48033:48104   */\n      tag_427\n      jump\t// in\n    tag_919:\n        /* \"#utility.yul\":48114:48186   */\n      tag_920\n        /* \"#utility.yul\":48182:48184   */\n      0x20\n        /* \"#utility.yul\":48171:48180   */\n      dup4\n        /* \"#utility.yul\":48167:48185   */\n      add\n        /* \"#utility.yul\":48158:48164   */\n      dup5\n        /* \"#utility.yul\":48114:48186   */\n      tag_413\n      jump\t// in\n    tag_920:\n        /* \"#utility.yul\":47861:48193   */\n      swap4\n      swap3\n      pop\n      pop\n      pop\n      jump\t// out\n        /* \"#utility.yul\":48199:48380   */\n    tag_495:\n        /* \"#utility.yul\":48339:48372   */\n      0x5265656e7472616e637947756172643a207265656e7472616e742063616c6c00\n        /* \"#utility.yul\":48335:48336   */\n      0x00\n        /* \"#utility.yul\":48327:48333   */\n      dup3\n        /* \"#utility.yul\":48323:48337   */\n      add\n        /* \"#utility.yul\":48316:48373   */\n      mstore\n        /* \"#utility.yul\":48199:48380   */\n      pop\n      jump\t// out\n        /* \"#utility.yul\":48386:48752   */\n    tag_496:\n        /* \"#utility.yul\":48528:48531   */\n      0x00\n        /* \"#utility.yul\":48549:48616   */\n      tag_923\n        /* \"#utility.yul\":48613:48615   */\n      0x1f\n        /* \"#utility.yul\":48608:48611   */\n      dup4\n        /* \"#utility.yul\":48549:48616   */\n      tag_428\n      jump\t// in\n    tag_923:\n        /* \"#utility.yul\":48542:48616   */\n      swap2\n      pop\n        /* \"#utility.yul\":48625:48718   */\n      tag_924\n        /* \"#utility.yul\":48714:48717   */\n      dup3\n        /* \"#utility.yul\":48625:48718   */\n      tag_495\n      jump\t// in\n    tag_924:\n        /* \"#utility.yul\":48743:48745   */\n      0x20\n        /* \"#utility.yul\":48738:48741   */\n      dup3\n        /* \"#utility.yul\":48734:48746   */\n      add\n        /* \"#utility.yul\":48727:48746   */\n      swap1\n      pop\n        /* \"#utility.yul\":48386:48752   */\n      swap2\n      swap1\n      pop\n      jump\t// out\n        /* \"#utility.yul\":48758:49177   */\n    tag_332:\n        /* \"#utility.yul\":48924:48928   */\n      0x00\n        /* \"#utility.yul\":48962:48964   */\n      0x20\n        /* \"#utility.yul\":48951:48960   */\n      dup3\n        /* \"#utility.yul\":48947:48965   */\n      add\n        /* \"#utility.yul\":48939:48965   */\n      swap1\n      pop\n        /* \"#utility.yul\":49011:49020   */\n      dup2\n        /* \"#utility.yul\":49005:49009   */\n      dup2\n        /* \"#utility.yul\":49001:49021   */\n      sub\n        /* \"#utility.yul\":48997:48998   */\n      0x00\n        /* \"#utility.yul\":48986:48995   */\n      dup4\n        /* \"#utility.yul\":48982:48999   */\n      add\n        /* \"#utility.yul\":48975:49022   */\n      mstore\n        /* \"#utility.yul\":49039:49170   */\n      tag_926\n        /* \"#utility.yul\":49165:49169   */\n      dup2\n        /* \"#utility.yul\":49039:49170   */\n      tag_496\n      jump\t// in\n    tag_926:\n        /* \"#utility.yul\":49031:49170   */\n      swap1\n      pop\n        /* \"#utility.yul\":48758:49177   */\n      swap2\n      swap1\n      pop\n      jump\t// out\n        /* \"#utility.yul\":49183:49320   */\n    tag_497:\n        /* \"#utility.yul\":49237:49242   */\n      0x00\n        /* \"#utility.yul\":49268:49274   */\n      dup2\n        /* \"#utility.yul\":49262:49275   */\n      mload\n        /* \"#utility.yul\":49253:49275   */\n      swap1\n      pop\n        /* \"#utility.yul\":49284:49314   */\n      tag_928\n        /* \"#utility.yul\":49308:49313   */\n      dup2\n        /* \"#utility.yul\":49284:49314   */\n      tag_432\n      jump\t// in\n    tag_928:\n        /* \"#utility.yul\":49183:49320   */\n      swap3\n      swap2\n      pop\n      pop\n      jump\t// out\n        /* \"#utility.yul\":49326:49671   */\n    tag_340:\n        /* \"#utility.yul\":49393:49399   */\n      0x00\n        /* \"#utility.yul\":49442:49444   */\n      0x20\n        /* \"#utility.yul\":49430:49439   */\n      dup3\n        /* \"#utility.yul\":49421:49428   */\n      dup5\n        /* \"#utility.yul\":49417:49440   */\n      sub\n        /* \"#utility.yul\":49413:49445   */\n      slt\n        /* \"#utility.yul\":49410:49529   */\n      iszero\n      tag_930\n      jumpi\n        /* \"#utility.yul\":49448:49527   */\n      tag_931\n      tag_393\n      jump\t// in\n    tag_931:\n        /* \"#utility.yul\":49410:49529   */\n    tag_930:\n        /* \"#utility.yul\":49568:49569   */\n      0x00\n        /* \"#utility.yul\":49593:49654   */\n      tag_932\n        /* \"#utility.yul\":49646:49653   */\n      dup5\n        /* \"#utility.yul\":49637:49643   */\n      dup3\n        /* \"#utility.yul\":49626:49635   */\n      dup6\n        /* \"#utility.yul\":49622:49644   */\n      add\n        /* \"#utility.yul\":49593:49654   */\n      tag_497\n      jump\t// in\n    tag_932:\n        /* \"#utility.yul\":49583:49654   */\n      swap2\n      pop\n        /* \"#utility.yul\":49539:49664   */\n      pop\n        /* \"#utility.yul\":49326:49671   */\n      swap3\n      swap2\n      pop\n      pop\n      jump\t// out\n        /* \"#utility.yul\":49677:49906   */\n    tag_498:\n        /* \"#utility.yul\":49817:49851   */\n      0x5361666545524332303a204552433230206f7065726174696f6e20646964206e\n        /* \"#utility.yul\":49813:49814   */\n      0x00\n        /* \"#utility.yul\":49805:49811   */\n      dup3\n        /* \"#utility.yul\":49801:49815   */\n      add\n        /* \"#utility.yul\":49794:49852   */\n      mstore\n        /* \"#utility.yul\":49886:49898   */\n      0x6f74207375636365656400000000000000000000000000000000000000000000\n        /* \"#utility.yul\":49881:49883   */\n      0x20\n        /* \"#utility.yul\":49873:49879   */\n      dup3\n        /* \"#utility.yul\":49869:49884   */\n      add\n        /* \"#utility.yul\":49862:49899   */\n      mstore\n        /* \"#utility.yul\":49677:49906   */\n      pop\n      jump\t// out\n        /* \"#utility.yul\":49912:50278   */\n    tag_499:\n        /* \"#utility.yul\":50054:50057   */\n      0x00\n        /* \"#utility.yul\":50075:50142   */\n      tag_935\n        /* \"#utility.yul\":50139:50141   */\n      0x2a\n        /* \"#utility.yul\":50134:50137   */\n      dup4\n        /* \"#utility.yul\":50075:50142   */\n      tag_428\n      jump\t// in\n    tag_935:\n        /* \"#utility.yul\":50068:50142   */\n      swap2\n      pop\n        /* \"#utility.yul\":50151:50244   */\n      tag_936\n        /* \"#utility.yul\":50240:50243   */\n      dup3\n        /* \"#utility.yul\":50151:50244   */\n      tag_498\n      jump\t// in\n    tag_936:\n        /* \"#utility.yul\":50269:50271   */\n      0x40\n        /* \"#utility.yul\":50264:50267   */\n      dup3\n        /* \"#utility.yul\":50260:50272   */\n      add\n        /* \"#utility.yul\":50253:50272   */\n      swap1\n      pop\n        /* \"#utility.yul\":49912:50278   */\n      swap2\n      swap1\n      pop\n      jump\t// out\n        /* \"#utility.yul\":50284:50703   */\n    tag_343:\n        /* \"#utility.yul\":50450:50454   */\n      0x00\n        /* \"#utility.yul\":50488:50490   */\n      0x20\n        /* \"#utility.yul\":50477:50486   */\n      dup3\n        /* \"#utility.yul\":50473:50491   */\n      add\n        /* \"#utility.yul\":50465:50491   */\n      swap1\n      pop\n        /* \"#utility.yul\":50537:50546   */\n      dup2\n        /* \"#utility.yul\":50531:50535   */\n      dup2\n        /* \"#utility.yul\":50527:50547   */\n      sub\n        /* \"#utility.yul\":50523:50524   */\n      0x00\n        /* \"#utility.yul\":50512:50521   */\n      dup4\n        /* \"#utility.yul\":50508:50525   */\n      add\n        /* \"#utility.yul\":50501:50548   */\n      mstore\n        /* \"#utility.yul\":50565:50696   */\n      tag_938\n        /* \"#utility.yul\":50691:50695   */\n      dup2\n        /* \"#utility.yul\":50565:50696   */\n      tag_499\n      jump\t// in\n    tag_938:\n        /* \"#utility.yul\":50557:50696   */\n      swap1\n      pop\n        /* \"#utility.yul\":50284:50703   */\n      swap2\n      swap1\n      pop\n      jump\t// out\n        /* \"#utility.yul\":50709:50934   */\n    tag_500:\n        /* \"#utility.yul\":50849:50883   */\n      0x416464726573733a20696e73756666696369656e742062616c616e636520666f\n        /* \"#utility.yul\":50845:50846   */\n      0x00\n        /* \"#utility.yul\":50837:50843   */\n      dup3\n        /* \"#utility.yul\":50833:50847   */\n      add\n        /* \"#utility.yul\":50826:50884   */\n      mstore\n        /* \"#utility.yul\":50918:50926   */\n      0x722063616c6c0000000000000000000000000000000000000000000000000000\n        /* \"#utility.yul\":50913:50915   */\n      0x20\n        /* \"#utility.yul\":50905:50911   */\n      dup3\n        /* \"#utility.yul\":50901:50916   */\n      add\n        /* \"#utility.yul\":50894:50927   */\n      mstore\n        /* \"#utility.yul\":50709:50934   */\n      pop\n      jump\t// out\n        /* \"#utility.yul\":50940:51306   */\n    tag_501:\n        /* \"#utility.yul\":51082:51085   */\n      0x00\n        /* \"#utility.yul\":51103:51170   */\n      tag_941\n        /* \"#utility.yul\":51167:51169   */\n      0x26\n        /* \"#utility.yul\":51162:51165   */\n      dup4\n        /* \"#utility.yul\":51103:51170   */\n      tag_428\n      jump\t// in\n    tag_941:\n        /* \"#utility.yul\":51096:51170   */\n      swap2\n      pop\n        /* \"#utility.yul\":51179:51272   */\n      tag_942\n        /* \"#utility.yul\":51268:51271   */\n      dup3\n        /* \"#utility.yul\":51179:51272   */\n      tag_500\n      jump\t// in\n    tag_942:\n        /* \"#utility.yul\":51297:51299   */\n      0x40\n        /* \"#utility.yul\":51292:51295   */\n      dup3\n        /* \"#utility.yul\":51288:51300   */\n      add\n        /* \"#utility.yul\":51281:51300   */\n      swap1\n      pop\n        /* \"#utility.yul\":50940:51306   */\n      swap2\n      swap1\n      pop\n      jump\t// out\n        /* \"#utility.yul\":51312:51731   */\n    tag_350:\n        /* \"#utility.yul\":51478:51482   */\n      0x00\n        /* \"#utility.yul\":51516:51518   */\n      0x20\n        /* \"#utility.yul\":51505:51514   */\n      dup3\n        /* \"#utility.yul\":51501:51519   */\n      add\n        /* \"#utility.yul\":51493:51519   */\n      swap1\n      pop\n        /* \"#utility.yul\":51565:51574   */\n      dup2\n        /* \"#utility.yul\":51559:51563   */\n      dup2\n        /* \"#utility.yul\":51555:51575   */\n      sub\n        /* \"#utility.yul\":51551:51552   */\n      0x00\n        /* \"#utility.yul\":51540:51549   */\n      dup4\n        /* \"#utility.yul\":51536:51553   */\n      add\n        /* \"#utility.yul\":51529:51576   */\n      mstore\n        /* \"#utility.yul\":51593:51724   */\n      tag_944\n        /* \"#utility.yul\":51719:51723   */\n      dup2\n        /* \"#utility.yul\":51593:51724   */\n      tag_501\n      jump\t// in\n    tag_944:\n        /* \"#utility.yul\":51585:51724   */\n      swap1\n      pop\n        /* \"#utility.yul\":51312:51731   */\n      swap2\n      swap1\n      pop\n      jump\t// out\n        /* \"#utility.yul\":51737:51835   */\n    tag_502:\n        /* \"#utility.yul\":51788:51794   */\n      0x00\n        /* \"#utility.yul\":51822:51827   */\n      dup2\n        /* \"#utility.yul\":51816:51828   */\n      mload\n        /* \"#utility.yul\":51806:51828   */\n      swap1\n      pop\n        /* \"#utility.yul\":51737:51835   */\n      swap2\n      swap1\n      pop\n      jump\t// out\n        /* \"#utility.yul\":51841:52227   */\n    tag_503:\n        /* \"#utility.yul\":51945:51948   */\n      0x00\n        /* \"#utility.yul\":51973:52011   */\n      tag_947\n        /* \"#utility.yul\":52005:52010   */\n      dup3\n        /* \"#utility.yul\":51973:52011   */\n      tag_502\n      jump\t// in\n    tag_947:\n        /* \"#utility.yul\":52027:52115   */\n      tag_948\n        /* \"#utility.yul\":52108:52114   */\n      dup2\n        /* \"#utility.yul\":52103:52106   */\n      dup6\n        /* \"#utility.yul\":52027:52115   */\n      tag_468\n      jump\t// in\n    tag_948:\n        /* \"#utility.yul\":52020:52115   */\n      swap4\n      pop\n        /* \"#utility.yul\":52124:52189   */\n      tag_949\n        /* \"#utility.yul\":52182:52188   */\n      dup2\n        /* \"#utility.yul\":52177:52180   */\n      dup6\n        /* \"#utility.yul\":52170:52174   */\n      0x20\n        /* \"#utility.yul\":52163:52168   */\n      dup7\n        /* \"#utility.yul\":52159:52175   */\n      add\n        /* \"#utility.yul\":52124:52189   */\n      tag_403\n      jump\t// in\n    tag_949:\n        /* \"#utility.yul\":52214:52220   */\n      dup1\n        /* \"#utility.yul\":52209:52212   */\n      dup5\n        /* \"#utility.yul\":52205:52221   */\n      add\n        /* \"#utility.yul\":52198:52221   */\n      swap2\n      pop\n        /* \"#utility.yul\":51949:52227   */\n      pop\n        /* \"#utility.yul\":51841:52227   */\n      swap3\n      swap2\n      pop\n      pop\n      jump\t// out\n        /* \"#utility.yul\":52233:52504   */\n    tag_352:\n        /* \"#utility.yul\":52363:52366   */\n      0x00\n        /* \"#utility.yul\":52385:52478   */\n      tag_951\n        /* \"#utility.yul\":52474:52477   */\n      dup3\n        /* \"#utility.yul\":52465:52471   */\n      dup5\n        /* \"#utility.yul\":52385:52478   */\n      tag_503\n      jump\t// in\n    tag_951:\n        /* \"#utility.yul\":52378:52478   */\n      swap2\n      pop\n        /* \"#utility.yul\":52495:52498   */\n      dup2\n        /* \"#utility.yul\":52488:52498   */\n      swap1\n      pop\n        /* \"#utility.yul\":52233:52504   */\n      swap3\n      swap2\n      pop\n      pop\n      jump\t// out\n        /* \"#utility.yul\":52510:52689   */\n    tag_504:\n        /* \"#utility.yul\":52650:52681   */\n      0x416464726573733a2063616c6c20746f206e6f6e2d636f6e7472616374000000\n        /* \"#utility.yul\":52646:52647   */\n      0x00\n        /* \"#utility.yul\":52638:52644   */\n      dup3\n        /* \"#utility.yul\":52634:52648   */\n      add\n        /* \"#utility.yul\":52627:52682   */\n      mstore\n        /* \"#utility.yul\":52510:52689   */\n      pop\n      jump\t// out\n        /* \"#utility.yul\":52695:53061   */\n    tag_505:\n        /* \"#utility.yul\":52837:52840   */\n      0x00\n        /* \"#utility.yul\":52858:52925   */\n      tag_954\n        /* \"#utility.yul\":52922:52924   */\n      0x1d\n        /* \"#utility.yul\":52917:52920   */\n      dup4\n        /* \"#utility.yul\":52858:52925   */\n      tag_428\n      jump\t// in\n    tag_954:\n        /* \"#utility.yul\":52851:52925   */\n      swap2\n      pop\n        /* \"#utility.yul\":52934:53027   */\n      tag_955\n        /* \"#utility.yul\":53023:53026   */\n      dup3\n        /* \"#utility.yul\":52934:53027   */\n      tag_504\n      jump\t// in\n    tag_955:\n        /* \"#utility.yul\":53052:53054   */\n      0x20\n        /* \"#utility.yul\":53047:53050   */\n      dup3\n        /* \"#utility.yul\":53043:53055   */\n      add\n        /* \"#utility.yul\":53036:53055   */\n      swap1\n      pop\n        /* \"#utility.yul\":52695:53061   */\n      swap2\n      swap1\n      pop\n      jump\t// out\n        /* \"#utility.yul\":53067:53486   */\n    tag_365:\n        /* \"#utility.yul\":53233:53237   */\n      0x00\n        /* \"#utility.yul\":53271:53273   */\n      0x20\n        /* \"#utility.yul\":53260:53269   */\n      dup3\n        /* \"#utility.yul\":53256:53274   */\n      add\n        /* \"#utility.yul\":53248:53274   */\n      swap1\n      pop\n        /* \"#utility.yul\":53320:53329   */\n      dup2\n        /* \"#utility.yul\":53314:53318   */\n      dup2\n        /* \"#utility.yul\":53310:53330   */\n      sub\n        /* \"#utility.yul\":53306:53307   */\n      0x00\n        /* \"#utility.yul\":53295:53304   */\n      dup4\n        /* \"#utility.yul\":53291:53308   */\n      add\n        /* \"#utility.yul\":53284:53331   */\n      mstore\n        /* \"#utility.yul\":53348:53479   */\n      tag_957\n        /* \"#utility.yul\":53474:53478   */\n      dup2\n        /* \"#utility.yul\":53348:53479   */\n      tag_505\n      jump\t// in\n    tag_957:\n        /* \"#utility.yul\":53340:53479   */\n      swap1\n      pop\n        /* \"#utility.yul\":53067:53486   */\n      swap2\n      swap1\n      pop\n      jump\t// out\n        /* \"#utility.yul\":53492:53805   */\n    tag_374:\n        /* \"#utility.yul\":53605:53609   */\n      0x00\n        /* \"#utility.yul\":53643:53645   */\n      0x20\n        /* \"#utility.yul\":53632:53641   */\n      dup3\n        /* \"#utility.yul\":53628:53646   */\n      add\n        /* \"#utility.yul\":53620:53646   */\n      swap1\n      pop\n        /* \"#utility.yul\":53692:53701   */\n      dup2\n        /* \"#utility.yul\":53686:53690   */\n      dup2\n        /* \"#utility.yul\":53682:53702   */\n      sub\n        /* \"#utility.yul\":53678:53679   */\n      0x00\n        /* \"#utility.yul\":53667:53676   */\n      dup4\n        /* \"#utility.yul\":53663:53680   */\n      add\n        /* \"#utility.yul\":53656:53703   */\n      mstore\n        /* \"#utility.yul\":53720:53798   */\n      tag_959\n        /* \"#utility.yul\":53793:53797   */\n      dup2\n        /* \"#utility.yul\":53784:53790   */\n      dup5\n        /* \"#utility.yul\":53720:53798   */\n      tag_429\n      jump\t// in\n    tag_959:\n        /* \"#utility.yul\":53712:53798   */\n      swap1\n      pop\n        /* \"#utility.yul\":53492:53805   */\n      swap3\n      swap2\n      pop\n      pop\n      jump\t// out\n\n    auxdata: 0xa26469706673582212209ae50d77cbf281c3234e391552d773e4c84e60458df18223bbd2839790f7811464736f6c634300081e0033\n}\n",
				"bytecode": {
					"linkReferences": {},
					"object": "608060405234801561000f575f5ffd5b50604051613e8e380380613e8e833981810160405281019061003191906101d5565b61004d6100426100af60201b60201c565b6100b660201b60201c565b60018081905550600160035f5f73ffffffffffffffffffffffffffffffffffffffff1673ffffffffffffffffffffffffffffffffffffffff1681526020019081526020015f205f6101000a81548160ff02191690831515021790555050610200565b5f33905090565b5f5f5f9054906101000a900473ffffffffffffffffffffffffffffffffffffffff169050815f5f6101000a81548173ffffffffffffffffffffffffffffffffffffffff021916908373ffffffffffffffffffffffffffffffffffffffff1602179055508173ffffffffffffffffffffffffffffffffffffffff168173ffffffffffffffffffffffffffffffffffffffff167f8be0079c531659141344cd1fd0a4f28419497f9722a3daafe3b4186f6b6457e060405160405180910390a35050565b5f5ffd5b5f73ffffffffffffffffffffffffffffffffffffffff82169050919050565b5f6101a48261017b565b9050919050565b6101b48161019a565b81146101be575f5ffd5b50565b5f815190506101cf816101ab565b92915050565b5f602082840312156101ea576101e9610177565b5b5f6101f7848285016101c1565b91505092915050565b613c818061020d5f395ff3fe608060405260043610610113575f3560e01c80639b46c8011161009f578063d613fd2411610063578063d613fd2414610386578063daf9c210146103cd578063f247918614610409578063f2fde38b14610431578063f9f161a81461045957610113565b80639b46c8011461029f578063a734f06e146102e0578063ba71b3301461030a578063c9bcc97e14610334578063ced72f871461035c57610113565b8063715018a6116100e6578063715018a6146101f35780637d30b6631461020957806389001eb1146102255780638da5cb5b1461024d57806395ccea671461027757610113565b80631fbbaae8146101175780633ccaca8e1461015357806343ab265f1461018f57806369fe0e2d146101cb575b5f5ffd5b348015610122575f5ffd5b5061013d60048036038101906101389190612298565b610481565b60405161014a91906123ee565b60405180910390f35b34801561015e575f5ffd5b5061017960048036038101906101749190612298565b610569565b60405161018691906123ee565b60405180910390f35b34801561019a575f5ffd5b506101b560048036038101906101b09190612468565b610651565b6040516101c291906124a2565b60405180910390f35b3480156101d6575f5ffd5b506101f160048036038101906101ec9190612298565b61070d565b005b3480156101fe575f5ffd5b50610207610756565b005b610223600480360381019061021e91906126c9565b610769565b005b348015610230575f5ffd5b5061024b6004803603810190610246919061282e565b610c64565b005b348015610258575f5ffd5b50610261610e31565b60405161026e91906128b4565b60405180910390f35b348015610282575f5ffd5b5061029d600480360381019061029891906128cd565b610e58565b005b3480156102aa575f5ffd5b506102c560048036038101906102c09190612298565b610f7f565b6040516102d79695949392919061296d565b60405180910390f35b3480156102eb575f5ffd5b506102f46110c1565b60405161030191906128b4565b60405180910390f35b348015610315575f5ffd5b5061031e6110c5565b60405161032b91906124a2565b60405180910390f35b34801561033f575f5ffd5b5061035a600480360381019061035591906129fd565b6110cb565b005b348015610367575f5ffd5b50610370611164565b60405161037d91906124a2565b60405180910390f35b348015610391575f5ffd5b506103ac60048036038101906103a79190612298565b61116d565b6040516103c49c9b9a99989796959493929190612a3b565b60405180910390f35b3480156103d8575f5ffd5b506103f360048036038101906103ee9190612468565b6113d2565b6040516104009190612b08565b60405180910390f35b348015610414575f5ffd5b5061042f600480360381019061042a9190612b21565b6113ef565b005b34801561043c575f5ffd5b5061045760048036038101906104529190612468565b6117eb565b005b348015610464575f5ffd5b5061047f600480360381019061047a9190612298565b61186d565b005b606060025f8381526020019081526020015f20600201805480602002602001604051908101604052809291908181526020015f905b8282101561055e578382905f5260205f200180546104d390612bce565b80601f01602080910402602001604051908101604052809291908181526020018280546104ff90612bce565b801561054a5780601f106105215761010080835404028352916020019161054a565b820191905f5260205f20905b81548152906001019060200180831161052d57829003601f168201915b5050505050815260200190600101906104b6565b505050509050919050565b606060025f8381526020019081526020015f20600801805480602002602001604051908101604052809291908181526020015f905b82821015610646578382905f5260205f200180546105bb90612bce565b80601f01602080910402602001604051908101604052809291908181526020018280546105e790612bce565b80156106325780601f1061060957610100808354040283529160200191610632565b820191905f5260205f20905b81548152906001019060200180831161061557829003601f168201915b50505050508152602001906001019061059e565b505050509050919050565b5f5f73ffffffffffffffffffffffffffffffffffffffff168273ffffffffffffffffffffffffffffffffffffffff160361068d57479050610708565b8173ffffffffffffffffffffffffffffffffffffffff166370a08231306040518263ffffffff1660e01b81526004016106c691906128b4565b602060405180830381865afa1580156106e1573d5f5f3e3d5ffd5b505050506040513d601f19601f820116820180604052508101906107059190612c12565b90505b919050565b610715611c4a565b806005819055507f8c4d35e54a3f2ef1134138fd8ea3daee6a3c89e10d2665996babdf70261e2c768160405161074b91906124a2565b60405180910390a150565b61075e611c4a565b6107675f611cc8565b565b60035f8273ffffffffffffffffffffffffffffffffffffffff1673ffffffffffffffffffffffffffffffffffffffff1681526020019081526020015f205f9054906101000a900460ff166107f2576040517f08c379a00000000000000000000000000000000000000000000000000000000081526004016107e990612c87565b60405180910390fd5b858710610834576040517f08c379a000000000000000000000000000000000000000000000000000000000815260040161082b90612d15565b60405180910390fd5b5f8911610876576040517f08c379a000000000000000000000000000000000000000000000000000000000815260040161086d90612d7d565b60405180910390fd5b5f60045490505f73ffffffffffffffffffffffffffffffffffffffff168273ffffffffffffffffffffffffffffffffffffffff16036108f6578934146108f1576040517f08c379a00000000000000000000000000000000000000000000000000000000081526004016108e890612e0b565b60405180910390fd5b610966565b5f3414610938576040517f08c379a000000000000000000000000000000000000000000000000000000000815260040161092f90612e99565b60405180910390fd5b61096533308c8573ffffffffffffffffffffffffffffffffffffffff16611d89909392919063ffffffff16565b5b604051806101c001604052808281526020018c81526020018a81526020018b81526020018981526020018881526020018681526020018581526020018481526020013373ffffffffffffffffffffffffffffffffffffffff1681526020018773ffffffffffffffffffffffffffffffffffffffff1681526020015f151581526020015f151581526020018373ffffffffffffffffffffffffffffffffffffffff1681525060025f8381526020019081526020015f205f820151815f01556020820151816001019081610a389190613057565b506040820151816002019080519060200190610a55929190612182565b50606082015181600301556080820151816004015560a0820151816005015560c0820151816006019081610a899190613057565b5060e0820151816007019081610a9f9190613057565b50610100820151816008019080519060200190610abd929190612182565b50610120820151816009015f6101000a81548173ffffffffffffffffffffffffffffffffffffffff021916908373ffffffffffffffffffffffffffffffffffffffff16021790555061014082015181600a015f6101000a81548173ffffffffffffffffffffffffffffffffffffffff021916908373ffffffffffffffffffffffffffffffffffffffff16021790555061016082015181600a0160146101000a81548160ff02191690831515021790555061018082015181600a0160156101000a81548160ff0219169083151502179055506101a082015181600b015f6101000a81548173ffffffffffffffffffffffffffffffffffffffff021916908373ffffffffffffffffffffffffffffffffffffffff16021790555090505060045f815480929190610bea90613153565b91905055508573ffffffffffffffffffffffffffffffffffffffff163373ffffffffffffffffffffffffffffffffffffffff16827fdd511ba7adfc2d92b666c725a9d6073b35763fe9017f7b3c0c75767e25b0f2cc8d86604051610c4f92919061319a565b60405180910390a45050505050505050505050565b5f60025f8781526020019081526020015f209050806009015f9054906101000a900473ffffffffffffffffffffffffffffffffffffffff1673ffffffffffffffffffffffffffffffffffffffff163373ffffffffffffffffffffffffffffffffffffffff1614610d09576040517f08c379a0000000000000000000000000000000000000000000000000000000008152600401610d009061320b565b60405180910390fd5b828410610d4b576040517f08c379a0000000000000000000000000000000000000000000000000000000008152600401610d4290613273565b60405180910390fd5b5f8511610d8d576040517f08c379a0000000000000000000000000000000000000000000000000000000008152600401610d84906132db565b60405180910390fd5b8481600301819055508381600401819055508281600501819055508181600a015f6101000a81548173ffffffffffffffffffffffffffffffffffffffff021916908373ffffffffffffffffffffffffffffffffffffffff1602179055507fe3d59d03839a10c8a5a85dd0d7e5a4ac45445821c5176529d2745adf6915a1618686868686604051610e219594939291906132f9565b60405180910390a1505050505050565b5f5f5f9054906101000a900473ffffffffffffffffffffffffffffffffffffffff16905090565b610e60611c4a565b5f73ffffffffffffffffffffffffffffffffffffffff168273ffffffffffffffffffffffffffffffffffffffff1603610f48575f610e9c610e31565b73ffffffffffffffffffffffffffffffffffffffff1682604051610ebf90613377565b5f6040518083038185875af1925050503d805f8114610ef9576040519150601f19603f3d011682016040523d82523d5f602084013e610efe565b606091505b5050905080610f42576040517f08c379a0000000000000000000000000000000000000000000000000000000008152600401610f39906133d5565b60405180910390fd5b50610f7b565b610f7a610f53610e31565b828473ffffffffffffffffffffffffffffffffffffffff16611e129092919063ffffffff16565b5b5050565b60605f5f5f5f5f5f60025f8981526020019081526020015f209050806001018160030154826009015f9054906101000a900473ffffffffffffffffffffffffffffffffffffffff1683600a015f9054906101000a900473ffffffffffffffffffffffffffffffffffffffff1684600b015f9054906101000a900473ffffffffffffffffffffffffffffffffffffffff1685600a0160159054906101000a900460ff1685805461102d90612bce565b80601f016020809104026020016040519081016040528092919081815260200182805461105990612bce565b80156110a45780601f1061107b576101008083540402835291602001916110a4565b820191905f5260205f20905b81548152906001019060200180831161108757829003601f168201915b505050505095509650965096509650965096505091939550919395565b5f81565b60045481565b6110d3611c4a565b8060035f8473ffffffffffffffffffffffffffffffffffffffff1673ffffffffffffffffffffffffffffffffffffffff1681526020019081526020015f205f6101000a81548160ff0219169083151502179055507fef81a9943b96c8df4ef243401c9bf5159146166211356898b52d382086168d9282826040516111589291906133f3565b60405180910390a15050565b5f600554905090565b6002602052805f5260405f205f91509050805f01549080600101805461119290612bce565b80601f01602080910402602001604051908101604052809291908181526020018280546111be90612bce565b80156112095780601f106111e057610100808354040283529160200191611209565b820191905f5260205f20905b8154815290600101906020018083116111ec57829003601f168201915b50505050509080600301549080600401549080600501549080600601805461123090612bce565b80601f016020809104026020016040519081016040528092919081815260200182805461125c90612bce565b80156112a75780601f1061127e576101008083540402835291602001916112a7565b820191905f5260205f20905b81548152906001019060200180831161128a57829003601f168201915b5050505050908060070180546112bc90612bce565b80601f01602080910402602001604051908101604052809291908181526020018280546112e890612bce565b80156113335780601f1061130a57610100808354040283529160200191611333565b820191905f5260205f20905b81548152906001019060200180831161131657829003601f168201915b505050505090806009015f9054906101000a900473ffffffffffffffffffffffffffffffffffffffff169080600a015f9054906101000a900473ffffffffffffffffffffffffffffffffffffffff169080600a0160149054906101000a900460ff169080600a0160159054906101000a900460ff169080600b015f9054906101000a900473ffffffffffffffffffffffffffffffffffffffff1690508c565b6003602052805f5260405f205f915054906101000a900460ff1681565b6113f7611e98565b5f60025f8681526020019081526020015f20905080600a015f9054906101000a900473ffffffffffffffffffffffffffffffffffffffff1673ffffffffffffffffffffffffffffffffffffffff163373ffffffffffffffffffffffffffffffffffffffff161461149c576040517f08c379a000000000000000000000000000000000000000000000000000000000815260040161149390613464565b60405180910390fd5b80600301548211156114e3576040517f08c379a00000000000000000000000000000000000000000000000000000000081526004016114da906134cc565b60405180910390fd5b5f73ffffffffffffffffffffffffffffffffffffffff1681600b015f9054906101000a900473ffffffffffffffffffffffffffffffffffffffff1673ffffffffffffffffffffffffffffffffffffffff160361162a578147101561157c576040517f08c379a00000000000000000000000000000000000000000000000000000000081526004016115739061355a565b60405180910390fd5b5f8373ffffffffffffffffffffffffffffffffffffffff16836040516115a190613377565b5f6040518083038185875af1925050503d805f81146115db576040519150601f19603f3d011682016040523d82523d5f602084013e6115e0565b606091505b5050905080611624576040517f08c379a000000000000000000000000000000000000000000000000000000000815260040161161b906133d5565b60405180910390fd5b50611738565b5f81600b015f9054906101000a900473ffffffffffffffffffffffffffffffffffffffff169050828173ffffffffffffffffffffffffffffffffffffffff166370a08231306040518263ffffffff1660e01b815260040161168b91906128b4565b602060405180830381865afa1580156116a6573d5f5f3e3d5ffd5b505050506040513d601f19601f820116820180604052508101906116ca9190612c12565b101561170b576040517f08c379a0000000000000000000000000000000000000000000000000000000008152600401611702906135e8565b60405180910390fd5b61173684848373ffffffffffffffffffffffffffffffffffffffff16611e129092919063ffffffff16565b505b81816003015f82825461174b9190613606565b925050819055508273ffffffffffffffffffffffffffffffffffffffff16846040516117779190613673565b6040518091039020867f555b83c563488d2669fdf07d7a266edb2edd33c3ea9aa61761f5b5365ca698848585600b015f9054906101000a900473ffffffffffffffffffffffffffffffffffffffff166040516117d492919061319a565b60405180910390a4506117e5611ee7565b50505050565b6117f3611c4a565b5f73ffffffffffffffffffffffffffffffffffffffff168173ffffffffffffffffffffffffffffffffffffffff1603611861576040517f08c379a0000000000000000000000000000000000000000000000000000000008152600401611858906136f9565b60405180910390fd5b61186a81611cc8565b50565b611875611e98565b5f60025f8381526020019081526020015f209050806005015442116118cf576040517f08c379a00000000000000000000000000000000000000000000000000000000081526004016118c690613761565b60405180910390fd5b806009015f9054906101000a900473ffffffffffffffffffffffffffffffffffffffff1673ffffffffffffffffffffffffffffffffffffffff163373ffffffffffffffffffffffffffffffffffffffff1614611960576040517f08c379a0000000000000000000000000000000000000000000000000000000008152600401611957906137c9565b60405180910390fd5b80600a0160159054906101000a900460ff16156119b2576040517f08c379a00000000000000000000000000000000000000000000000000000000081526004016119a990613831565b60405180910390fd5b5f816003015490505f81116119fc576040517f08c379a00000000000000000000000000000000000000000000000000000000081526004016119f390613899565b60405180910390fd5b600182600a0160156101000a81548160ff0219169083151502179055505f82600301819055505f73ffffffffffffffffffffffffffffffffffffffff1682600b015f9054906101000a900473ffffffffffffffffffffffffffffffffffffffff1673ffffffffffffffffffffffffffffffffffffffff1603611b49575f826009015f9054906101000a900473ffffffffffffffffffffffffffffffffffffffff1673ffffffffffffffffffffffffffffffffffffffff1682604051611ac090613377565b5f6040518083038185875af1925050503d805f8114611afa576040519150601f19603f3d011682016040523d82523d5f602084013e611aff565b606091505b5050905080611b43576040517f08c379a0000000000000000000000000000000000000000000000000000000008152600401611b3a906133d5565b60405180910390fd5b50611bbb565b611bba826009015f9054906101000a900473ffffffffffffffffffffffffffffffffffffffff168284600b015f9054906101000a900473ffffffffffffffffffffffffffffffffffffffff1673ffffffffffffffffffffffffffffffffffffffff16611e129092919063ffffffff16565b5b827fdf220afda5d5d16927c8d84713af8457f72e8bd4af288509a77c48754f4acd90836009015f9054906101000a900473ffffffffffffffffffffffffffffffffffffffff168385600b015f9054906101000a900473ffffffffffffffffffffffffffffffffffffffff16604051611c35939291906138b7565b60405180910390a25050611c47611ee7565b50565b611c52611ef0565b73ffffffffffffffffffffffffffffffffffffffff16611c70610e31565b73ffffffffffffffffffffffffffffffffffffffff1614611cc6576040517f08c379a0000000000000000000000000000000000000000000000000000000008152600401611cbd90613936565b60405180910390fd5b565b5f5f5f9054906101000a900473ffffffffffffffffffffffffffffffffffffffff169050815f5f6101000a81548173ffffffffffffffffffffffffffffffffffffffff021916908373ffffffffffffffffffffffffffffffffffffffff1602179055508173ffffffffffffffffffffffffffffffffffffffff168173ffffffffffffffffffffffffffffffffffffffff167f8be0079c531659141344cd1fd0a4f28419497f9722a3daafe3b4186f6b6457e060405160405180910390a35050565b611e0c846323b872dd60e01b858585604051602401611daa93929190613954565b604051602081830303815290604052907bffffffffffffffffffffffffffffffffffffffffffffffffffffffff19166020820180517bffffffffffffffffffffffffffffffffffffffffffffffffffffffff8381831617835250505050611ef7565b50505050565b611e938363a9059cbb60e01b8484604051602401611e31929190613989565b604051602081830303815290604052907bffffffffffffffffffffffffffffffffffffffffffffffffffffffff19166020820180517bffffffffffffffffffffffffffffffffffffffffffffffffffffffff8381831617835250505050611ef7565b505050565b600260015403611edd576040517f08c379a0000000000000000000000000000000000000000000000000000000008152600401611ed4906139fa565b60405180910390fd5b6002600181905550565b60018081905550565b5f33905090565b5f611f58826040518060400160405280602081526020017f5361666545524332303a206c6f772d6c6576656c2063616c6c206661696c65648152508573ffffffffffffffffffffffffffffffffffffffff16611fbd9092919063ffffffff16565b90505f81511480611f79575080806020019051810190611f789190613a2c565b5b611fb8576040517f08c379a0000000000000000000000000000000000000000000000000000000008152600401611faf90613ac7565b60405180910390fd5b505050565b6060611fcb84845f85611fd4565b90509392505050565b606082471015612019576040517f08c379a000000000000000000000000000000000000000000000000000000000815260040161201090613b55565b60405180910390fd5b5f5f8673ffffffffffffffffffffffffffffffffffffffff1685876040516120419190613bad565b5f6040518083038185875af1925050503d805f811461207b576040519150601f19603f3d011682016040523d82523d5f602084013e612080565b606091505b50915091506120918783838761209d565b92505050949350505050565b606083156120fe575f8351036120f6576120b685612111565b6120f5576040517f08c379a00000000000000000000000000000000000000000000000000000000081526004016120ec90613c0d565b60405180910390fd5b5b829050612109565b6121088383612133565b5b949350505050565b5f5f8273ffffffffffffffffffffffffffffffffffffffff163b119050919050565b5f825111156121455781518083602001fd5b806040517f08c379a00000000000000000000000000000000000000000000000000000000081526004016121799190613c2b565b60405180910390fd5b828054828255905f5260205f209081019282156121c8579160200282015b828111156121c75782518290816121b79190613057565b50916020019190600101906121a0565b5b5090506121d591906121d9565b5090565b5b808211156121f8575f81816121ef91906121fc565b506001016121da565b5090565b50805461220890612bce565b5f825580601f106122195750612236565b601f0160209004905f5260205f20908101906122359190612239565b5b50565b5b80821115612250575f815f90555060010161223a565b5090565b5f604051905090565b5f5ffd5b5f5ffd5b5f819050919050565b61227781612265565b8114612281575f5ffd5b50565b5f813590506122928161226e565b92915050565b5f602082840312156122ad576122ac61225d565b5b5f6122ba84828501612284565b91505092915050565b5f81519050919050565b5f82825260208201905092915050565b5f819050602082019050919050565b5f81519050919050565b5f82825260208201905092915050565b8281835e5f83830152505050565b5f601f19601f8301169050919050565b5f61232e826122ec565b61233881856122f6565b9350612348818560208601612306565b61235181612314565b840191505092915050565b5f6123678383612324565b905092915050565b5f602082019050919050565b5f612385826122c3565b61238f81856122cd565b9350836020820285016123a1856122dd565b805f5b858110156123dc57848403895281516123bd858261235c565b94506123c88361236f565b925060208a019950506001810190506123a4565b50829750879550505050505092915050565b5f6020820190508181035f830152612406818461237b565b905092915050565b5f73ffffffffffffffffffffffffffffffffffffffff82169050919050565b5f6124378261240e565b9050919050565b6124478161242d565b8114612451575f5ffd5b50565b5f813590506124628161243e565b92915050565b5f6020828403121561247d5761247c61225d565b5b5f61248a84828501612454565b91505092915050565b61249c81612265565b82525050565b5f6020820190506124b55f830184612493565b92915050565b5f5ffd5b5f5ffd5b7f4e487b71000000000000000000000000000000000000000000000000000000005f52604160045260245ffd5b6124f982612314565b810181811067ffffffffffffffff82111715612518576125176124c3565b5b80604052505050565b5f61252a612254565b905061253682826124f0565b919050565b5f67ffffffffffffffff821115612555576125546124c3565b5b61255e82612314565b9050602081019050919050565b828183375f83830152505050565b5f61258b6125868461253b565b612521565b9050828152602081018484840111156125a7576125a66124bf565b5b6125b284828561256b565b509392505050565b5f82601f8301126125ce576125cd6124bb565b5b81356125de848260208601612579565b91505092915050565b5f67ffffffffffffffff821115612601576126006124c3565b5b602082029050602081019050919050565b5f5ffd5b5f612628612623846125e7565b612521565b9050808382526020820190506020840283018581111561264b5761264a612612565b5b835b8181101561269257803567ffffffffffffffff8111156126705761266f6124bb565b5b80860161267d89826125ba565b8552602085019450505060208101905061264d565b5050509392505050565b5f82601f8301126126b0576126af6124bb565b5b81356126c0848260208601612616565b91505092915050565b5f5f5f5f5f5f5f5f5f5f6101408b8d0312156126e8576126e761225d565b5b5f8b013567ffffffffffffffff81111561270557612704612261565b5b6127118d828e016125ba565b9a505060206127228d828e01612284565b99505060408b013567ffffffffffffffff81111561274357612742612261565b5b61274f8d828e0161269c565b98505060606127608d828e01612284565b97505060806127718d828e01612284565b96505060a06127828d828e01612454565b95505060c08b013567ffffffffffffffff8111156127a3576127a2612261565b5b6127af8d828e016125ba565b94505060e08b013567ffffffffffffffff8111156127d0576127cf612261565b5b6127dc8d828e016125ba565b9350506101008b013567ffffffffffffffff8111156127fe576127fd612261565b5b61280a8d828e0161269c565b92505061012061281c8d828e01612454565b9150509295989b9194979a5092959850565b5f5f5f5f5f60a086880312156128475761284661225d565b5b5f61285488828901612284565b955050602061286588828901612284565b945050604061287688828901612284565b935050606061288788828901612284565b925050608061289888828901612454565b9150509295509295909350565b6128ae8161242d565b82525050565b5f6020820190506128c75f8301846128a5565b92915050565b5f5f604083850312156128e3576128e261225d565b5b5f6128f085828601612454565b925050602061290185828601612284565b9150509250929050565b5f82825260208201905092915050565b5f612925826122ec565b61292f818561290b565b935061293f818560208601612306565b61294881612314565b840191505092915050565b5f8115159050919050565b61296781612953565b82525050565b5f60c0820190508181035f830152612985818961291b565b90506129946020830188612493565b6129a160408301876128a5565b6129ae60608301866128a5565b6129bb60808301856128a5565b6129c860a083018461295e565b979650505050505050565b6129dc81612953565b81146129e6575f5ffd5b50565b5f813590506129f7816129d3565b92915050565b5f5f60408385031215612a1357612a1261225d565b5b5f612a2085828601612454565b9250506020612a31858286016129e9565b9150509250929050565b5f61018082019050612a4f5f83018f612493565b8181036020830152612a61818e61291b565b9050612a70604083018d612493565b612a7d606083018c612493565b612a8a608083018b612493565b81810360a0830152612a9c818a61291b565b905081810360c0830152612ab0818961291b565b9050612abf60e08301886128a5565b612acd6101008301876128a5565b612adb61012083018661295e565b612ae961014083018561295e565b612af76101608301846128a5565b9d9c50505050505050505050505050565b5f602082019050612b1b5f83018461295e565b92915050565b5f5f5f5f60808587031215612b3957612b3861225d565b5b5f612b4687828801612284565b945050602085013567ffffffffffffffff811115612b6757612b66612261565b5b612b73878288016125ba565b9350506040612b8487828801612454565b9250506060612b9587828801612284565b91505092959194509250565b7f4e487b71000000000000000000000000000000000000000000000000000000005f52602260045260245ffd5b5f6002820490506001821680612be557607f821691505b602082108103612bf857612bf7612ba1565b5b50919050565b5f81519050612c0c8161226e565b92915050565b5f60208284031215612c2757612c2661225d565b5b5f612c3484828501612bfe565b91505092915050565b7f546f6b656e206e6f742077686974656c697374656400000000000000000000005f82015250565b5f612c7160158361290b565b9150612c7c82612c3d565b602082019050919050565b5f6020820190508181035f830152612c9e81612c65565b9050919050565b7f5468652053746172742074696d65206d757374206265206561726c69657220745f8201527f68616e2074686520656e642074696d652e000000000000000000000000000000602082015250565b5f612cff60318361290b565b9150612d0a82612ca5565b604082019050919050565b5f6020820190508181035f830152612d2c81612cf3565b9050919050565b7f5072696365206d7573742062652067726561746572207468616e2030000000005f82015250565b5f612d67601c8361290b565b9150612d7282612d33565b602082019050919050565b5f6020820190508181035f830152612d9481612d5b565b9050919050565b7f546865204554482073656e7420646f6573206e6f74206d6174636820746865205f8201527f70726f6772616d20707269636500000000000000000000000000000000000000602082015250565b5f612df5602d8361290b565b9150612e0082612d9b565b604082019050919050565b5f6020820190508181035f830152612e2281612de9565b9050919050565b7f53686f756c64206e6f742073656e6420455448207768656e20706179696e67205f8201527f7769746820746f6b656e00000000000000000000000000000000000000000000602082015250565b5f612e83602a8361290b565b9150612e8e82612e29565b604082019050919050565b5f6020820190508181035f830152612eb081612e77565b9050919050565b5f819050815f5260205f209050919050565b5f6020601f8301049050919050565b5f82821b905092915050565b5f60088302612f137fffffffffffffffffffffffffffffffffffffffffffffffffffffffffffffffff82612ed8565b612f1d8683612ed8565b95508019841693508086168417925050509392505050565b5f819050919050565b5f612f58612f53612f4e84612265565b612f35565b612265565b9050919050565b5f819050919050565b612f7183612f3e565b612f85612f7d82612f5f565b848454612ee4565b825550505050565b5f5f905090565b612f9c612f8d565b612fa7818484612f68565b505050565b5b81811015612fca57612fbf5f82612f94565b600181019050612fad565b5050565b601f82111561300f57612fe081612eb7565b612fe984612ec9565b81016020851015612ff8578190505b61300c61300485612ec9565b830182612fac565b50505b505050565b5f82821c905092915050565b5f61302f5f1984600802613014565b1980831691505092915050565b5f6130478383613020565b9150826002028217905092915050565b613060826122ec565b67ffffffffffffffff811115613079576130786124c3565b5b6130838254612bce565b61308e828285612fce565b5f60209050601f8311600181146130bf575f84156130ad578287015190505b6130b7858261303c565b86555061311e565b601f1984166130cd86612eb7565b5f5b828110156130f4578489015182556001820191506020850194506020810190506130cf565b86831015613111578489015161310d601f891682613020565b8355505b6001600288020188555050505b505050505050565b7f4e487b71000000000000000000000000000000000000000000000000000000005f52601160045260245ffd5b5f61315d82612265565b91507fffffffffffffffffffffffffffffffffffffffffffffffffffffffffffffffff820361318f5761318e613126565b5b600182019050919050565b5f6040820190506131ad5f830185612493565b6131ba60208301846128a5565b9392505050565b7f4f6e6c792063726561746f7200000000000000000000000000000000000000005f82015250565b5f6131f5600c8361290b565b9150613200826131c1565b602082019050919050565b5f6020820190508181035f830152613222816131e9565b9050919050565b7f496e76616c69642074696d6500000000000000000000000000000000000000005f82015250565b5f61325d600c8361290b565b915061326882613229565b602082019050919050565b5f6020820190508181035f83015261328a81613251565b9050919050565b7f496e76616c6964207072696365000000000000000000000000000000000000005f82015250565b5f6132c5600d8361290b565b91506132d082613291565b602082019050919050565b5f6020820190508181035f8301526132f2816132b9565b9050919050565b5f60a08201905061330c5f830188612493565b6133196020830187612493565b6133266040830186612493565b6133336060830185612493565b61334060808301846128a5565b9695505050505050565b5f81905092915050565b50565b5f6133625f8361334a565b915061336d82613354565b5f82019050919050565b5f61338182613357565b9150819050919050565b7f455448207472616e73666572206661696c6564000000000000000000000000005f82015250565b5f6133bf60138361290b565b91506133ca8261338b565b602082019050919050565b5f6020820190508181035f8301526133ec816133b3565b9050919050565b5f6040820190506134065f8301856128a5565b613413602083018461295e565b9392505050565b7f4e6f742076616c696461746f72000000000000000000000000000000000000005f82015250565b5f61344e600d8361290b565b91506134598261341a565b602082019050919050565b5f6020820190508181035f83015261347b81613442565b9050919050565b7f52657761726420657863656564732070726f6772616d2062616c616e636500005f82015250565b5f6134b6601e8361290b565b91506134c182613482565b602082019050919050565b5f6020820190508181035f8301526134e3816134aa565b9050919050565b7f496e73756666696369656e7420636f6e7472616374204554482062616c616e635f8201527f6500000000000000000000000000000000000000000000000000000000000000602082015250565b5f61354460218361290b565b915061354f826134ea565b604082019050919050565b5f6020820190508181035f83015261357181613538565b9050919050565b7f496e73756666696369656e7420636f6e747261637420746f6b656e2062616c615f8201527f6e63650000000000000000000000000000000000000000000000000000000000602082015250565b5f6135d260238361290b565b91506135dd82613578565b604082019050919050565b5f6020820190508181035f8301526135ff816135c6565b9050919050565b5f61361082612265565b915061361b83612265565b925082820390508181111561363357613632613126565b5b92915050565b5f81905092915050565b5f61364d826122ec565b6136578185613639565b9350613667818560208601612306565b80840191505092915050565b5f61367e8284613643565b915081905092915050565b7f4f776e61626c653a206e6577206f776e657220697320746865207a65726f20615f8201527f6464726573730000000000000000000000000000000000000000000000000000602082015250565b5f6136e360268361290b565b91506136ee82613689565b604082019050919050565b5f6020820190508181035f830152613710816136d7565b9050919050565b7f50726f6772616d206e6f7420656e6465642079657400000000000000000000005f82015250565b5f61374b60158361290b565b915061375682613717565b602082019050919050565b5f6020820190508181035f8301526137788161373f565b9050919050565b7f4e6f74207468652070726f6772616d206d616b657200000000000000000000005f82015250565b5f6137b360158361290b565b91506137be8261377f565b602082019050919050565b5f6020820190508181035f8301526137e0816137a7565b9050919050565b7f416c726561647920636c61696d656400000000000000000000000000000000005f82015250565b5f61381b600f8361290b565b9150613826826137e7565b602082019050919050565b5f6020820190508181035f8301526138488161380f565b9050919050565b7f4e6f2066756e647320746f207265636c61696d000000000000000000000000005f82015250565b5f61388360138361290b565b915061388e8261384f565b602082019050919050565b5f6020820190508181035f8301526138b081613877565b9050919050565b5f6060820190506138ca5f8301866128a5565b6138d76020830185612493565b6138e460408301846128a5565b949350505050565b7f4f776e61626c653a2063616c6c6572206973206e6f7420746865206f776e65725f82015250565b5f61392060208361290b565b915061392b826138ec565b602082019050919050565b5f6020820190508181035f83015261394d81613914565b9050919050565b5f6060820190506139675f8301866128a5565b61397460208301856128a5565b6139816040830184612493565b949350505050565b5f60408201905061399c5f8301856128a5565b6139a96020830184612493565b9392505050565b7f5265656e7472616e637947756172643a207265656e7472616e742063616c6c005f82015250565b5f6139e4601f8361290b565b91506139ef826139b0565b602082019050919050565b5f6020820190508181035f830152613a11816139d8565b9050919050565b5f81519050613a26816129d3565b92915050565b5f60208284031215613a4157613a4061225d565b5b5f613a4e84828501613a18565b91505092915050565b7f5361666545524332303a204552433230206f7065726174696f6e20646964206e5f8201527f6f74207375636365656400000000000000000000000000000000000000000000602082015250565b5f613ab1602a8361290b565b9150613abc82613a57565b604082019050919050565b5f6020820190508181035f830152613ade81613aa5565b9050919050565b7f416464726573733a20696e73756666696369656e742062616c616e636520666f5f8201527f722063616c6c0000000000000000000000000000000000000000000000000000602082015250565b5f613b3f60268361290b565b9150613b4a82613ae5565b604082019050919050565b5f6020820190508181035f830152613b6c81613b33565b9050919050565b5f81519050919050565b5f613b8782613b73565b613b91818561334a565b9350613ba1818560208601612306565b80840191505092915050565b5f613bb88284613b7d565b915081905092915050565b7f416464726573733a2063616c6c20746f206e6f6e2d636f6e74726163740000005f82015250565b5f613bf7601d8361290b565b9150613c0282613bc3565b602082019050919050565b5f6020820190508181035f830152613c2481613beb565b9050919050565b5f6020820190508181035f830152613c43818461291b565b90509291505056fea26469706673582212209ae50d77cbf281c3234e391552d773e4c84e60458df18223bbd2839790f7811464736f6c634300081e0033",
					"opcodes": "PUSH1 0x80 PUSH1 0x40 MSTORE CALLVALUE DUP1 ISZERO PUSH2 0xF JUMPI PUSH0 PUSH0 REVERT JUMPDEST POP PUSH1 0x40 MLOAD PUSH2 0x3E8E CODESIZE SUB DUP1 PUSH2 0x3E8E DUP4 CODECOPY DUP2 DUP2 ADD PUSH1 0x40 MSTORE DUP2 ADD SWAP1 PUSH2 0x31 SWAP2 SWAP1 PUSH2 0x1D5 JUMP JUMPDEST PUSH2 0x4D PUSH2 0x42 PUSH2 0xAF PUSH1 0x20 SHL PUSH1 0x20 SHR JUMP JUMPDEST PUSH2 0xB6 PUSH1 0x20 SHL PUSH1 0x20 SHR JUMP JUMPDEST PUSH1 0x1 DUP1 DUP2 SWAP1 SSTORE POP PUSH1 0x1 PUSH1 0x3 PUSH0 PUSH0 PUSH20 0xFFFFFFFFFFFFFFFFFFFFFFFFFFFFFFFFFFFFFFFF AND PUSH20 0xFFFFFFFFFFFFFFFFFFFFFFFFFFFFFFFFFFFFFFFF AND DUP2 MSTORE PUSH1 0x20 ADD SWAP1 DUP2 MSTORE PUSH1 0x20 ADD PUSH0 KECCAK256 PUSH0 PUSH2 0x100 EXP DUP2 SLOAD DUP2 PUSH1 0xFF MUL NOT AND SWAP1 DUP4 ISZERO ISZERO MUL OR SWAP1 SSTORE POP POP PUSH2 0x200 JUMP JUMPDEST PUSH0 CALLER SWAP1 POP SWAP1 JUMP JUMPDEST PUSH0 PUSH0 PUSH0 SWAP1 SLOAD SWAP1 PUSH2 0x100 EXP SWAP1 DIV PUSH20 0xFFFFFFFFFFFFFFFFFFFFFFFFFFFFFFFFFFFFFFFF AND SWAP1 POP DUP2 PUSH0 PUSH0 PUSH2 0x100 EXP DUP2 SLOAD DUP2 PUSH20 0xFFFFFFFFFFFFFFFFFFFFFFFFFFFFFFFFFFFFFFFF MUL NOT AND SWAP1 DUP4 PUSH20 0xFFFFFFFFFFFFFFFFFFFFFFFFFFFFFFFFFFFFFFFF AND MUL OR SWAP1 SSTORE POP DUP2 PUSH20 0xFFFFFFFFFFFFFFFFFFFFFFFFFFFFFFFFFFFFFFFF AND DUP2 PUSH20 0xFFFFFFFFFFFFFFFFFFFFFFFFFFFFFFFFFFFFFFFF AND PUSH32 0x8BE0079C531659141344CD1FD0A4F28419497F9722A3DAAFE3B4186F6B6457E0 PUSH1 0x40 MLOAD PUSH1 0x40 MLOAD DUP1 SWAP2 SUB SWAP1 LOG3 POP POP JUMP JUMPDEST PUSH0 PUSH0 REVERT JUMPDEST PUSH0 PUSH20 0xFFFFFFFFFFFFFFFFFFFFFFFFFFFFFFFFFFFFFFFF DUP3 AND SWAP1 POP SWAP2 SWAP1 POP JUMP JUMPDEST PUSH0 PUSH2 0x1A4 DUP3 PUSH2 0x17B JUMP JUMPDEST SWAP1 POP SWAP2 SWAP1 POP JUMP JUMPDEST PUSH2 0x1B4 DUP2 PUSH2 0x19A JUMP JUMPDEST DUP2 EQ PUSH2 0x1BE JUMPI PUSH0 PUSH0 REVERT JUMPDEST POP JUMP JUMPDEST PUSH0 DUP2 MLOAD SWAP1 POP PUSH2 0x1CF DUP2 PUSH2 0x1AB JUMP JUMPDEST SWAP3 SWAP2 POP POP JUMP JUMPDEST PUSH0 PUSH1 0x20 DUP3 DUP5 SUB SLT ISZERO PUSH2 0x1EA JUMPI PUSH2 0x1E9 PUSH2 0x177 JUMP JUMPDEST JUMPDEST PUSH0 PUSH2 0x1F7 DUP5 DUP3 DUP6 ADD PUSH2 0x1C1 JUMP JUMPDEST SWAP2 POP POP SWAP3 SWAP2 POP POP JUMP JUMPDEST PUSH2 0x3C81 DUP1 PUSH2 0x20D PUSH0 CODECOPY PUSH0 RETURN INVALID PUSH1 0x80 PUSH1 0x40 MSTORE PUSH1 0x4 CALLDATASIZE LT PUSH2 0x113 JUMPI PUSH0 CALLDATALOAD PUSH1 0xE0 SHR DUP1 PUSH4 0x9B46C801 GT PUSH2 0x9F JUMPI DUP1 PUSH4 0xD613FD24 GT PUSH2 0x63 JUMPI DUP1 PUSH4 0xD613FD24 EQ PUSH2 0x386 JUMPI DUP1 PUSH4 0xDAF9C210 EQ PUSH2 0x3CD JUMPI DUP1 PUSH4 0xF2479186 EQ PUSH2 0x409 JUMPI DUP1 PUSH4 0xF2FDE38B EQ PUSH2 0x431 JUMPI DUP1 PUSH4 0xF9F161A8 EQ PUSH2 0x459 JUMPI PUSH2 0x113 JUMP JUMPDEST DUP1 PUSH4 0x9B46C801 EQ PUSH2 0x29F JUMPI DUP1 PUSH4 0xA734F06E EQ PUSH2 0x2E0 JUMPI DUP1 PUSH4 0xBA71B330 EQ PUSH2 0x30A JUMPI DUP1 PUSH4 0xC9BCC97E EQ PUSH2 0x334 JUMPI DUP1 PUSH4 0xCED72F87 EQ PUSH2 0x35C JUMPI PUSH2 0x113 JUMP JUMPDEST DUP1 PUSH4 0x715018A6 GT PUSH2 0xE6 JUMPI DUP1 PUSH4 0x715018A6 EQ PUSH2 0x1F3 JUMPI DUP1 PUSH4 0x7D30B663 EQ PUSH2 0x209 JUMPI DUP1 PUSH4 0x89001EB1 EQ PUSH2 0x225 JUMPI DUP1 PUSH4 0x8DA5CB5B EQ PUSH2 0x24D JUMPI DUP1 PUSH4 0x95CCEA67 EQ PUSH2 0x277 JUMPI PUSH2 0x113 JUMP JUMPDEST DUP1 PUSH4 0x1FBBAAE8 EQ PUSH2 0x117 JUMPI DUP1 PUSH4 0x3CCACA8E EQ PUSH2 0x153 JUMPI DUP1 PUSH4 0x43AB265F EQ PUSH2 0x18F JUMPI DUP1 PUSH4 0x69FE0E2D EQ PUSH2 0x1CB JUMPI JUMPDEST PUSH0 PUSH0 REVERT JUMPDEST CALLVALUE DUP1 ISZERO PUSH2 0x122 JUMPI PUSH0 PUSH0 REVERT JUMPDEST POP PUSH2 0x13D PUSH1 0x4 DUP1 CALLDATASIZE SUB DUP2 ADD SWAP1 PUSH2 0x138 SWAP2 SWAP1 PUSH2 0x2298 JUMP JUMPDEST PUSH2 0x481 JUMP JUMPDEST PUSH1 0x40 MLOAD PUSH2 0x14A SWAP2 SWAP1 PUSH2 0x23EE JUMP JUMPDEST PUSH1 0x40 MLOAD DUP1 SWAP2 SUB SWAP1 RETURN JUMPDEST CALLVALUE DUP1 ISZERO PUSH2 0x15E JUMPI PUSH0 PUSH0 REVERT JUMPDEST POP PUSH2 0x179 PUSH1 0x4 DUP1 CALLDATASIZE SUB DUP2 ADD SWAP1 PUSH2 0x174 SWAP2 SWAP1 PUSH2 0x2298 JUMP JUMPDEST PUSH2 0x569 JUMP JUMPDEST PUSH1 0x40 MLOAD PUSH2 0x186 SWAP2 SWAP1 PUSH2 0x23EE JUMP JUMPDEST PUSH1 0x40 MLOAD DUP1 SWAP2 SUB SWAP1 RETURN JUMPDEST CALLVALUE DUP1 ISZERO PUSH2 0x19A JUMPI PUSH0 PUSH0 REVERT JUMPDEST POP PUSH2 0x1B5 PUSH1 0x4 DUP1 CALLDATASIZE SUB DUP2 ADD SWAP1 PUSH2 0x1B0 SWAP2 SWAP1 PUSH2 0x2468 JUMP JUMPDEST PUSH2 0x651 JUMP JUMPDEST PUSH1 0x40 MLOAD PUSH2 0x1C2 SWAP2 SWAP1 PUSH2 0x24A2 JUMP JUMPDEST PUSH1 0x40 MLOAD DUP1 SWAP2 SUB SWAP1 RETURN JUMPDEST CALLVALUE DUP1 ISZERO PUSH2 0x1D6 JUMPI PUSH0 PUSH0 REVERT JUMPDEST POP PUSH2 0x1F1 PUSH1 0x4 DUP1 CALLDATASIZE SUB DUP2 ADD SWAP1 PUSH2 0x1EC SWAP2 SWAP1 PUSH2 0x2298 JUMP JUMPDEST PUSH2 0x70D JUMP JUMPDEST STOP JUMPDEST CALLVALUE DUP1 ISZERO PUSH2 0x1FE JUMPI PUSH0 PUSH0 REVERT JUMPDEST POP PUSH2 0x207 PUSH2 0x756 JUMP JUMPDEST STOP JUMPDEST PUSH2 0x223 PUSH1 0x4 DUP1 CALLDATASIZE SUB DUP2 ADD SWAP1 PUSH2 0x21E SWAP2 SWAP1 PUSH2 0x26C9 JUMP JUMPDEST PUSH2 0x769 JUMP JUMPDEST STOP JUMPDEST CALLVALUE DUP1 ISZERO PUSH2 0x230 JUMPI PUSH0 PUSH0 REVERT JUMPDEST POP PUSH2 0x24B PUSH1 0x4 DUP1 CALLDATASIZE SUB DUP2 ADD SWAP1 PUSH2 0x246 SWAP2 SWAP1 PUSH2 0x282E JUMP JUMPDEST PUSH2 0xC64 JUMP JUMPDEST STOP JUMPDEST CALLVALUE DUP1 ISZERO PUSH2 0x258 JUMPI PUSH0 PUSH0 REVERT JUMPDEST POP PUSH2 0x261 PUSH2 0xE31 JUMP JUMPDEST PUSH1 0x40 MLOAD PUSH2 0x26E SWAP2 SWAP1 PUSH2 0x28B4 JUMP JUMPDEST PUSH1 0x40 MLOAD DUP1 SWAP2 SUB SWAP1 RETURN JUMPDEST CALLVALUE DUP1 ISZERO PUSH2 0x282 JUMPI PUSH0 PUSH0 REVERT JUMPDEST POP PUSH2 0x29D PUSH1 0x4 DUP1 CALLDATASIZE SUB DUP2 ADD SWAP1 PUSH2 0x298 SWAP2 SWAP1 PUSH2 0x28CD JUMP JUMPDEST PUSH2 0xE58 JUMP JUMPDEST STOP JUMPDEST CALLVALUE DUP1 ISZERO PUSH2 0x2AA JUMPI PUSH0 PUSH0 REVERT JUMPDEST POP PUSH2 0x2C5 PUSH1 0x4 DUP1 CALLDATASIZE SUB DUP2 ADD SWAP1 PUSH2 0x2C0 SWAP2 SWAP1 PUSH2 0x2298 JUMP JUMPDEST PUSH2 0xF7F JUMP JUMPDEST PUSH1 0x40 MLOAD PUSH2 0x2D7 SWAP7 SWAP6 SWAP5 SWAP4 SWAP3 SWAP2 SWAP1 PUSH2 0x296D JUMP JUMPDEST PUSH1 0x40 MLOAD DUP1 SWAP2 SUB SWAP1 RETURN JUMPDEST CALLVALUE DUP1 ISZERO PUSH2 0x2EB JUMPI PUSH0 PUSH0 REVERT JUMPDEST POP PUSH2 0x2F4 PUSH2 0x10C1 JUMP JUMPDEST PUSH1 0x40 MLOAD PUSH2 0x301 SWAP2 SWAP1 PUSH2 0x28B4 JUMP JUMPDEST PUSH1 0x40 MLOAD DUP1 SWAP2 SUB SWAP1 RETURN JUMPDEST CALLVALUE DUP1 ISZERO PUSH2 0x315 JUMPI PUSH0 PUSH0 REVERT JUMPDEST POP PUSH2 0x31E PUSH2 0x10C5 JUMP JUMPDEST PUSH1 0x40 MLOAD PUSH2 0x32B SWAP2 SWAP1 PUSH2 0x24A2 JUMP JUMPDEST PUSH1 0x40 MLOAD DUP1 SWAP2 SUB SWAP1 RETURN JUMPDEST CALLVALUE DUP1 ISZERO PUSH2 0x33F JUMPI PUSH0 PUSH0 REVERT JUMPDEST POP PUSH2 0x35A PUSH1 0x4 DUP1 CALLDATASIZE SUB DUP2 ADD SWAP1 PUSH2 0x355 SWAP2 SWAP1 PUSH2 0x29FD JUMP JUMPDEST PUSH2 0x10CB JUMP JUMPDEST STOP JUMPDEST CALLVALUE DUP1 ISZERO PUSH2 0x367 JUMPI PUSH0 PUSH0 REVERT JUMPDEST POP PUSH2 0x370 PUSH2 0x1164 JUMP JUMPDEST PUSH1 0x40 MLOAD PUSH2 0x37D SWAP2 SWAP1 PUSH2 0x24A2 JUMP JUMPDEST PUSH1 0x40 MLOAD DUP1 SWAP2 SUB SWAP1 RETURN JUMPDEST CALLVALUE DUP1 ISZERO PUSH2 0x391 JUMPI PUSH0 PUSH0 REVERT JUMPDEST POP PUSH2 0x3AC PUSH1 0x4 DUP1 CALLDATASIZE SUB DUP2 ADD SWAP1 PUSH2 0x3A7 SWAP2 SWAP1 PUSH2 0x2298 JUMP JUMPDEST PUSH2 0x116D JUMP JUMPDEST PUSH1 0x40 MLOAD PUSH2 0x3C4 SWAP13 SWAP12 SWAP11 SWAP10 SWAP9 SWAP8 SWAP7 SWAP6 SWAP5 SWAP4 SWAP3 SWAP2 SWAP1 PUSH2 0x2A3B JUMP JUMPDEST PUSH1 0x40 MLOAD DUP1 SWAP2 SUB SWAP1 RETURN JUMPDEST CALLVALUE DUP1 ISZERO PUSH2 0x3D8 JUMPI PUSH0 PUSH0 REVERT JUMPDEST POP PUSH2 0x3F3 PUSH1 0x4 DUP1 CALLDATASIZE SUB DUP2 ADD SWAP1 PUSH2 0x3EE SWAP2 SWAP1 PUSH2 0x2468 JUMP JUMPDEST PUSH2 0x13D2 JUMP JUMPDEST PUSH1 0x40 MLOAD PUSH2 0x400 SWAP2 SWAP1 PUSH2 0x2B08 JUMP JUMPDEST PUSH1 0x40 MLOAD DUP1 SWAP2 SUB SWAP1 RETURN JUMPDEST CALLVALUE DUP1 ISZERO PUSH2 0x414 JUMPI PUSH0 PUSH0 REVERT JUMPDEST POP PUSH2 0x42F PUSH1 0x4 DUP1 CALLDATASIZE SUB DUP2 ADD SWAP1 PUSH2 0x42A SWAP2 SWAP1 PUSH2 0x2B21 JUMP JUMPDEST PUSH2 0x13EF JUMP JUMPDEST STOP JUMPDEST CALLVALUE DUP1 ISZERO PUSH2 0x43C JUMPI PUSH0 PUSH0 REVERT JUMPDEST POP PUSH2 0x457 PUSH1 0x4 DUP1 CALLDATASIZE SUB DUP2 ADD SWAP1 PUSH2 0x452 SWAP2 SWAP1 PUSH2 0x2468 JUMP JUMPDEST PUSH2 0x17EB JUMP JUMPDEST STOP JUMPDEST CALLVALUE DUP1 ISZERO PUSH2 0x464 JUMPI PUSH0 PUSH0 REVERT JUMPDEST POP PUSH2 0x47F PUSH1 0x4 DUP1 CALLDATASIZE SUB DUP2 ADD SWAP1 PUSH2 0x47A SWAP2 SWAP1 PUSH2 0x2298 JUMP JUMPDEST PUSH2 0x186D JUMP JUMPDEST STOP JUMPDEST PUSH1 0x60 PUSH1 0x2 PUSH0 DUP4 DUP2 MSTORE PUSH1 0x20 ADD SWAP1 DUP2 MSTORE PUSH1 0x20 ADD PUSH0 KECCAK256 PUSH1 0x2 ADD DUP1 SLOAD DUP1 PUSH1 0x20 MUL PUSH1 0x20 ADD PUSH1 0x40 MLOAD SWAP1 DUP2 ADD PUSH1 0x40 MSTORE DUP1 SWAP3 SWAP2 SWAP1 DUP2 DUP2 MSTORE PUSH1 0x20 ADD PUSH0 SWAP1 JUMPDEST DUP3 DUP3 LT ISZERO PUSH2 0x55E JUMPI DUP4 DUP3 SWAP1 PUSH0 MSTORE PUSH1 0x20 PUSH0 KECCAK256 ADD DUP1 SLOAD PUSH2 0x4D3 SWAP1 PUSH2 0x2BCE JUMP JUMPDEST DUP1 PUSH1 0x1F ADD PUSH1 0x20 DUP1 SWAP2 DIV MUL PUSH1 0x20 ADD PUSH1 0x40 MLOAD SWAP1 DUP2 ADD PUSH1 0x40 MSTORE DUP1 SWAP3 SWAP2 SWAP1 DUP2 DUP2 MSTORE PUSH1 0x20 ADD DUP3 DUP1 SLOAD PUSH2 0x4FF SWAP1 PUSH2 0x2BCE JUMP JUMPDEST DUP1 ISZERO PUSH2 0x54A JUMPI DUP1 PUSH1 0x1F LT PUSH2 0x521 JUMPI PUSH2 0x100 DUP1 DUP4 SLOAD DIV MUL DUP4 MSTORE SWAP2 PUSH1 0x20 ADD SWAP2 PUSH2 0x54A JUMP JUMPDEST DUP3 ADD SWAP2 SWAP1 PUSH0 MSTORE PUSH1 0x20 PUSH0 KECCAK256 SWAP1 JUMPDEST DUP2 SLOAD DUP2 MSTORE SWAP1 PUSH1 0x1 ADD SWAP1 PUSH1 0x20 ADD DUP1 DUP4 GT PUSH2 0x52D JUMPI DUP3 SWAP1 SUB PUSH1 0x1F AND DUP3 ADD SWAP2 JUMPDEST POP POP POP POP POP DUP2 MSTORE PUSH1 0x20 ADD SWAP1 PUSH1 0x1 ADD SWAP1 PUSH2 0x4B6 JUMP JUMPDEST POP POP POP POP SWAP1 POP SWAP2 SWAP1 POP JUMP JUMPDEST PUSH1 0x60 PUSH1 0x2 PUSH0 DUP4 DUP2 MSTORE PUSH1 0x20 ADD SWAP1 DUP2 MSTORE PUSH1 0x20 ADD PUSH0 KECCAK256 PUSH1 0x8 ADD DUP1 SLOAD DUP1 PUSH1 0x20 MUL PUSH1 0x20 ADD PUSH1 0x40 MLOAD SWAP1 DUP2 ADD PUSH1 0x40 MSTORE DUP1 SWAP3 SWAP2 SWAP1 DUP2 DUP2 MSTORE PUSH1 0x20 ADD PUSH0 SWAP1 JUMPDEST DUP3 DUP3 LT ISZERO PUSH2 0x646 JUMPI DUP4 DUP3 SWAP1 PUSH0 MSTORE PUSH1 0x20 PUSH0 KECCAK256 ADD DUP1 SLOAD PUSH2 0x5BB SWAP1 PUSH2 0x2BCE JUMP JUMPDEST DUP1 PUSH1 0x1F ADD PUSH1 0x20 DUP1 SWAP2 DIV MUL PUSH1 0x20 ADD PUSH1 0x40 MLOAD SWAP1 DUP2 ADD PUSH1 0x40 MSTORE DUP1 SWAP3 SWAP2 SWAP1 DUP2 DUP2 MSTORE PUSH1 0x20 ADD DUP3 DUP1 SLOAD PUSH2 0x5E7 SWAP1 PUSH2 0x2BCE JUMP JUMPDEST DUP1 ISZERO PUSH2 0x632 JUMPI DUP1 PUSH1 0x1F LT PUSH2 0x609 JUMPI PUSH2 0x100 DUP1 DUP4 SLOAD DIV MUL DUP4 MSTORE SWAP2 PUSH1 0x20 ADD SWAP2 PUSH2 0x632 JUMP JUMPDEST DUP3 ADD SWAP2 SWAP1 PUSH0 MSTORE PUSH1 0x20 PUSH0 KECCAK256 SWAP1 JUMPDEST DUP2 SLOAD DUP2 MSTORE SWAP1 PUSH1 0x1 ADD SWAP1 PUSH1 0x20 ADD DUP1 DUP4 GT PUSH2 0x615 JUMPI DUP3 SWAP1 SUB PUSH1 0x1F AND DUP3 ADD SWAP2 JUMPDEST POP POP POP POP POP DUP2 MSTORE PUSH1 0x20 ADD SWAP1 PUSH1 0x1 ADD SWAP1 PUSH2 0x59E JUMP JUMPDEST POP POP POP POP SWAP1 POP SWAP2 SWAP1 POP JUMP JUMPDEST PUSH0 PUSH0 PUSH20 0xFFFFFFFFFFFFFFFFFFFFFFFFFFFFFFFFFFFFFFFF AND DUP3 PUSH20 0xFFFFFFFFFFFFFFFFFFFFFFFFFFFFFFFFFFFFFFFF AND SUB PUSH2 0x68D JUMPI SELFBALANCE SWAP1 POP PUSH2 0x708 JUMP JUMPDEST DUP2 PUSH20 0xFFFFFFFFFFFFFFFFFFFFFFFFFFFFFFFFFFFFFFFF AND PUSH4 0x70A08231 ADDRESS PUSH1 0x40 MLOAD DUP3 PUSH4 0xFFFFFFFF AND PUSH1 0xE0 SHL DUP2 MSTORE PUSH1 0x4 ADD PUSH2 0x6C6 SWAP2 SWAP1 PUSH2 0x28B4 JUMP JUMPDEST PUSH1 0x20 PUSH1 0x40 MLOAD DUP1 DUP4 SUB DUP2 DUP7 GAS STATICCALL ISZERO DUP1 ISZERO PUSH2 0x6E1 JUMPI RETURNDATASIZE PUSH0 PUSH0 RETURNDATACOPY RETURNDATASIZE PUSH0 REVERT JUMPDEST POP POP POP POP PUSH1 0x40 MLOAD RETURNDATASIZE PUSH1 0x1F NOT PUSH1 0x1F DUP3 ADD AND DUP3 ADD DUP1 PUSH1 0x40 MSTORE POP DUP2 ADD SWAP1 PUSH2 0x705 SWAP2 SWAP1 PUSH2 0x2C12 JUMP JUMPDEST SWAP1 POP JUMPDEST SWAP2 SWAP1 POP JUMP JUMPDEST PUSH2 0x715 PUSH2 0x1C4A JUMP JUMPDEST DUP1 PUSH1 0x5 DUP2 SWAP1 SSTORE POP PUSH32 0x8C4D35E54A3F2EF1134138FD8EA3DAEE6A3C89E10D2665996BABDF70261E2C76 DUP2 PUSH1 0x40 MLOAD PUSH2 0x74B SWAP2 SWAP1 PUSH2 0x24A2 JUMP JUMPDEST PUSH1 0x40 MLOAD DUP1 SWAP2 SUB SWAP1 LOG1 POP JUMP JUMPDEST PUSH2 0x75E PUSH2 0x1C4A JUMP JUMPDEST PUSH2 0x767 PUSH0 PUSH2 0x1CC8 JUMP JUMPDEST JUMP JUMPDEST PUSH1 0x3 PUSH0 DUP3 PUSH20 0xFFFFFFFFFFFFFFFFFFFFFFFFFFFFFFFFFFFFFFFF AND PUSH20 0xFFFFFFFFFFFFFFFFFFFFFFFFFFFFFFFFFFFFFFFF AND DUP2 MSTORE PUSH1 0x20 ADD SWAP1 DUP2 MSTORE PUSH1 0x20 ADD PUSH0 KECCAK256 PUSH0 SWAP1 SLOAD SWAP1 PUSH2 0x100 EXP SWAP1 DIV PUSH1 0xFF AND PUSH2 0x7F2 JUMPI PUSH1 0x40 MLOAD PUSH32 0x8C379A000000000000000000000000000000000000000000000000000000000 DUP2 MSTORE PUSH1 0x4 ADD PUSH2 0x7E9 SWAP1 PUSH2 0x2C87 JUMP JUMPDEST PUSH1 0x40 MLOAD DUP1 SWAP2 SUB SWAP1 REVERT JUMPDEST DUP6 DUP8 LT PUSH2 0x834 JUMPI PUSH1 0x40 MLOAD PUSH32 0x8C379A000000000000000000000000000000000000000000000000000000000 DUP2 MSTORE PUSH1 0x4 ADD PUSH2 0x82B SWAP1 PUSH2 0x2D15 JUMP JUMPDEST PUSH1 0x40 MLOAD DUP1 SWAP2 SUB SWAP1 REVERT JUMPDEST PUSH0 DUP10 GT PUSH2 0x876 JUMPI PUSH1 0x40 MLOAD PUSH32 0x8C379A000000000000000000000000000000000000000000000000000000000 DUP2 MSTORE PUSH1 0x4 ADD PUSH2 0x86D SWAP1 PUSH2 0x2D7D JUMP JUMPDEST PUSH1 0x40 MLOAD DUP1 SWAP2 SUB SWAP1 REVERT JUMPDEST PUSH0 PUSH1 0x4 SLOAD SWAP1 POP PUSH0 PUSH20 0xFFFFFFFFFFFFFFFFFFFFFFFFFFFFFFFFFFFFFFFF AND DUP3 PUSH20 0xFFFFFFFFFFFFFFFFFFFFFFFFFFFFFFFFFFFFFFFF AND SUB PUSH2 0x8F6 JUMPI DUP10 CALLVALUE EQ PUSH2 0x8F1 JUMPI PUSH1 0x40 MLOAD PUSH32 0x8C379A000000000000000000000000000000000000000000000000000000000 DUP2 MSTORE PUSH1 0x4 ADD PUSH2 0x8E8 SWAP1 PUSH2 0x2E0B JUMP JUMPDEST PUSH1 0x40 MLOAD DUP1 SWAP2 SUB SWAP1 REVERT JUMPDEST PUSH2 0x966 JUMP JUMPDEST PUSH0 CALLVALUE EQ PUSH2 0x938 JUMPI PUSH1 0x40 MLOAD PUSH32 0x8C379A000000000000000000000000000000000000000000000000000000000 DUP2 MSTORE PUSH1 0x4 ADD PUSH2 0x92F SWAP1 PUSH2 0x2E99 JUMP JUMPDEST PUSH1 0x40 MLOAD DUP1 SWAP2 SUB SWAP1 REVERT JUMPDEST PUSH2 0x965 CALLER ADDRESS DUP13 DUP6 PUSH20 0xFFFFFFFFFFFFFFFFFFFFFFFFFFFFFFFFFFFFFFFF AND PUSH2 0x1D89 SWAP1 SWAP4 SWAP3 SWAP2 SWAP1 PUSH4 0xFFFFFFFF AND JUMP JUMPDEST JUMPDEST PUSH1 0x40 MLOAD DUP1 PUSH2 0x1C0 ADD PUSH1 0x40 MSTORE DUP1 DUP3 DUP2 MSTORE PUSH1 0x20 ADD DUP13 DUP2 MSTORE PUSH1 0x20 ADD DUP11 DUP2 MSTORE PUSH1 0x20 ADD DUP12 DUP2 MSTORE PUSH1 0x20 ADD DUP10 DUP2 MSTORE PUSH1 0x20 ADD DUP9 DUP2 MSTORE PUSH1 0x20 ADD DUP7 DUP2 MSTORE PUSH1 0x20 ADD DUP6 DUP2 MSTORE PUSH1 0x20 ADD DUP5 DUP2 MSTORE PUSH1 0x20 ADD CALLER PUSH20 0xFFFFFFFFFFFFFFFFFFFFFFFFFFFFFFFFFFFFFFFF AND DUP2 MSTORE PUSH1 0x20 ADD DUP8 PUSH20 0xFFFFFFFFFFFFFFFFFFFFFFFFFFFFFFFFFFFFFFFF AND DUP2 MSTORE PUSH1 0x20 ADD PUSH0 ISZERO ISZERO DUP2 MSTORE PUSH1 0x20 ADD PUSH0 ISZERO ISZERO DUP2 MSTORE PUSH1 0x20 ADD DUP4 PUSH20 0xFFFFFFFFFFFFFFFFFFFFFFFFFFFFFFFFFFFFFFFF AND DUP2 MSTORE POP PUSH1 0x2 PUSH0 DUP4 DUP2 MSTORE PUSH1 0x20 ADD SWAP1 DUP2 MSTORE PUSH1 0x20 ADD PUSH0 KECCAK256 PUSH0 DUP3 ADD MLOAD DUP2 PUSH0 ADD SSTORE PUSH1 0x20 DUP3 ADD MLOAD DUP2 PUSH1 0x1 ADD SWAP1 DUP2 PUSH2 0xA38 SWAP2 SWAP1 PUSH2 0x3057 JUMP JUMPDEST POP PUSH1 0x40 DUP3 ADD MLOAD DUP2 PUSH1 0x2 ADD SWAP1 DUP1 MLOAD SWAP1 PUSH1 0x20 ADD SWAP1 PUSH2 0xA55 SWAP3 SWAP2 SWAP1 PUSH2 0x2182 JUMP JUMPDEST POP PUSH1 0x60 DUP3 ADD MLOAD DUP2 PUSH1 0x3 ADD SSTORE PUSH1 0x80 DUP3 ADD MLOAD DUP2 PUSH1 0x4 ADD SSTORE PUSH1 0xA0 DUP3 ADD MLOAD DUP2 PUSH1 0x5 ADD SSTORE PUSH1 0xC0 DUP3 ADD MLOAD DUP2 PUSH1 0x6 ADD SWAP1 DUP2 PUSH2 0xA89 SWAP2 SWAP1 PUSH2 0x3057 JUMP JUMPDEST POP PUSH1 0xE0 DUP3 ADD MLOAD DUP2 PUSH1 0x7 ADD SWAP1 DUP2 PUSH2 0xA9F SWAP2 SWAP1 PUSH2 0x3057 JUMP JUMPDEST POP PUSH2 0x100 DUP3 ADD MLOAD DUP2 PUSH1 0x8 ADD SWAP1 DUP1 MLOAD SWAP1 PUSH1 0x20 ADD SWAP1 PUSH2 0xABD SWAP3 SWAP2 SWAP1 PUSH2 0x2182 JUMP JUMPDEST POP PUSH2 0x120 DUP3 ADD MLOAD DUP2 PUSH1 0x9 ADD PUSH0 PUSH2 0x100 EXP DUP2 SLOAD DUP2 PUSH20 0xFFFFFFFFFFFFFFFFFFFFFFFFFFFFFFFFFFFFFFFF MUL NOT AND SWAP1 DUP4 PUSH20 0xFFFFFFFFFFFFFFFFFFFFFFFFFFFFFFFFFFFFFFFF AND MUL OR SWAP1 SSTORE POP PUSH2 0x140 DUP3 ADD MLOAD DUP2 PUSH1 0xA ADD PUSH0 PUSH2 0x100 EXP DUP2 SLOAD DUP2 PUSH20 0xFFFFFFFFFFFFFFFFFFFFFFFFFFFFFFFFFFFFFFFF MUL NOT AND SWAP1 DUP4 PUSH20 0xFFFFFFFFFFFFFFFFFFFFFFFFFFFFFFFFFFFFFFFF AND MUL OR SWAP1 SSTORE POP PUSH2 0x160 DUP3 ADD MLOAD DUP2 PUSH1 0xA ADD PUSH1 0x14 PUSH2 0x100 EXP DUP2 SLOAD DUP2 PUSH1 0xFF MUL NOT AND SWAP1 DUP4 ISZERO ISZERO MUL OR SWAP1 SSTORE POP PUSH2 0x180 DUP3 ADD MLOAD DUP2 PUSH1 0xA ADD PUSH1 0x15 PUSH2 0x100 EXP DUP2 SLOAD DUP2 PUSH1 0xFF MUL NOT AND SWAP1 DUP4 ISZERO ISZERO MUL OR SWAP1 SSTORE POP PUSH2 0x1A0 DUP3 ADD MLOAD DUP2 PUSH1 0xB ADD PUSH0 PUSH2 0x100 EXP DUP2 SLOAD DUP2 PUSH20 0xFFFFFFFFFFFFFFFFFFFFFFFFFFFFFFFFFFFFFFFF MUL NOT AND SWAP1 DUP4 PUSH20 0xFFFFFFFFFFFFFFFFFFFFFFFFFFFFFFFFFFFFFFFF AND MUL OR SWAP1 SSTORE POP SWAP1 POP POP PUSH1 0x4 PUSH0 DUP2 SLOAD DUP1 SWAP3 SWAP2 SWAP1 PUSH2 0xBEA SWAP1 PUSH2 0x3153 JUMP JUMPDEST SWAP2 SWAP1 POP SSTORE POP DUP6 PUSH20 0xFFFFFFFFFFFFFFFFFFFFFFFFFFFFFFFFFFFFFFFF AND CALLER PUSH20 0xFFFFFFFFFFFFFFFFFFFFFFFFFFFFFFFFFFFFFFFF AND DUP3 PUSH32 0xDD511BA7ADFC2D92B666C725A9D6073B35763FE9017F7B3C0C75767E25B0F2CC DUP14 DUP7 PUSH1 0x40 MLOAD PUSH2 0xC4F SWAP3 SWAP2 SWAP1 PUSH2 0x319A JUMP JUMPDEST PUSH1 0x40 MLOAD DUP1 SWAP2 SUB SWAP1 LOG4 POP POP POP POP POP POP POP POP POP POP POP JUMP JUMPDEST PUSH0 PUSH1 0x2 PUSH0 DUP8 DUP2 MSTORE PUSH1 0x20 ADD SWAP1 DUP2 MSTORE PUSH1 0x20 ADD PUSH0 KECCAK256 SWAP1 POP DUP1 PUSH1 0x9 ADD PUSH0 SWAP1 SLOAD SWAP1 PUSH2 0x100 EXP SWAP1 DIV PUSH20 0xFFFFFFFFFFFFFFFFFFFFFFFFFFFFFFFFFFFFFFFF AND PUSH20 0xFFFFFFFFFFFFFFFFFFFFFFFFFFFFFFFFFFFFFFFF AND CALLER PUSH20 0xFFFFFFFFFFFFFFFFFFFFFFFFFFFFFFFFFFFFFFFF AND EQ PUSH2 0xD09 JUMPI PUSH1 0x40 MLOAD PUSH32 0x8C379A000000000000000000000000000000000000000000000000000000000 DUP2 MSTORE PUSH1 0x4 ADD PUSH2 0xD00 SWAP1 PUSH2 0x320B JUMP JUMPDEST PUSH1 0x40 MLOAD DUP1 SWAP2 SUB SWAP1 REVERT JUMPDEST DUP3 DUP5 LT PUSH2 0xD4B JUMPI PUSH1 0x40 MLOAD PUSH32 0x8C379A000000000000000000000000000000000000000000000000000000000 DUP2 MSTORE PUSH1 0x4 ADD PUSH2 0xD42 SWAP1 PUSH2 0x3273 JUMP JUMPDEST PUSH1 0x40 MLOAD DUP1 SWAP2 SUB SWAP1 REVERT JUMPDEST PUSH0 DUP6 GT PUSH2 0xD8D JUMPI PUSH1 0x40 MLOAD PUSH32 0x8C379A000000000000000000000000000000000000000000000000000000000 DUP2 MSTORE PUSH1 0x4 ADD PUSH2 0xD84 SWAP1 PUSH2 0x32DB JUMP JUMPDEST PUSH1 0x40 MLOAD DUP1 SWAP2 SUB SWAP1 REVERT JUMPDEST DUP5 DUP2 PUSH1 0x3 ADD DUP2 SWAP1 SSTORE POP DUP4 DUP2 PUSH1 0x4 ADD DUP2 SWAP1 SSTORE POP DUP3 DUP2 PUSH1 0x5 ADD DUP2 SWAP1 SSTORE POP DUP2 DUP2 PUSH1 0xA ADD PUSH0 PUSH2 0x100 EXP DUP2 SLOAD DUP2 PUSH20 0xFFFFFFFFFFFFFFFFFFFFFFFFFFFFFFFFFFFFFFFF MUL NOT AND SWAP1 DUP4 PUSH20 0xFFFFFFFFFFFFFFFFFFFFFFFFFFFFFFFFFFFFFFFF AND MUL OR SWAP1 SSTORE POP PUSH32 0xE3D59D03839A10C8A5A85DD0D7E5A4AC45445821C5176529D2745ADF6915A161 DUP7 DUP7 DUP7 DUP7 DUP7 PUSH1 0x40 MLOAD PUSH2 0xE21 SWAP6 SWAP5 SWAP4 SWAP3 SWAP2 SWAP1 PUSH2 0x32F9 JUMP JUMPDEST PUSH1 0x40 MLOAD DUP1 SWAP2 SUB SWAP1 LOG1 POP POP POP POP POP POP JUMP JUMPDEST PUSH0 PUSH0 PUSH0 SWAP1 SLOAD SWAP1 PUSH2 0x100 EXP SWAP1 DIV PUSH20 0xFFFFFFFFFFFFFFFFFFFFFFFFFFFFFFFFFFFFFFFF AND SWAP1 POP SWAP1 JUMP JUMPDEST PUSH2 0xE60 PUSH2 0x1C4A JUMP JUMPDEST PUSH0 PUSH20 0xFFFFFFFFFFFFFFFFFFFFFFFFFFFFFFFFFFFFFFFF AND DUP3 PUSH20 0xFFFFFFFFFFFFFFFFFFFFFFFFFFFFFFFFFFFFFFFF AND SUB PUSH2 0xF48 JUMPI PUSH0 PUSH2 0xE9C PUSH2 0xE31 JUMP JUMPDEST PUSH20 0xFFFFFFFFFFFFFFFFFFFFFFFFFFFFFFFFFFFFFFFF AND DUP3 PUSH1 0x40 MLOAD PUSH2 0xEBF SWAP1 PUSH2 0x3377 JUMP JUMPDEST PUSH0 PUSH1 0x40 MLOAD DUP1 DUP4 SUB DUP2 DUP6 DUP8 GAS CALL SWAP3 POP POP POP RETURNDATASIZE DUP1 PUSH0 DUP2 EQ PUSH2 0xEF9 JUMPI PUSH1 0x40 MLOAD SWAP2 POP PUSH1 0x1F NOT PUSH1 0x3F RETURNDATASIZE ADD AND DUP3 ADD PUSH1 0x40 MSTORE RETURNDATASIZE DUP3 MSTORE RETURNDATASIZE PUSH0 PUSH1 0x20 DUP5 ADD RETURNDATACOPY PUSH2 0xEFE JUMP JUMPDEST PUSH1 0x60 SWAP2 POP JUMPDEST POP POP SWAP1 POP DUP1 PUSH2 0xF42 JUMPI PUSH1 0x40 MLOAD PUSH32 0x8C379A000000000000000000000000000000000000000000000000000000000 DUP2 MSTORE PUSH1 0x4 ADD PUSH2 0xF39 SWAP1 PUSH2 0x33D5 JUMP JUMPDEST PUSH1 0x40 MLOAD DUP1 SWAP2 SUB SWAP1 REVERT JUMPDEST POP PUSH2 0xF7B JUMP JUMPDEST PUSH2 0xF7A PUSH2 0xF53 PUSH2 0xE31 JUMP JUMPDEST DUP3 DUP5 PUSH20 0xFFFFFFFFFFFFFFFFFFFFFFFFFFFFFFFFFFFFFFFF AND PUSH2 0x1E12 SWAP1 SWAP3 SWAP2 SWAP1 PUSH4 0xFFFFFFFF AND JUMP JUMPDEST JUMPDEST POP POP JUMP JUMPDEST PUSH1 0x60 PUSH0 PUSH0 PUSH0 PUSH0 PUSH0 PUSH0 PUSH1 0x2 PUSH0 DUP10 DUP2 MSTORE PUSH1 0x20 ADD SWAP1 DUP2 MSTORE PUSH1 0x20 ADD PUSH0 KECCAK256 SWAP1 POP DUP1 PUSH1 0x1 ADD DUP2 PUSH1 0x3 ADD SLOAD DUP3 PUSH1 0x9 ADD PUSH0 SWAP1 SLOAD SWAP1 PUSH2 0x100 EXP SWAP1 DIV PUSH20 0xFFFFFFFFFFFFFFFFFFFFFFFFFFFFFFFFFFFFFFFF AND DUP4 PUSH1 0xA ADD PUSH0 SWAP1 SLOAD SWAP1 PUSH2 0x100 EXP SWAP1 DIV PUSH20 0xFFFFFFFFFFFFFFFFFFFFFFFFFFFFFFFFFFFFFFFF AND DUP5 PUSH1 0xB ADD PUSH0 SWAP1 SLOAD SWAP1 PUSH2 0x100 EXP SWAP1 DIV PUSH20 0xFFFFFFFFFFFFFFFFFFFFFFFFFFFFFFFFFFFFFFFF AND DUP6 PUSH1 0xA ADD PUSH1 0x15 SWAP1 SLOAD SWAP1 PUSH2 0x100 EXP SWAP1 DIV PUSH1 0xFF AND DUP6 DUP1 SLOAD PUSH2 0x102D SWAP1 PUSH2 0x2BCE JUMP JUMPDEST DUP1 PUSH1 0x1F ADD PUSH1 0x20 DUP1 SWAP2 DIV MUL PUSH1 0x20 ADD PUSH1 0x40 MLOAD SWAP1 DUP2 ADD PUSH1 0x40 MSTORE DUP1 SWAP3 SWAP2 SWAP1 DUP2 DUP2 MSTORE PUSH1 0x20 ADD DUP3 DUP1 SLOAD PUSH2 0x1059 SWAP1 PUSH2 0x2BCE JUMP JUMPDEST DUP1 ISZERO PUSH2 0x10A4 JUMPI DUP1 PUSH1 0x1F LT PUSH2 0x107B JUMPI PUSH2 0x100 DUP1 DUP4 SLOAD DIV MUL DUP4 MSTORE SWAP2 PUSH1 0x20 ADD SWAP2 PUSH2 0x10A4 JUMP JUMPDEST DUP3 ADD SWAP2 SWAP1 PUSH0 MSTORE PUSH1 0x20 PUSH0 KECCAK256 SWAP1 JUMPDEST DUP2 SLOAD DUP2 MSTORE SWAP1 PUSH1 0x1 ADD SWAP1 PUSH1 0x20 ADD DUP1 DUP4 GT PUSH2 0x1087 JUMPI DUP3 SWAP1 SUB PUSH1 0x1F AND DUP3 ADD SWAP2 JUMPDEST POP POP POP POP POP SWAP6 POP SWAP7 POP SWAP7 POP SWAP7 POP SWAP7 POP SWAP7 POP SWAP7 POP POP SWAP2 SWAP4 SWAP6 POP SWAP2 SWAP4 SWAP6 JUMP JUMPDEST PUSH0 DUP2 JUMP JUMPDEST PUSH1 0x4 SLOAD DUP2 JUMP JUMPDEST PUSH2 0x10D3 PUSH2 0x1C4A JUMP JUMPDEST DUP1 PUSH1 0x3 PUSH0 DUP5 PUSH20 0xFFFFFFFFFFFFFFFFFFFFFFFFFFFFFFFFFFFFFFFF AND PUSH20 0xFFFFFFFFFFFFFFFFFFFFFFFFFFFFFFFFFFFFFFFF AND DUP2 MSTORE PUSH1 0x20 ADD SWAP1 DUP2 MSTORE PUSH1 0x20 ADD PUSH0 KECCAK256 PUSH0 PUSH2 0x100 EXP DUP2 SLOAD DUP2 PUSH1 0xFF MUL NOT AND SWAP1 DUP4 ISZERO ISZERO MUL OR SWAP1 SSTORE POP PUSH32 0xEF81A9943B96C8DF4EF243401C9BF5159146166211356898B52D382086168D92 DUP3 DUP3 PUSH1 0x40 MLOAD PUSH2 0x1158 SWAP3 SWAP2 SWAP1 PUSH2 0x33F3 JUMP JUMPDEST PUSH1 0x40 MLOAD DUP1 SWAP2 SUB SWAP1 LOG1 POP POP JUMP JUMPDEST PUSH0 PUSH1 0x5 SLOAD SWAP1 POP SWAP1 JUMP JUMPDEST PUSH1 0x2 PUSH1 0x20 MSTORE DUP1 PUSH0 MSTORE PUSH1 0x40 PUSH0 KECCAK256 PUSH0 SWAP2 POP SWAP1 POP DUP1 PUSH0 ADD SLOAD SWAP1 DUP1 PUSH1 0x1 ADD DUP1 SLOAD PUSH2 0x1192 SWAP1 PUSH2 0x2BCE JUMP JUMPDEST DUP1 PUSH1 0x1F ADD PUSH1 0x20 DUP1 SWAP2 DIV MUL PUSH1 0x20 ADD PUSH1 0x40 MLOAD SWAP1 DUP2 ADD PUSH1 0x40 MSTORE DUP1 SWAP3 SWAP2 SWAP1 DUP2 DUP2 MSTORE PUSH1 0x20 ADD DUP3 DUP1 SLOAD PUSH2 0x11BE SWAP1 PUSH2 0x2BCE JUMP JUMPDEST DUP1 ISZERO PUSH2 0x1209 JUMPI DUP1 PUSH1 0x1F LT PUSH2 0x11E0 JUMPI PUSH2 0x100 DUP1 DUP4 SLOAD DIV MUL DUP4 MSTORE SWAP2 PUSH1 0x20 ADD SWAP2 PUSH2 0x1209 JUMP JUMPDEST DUP3 ADD SWAP2 SWAP1 PUSH0 MSTORE PUSH1 0x20 PUSH0 KECCAK256 SWAP1 JUMPDEST DUP2 SLOAD DUP2 MSTORE SWAP1 PUSH1 0x1 ADD SWAP1 PUSH1 0x20 ADD DUP1 DUP4 GT PUSH2 0x11EC JUMPI DUP3 SWAP1 SUB PUSH1 0x1F AND DUP3 ADD SWAP2 JUMPDEST POP POP POP POP POP SWAP1 DUP1 PUSH1 0x3 ADD SLOAD SWAP1 DUP1 PUSH1 0x4 ADD SLOAD SWAP1 DUP1 PUSH1 0x5 ADD SLOAD SWAP1 DUP1 PUSH1 0x6 ADD DUP1 SLOAD PUSH2 0x1230 SWAP1 PUSH2 0x2BCE JUMP JUMPDEST DUP1 PUSH1 0x1F ADD PUSH1 0x20 DUP1 SWAP2 DIV MUL PUSH1 0x20 ADD PUSH1 0x40 MLOAD SWAP1 DUP2 ADD PUSH1 0x40 MSTORE DUP1 SWAP3 SWAP2 SWAP1 DUP2 DUP2 MSTORE PUSH1 0x20 ADD DUP3 DUP1 SLOAD PUSH2 0x125C SWAP1 PUSH2 0x2BCE JUMP JUMPDEST DUP1 ISZERO PUSH2 0x12A7 JUMPI DUP1 PUSH1 0x1F LT PUSH2 0x127E JUMPI PUSH2 0x100 DUP1 DUP4 SLOAD DIV MUL DUP4 MSTORE SWAP2 PUSH1 0x20 ADD SWAP2 PUSH2 0x12A7 JUMP JUMPDEST DUP3 ADD SWAP2 SWAP1 PUSH0 MSTORE PUSH1 0x20 PUSH0 KECCAK256 SWAP1 JUMPDEST DUP2 SLOAD DUP2 MSTORE SWAP1 PUSH1 0x1 ADD SWAP1 PUSH1 0x20 ADD DUP1 DUP4 GT PUSH2 0x128A JUMPI DUP3 SWAP1 SUB PUSH1 0x1F AND DUP3 ADD SWAP2 JUMPDEST POP POP POP POP POP SWAP1 DUP1 PUSH1 0x7 ADD DUP1 SLOAD PUSH2 0x12BC SWAP1 PUSH2 0x2BCE JUMP JUMPDEST DUP1 PUSH1 0x1F ADD PUSH1 0x20 DUP1 SWAP2 DIV MUL PUSH1 0x20 ADD PUSH1 0x40 MLOAD SWAP1 DUP2 ADD PUSH1 0x40 MSTORE DUP1 SWAP3 SWAP2 SWAP1 DUP2 DUP2 MSTORE PUSH1 0x20 ADD DUP3 DUP1 SLOAD PUSH2 0x12E8 SWAP1 PUSH2 0x2BCE JUMP JUMPDEST DUP1 ISZERO PUSH2 0x1333 JUMPI DUP1 PUSH1 0x1F LT PUSH2 0x130A JUMPI PUSH2 0x100 DUP1 DUP4 SLOAD DIV MUL DUP4 MSTORE SWAP2 PUSH1 0x20 ADD SWAP2 PUSH2 0x1333 JUMP JUMPDEST DUP3 ADD SWAP2 SWAP1 PUSH0 MSTORE PUSH1 0x20 PUSH0 KECCAK256 SWAP1 JUMPDEST DUP2 SLOAD DUP2 MSTORE SWAP1 PUSH1 0x1 ADD SWAP1 PUSH1 0x20 ADD DUP1 DUP4 GT PUSH2 0x1316 JUMPI DUP3 SWAP1 SUB PUSH1 0x1F AND DUP3 ADD SWAP2 JUMPDEST POP POP POP POP POP SWAP1 DUP1 PUSH1 0x9 ADD PUSH0 SWAP1 SLOAD SWAP1 PUSH2 0x100 EXP SWAP1 DIV PUSH20 0xFFFFFFFFFFFFFFFFFFFFFFFFFFFFFFFFFFFFFFFF AND SWAP1 DUP1 PUSH1 0xA ADD PUSH0 SWAP1 SLOAD SWAP1 PUSH2 0x100 EXP SWAP1 DIV PUSH20 0xFFFFFFFFFFFFFFFFFFFFFFFFFFFFFFFFFFFFFFFF AND SWAP1 DUP1 PUSH1 0xA ADD PUSH1 0x14 SWAP1 SLOAD SWAP1 PUSH2 0x100 EXP SWAP1 DIV PUSH1 0xFF AND SWAP1 DUP1 PUSH1 0xA ADD PUSH1 0x15 SWAP1 SLOAD SWAP1 PUSH2 0x100 EXP SWAP1 DIV PUSH1 0xFF AND SWAP1 DUP1 PUSH1 0xB ADD PUSH0 SWAP1 SLOAD SWAP1 PUSH2 0x100 EXP SWAP1 DIV PUSH20 0xFFFFFFFFFFFFFFFFFFFFFFFFFFFFFFFFFFFFFFFF AND SWAP1 POP DUP13 JUMP JUMPDEST PUSH1 0x3 PUSH1 0x20 MSTORE DUP1 PUSH0 MSTORE PUSH1 0x40 PUSH0 KECCAK256 PUSH0 SWAP2 POP SLOAD SWAP1 PUSH2 0x100 EXP SWAP1 DIV PUSH1 0xFF AND DUP2 JUMP JUMPDEST PUSH2 0x13F7 PUSH2 0x1E98 JUMP JUMPDEST PUSH0 PUSH1 0x2 PUSH0 DUP7 DUP2 MSTORE PUSH1 0x20 ADD SWAP1 DUP2 MSTORE PUSH1 0x20 ADD PUSH0 KECCAK256 SWAP1 POP DUP1 PUSH1 0xA ADD PUSH0 SWAP1 SLOAD SWAP1 PUSH2 0x100 EXP SWAP1 DIV PUSH20 0xFFFFFFFFFFFFFFFFFFFFFFFFFFFFFFFFFFFFFFFF AND PUSH20 0xFFFFFFFFFFFFFFFFFFFFFFFFFFFFFFFFFFFFFFFF AND CALLER PUSH20 0xFFFFFFFFFFFFFFFFFFFFFFFFFFFFFFFFFFFFFFFF AND EQ PUSH2 0x149C JUMPI PUSH1 0x40 MLOAD PUSH32 0x8C379A000000000000000000000000000000000000000000000000000000000 DUP2 MSTORE PUSH1 0x4 ADD PUSH2 0x1493 SWAP1 PUSH2 0x3464 JUMP JUMPDEST PUSH1 0x40 MLOAD DUP1 SWAP2 SUB SWAP1 REVERT JUMPDEST DUP1 PUSH1 0x3 ADD SLOAD DUP3 GT ISZERO PUSH2 0x14E3 JUMPI PUSH1 0x40 MLOAD PUSH32 0x8C379A000000000000000000000000000000000000000000000000000000000 DUP2 MSTORE PUSH1 0x4 ADD PUSH2 0x14DA SWAP1 PUSH2 0x34CC JUMP JUMPDEST PUSH1 0x40 MLOAD DUP1 SWAP2 SUB SWAP1 REVERT JUMPDEST PUSH0 PUSH20 0xFFFFFFFFFFFFFFFFFFFFFFFFFFFFFFFFFFFFFFFF AND DUP2 PUSH1 0xB ADD PUSH0 SWAP1 SLOAD SWAP1 PUSH2 0x100 EXP SWAP1 DIV PUSH20 0xFFFFFFFFFFFFFFFFFFFFFFFFFFFFFFFFFFFFFFFF AND PUSH20 0xFFFFFFFFFFFFFFFFFFFFFFFFFFFFFFFFFFFFFFFF AND SUB PUSH2 0x162A JUMPI DUP2 SELFBALANCE LT ISZERO PUSH2 0x157C JUMPI PUSH1 0x40 MLOAD PUSH32 0x8C379A000000000000000000000000000000000000000000000000000000000 DUP2 MSTORE PUSH1 0x4 ADD PUSH2 0x1573 SWAP1 PUSH2 0x355A JUMP JUMPDEST PUSH1 0x40 MLOAD DUP1 SWAP2 SUB SWAP1 REVERT JUMPDEST PUSH0 DUP4 PUSH20 0xFFFFFFFFFFFFFFFFFFFFFFFFFFFFFFFFFFFFFFFF AND DUP4 PUSH1 0x40 MLOAD PUSH2 0x15A1 SWAP1 PUSH2 0x3377 JUMP JUMPDEST PUSH0 PUSH1 0x40 MLOAD DUP1 DUP4 SUB DUP2 DUP6 DUP8 GAS CALL SWAP3 POP POP POP RETURNDATASIZE DUP1 PUSH0 DUP2 EQ PUSH2 0x15DB JUMPI PUSH1 0x40 MLOAD SWAP2 POP PUSH1 0x1F NOT PUSH1 0x3F RETURNDATASIZE ADD AND DUP3 ADD PUSH1 0x40 MSTORE RETURNDATASIZE DUP3 MSTORE RETURNDATASIZE PUSH0 PUSH1 0x20 DUP5 ADD RETURNDATACOPY PUSH2 0x15E0 JUMP JUMPDEST PUSH1 0x60 SWAP2 POP JUMPDEST POP POP SWAP1 POP DUP1 PUSH2 0x1624 JUMPI PUSH1 0x40 MLOAD PUSH32 0x8C379A000000000000000000000000000000000000000000000000000000000 DUP2 MSTORE PUSH1 0x4 ADD PUSH2 0x161B SWAP1 PUSH2 0x33D5 JUMP JUMPDEST PUSH1 0x40 MLOAD DUP1 SWAP2 SUB SWAP1 REVERT JUMPDEST POP PUSH2 0x1738 JUMP JUMPDEST PUSH0 DUP2 PUSH1 0xB ADD PUSH0 SWAP1 SLOAD SWAP1 PUSH2 0x100 EXP SWAP1 DIV PUSH20 0xFFFFFFFFFFFFFFFFFFFFFFFFFFFFFFFFFFFFFFFF AND SWAP1 POP DUP3 DUP2 PUSH20 0xFFFFFFFFFFFFFFFFFFFFFFFFFFFFFFFFFFFFFFFF AND PUSH4 0x70A08231 ADDRESS PUSH1 0x40 MLOAD DUP3 PUSH4 0xFFFFFFFF AND PUSH1 0xE0 SHL DUP2 MSTORE PUSH1 0x4 ADD PUSH2 0x168B SWAP2 SWAP1 PUSH2 0x28B4 JUMP JUMPDEST PUSH1 0x20 PUSH1 0x40 MLOAD DUP1 DUP4 SUB DUP2 DUP7 GAS STATICCALL ISZERO DUP1 ISZERO PUSH2 0x16A6 JUMPI RETURNDATASIZE PUSH0 PUSH0 RETURNDATACOPY RETURNDATASIZE PUSH0 REVERT JUMPDEST POP POP POP POP PUSH1 0x40 MLOAD RETURNDATASIZE PUSH1 0x1F NOT PUSH1 0x1F DUP3 ADD AND DUP3 ADD DUP1 PUSH1 0x40 MSTORE POP DUP2 ADD SWAP1 PUSH2 0x16CA SWAP2 SWAP1 PUSH2 0x2C12 JUMP JUMPDEST LT ISZERO PUSH2 0x170B JUMPI PUSH1 0x40 MLOAD PUSH32 0x8C379A000000000000000000000000000000000000000000000000000000000 DUP2 MSTORE PUSH1 0x4 ADD PUSH2 0x1702 SWAP1 PUSH2 0x35E8 JUMP JUMPDEST PUSH1 0x40 MLOAD DUP1 SWAP2 SUB SWAP1 REVERT JUMPDEST PUSH2 0x1736 DUP5 DUP5 DUP4 PUSH20 0xFFFFFFFFFFFFFFFFFFFFFFFFFFFFFFFFFFFFFFFF AND PUSH2 0x1E12 SWAP1 SWAP3 SWAP2 SWAP1 PUSH4 0xFFFFFFFF AND JUMP JUMPDEST POP JUMPDEST DUP2 DUP2 PUSH1 0x3 ADD PUSH0 DUP3 DUP3 SLOAD PUSH2 0x174B SWAP2 SWAP1 PUSH2 0x3606 JUMP JUMPDEST SWAP3 POP POP DUP2 SWAP1 SSTORE POP DUP3 PUSH20 0xFFFFFFFFFFFFFFFFFFFFFFFFFFFFFFFFFFFFFFFF AND DUP5 PUSH1 0x40 MLOAD PUSH2 0x1777 SWAP2 SWAP1 PUSH2 0x3673 JUMP JUMPDEST PUSH1 0x40 MLOAD DUP1 SWAP2 SUB SWAP1 KECCAK256 DUP7 PUSH32 0x555B83C563488D2669FDF07D7A266EDB2EDD33C3EA9AA61761F5B5365CA69884 DUP6 DUP6 PUSH1 0xB ADD PUSH0 SWAP1 SLOAD SWAP1 PUSH2 0x100 EXP SWAP1 DIV PUSH20 0xFFFFFFFFFFFFFFFFFFFFFFFFFFFFFFFFFFFFFFFF AND PUSH1 0x40 MLOAD PUSH2 0x17D4 SWAP3 SWAP2 SWAP1 PUSH2 0x319A JUMP JUMPDEST PUSH1 0x40 MLOAD DUP1 SWAP2 SUB SWAP1 LOG4 POP PUSH2 0x17E5 PUSH2 0x1EE7 JUMP JUMPDEST POP POP POP POP JUMP JUMPDEST PUSH2 0x17F3 PUSH2 0x1C4A JUMP JUMPDEST PUSH0 PUSH20 0xFFFFFFFFFFFFFFFFFFFFFFFFFFFFFFFFFFFFFFFF AND DUP2 PUSH20 0xFFFFFFFFFFFFFFFFFFFFFFFFFFFFFFFFFFFFFFFF AND SUB PUSH2 0x1861 JUMPI PUSH1 0x40 MLOAD PUSH32 0x8C379A000000000000000000000000000000000000000000000000000000000 DUP2 MSTORE PUSH1 0x4 ADD PUSH2 0x1858 SWAP1 PUSH2 0x36F9 JUMP JUMPDEST PUSH1 0x40 MLOAD DUP1 SWAP2 SUB SWAP1 REVERT JUMPDEST PUSH2 0x186A DUP2 PUSH2 0x1CC8 JUMP JUMPDEST POP JUMP JUMPDEST PUSH2 0x1875 PUSH2 0x1E98 JUMP JUMPDEST PUSH0 PUSH1 0x2 PUSH0 DUP4 DUP2 MSTORE PUSH1 0x20 ADD SWAP1 DUP2 MSTORE PUSH1 0x20 ADD PUSH0 KECCAK256 SWAP1 POP DUP1 PUSH1 0x5 ADD SLOAD TIMESTAMP GT PUSH2 0x18CF JUMPI PUSH1 0x40 MLOAD PUSH32 0x8C379A000000000000000000000000000000000000000000000000000000000 DUP2 MSTORE PUSH1 0x4 ADD PUSH2 0x18C6 SWAP1 PUSH2 0x3761 JUMP JUMPDEST PUSH1 0x40 MLOAD DUP1 SWAP2 SUB SWAP1 REVERT JUMPDEST DUP1 PUSH1 0x9 ADD PUSH0 SWAP1 SLOAD SWAP1 PUSH2 0x100 EXP SWAP1 DIV PUSH20 0xFFFFFFFFFFFFFFFFFFFFFFFFFFFFFFFFFFFFFFFF AND PUSH20 0xFFFFFFFFFFFFFFFFFFFFFFFFFFFFFFFFFFFFFFFF AND CALLER PUSH20 0xFFFFFFFFFFFFFFFFFFFFFFFFFFFFFFFFFFFFFFFF AND EQ PUSH2 0x1960 JUMPI PUSH1 0x40 MLOAD PUSH32 0x8C379A000000000000000000000000000000000000000000000000000000000 DUP2 MSTORE PUSH1 0x4 ADD PUSH2 0x1957 SWAP1 PUSH2 0x37C9 JUMP JUMPDEST PUSH1 0x40 MLOAD DUP1 SWAP2 SUB SWAP1 REVERT JUMPDEST DUP1 PUSH1 0xA ADD PUSH1 0x15 SWAP1 SLOAD SWAP1 PUSH2 0x100 EXP SWAP1 DIV PUSH1 0xFF AND ISZERO PUSH2 0x19B2 JUMPI PUSH1 0x40 MLOAD PUSH32 0x8C379A000000000000000000000000000000000000000000000000000000000 DUP2 MSTORE PUSH1 0x4 ADD PUSH2 0x19A9 SWAP1 PUSH2 0x3831 JUMP JUMPDEST PUSH1 0x40 MLOAD DUP1 SWAP2 SUB SWAP1 REVERT JUMPDEST PUSH0 DUP2 PUSH1 0x3 ADD SLOAD SWAP1 POP PUSH0 DUP2 GT PUSH2 0x19FC JUMPI PUSH1 0x40 MLOAD PUSH32 0x8C379A000000000000000000000000000000000000000000000000000000000 DUP2 MSTORE PUSH1 0x4 ADD PUSH2 0x19F3 SWAP1 PUSH2 0x3899 JUMP JUMPDEST PUSH1 0x40 MLOAD DUP1 SWAP2 SUB SWAP1 REVERT JUMPDEST PUSH1 0x1 DUP3 PUSH1 0xA ADD PUSH1 0x15 PUSH2 0x100 EXP DUP2 SLOAD DUP2 PUSH1 0xFF MUL NOT AND SWAP1 DUP4 ISZERO ISZERO MUL OR SWAP1 SSTORE POP PUSH0 DUP3 PUSH1 0x3 ADD DUP2 SWAP1 SSTORE POP PUSH0 PUSH20 0xFFFFFFFFFFFFFFFFFFFFFFFFFFFFFFFFFFFFFFFF AND DUP3 PUSH1 0xB ADD PUSH0 SWAP1 SLOAD SWAP1 PUSH2 0x100 EXP SWAP1 DIV PUSH20 0xFFFFFFFFFFFFFFFFFFFFFFFFFFFFFFFFFFFFFFFF AND PUSH20 0xFFFFFFFFFFFFFFFFFFFFFFFFFFFFFFFFFFFFFFFF AND SUB PUSH2 0x1B49 JUMPI PUSH0 DUP3 PUSH1 0x9 ADD PUSH0 SWAP1 SLOAD SWAP1 PUSH2 0x100 EXP SWAP1 DIV PUSH20 0xFFFFFFFFFFFFFFFFFFFFFFFFFFFFFFFFFFFFFFFF AND PUSH20 0xFFFFFFFFFFFFFFFFFFFFFFFFFFFFFFFFFFFFFFFF AND DUP3 PUSH1 0x40 MLOAD PUSH2 0x1AC0 SWAP1 PUSH2 0x3377 JUMP JUMPDEST PUSH0 PUSH1 0x40 MLOAD DUP1 DUP4 SUB DUP2 DUP6 DUP8 GAS CALL SWAP3 POP POP POP RETURNDATASIZE DUP1 PUSH0 DUP2 EQ PUSH2 0x1AFA JUMPI PUSH1 0x40 MLOAD SWAP2 POP PUSH1 0x1F NOT PUSH1 0x3F RETURNDATASIZE ADD AND DUP3 ADD PUSH1 0x40 MSTORE RETURNDATASIZE DUP3 MSTORE RETURNDATASIZE PUSH0 PUSH1 0x20 DUP5 ADD RETURNDATACOPY PUSH2 0x1AFF JUMP JUMPDEST PUSH1 0x60 SWAP2 POP JUMPDEST POP POP SWAP1 POP DUP1 PUSH2 0x1B43 JUMPI PUSH1 0x40 MLOAD PUSH32 0x8C379A000000000000000000000000000000000000000000000000000000000 DUP2 MSTORE PUSH1 0x4 ADD PUSH2 0x1B3A SWAP1 PUSH2 0x33D5 JUMP JUMPDEST PUSH1 0x40 MLOAD DUP1 SWAP2 SUB SWAP1 REVERT JUMPDEST POP PUSH2 0x1BBB JUMP JUMPDEST PUSH2 0x1BBA DUP3 PUSH1 0x9 ADD PUSH0 SWAP1 SLOAD SWAP1 PUSH2 0x100 EXP SWAP1 DIV PUSH20 0xFFFFFFFFFFFFFFFFFFFFFFFFFFFFFFFFFFFFFFFF AND DUP3 DUP5 PUSH1 0xB ADD PUSH0 SWAP1 SLOAD SWAP1 PUSH2 0x100 EXP SWAP1 DIV PUSH20 0xFFFFFFFFFFFFFFFFFFFFFFFFFFFFFFFFFFFFFFFF AND PUSH20 0xFFFFFFFFFFFFFFFFFFFFFFFFFFFFFFFFFFFFFFFF AND PUSH2 0x1E12 SWAP1 SWAP3 SWAP2 SWAP1 PUSH4 0xFFFFFFFF AND JUMP JUMPDEST JUMPDEST DUP3 PUSH32 0xDF220AFDA5D5D16927C8D84713AF8457F72E8BD4AF288509A77C48754F4ACD90 DUP4 PUSH1 0x9 ADD PUSH0 SWAP1 SLOAD SWAP1 PUSH2 0x100 EXP SWAP1 DIV PUSH20 0xFFFFFFFFFFFFFFFFFFFFFFFFFFFFFFFFFFFFFFFF AND DUP4 DUP6 PUSH1 0xB ADD PUSH0 SWAP1 SLOAD SWAP1 PUSH2 0x100 EXP SWAP1 DIV PUSH20 0xFFFFFFFFFFFFFFFFFFFFFFFFFFFFFFFFFFFFFFFF AND PUSH1 0x40 MLOAD PUSH2 0x1C35 SWAP4 SWAP3 SWAP2 SWAP1 PUSH2 0x38B7 JUMP JUMPDEST PUSH1 0x40 MLOAD DUP1 SWAP2 SUB SWAP1 LOG2 POP POP PUSH2 0x1C47 PUSH2 0x1EE7 JUMP JUMPDEST POP JUMP JUMPDEST PUSH2 0x1C52 PUSH2 0x1EF0 JUMP JUMPDEST PUSH20 0xFFFFFFFFFFFFFFFFFFFFFFFFFFFFFFFFFFFFFFFF AND PUSH2 0x1C70 PUSH2 0xE31 JUMP JUMPDEST PUSH20 0xFFFFFFFFFFFFFFFFFFFFFFFFFFFFFFFFFFFFFFFF AND EQ PUSH2 0x1CC6 JUMPI PUSH1 0x40 MLOAD PUSH32 0x8C379A000000000000000000000000000000000000000000000000000000000 DUP2 MSTORE PUSH1 0x4 ADD PUSH2 0x1CBD SWAP1 PUSH2 0x3936 JUMP JUMPDEST PUSH1 0x40 MLOAD DUP1 SWAP2 SUB SWAP1 REVERT JUMPDEST JUMP JUMPDEST PUSH0 PUSH0 PUSH0 SWAP1 SLOAD SWAP1 PUSH2 0x100 EXP SWAP1 DIV PUSH20 0xFFFFFFFFFFFFFFFFFFFFFFFFFFFFFFFFFFFFFFFF AND SWAP1 POP DUP2 PUSH0 PUSH0 PUSH2 0x100 EXP DUP2 SLOAD DUP2 PUSH20 0xFFFFFFFFFFFFFFFFFFFFFFFFFFFFFFFFFFFFFFFF MUL NOT AND SWAP1 DUP4 PUSH20 0xFFFFFFFFFFFFFFFFFFFFFFFFFFFFFFFFFFFFFFFF AND MUL OR SWAP1 SSTORE POP DUP2 PUSH20 0xFFFFFFFFFFFFFFFFFFFFFFFFFFFFFFFFFFFFFFFF AND DUP2 PUSH20 0xFFFFFFFFFFFFFFFFFFFFFFFFFFFFFFFFFFFFFFFF AND PUSH32 0x8BE0079C531659141344CD1FD0A4F28419497F9722A3DAAFE3B4186F6B6457E0 PUSH1 0x40 MLOAD PUSH1 0x40 MLOAD DUP1 SWAP2 SUB SWAP1 LOG3 POP POP JUMP JUMPDEST PUSH2 0x1E0C DUP5 PUSH4 0x23B872DD PUSH1 0xE0 SHL DUP6 DUP6 DUP6 PUSH1 0x40 MLOAD PUSH1 0x24 ADD PUSH2 0x1DAA SWAP4 SWAP3 SWAP2 SWAP1 PUSH2 0x3954 JUMP JUMPDEST PUSH1 0x40 MLOAD PUSH1 0x20 DUP2 DUP4 SUB SUB DUP2 MSTORE SWAP1 PUSH1 0x40 MSTORE SWAP1 PUSH28 0xFFFFFFFFFFFFFFFFFFFFFFFFFFFFFFFFFFFFFFFFFFFFFFFFFFFFFFFF NOT AND PUSH1 0x20 DUP3 ADD DUP1 MLOAD PUSH28 0xFFFFFFFFFFFFFFFFFFFFFFFFFFFFFFFFFFFFFFFFFFFFFFFFFFFFFFFF DUP4 DUP2 DUP4 AND OR DUP4 MSTORE POP POP POP POP PUSH2 0x1EF7 JUMP JUMPDEST POP POP POP POP JUMP JUMPDEST PUSH2 0x1E93 DUP4 PUSH4 0xA9059CBB PUSH1 0xE0 SHL DUP5 DUP5 PUSH1 0x40 MLOAD PUSH1 0x24 ADD PUSH2 0x1E31 SWAP3 SWAP2 SWAP1 PUSH2 0x3989 JUMP JUMPDEST PUSH1 0x40 MLOAD PUSH1 0x20 DUP2 DUP4 SUB SUB DUP2 MSTORE SWAP1 PUSH1 0x40 MSTORE SWAP1 PUSH28 0xFFFFFFFFFFFFFFFFFFFFFFFFFFFFFFFFFFFFFFFFFFFFFFFFFFFFFFFF NOT AND PUSH1 0x20 DUP3 ADD DUP1 MLOAD PUSH28 0xFFFFFFFFFFFFFFFFFFFFFFFFFFFFFFFFFFFFFFFFFFFFFFFFFFFFFFFF DUP4 DUP2 DUP4 AND OR DUP4 MSTORE POP POP POP POP PUSH2 0x1EF7 JUMP JUMPDEST POP POP POP JUMP JUMPDEST PUSH1 0x2 PUSH1 0x1 SLOAD SUB PUSH2 0x1EDD JUMPI PUSH1 0x40 MLOAD PUSH32 0x8C379A000000000000000000000000000000000000000000000000000000000 DUP2 MSTORE PUSH1 0x4 ADD PUSH2 0x1ED4 SWAP1 PUSH2 0x39FA JUMP JUMPDEST PUSH1 0x40 MLOAD DUP1 SWAP2 SUB SWAP1 REVERT JUMPDEST PUSH1 0x2 PUSH1 0x1 DUP2 SWAP1 SSTORE POP JUMP JUMPDEST PUSH1 0x1 DUP1 DUP2 SWAP1 SSTORE POP JUMP JUMPDEST PUSH0 CALLER SWAP1 POP SWAP1 JUMP JUMPDEST PUSH0 PUSH2 0x1F58 DUP3 PUSH1 0x40 MLOAD DUP1 PUSH1 0x40 ADD PUSH1 0x40 MSTORE DUP1 PUSH1 0x20 DUP2 MSTORE PUSH1 0x20 ADD PUSH32 0x5361666545524332303A206C6F772D6C6576656C2063616C6C206661696C6564 DUP2 MSTORE POP DUP6 PUSH20 0xFFFFFFFFFFFFFFFFFFFFFFFFFFFFFFFFFFFFFFFF AND PUSH2 0x1FBD SWAP1 SWAP3 SWAP2 SWAP1 PUSH4 0xFFFFFFFF AND JUMP JUMPDEST SWAP1 POP PUSH0 DUP2 MLOAD EQ DUP1 PUSH2 0x1F79 JUMPI POP DUP1 DUP1 PUSH1 0x20 ADD SWAP1 MLOAD DUP2 ADD SWAP1 PUSH2 0x1F78 SWAP2 SWAP1 PUSH2 0x3A2C JUMP JUMPDEST JUMPDEST PUSH2 0x1FB8 JUMPI PUSH1 0x40 MLOAD PUSH32 0x8C379A000000000000000000000000000000000000000000000000000000000 DUP2 MSTORE PUSH1 0x4 ADD PUSH2 0x1FAF SWAP1 PUSH2 0x3AC7 JUMP JUMPDEST PUSH1 0x40 MLOAD DUP1 SWAP2 SUB SWAP1 REVERT JUMPDEST POP POP POP JUMP JUMPDEST PUSH1 0x60 PUSH2 0x1FCB DUP5 DUP5 PUSH0 DUP6 PUSH2 0x1FD4 JUMP JUMPDEST SWAP1 POP SWAP4 SWAP3 POP POP POP JUMP JUMPDEST PUSH1 0x60 DUP3 SELFBALANCE LT ISZERO PUSH2 0x2019 JUMPI PUSH1 0x40 MLOAD PUSH32 0x8C379A000000000000000000000000000000000000000000000000000000000 DUP2 MSTORE PUSH1 0x4 ADD PUSH2 0x2010 SWAP1 PUSH2 0x3B55 JUMP JUMPDEST PUSH1 0x40 MLOAD DUP1 SWAP2 SUB SWAP1 REVERT JUMPDEST PUSH0 PUSH0 DUP7 PUSH20 0xFFFFFFFFFFFFFFFFFFFFFFFFFFFFFFFFFFFFFFFF AND DUP6 DUP8 PUSH1 0x40 MLOAD PUSH2 0x2041 SWAP2 SWAP1 PUSH2 0x3BAD JUMP JUMPDEST PUSH0 PUSH1 0x40 MLOAD DUP1 DUP4 SUB DUP2 DUP6 DUP8 GAS CALL SWAP3 POP POP POP RETURNDATASIZE DUP1 PUSH0 DUP2 EQ PUSH2 0x207B JUMPI PUSH1 0x40 MLOAD SWAP2 POP PUSH1 0x1F NOT PUSH1 0x3F RETURNDATASIZE ADD AND DUP3 ADD PUSH1 0x40 MSTORE RETURNDATASIZE DUP3 MSTORE RETURNDATASIZE PUSH0 PUSH1 0x20 DUP5 ADD RETURNDATACOPY PUSH2 0x2080 JUMP JUMPDEST PUSH1 0x60 SWAP2 POP JUMPDEST POP SWAP2 POP SWAP2 POP PUSH2 0x2091 DUP8 DUP4 DUP4 DUP8 PUSH2 0x209D JUMP JUMPDEST SWAP3 POP POP POP SWAP5 SWAP4 POP POP POP POP JUMP JUMPDEST PUSH1 0x60 DUP4 ISZERO PUSH2 0x20FE JUMPI PUSH0 DUP4 MLOAD SUB PUSH2 0x20F6 JUMPI PUSH2 0x20B6 DUP6 PUSH2 0x2111 JUMP JUMPDEST PUSH2 0x20F5 JUMPI PUSH1 0x40 MLOAD PUSH32 0x8C379A000000000000000000000000000000000000000000000000000000000 DUP2 MSTORE PUSH1 0x4 ADD PUSH2 0x20EC SWAP1 PUSH2 0x3C0D JUMP JUMPDEST PUSH1 0x40 MLOAD DUP1 SWAP2 SUB SWAP1 REVERT JUMPDEST JUMPDEST DUP3 SWAP1 POP PUSH2 0x2109 JUMP JUMPDEST PUSH2 0x2108 DUP4 DUP4 PUSH2 0x2133 JUMP JUMPDEST JUMPDEST SWAP5 SWAP4 POP POP POP POP JUMP JUMPDEST PUSH0 PUSH0 DUP3 PUSH20 0xFFFFFFFFFFFFFFFFFFFFFFFFFFFFFFFFFFFFFFFF AND EXTCODESIZE GT SWAP1 POP SWAP2 SWAP1 POP JUMP JUMPDEST PUSH0 DUP3 MLOAD GT ISZERO PUSH2 0x2145 JUMPI DUP2 MLOAD DUP1 DUP4 PUSH1 0x20 ADD REVERT JUMPDEST DUP1 PUSH1 0x40 MLOAD PUSH32 0x8C379A000000000000000000000000000000000000000000000000000000000 DUP2 MSTORE PUSH1 0x4 ADD PUSH2 0x2179 SWAP2 SWAP1 PUSH2 0x3C2B JUMP JUMPDEST PUSH1 0x40 MLOAD DUP1 SWAP2 SUB SWAP1 REVERT JUMPDEST DUP3 DUP1 SLOAD DUP3 DUP3 SSTORE SWAP1 PUSH0 MSTORE PUSH1 0x20 PUSH0 KECCAK256 SWAP1 DUP2 ADD SWAP3 DUP3 ISZERO PUSH2 0x21C8 JUMPI SWAP2 PUSH1 0x20 MUL DUP3 ADD JUMPDEST DUP3 DUP2 GT ISZERO PUSH2 0x21C7 JUMPI DUP3 MLOAD DUP3 SWAP1 DUP2 PUSH2 0x21B7 SWAP2 SWAP1 PUSH2 0x3057 JUMP JUMPDEST POP SWAP2 PUSH1 0x20 ADD SWAP2 SWAP1 PUSH1 0x1 ADD SWAP1 PUSH2 0x21A0 JUMP JUMPDEST JUMPDEST POP SWAP1 POP PUSH2 0x21D5 SWAP2 SWAP1 PUSH2 0x21D9 JUMP JUMPDEST POP SWAP1 JUMP JUMPDEST JUMPDEST DUP1 DUP3 GT ISZERO PUSH2 0x21F8 JUMPI PUSH0 DUP2 DUP2 PUSH2 0x21EF SWAP2 SWAP1 PUSH2 0x21FC JUMP JUMPDEST POP PUSH1 0x1 ADD PUSH2 0x21DA JUMP JUMPDEST POP SWAP1 JUMP JUMPDEST POP DUP1 SLOAD PUSH2 0x2208 SWAP1 PUSH2 0x2BCE JUMP JUMPDEST PUSH0 DUP3 SSTORE DUP1 PUSH1 0x1F LT PUSH2 0x2219 JUMPI POP PUSH2 0x2236 JUMP JUMPDEST PUSH1 0x1F ADD PUSH1 0x20 SWAP1 DIV SWAP1 PUSH0 MSTORE PUSH1 0x20 PUSH0 KECCAK256 SWAP1 DUP2 ADD SWAP1 PUSH2 0x2235 SWAP2 SWAP1 PUSH2 0x2239 JUMP JUMPDEST JUMPDEST POP JUMP JUMPDEST JUMPDEST DUP1 DUP3 GT ISZERO PUSH2 0x2250 JUMPI PUSH0 DUP2 PUSH0 SWAP1 SSTORE POP PUSH1 0x1 ADD PUSH2 0x223A JUMP JUMPDEST POP SWAP1 JUMP JUMPDEST PUSH0 PUSH1 0x40 MLOAD SWAP1 POP SWAP1 JUMP JUMPDEST PUSH0 PUSH0 REVERT JUMPDEST PUSH0 PUSH0 REVERT JUMPDEST PUSH0 DUP2 SWAP1 POP SWAP2 SWAP1 POP JUMP JUMPDEST PUSH2 0x2277 DUP2 PUSH2 0x2265 JUMP JUMPDEST DUP2 EQ PUSH2 0x2281 JUMPI PUSH0 PUSH0 REVERT JUMPDEST POP JUMP JUMPDEST PUSH0 DUP2 CALLDATALOAD SWAP1 POP PUSH2 0x2292 DUP2 PUSH2 0x226E JUMP JUMPDEST SWAP3 SWAP2 POP POP JUMP JUMPDEST PUSH0 PUSH1 0x20 DUP3 DUP5 SUB SLT ISZERO PUSH2 0x22AD JUMPI PUSH2 0x22AC PUSH2 0x225D JUMP JUMPDEST JUMPDEST PUSH0 PUSH2 0x22BA DUP5 DUP3 DUP6 ADD PUSH2 0x2284 JUMP JUMPDEST SWAP2 POP POP SWAP3 SWAP2 POP POP JUMP JUMPDEST PUSH0 DUP2 MLOAD SWAP1 POP SWAP2 SWAP1 POP JUMP JUMPDEST PUSH0 DUP3 DUP3 MSTORE PUSH1 0x20 DUP3 ADD SWAP1 POP SWAP3 SWAP2 POP POP JUMP JUMPDEST PUSH0 DUP2 SWAP1 POP PUSH1 0x20 DUP3 ADD SWAP1 POP SWAP2 SWAP1 POP JUMP JUMPDEST PUSH0 DUP2 MLOAD SWAP1 POP SWAP2 SWAP1 POP JUMP JUMPDEST PUSH0 DUP3 DUP3 MSTORE PUSH1 0x20 DUP3 ADD SWAP1 POP SWAP3 SWAP2 POP POP JUMP JUMPDEST DUP3 DUP2 DUP4 MCOPY PUSH0 DUP4 DUP4 ADD MSTORE POP POP POP JUMP JUMPDEST PUSH0 PUSH1 0x1F NOT PUSH1 0x1F DUP4 ADD AND SWAP1 POP SWAP2 SWAP1 POP JUMP JUMPDEST PUSH0 PUSH2 0x232E DUP3 PUSH2 0x22EC JUMP JUMPDEST PUSH2 0x2338 DUP2 DUP6 PUSH2 0x22F6 JUMP JUMPDEST SWAP4 POP PUSH2 0x2348 DUP2 DUP6 PUSH1 0x20 DUP7 ADD PUSH2 0x2306 JUMP JUMPDEST PUSH2 0x2351 DUP2 PUSH2 0x2314 JUMP JUMPDEST DUP5 ADD SWAP2 POP POP SWAP3 SWAP2 POP POP JUMP JUMPDEST PUSH0 PUSH2 0x2367 DUP4 DUP4 PUSH2 0x2324 JUMP JUMPDEST SWAP1 POP SWAP3 SWAP2 POP POP JUMP JUMPDEST PUSH0 PUSH1 0x20 DUP3 ADD SWAP1 POP SWAP2 SWAP1 POP JUMP JUMPDEST PUSH0 PUSH2 0x2385 DUP3 PUSH2 0x22C3 JUMP JUMPDEST PUSH2 0x238F DUP2 DUP6 PUSH2 0x22CD JUMP JUMPDEST SWAP4 POP DUP4 PUSH1 0x20 DUP3 MUL DUP6 ADD PUSH2 0x23A1 DUP6 PUSH2 0x22DD JUMP JUMPDEST DUP1 PUSH0 JUMPDEST DUP6 DUP2 LT ISZERO PUSH2 0x23DC JUMPI DUP5 DUP5 SUB DUP10 MSTORE DUP2 MLOAD PUSH2 0x23BD DUP6 DUP3 PUSH2 0x235C JUMP JUMPDEST SWAP5 POP PUSH2 0x23C8 DUP4 PUSH2 0x236F JUMP JUMPDEST SWAP3 POP PUSH1 0x20 DUP11 ADD SWAP10 POP POP PUSH1 0x1 DUP2 ADD SWAP1 POP PUSH2 0x23A4 JUMP JUMPDEST POP DUP3 SWAP8 POP DUP8 SWAP6 POP POP POP POP POP POP SWAP3 SWAP2 POP POP JUMP JUMPDEST PUSH0 PUSH1 0x20 DUP3 ADD SWAP1 POP DUP2 DUP2 SUB PUSH0 DUP4 ADD MSTORE PUSH2 0x2406 DUP2 DUP5 PUSH2 0x237B JUMP JUMPDEST SWAP1 POP SWAP3 SWAP2 POP POP JUMP JUMPDEST PUSH0 PUSH20 0xFFFFFFFFFFFFFFFFFFFFFFFFFFFFFFFFFFFFFFFF DUP3 AND SWAP1 POP SWAP2 SWAP1 POP JUMP JUMPDEST PUSH0 PUSH2 0x2437 DUP3 PUSH2 0x240E JUMP JUMPDEST SWAP1 POP SWAP2 SWAP1 POP JUMP JUMPDEST PUSH2 0x2447 DUP2 PUSH2 0x242D JUMP JUMPDEST DUP2 EQ PUSH2 0x2451 JUMPI PUSH0 PUSH0 REVERT JUMPDEST POP JUMP JUMPDEST PUSH0 DUP2 CALLDATALOAD SWAP1 POP PUSH2 0x2462 DUP2 PUSH2 0x243E JUMP JUMPDEST SWAP3 SWAP2 POP POP JUMP JUMPDEST PUSH0 PUSH1 0x20 DUP3 DUP5 SUB SLT ISZERO PUSH2 0x247D JUMPI PUSH2 0x247C PUSH2 0x225D JUMP JUMPDEST JUMPDEST PUSH0 PUSH2 0x248A DUP5 DUP3 DUP6 ADD PUSH2 0x2454 JUMP JUMPDEST SWAP2 POP POP SWAP3 SWAP2 POP POP JUMP JUMPDEST PUSH2 0x249C DUP2 PUSH2 0x2265 JUMP JUMPDEST DUP3 MSTORE POP POP JUMP JUMPDEST PUSH0 PUSH1 0x20 DUP3 ADD SWAP1 POP PUSH2 0x24B5 PUSH0 DUP4 ADD DUP5 PUSH2 0x2493 JUMP JUMPDEST SWAP3 SWAP2 POP POP JUMP JUMPDEST PUSH0 PUSH0 REVERT JUMPDEST PUSH0 PUSH0 REVERT JUMPDEST PUSH32 0x4E487B7100000000000000000000000000000000000000000000000000000000 PUSH0 MSTORE PUSH1 0x41 PUSH1 0x4 MSTORE PUSH1 0x24 PUSH0 REVERT JUMPDEST PUSH2 0x24F9 DUP3 PUSH2 0x2314 JUMP JUMPDEST DUP2 ADD DUP2 DUP2 LT PUSH8 0xFFFFFFFFFFFFFFFF DUP3 GT OR ISZERO PUSH2 0x2518 JUMPI PUSH2 0x2517 PUSH2 0x24C3 JUMP JUMPDEST JUMPDEST DUP1 PUSH1 0x40 MSTORE POP POP POP JUMP JUMPDEST PUSH0 PUSH2 0x252A PUSH2 0x2254 JUMP JUMPDEST SWAP1 POP PUSH2 0x2536 DUP3 DUP3 PUSH2 0x24F0 JUMP JUMPDEST SWAP2 SWAP1 POP JUMP JUMPDEST PUSH0 PUSH8 0xFFFFFFFFFFFFFFFF DUP3 GT ISZERO PUSH2 0x2555 JUMPI PUSH2 0x2554 PUSH2 0x24C3 JUMP JUMPDEST JUMPDEST PUSH2 0x255E DUP3 PUSH2 0x2314 JUMP JUMPDEST SWAP1 POP PUSH1 0x20 DUP2 ADD SWAP1 POP SWAP2 SWAP1 POP JUMP JUMPDEST DUP3 DUP2 DUP4 CALLDATACOPY PUSH0 DUP4 DUP4 ADD MSTORE POP POP POP JUMP JUMPDEST PUSH0 PUSH2 0x258B PUSH2 0x2586 DUP5 PUSH2 0x253B JUMP JUMPDEST PUSH2 0x2521 JUMP JUMPDEST SWAP1 POP DUP3 DUP2 MSTORE PUSH1 0x20 DUP2 ADD DUP5 DUP5 DUP5 ADD GT ISZERO PUSH2 0x25A7 JUMPI PUSH2 0x25A6 PUSH2 0x24BF JUMP JUMPDEST JUMPDEST PUSH2 0x25B2 DUP5 DUP3 DUP6 PUSH2 0x256B JUMP JUMPDEST POP SWAP4 SWAP3 POP POP POP JUMP JUMPDEST PUSH0 DUP3 PUSH1 0x1F DUP4 ADD SLT PUSH2 0x25CE JUMPI PUSH2 0x25CD PUSH2 0x24BB JUMP JUMPDEST JUMPDEST DUP2 CALLDATALOAD PUSH2 0x25DE DUP5 DUP3 PUSH1 0x20 DUP7 ADD PUSH2 0x2579 JUMP JUMPDEST SWAP2 POP POP SWAP3 SWAP2 POP POP JUMP JUMPDEST PUSH0 PUSH8 0xFFFFFFFFFFFFFFFF DUP3 GT ISZERO PUSH2 0x2601 JUMPI PUSH2 0x2600 PUSH2 0x24C3 JUMP JUMPDEST JUMPDEST PUSH1 0x20 DUP3 MUL SWAP1 POP PUSH1 0x20 DUP2 ADD SWAP1 POP SWAP2 SWAP1 POP JUMP JUMPDEST PUSH0 PUSH0 REVERT JUMPDEST PUSH0 PUSH2 0x2628 PUSH2 0x2623 DUP5 PUSH2 0x25E7 JUMP JUMPDEST PUSH2 0x2521 JUMP JUMPDEST SWAP1 POP DUP1 DUP4 DUP3 MSTORE PUSH1 0x20 DUP3 ADD SWAP1 POP PUSH1 0x20 DUP5 MUL DUP4 ADD DUP6 DUP2 GT ISZERO PUSH2 0x264B JUMPI PUSH2 0x264A PUSH2 0x2612 JUMP JUMPDEST JUMPDEST DUP4 JUMPDEST DUP2 DUP2 LT ISZERO PUSH2 0x2692 JUMPI DUP1 CALLDATALOAD PUSH8 0xFFFFFFFFFFFFFFFF DUP2 GT ISZERO PUSH2 0x2670 JUMPI PUSH2 0x266F PUSH2 0x24BB JUMP JUMPDEST JUMPDEST DUP1 DUP7 ADD PUSH2 0x267D DUP10 DUP3 PUSH2 0x25BA JUMP JUMPDEST DUP6 MSTORE PUSH1 0x20 DUP6 ADD SWAP5 POP POP POP PUSH1 0x20 DUP2 ADD SWAP1 POP PUSH2 0x264D JUMP JUMPDEST POP POP POP SWAP4 SWAP3 POP POP POP JUMP JUMPDEST PUSH0 DUP3 PUSH1 0x1F DUP4 ADD SLT PUSH2 0x26B0 JUMPI PUSH2 0x26AF PUSH2 0x24BB JUMP JUMPDEST JUMPDEST DUP2 CALLDATALOAD PUSH2 0x26C0 DUP5 DUP3 PUSH1 0x20 DUP7 ADD PUSH2 0x2616 JUMP JUMPDEST SWAP2 POP POP SWAP3 SWAP2 POP POP JUMP JUMPDEST PUSH0 PUSH0 PUSH0 PUSH0 PUSH0 PUSH0 PUSH0 PUSH0 PUSH0 PUSH0 PUSH2 0x140 DUP12 DUP14 SUB SLT ISZERO PUSH2 0x26E8 JUMPI PUSH2 0x26E7 PUSH2 0x225D JUMP JUMPDEST JUMPDEST PUSH0 DUP12 ADD CALLDATALOAD PUSH8 0xFFFFFFFFFFFFFFFF DUP2 GT ISZERO PUSH2 0x2705 JUMPI PUSH2 0x2704 PUSH2 0x2261 JUMP JUMPDEST JUMPDEST PUSH2 0x2711 DUP14 DUP3 DUP15 ADD PUSH2 0x25BA JUMP JUMPDEST SWAP11 POP POP PUSH1 0x20 PUSH2 0x2722 DUP14 DUP3 DUP15 ADD PUSH2 0x2284 JUMP JUMPDEST SWAP10 POP POP PUSH1 0x40 DUP12 ADD CALLDATALOAD PUSH8 0xFFFFFFFFFFFFFFFF DUP2 GT ISZERO PUSH2 0x2743 JUMPI PUSH2 0x2742 PUSH2 0x2261 JUMP JUMPDEST JUMPDEST PUSH2 0x274F DUP14 DUP3 DUP15 ADD PUSH2 0x269C JUMP JUMPDEST SWAP9 POP POP PUSH1 0x60 PUSH2 0x2760 DUP14 DUP3 DUP15 ADD PUSH2 0x2284 JUMP JUMPDEST SWAP8 POP POP PUSH1 0x80 PUSH2 0x2771 DUP14 DUP3 DUP15 ADD PUSH2 0x2284 JUMP JUMPDEST SWAP7 POP POP PUSH1 0xA0 PUSH2 0x2782 DUP14 DUP3 DUP15 ADD PUSH2 0x2454 JUMP JUMPDEST SWAP6 POP POP PUSH1 0xC0 DUP12 ADD CALLDATALOAD PUSH8 0xFFFFFFFFFFFFFFFF DUP2 GT ISZERO PUSH2 0x27A3 JUMPI PUSH2 0x27A2 PUSH2 0x2261 JUMP JUMPDEST JUMPDEST PUSH2 0x27AF DUP14 DUP3 DUP15 ADD PUSH2 0x25BA JUMP JUMPDEST SWAP5 POP POP PUSH1 0xE0 DUP12 ADD CALLDATALOAD PUSH8 0xFFFFFFFFFFFFFFFF DUP2 GT ISZERO PUSH2 0x27D0 JUMPI PUSH2 0x27CF PUSH2 0x2261 JUMP JUMPDEST JUMPDEST PUSH2 0x27DC DUP14 DUP3 DUP15 ADD PUSH2 0x25BA JUMP JUMPDEST SWAP4 POP POP PUSH2 0x100 DUP12 ADD CALLDATALOAD PUSH8 0xFFFFFFFFFFFFFFFF DUP2 GT ISZERO PUSH2 0x27FE JUMPI PUSH2 0x27FD PUSH2 0x2261 JUMP JUMPDEST JUMPDEST PUSH2 0x280A DUP14 DUP3 DUP15 ADD PUSH2 0x269C JUMP JUMPDEST SWAP3 POP POP PUSH2 0x120 PUSH2 0x281C DUP14 DUP3 DUP15 ADD PUSH2 0x2454 JUMP JUMPDEST SWAP2 POP POP SWAP3 SWAP6 SWAP9 SWAP12 SWAP2 SWAP5 SWAP8 SWAP11 POP SWAP3 SWAP6 SWAP9 POP JUMP JUMPDEST PUSH0 PUSH0 PUSH0 PUSH0 PUSH0 PUSH1 0xA0 DUP7 DUP9 SUB SLT ISZERO PUSH2 0x2847 JUMPI PUSH2 0x2846 PUSH2 0x225D JUMP JUMPDEST JUMPDEST PUSH0 PUSH2 0x2854 DUP9 DUP3 DUP10 ADD PUSH2 0x2284 JUMP JUMPDEST SWAP6 POP POP PUSH1 0x20 PUSH2 0x2865 DUP9 DUP3 DUP10 ADD PUSH2 0x2284 JUMP JUMPDEST SWAP5 POP POP PUSH1 0x40 PUSH2 0x2876 DUP9 DUP3 DUP10 ADD PUSH2 0x2284 JUMP JUMPDEST SWAP4 POP POP PUSH1 0x60 PUSH2 0x2887 DUP9 DUP3 DUP10 ADD PUSH2 0x2284 JUMP JUMPDEST SWAP3 POP POP PUSH1 0x80 PUSH2 0x2898 DUP9 DUP3 DUP10 ADD PUSH2 0x2454 JUMP JUMPDEST SWAP2 POP POP SWAP3 SWAP6 POP SWAP3 SWAP6 SWAP1 SWAP4 POP JUMP JUMPDEST PUSH2 0x28AE DUP2 PUSH2 0x242D JUMP JUMPDEST DUP3 MSTORE POP POP JUMP JUMPDEST PUSH0 PUSH1 0x20 DUP3 ADD SWAP1 POP PUSH2 0x28C7 PUSH0 DUP4 ADD DUP5 PUSH2 0x28A5 JUMP JUMPDEST SWAP3 SWAP2 POP POP JUMP JUMPDEST PUSH0 PUSH0 PUSH1 0x40 DUP4 DUP6 SUB SLT ISZERO PUSH2 0x28E3 JUMPI PUSH2 0x28E2 PUSH2 0x225D JUMP JUMPDEST JUMPDEST PUSH0 PUSH2 0x28F0 DUP6 DUP3 DUP7 ADD PUSH2 0x2454 JUMP JUMPDEST SWAP3 POP POP PUSH1 0x20 PUSH2 0x2901 DUP6 DUP3 DUP7 ADD PUSH2 0x2284 JUMP JUMPDEST SWAP2 POP POP SWAP3 POP SWAP3 SWAP1 POP JUMP JUMPDEST PUSH0 DUP3 DUP3 MSTORE PUSH1 0x20 DUP3 ADD SWAP1 POP SWAP3 SWAP2 POP POP JUMP JUMPDEST PUSH0 PUSH2 0x2925 DUP3 PUSH2 0x22EC JUMP JUMPDEST PUSH2 0x292F DUP2 DUP6 PUSH2 0x290B JUMP JUMPDEST SWAP4 POP PUSH2 0x293F DUP2 DUP6 PUSH1 0x20 DUP7 ADD PUSH2 0x2306 JUMP JUMPDEST PUSH2 0x2948 DUP2 PUSH2 0x2314 JUMP JUMPDEST DUP5 ADD SWAP2 POP POP SWAP3 SWAP2 POP POP JUMP JUMPDEST PUSH0 DUP2 ISZERO ISZERO SWAP1 POP SWAP2 SWAP1 POP JUMP JUMPDEST PUSH2 0x2967 DUP2 PUSH2 0x2953 JUMP JUMPDEST DUP3 MSTORE POP POP JUMP JUMPDEST PUSH0 PUSH1 0xC0 DUP3 ADD SWAP1 POP DUP2 DUP2 SUB PUSH0 DUP4 ADD MSTORE PUSH2 0x2985 DUP2 DUP10 PUSH2 0x291B JUMP JUMPDEST SWAP1 POP PUSH2 0x2994 PUSH1 0x20 DUP4 ADD DUP9 PUSH2 0x2493 JUMP JUMPDEST PUSH2 0x29A1 PUSH1 0x40 DUP4 ADD DUP8 PUSH2 0x28A5 JUMP JUMPDEST PUSH2 0x29AE PUSH1 0x60 DUP4 ADD DUP7 PUSH2 0x28A5 JUMP JUMPDEST PUSH2 0x29BB PUSH1 0x80 DUP4 ADD DUP6 PUSH2 0x28A5 JUMP JUMPDEST PUSH2 0x29C8 PUSH1 0xA0 DUP4 ADD DUP5 PUSH2 0x295E JUMP JUMPDEST SWAP8 SWAP7 POP POP POP POP POP POP POP JUMP JUMPDEST PUSH2 0x29DC DUP2 PUSH2 0x2953 JUMP JUMPDEST DUP2 EQ PUSH2 0x29E6 JUMPI PUSH0 PUSH0 REVERT JUMPDEST POP JUMP JUMPDEST PUSH0 DUP2 CALLDATALOAD SWAP1 POP PUSH2 0x29F7 DUP2 PUSH2 0x29D3 JUMP JUMPDEST SWAP3 SWAP2 POP POP JUMP JUMPDEST PUSH0 PUSH0 PUSH1 0x40 DUP4 DUP6 SUB SLT ISZERO PUSH2 0x2A13 JUMPI PUSH2 0x2A12 PUSH2 0x225D JUMP JUMPDEST JUMPDEST PUSH0 PUSH2 0x2A20 DUP6 DUP3 DUP7 ADD PUSH2 0x2454 JUMP JUMPDEST SWAP3 POP POP PUSH1 0x20 PUSH2 0x2A31 DUP6 DUP3 DUP7 ADD PUSH2 0x29E9 JUMP JUMPDEST SWAP2 POP POP SWAP3 POP SWAP3 SWAP1 POP JUMP JUMPDEST PUSH0 PUSH2 0x180 DUP3 ADD SWAP1 POP PUSH2 0x2A4F PUSH0 DUP4 ADD DUP16 PUSH2 0x2493 JUMP JUMPDEST DUP2 DUP2 SUB PUSH1 0x20 DUP4 ADD MSTORE PUSH2 0x2A61 DUP2 DUP15 PUSH2 0x291B JUMP JUMPDEST SWAP1 POP PUSH2 0x2A70 PUSH1 0x40 DUP4 ADD DUP14 PUSH2 0x2493 JUMP JUMPDEST PUSH2 0x2A7D PUSH1 0x60 DUP4 ADD DUP13 PUSH2 0x2493 JUMP JUMPDEST PUSH2 0x2A8A PUSH1 0x80 DUP4 ADD DUP12 PUSH2 0x2493 JUMP JUMPDEST DUP2 DUP2 SUB PUSH1 0xA0 DUP4 ADD MSTORE PUSH2 0x2A9C DUP2 DUP11 PUSH2 0x291B JUMP JUMPDEST SWAP1 POP DUP2 DUP2 SUB PUSH1 0xC0 DUP4 ADD MSTORE PUSH2 0x2AB0 DUP2 DUP10 PUSH2 0x291B JUMP JUMPDEST SWAP1 POP PUSH2 0x2ABF PUSH1 0xE0 DUP4 ADD DUP9 PUSH2 0x28A5 JUMP JUMPDEST PUSH2 0x2ACD PUSH2 0x100 DUP4 ADD DUP8 PUSH2 0x28A5 JUMP JUMPDEST PUSH2 0x2ADB PUSH2 0x120 DUP4 ADD DUP7 PUSH2 0x295E JUMP JUMPDEST PUSH2 0x2AE9 PUSH2 0x140 DUP4 ADD DUP6 PUSH2 0x295E JUMP JUMPDEST PUSH2 0x2AF7 PUSH2 0x160 DUP4 ADD DUP5 PUSH2 0x28A5 JUMP JUMPDEST SWAP14 SWAP13 POP POP POP POP POP POP POP POP POP POP POP POP POP JUMP JUMPDEST PUSH0 PUSH1 0x20 DUP3 ADD SWAP1 POP PUSH2 0x2B1B PUSH0 DUP4 ADD DUP5 PUSH2 0x295E JUMP JUMPDEST SWAP3 SWAP2 POP POP JUMP JUMPDEST PUSH0 PUSH0 PUSH0 PUSH0 PUSH1 0x80 DUP6 DUP8 SUB SLT ISZERO PUSH2 0x2B39 JUMPI PUSH2 0x2B38 PUSH2 0x225D JUMP JUMPDEST JUMPDEST PUSH0 PUSH2 0x2B46 DUP8 DUP3 DUP9 ADD PUSH2 0x2284 JUMP JUMPDEST SWAP5 POP POP PUSH1 0x20 DUP6 ADD CALLDATALOAD PUSH8 0xFFFFFFFFFFFFFFFF DUP2 GT ISZERO PUSH2 0x2B67 JUMPI PUSH2 0x2B66 PUSH2 0x2261 JUMP JUMPDEST JUMPDEST PUSH2 0x2B73 DUP8 DUP3 DUP9 ADD PUSH2 0x25BA JUMP JUMPDEST SWAP4 POP POP PUSH1 0x40 PUSH2 0x2B84 DUP8 DUP3 DUP9 ADD PUSH2 0x2454 JUMP JUMPDEST SWAP3 POP POP PUSH1 0x60 PUSH2 0x2B95 DUP8 DUP3 DUP9 ADD PUSH2 0x2284 JUMP JUMPDEST SWAP2 POP POP SWAP3 SWAP6 SWAP2 SWAP5 POP SWAP3 POP JUMP JUMPDEST PUSH32 0x4E487B7100000000000000000000000000000000000000000000000000000000 PUSH0 MSTORE PUSH1 0x22 PUSH1 0x4 MSTORE PUSH1 0x24 PUSH0 REVERT JUMPDEST PUSH0 PUSH1 0x2 DUP3 DIV SWAP1 POP PUSH1 0x1 DUP3 AND DUP1 PUSH2 0x2BE5 JUMPI PUSH1 0x7F DUP3 AND SWAP2 POP JUMPDEST PUSH1 0x20 DUP3 LT DUP2 SUB PUSH2 0x2BF8 JUMPI PUSH2 0x2BF7 PUSH2 0x2BA1 JUMP JUMPDEST JUMPDEST POP SWAP2 SWAP1 POP JUMP JUMPDEST PUSH0 DUP2 MLOAD SWAP1 POP PUSH2 0x2C0C DUP2 PUSH2 0x226E JUMP JUMPDEST SWAP3 SWAP2 POP POP JUMP JUMPDEST PUSH0 PUSH1 0x20 DUP3 DUP5 SUB SLT ISZERO PUSH2 0x2C27 JUMPI PUSH2 0x2C26 PUSH2 0x225D JUMP JUMPDEST JUMPDEST PUSH0 PUSH2 0x2C34 DUP5 DUP3 DUP6 ADD PUSH2 0x2BFE JUMP JUMPDEST SWAP2 POP POP SWAP3 SWAP2 POP POP JUMP JUMPDEST PUSH32 0x546F6B656E206E6F742077686974656C69737465640000000000000000000000 PUSH0 DUP3 ADD MSTORE POP JUMP JUMPDEST PUSH0 PUSH2 0x2C71 PUSH1 0x15 DUP4 PUSH2 0x290B JUMP JUMPDEST SWAP2 POP PUSH2 0x2C7C DUP3 PUSH2 0x2C3D JUMP JUMPDEST PUSH1 0x20 DUP3 ADD SWAP1 POP SWAP2 SWAP1 POP JUMP JUMPDEST PUSH0 PUSH1 0x20 DUP3 ADD SWAP1 POP DUP2 DUP2 SUB PUSH0 DUP4 ADD MSTORE PUSH2 0x2C9E DUP2 PUSH2 0x2C65 JUMP JUMPDEST SWAP1 POP SWAP2 SWAP1 POP JUMP JUMPDEST PUSH32 0x5468652053746172742074696D65206D757374206265206561726C6965722074 PUSH0 DUP3 ADD MSTORE PUSH32 0x68616E2074686520656E642074696D652E000000000000000000000000000000 PUSH1 0x20 DUP3 ADD MSTORE POP JUMP JUMPDEST PUSH0 PUSH2 0x2CFF PUSH1 0x31 DUP4 PUSH2 0x290B JUMP JUMPDEST SWAP2 POP PUSH2 0x2D0A DUP3 PUSH2 0x2CA5 JUMP JUMPDEST PUSH1 0x40 DUP3 ADD SWAP1 POP SWAP2 SWAP1 POP JUMP JUMPDEST PUSH0 PUSH1 0x20 DUP3 ADD SWAP1 POP DUP2 DUP2 SUB PUSH0 DUP4 ADD MSTORE PUSH2 0x2D2C DUP2 PUSH2 0x2CF3 JUMP JUMPDEST SWAP1 POP SWAP2 SWAP1 POP JUMP JUMPDEST PUSH32 0x5072696365206D7573742062652067726561746572207468616E203000000000 PUSH0 DUP3 ADD MSTORE POP JUMP JUMPDEST PUSH0 PUSH2 0x2D67 PUSH1 0x1C DUP4 PUSH2 0x290B JUMP JUMPDEST SWAP2 POP PUSH2 0x2D72 DUP3 PUSH2 0x2D33 JUMP JUMPDEST PUSH1 0x20 DUP3 ADD SWAP1 POP SWAP2 SWAP1 POP JUMP JUMPDEST PUSH0 PUSH1 0x20 DUP3 ADD SWAP1 POP DUP2 DUP2 SUB PUSH0 DUP4 ADD MSTORE PUSH2 0x2D94 DUP2 PUSH2 0x2D5B JUMP JUMPDEST SWAP1 POP SWAP2 SWAP1 POP JUMP JUMPDEST PUSH32 0x546865204554482073656E7420646F6573206E6F74206D617463682074686520 PUSH0 DUP3 ADD MSTORE PUSH32 0x70726F6772616D20707269636500000000000000000000000000000000000000 PUSH1 0x20 DUP3 ADD MSTORE POP JUMP JUMPDEST PUSH0 PUSH2 0x2DF5 PUSH1 0x2D DUP4 PUSH2 0x290B JUMP JUMPDEST SWAP2 POP PUSH2 0x2E00 DUP3 PUSH2 0x2D9B JUMP JUMPDEST PUSH1 0x40 DUP3 ADD SWAP1 POP SWAP2 SWAP1 POP JUMP JUMPDEST PUSH0 PUSH1 0x20 DUP3 ADD SWAP1 POP DUP2 DUP2 SUB PUSH0 DUP4 ADD MSTORE PUSH2 0x2E22 DUP2 PUSH2 0x2DE9 JUMP JUMPDEST SWAP1 POP SWAP2 SWAP1 POP JUMP JUMPDEST PUSH32 0x53686F756C64206E6F742073656E6420455448207768656E20706179696E6720 PUSH0 DUP3 ADD MSTORE PUSH32 0x7769746820746F6B656E00000000000000000000000000000000000000000000 PUSH1 0x20 DUP3 ADD MSTORE POP JUMP JUMPDEST PUSH0 PUSH2 0x2E83 PUSH1 0x2A DUP4 PUSH2 0x290B JUMP JUMPDEST SWAP2 POP PUSH2 0x2E8E DUP3 PUSH2 0x2E29 JUMP JUMPDEST PUSH1 0x40 DUP3 ADD SWAP1 POP SWAP2 SWAP1 POP JUMP JUMPDEST PUSH0 PUSH1 0x20 DUP3 ADD SWAP1 POP DUP2 DUP2 SUB PUSH0 DUP4 ADD MSTORE PUSH2 0x2EB0 DUP2 PUSH2 0x2E77 JUMP JUMPDEST SWAP1 POP SWAP2 SWAP1 POP JUMP JUMPDEST PUSH0 DUP2 SWAP1 POP DUP2 PUSH0 MSTORE PUSH1 0x20 PUSH0 KECCAK256 SWAP1 POP SWAP2 SWAP1 POP JUMP JUMPDEST PUSH0 PUSH1 0x20 PUSH1 0x1F DUP4 ADD DIV SWAP1 POP SWAP2 SWAP1 POP JUMP JUMPDEST PUSH0 DUP3 DUP3 SHL SWAP1 POP SWAP3 SWAP2 POP POP JUMP JUMPDEST PUSH0 PUSH1 0x8 DUP4 MUL PUSH2 0x2F13 PUSH32 0xFFFFFFFFFFFFFFFFFFFFFFFFFFFFFFFFFFFFFFFFFFFFFFFFFFFFFFFFFFFFFFFF DUP3 PUSH2 0x2ED8 JUMP JUMPDEST PUSH2 0x2F1D DUP7 DUP4 PUSH2 0x2ED8 JUMP JUMPDEST SWAP6 POP DUP1 NOT DUP5 AND SWAP4 POP DUP1 DUP7 AND DUP5 OR SWAP3 POP POP POP SWAP4 SWAP3 POP POP POP JUMP JUMPDEST PUSH0 DUP2 SWAP1 POP SWAP2 SWAP1 POP JUMP JUMPDEST PUSH0 PUSH2 0x2F58 PUSH2 0x2F53 PUSH2 0x2F4E DUP5 PUSH2 0x2265 JUMP JUMPDEST PUSH2 0x2F35 JUMP JUMPDEST PUSH2 0x2265 JUMP JUMPDEST SWAP1 POP SWAP2 SWAP1 POP JUMP JUMPDEST PUSH0 DUP2 SWAP1 POP SWAP2 SWAP1 POP JUMP JUMPDEST PUSH2 0x2F71 DUP4 PUSH2 0x2F3E JUMP JUMPDEST PUSH2 0x2F85 PUSH2 0x2F7D DUP3 PUSH2 0x2F5F JUMP JUMPDEST DUP5 DUP5 SLOAD PUSH2 0x2EE4 JUMP JUMPDEST DUP3 SSTORE POP POP POP POP JUMP JUMPDEST PUSH0 PUSH0 SWAP1 POP SWAP1 JUMP JUMPDEST PUSH2 0x2F9C PUSH2 0x2F8D JUMP JUMPDEST PUSH2 0x2FA7 DUP2 DUP5 DUP5 PUSH2 0x2F68 JUMP JUMPDEST POP POP POP JUMP JUMPDEST JUMPDEST DUP2 DUP2 LT ISZERO PUSH2 0x2FCA JUMPI PUSH2 0x2FBF PUSH0 DUP3 PUSH2 0x2F94 JUMP JUMPDEST PUSH1 0x1 DUP2 ADD SWAP1 POP PUSH2 0x2FAD JUMP JUMPDEST POP POP JUMP JUMPDEST PUSH1 0x1F DUP3 GT ISZERO PUSH2 0x300F JUMPI PUSH2 0x2FE0 DUP2 PUSH2 0x2EB7 JUMP JUMPDEST PUSH2 0x2FE9 DUP5 PUSH2 0x2EC9 JUMP JUMPDEST DUP2 ADD PUSH1 0x20 DUP6 LT ISZERO PUSH2 0x2FF8 JUMPI DUP2 SWAP1 POP JUMPDEST PUSH2 0x300C PUSH2 0x3004 DUP6 PUSH2 0x2EC9 JUMP JUMPDEST DUP4 ADD DUP3 PUSH2 0x2FAC JUMP JUMPDEST POP POP JUMPDEST POP POP POP JUMP JUMPDEST PUSH0 DUP3 DUP3 SHR SWAP1 POP SWAP3 SWAP2 POP POP JUMP JUMPDEST PUSH0 PUSH2 0x302F PUSH0 NOT DUP5 PUSH1 0x8 MUL PUSH2 0x3014 JUMP JUMPDEST NOT DUP1 DUP4 AND SWAP2 POP POP SWAP3 SWAP2 POP POP JUMP JUMPDEST PUSH0 PUSH2 0x3047 DUP4 DUP4 PUSH2 0x3020 JUMP JUMPDEST SWAP2 POP DUP3 PUSH1 0x2 MUL DUP3 OR SWAP1 POP SWAP3 SWAP2 POP POP JUMP JUMPDEST PUSH2 0x3060 DUP3 PUSH2 0x22EC JUMP JUMPDEST PUSH8 0xFFFFFFFFFFFFFFFF DUP2 GT ISZERO PUSH2 0x3079 JUMPI PUSH2 0x3078 PUSH2 0x24C3 JUMP JUMPDEST JUMPDEST PUSH2 0x3083 DUP3 SLOAD PUSH2 0x2BCE JUMP JUMPDEST PUSH2 0x308E DUP3 DUP3 DUP6 PUSH2 0x2FCE JUMP JUMPDEST PUSH0 PUSH1 0x20 SWAP1 POP PUSH1 0x1F DUP4 GT PUSH1 0x1 DUP2 EQ PUSH2 0x30BF JUMPI PUSH0 DUP5 ISZERO PUSH2 0x30AD JUMPI DUP3 DUP8 ADD MLOAD SWAP1 POP JUMPDEST PUSH2 0x30B7 DUP6 DUP3 PUSH2 0x303C JUMP JUMPDEST DUP7 SSTORE POP PUSH2 0x311E JUMP JUMPDEST PUSH1 0x1F NOT DUP5 AND PUSH2 0x30CD DUP7 PUSH2 0x2EB7 JUMP JUMPDEST PUSH0 JUMPDEST DUP3 DUP2 LT ISZERO PUSH2 0x30F4 JUMPI DUP5 DUP10 ADD MLOAD DUP3 SSTORE PUSH1 0x1 DUP3 ADD SWAP2 POP PUSH1 0x20 DUP6 ADD SWAP5 POP PUSH1 0x20 DUP2 ADD SWAP1 POP PUSH2 0x30CF JUMP JUMPDEST DUP7 DUP4 LT ISZERO PUSH2 0x3111 JUMPI DUP5 DUP10 ADD MLOAD PUSH2 0x310D PUSH1 0x1F DUP10 AND DUP3 PUSH2 0x3020 JUMP JUMPDEST DUP4 SSTORE POP JUMPDEST PUSH1 0x1 PUSH1 0x2 DUP9 MUL ADD DUP9 SSTORE POP POP POP JUMPDEST POP POP POP POP POP POP JUMP JUMPDEST PUSH32 0x4E487B7100000000000000000000000000000000000000000000000000000000 PUSH0 MSTORE PUSH1 0x11 PUSH1 0x4 MSTORE PUSH1 0x24 PUSH0 REVERT JUMPDEST PUSH0 PUSH2 0x315D DUP3 PUSH2 0x2265 JUMP JUMPDEST SWAP2 POP PUSH32 0xFFFFFFFFFFFFFFFFFFFFFFFFFFFFFFFFFFFFFFFFFFFFFFFFFFFFFFFFFFFFFFFF DUP3 SUB PUSH2 0x318F JUMPI PUSH2 0x318E PUSH2 0x3126 JUMP JUMPDEST JUMPDEST PUSH1 0x1 DUP3 ADD SWAP1 POP SWAP2 SWAP1 POP JUMP JUMPDEST PUSH0 PUSH1 0x40 DUP3 ADD SWAP1 POP PUSH2 0x31AD PUSH0 DUP4 ADD DUP6 PUSH2 0x2493 JUMP JUMPDEST PUSH2 0x31BA PUSH1 0x20 DUP4 ADD DUP5 PUSH2 0x28A5 JUMP JUMPDEST SWAP4 SWAP3 POP POP POP JUMP JUMPDEST PUSH32 0x4F6E6C792063726561746F720000000000000000000000000000000000000000 PUSH0 DUP3 ADD MSTORE POP JUMP JUMPDEST PUSH0 PUSH2 0x31F5 PUSH1 0xC DUP4 PUSH2 0x290B JUMP JUMPDEST SWAP2 POP PUSH2 0x3200 DUP3 PUSH2 0x31C1 JUMP JUMPDEST PUSH1 0x20 DUP3 ADD SWAP1 POP SWAP2 SWAP1 POP JUMP JUMPDEST PUSH0 PUSH1 0x20 DUP3 ADD SWAP1 POP DUP2 DUP2 SUB PUSH0 DUP4 ADD MSTORE PUSH2 0x3222 DUP2 PUSH2 0x31E9 JUMP JUMPDEST SWAP1 POP SWAP2 SWAP1 POP JUMP JUMPDEST PUSH32 0x496E76616C69642074696D650000000000000000000000000000000000000000 PUSH0 DUP3 ADD MSTORE POP JUMP JUMPDEST PUSH0 PUSH2 0x325D PUSH1 0xC DUP4 PUSH2 0x290B JUMP JUMPDEST SWAP2 POP PUSH2 0x3268 DUP3 PUSH2 0x3229 JUMP JUMPDEST PUSH1 0x20 DUP3 ADD SWAP1 POP SWAP2 SWAP1 POP JUMP JUMPDEST PUSH0 PUSH1 0x20 DUP3 ADD SWAP1 POP DUP2 DUP2 SUB PUSH0 DUP4 ADD MSTORE PUSH2 0x328A DUP2 PUSH2 0x3251 JUMP JUMPDEST SWAP1 POP SWAP2 SWAP1 POP JUMP JUMPDEST PUSH32 0x496E76616C696420707269636500000000000000000000000000000000000000 PUSH0 DUP3 ADD MSTORE POP JUMP JUMPDEST PUSH0 PUSH2 0x32C5 PUSH1 0xD DUP4 PUSH2 0x290B JUMP JUMPDEST SWAP2 POP PUSH2 0x32D0 DUP3 PUSH2 0x3291 JUMP JUMPDEST PUSH1 0x20 DUP3 ADD SWAP1 POP SWAP2 SWAP1 POP JUMP JUMPDEST PUSH0 PUSH1 0x20 DUP3 ADD SWAP1 POP DUP2 DUP2 SUB PUSH0 DUP4 ADD MSTORE PUSH2 0x32F2 DUP2 PUSH2 0x32B9 JUMP JUMPDEST SWAP1 POP SWAP2 SWAP1 POP JUMP JUMPDEST PUSH0 PUSH1 0xA0 DUP3 ADD SWAP1 POP PUSH2 0x330C PUSH0 DUP4 ADD DUP9 PUSH2 0x2493 JUMP JUMPDEST PUSH2 0x3319 PUSH1 0x20 DUP4 ADD DUP8 PUSH2 0x2493 JUMP JUMPDEST PUSH2 0x3326 PUSH1 0x40 DUP4 ADD DUP7 PUSH2 0x2493 JUMP JUMPDEST PUSH2 0x3333 PUSH1 0x60 DUP4 ADD DUP6 PUSH2 0x2493 JUMP JUMPDEST PUSH2 0x3340 PUSH1 0x80 DUP4 ADD DUP5 PUSH2 0x28A5 JUMP JUMPDEST SWAP7 SWAP6 POP POP POP POP POP POP JUMP JUMPDEST PUSH0 DUP2 SWAP1 POP SWAP3 SWAP2 POP POP JUMP JUMPDEST POP JUMP JUMPDEST PUSH0 PUSH2 0x3362 PUSH0 DUP4 PUSH2 0x334A JUMP JUMPDEST SWAP2 POP PUSH2 0x336D DUP3 PUSH2 0x3354 JUMP JUMPDEST PUSH0 DUP3 ADD SWAP1 POP SWAP2 SWAP1 POP JUMP JUMPDEST PUSH0 PUSH2 0x3381 DUP3 PUSH2 0x3357 JUMP JUMPDEST SWAP2 POP DUP2 SWAP1 POP SWAP2 SWAP1 POP JUMP JUMPDEST PUSH32 0x455448207472616E73666572206661696C656400000000000000000000000000 PUSH0 DUP3 ADD MSTORE POP JUMP JUMPDEST PUSH0 PUSH2 0x33BF PUSH1 0x13 DUP4 PUSH2 0x290B JUMP JUMPDEST SWAP2 POP PUSH2 0x33CA DUP3 PUSH2 0x338B JUMP JUMPDEST PUSH1 0x20 DUP3 ADD SWAP1 POP SWAP2 SWAP1 POP JUMP JUMPDEST PUSH0 PUSH1 0x20 DUP3 ADD SWAP1 POP DUP2 DUP2 SUB PUSH0 DUP4 ADD MSTORE PUSH2 0x33EC DUP2 PUSH2 0x33B3 JUMP JUMPDEST SWAP1 POP SWAP2 SWAP1 POP JUMP JUMPDEST PUSH0 PUSH1 0x40 DUP3 ADD SWAP1 POP PUSH2 0x3406 PUSH0 DUP4 ADD DUP6 PUSH2 0x28A5 JUMP JUMPDEST PUSH2 0x3413 PUSH1 0x20 DUP4 ADD DUP5 PUSH2 0x295E JUMP JUMPDEST SWAP4 SWAP3 POP POP POP JUMP JUMPDEST PUSH32 0x4E6F742076616C696461746F7200000000000000000000000000000000000000 PUSH0 DUP3 ADD MSTORE POP JUMP JUMPDEST PUSH0 PUSH2 0x344E PUSH1 0xD DUP4 PUSH2 0x290B JUMP JUMPDEST SWAP2 POP PUSH2 0x3459 DUP3 PUSH2 0x341A JUMP JUMPDEST PUSH1 0x20 DUP3 ADD SWAP1 POP SWAP2 SWAP1 POP JUMP JUMPDEST PUSH0 PUSH1 0x20 DUP3 ADD SWAP1 POP DUP2 DUP2 SUB PUSH0 DUP4 ADD MSTORE PUSH2 0x347B DUP2 PUSH2 0x3442 JUMP JUMPDEST SWAP1 POP SWAP2 SWAP1 POP JUMP JUMPDEST PUSH32 0x52657761726420657863656564732070726F6772616D2062616C616E63650000 PUSH0 DUP3 ADD MSTORE POP JUMP JUMPDEST PUSH0 PUSH2 0x34B6 PUSH1 0x1E DUP4 PUSH2 0x290B JUMP JUMPDEST SWAP2 POP PUSH2 0x34C1 DUP3 PUSH2 0x3482 JUMP JUMPDEST PUSH1 0x20 DUP3 ADD SWAP1 POP SWAP2 SWAP1 POP JUMP JUMPDEST PUSH0 PUSH1 0x20 DUP3 ADD SWAP1 POP DUP2 DUP2 SUB PUSH0 DUP4 ADD MSTORE PUSH2 0x34E3 DUP2 PUSH2 0x34AA JUMP JUMPDEST SWAP1 POP SWAP2 SWAP1 POP JUMP JUMPDEST PUSH32 0x496E73756666696369656E7420636F6E7472616374204554482062616C616E63 PUSH0 DUP3 ADD MSTORE PUSH32 0x6500000000000000000000000000000000000000000000000000000000000000 PUSH1 0x20 DUP3 ADD MSTORE POP JUMP JUMPDEST PUSH0 PUSH2 0x3544 PUSH1 0x21 DUP4 PUSH2 0x290B JUMP JUMPDEST SWAP2 POP PUSH2 0x354F DUP3 PUSH2 0x34EA JUMP JUMPDEST PUSH1 0x40 DUP3 ADD SWAP1 POP SWAP2 SWAP1 POP JUMP JUMPDEST PUSH0 PUSH1 0x20 DUP3 ADD SWAP1 POP DUP2 DUP2 SUB PUSH0 DUP4 ADD MSTORE PUSH2 0x3571 DUP2 PUSH2 0x3538 JUMP JUMPDEST SWAP1 POP SWAP2 SWAP1 POP JUMP JUMPDEST PUSH32 0x496E73756666696369656E7420636F6E747261637420746F6B656E2062616C61 PUSH0 DUP3 ADD MSTORE PUSH32 0x6E63650000000000000000000000000000000000000000000000000000000000 PUSH1 0x20 DUP3 ADD MSTORE POP JUMP JUMPDEST PUSH0 PUSH2 0x35D2 PUSH1 0x23 DUP4 PUSH2 0x290B JUMP JUMPDEST SWAP2 POP PUSH2 0x35DD DUP3 PUSH2 0x3578 JUMP JUMPDEST PUSH1 0x40 DUP3 ADD SWAP1 POP SWAP2 SWAP1 POP JUMP JUMPDEST PUSH0 PUSH1 0x20 DUP3 ADD SWAP1 POP DUP2 DUP2 SUB PUSH0 DUP4 ADD MSTORE PUSH2 0x35FF DUP2 PUSH2 0x35C6 JUMP JUMPDEST SWAP1 POP SWAP2 SWAP1 POP JUMP JUMPDEST PUSH0 PUSH2 0x3610 DUP3 PUSH2 0x2265 JUMP JUMPDEST SWAP2 POP PUSH2 0x361B DUP4 PUSH2 0x2265 JUMP JUMPDEST SWAP3 POP DUP3 DUP3 SUB SWAP1 POP DUP2 DUP2 GT ISZERO PUSH2 0x3633 JUMPI PUSH2 0x3632 PUSH2 0x3126 JUMP JUMPDEST JUMPDEST SWAP3 SWAP2 POP POP JUMP JUMPDEST PUSH0 DUP2 SWAP1 POP SWAP3 SWAP2 POP POP JUMP JUMPDEST PUSH0 PUSH2 0x364D DUP3 PUSH2 0x22EC JUMP JUMPDEST PUSH2 0x3657 DUP2 DUP6 PUSH2 0x3639 JUMP JUMPDEST SWAP4 POP PUSH2 0x3667 DUP2 DUP6 PUSH1 0x20 DUP7 ADD PUSH2 0x2306 JUMP JUMPDEST DUP1 DUP5 ADD SWAP2 POP POP SWAP3 SWAP2 POP POP JUMP JUMPDEST PUSH0 PUSH2 0x367E DUP3 DUP5 PUSH2 0x3643 JUMP JUMPDEST SWAP2 POP DUP2 SWAP1 POP SWAP3 SWAP2 POP POP JUMP JUMPDEST PUSH32 0x4F776E61626C653A206E6577206F776E657220697320746865207A65726F2061 PUSH0 DUP3 ADD MSTORE PUSH32 0x6464726573730000000000000000000000000000000000000000000000000000 PUSH1 0x20 DUP3 ADD MSTORE POP JUMP JUMPDEST PUSH0 PUSH2 0x36E3 PUSH1 0x26 DUP4 PUSH2 0x290B JUMP JUMPDEST SWAP2 POP PUSH2 0x36EE DUP3 PUSH2 0x3689 JUMP JUMPDEST PUSH1 0x40 DUP3 ADD SWAP1 POP SWAP2 SWAP1 POP JUMP JUMPDEST PUSH0 PUSH1 0x20 DUP3 ADD SWAP1 POP DUP2 DUP2 SUB PUSH0 DUP4 ADD MSTORE PUSH2 0x3710 DUP2 PUSH2 0x36D7 JUMP JUMPDEST SWAP1 POP SWAP2 SWAP1 POP JUMP JUMPDEST PUSH32 0x50726F6772616D206E6F7420656E646564207965740000000000000000000000 PUSH0 DUP3 ADD MSTORE POP JUMP JUMPDEST PUSH0 PUSH2 0x374B PUSH1 0x15 DUP4 PUSH2 0x290B JUMP JUMPDEST SWAP2 POP PUSH2 0x3756 DUP3 PUSH2 0x3717 JUMP JUMPDEST PUSH1 0x20 DUP3 ADD SWAP1 POP SWAP2 SWAP1 POP JUMP JUMPDEST PUSH0 PUSH1 0x20 DUP3 ADD SWAP1 POP DUP2 DUP2 SUB PUSH0 DUP4 ADD MSTORE PUSH2 0x3778 DUP2 PUSH2 0x373F JUMP JUMPDEST SWAP1 POP SWAP2 SWAP1 POP JUMP JUMPDEST PUSH32 0x4E6F74207468652070726F6772616D206D616B65720000000000000000000000 PUSH0 DUP3 ADD MSTORE POP JUMP JUMPDEST PUSH0 PUSH2 0x37B3 PUSH1 0x15 DUP4 PUSH2 0x290B JUMP JUMPDEST SWAP2 POP PUSH2 0x37BE DUP3 PUSH2 0x377F JUMP JUMPDEST PUSH1 0x20 DUP3 ADD SWAP1 POP SWAP2 SWAP1 POP JUMP JUMPDEST PUSH0 PUSH1 0x20 DUP3 ADD SWAP1 POP DUP2 DUP2 SUB PUSH0 DUP4 ADD MSTORE PUSH2 0x37E0 DUP2 PUSH2 0x37A7 JUMP JUMPDEST SWAP1 POP SWAP2 SWAP1 POP JUMP JUMPDEST PUSH32 0x416C726561647920636C61696D65640000000000000000000000000000000000 PUSH0 DUP3 ADD MSTORE POP JUMP JUMPDEST PUSH0 PUSH2 0x381B PUSH1 0xF DUP4 PUSH2 0x290B JUMP JUMPDEST SWAP2 POP PUSH2 0x3826 DUP3 PUSH2 0x37E7 JUMP JUMPDEST PUSH1 0x20 DUP3 ADD SWAP1 POP SWAP2 SWAP1 POP JUMP JUMPDEST PUSH0 PUSH1 0x20 DUP3 ADD SWAP1 POP DUP2 DUP2 SUB PUSH0 DUP4 ADD MSTORE PUSH2 0x3848 DUP2 PUSH2 0x380F JUMP JUMPDEST SWAP1 POP SWAP2 SWAP1 POP JUMP JUMPDEST PUSH32 0x4E6F2066756E647320746F207265636C61696D00000000000000000000000000 PUSH0 DUP3 ADD MSTORE POP JUMP JUMPDEST PUSH0 PUSH2 0x3883 PUSH1 0x13 DUP4 PUSH2 0x290B JUMP JUMPDEST SWAP2 POP PUSH2 0x388E DUP3 PUSH2 0x384F JUMP JUMPDEST PUSH1 0x20 DUP3 ADD SWAP1 POP SWAP2 SWAP1 POP JUMP JUMPDEST PUSH0 PUSH1 0x20 DUP3 ADD SWAP1 POP DUP2 DUP2 SUB PUSH0 DUP4 ADD MSTORE PUSH2 0x38B0 DUP2 PUSH2 0x3877 JUMP JUMPDEST SWAP1 POP SWAP2 SWAP1 POP JUMP JUMPDEST PUSH0 PUSH1 0x60 DUP3 ADD SWAP1 POP PUSH2 0x38CA PUSH0 DUP4 ADD DUP7 PUSH2 0x28A5 JUMP JUMPDEST PUSH2 0x38D7 PUSH1 0x20 DUP4 ADD DUP6 PUSH2 0x2493 JUMP JUMPDEST PUSH2 0x38E4 PUSH1 0x40 DUP4 ADD DUP5 PUSH2 0x28A5 JUMP JUMPDEST SWAP5 SWAP4 POP POP POP POP JUMP JUMPDEST PUSH32 0x4F776E61626C653A2063616C6C6572206973206E6F7420746865206F776E6572 PUSH0 DUP3 ADD MSTORE POP JUMP JUMPDEST PUSH0 PUSH2 0x3920 PUSH1 0x20 DUP4 PUSH2 0x290B JUMP JUMPDEST SWAP2 POP PUSH2 0x392B DUP3 PUSH2 0x38EC JUMP JUMPDEST PUSH1 0x20 DUP3 ADD SWAP1 POP SWAP2 SWAP1 POP JUMP JUMPDEST PUSH0 PUSH1 0x20 DUP3 ADD SWAP1 POP DUP2 DUP2 SUB PUSH0 DUP4 ADD MSTORE PUSH2 0x394D DUP2 PUSH2 0x3914 JUMP JUMPDEST SWAP1 POP SWAP2 SWAP1 POP JUMP JUMPDEST PUSH0 PUSH1 0x60 DUP3 ADD SWAP1 POP PUSH2 0x3967 PUSH0 DUP4 ADD DUP7 PUSH2 0x28A5 JUMP JUMPDEST PUSH2 0x3974 PUSH1 0x20 DUP4 ADD DUP6 PUSH2 0x28A5 JUMP JUMPDEST PUSH2 0x3981 PUSH1 0x40 DUP4 ADD DUP5 PUSH2 0x2493 JUMP JUMPDEST SWAP5 SWAP4 POP POP POP POP JUMP JUMPDEST PUSH0 PUSH1 0x40 DUP3 ADD SWAP1 POP PUSH2 0x399C PUSH0 DUP4 ADD DUP6 PUSH2 0x28A5 JUMP JUMPDEST PUSH2 0x39A9 PUSH1 0x20 DUP4 ADD DUP5 PUSH2 0x2493 JUMP JUMPDEST SWAP4 SWAP3 POP POP POP JUMP JUMPDEST PUSH32 0x5265656E7472616E637947756172643A207265656E7472616E742063616C6C00 PUSH0 DUP3 ADD MSTORE POP JUMP JUMPDEST PUSH0 PUSH2 0x39E4 PUSH1 0x1F DUP4 PUSH2 0x290B JUMP JUMPDEST SWAP2 POP PUSH2 0x39EF DUP3 PUSH2 0x39B0 JUMP JUMPDEST PUSH1 0x20 DUP3 ADD SWAP1 POP SWAP2 SWAP1 POP JUMP JUMPDEST PUSH0 PUSH1 0x20 DUP3 ADD SWAP1 POP DUP2 DUP2 SUB PUSH0 DUP4 ADD MSTORE PUSH2 0x3A11 DUP2 PUSH2 0x39D8 JUMP JUMPDEST SWAP1 POP SWAP2 SWAP1 POP JUMP JUMPDEST PUSH0 DUP2 MLOAD SWAP1 POP PUSH2 0x3A26 DUP2 PUSH2 0x29D3 JUMP JUMPDEST SWAP3 SWAP2 POP POP JUMP JUMPDEST PUSH0 PUSH1 0x20 DUP3 DUP5 SUB SLT ISZERO PUSH2 0x3A41 JUMPI PUSH2 0x3A40 PUSH2 0x225D JUMP JUMPDEST JUMPDEST PUSH0 PUSH2 0x3A4E DUP5 DUP3 DUP6 ADD PUSH2 0x3A18 JUMP JUMPDEST SWAP2 POP POP SWAP3 SWAP2 POP POP JUMP JUMPDEST PUSH32 0x5361666545524332303A204552433230206F7065726174696F6E20646964206E PUSH0 DUP3 ADD MSTORE PUSH32 0x6F74207375636365656400000000000000000000000000000000000000000000 PUSH1 0x20 DUP3 ADD MSTORE POP JUMP JUMPDEST PUSH0 PUSH2 0x3AB1 PUSH1 0x2A DUP4 PUSH2 0x290B JUMP JUMPDEST SWAP2 POP PUSH2 0x3ABC DUP3 PUSH2 0x3A57 JUMP JUMPDEST PUSH1 0x40 DUP3 ADD SWAP1 POP SWAP2 SWAP1 POP JUMP JUMPDEST PUSH0 PUSH1 0x20 DUP3 ADD SWAP1 POP DUP2 DUP2 SUB PUSH0 DUP4 ADD MSTORE PUSH2 0x3ADE DUP2 PUSH2 0x3AA5 JUMP JUMPDEST SWAP1 POP SWAP2 SWAP1 POP JUMP JUMPDEST PUSH32 0x416464726573733A20696E73756666696369656E742062616C616E636520666F PUSH0 DUP3 ADD MSTORE PUSH32 0x722063616C6C0000000000000000000000000000000000000000000000000000 PUSH1 0x20 DUP3 ADD MSTORE POP JUMP JUMPDEST PUSH0 PUSH2 0x3B3F PUSH1 0x26 DUP4 PUSH2 0x290B JUMP JUMPDEST SWAP2 POP PUSH2 0x3B4A DUP3 PUSH2 0x3AE5 JUMP JUMPDEST PUSH1 0x40 DUP3 ADD SWAP1 POP SWAP2 SWAP1 POP JUMP JUMPDEST PUSH0 PUSH1 0x20 DUP3 ADD SWAP1 POP DUP2 DUP2 SUB PUSH0 DUP4 ADD MSTORE PUSH2 0x3B6C DUP2 PUSH2 0x3B33 JUMP JUMPDEST SWAP1 POP SWAP2 SWAP1 POP JUMP JUMPDEST PUSH0 DUP2 MLOAD SWAP1 POP SWAP2 SWAP1 POP JUMP JUMPDEST PUSH0 PUSH2 0x3B87 DUP3 PUSH2 0x3B73 JUMP JUMPDEST PUSH2 0x3B91 DUP2 DUP6 PUSH2 0x334A JUMP JUMPDEST SWAP4 POP PUSH2 0x3BA1 DUP2 DUP6 PUSH1 0x20 DUP7 ADD PUSH2 0x2306 JUMP JUMPDEST DUP1 DUP5 ADD SWAP2 POP POP SWAP3 SWAP2 POP POP JUMP JUMPDEST PUSH0 PUSH2 0x3BB8 DUP3 DUP5 PUSH2 0x3B7D JUMP JUMPDEST SWAP2 POP DUP2 SWAP1 POP SWAP3 SWAP2 POP POP JUMP JUMPDEST PUSH32 0x416464726573733A2063616C6C20746F206E6F6E2D636F6E7472616374000000 PUSH0 DUP3 ADD MSTORE POP JUMP JUMPDEST PUSH0 PUSH2 0x3BF7 PUSH1 0x1D DUP4 PUSH2 0x290B JUMP JUMPDEST SWAP2 POP PUSH2 0x3C02 DUP3 PUSH2 0x3BC3 JUMP JUMPDEST PUSH1 0x20 DUP3 ADD SWAP1 POP SWAP2 SWAP1 POP JUMP JUMPDEST PUSH0 PUSH1 0x20 DUP3 ADD SWAP1 POP DUP2 DUP2 SUB PUSH0 DUP4 ADD MSTORE PUSH2 0x3C24 DUP2 PUSH2 0x3BEB JUMP JUMPDEST SWAP1 POP SWAP2 SWAP1 POP JUMP JUMPDEST PUSH0 PUSH1 0x20 DUP3 ADD SWAP1 POP DUP2 DUP2 SUB PUSH0 DUP4 ADD MSTORE PUSH2 0x3C43 DUP2 DUP5 PUSH2 0x291B JUMP JUMPDEST SWAP1 POP SWAP3 SWAP2 POP POP JUMP INVALID LOG2 PUSH5 0x6970667358 0x22 SLT KECCAK256 SWAP11 JUMPF 0xD77 0xCB CALLCODE DUP2 0xC3 0x23 0x4E CODECOPY ISZERO MSTORE 0xD7 PUSH20 0xE4C84E60458DF18223BBD2839790F7811464736F PUSH13 0x634300081E0033000000000000 "
				},
				"gasEstimates": {
					"creation": {
						"codeDepositCost": "3097800",
						"executionCost": "infinite",
						"totalCost": "infinite"
					},
					"external": {
						"ETH_ADDRESS()": "417",
						"acceptMilestone(uint256,string,address,uint256)": "infinite",
						"createEduProgram(string,uint256,string[],uint256,uint256,address,string,string,string[],address)": "infinite",
						"eduPrograms(uint256)": "infinite",
						"emergencyWithdraw(address,uint256)": "infinite",
						"getContractBalance(address)": "infinite",
						"getFee()": "2543",
						"getProgramDetails(uint256)": "infinite",
						"getProgramKeywords(uint256)": "infinite",
						"getProgramLinks(uint256)": "infinite",
						"nextProgramId()": "2492",
						"owner()": "2603",
						"reclaimFunds(uint256)": "infinite",
						"renounceOwnership()": "30410",
						"setFee(uint256)": "infinite",
						"setTokenWhitelist(address,bool)": "infinite",
						"transferOwnership(address)": "30816",
						"updateProgram(uint256,uint256,uint256,uint256,address)": "infinite",
						"whitelistedTokens(address)": "2877"
					}
				},
				"methodIdentifiers": {
					"ETH_ADDRESS()": "a734f06e",
					"acceptMilestone(uint256,string,address,uint256)": "f2479186",
					"createEduProgram(string,uint256,string[],uint256,uint256,address,string,string,string[],address)": "7d30b663",
					"eduPrograms(uint256)": "d613fd24",
					"emergencyWithdraw(address,uint256)": "95ccea67",
					"getContractBalance(address)": "43ab265f",
					"getFee()": "ced72f87",
					"getProgramDetails(uint256)": "9b46c801",
					"getProgramKeywords(uint256)": "1fbbaae8",
					"getProgramLinks(uint256)": "3ccaca8e",
					"nextProgramId()": "ba71b330",
					"owner()": "8da5cb5b",
					"reclaimFunds(uint256)": "f9f161a8",
					"renounceOwnership()": "715018a6",
					"setFee(uint256)": "69fe0e2d",
					"setTokenWhitelist(address,bool)": "c9bcc97e",
					"transferOwnership(address)": "f2fde38b",
					"updateProgram(uint256,uint256,uint256,uint256,address)": "89001eb1",
					"whitelistedTokens(address)": "daf9c210"
				}
			},
			"storageLayout": {
				"storage": [
					{
						"astId": 7,
						"contract": "contracts/LdEduProgram.sol:LdEduProgram",
						"label": "_owner",
						"offset": 0,
						"slot": "0",
						"type": "t_address"
					},
					{
						"astId": 123,
						"contract": "contracts/LdEduProgram.sol:LdEduProgram",
						"label": "_status",
						"offset": 0,
						"slot": "1",
						"type": "t_uint256"
					},
					{
						"astId": 1151,
						"contract": "contracts/LdEduProgram.sol:LdEduProgram",
						"label": "eduPrograms",
						"offset": 0,
						"slot": "2",
						"type": "t_mapping(t_uint256,t_struct(EduProgram)1132_storage)"
					},
					{
						"astId": 1155,
						"contract": "contracts/LdEduProgram.sol:LdEduProgram",
						"label": "whitelistedTokens",
						"offset": 0,
						"slot": "3",
						"type": "t_mapping(t_address,t_bool)"
					},
					{
						"astId": 1157,
						"contract": "contracts/LdEduProgram.sol:LdEduProgram",
						"label": "nextProgramId",
						"offset": 0,
						"slot": "4",
						"type": "t_uint256"
					},
					{
						"astId": 1159,
						"contract": "contracts/LdEduProgram.sol:LdEduProgram",
						"label": "fee",
						"offset": 0,
						"slot": "5",
						"type": "t_uint256"
					}
				],
				"types": {
					"t_address": {
						"encoding": "inplace",
						"label": "address",
						"numberOfBytes": "20"
					},
					"t_array(t_string_storage)dyn_storage": {
						"base": "t_string_storage",
						"encoding": "dynamic_array",
						"label": "string[]",
						"numberOfBytes": "32"
					},
					"t_bool": {
						"encoding": "inplace",
						"label": "bool",
						"numberOfBytes": "1"
					},
					"t_mapping(t_address,t_bool)": {
						"encoding": "mapping",
						"key": "t_address",
						"label": "mapping(address => bool)",
						"numberOfBytes": "32",
						"value": "t_bool"
					},
					"t_mapping(t_uint256,t_struct(EduProgram)1132_storage)": {
						"encoding": "mapping",
						"key": "t_uint256",
						"label": "mapping(uint256 => struct LdEduProgram.EduProgram)",
						"numberOfBytes": "32",
						"value": "t_struct(EduProgram)1132_storage"
					},
					"t_string_storage": {
						"encoding": "bytes",
						"label": "string",
						"numberOfBytes": "32"
					},
					"t_struct(EduProgram)1132_storage": {
						"encoding": "inplace",
						"label": "struct LdEduProgram.EduProgram",
						"members": [
							{
								"astId": 1103,
								"contract": "contracts/LdEduProgram.sol:LdEduProgram",
								"label": "id",
								"offset": 0,
								"slot": "0",
								"type": "t_uint256"
							},
							{
								"astId": 1105,
								"contract": "contracts/LdEduProgram.sol:LdEduProgram",
								"label": "name",
								"offset": 0,
								"slot": "1",
								"type": "t_string_storage"
							},
							{
								"astId": 1108,
								"contract": "contracts/LdEduProgram.sol:LdEduProgram",
								"label": "keywords",
								"offset": 0,
								"slot": "2",
								"type": "t_array(t_string_storage)dyn_storage"
							},
							{
								"astId": 1110,
								"contract": "contracts/LdEduProgram.sol:LdEduProgram",
								"label": "price",
								"offset": 0,
								"slot": "3",
								"type": "t_uint256"
							},
							{
								"astId": 1112,
								"contract": "contracts/LdEduProgram.sol:LdEduProgram",
								"label": "startTime",
								"offset": 0,
								"slot": "4",
								"type": "t_uint256"
							},
							{
								"astId": 1114,
								"contract": "contracts/LdEduProgram.sol:LdEduProgram",
								"label": "endTime",
								"offset": 0,
								"slot": "5",
								"type": "t_uint256"
							},
							{
								"astId": 1116,
								"contract": "contracts/LdEduProgram.sol:LdEduProgram",
								"label": "summary",
								"offset": 0,
								"slot": "6",
								"type": "t_string_storage"
							},
							{
								"astId": 1118,
								"contract": "contracts/LdEduProgram.sol:LdEduProgram",
								"label": "description",
								"offset": 0,
								"slot": "7",
								"type": "t_string_storage"
							},
							{
								"astId": 1121,
								"contract": "contracts/LdEduProgram.sol:LdEduProgram",
								"label": "links",
								"offset": 0,
								"slot": "8",
								"type": "t_array(t_string_storage)dyn_storage"
							},
							{
								"astId": 1123,
								"contract": "contracts/LdEduProgram.sol:LdEduProgram",
								"label": "maker",
								"offset": 0,
								"slot": "9",
								"type": "t_address"
							},
							{
								"astId": 1125,
								"contract": "contracts/LdEduProgram.sol:LdEduProgram",
								"label": "validator",
								"offset": 0,
								"slot": "10",
								"type": "t_address"
							},
							{
								"astId": 1127,
								"contract": "contracts/LdEduProgram.sol:LdEduProgram",
								"label": "approve",
								"offset": 20,
								"slot": "10",
								"type": "t_bool"
							},
							{
								"astId": 1129,
								"contract": "contracts/LdEduProgram.sol:LdEduProgram",
								"label": "claimed",
								"offset": 21,
								"slot": "10",
								"type": "t_bool"
							},
							{
								"astId": 1131,
								"contract": "contracts/LdEduProgram.sol:LdEduProgram",
								"label": "token",
								"offset": 0,
								"slot": "11",
								"type": "t_address"
							}
						],
						"numberOfBytes": "384"
					},
					"t_uint256": {
						"encoding": "inplace",
						"label": "uint256",
						"numberOfBytes": "32"
					}
				}
			},
			"userdoc": {
				"kind": "user",
				"methods": {},
				"version": 1
			}
		}
	}
}