{
  "_format": "hh-sol-artifact-1",
  "contractName": "LdEduProgram",
  "sourceName": "contracts/LdEduProgram.sol",
  "abi": [
    {
      "inputs": [
        {
          "internalType": "address",
          "name": "initialOwner",
          "type": "address"
        }
      ],
      "stateMutability": "nonpayable",
      "type": "constructor"
    },
    {
      "inputs": [
        {
          "internalType": "address",
          "name": "owner",
          "type": "address"
        }
      ],
      "name": "OwnableInvalidOwner",
      "type": "error"
    },
    {
      "inputs": [
        {
          "internalType": "address",
          "name": "account",
          "type": "address"
        }
      ],
      "name": "OwnableUnauthorizedAccount",
      "type": "error"
    },
    {
      "inputs": [],
      "name": "ReentrancyGuardReentrantCall",
      "type": "error"
    },
    {
      "inputs": [
        {
          "internalType": "address",
          "name": "token",
          "type": "address"
        }
      ],
      "name": "SafeERC20FailedOperation",
      "type": "error"
    },
    {
      "anonymous": false,
      "inputs": [
        {
          "indexed": false,
          "internalType": "uint256",
          "name": "newFee",
          "type": "uint256"
        }
      ],
      "name": "FeeUpdated",
      "type": "event"
    },
    {
      "anonymous": false,
      "inputs": [
        {
          "indexed": true,
          "internalType": "uint256",
          "name": "id",
          "type": "uint256"
        },
        {
          "indexed": false,
          "internalType": "address",
          "name": "maker",
          "type": "address"
        },
        {
          "indexed": false,
          "internalType": "uint256",
          "name": "amount",
          "type": "uint256"
        },
        {
          "indexed": false,
          "internalType": "address",
          "name": "token",
          "type": "address"
        }
      ],
      "name": "FundsReclaimed",
      "type": "event"
    },
    {
      "anonymous": false,
      "inputs": [
        {
          "indexed": true,
          "internalType": "uint256",
          "name": "programId",
          "type": "uint256"
        },
        {
          "indexed": true,
          "internalType": "address",
          "name": "builder",
          "type": "address"
        },
        {
          "indexed": false,
          "internalType": "uint256",
          "name": "reward",
          "type": "uint256"
        },
        {
          "indexed": false,
          "internalType": "address",
          "name": "token",
          "type": "address"
        }
      ],
      "name": "MilestoneAccepted",
      "type": "event"
    },
    {
      "anonymous": false,
      "inputs": [
        {
          "indexed": true,
          "internalType": "address",
          "name": "previousOwner",
          "type": "address"
        },
        {
          "indexed": true,
          "internalType": "address",
          "name": "newOwner",
          "type": "address"
        }
      ],
      "name": "OwnershipTransferred",
      "type": "event"
    },
    {
      "anonymous": false,
      "inputs": [
        {
          "indexed": true,
          "internalType": "uint256",
          "name": "id",
          "type": "uint256"
        },
        {
          "indexed": true,
          "internalType": "address",
          "name": "maker",
          "type": "address"
        },
        {
          "indexed": true,
          "internalType": "address",
          "name": "validator",
          "type": "address"
        },
        {
          "indexed": false,
          "internalType": "uint256",
          "name": "price",
          "type": "uint256"
        },
        {
          "indexed": false,
          "internalType": "address",
          "name": "token",
          "type": "address"
        }
      ],
      "name": "ProgramCreated",
      "type": "event"
    },
    {
      "anonymous": false,
      "inputs": [
        {
          "indexed": false,
          "internalType": "uint256",
          "name": "programId",
          "type": "uint256"
        },
        {
          "indexed": false,
          "internalType": "uint256",
          "name": "price",
          "type": "uint256"
        },
        {
          "indexed": false,
          "internalType": "uint256",
          "name": "startTime",
          "type": "uint256"
        },
        {
          "indexed": false,
          "internalType": "uint256",
          "name": "endTime",
          "type": "uint256"
        },
        {
          "indexed": false,
          "internalType": "address",
          "name": "newValidator",
          "type": "address"
        }
      ],
      "name": "ProgramEdited",
      "type": "event"
    },
    {
      "anonymous": false,
      "inputs": [
        {
          "indexed": false,
          "internalType": "address",
          "name": "token",
          "type": "address"
        },
        {
          "indexed": false,
          "internalType": "bool",
          "name": "status",
          "type": "bool"
        }
      ],
      "name": "TokenWhitelisted",
      "type": "event"
    },
    {
      "inputs": [],
      "name": "ETH_ADDRESS",
      "outputs": [
        {
          "internalType": "address",
          "name": "",
          "type": "address"
        }
      ],
      "stateMutability": "view",
      "type": "function"
    },
    {
      "inputs": [
        {
          "internalType": "uint256",
          "name": "programId",
          "type": "uint256"
        },
        {
          "internalType": "address",
          "name": "builder",
          "type": "address"
        },
        {
          "internalType": "uint256",
          "name": "reward",
          "type": "uint256"
        }
      ],
      "name": "acceptMilestone",
      "outputs": [],
      "stateMutability": "nonpayable",
      "type": "function"
    },
    {
      "inputs": [
        {
          "internalType": "string",
          "name": "_name",
          "type": "string"
        },
        {
          "internalType": "uint256",
          "name": "_price",
          "type": "uint256"
        },
        {
          "internalType": "uint256",
          "name": "_startTime",
          "type": "uint256"
        },
        {
          "internalType": "uint256",
          "name": "_endTime",
          "type": "uint256"
        },
        {
          "internalType": "address",
          "name": "_validator",
          "type": "address"
        },
        {
          "internalType": "address",
          "name": "_token",
          "type": "address"
        }
      ],
      "name": "createEduProgram",
      "outputs": [],
      "stateMutability": "payable",
      "type": "function"
    },
    {
      "inputs": [
        {
          "internalType": "uint256",
          "name": "",
          "type": "uint256"
        }
      ],
      "name": "eduPrograms",
      "outputs": [
        {
          "internalType": "uint256",
          "name": "id",
          "type": "uint256"
        },
        {
          "internalType": "string",
          "name": "name",
          "type": "string"
        },
        {
          "internalType": "uint256",
          "name": "price",
          "type": "uint256"
        },
        {
          "internalType": "uint256",
          "name": "startTime",
          "type": "uint256"
        },
        {
          "internalType": "uint256",
          "name": "endTime",
          "type": "uint256"
        },
        {
          "internalType": "address",
          "name": "maker",
          "type": "address"
        },
        {
          "internalType": "address",
          "name": "validator",
          "type": "address"
        },
        {
          "internalType": "bool",
          "name": "claimed",
          "type": "bool"
        },
        {
          "internalType": "bool",
          "name": "approve",
          "type": "bool"
        },
        {
          "internalType": "address",
          "name": "token",
          "type": "address"
        }
      ],
      "stateMutability": "view",
      "type": "function"
    },
    {
      "inputs": [
        {
          "internalType": "address",
          "name": "token",
          "type": "address"
        },
        {
          "internalType": "uint256",
          "name": "amount",
          "type": "uint256"
        }
      ],
      "name": "emergencyWithdraw",
      "outputs": [],
      "stateMutability": "nonpayable",
      "type": "function"
    },
    {
      "inputs": [
        {
          "internalType": "address",
          "name": "token",
          "type": "address"
        }
      ],
      "name": "getContractBalance",
      "outputs": [
        {
          "internalType": "uint256",
          "name": "",
          "type": "uint256"
        }
      ],
      "stateMutability": "view",
      "type": "function"
    },
    {
      "inputs": [],
      "name": "getFee",
      "outputs": [
        {
          "internalType": "uint256",
          "name": "",
          "type": "uint256"
        }
      ],
      "stateMutability": "view",
      "type": "function"
    },
    {
      "inputs": [
        {
          "internalType": "uint256",
          "name": "programId",
          "type": "uint256"
        }
      ],
      "name": "getProgramDetails",
      "outputs": [
        {
          "internalType": "string",
          "name": "name",
          "type": "string"
        },
        {
          "internalType": "uint256",
          "name": "price",
          "type": "uint256"
        },
        {
          "internalType": "address",
          "name": "maker",
          "type": "address"
        },
        {
          "internalType": "address",
          "name": "validator",
          "type": "address"
        },
        {
          "internalType": "address",
          "name": "token",
          "type": "address"
        },
        {
          "internalType": "bool",
          "name": "claimed",
          "type": "bool"
        }
      ],
      "stateMutability": "view",
      "type": "function"
    },
    {
      "inputs": [],
      "name": "nextProgramId",
      "outputs": [
        {
          "internalType": "uint256",
          "name": "",
          "type": "uint256"
        }
      ],
      "stateMutability": "view",
      "type": "function"
    },
    {
      "inputs": [],
      "name": "owner",
      "outputs": [
        {
          "internalType": "address",
          "name": "",
          "type": "address"
        }
      ],
      "stateMutability": "view",
      "type": "function"
    },
    {
      "inputs": [
        {
          "internalType": "uint256",
          "name": "programId",
          "type": "uint256"
        }
      ],
      "name": "reclaimFunds",
      "outputs": [],
      "stateMutability": "nonpayable",
      "type": "function"
    },
    {
      "inputs": [],
      "name": "renounceOwnership",
      "outputs": [],
      "stateMutability": "nonpayable",
      "type": "function"
    },
    {
      "inputs": [
        {
          "internalType": "uint256",
          "name": "_fee",
          "type": "uint256"
        }
      ],
      "name": "setFee",
      "outputs": [],
      "stateMutability": "nonpayable",
      "type": "function"
    },
    {
      "inputs": [
        {
          "internalType": "address",
          "name": "token",
          "type": "address"
        },
        {
          "internalType": "bool",
          "name": "status",
          "type": "bool"
        }
      ],
      "name": "setTokenWhitelist",
      "outputs": [],
      "stateMutability": "nonpayable",
      "type": "function"
    },
    {
      "inputs": [
        {
          "internalType": "address",
          "name": "newOwner",
          "type": "address"
        }
      ],
      "name": "transferOwnership",
      "outputs": [],
      "stateMutability": "nonpayable",
      "type": "function"
    },
    {
      "inputs": [
        {
          "internalType": "uint256",
          "name": "programId",
          "type": "uint256"
        },
        {
          "internalType": "uint256",
          "name": "price",
          "type": "uint256"
        },
        {
          "internalType": "uint256",
          "name": "startTime",
          "type": "uint256"
        },
        {
          "internalType": "uint256",
          "name": "endTime",
          "type": "uint256"
        },
        {
          "internalType": "address",
          "name": "newValidator",
          "type": "address"
        }
      ],
      "name": "updateProgram",
      "outputs": [],
      "stateMutability": "nonpayable",
      "type": "function"
    },
    {
      "inputs": [
        {
          "internalType": "address",
          "name": "",
          "type": "address"
        }
      ],
      "name": "whitelistedTokens",
      "outputs": [
        {
          "internalType": "bool",
          "name": "",
          "type": "bool"
        }
      ],
      "stateMutability": "view",
      "type": "function"
    }
  ],
  "bytecode": "0x6080346100d657601f61154238819003918201601f19168301916001600160401b038311848410176100db578084926020946040528339810103126100d657516001600160a01b0390818116908190036100d65780156100bd57600080546001600160a01b03198116831782556040805194909391167f8be0079c531659141344cd1fd0a4f28419497f9722a3daafe3b4186f6b6457e08380a360018055808052600360205220600160ff1982541617905561145090816100f28239f35b604051631e4fbdf760e01b815260006004820152602490fd5b600080fd5b634e487b7160e01b600052604160045260246000fdfe6080604052600436101561001257600080fd5b60003560e01c8063390cf36b14610e2257806343ab265f14610df757806369fe0e2d14610dab578063715018a614610d5257806389001eb114610bf25780638da5cb5b14610bc957806395ccea6714610b6d5780639b46c80114610adf578063a734f06e14610ac3578063ba71b33014610aa5578063c9bcc97e14610a21578063ced72f8714610a03578063d613fd2414610948578063daf9c21014610909578063eb147fef1461035f578063f2fde38b146102d65763f9f161a8146100d757600080fd5b346102d1576020806003193601126102d157600435906100f5611383565b81600052600281526040600020906004820154421115610295576005820180546001600160a01b0390811693913385900361025857600683019283549360ff8560a01c1661022157600282019081549586156101e65760ff60a01b1916600160a01b1790556000905560070180547fdf220afda5d5d16927c8d84713af8457f72e8bd4af288509a77c48754f4acd909660609692959294929383929091908316908590826101d857506101bd9150600080808093878754165af16101b76112c1565b506112f1565b5416935416916040519384528301526040820152a260018055005b6101e192611333565b6101bd565b60405162461bcd60e51b81526004810189905260136024820152724e6f2066756e647320746f207265636c61696d60681b6044820152606490fd5b60405162461bcd60e51b815260048101879052600f60248201526e105b1c9958591e4818db185a5b5959608a1b6044820152606490fd5b60405162461bcd60e51b81526004810185905260156024820152742737ba103a343290383937b3b930b69036b0b5b2b960591b6044820152606490fd5b6064906040519062461bcd60e51b825260048201526015602482015274141c9bd9dc985b481b9bdd08195b991959081e595d605a1b6044820152fd5b600080fd5b346102d15760203660031901126102d1576102ef6110af565b6102f7611239565b6001600160a01b0390811690811561034657600054826001600160601b0360a01b821617600055167f8be0079c531659141344cd1fd0a4f28419497f9722a3daafe3b4186f6b6457e0600080a3005b604051631e4fbdf760e01b815260006004820152602490fd5b60c03660031901126102d15760043567ffffffffffffffff81116102d157366023820112156102d15780600401356103968161121d565b916103a46040519384611155565b81835236602483830101116102d1578160009260246020930183860137830101526064906103d06110c5565b9060a4356001600160a01b03811690036102d15760a4356001600160a01b031660009081526003602052604090205460ff16156108cd57604492803584351015610870576024351561082f576004549360a4356001600160a01b0316610778576024353403610720575b604051928361014081011067ffffffffffffffff6101408601111761070a576101408401604052858452602084015260243560408401523560608301523560808201523360a082015260018060a01b03821660c0820152600060e0820152600061010082015260018060a01b0360a43516610120820152826000526002602052604060002081518155602082015180519067ffffffffffffffff821161070a5781906104e9600185015461111b565b601f81116106b7575b50602090601f83116001146106455760009261063a575b50508160011b916000199060031b1c19161760018201555b6040820151600282015560608201516003820155608082015160048201556007600582019160018060a01b0360a085015116926001600160601b0360a01b93848254161790556006810160018060a01b0360c08601511681549060ff60a01b60e0880151151560a01b169060ff60a81b610100890151151560a81b169269ffffffffffffffffffff60b01b161717179055019161012060018060a01b0391015116908254161790556004546000198114610624576001016004556040805160243581526001600160a01b0360a435811660208301529290921692339290917fdd511ba7adfc2d92b666c725a9d6073b35763fe9017f7b3c0c75767e25b0f2cc91a4005b634e487b7160e01b600052601160045260246000fd5b015190508680610509565b9250600184016000526020600020906000935b601f198416851061069c576001945083601f19811610610683575b505050811b016001820155610521565b015160001960f88460031b161c19169055868080610673565b81810151835560209485019460019093019290910190610658565b909150600184016000526020600020601f840160051c810160208510610703575b90849392915b601f830160051c820181106106f45750506104f2565b600081558594506001016106de565b50806106d8565b634e487b7160e01b600052604160045260246000fd5b6c70726f6772616d20707269636560981b6084927f546865204554482073656e7420646f6573206e6f74206d6174636820746865206040519362461bcd60e51b855260206004860152602d6024860152840152820152fd5b346107da576040516323b872dd60e01b602082015233602482015230828201526024358382015282815260a081019080821067ffffffffffffffff83111761070a576040919091526107d59060a4356001600160a01b0316611265565b61043a565b693bb4ba34103a37b5b2b760b11b6084927f53686f756c64206e6f742073656e6420455448207768656e20706179696e67206040519362461bcd60e51b855260206004860152602a6024860152840152820152fd5b60405162461bcd60e51b815260206004820152601c60248201527f5072696365206d7573742062652067726561746572207468616e20300000000081860152fd5b83703430b7103a34329032b732103a34b6b29760791b6084927f5468652053746172742074696d65206d757374206265206561726c69657220746040519362461bcd60e51b85526020600486015260316024860152840152820152fd5b60405162461bcd60e51b8152602060048201526015602482015274151bdad95b881b9bdd081dda1a5d195b1a5cdd1959605a1b60448201528390fd5b346102d15760203660031901126102d1576001600160a01b0361092a6110af565b166000526003602052602060ff604060002054166040519015158152f35b346102d15760203660031901126102d15760043560005260026020526040600020805461097760018301611177565b9160028101549060ff600382015491600481015460018060a01b03908160058401541690826007600686015495015416956109c46040519a8b9a8b526101408060208d01528b01906110db565b9760408a01526060890152608088015260a0870152811660c0860152818160a01c16151560e086015260a81c1615156101008401526101208301520390f35b346102d15760003660031901126102d1576020600554604051908152f35b346102d15760403660031901126102d157610a3a6110af565b602435908115158092036102d1577fef81a9943b96c8df4ef243401c9bf5159146166211356898b52d382086168d9291604091610a75611239565b60018060a01b0316908160005260036020528260002060ff1981541660ff831617905582519182526020820152a1005b346102d15760003660031901126102d1576020600454604051908152f35b346102d15760003660031901126102d157602060405160008152f35b346102d15760203660031901126102d1576004356000526002602052610b476040600020600281015460ff60018060a01b038060058501541693600681015491610b326001826007850154169301611177565b9560405197889760c0895260c08901906110db565b956020880152604087015282166060860152608085015260a01c16151560a08301520390f35b346102d15760403660031901126102d157610b866110af565b602435610b91611239565b6001600160a01b0391821680610bbb5750600080808093610bb9958254165af16101b76112c1565b005b610bb9926000541690611333565b346102d15760003660031901126102d1576000546040516001600160a01b039091168152602090f35b346102d15760a03660031901126102d157602435604435600435606435610c176110c5565b9082600052600260205260406000209360018060a01b0395866005870154163303610d1e5782821015610cea578015610cb5577fe3d59d03839a10c8a5a85dd0d7e5a4ac45445821c5176529d2745adf6915a1619660068783600260a09a015584600382015585600482015501941693846001600160601b03881b8254161790556040519485526020850152604084015260608301526080820152a1005b60405162461bcd60e51b815260206004820152600d60248201526c496e76616c696420707269636560981b6044820152606490fd5b60405162461bcd60e51b815260206004820152600c60248201526b496e76616c69642074696d6560a01b6044820152606490fd5b60405162461bcd60e51b815260206004820152600c60248201526b27b7363c9031b932b0ba37b960a11b6044820152606490fd5b346102d15760003660031901126102d157610d6b611239565b600080546001600160a01b0319811682556001600160a01b03167f8be0079c531659141344cd1fd0a4f28419497f9722a3daafe3b4186f6b6457e08280a3005b346102d15760203660031901126102d1577f8c4d35e54a3f2ef1134138fd8ea3daee6a3c89e10d2665996babdf70261e2c766020600435610dea611239565b80600555604051908152a1005b346102d15760203660031901126102d1576020610e1a610e156110af565b6113a6565b604051908152f35b346102d15760603660031901126102d157602480356001600160a01b0381811691600435918382036102d15760443591610e5a611383565b8360005260206002815260406000209083600683015416330361107c576002820191825486116110385760070192848454168015600014610f69575050844710610f1c5750610eb36000808080888b5af16101b76112c1565b805490848203918211610f075755546040805193845291166001600160a01b0316602083015292935090917f41ea6ae62454ef15ab94bbfa38e7c0a4c91f27154a95ae628da0b3d70450f23491a360018055005b87634e487b7160e01b60005260116004526000fd5b6084906021896040519262461bcd60e51b845260048401528201527f496e73756666696369656e7420636f6e7472616374204554482062616c616e636044820152606560f81b6064820152fd5b90916040516370a0823160e01b815230600482015281818c81865afa801561102c578891600091610ffb575b5010610fac5750610fa7918691611333565b610eb3565b60849060238b6040519262461bcd60e51b845260048401528201527f496e73756666696369656e7420636f6e747261637420746f6b656e2062616c616044820152626e636560e81b6064820152fd5b809250838092503d8311611025575b6110148183611155565b810103126102d1578790518c610f95565b503d61100a565b6040513d6000823e3d90fd5b60405162461bcd60e51b815260048101839052601e818b01527f52657761726420657863656564732070726f6772616d2062616c616e636500006044820152606490fd5b606490600d896040519262461bcd60e51b845260048401528201526c2737ba103b30b634b230ba37b960991b6044820152fd5b600435906001600160a01b03821682036102d157565b608435906001600160a01b03821682036102d157565b919082519283825260005b848110611107575050826000602080949584010152601f8019910116010190565b6020818301810151848301820152016110e6565b90600182811c9216801561114b575b602083101461113557565b634e487b7160e01b600052602260045260246000fd5b91607f169161112a565b90601f8019910116810190811067ffffffffffffffff82111761070a57604052565b906040519182600082549261118b8461111b565b9081845260019485811690816000146111fa57506001146111b7575b50506111b592500383611155565b565b9093915060005260209081600020936000915b8183106111e25750506111b5935082010138806111a7565b855488840185015294850194879450918301916111ca565b9150506111b594506020925060ff191682840152151560051b82010138806111a7565b67ffffffffffffffff811161070a57601f01601f191660200190565b6000546001600160a01b0316330361124d57565b60405163118cdaa760e01b8152336004820152602490fd5b906000602091828151910182855af11561102c576000513d6112b857506001600160a01b0381163b155b6112965750565b604051635274afe760e01b81526001600160a01b039091166004820152602490fd5b6001141561128f565b3d156112ec573d906112d28261121d565b916112e06040519384611155565b82523d6000602084013e565b606090565b156112f857565b60405162461bcd60e51b8152602060048201526013602482015272115512081d1c985b9cd9995c8819985a5b1959606a1b6044820152606490fd5b60405163a9059cbb60e01b60208201526001600160a01b039092166024830152604480830193909352918152608081019167ffffffffffffffff83118284101761070a576111b592604052611265565b600260015414611394576002600155565b604051633ee5aeb560e01b8152600490fd5b6001600160a01b0316806113b957504790565b6020602491604051928380926370a0823160e01b82523060048301525afa90811561102c576000916113e9575090565b906020823d8211611412575b8161140260209383611155565b8101031261140f57505190565b80fd5b3d91506113f556fea2646970667358221220c2cf45b4b116b6b05a5aa57b89731066de14784b84e5394e2f10782dd0ffcb1d64736f6c63430008140033",
  "linkReferences": {},
  "deployedLinkReferences": {}
}