{
  "_format": "hh-sol-artifact-1",
  "contractName": "LdEduProgram",
  "sourceName": "contracts/LdEduProgram.sol",
  "abi": [
    {
      "inputs": [
        {
          "internalType": "address",
          "name": "initialOwner",
          "type": "address"
        }
      ],
      "stateMutability": "nonpayable",
      "type": "constructor"
    },
    {
      "anonymous": false,
      "inputs": [
        {
          "indexed": false,
          "internalType": "uint256",
          "name": "newFee",
          "type": "uint256"
        }
      ],
      "name": "FeeUpdated",
      "type": "event"
    },
    {
      "anonymous": false,
      "inputs": [
        {
          "indexed": true,
          "internalType": "uint256",
          "name": "id",
          "type": "uint256"
        },
        {
          "indexed": false,
          "internalType": "address",
          "name": "maker",
          "type": "address"
        },
        {
          "indexed": false,
          "internalType": "uint256",
          "name": "amount",
          "type": "uint256"
        }
      ],
      "name": "FundsReclaimed",
      "type": "event"
    },
    {
      "anonymous": false,
      "inputs": [
        {
          "indexed": true,
          "internalType": "uint256",
          "name": "programId",
          "type": "uint256"
        },
        {
          "indexed": true,
          "internalType": "string",
          "name": "milestoneId",
          "type": "string"
        },
        {
          "indexed": true,
          "internalType": "address",
          "name": "builder",
          "type": "address"
        },
        {
          "indexed": false,
          "internalType": "uint256",
          "name": "reward",
          "type": "uint256"
        }
      ],
      "name": "MilestoneAccepted",
      "type": "event"
    },
    {
      "anonymous": false,
      "inputs": [
        {
          "indexed": true,
          "internalType": "address",
          "name": "previousOwner",
          "type": "address"
        },
        {
          "indexed": true,
          "internalType": "address",
          "name": "newOwner",
          "type": "address"
        }
      ],
      "name": "OwnershipTransferred",
      "type": "event"
    },
    {
      "anonymous": false,
      "inputs": [
        {
          "indexed": true,
          "internalType": "uint256",
          "name": "programId",
          "type": "uint256"
        }
      ],
      "name": "ProgramApproved",
      "type": "event"
    },
    {
      "anonymous": false,
      "inputs": [
        {
          "indexed": true,
          "internalType": "uint256",
          "name": "id",
          "type": "uint256"
        },
        {
          "indexed": true,
          "internalType": "address",
          "name": "maker",
          "type": "address"
        },
        {
          "indexed": true,
          "internalType": "address",
          "name": "validator",
          "type": "address"
        },
        {
          "indexed": false,
          "internalType": "uint256",
          "name": "price",
          "type": "uint256"
        }
      ],
      "name": "ProgramCreated",
      "type": "event"
    },
    {
      "anonymous": false,
      "inputs": [
        {
          "indexed": false,
          "internalType": "uint256",
          "name": "programId",
          "type": "uint256"
        },
        {
          "indexed": false,
          "internalType": "uint256",
          "name": "price",
          "type": "uint256"
        },
        {
          "indexed": false,
          "internalType": "uint256",
          "name": "startTime",
          "type": "uint256"
        },
        {
          "indexed": false,
          "internalType": "uint256",
          "name": "endTime",
          "type": "uint256"
        },
        {
          "indexed": false,
          "internalType": "address",
          "name": "newValidator",
          "type": "address"
        }
      ],
      "name": "ProgramEdited",
      "type": "event"
    },
    {
      "inputs": [
        {
          "internalType": "uint256",
          "name": "programId",
          "type": "uint256"
        },
        {
          "internalType": "string",
          "name": "milestoneId",
          "type": "string"
        },
        {
          "internalType": "address",
          "name": "builder",
          "type": "address"
        },
        {
          "internalType": "uint256",
          "name": "reward",
          "type": "uint256"
        }
      ],
      "name": "acceptMilestone",
      "outputs": [],
      "stateMutability": "nonpayable",
      "type": "function"
    },
    {
      "inputs": [
        {
          "internalType": "uint256",
          "name": "programId",
          "type": "uint256"
        }
      ],
      "name": "approveProgram",
      "outputs": [],
      "stateMutability": "nonpayable",
      "type": "function"
    },
    {
      "inputs": [
        {
          "internalType": "string",
          "name": "_name",
          "type": "string"
        },
        {
          "internalType": "uint256",
          "name": "_price",
          "type": "uint256"
        },
        {
          "internalType": "string[]",
          "name": "_keywords",
          "type": "string[]"
        },
        {
          "internalType": "uint256",
          "name": "_startTime",
          "type": "uint256"
        },
        {
          "internalType": "uint256",
          "name": "_endTime",
          "type": "uint256"
        },
        {
          "internalType": "address",
          "name": "_validator",
          "type": "address"
        },
        {
          "internalType": "string",
          "name": "_summary",
          "type": "string"
        },
        {
          "internalType": "string",
          "name": "_description",
          "type": "string"
        },
        {
          "internalType": "string[]",
          "name": "_links",
          "type": "string[]"
        }
      ],
      "name": "createEduProgram",
      "outputs": [],
      "stateMutability": "payable",
      "type": "function"
    },
    {
      "inputs": [
        {
          "internalType": "uint256",
          "name": "",
          "type": "uint256"
        }
      ],
      "name": "eduPrograms",
      "outputs": [
        {
          "internalType": "uint256",
          "name": "id",
          "type": "uint256"
        },
        {
          "internalType": "string",
          "name": "name",
          "type": "string"
        },
        {
          "internalType": "uint256",
          "name": "price",
          "type": "uint256"
        },
        {
          "internalType": "uint256",
          "name": "startTime",
          "type": "uint256"
        },
        {
          "internalType": "uint256",
          "name": "endTime",
          "type": "uint256"
        },
        {
          "internalType": "string",
          "name": "summary",
          "type": "string"
        },
        {
          "internalType": "string",
          "name": "description",
          "type": "string"
        },
        {
          "internalType": "address",
          "name": "maker",
          "type": "address"
        },
        {
          "internalType": "address",
          "name": "validator",
          "type": "address"
        },
        {
          "internalType": "bool",
          "name": "approve",
          "type": "bool"
        },
        {
          "internalType": "bool",
          "name": "claimed",
          "type": "bool"
        }
      ],
      "stateMutability": "view",
      "type": "function"
    },
    {
      "inputs": [],
      "name": "getFee",
      "outputs": [
        {
          "internalType": "uint256",
          "name": "",
          "type": "uint256"
        }
      ],
      "stateMutability": "view",
      "type": "function"
    },
    {
      "inputs": [],
      "name": "nextProgramId",
      "outputs": [
        {
          "internalType": "uint256",
          "name": "",
          "type": "uint256"
        }
      ],
      "stateMutability": "view",
      "type": "function"
    },
    {
      "inputs": [],
      "name": "owner",
      "outputs": [
        {
          "internalType": "address",
          "name": "",
          "type": "address"
        }
      ],
      "stateMutability": "view",
      "type": "function"
    },
    {
      "inputs": [
        {
          "internalType": "uint256",
          "name": "programId",
          "type": "uint256"
        }
      ],
      "name": "reclaimFunds",
      "outputs": [],
      "stateMutability": "nonpayable",
      "type": "function"
    },
    {
      "inputs": [],
      "name": "renounceOwnership",
      "outputs": [],
      "stateMutability": "nonpayable",
      "type": "function"
    },
    {
      "inputs": [
        {
          "internalType": "uint256",
          "name": "_fee",
          "type": "uint256"
        }
      ],
      "name": "setFee",
      "outputs": [],
      "stateMutability": "nonpayable",
      "type": "function"
    },
    {
      "inputs": [
        {
          "internalType": "address",
          "name": "newOwner",
          "type": "address"
        }
      ],
      "name": "transferOwnership",
      "outputs": [],
      "stateMutability": "nonpayable",
      "type": "function"
    },
    {
      "inputs": [
        {
          "internalType": "uint256",
          "name": "programId",
          "type": "uint256"
        },
        {
          "internalType": "uint256",
          "name": "price",
          "type": "uint256"
        },
        {
          "internalType": "uint256",
          "name": "startTime",
          "type": "uint256"
        },
        {
          "internalType": "uint256",
          "name": "endTime",
          "type": "uint256"
        },
        {
          "internalType": "address",
          "name": "newValidator",
          "type": "address"
        }
      ],
      "name": "updateProgram",
      "outputs": [],
      "stateMutability": "nonpayable",
      "type": "function"
    }
  ],
  "bytecode": "0x60803461007457601f6117f738819003918201601f19168301916001600160401b038311848410176100795780849260209460405283398101031261007457516001600160a01b0381168103610074576100659061005c3361008f565b6001805561008f565b60405161172090816100d78239f35b600080fd5b634e487b7160e01b600052604160045260246000fd5b600080546001600160a01b039283166001600160a01b03198216811783559216907f8be0079c531659141344cd1fd0a4f28419497f9722a3daafe3b4186f6b6457e09080a356fe6080604052600436101561001257600080fd5b60003560e01c806369fe0e2d1461131a578063715018a6146112c157806378ea19b01461088257806389001eb11461071a5780638da5cb5b146106f1578063b0d456ac1461062d578063ba71b3301461060f578063ced72f87146105f1578063d613fd2414610505578063f24791861461030d578063f2fde38b146102425763f9f161a8146100a057600080fd5b3461023d5760208060031936011261023d57600435906100be611694565b81600052600281526040600020600a8101918254906100e360ff8360a01c1615611655565b60ff8260a81c166102075760058301544211156101cb57600983019260018060a01b0394858554169384330361018e5760ff60a81b1916600160a81b17905560030180549092600091829182918291828215610185575bf115610179577fd37c0b9c7560299a7c963d03165111d712663805228e5ffca03d540c5d6e410e9360409354169154908351928352820152a260018055005b6040513d6000823e3d90fd5b506108fc61013a565b60405162461bcd60e51b81526004810185905260156024820152742737ba103a343290383937b3b930b69036b0b5b2b960591b6044820152606490fd5b6064906040519062461bcd60e51b825260048201526015602482015274141c9bd9dc985b481b9bdd08195b991959081e595d605a1b6044820152fd5b6064906040519062461bcd60e51b82526004820152600f60248201526e105b1c9958591e4818db185a5b5959608a1b6044820152fd5b600080fd5b3461023d57602036600319011261023d576004356001600160a01b038181169182900361023d576102716115aa565b81156102b957600054826bffffffffffffffffffffffff60a01b821617600055167f8be0079c531659141344cd1fd0a4f28419497f9722a3daafe3b4186f6b6457e0600080a3005b60405162461bcd60e51b815260206004820152602660248201527f4f776e61626c653a206e6577206f776e657220697320746865207a65726f206160448201526564647265737360d01b6064820152608490fd5b3461023d57608036600319011261023d576004356024356001600160401b03811161023d576103409036906004016113b8565b6001600160a01b036044358181169391929084900361023d5760643592610365611694565b826000526020906002825260ff60406000209161038a600a8401549182163314611619565b60a01c16156104c95760030180548511610484576000808080888a5af13d1561047f573d6103b78161139d565b906103c56040519283611366565b81526000843d92013e5b156104445780549285840393841161042e577f0283d9e3f5cdb8281e6971895ed99be8f40753cdb7e6afbc25c97e2b3462a9e49361041b92558260405192828480945193849201611562565b810103902093604051908152a460018055005b634e487b7160e01b600052601160045260246000fd5b60405162461bcd60e51b8152600481018390526013602482015272115512081d1c985b9cd9995c8819985a5b1959606a1b6044820152606490fd5b6103cf565b60405162461bcd60e51b815260048101839052601e60248201527f52657761726420657863656564732070726f6772616d2062616c616e636500006044820152606490fd5b60405162461bcd60e51b8152600481018390526014602482015273141c9bd9dc985b481b9bdd08185c1c1c9bdd995960621b6044820152606490fd5b3461023d57602036600319011261023d57600435600052600260205260406000208054610534600183016114bc565b9160ff60038201546004830154906105c56005850154916105b761055a600688016114bc565b91610567600789016114bc565b9260018060a01b0395600a8760098c0154169a01549761059a6040519d8e9d8e528d610160908160208201520190611585565b9360408d015260608c015260808b015289820360a08b0152611585565b9087820360c0890152611585565b9360e08601528116610100850152818160a01c16151561012085015260a81c1615156101408301520390f35b3461023d57600036600319011261023d576020600454604051908152f35b3461023d57600036600319011261023d576020600354604051908152f35b3461023d57602036600319011261023d576004356000818152600260205260409020600a81018054909160059061066e336001600160a01b03851614611619565b015442116106bc5761068660ff8260a01c1615611655565b60ff60a01b1916600160a01b1790557f3ca3d218d64ea45c582c714d84dcdfd87f8d3cb3a3449fe533c2cb6d614ab766600080a2005b60405162461bcd60e51b815260206004820152600d60248201526c141c9bd9dc985b48195b991959609a1b6044820152606490fd5b3461023d57600036600319011261023d576000546040516001600160a01b039091168152602090f35b3461023d5760a036600319011261023d576024356001600160a01b0360043560843582811690606435906044359083900361023d57836000526002602052604060002094600986015416330361084e578181101561081a5785156107e55785600a867fe3d59d03839a10c8a5a85dd0d7e5a4ac45445821c5176529d2745adf6915a16198600360a099015583600482015584600582015501846bffffffffffffffffffffffff881b8254161790556040519485526020850152604084015260608301526080820152a1005b60405162461bcd60e51b815260206004820152600d60248201526c496e76616c696420707269636560981b6044820152606490fd5b60405162461bcd60e51b815260206004820152600c60248201526b496e76616c69642074696d6560a01b6044820152606490fd5b60405162461bcd60e51b815260206004820152600c60248201526b27b7363c9031b932b0ba37b960a11b6044820152606490fd5b61012036600319011261023d576004356001600160401b03811161023d576108ae9036906004016113b8565b6044356001600160401b03811161023d576108cd9036906004016113ff565b9060a4356001600160a01b038116810361023d5760c4356001600160401b03811161023d576109009036906004016113b8565b9160e4356001600160401b03811161023d576109209036906004016113b8565b610104356001600160401b03811161023d576109409036906004016113ff565b9060249485353403611267576084356064351015611209576003549660405194856101a08101106001600160401b036101a0880111176111f4576101a086016040528886526020860152604085015285356060850152606435608085015260843560a085015260c084015260e08301526101008201523361012082015260018060a01b0382166101408201526000610160820152600061018082015283600052600260205260406000208151815560208201518051906001600160401b038211610e31578190610a136001850154611482565b601f81116111bf575b50602090601f831160011461114d57600092611142575b50508160011b916000199060031b1c19161760018201555b6040820151805190600160401b8211610e315760028301548260028501558083106110ca575b506020016002830160005260206000206000915b838310610faa5750505050606082015160038201556080820151600482015560a0820151600582015560c08201518051906001600160401b038211610e31578190610ad36006850154611482565b601f8111610f75575b50602090601f8311600114610f0357600092610ef8575b50508160011b916000199060031b1c19161760068201555b60e08201518051906001600160401b038211610e31578190610b306007850154611482565b601f8111610ec3575b50602090601f8311600114610e5157600092610e46575b50508160011b916000199060031b1c19161760078201555b610100820151805190600160401b8211610e31576008830154826008850155808310610db9575b506020016008830160005260206000206000915b838310610c8457505050506101208201516009820180546001600160a01b0319166001600160a01b03928316179055610140830151600a9092018054610160850151610180909501516001600160b01b0319909116939092169290921792151560a01b60ff60a01b169290921791151560a81b60ff60a81b169190911790556003546000198114610c6f57600101600355604051913582526001600160a01b03169133917f808c887919683a350ed55b3499f97ed7f4093ecc5e131fadb8b075a85457af3a90602090a4005b82634e487b7160e01b60005260116004526000fd5b80518051906001600160401b038211610da457610ca18454611482565b601f8111610d67575b50602090601f8311600114610cf7579282600194936020938695600092610cec575b5050600019600383901b1c191690841b1785555b01920192019190610ba3565b015190508e80610ccc565b908460005260206000209160005b601f1985168110610d4f575083602093600196938796938794601f19811610610d36575b505050811b018555610ce0565b015160001960f88460031b161c191690558e8080610d29565b91926020600181928685015181550194019201610d05565b610d9490856000526020600020601f850160051c81019160208610610d9a575b601f0160051c0190611602565b8b610caa565b9091508190610d87565b89634e487b7160e01b60005260416004526000fd5b600884016000526020600020908382015b8183018110610dda575050610b8f565b80610de760019254611482565b80610df4575b5001610dca565b601f81118314610e0a5750600081555b8b610ded565b600090828252610e28601f60208420920160051c8201858301611602565b81835555610e04565b85634e487b7160e01b60005260416004526000fd5b015190508780610b50565b9250600784016000526020600020906000935b601f1984168510610ea8576001945083601f19811610610e8f575b505050811b016007820155610b68565b015160001960f88460031b161c19169055878080610e7f565b81810151835560209485019460019093019290910190610e64565b610ef290600786016000526020600020601f850160051c81019160208610610d9a57601f0160051c0190611602565b88610b39565b015190508780610af3565b9250600684016000526020600020906000935b601f1984168510610f5a576001945083601f19811610610f41575b505050811b016006820155610b0b565b015160001960f88460031b161c19169055878080610f31565b81810151835560209485019460019093019290910190610f16565b610fa490600686016000526020600020601f850160051c81019160208610610d9a57601f0160051c0190611602565b88610adc565b80518051906001600160401b038211610da457610fc78454611482565b601f811161108d575b50602090601f831160011461101d579282600194936020938695600092611012575b5050600019600383901b1c191690841b1785555b01920192019190610a85565b015190508e80610ff2565b908460005260206000209160005b601f1985168110611075575083602093600196938796938794601f1981161061105c575b505050811b018555611006565b015160001960f88460031b161c191690558e808061104f565b9192602060018192868501518155019401920161102b565b6110ba908560005260206000206005601f8601811c820192602087106110c0575b601f01901c0190611602565b8b610fd0565b91925082916110ae565b600284016000526020600020908382015b81830181106110eb575050610a71565b806110f860019254611482565b80611105575b50016110db565b601f8111831461111b5750600081555b8b6110fe565b600090828252611139601f60208420920160051c8201858301611602565b81835555611115565b015190508780610a33565b9250600184016000526020600020906000935b601f19841685106111a4576001945083601f1981161061118b575b505050811b016001820155610a4b565b015160001960f88460031b161c1916905587808061117b565b81810151835560209485019460019093019290910190611160565b6111ee90600186016000526020600020601f850160051c81019160208610610d9a57601f0160051c0190611602565b88610a1c565b87634e487b7160e01b60005260416004526000fd5b60405162461bcd60e51b8152602060048201526031818801527f5468652053746172742074696d65206d757374206265206561726c69657220746044820152703430b7103a34329032b732103a34b6b29760791b6064820152608490fd5b60405162461bcd60e51b815260206004820152602d818801527f546865204554482073656e7420646f6573206e6f74206d61746368207468652060448201526c70726f6772616d20707269636560981b6064820152608490fd5b3461023d57600036600319011261023d576112da6115aa565b600080546001600160a01b0319811682556001600160a01b03167f8be0079c531659141344cd1fd0a4f28419497f9722a3daafe3b4186f6b6457e08280a3005b3461023d57602036600319011261023d577f8c4d35e54a3f2ef1134138fd8ea3daee6a3c89e10d2665996babdf70261e2c7660206004356113596115aa565b80600455604051908152a1005b90601f801991011681019081106001600160401b0382111761138757604052565b634e487b7160e01b600052604160045260246000fd5b6001600160401b03811161138757601f01601f191660200190565b81601f8201121561023d578035906113cf8261139d565b926113dd6040519485611366565b8284526020838301011161023d57816000926020809301838601378301015290565b9080601f8301121561023d578135906001600160401b0392838311611387578260051b6040519460209461143586840188611366565b865284808701928401019380851161023d57858401925b85841061145d575050505050505090565b833583811161023d578791611477848480948a01016113b8565b81520193019261144c565b90600182811c921680156114b2575b602083101461149c57565b634e487b7160e01b600052602260045260246000fd5b91607f1691611491565b90604051918260008254926114d084611482565b90818452600194858116908160001461153f57506001146114fc575b50506114fa92500383611366565b565b9093915060005260209081600020936000915b8183106115275750506114fa935082010138806114ec565b8554888401850152948501948794509183019161150f565b9150506114fa94506020925060ff191682840152151560051b82010138806114ec565b60005b8381106115755750506000910152565b8181015183820152602001611565565b9060209161159e81518092818552858086019101611562565b601f01601f1916010190565b6000546001600160a01b031633036115be57565b606460405162461bcd60e51b815260206004820152602060248201527f4f776e61626c653a2063616c6c6572206973206e6f7420746865206f776e65726044820152fd5b81811061160d575050565b60008155600101611602565b1561162057565b60405162461bcd60e51b815260206004820152600d60248201526c2737ba103b30b634b230ba37b960991b6044820152606490fd5b1561165c57565b60405162461bcd60e51b815260206004820152601060248201526f105b1c9958591e48185c1c1c9bdd995960821b6044820152606490fd5b6002600154146116a5576002600155565b60405162461bcd60e51b815260206004820152601f60248201527f5265656e7472616e637947756172643a207265656e7472616e742063616c6c006044820152606490fdfea26469706673582212205eca9d2ef239f05e412d3d3410ea11b2ecc77490494439a52375d56563efcbc764736f6c63430008140033",
  "linkReferences": {},
  "deployedLinkReferences": {}
}