{
  "_format": "hh-sol-artifact-1",
  "contractName": "LdEduProgram",
  "sourceName": "contracts/LdEduProgram.sol",
  "abi": [
    {
      "inputs": [
        {
          "internalType": "address",
          "name": "initialOwner",
          "type": "address"
        }
      ],
      "stateMutability": "nonpayable",
      "type": "constructor"
    },
    {
      "anonymous": false,
      "inputs": [
        {
          "indexed": true,
          "internalType": "uint256",
          "name": "applicationId",
          "type": "uint256"
        }
      ],
      "name": "ApplicationDenied",
      "type": "event"
    },
    {
      "anonymous": false,
      "inputs": [
        {
          "indexed": true,
          "internalType": "uint256",
          "name": "applicationId",
          "type": "uint256"
        },
        {
          "indexed": true,
          "internalType": "address",
          "name": "builder",
          "type": "address"
        }
      ],
      "name": "ApplicationSelected",
      "type": "event"
    },
    {
      "anonymous": false,
      "inputs": [
        {
          "indexed": false,
          "internalType": "uint256",
          "name": "newFee",
          "type": "uint256"
        }
      ],
      "name": "FeeUpdated",
      "type": "event"
    },
    {
      "anonymous": false,
      "inputs": [
        {
          "indexed": true,
          "internalType": "uint256",
          "name": "id",
          "type": "uint256"
        },
        {
          "indexed": false,
          "internalType": "address",
          "name": "maker",
          "type": "address"
        },
        {
          "indexed": false,
          "internalType": "uint256",
          "name": "amount",
          "type": "uint256"
        }
      ],
      "name": "FundsReclaimed",
      "type": "event"
    },
    {
      "anonymous": false,
      "inputs": [
        {
          "indexed": true,
          "internalType": "uint256",
          "name": "milestoneId",
          "type": "uint256"
        },
        {
          "indexed": false,
          "internalType": "uint256",
          "name": "reward",
          "type": "uint256"
        }
      ],
      "name": "MilestoneAccepted",
      "type": "event"
    },
    {
      "anonymous": false,
      "inputs": [
        {
          "indexed": true,
          "internalType": "uint256",
          "name": "milestoneId",
          "type": "uint256"
        }
      ],
      "name": "MilestoneRejected",
      "type": "event"
    },
    {
      "anonymous": false,
      "inputs": [
        {
          "indexed": true,
          "internalType": "uint256",
          "name": "milestoneId",
          "type": "uint256"
        }
      ],
      "name": "MilestoneSubmitted",
      "type": "event"
    },
    {
      "anonymous": false,
      "inputs": [
        {
          "indexed": true,
          "internalType": "address",
          "name": "previousOwner",
          "type": "address"
        },
        {
          "indexed": true,
          "internalType": "address",
          "name": "newOwner",
          "type": "address"
        }
      ],
      "name": "OwnershipTransferred",
      "type": "event"
    },
    {
      "anonymous": false,
      "inputs": [
        {
          "indexed": true,
          "internalType": "uint256",
          "name": "applicationId",
          "type": "uint256"
        },
        {
          "indexed": false,
          "internalType": "uint256[]",
          "name": "milestoneIds",
          "type": "uint256[]"
        }
      ],
      "name": "ProgramApplied",
      "type": "event"
    },
    {
      "anonymous": false,
      "inputs": [
        {
          "indexed": true,
          "internalType": "uint256",
          "name": "programId",
          "type": "uint256"
        }
      ],
      "name": "ProgramApproved",
      "type": "event"
    },
    {
      "anonymous": false,
      "inputs": [
        {
          "indexed": true,
          "internalType": "uint256",
          "name": "id",
          "type": "uint256"
        },
        {
          "indexed": false,
          "internalType": "address",
          "name": "builder",
          "type": "address"
        },
        {
          "indexed": false,
          "internalType": "uint256",
          "name": "amount",
          "type": "uint256"
        }
      ],
      "name": "ProgramClaimed",
      "type": "event"
    },
    {
      "anonymous": false,
      "inputs": [
        {
          "indexed": true,
          "internalType": "uint256",
          "name": "id",
          "type": "uint256"
        },
        {
          "indexed": true,
          "internalType": "address",
          "name": "maker",
          "type": "address"
        },
        {
          "indexed": true,
          "internalType": "address",
          "name": "validator",
          "type": "address"
        },
        {
          "indexed": false,
          "internalType": "uint256",
          "name": "price",
          "type": "uint256"
        }
      ],
      "name": "ProgramCreated",
      "type": "event"
    },
    {
      "anonymous": false,
      "inputs": [
        {
          "indexed": false,
          "internalType": "uint256",
          "name": "programId",
          "type": "uint256"
        },
        {
          "indexed": false,
          "internalType": "uint256",
          "name": "price",
          "type": "uint256"
        },
        {
          "indexed": false,
          "internalType": "uint256",
          "name": "startTime",
          "type": "uint256"
        },
        {
          "indexed": false,
          "internalType": "uint256",
          "name": "endTime",
          "type": "uint256"
        },
        {
          "indexed": false,
          "internalType": "address",
          "name": "newValidator",
          "type": "address"
        }
      ],
      "name": "ProgramEdited",
      "type": "event"
    },
    {
      "inputs": [
        {
          "internalType": "uint256",
          "name": "milestoneId",
          "type": "uint256"
        }
      ],
      "name": "acceptMilestone",
      "outputs": [],
      "stateMutability": "nonpayable",
      "type": "function"
    },
    {
      "inputs": [
        {
          "internalType": "uint256",
          "name": "",
          "type": "uint256"
        }
      ],
      "name": "applications",
      "outputs": [
        {
          "internalType": "uint256",
          "name": "id",
          "type": "uint256"
        },
        {
          "internalType": "address",
          "name": "builder",
          "type": "address"
        },
        {
          "internalType": "uint256",
          "name": "programId",
          "type": "uint256"
        },
        {
          "internalType": "enum LdEduProgram.ApplicationStatus",
          "name": "status",
          "type": "uint8"
        }
      ],
      "stateMutability": "view",
      "type": "function"
    },
    {
      "inputs": [
        {
          "internalType": "uint256",
          "name": "programId",
          "type": "uint256"
        }
      ],
      "name": "approveProgram",
      "outputs": [],
      "stateMutability": "nonpayable",
      "type": "function"
    },
    {
      "inputs": [
        {
          "internalType": "string",
          "name": "_name",
          "type": "string"
        },
        {
          "internalType": "uint256",
          "name": "_price",
          "type": "uint256"
        },
        {
          "internalType": "string[]",
          "name": "_keywords",
          "type": "string[]"
        },
        {
          "internalType": "uint256",
          "name": "_startTime",
          "type": "uint256"
        },
        {
          "internalType": "uint256",
          "name": "_endTime",
          "type": "uint256"
        },
        {
          "internalType": "address",
          "name": "_validator",
          "type": "address"
        },
        {
          "internalType": "string",
          "name": "_summary",
          "type": "string"
        },
        {
          "internalType": "string",
          "name": "_description",
          "type": "string"
        },
        {
          "internalType": "string[]",
          "name": "_links",
          "type": "string[]"
        }
      ],
      "name": "createEduProgram",
      "outputs": [],
      "stateMutability": "payable",
      "type": "function"
    },
    {
      "inputs": [
        {
          "internalType": "uint256",
          "name": "applicationId",
          "type": "uint256"
        }
      ],
      "name": "denyApplication",
      "outputs": [],
      "stateMutability": "nonpayable",
      "type": "function"
    },
    {
      "inputs": [
        {
          "internalType": "uint256",
          "name": "",
          "type": "uint256"
        }
      ],
      "name": "eduPrograms",
      "outputs": [
        {
          "internalType": "uint256",
          "name": "id",
          "type": "uint256"
        },
        {
          "internalType": "string",
          "name": "name",
          "type": "string"
        },
        {
          "internalType": "uint256",
          "name": "price",
          "type": "uint256"
        },
        {
          "internalType": "uint256",
          "name": "startTime",
          "type": "uint256"
        },
        {
          "internalType": "uint256",
          "name": "endTime",
          "type": "uint256"
        },
        {
          "internalType": "string",
          "name": "summary",
          "type": "string"
        },
        {
          "internalType": "string",
          "name": "description",
          "type": "string"
        },
        {
          "internalType": "address",
          "name": "maker",
          "type": "address"
        },
        {
          "internalType": "address",
          "name": "validator",
          "type": "address"
        },
        {
          "internalType": "bool",
          "name": "approve",
          "type": "bool"
        },
        {
          "internalType": "bool",
          "name": "claimed",
          "type": "bool"
        },
        {
          "internalType": "address",
          "name": "builder",
          "type": "address"
        }
      ],
      "stateMutability": "view",
      "type": "function"
    },
    {
      "inputs": [],
      "name": "getFee",
      "outputs": [
        {
          "internalType": "uint256",
          "name": "",
          "type": "uint256"
        }
      ],
      "stateMutability": "view",
      "type": "function"
    },
    {
      "inputs": [
        {
          "internalType": "uint256",
          "name": "",
          "type": "uint256"
        }
      ],
      "name": "milestones",
      "outputs": [
        {
          "internalType": "uint256",
          "name": "id",
          "type": "uint256"
        },
        {
          "internalType": "string",
          "name": "name",
          "type": "string"
        },
        {
          "internalType": "string",
          "name": "description",
          "type": "string"
        },
        {
          "internalType": "uint256",
          "name": "price",
          "type": "uint256"
        },
        {
          "internalType": "uint256",
          "name": "applicationId",
          "type": "uint256"
        },
        {
          "internalType": "enum LdEduProgram.MilestoneStatus",
          "name": "status",
          "type": "uint8"
        }
      ],
      "stateMutability": "view",
      "type": "function"
    },
    {
      "inputs": [],
      "name": "nextApplicationId",
      "outputs": [
        {
          "internalType": "uint256",
          "name": "",
          "type": "uint256"
        }
      ],
      "stateMutability": "view",
      "type": "function"
    },
    {
      "inputs": [],
      "name": "nextMilestoneId",
      "outputs": [
        {
          "internalType": "uint256",
          "name": "",
          "type": "uint256"
        }
      ],
      "stateMutability": "view",
      "type": "function"
    },
    {
      "inputs": [],
      "name": "nextProgramId",
      "outputs": [
        {
          "internalType": "uint256",
          "name": "",
          "type": "uint256"
        }
      ],
      "stateMutability": "view",
      "type": "function"
    },
    {
      "inputs": [],
      "name": "owner",
      "outputs": [
        {
          "internalType": "address",
          "name": "",
          "type": "address"
        }
      ],
      "stateMutability": "view",
      "type": "function"
    },
    {
      "inputs": [
        {
          "internalType": "uint256",
          "name": "programId",
          "type": "uint256"
        }
      ],
      "name": "reclaimFunds",
      "outputs": [],
      "stateMutability": "nonpayable",
      "type": "function"
    },
    {
      "inputs": [
        {
          "internalType": "uint256",
          "name": "milestoneId",
          "type": "uint256"
        }
      ],
      "name": "rejectMilestone",
      "outputs": [],
      "stateMutability": "nonpayable",
      "type": "function"
    },
    {
      "inputs": [],
      "name": "renounceOwnership",
      "outputs": [],
      "stateMutability": "nonpayable",
      "type": "function"
    },
    {
      "inputs": [
        {
          "internalType": "uint256",
          "name": "applicationId",
          "type": "uint256"
        }
      ],
      "name": "selectApplication",
      "outputs": [],
      "stateMutability": "nonpayable",
      "type": "function"
    },
    {
      "inputs": [
        {
          "internalType": "uint256",
          "name": "_fee",
          "type": "uint256"
        }
      ],
      "name": "setFee",
      "outputs": [],
      "stateMutability": "nonpayable",
      "type": "function"
    },
    {
      "inputs": [
        {
          "internalType": "uint256",
          "name": "programId",
          "type": "uint256"
        },
        {
          "components": [
            {
              "internalType": "string",
              "name": "name",
              "type": "string"
            },
            {
              "internalType": "string",
              "name": "description",
              "type": "string"
            },
            {
              "internalType": "uint256",
              "name": "price",
              "type": "uint256"
            }
          ],
          "internalType": "struct LdEduProgram.MilestoneInput[]",
          "name": "milestonesInput",
          "type": "tuple[]"
        }
      ],
      "name": "submitApplication",
      "outputs": [],
      "stateMutability": "nonpayable",
      "type": "function"
    },
    {
      "inputs": [
        {
          "internalType": "uint256",
          "name": "milestoneId",
          "type": "uint256"
        },
        {
          "internalType": "string[]",
          "name": "links",
          "type": "string[]"
        }
      ],
      "name": "submitMilestone",
      "outputs": [],
      "stateMutability": "nonpayable",
      "type": "function"
    },
    {
      "inputs": [
        {
          "internalType": "address",
          "name": "newOwner",
          "type": "address"
        }
      ],
      "name": "transferOwnership",
      "outputs": [],
      "stateMutability": "nonpayable",
      "type": "function"
    },
    {
      "inputs": [
        {
          "internalType": "uint256",
          "name": "programId",
          "type": "uint256"
        },
        {
          "internalType": "uint256",
          "name": "price",
          "type": "uint256"
        },
        {
          "internalType": "uint256",
          "name": "startTime",
          "type": "uint256"
        },
        {
          "internalType": "uint256",
          "name": "endTime",
          "type": "uint256"
        },
        {
          "internalType": "address",
          "name": "newValidator",
          "type": "address"
        }
      ],
      "name": "updateProgram",
      "outputs": [],
      "stateMutability": "nonpayable",
      "type": "function"
    }
  ],
  "bytecode": "0x6080346200007e57601f620022ee38819003918201601f19168301916001600160401b0383118484101762000083578084926020946040528339810103126200007e57516001600160a01b03811681036200007e576200006e90620000643362000099565b6001805562000099565b60405161220d9081620000e18239f35b600080fd5b634e487b7160e01b600052604160045260246000fd5b600080546001600160a01b039283166001600160a01b03198216811783559216907f8be0079c531659141344cd1fd0a4f28419497f9722a3daafe3b4186f6b6457e09080a356fe608080604052600436101561001357600080fd5b60003560e01c9081631b5323f7146119d8575080631bc09f81146119065780633eeeefb714611392578063625338cb1461137457806369fe0e2d14611328578063715018a6146112cf57806378ea19b014610ada57806389001eb1146109775780638da5cb5b1461094e5780639201f66314610930578063b0d456ac1461089b578063ba1e64c614610713578063ba71b330146106f5578063caaed3021461064b578063ced72f871461062d578063d613fd241461052f578063db74ce3a14610498578063dfefadff14610436578063e89e4ed614610384578063f2fde38b146102be5763f9f161a81461010657600080fd5b346102b95760203660031901126102b957600435610122612181565b8060005260026020526040600020600a810190815461014760ff8260a01c1615612071565b60ff8160a81c1661028257600582015442111561024557600982019260018060a01b039182855416938433036102085760ff60a81b19909116600160a81b17909155600301805490926000918291829182918282156101ff575bf1156101f3579154905460408051929093166001600160a01b0316825260208201527fd37c0b9c7560299a7c963d03165111d712663805228e5ffca03d540c5d6e410e91819081015b0390a260018055005b6040513d6000823e3d90fd5b506108fc6101a1565b60405162461bcd60e51b81526020600482015260156024820152742737ba103a343290383937b3b930b69036b0b5b2b960591b6044820152606490fd5b60405162461bcd60e51b8152602060048201526015602482015274141c9bd9dc985b481b9bdd08195b991959081e595d605a1b6044820152606490fd5b60405162461bcd60e51b815260206004820152600f60248201526e105b1c9958591e4818db185a5b5959608a1b6044820152606490fd5b600080fd5b346102b95760203660031901126102b9576004356001600160a01b03818116918290036102b9576102ed611e8b565b811561033057600054826001600160601b0360a01b821617600055167f8be0079c531659141344cd1fd0a4f28419497f9722a3daafe3b4186f6b6457e0600080a3005b60405162461bcd60e51b815260206004820152602660248201527f4f776e61626c653a206e6577206f776e657220697320746865207a65726f206160448201526564647265737360d01b6064820152608490fd5b346102b95760203660031901126102b957600435600052600460205260406000208054906103b460018201611da5565b906103c160028201611da5565b906104016003820154926103f360ff60066005860154950154169560405197885260c0602089015260c0880190611e4b565b908682036040880152611e4b565b9160608501526080840152600482101561042057829160a08301520390f35b634e487b7160e01b600052602160045260246000fd5b346102b95760203660031901126102b95760043560005260036020526040600020805460018060a01b036001830154169160ff600360028301549201541692604051928352602083015260408201526003821015610420576080916060820152f35b346102b95760203660031901126102b95760043580600052600360205260036040600020600281015460005260026020526104e460018060a01b03600a60406000200154163314611ff9565b01805460ff81169060038210156104205761050160019215612104565b60ff19161790557fa23f1fa4eaecd6e0d93c22f8d38992d5f4c441c93fff05c827b21346c0c7507e600080a2005b346102b95760203660031901126102b9576004356000526002602052604060002080546001820161055f90611da5565b6003830154600484015460058501549294909161057e60068301611da5565b61058a60078401611da5565b90600160a01b6001900392836009860154169684600a87015496600b015416966040519a8b9a8b526101808060208d01528b016105c691611e4b565b9260408b015260608a0152608089015287810360a08901526105e791611e4b565b86810360c08801526105f891611e4b565b9360e086015281166101008501528060a01c60ff16151561012085015260a81c60ff1615156101408401526101608301520390f35b346102b95760003660031901126102b9576020600854604051908152f35b346102b95760203660031901126102b957600435806000526004602052600660406000206005810154600052600360205260026040600020015460005260026020526106a860018060a01b03600a60406000200154163314611ff9565b01805460ff8116906004821015610420576106c7600160039314612144565b60ff19161790557f2268eb603324c1c4f7a3cb60c7e82795fd192cf05601cda427b385d4fcc42a5e600080a2005b346102b95760003660031901126102b9576020600754604051908152f35b346102b9576020806003193601126102b957600435610730612181565b806000526004825260406000209160058301546000526003815260026040600020015460005260028152604060002060018060a01b039061077882600a830154163314611ff9565b60068501805460ff81169060048210156104205761079a600160029314612144565b60ff1916179055600b81019360008080806003878a54169a01998a54905af13d15610896573d6107c981611c64565b906107d76040519283611c43565b81526000863d92013e5b1561085b577fb7ab333173a25d27082c5bcc7f95d330190ebf0d3539c7761583c5f5f6ce15667f7099040ff4abf6b015bd1004cbf11ec796c3d4abcaec3514db1c93599297d39f95965494604051868152a254935460408051929091166001600160a01b03168252602082019290925290819081016101ea565b60405162461bcd60e51b8152600481018590526013602482015272115512081d1c985b9cd9995c8819985a5b1959606a1b6044820152606490fd5b6107e1565b346102b95760203660031901126102b9576004356000818152600260205260409020600a8101805490916108ea906005906108e0336001600160a01b03861614611ff9565b0154421115612035565b6108fa60ff8260a01c1615612071565b60ff60a01b1916600160a01b1790557f3ca3d218d64ea45c582c714d84dcdfd87f8d3cb3a3449fe533c2cb6d614ab766600080a2005b346102b95760003660031901126102b9576020600654604051908152f35b346102b95760003660031901126102b9576000546040516001600160a01b039091168152602090f35b346102b95760a03660031901126102b9576024356001600160a01b036004356084358281169060643590604435908390036102b9578360005260026020526040600020946009860154163303610aa65781811015610a72578515610a3d5785600a867fe3d59d03839a10c8a5a85dd0d7e5a4ac45445821c5176529d2745adf6915a16198600360a099015583600482015584600582015501846001600160601b03881b8254161790556040519485526020850152604084015260608301526080820152a1005b60405162461bcd60e51b815260206004820152600d60248201526c496e76616c696420707269636560981b6044820152606490fd5b60405162461bcd60e51b815260206004820152600c60248201526b496e76616c69642074696d6560a01b6044820152606490fd5b60405162461bcd60e51b815260206004820152600c60248201526b27b7363c9031b932b0ba37b960a11b6044820152606490fd5b6101203660031901126102b9576004356001600160401b0381116102b957610b06903690600401611cb6565b6044356001600160401b0381116102b957610b25903690600401611ceb565b9060a435906001600160a01b03821682036102b95760c4356001600160401b0381116102b957610b59903690600401611cb6565b60e4356001600160401b0381116102b957610b78903690600401611cb6565b610104356001600160401b0381116102b957610b98903690600401611ceb565b916024353403611274576084356064351015611215576007549560405194856101c08101106001600160401b036101c088011117610fab576101c08601604052878652602086015260408501526024356060850152606435608085015260843560a085015260c084015260e08301526101008201523361012082015260018060a01b0382166101408201526000610160820152600061018082015260006101a082015282600052600260205260406000208151815560208201518051906001600160401b038211610fab578190610c7f82610c766001870154611d6b565b60018701611efa565b602090601f83116001146111a357600092611198575b50508160011b916000199060031b1c19161760018201555b6002810160408301516020815191610cc58385611f3f565b01916000526020600020916000905b8282106110bb5750505050606082015160038201556080820151600482015560a0820151600582015560c08201518051906001600160401b038211610fab578190610d2f82610d266006870154611d6b565b60068701611efa565b602090601f83116001146110495760009261103e575b50508160011b916000199060031b1c19161760068201555b60e08201518051906001600160401b038211610fab578190610d8f82610d866007870154611d6b565b60078701611efa565b602090601f8311600114610fcc57600092610fc1575b50508160011b916000199060031b1c19161760078201555b600881016101008301516020815191610dd68385611f3f565b01916000526020600020916000905b828210610ec857505050506101208201516009820180546001600160a01b03199081166001600160a01b0393841617909155610140840151600a840180546101608701516101808801516001600160b01b03199092169386169390931792151560a01b60ff60a01b169290921791151560a81b60ff60a81b169190911790556101a090930151600b9290920180549093169116179055600754610e8790611fd4565b60075560405160243581526001600160a01b039091169133917f808c887919683a350ed55b3499f97ed7f4093ecc5e131fadb8b075a85457af3a90602090a4005b80518051906001600160401b038211610fab57610eef82610ee98854611d6b565b88611efa565b602090601f8311600114610f3b579282600194936020938695600092610f30575b5050600019600383901b1c191690841b1787555b01940191019092610de5565b015190508d80610f10565b908660005260206000209160005b601f1985168110610f93575083602093600196938796938794601f19811610610f7a575b505050811b018755610f24565b015160001960f88460031b161c191690558d8080610f6d565b91926020600181928685015181550194019201610f49565b634e487b7160e01b600052604160045260246000fd5b015190508680610da5565b9250600784016000526020600020906000935b601f1984168510611023576001945083601f1981161061100a575b505050811b016007820155610dbd565b015160001960f88460031b161c19169055868080610ffa565b81810151835560209485019460019093019290910190610fdf565b015190508680610d45565b9250600684016000526020600020906000935b601f19841685106110a0576001945083601f19811610611087575b505050811b016006820155610d5d565b015160001960f88460031b161c19169055868080611077565b8181015183556020948501946001909301929091019061105c565b80518051906001600160401b038211610fab576110dc82610ee98854611d6b565b602090601f831160011461112857928260019493602093869560009261111d575b5050600019600383901b1c191690841b1787555b01940191019092610cd4565b015190508d806110fd565b908660005260206000209160005b601f1985168110611180575083602093600196938796938794601f19811610611167575b505050811b018755611111565b015160001960f88460031b161c191690558d808061115a565b91926020600181928685015181550194019201611136565b015190508680610c95565b9250600184016000526020600020906000935b601f19841685106111fa576001945083601f198116106111e1575b505050811b016001820155610cad565b015160001960f88460031b161c191690558680806111d1565b818101518355602094850194600190930192909101906111b6565b60405162461bcd60e51b815260206004820152603160248201527f5468652053746172742074696d65206d757374206265206561726c69657220746044820152703430b7103a34329032b732103a34b6b29760791b6064820152608490fd5b60405162461bcd60e51b815260206004820152602d60248201527f546865204554482073656e7420646f6573206e6f74206d61746368207468652060448201526c70726f6772616d20707269636560981b6064820152608490fd5b346102b95760003660031901126102b9576112e8611e8b565b600080546001600160a01b0319811682556001600160a01b03167f8be0079c531659141344cd1fd0a4f28419497f9722a3daafe3b4186f6b6457e08280a3005b346102b95760203660031901126102b9577f8c4d35e54a3f2ef1134138fd8ea3daee6a3c89e10d2665996babdf70261e2c766020600435611367611e8b565b80600855604051908152a1005b346102b95760003660031901126102b9576020600554604051908152f35b346102b9576113a036611bf4565b91908160005260026020526113be6005604060002001544210612035565b600554926113cb84611fd4565b6005556113d781611cd4565b916113e56040519384611c43565b818352601f196113f483611cd4565b0136602085013760005b8281106114f65750505060405191608083018381106001600160401b03821117610fab57604052838352600360208401933385526040810192835260608101926000845286600052826020526040600020915182556001958683019060018060a01b039051166001600160601b0360a01b82541617905551600282015501905160038110156104205760ff8019835416911617905560405191602083019060208452825180925260206040850193019160005b8181106114e157867f09bbfa816c7e14e18babfca167b7eb6d09305cca69bdb107b37b18c6a6082b2687870388a2005b835185526020948501949093019282016114b1565b6006549061150382611fd4565b60065561151a6115148286866120b0565b806120d2565b906115336115298488886120b0565b60208101906120d2565b916040611541868a8a6120b0565b013590604051928360208101106001600160401b03602086011117610fab576020840160405260008452604051958660e08101106001600160401b0360e089011117610fab576115af926115a09160e089016040528a89523691611c7f565b94602087019586523691611c7f565b6040850152606084015260808301528860a0830152600060c083015283600052600460205260406000209082518255518051906001600160401b038211610fab57819061160382610c766001870154611d6b565b602090601f831160011461189457600092611889575b50508160011b916000199060031b1c19161760018201555b60408201518051906001600160401b038211610fab5781906116638261165a6002870154611d6b565b60028701611efa565b602090601f83116001146118175760009261180c575b50508160011b916000199060031b1c19161760028201555b6060820151600382015560048101608083015160208151916116b38385611f3f565b019160005260206000206000925b82841061172b5750505050600660c09160a084015160058201550191015160048110156104205760ff801983541691161790558451811015611715576117109160208260051b87010152611fd4565b6113fe565b634e487b7160e01b600052603260045260246000fd5b80518051906001600160401b038211610fab576117528261174c8654611d6b565b86611efa565b602090601f831160011461179e579282600194936020938695600092611793575b5050600019600383901b1c191690841b1785555b019201930192906116c1565b015190503880611773565b90601f198316918560005260206000209260005b8181106117f457509360209360019693879693838895106117db575b505050811b018555611787565b015160001960f88460031b161c191690553880806117ce565b929360206001819287860151815501950193016117b2565b015190508b80611679565b9250600284016000526020600020906000935b601f198416851061186e576001945083601f19811610611855575b505050811b016002820155611691565b015160001960f88460031b161c191690558b8080611845565b8181015183556020948501946001909301929091019061182a565b015190508b80611619565b9250600184016000526020600020906000935b601f19841685106118eb576001945083601f198116106118d2575b505050811b016001820155611631565b015160001960f88460031b161c191690558b80806118c2565b818101518355602094850194600190930192909101906118a7565b346102b95760203660031901126102b9576004358060005260036020526040600020600281015460005260026020526040600020600a810160018060a01b0392611954848354163314611ff9565b600381019081549160ff831660038110156104205760019361197860029215612104565b60ff1916179055018054600b90930180546001600160a01b03191693851693909317909255805460ff60a01b1916600160a01b1790555416907f336d0775892406cc9e5ccdd5582b00b43d67d677ea060a1b91e01a637d4ba55a600080a3005b346102b9576119e636611bf4565b826000949293945260209260048452604060002093600585015460005260039485825260406000209460ff87870154168781101561042057600203611bb257506001948501546001600160a01b03163303611b7f5760068101805460ff19168617905560040191611a578484611f3f565b600092835281832090805b858510611a9157887f6670b87ece4bf5ff8e422301a14d59d43b4f9d17c2f96c6c37ca8a073efda7f5600080a2005b611a9b81836120d2565b6001600160401b038193929311610fab57889181611ac48893611abe8954611d6b565b89611efa565b6000601f8211600114611b065781908596600092611afb575b5050600019828e1b1c191690841b1786555b01930194019391611a62565b013590508e80611add565b909194601f19831691886000528d856000209360005b818110611b5c57509185939188999689969410611b42575b50505050811b018655611aef565b60f885600019921b161c199101351690558e80808f611b34565b948793809893508597999295013581550195019201918d8d9694928b9694611b1c565b60405162461bcd60e51b815260048101839052600b60248201526a2737ba10313ab4b63232b960a91b6044820152606490fd5b62461bcd60e51b815260048101839052601860248201527f4170706c69636174696f6e206e6f742073656c656374656400000000000000006044820152606490fd5b60406003198201126102b957600435916024356001600160401b03928382116102b957806023830112156102b95781600401359384116102b95760248460051b830101116102b9576024019190565b90601f801991011681019081106001600160401b03821117610fab57604052565b6001600160401b038111610fab57601f01601f191660200190565b929192611c8b82611c64565b91611c996040519384611c43565b8294818452818301116102b9578281602093846000960137010152565b9080601f830112156102b957816020611cd193359101611c7f565b90565b6001600160401b038111610fab5760051b60200190565b9080601f830112156102b957813590611d0382611cd4565b92611d116040519485611c43565b828452602092838086019160051b830101928084116102b957848301915b848310611d3f5750505050505090565b82356001600160401b0381116102b9578691611d6084848094890101611cb6565b815201920191611d2f565b90600182811c92168015611d9b575b6020831014611d8557565b634e487b7160e01b600052602260045260246000fd5b91607f1691611d7a565b9060405191826000825492611db984611d6b565b908184526001948581169081600014611e285750600114611de5575b5050611de392500383611c43565b565b9093915060005260209081600020936000915b818310611e10575050611de393508201013880611dd5565b85548884018501529485019487945091830191611df8565b915050611de394506020925060ff191682840152151560051b8201013880611dd5565b919082519283825260005b848110611e77575050826000602080949584010152601f8019910116010190565b602081830181015184830182015201611e56565b6000546001600160a01b03163303611e9f57565b606460405162461bcd60e51b815260206004820152602060248201527f4f776e61626c653a2063616c6c6572206973206e6f7420746865206f776e65726044820152fd5b818110611eee575050565b60008155600101611ee3565b9190601f8111611f0957505050565b611de3926000526020600020906020601f840160051c83019310611f35575b601f0160051c0190611ee3565b9091508190611f28565b680100000000000000008211610fab57805491808255828110611f6157505050565b600091825260209081832093840193015b838110611f7f5750505050565b8083611f8d60019354611d6b565b80611f9b575b505001611f72565b601f8082118514611fb257505081555b8338611f93565b611fcb90848452868420920160051c8201858301611ee3565b81835555611fab565b6000198114611fe35760010190565b634e487b7160e01b600052601160045260246000fd5b1561200057565b60405162461bcd60e51b815260206004820152600d60248201526c2737ba103b30b634b230ba37b960991b6044820152606490fd5b1561203c57565b60405162461bcd60e51b815260206004820152600d60248201526c141c9bd9dc985b48195b991959609a1b6044820152606490fd5b1561207857565b60405162461bcd60e51b815260206004820152601060248201526f105b1c9958591e48185c1c1c9bdd995960821b6044820152606490fd5b91908110156117155760051b81013590605e19813603018212156102b9570190565b903590601e19813603018212156102b957018035906001600160401b0382116102b9576020019181360383136102b957565b1561210b57565b60405162461bcd60e51b8152602060048201526011602482015270105b1c9958591e48195d985b1d585d1959607a1b6044820152606490fd5b1561214b57565b60405162461bcd60e51b815260206004820152600e60248201526d496e76616c69642073746174757360901b6044820152606490fd5b600260015414612192576002600155565b60405162461bcd60e51b815260206004820152601f60248201527f5265656e7472616e637947756172643a207265656e7472616e742063616c6c006044820152606490fdfea2646970667358221220d3f407703cf7d379c6c18917a67eded87168f0391e1d4c9f42eb2fe7c3cf9f4c64736f6c63430008140033",
  "linkReferences": {},
  "deployedLinkReferences": {}
}