{
  "_format": "hh-sol-artifact-1",
  "contractName": "LdEduProgram",
  "sourceName": "contracts/LdEduProgram.sol",
  "abi": [
    {
      "inputs": [
        {
          "internalType": "address",
          "name": "initialOwner",
          "type": "address"
        }
      ],
      "stateMutability": "nonpayable",
      "type": "constructor"
    },
    {
      "anonymous": false,
      "inputs": [
        {
          "indexed": true,
          "internalType": "uint256",
          "name": "applicationId",
          "type": "uint256"
        }
      ],
      "name": "ApplicationDenied",
      "type": "event"
    },
    {
      "anonymous": false,
      "inputs": [
        {
          "indexed": true,
          "internalType": "uint256",
          "name": "applicationId",
          "type": "uint256"
        },
        {
          "indexed": true,
          "internalType": "address",
          "name": "builder",
          "type": "address"
        }
      ],
      "name": "ApplicationSelected",
      "type": "event"
    },
    {
      "anonymous": false,
      "inputs": [
        {
          "indexed": false,
          "internalType": "uint256",
          "name": "newFee",
          "type": "uint256"
        }
      ],
      "name": "FeeUpdated",
      "type": "event"
    },
    {
      "anonymous": false,
      "inputs": [
        {
          "indexed": true,
          "internalType": "uint256",
          "name": "id",
          "type": "uint256"
        },
        {
          "indexed": false,
          "internalType": "address",
          "name": "maker",
          "type": "address"
        },
        {
          "indexed": false,
          "internalType": "uint256",
          "name": "amount",
          "type": "uint256"
        }
      ],
      "name": "FundsReclaimed",
      "type": "event"
    },
    {
      "anonymous": false,
      "inputs": [
        {
          "indexed": true,
          "internalType": "uint256",
          "name": "milestoneId",
          "type": "uint256"
        },
        {
          "indexed": false,
          "internalType": "uint256",
          "name": "reward",
          "type": "uint256"
        }
      ],
      "name": "MilestoneAccepted",
      "type": "event"
    },
    {
      "anonymous": false,
      "inputs": [
        {
          "indexed": true,
          "internalType": "uint256",
          "name": "milestoneId",
          "type": "uint256"
        }
      ],
      "name": "MilestoneRejected",
      "type": "event"
    },
    {
      "anonymous": false,
      "inputs": [
        {
          "indexed": true,
          "internalType": "uint256",
          "name": "milestoneId",
          "type": "uint256"
        }
      ],
      "name": "MilestoneSubmitted",
      "type": "event"
    },
    {
      "anonymous": false,
      "inputs": [
        {
          "indexed": true,
          "internalType": "address",
          "name": "previousOwner",
          "type": "address"
        },
        {
          "indexed": true,
          "internalType": "address",
          "name": "newOwner",
          "type": "address"
        }
      ],
      "name": "OwnershipTransferred",
      "type": "event"
    },
    {
      "anonymous": false,
      "inputs": [
        {
          "indexed": true,
          "internalType": "uint256",
          "name": "id",
          "type": "uint256"
        },
        {
          "indexed": false,
          "internalType": "uint256[]",
          "name": "milestoneIds",
          "type": "uint256[]"
        }
      ],
      "name": "ProgramApplied",
      "type": "event"
    },
    {
      "anonymous": false,
      "inputs": [
        {
          "indexed": true,
          "internalType": "uint256",
          "name": "programId",
          "type": "uint256"
        }
      ],
      "name": "ProgramApproved",
      "type": "event"
    },
    {
      "anonymous": false,
      "inputs": [
        {
          "indexed": true,
          "internalType": "uint256",
          "name": "id",
          "type": "uint256"
        },
        {
          "indexed": false,
          "internalType": "address",
          "name": "builder",
          "type": "address"
        },
        {
          "indexed": false,
          "internalType": "uint256",
          "name": "amount",
          "type": "uint256"
        }
      ],
      "name": "ProgramClaimed",
      "type": "event"
    },
    {
      "anonymous": false,
      "inputs": [
        {
          "indexed": true,
          "internalType": "uint256",
          "name": "id",
          "type": "uint256"
        },
        {
          "indexed": true,
          "internalType": "address",
          "name": "maker",
          "type": "address"
        },
        {
          "indexed": true,
          "internalType": "address",
          "name": "validator",
          "type": "address"
        },
        {
          "indexed": false,
          "internalType": "uint256",
          "name": "price",
          "type": "uint256"
        }
      ],
      "name": "ProgramCreated",
      "type": "event"
    },
    {
      "anonymous": false,
      "inputs": [
        {
          "indexed": false,
          "internalType": "uint256",
          "name": "programId",
          "type": "uint256"
        },
        {
          "indexed": false,
          "internalType": "uint256",
          "name": "price",
          "type": "uint256"
        },
        {
          "indexed": false,
          "internalType": "uint256",
          "name": "startTime",
          "type": "uint256"
        },
        {
          "indexed": false,
          "internalType": "uint256",
          "name": "endTime",
          "type": "uint256"
        },
        {
          "indexed": false,
          "internalType": "address",
          "name": "newValidator",
          "type": "address"
        }
      ],
      "name": "ProgramEdited",
      "type": "event"
    },
    {
      "inputs": [
        {
          "internalType": "uint256",
          "name": "milestoneId",
          "type": "uint256"
        }
      ],
      "name": "acceptMilestone",
      "outputs": [],
      "stateMutability": "nonpayable",
      "type": "function"
    },
    {
      "inputs": [
        {
          "internalType": "uint256",
          "name": "",
          "type": "uint256"
        }
      ],
      "name": "applications",
      "outputs": [
        {
          "internalType": "uint256",
          "name": "id",
          "type": "uint256"
        },
        {
          "internalType": "address",
          "name": "builder",
          "type": "address"
        },
        {
          "internalType": "uint256",
          "name": "programId",
          "type": "uint256"
        },
        {
          "internalType": "enum LdEduProgram.ApplicationStatus",
          "name": "status",
          "type": "uint8"
        }
      ],
      "stateMutability": "view",
      "type": "function"
    },
    {
      "inputs": [
        {
          "internalType": "uint256",
          "name": "programId",
          "type": "uint256"
        }
      ],
      "name": "approveProgram",
      "outputs": [],
      "stateMutability": "nonpayable",
      "type": "function"
    },
    {
      "inputs": [
        {
          "internalType": "string",
          "name": "_name",
          "type": "string"
        },
        {
          "internalType": "uint256",
          "name": "_price",
          "type": "uint256"
        },
        {
          "internalType": "string[]",
          "name": "_keywords",
          "type": "string[]"
        },
        {
          "internalType": "uint256",
          "name": "_startTime",
          "type": "uint256"
        },
        {
          "internalType": "uint256",
          "name": "_endTime",
          "type": "uint256"
        },
        {
          "internalType": "address",
          "name": "_validator",
          "type": "address"
        },
        {
          "internalType": "string",
          "name": "_summary",
          "type": "string"
        },
        {
          "internalType": "string",
          "name": "_description",
          "type": "string"
        },
        {
          "internalType": "string[]",
          "name": "_links",
          "type": "string[]"
        }
      ],
      "name": "createEduProgram",
      "outputs": [],
      "stateMutability": "payable",
      "type": "function"
    },
    {
      "inputs": [
        {
          "internalType": "uint256",
          "name": "applicationId",
          "type": "uint256"
        }
      ],
      "name": "denyApplication",
      "outputs": [],
      "stateMutability": "nonpayable",
      "type": "function"
    },
    {
      "inputs": [
        {
          "internalType": "uint256",
          "name": "",
          "type": "uint256"
        }
      ],
      "name": "eduPrograms",
      "outputs": [
        {
          "internalType": "uint256",
          "name": "id",
          "type": "uint256"
        },
        {
          "internalType": "string",
          "name": "name",
          "type": "string"
        },
        {
          "internalType": "uint256",
          "name": "price",
          "type": "uint256"
        },
        {
          "internalType": "uint256",
          "name": "startTime",
          "type": "uint256"
        },
        {
          "internalType": "uint256",
          "name": "endTime",
          "type": "uint256"
        },
        {
          "internalType": "string",
          "name": "summary",
          "type": "string"
        },
        {
          "internalType": "string",
          "name": "description",
          "type": "string"
        },
        {
          "internalType": "address",
          "name": "maker",
          "type": "address"
        },
        {
          "internalType": "address",
          "name": "validator",
          "type": "address"
        },
        {
          "internalType": "bool",
          "name": "approve",
          "type": "bool"
        },
        {
          "internalType": "bool",
          "name": "claimed",
          "type": "bool"
        },
        {
          "internalType": "address",
          "name": "builder",
          "type": "address"
        }
      ],
      "stateMutability": "view",
      "type": "function"
    },
    {
      "inputs": [],
      "name": "getFee",
      "outputs": [
        {
          "internalType": "uint256",
          "name": "",
          "type": "uint256"
        }
      ],
      "stateMutability": "view",
      "type": "function"
    },
    {
      "inputs": [
        {
          "internalType": "uint256",
          "name": "",
          "type": "uint256"
        }
      ],
      "name": "milestones",
      "outputs": [
        {
          "internalType": "uint256",
          "name": "id",
          "type": "uint256"
        },
        {
          "internalType": "string",
          "name": "name",
          "type": "string"
        },
        {
          "internalType": "string",
          "name": "description",
          "type": "string"
        },
        {
          "internalType": "uint256",
          "name": "price",
          "type": "uint256"
        },
        {
          "internalType": "uint256",
          "name": "applicationId",
          "type": "uint256"
        },
        {
          "internalType": "enum LdEduProgram.MilestoneStatus",
          "name": "status",
          "type": "uint8"
        }
      ],
      "stateMutability": "view",
      "type": "function"
    },
    {
      "inputs": [],
      "name": "nextApplicationId",
      "outputs": [
        {
          "internalType": "uint256",
          "name": "",
          "type": "uint256"
        }
      ],
      "stateMutability": "view",
      "type": "function"
    },
    {
      "inputs": [],
      "name": "nextMilestoneId",
      "outputs": [
        {
          "internalType": "uint256",
          "name": "",
          "type": "uint256"
        }
      ],
      "stateMutability": "view",
      "type": "function"
    },
    {
      "inputs": [],
      "name": "nextProgramId",
      "outputs": [
        {
          "internalType": "uint256",
          "name": "",
          "type": "uint256"
        }
      ],
      "stateMutability": "view",
      "type": "function"
    },
    {
      "inputs": [],
      "name": "owner",
      "outputs": [
        {
          "internalType": "address",
          "name": "",
          "type": "address"
        }
      ],
      "stateMutability": "view",
      "type": "function"
    },
    {
      "inputs": [
        {
          "internalType": "uint256",
          "name": "programId",
          "type": "uint256"
        }
      ],
      "name": "reclaimFunds",
      "outputs": [],
      "stateMutability": "nonpayable",
      "type": "function"
    },
    {
      "inputs": [
        {
          "internalType": "uint256",
          "name": "milestoneId",
          "type": "uint256"
        }
      ],
      "name": "rejectMilestone",
      "outputs": [],
      "stateMutability": "nonpayable",
      "type": "function"
    },
    {
      "inputs": [],
      "name": "renounceOwnership",
      "outputs": [],
      "stateMutability": "nonpayable",
      "type": "function"
    },
    {
      "inputs": [
        {
          "internalType": "uint256",
          "name": "applicationId",
          "type": "uint256"
        }
      ],
      "name": "selectApplication",
      "outputs": [],
      "stateMutability": "nonpayable",
      "type": "function"
    },
    {
      "inputs": [
        {
          "internalType": "uint256",
          "name": "_fee",
          "type": "uint256"
        }
      ],
      "name": "setFee",
      "outputs": [],
      "stateMutability": "nonpayable",
      "type": "function"
    },
    {
      "inputs": [
        {
          "internalType": "uint256",
          "name": "programId",
          "type": "uint256"
        },
        {
          "internalType": "string[]",
          "name": "names",
          "type": "string[]"
        },
        {
          "internalType": "string[]",
          "name": "descriptions",
          "type": "string[]"
        },
        {
          "internalType": "uint256[]",
          "name": "prices",
          "type": "uint256[]"
        }
      ],
      "name": "submitApplication",
      "outputs": [],
      "stateMutability": "nonpayable",
      "type": "function"
    },
    {
      "inputs": [
        {
          "internalType": "uint256",
          "name": "milestoneId",
          "type": "uint256"
        },
        {
          "internalType": "string[]",
          "name": "links",
          "type": "string[]"
        }
      ],
      "name": "submitMilestone",
      "outputs": [],
      "stateMutability": "nonpayable",
      "type": "function"
    },
    {
      "inputs": [
        {
          "internalType": "address",
          "name": "newOwner",
          "type": "address"
        }
      ],
      "name": "transferOwnership",
      "outputs": [],
      "stateMutability": "nonpayable",
      "type": "function"
    },
    {
      "inputs": [
        {
          "internalType": "uint256",
          "name": "programId",
          "type": "uint256"
        },
        {
          "internalType": "uint256",
          "name": "price",
          "type": "uint256"
        },
        {
          "internalType": "uint256",
          "name": "startTime",
          "type": "uint256"
        },
        {
          "internalType": "uint256",
          "name": "endTime",
          "type": "uint256"
        },
        {
          "internalType": "address",
          "name": "newValidator",
          "type": "address"
        }
      ],
      "name": "updateProgram",
      "outputs": [],
      "stateMutability": "nonpayable",
      "type": "function"
    }
  ],
  "bytecode": "0x6080346200007e57601f6200275638819003918201601f19168301916001600160401b0383118484101762000083578084926020946040528339810103126200007e57516001600160a01b03811681036200007e576200006e90620000643362000099565b6001805562000099565b6040516126759081620000e18239f35b600080fd5b634e487b7160e01b600052604160045260246000fd5b600080546001600160a01b039283166001600160a01b03198216811783559216907f8be0079c531659141344cd1fd0a4f28419497f9722a3daafe3b4186f6b6457e09080a356fe608080604052600436101561001357600080fd5b60003560e01c9081631b5323f714611db2575080631bc09f8114611ca3578063625338cb14611c8557806369fe0e2d14611c39578063715018a614611be057806378ea19b01461140757806389001eb1146112a45780638da5cb5b1461127b5780639201f6631461125d578063a112ed4e14610930578063b0d456ac1461089b578063ba1e64c614610713578063ba71b330146106f5578063caaed3021461064b578063ced72f871461062d578063d613fd241461052f578063db74ce3a14610498578063dfefadff14610436578063e89e4ed614610384578063f2fde38b146102be5763f9f161a81461010657600080fd5b346102b95760203660031901126102b9576004356101226125e9565b8060005260026020526040600020600a810190815461014760ff8260a01c16156124e0565b60ff8160a81c1661028257600582015442111561024557600982019260018060a01b039182855416938433036102085760ff60a81b19909116600160a81b17909155600301805490926000918291829182918282156101ff575bf1156101f3579154905460408051929093166001600160a01b0316825260208201527fd37c0b9c7560299a7c963d03165111d712663805228e5ffca03d540c5d6e410e91819081015b0390a260018055005b6040513d6000823e3d90fd5b506108fc6101a1565b60405162461bcd60e51b81526020600482015260156024820152742737ba103a343290383937b3b930b69036b0b5b2b960591b6044820152606490fd5b60405162461bcd60e51b8152602060048201526015602482015274141c9bd9dc985b481b9bdd08195b991959081e595d605a1b6044820152606490fd5b60405162461bcd60e51b815260206004820152600f60248201526e105b1c9958591e4818db185a5b5959608a1b6044820152606490fd5b600080fd5b346102b95760203660031901126102b9576004356001600160a01b03818116918290036102b9576102ed6122ff565b811561033057600054826001600160601b0360a01b821617600055167f8be0079c531659141344cd1fd0a4f28419497f9722a3daafe3b4186f6b6457e0600080a3005b60405162461bcd60e51b815260206004820152602660248201527f4f776e61626c653a206e6577206f776e657220697320746865207a65726f206160448201526564647265737360d01b6064820152608490fd5b346102b95760203660031901126102b957600435600052600460205260406000208054906103b460018201612219565b906103c160028201612219565b906104016003820154926103f360ff60066005860154950154169560405197885260c0602089015260c08801906122bf565b9086820360408801526122bf565b9160608501526080840152600482101561042057829160a08301520390f35b634e487b7160e01b600052602160045260246000fd5b346102b95760203660031901126102b95760043560005260036020526040600020805460018060a01b036001830154169160ff600660058301549201541692604051928352602083015260408201526003821015610420576080916060820152f35b346102b95760203660031901126102b95760043580600052600360205260066040600020600581015460005260026020526104e460018060a01b03600a60406000200154163314612468565b01805460ff8116906003821015610420576105016001921561256c565b60ff19161790557fa23f1fa4eaecd6e0d93c22f8d38992d5f4c441c93fff05c827b21346c0c7507e600080a2005b346102b95760203660031901126102b9576004356000526002602052604060002080546001820161055f90612219565b6003830154600484015460058501549294909161057e60068301612219565b61058a60078401612219565b90600160a01b6001900392836009860154169684600a87015496600b015416966040519a8b9a8b526101808060208d01528b016105c6916122bf565b9260408b015260608a0152608089015287810360a08901526105e7916122bf565b86810360c08801526105f8916122bf565b9360e086015281166101008501528060a01c60ff16151561012085015260a81c60ff1615156101408401526101608301520390f35b346102b95760003660031901126102b9576020600854604051908152f35b346102b95760203660031901126102b957600435806000526004602052600660406000206005810154600052600360205260056040600020015460005260026020526106a860018060a01b03600a60406000200154163314612468565b01805460ff8116906004821015610420576106c76001600393146125ac565b60ff19161790557f2268eb603324c1c4f7a3cb60c7e82795fd192cf05601cda427b385d4fcc42a5e600080a2005b346102b95760003660031901126102b9576020600754604051908152f35b346102b9576020806003193601126102b9576004356107306125e9565b806000526004825260406000209160058301546000526003815260056040600020015460005260028152604060002060018060a01b039061077882600a830154163314612468565b60068501805460ff81169060048210156104205761079a6001600293146125ac565b60ff1916179055600b81019360008080806003878a54169a01998a54905af13d15610896573d6107c9816120ce565b906107d760405192836120ad565b81526000863d92013e5b1561085b577fb7ab333173a25d27082c5bcc7f95d330190ebf0d3539c7761583c5f5f6ce15667f7099040ff4abf6b015bd1004cbf11ec796c3d4abcaec3514db1c93599297d39f95965494604051868152a254935460408051929091166001600160a01b03168252602082019290925290819081016101ea565b60405162461bcd60e51b8152600481018590526013602482015272115512081d1c985b9cd9995c8819985a5b1959606a1b6044820152606490fd5b6107e1565b346102b95760203660031901126102b9576004356000818152600260205260409020600a8101805490916108ea906005906108e0336001600160a01b03861614612468565b01544211156124a4565b6108fa60ff8260a01c16156124e0565b60ff60a01b1916600160a01b1790557f3ca3d218d64ea45c582c714d84dcdfd87f8d3cb3a3449fe533c2cb6d614ab766600080a2005b346102b95760803660031901126102b9576024356001600160401b0381116102b957610960903690600401612062565b906044356001600160401b0381116102b957610980903690600401612062565b9290916064356001600160401b0381116102b9576109a2903690600401612062565b60049591953560005260026020526109c360056040600020015442106124a4565b81841480611254575b1561121e57600554956109de87612443565b6005556040516109ed81612092565b878152336020820152610a01368787612155565b6040820152610a11368589612155565b6060820152610a1f8361213e565b610a2c60405191826120ad565b83815260208101368560051b8501116102b95783905b8560051b8501821061120e575050608082015260043560a0820152600060c0820152876000526003602052604060002090805182556001820160018060a01b036020830151166001600160601b0360a01b8254161790556002820160408201516020815191610ab183856123b3565b01916000526020600020916000905b82821061113157505050506003820160608201516020815191610ae383856123b3565b01916000526020600020916000905b82821061104e575050505060808101518051906001600160401b038211610f0a57600160401b8211610f0a57602090600485015483600487015580841061102e575b500160048401600052602060002060005b83811061101a5750505060a082015160058401555060c0015160038110156104205760069060ff80198385015416911617910155610b828561213e565b95610b9060405197886120ad565b858752601f19610b9f8761213e565b0136602089013760005b868110610c15578888604051906020820160208352815180915260206040840192019060005b818110610bff57857f09bbfa816c7e14e18babfca167b7eb6d09305cca69bdb107b37b18c6a6082b2686860387a2005b8251845260209384019390920191600101610bcf565b60065490610c2282612443565b600655610c30818989612551565b90610c3c838987612551565b919088851015610e1157604051928360208101106001600160401b03602086011117610f0a57610c8b610c9793602086016040526000865260405196610c8188612092565b89885236916120e9565b602086015236916120e9565b60408301528260051b860135606083015260808201528a60a0820152600060c08201528260005260046020526040600020908051825560208101518051906001600160401b038211610f0a578190610cff82610cf660018801546121df565b6001880161236e565b602090601f8311600114610fa857600092610f9d575b50508160011b916000199060031b1c19161760018301555b60408101518051906001600160401b038211610f0a578190610d5f82610d5660028801546121df565b6002880161236e565b602090601f8311600114610f2b57600092610f20575b50508160011b916000199060031b1c19161760028301555b606081015160038301556004820160808201516020815191610daf83856123b3565b019160005260206000206000925b828410610e275750505060a082015160058401555060c00151906004821015610420576006019060ff801983541691161790558851811015610e1157610e0c9160208260051b8b010152612443565b610ba9565b634e487b7160e01b600052603260045260246000fd5b80518051906001600160401b038211610f0a57610e4e82610e4886546121df565b8661236e565b602090601f8311600114610e9a579282600194936020938695600092610e8f575b5050600019600383901b1c191690841b1785555b01920193019290610dbd565b015190503880610e6f565b908460005260206000209160005b601f1985168110610ef2575083602093600196938796938794601f19811610610ed9575b505050811b018555610e83565b015160001960f88460031b161c19169055388080610ecc565b91926020600181928685015181550194019201610ea8565b634e487b7160e01b600052604160045260246000fd5b015190508e80610d75565b9250600285016000526020600020906000935b601f1984168510610f82576001945083601f19811610610f69575b505050811b016002830155610d8d565b015160001960f88460031b161c191690558e8080610f59565b81810151835560209485019460019093019290910190610f3e565b015190508e80610d15565b9250600185016000526020600020906000935b601f1984168510610fff576001945083601f19811610610fe6575b505050811b016001830155610d2d565b015160001960f88460031b161c191690558e8080610fd6565b81810151835560209485019460019093019290910190610fbb565b600190602084519401938184015501610b45565b611048906004870160005284846000209182019101612357565b8c610b34565b80518051906001600160401b038211610f0a576110758261106f88546121df565b8861236e565b602090601f83116001146110c15792826001949360209386956000926110b6575b5050600019600383901b1c191690841b1787555b01940191019092610af2565b015190503880611096565b908660005260206000209160005b601f1985168110611119575083602093600196938796938794601f19811610611100575b505050811b0187556110aa565b015160001960f88460031b161c191690553880806110f3565b919260206001819286850151815501940192016110cf565b80518051906001600160401b038211610f0a576111528261106f88546121df565b602090601f831160011461119e579282600194936020938695600092611193575b5050600019600383901b1c191690841b1787555b01940191019092610ac0565b015190503880611173565b908660005260206000209160005b601f19851681106111f6575083602093600196938796938794601f198116106111dd575b505050811b018755611187565b015160001960f88460031b161c191690553880806111d0565b919260206001819286850151815501940192016111ac565b8135815260209182019101610a42565b60405162461bcd60e51b815260206004820152600e60248201526d092dce0eae840dad2e6dac2e8c6d60931b6044820152606490fd5b508084146109cc565b346102b95760003660031901126102b9576020600654604051908152f35b346102b95760003660031901126102b9576000546040516001600160a01b039091168152602090f35b346102b95760a03660031901126102b9576024356001600160a01b036004356084358281169060643590604435908390036102b95783600052600260205260406000209460098601541633036113d3578181101561139f57851561136a5785600a867fe3d59d03839a10c8a5a85dd0d7e5a4ac45445821c5176529d2745adf6915a16198600360a099015583600482015584600582015501846001600160601b03881b8254161790556040519485526020850152604084015260608301526080820152a1005b60405162461bcd60e51b815260206004820152600d60248201526c496e76616c696420707269636560981b6044820152606490fd5b60405162461bcd60e51b815260206004820152600c60248201526b496e76616c69642074696d6560a01b6044820152606490fd5b60405162461bcd60e51b815260206004820152600c60248201526b27b7363c9031b932b0ba37b960a11b6044820152606490fd5b6101203660031901126102b9576004356001600160401b0381116102b957611433903690600401612120565b6044356001600160401b0381116102b9576114529036906004016121c4565b9060a435906001600160a01b03821682036102b95760c4356001600160401b0381116102b957611486903690600401612120565b60e4356001600160401b0381116102b9576114a5903690600401612120565b610104356001600160401b0381116102b9576114c59036906004016121c4565b916024353403611b85576084356064351015611b26576007549560405194856101c08101106001600160401b036101c088011117610f0a576101c08601604052878652602086015260408501526024356060850152606435608085015260843560a085015260c084015260e08301526101008201523361012082015260018060a01b0382166101408201526000610160820152600061018082015260006101a082015282600052600260205260406000208151815560208201518051906001600160401b038211610f0a5781906115ac826115a360018701546121df565b6001870161236e565b602090601f8311600114611ab457600092611aa9575b50508160011b916000199060031b1c19161760018201555b60028101604083015160208151916115f283856123b3565b01916000526020600020916000905b8282106119cc5750505050606082015160038201556080820151600482015560a0820151600582015560c08201518051906001600160401b038211610f0a57819061165c8261165360068701546121df565b6006870161236e565b602090601f831160011461195a5760009261194f575b50508160011b916000199060031b1c19161760068201555b60e08201518051906001600160401b038211610f0a5781906116bc826116b360078701546121df565b6007870161236e565b602090601f83116001146118dd576000926118d2575b50508160011b916000199060031b1c19161760078201555b60088101610100830151602081519161170383856123b3565b01916000526020600020916000905b8282106117f557505050506101208201516009820180546001600160a01b03199081166001600160a01b0393841617909155610140840151600a840180546101608701516101808801516001600160b01b03199092169386169390931792151560a01b60ff60a01b169290921791151560a81b60ff60a81b169190911790556101a090930151600b92909201805490931691161790556007546117b490612443565b60075560405160243581526001600160a01b039091169133917f808c887919683a350ed55b3499f97ed7f4093ecc5e131fadb8b075a85457af3a90602090a4005b80518051906001600160401b038211610f0a576118168261106f88546121df565b602090601f8311600114611862579282600194936020938695600092611857575b5050600019600383901b1c191690841b1787555b01940191019092611712565b015190508d80611837565b908660005260206000209160005b601f19851681106118ba575083602093600196938796938794601f198116106118a1575b505050811b01875561184b565b015160001960f88460031b161c191690558d8080611894565b91926020600181928685015181550194019201611870565b0151905086806116d2565b9250600784016000526020600020906000935b601f1984168510611934576001945083601f1981161061191b575b505050811b0160078201556116ea565b015160001960f88460031b161c1916905586808061190b565b818101518355602094850194600190930192909101906118f0565b015190508680611672565b9250600684016000526020600020906000935b601f19841685106119b1576001945083601f19811610611998575b505050811b01600682015561168a565b015160001960f88460031b161c19169055868080611988565b8181015183556020948501946001909301929091019061196d565b80518051906001600160401b038211610f0a576119ed8261106f88546121df565b602090601f8311600114611a39579282600194936020938695600092611a2e575b5050600019600383901b1c191690841b1787555b01940191019092611601565b015190508d80611a0e565b908660005260206000209160005b601f1985168110611a91575083602093600196938796938794601f19811610611a78575b505050811b018755611a22565b015160001960f88460031b161c191690558d8080611a6b565b91926020600181928685015181550194019201611a47565b0151905086806115c2565b9250600184016000526020600020906000935b601f1984168510611b0b576001945083601f19811610611af2575b505050811b0160018201556115da565b015160001960f88460031b161c19169055868080611ae2565b81810151835560209485019460019093019290910190611ac7565b60405162461bcd60e51b815260206004820152603160248201527f5468652053746172742074696d65206d757374206265206561726c69657220746044820152703430b7103a34329032b732103a34b6b29760791b6064820152608490fd5b60405162461bcd60e51b815260206004820152602d60248201527f546865204554482073656e7420646f6573206e6f74206d61746368207468652060448201526c70726f6772616d20707269636560981b6064820152608490fd5b346102b95760003660031901126102b957611bf96122ff565b600080546001600160a01b0319811682556001600160a01b03167f8be0079c531659141344cd1fd0a4f28419497f9722a3daafe3b4186f6b6457e08280a3005b346102b95760203660031901126102b9577f8c4d35e54a3f2ef1134138fd8ea3daee6a3c89e10d2665996babdf70261e2c766020600435611c786122ff565b80600855604051908152a1005b346102b95760003660031901126102b9576020600554604051908152f35b346102b95760203660031901126102b957600435806000526003602052604060002060058101546000526002602052604060002090600a8201600b60018060a01b0393611cf4858454163314612468565b019183835416611d7a57600681019081549160ff8316600381101561042057600193611d226002921561256c565b60ff191617905501805483546001600160a01b03191690851617909255805460ff60a01b1916600160a01b1790555416907f336d0775892406cc9e5ccdd5582b00b43d67d677ea060a1b91e01a637d4ba55a600080a3005b60405162461bcd60e51b815260206004820152601060248201526f105b1c9958591e481cd95b1958dd195960821b6044820152606490fd5b346102b95760403660031901126102b957600435906024906001600160401b0382358181116102b957611de9903690600401612062565b9185600052602090600482526040600020600581015460005260039081845260406000209660ff6006890154168381101561204d5760020361200c57506001968701546001600160a01b03163303611fda5760068101805460ff81166004811015611fc557611f8d5760ff1916881790556004019391611e6986866123b3565b600094855283852092805b878710611ea3578a7f6670b87ece4bf5ff8e422301a14d59d43b4f9d17c2f96c6c37ca8a073efda7f5600080a2005b611ead818361251f565b848193929311611f78578a9181611ecf8a93611ec98b546121df565b8b61236e565b6000601f8211600114611f115781908596600092611f06575b5050600019828a1b1c191690841b1788555b01950196019593611e74565b013590503880611ee8565b94601f198216958a600052846000209660005b818110611f5f5750918697918488959410611f47575b505050811b018855611efa565b0135600019838c1b60f8161c19169055388080611f3a565b83830135895596909701968f968d969283019201611f24565b8b634e487b7160e01b60005260416004526000fd5b60405162461bcd60e51b8152600481018790526011818c015270105b1c9958591e481cdd589b5a5d1d1959607a1b6044820152606490fd5b8a634e487b7160e01b60005260216004526000fd5b60405162461bcd60e51b815260048101859052600b818a01526a2737ba10313ab4b63232b960a91b6044820152606490fd5b62461bcd60e51b8152600481018590526018898201527f4170706c69636174696f6e206e6f742073656c656374656400000000000000006044820152606490fd5b89634e487b7160e01b60005260216004526000fd5b9181601f840112156102b9578235916001600160401b0383116102b9576020808501948460051b0101116102b957565b60e081019081106001600160401b03821117610f0a57604052565b90601f801991011681019081106001600160401b03821117610f0a57604052565b6001600160401b038111610f0a57601f01601f191660200190565b9291926120f5826120ce565b9161210360405193846120ad565b8294818452818301116102b9578281602093846000960137010152565b9080601f830112156102b95781602061213b933591016120e9565b90565b6001600160401b038111610f0a5760051b60200190565b929190926121628461213e565b9161217060405193846120ad565b829480845260208094019060051b8301928284116102b95780915b84831061219a57505050505050565b82356001600160401b0381116102b95786916121b98684938601612120565b81520192019161218b565b9080601f830112156102b95781602061213b93359101612155565b90600182811c9216801561220f575b60208310146121f957565b634e487b7160e01b600052602260045260246000fd5b91607f16916121ee565b906040519182600082549261222d846121df565b90818452600194858116908160001461229c5750600114612259575b5050612257925003836120ad565b565b9093915060005260209081600020936000915b81831061228457505061225793508201013880612249565b8554888401850152948501948794509183019161226c565b91505061225794506020925060ff191682840152151560051b8201013880612249565b919082519283825260005b8481106122eb575050826000602080949584010152601f8019910116010190565b6020818301810151848301820152016122ca565b6000546001600160a01b0316330361231357565b606460405162461bcd60e51b815260206004820152602060248201527f4f776e61626c653a2063616c6c6572206973206e6f7420746865206f776e65726044820152fd5b818110612362575050565b60008155600101612357565b9190601f811161237d57505050565b612257926000526020600020906020601f840160051c830193106123a9575b601f0160051c0190612357565b909150819061239c565b600160401b8211610f0a578054918082558281106123d057505050565b600091825260209081832093840193015b8381106123ee5750505050565b80836123fc600193546121df565b8061240a575b5050016123e1565b601f808211851461242157505081555b8338612402565b61243a90848452868420920160051c8201858301612357565b8183555561241a565b60001981146124525760010190565b634e487b7160e01b600052601160045260246000fd5b1561246f57565b60405162461bcd60e51b815260206004820152600d60248201526c2737ba103b30b634b230ba37b960991b6044820152606490fd5b156124ab57565b60405162461bcd60e51b815260206004820152600d60248201526c141c9bd9dc985b48195b991959609a1b6044820152606490fd5b156124e757565b60405162461bcd60e51b815260206004820152601060248201526f105b1c9958591e48185c1c1c9bdd995960821b6044820152606490fd5b903590601e19813603018212156102b957018035906001600160401b0382116102b9576020019181360383136102b957565b90821015610e11576125689160051b81019061251f565b9091565b1561257357565b60405162461bcd60e51b8152602060048201526011602482015270105b1c9958591e48195d985b1d585d1959607a1b6044820152606490fd5b156125b357565b60405162461bcd60e51b815260206004820152600e60248201526d496e76616c69642073746174757360901b6044820152606490fd5b6002600154146125fa576002600155565b60405162461bcd60e51b815260206004820152601f60248201527f5265656e7472616e637947756172643a207265656e7472616e742063616c6c006044820152606490fdfea26469706673582212207dae4720641619f11b877cc6fe7ff979f0fa39fad76bb554fe9d6bb9f3a5a81a64736f6c63430008140033",
  "linkReferences": {},
  "deployedLinkReferences": {}
}