{
  "_format": "hh-sol-artifact-1",
  "contractName": "LdEduProgram",
  "sourceName": "contracts/LdEduProgram.sol",
  "abi": [
    {
      "inputs": [
        {
          "internalType": "address",
          "name": "initialOwner",
          "type": "address"
        }
      ],
      "stateMutability": "nonpayable",
      "type": "constructor"
    },
    {
      "anonymous": false,
      "inputs": [
        {
          "indexed": false,
          "internalType": "uint256",
          "name": "newFee",
          "type": "uint256"
        }
      ],
      "name": "FeeUpdated",
      "type": "event"
    },
    {
      "anonymous": false,
      "inputs": [
        {
          "indexed": true,
          "internalType": "uint256",
          "name": "id",
          "type": "uint256"
        },
        {
          "indexed": false,
          "internalType": "address",
          "name": "maker",
          "type": "address"
        },
        {
          "indexed": false,
          "internalType": "uint256",
          "name": "amount",
          "type": "uint256"
        },
        {
          "indexed": false,
          "internalType": "address",
          "name": "token",
          "type": "address"
        }
      ],
      "name": "FundsReclaimed",
      "type": "event"
    },
    {
      "anonymous": false,
      "inputs": [
        {
          "indexed": true,
          "internalType": "uint256",
          "name": "programId",
          "type": "uint256"
        },
        {
          "indexed": true,
          "internalType": "address",
          "name": "builder",
          "type": "address"
        },
        {
          "indexed": false,
          "internalType": "uint256",
          "name": "reward",
          "type": "uint256"
        },
        {
          "indexed": false,
          "internalType": "address",
          "name": "token",
          "type": "address"
        }
      ],
      "name": "MilestoneAccepted",
      "type": "event"
    },
    {
      "anonymous": false,
      "inputs": [
        {
          "indexed": true,
          "internalType": "address",
          "name": "previousOwner",
          "type": "address"
        },
        {
          "indexed": true,
          "internalType": "address",
          "name": "newOwner",
          "type": "address"
        }
      ],
      "name": "OwnershipTransferred",
      "type": "event"
    },
    {
      "anonymous": false,
      "inputs": [
        {
          "indexed": true,
          "internalType": "uint256",
          "name": "id",
          "type": "uint256"
        },
        {
          "indexed": true,
          "internalType": "address",
          "name": "maker",
          "type": "address"
        },
        {
          "indexed": true,
          "internalType": "address",
          "name": "validator",
          "type": "address"
        },
        {
          "indexed": false,
          "internalType": "uint256",
          "name": "price",
          "type": "uint256"
        },
        {
          "indexed": false,
          "internalType": "address",
          "name": "token",
          "type": "address"
        }
      ],
      "name": "ProgramCreated",
      "type": "event"
    },
    {
      "anonymous": false,
      "inputs": [
        {
          "indexed": false,
          "internalType": "uint256",
          "name": "programId",
          "type": "uint256"
        },
        {
          "indexed": false,
          "internalType": "uint256",
          "name": "price",
          "type": "uint256"
        },
        {
          "indexed": false,
          "internalType": "uint256",
          "name": "startTime",
          "type": "uint256"
        },
        {
          "indexed": false,
          "internalType": "uint256",
          "name": "endTime",
          "type": "uint256"
        },
        {
          "indexed": false,
          "internalType": "address",
          "name": "newValidator",
          "type": "address"
        }
      ],
      "name": "ProgramEdited",
      "type": "event"
    },
    {
      "anonymous": false,
      "inputs": [
        {
          "indexed": false,
          "internalType": "address",
          "name": "token",
          "type": "address"
        },
        {
          "indexed": false,
          "internalType": "bool",
          "name": "status",
          "type": "bool"
        }
      ],
      "name": "TokenWhitelisted",
      "type": "event"
    },
    {
      "inputs": [],
      "name": "ETH_ADDRESS",
      "outputs": [
        {
          "internalType": "address",
          "name": "",
          "type": "address"
        }
      ],
      "stateMutability": "view",
      "type": "function"
    },
    {
      "inputs": [
        {
          "internalType": "uint256",
          "name": "programId",
          "type": "uint256"
        },
        {
          "internalType": "address",
          "name": "builder",
          "type": "address"
        },
        {
          "internalType": "uint256",
          "name": "reward",
          "type": "uint256"
        }
      ],
      "name": "acceptMilestone",
      "outputs": [],
      "stateMutability": "nonpayable",
      "type": "function"
    },
    {
      "inputs": [
        {
          "internalType": "string",
          "name": "_name",
          "type": "string"
        },
        {
          "internalType": "uint256",
          "name": "_price",
          "type": "uint256"
        },
        {
          "internalType": "uint256",
          "name": "_startTime",
          "type": "uint256"
        },
        {
          "internalType": "uint256",
          "name": "_endTime",
          "type": "uint256"
        },
        {
          "internalType": "address",
          "name": "_validator",
          "type": "address"
        },
        {
          "internalType": "address",
          "name": "_token",
          "type": "address"
        }
      ],
      "name": "createEduProgram",
      "outputs": [],
      "stateMutability": "payable",
      "type": "function"
    },
    {
      "inputs": [
        {
          "internalType": "uint256",
          "name": "",
          "type": "uint256"
        }
      ],
      "name": "eduPrograms",
      "outputs": [
        {
          "internalType": "uint256",
          "name": "id",
          "type": "uint256"
        },
        {
          "internalType": "string",
          "name": "name",
          "type": "string"
        },
        {
          "internalType": "uint256",
          "name": "price",
          "type": "uint256"
        },
        {
          "internalType": "uint256",
          "name": "startTime",
          "type": "uint256"
        },
        {
          "internalType": "uint256",
          "name": "endTime",
          "type": "uint256"
        },
        {
          "internalType": "address",
          "name": "maker",
          "type": "address"
        },
        {
          "internalType": "address",
          "name": "validator",
          "type": "address"
        },
        {
          "internalType": "bool",
          "name": "claimed",
          "type": "bool"
        },
        {
          "internalType": "bool",
          "name": "approve",
          "type": "bool"
        },
        {
          "internalType": "address",
          "name": "token",
          "type": "address"
        }
      ],
      "stateMutability": "view",
      "type": "function"
    },
    {
      "inputs": [
        {
          "internalType": "address",
          "name": "token",
          "type": "address"
        },
        {
          "internalType": "uint256",
          "name": "amount",
          "type": "uint256"
        }
      ],
      "name": "emergencyWithdraw",
      "outputs": [],
      "stateMutability": "nonpayable",
      "type": "function"
    },
    {
      "inputs": [
        {
          "internalType": "address",
          "name": "token",
          "type": "address"
        }
      ],
      "name": "getContractBalance",
      "outputs": [
        {
          "internalType": "uint256",
          "name": "",
          "type": "uint256"
        }
      ],
      "stateMutability": "view",
      "type": "function"
    },
    {
      "inputs": [],
      "name": "getFee",
      "outputs": [
        {
          "internalType": "uint256",
          "name": "",
          "type": "uint256"
        }
      ],
      "stateMutability": "view",
      "type": "function"
    },
    {
      "inputs": [
        {
          "internalType": "uint256",
          "name": "programId",
          "type": "uint256"
        }
      ],
      "name": "getProgramDetails",
      "outputs": [
        {
          "internalType": "string",
          "name": "name",
          "type": "string"
        },
        {
          "internalType": "uint256",
          "name": "price",
          "type": "uint256"
        },
        {
          "internalType": "address",
          "name": "maker",
          "type": "address"
        },
        {
          "internalType": "address",
          "name": "validator",
          "type": "address"
        },
        {
          "internalType": "address",
          "name": "token",
          "type": "address"
        },
        {
          "internalType": "bool",
          "name": "claimed",
          "type": "bool"
        }
      ],
      "stateMutability": "view",
      "type": "function"
    },
    {
      "inputs": [],
      "name": "nextProgramId",
      "outputs": [
        {
          "internalType": "uint256",
          "name": "",
          "type": "uint256"
        }
      ],
      "stateMutability": "view",
      "type": "function"
    },
    {
      "inputs": [],
      "name": "owner",
      "outputs": [
        {
          "internalType": "address",
          "name": "",
          "type": "address"
        }
      ],
      "stateMutability": "view",
      "type": "function"
    },
    {
      "inputs": [
        {
          "internalType": "uint256",
          "name": "programId",
          "type": "uint256"
        }
      ],
      "name": "reclaimFunds",
      "outputs": [],
      "stateMutability": "nonpayable",
      "type": "function"
    },
    {
      "inputs": [],
      "name": "renounceOwnership",
      "outputs": [],
      "stateMutability": "nonpayable",
      "type": "function"
    },
    {
      "inputs": [
        {
          "internalType": "uint256",
          "name": "_fee",
          "type": "uint256"
        }
      ],
      "name": "setFee",
      "outputs": [],
      "stateMutability": "nonpayable",
      "type": "function"
    },
    {
      "inputs": [
        {
          "internalType": "address",
          "name": "token",
          "type": "address"
        },
        {
          "internalType": "bool",
          "name": "status",
          "type": "bool"
        }
      ],
      "name": "setTokenWhitelist",
      "outputs": [],
      "stateMutability": "nonpayable",
      "type": "function"
    },
    {
      "inputs": [
        {
          "internalType": "address",
          "name": "newOwner",
          "type": "address"
        }
      ],
      "name": "transferOwnership",
      "outputs": [],
      "stateMutability": "nonpayable",
      "type": "function"
    },
    {
      "inputs": [
        {
          "internalType": "uint256",
          "name": "programId",
          "type": "uint256"
        },
        {
          "internalType": "uint256",
          "name": "price",
          "type": "uint256"
        },
        {
          "internalType": "uint256",
          "name": "startTime",
          "type": "uint256"
        },
        {
          "internalType": "uint256",
          "name": "endTime",
          "type": "uint256"
        },
        {
          "internalType": "address",
          "name": "newValidator",
          "type": "address"
        }
      ],
      "name": "updateProgram",
      "outputs": [],
      "stateMutability": "nonpayable",
      "type": "function"
    },
    {
      "inputs": [
        {
          "internalType": "address",
          "name": "",
          "type": "address"
        }
      ],
      "name": "whitelistedTokens",
      "outputs": [
        {
          "internalType": "bool",
          "name": "",
          "type": "bool"
        }
      ],
      "stateMutability": "view",
      "type": "function"
    }
  ],
  "bytecode": "0x6080346100a957601f61174338819003918201601f19168301916001600160401b038311848410176100ae578084926020946040528339810103126100a957516001600160a01b03811681036100a9576100659061005c336100c4565b600180556100c4565b6000805260036020527f3617319a054d772f909f7c479a2cebe5066e836a939412e32403c99029b92eff805460ff19166001179055604051611637908161010c8239f35b600080fd5b634e487b7160e01b600052604160045260246000fd5b600080546001600160a01b039283166001600160a01b03198216811783559216907f8be0079c531659141344cd1fd0a4f28419497f9722a3daafe3b4186f6b6457e09080a356fe6080604052600436101561001257600080fd5b60003560e01c8063390cf36b14610e5d57806343ab265f14610e3257806369fe0e2d14610de6578063715018a614610d8d57806389001eb114610c2d5780638da5cb5b14610c0457806395ccea6714610ba85780639b46c80114610b1a578063a734f06e14610afe578063ba71b33014610ae0578063c9bcc97e14610a5c578063ced72f8714610a3e578063d613fd2414610983578063daf9c21014610944578063eb147fef1461039a578063f2fde38b146102d65763f9f161a8146100d757600080fd5b346102d1576020806003193601126102d157600435906100f56114ea565b81600052600281526040600020906004820154421115610295576005820180546001600160a01b0390811693913385900361025857600683019283549360ff8560a01c1661022157600282019081549586156101e65760ff60a01b1916600160a01b1790556000905560070180547fdf220afda5d5d16927c8d84713af8457f72e8bd4af288509a77c48754f4acd909660609692959294929383929091908316908590826101d857506101bd9150600080808093878754165af16101b76113db565b506114a8565b5416935416916040519384528301526040820152a260018055005b6101e192611540565b6101bd565b60405162461bcd60e51b81526004810189905260136024820152724e6f2066756e647320746f207265636c61696d60681b6044820152606490fd5b60405162461bcd60e51b815260048101879052600f60248201526e105b1c9958591e4818db185a5b5959608a1b6044820152606490fd5b60405162461bcd60e51b81526004810185905260156024820152742737ba103a343290383937b3b930b69036b0b5b2b960591b6044820152606490fd5b6064906040519062461bcd60e51b825260048201526015602482015274141c9bd9dc985b481b9bdd08195b991959081e595d605a1b6044820152fd5b600080fd5b346102d15760203660031901126102d1576102ef6110ea565b6102f7611274565b6001600160a01b0390811690811561034657600054826001600160601b0360a01b821617600055167f8be0079c531659141344cd1fd0a4f28419497f9722a3daafe3b4186f6b6457e0600080a3005b60405162461bcd60e51b815260206004820152602660248201527f4f776e61626c653a206e6577206f776e657220697320746865207a65726f206160448201526564647265737360d01b6064820152608490fd5b60c03660031901126102d15760043567ffffffffffffffff81116102d157366023820112156102d15780600401356103d181611258565b916103df6040519384611190565b81835236602483830101116102d15781600092602460209301838601378301015260649061040b611100565b9060a4356001600160a01b03811690036102d15760a4356001600160a01b031660009081526003602052604090205460ff1615610908576044928035843510156108ab576024351561086a576004549360a4356001600160a01b03166107b357602435340361075b575b604051928361014081011067ffffffffffffffff61014086011117610745576101408401604052858452602084015260243560408401523560608301523560808201523360a082015260018060a01b03821660c0820152600060e0820152600061010082015260018060a01b0360a43516610120820152826000526002602052604060002081518155602082015180519067ffffffffffffffff82116107455781906105246001850154611156565b601f81116106f2575b50602090601f831160011461068057600092610675575b50508160011b916000199060031b1c19161760018201555b6040820151600282015560608201516003820155608082015160048201556007600582019160018060a01b0360a085015116926001600160601b0360a01b93848254161790556006810160018060a01b0360c08601511681549060ff60a01b60e0880151151560a01b169060ff60a81b610100890151151560a81b169269ffffffffffffffffffff60b01b161717179055019161012060018060a01b039101511690825416179055600454600019811461065f576001016004556040805160243581526001600160a01b0360a435811660208301529290921692339290917fdd511ba7adfc2d92b666c725a9d6073b35763fe9017f7b3c0c75767e25b0f2cc91a4005b634e487b7160e01b600052601160045260246000fd5b015190508680610544565b9250600184016000526020600020906000935b601f19841685106106d7576001945083601f198116106106be575b505050811b01600182015561055c565b015160001960f88460031b161c191690558680806106ae565b81810151835560209485019460019093019290910190610693565b909150600184016000526020600020601f840160051c81016020851061073e575b90849392915b601f830160051c8201811061072f57505061052d565b60008155859450600101610719565b5080610713565b634e487b7160e01b600052604160045260246000fd5b6c70726f6772616d20707269636560981b6084927f546865204554482073656e7420646f6573206e6f74206d6174636820746865206040519362461bcd60e51b855260206004860152602d6024860152840152820152fd5b34610815576040516323b872dd60e01b602082015233602482015230828201526024358382015282815260a081019080821067ffffffffffffffff831117610745576040919091526108109060a4356001600160a01b03166112cc565b610475565b693bb4ba34103a37b5b2b760b11b6084927f53686f756c64206e6f742073656e6420455448207768656e20706179696e67206040519362461bcd60e51b855260206004860152602a6024860152840152820152fd5b60405162461bcd60e51b815260206004820152601c60248201527f5072696365206d7573742062652067726561746572207468616e20300000000081860152fd5b83703430b7103a34329032b732103a34b6b29760791b6084927f5468652053746172742074696d65206d757374206265206561726c69657220746040519362461bcd60e51b85526020600486015260316024860152840152820152fd5b60405162461bcd60e51b8152602060048201526015602482015274151bdad95b881b9bdd081dda1a5d195b1a5cdd1959605a1b60448201528390fd5b346102d15760203660031901126102d1576001600160a01b036109656110ea565b166000526003602052602060ff604060002054166040519015158152f35b346102d15760203660031901126102d1576004356000526002602052604060002080546109b2600183016111b2565b9160028101549060ff600382015491600481015460018060a01b03908160058401541690826007600686015495015416956109ff6040519a8b9a8b526101408060208d01528b0190611116565b9760408a01526060890152608088015260a0870152811660c0860152818160a01c16151560e086015260a81c1615156101008401526101208301520390f35b346102d15760003660031901126102d1576020600554604051908152f35b346102d15760403660031901126102d157610a756110ea565b602435908115158092036102d1577fef81a9943b96c8df4ef243401c9bf5159146166211356898b52d382086168d9291604091610ab0611274565b60018060a01b0316908160005260036020528260002060ff1981541660ff831617905582519182526020820152a1005b346102d15760003660031901126102d1576020600454604051908152f35b346102d15760003660031901126102d157602060405160008152f35b346102d15760203660031901126102d1576004356000526002602052610b826040600020600281015460ff60018060a01b038060058501541693600681015491610b6d60018260078501541693016111b2565b9560405197889760c0895260c0890190611116565b956020880152604087015282166060860152608085015260a01c16151560a08301520390f35b346102d15760403660031901126102d157610bc16110ea565b602435610bcc611274565b6001600160a01b0391821680610bf65750600080808093610bf4958254165af16101b76113db565b005b610bf4926000541690611540565b346102d15760003660031901126102d1576000546040516001600160a01b039091168152602090f35b346102d15760a03660031901126102d157602435604435600435606435610c52611100565b9082600052600260205260406000209360018060a01b0395866005870154163303610d595782821015610d25578015610cf0577fe3d59d03839a10c8a5a85dd0d7e5a4ac45445821c5176529d2745adf6915a1619660068783600260a09a015584600382015585600482015501941693846001600160601b03881b8254161790556040519485526020850152604084015260608301526080820152a1005b60405162461bcd60e51b815260206004820152600d60248201526c496e76616c696420707269636560981b6044820152606490fd5b60405162461bcd60e51b815260206004820152600c60248201526b496e76616c69642074696d6560a01b6044820152606490fd5b60405162461bcd60e51b815260206004820152600c60248201526b27b7363c9031b932b0ba37b960a11b6044820152606490fd5b346102d15760003660031901126102d157610da6611274565b600080546001600160a01b0319811682556001600160a01b03167f8be0079c531659141344cd1fd0a4f28419497f9722a3daafe3b4186f6b6457e08280a3005b346102d15760203660031901126102d1577f8c4d35e54a3f2ef1134138fd8ea3daee6a3c89e10d2665996babdf70261e2c766020600435610e25611274565b80600555604051908152a1005b346102d15760203660031901126102d1576020610e55610e506110ea565b611590565b604051908152f35b346102d15760603660031901126102d157602480356001600160a01b0381811691600435918382036102d15760443591610e956114ea565b836000526020600281526040600020908360068301541633036110b7576002820191825486116110735760070192848454168015600014610fa4575050844710610f575750610eee6000808080888b5af16101b76113db565b805490848203918211610f425755546040805193845291166001600160a01b0316602083015292935090917f41ea6ae62454ef15ab94bbfa38e7c0a4c91f27154a95ae628da0b3d70450f23491a360018055005b87634e487b7160e01b60005260116004526000fd5b6084906021896040519262461bcd60e51b845260048401528201527f496e73756666696369656e7420636f6e7472616374204554482062616c616e636044820152606560f81b6064820152fd5b90916040516370a0823160e01b815230600482015281818c81865afa8015611067578891600091611036575b5010610fe75750610fe2918691611540565b610eee565b60849060238b6040519262461bcd60e51b845260048401528201527f496e73756666696369656e7420636f6e747261637420746f6b656e2062616c616044820152626e636560e81b6064820152fd5b809250838092503d8311611060575b61104f8183611190565b810103126102d1578790518c610fd0565b503d611045565b6040513d6000823e3d90fd5b60405162461bcd60e51b815260048101839052601e818b01527f52657761726420657863656564732070726f6772616d2062616c616e636500006044820152606490fd5b606490600d896040519262461bcd60e51b845260048401528201526c2737ba103b30b634b230ba37b960991b6044820152fd5b600435906001600160a01b03821682036102d157565b608435906001600160a01b03821682036102d157565b919082519283825260005b848110611142575050826000602080949584010152601f8019910116010190565b602081830181015184830182015201611121565b90600182811c92168015611186575b602083101461117057565b634e487b7160e01b600052602260045260246000fd5b91607f1691611165565b90601f8019910116810190811067ffffffffffffffff82111761074557604052565b90604051918260008254926111c684611156565b90818452600194858116908160001461123557506001146111f2575b50506111f092500383611190565b565b9093915060005260209081600020936000915b81831061121d5750506111f0935082010138806111e2565b85548884018501529485019487945091830191611205565b9150506111f094506020925060ff191682840152151560051b82010138806111e2565b67ffffffffffffffff811161074557601f01601f191660200190565b6000546001600160a01b0316330361128857565b606460405162461bcd60e51b815260206004820152602060248201527f4f776e61626c653a2063616c6c6572206973206e6f7420746865206f776e65726044820152fd5b60018060a01b031690604051604081019080821067ffffffffffffffff8311176107455761133e916040526020938482527f5361666545524332303a206c6f772d6c6576656c2063616c6c206661696c6564858301526000808587829751910182855af16113386113db565b9161140b565b8051918215918483156113b0575b5050509050156113595750565b6084906040519062461bcd60e51b82526004820152602a60248201527f5361666545524332303a204552433230206f7065726174696f6e20646964206e6044820152691bdd081cdd58d8d9595960b21b6064820152fd5b9193818094500103126113d7578201519081151582036113d457508038808461134c565b80fd5b5080fd5b3d15611406573d906113ec82611258565b916113fa6040519384611190565b82523d6000602084013e565b606090565b9192901561146d575081511561141f575090565b3b156114285790565b60405162461bcd60e51b815260206004820152601d60248201527f416464726573733a2063616c6c20746f206e6f6e2d636f6e74726163740000006044820152606490fd5b8251909150156114805750805190602001fd5b60405162461bcd60e51b8152602060048201529081906114a4906024830190611116565b0390fd5b156114af57565b60405162461bcd60e51b8152602060048201526013602482015272115512081d1c985b9cd9995c8819985a5b1959606a1b6044820152606490fd5b6002600154146114fb576002600155565b60405162461bcd60e51b815260206004820152601f60248201527f5265656e7472616e637947756172643a207265656e7472616e742063616c6c006044820152606490fd5b60405163a9059cbb60e01b60208201526001600160a01b039092166024830152604480830193909352918152608081019167ffffffffffffffff831182841017610745576111f0926040526112cc565b6001600160a01b0316806115a357504790565b6020602491604051928380926370a0823160e01b82523060048301525afa908115611067576000916115d3575090565b906020823d82116115f9575b816115ec60209383611190565b810103126113d457505190565b3d91506115df56fea2646970667358221220c671f3b00a96bf95a464cc50a5ca02065fed9a53e6170927436c0712bef7e3d164736f6c63430008140033",
  "linkReferences": {},
  "deployedLinkReferences": {}
}