{
  "_format": "hh-sol-artifact-1",
  "contractName": "LdEduProgram",
  "sourceName": "contracts/LdEduProgram.sol",
  "abi": [
    {
      "inputs": [
        {
          "internalType": "address",
          "name": "initialOwner",
          "type": "address"
        }
      ],
      "stateMutability": "nonpayable",
      "type": "constructor"
    },
    {
      "anonymous": false,
      "inputs": [
        {
          "indexed": false,
          "internalType": "uint256",
          "name": "newFee",
          "type": "uint256"
        }
      ],
      "name": "FeeUpdated",
      "type": "event"
    },
    {
      "anonymous": false,
      "inputs": [
        {
          "indexed": true,
          "internalType": "uint256",
          "name": "id",
          "type": "uint256"
        },
        {
          "indexed": false,
          "internalType": "address",
          "name": "maker",
          "type": "address"
        },
        {
          "indexed": false,
          "internalType": "uint256",
          "name": "amount",
          "type": "uint256"
        }
      ],
      "name": "FundsReclaimed",
      "type": "event"
    },
    {
      "anonymous": false,
      "inputs": [
        {
          "indexed": true,
          "internalType": "uint256",
          "name": "programId",
          "type": "uint256"
        },
        {
          "indexed": true,
          "internalType": "address",
          "name": "builder",
          "type": "address"
        },
        {
          "indexed": false,
          "internalType": "uint256",
          "name": "reward",
          "type": "uint256"
        }
      ],
      "name": "MilestoneAccepted",
      "type": "event"
    },
    {
      "anonymous": false,
      "inputs": [
        {
          "indexed": true,
          "internalType": "address",
          "name": "previousOwner",
          "type": "address"
        },
        {
          "indexed": true,
          "internalType": "address",
          "name": "newOwner",
          "type": "address"
        }
      ],
      "name": "OwnershipTransferred",
      "type": "event"
    },
    {
      "anonymous": false,
      "inputs": [
        {
          "indexed": true,
          "internalType": "uint256",
          "name": "id",
          "type": "uint256"
        },
        {
          "indexed": true,
          "internalType": "address",
          "name": "maker",
          "type": "address"
        },
        {
          "indexed": true,
          "internalType": "address",
          "name": "validator",
          "type": "address"
        },
        {
          "indexed": false,
          "internalType": "uint256",
          "name": "price",
          "type": "uint256"
        }
      ],
      "name": "ProgramCreated",
      "type": "event"
    },
    {
      "anonymous": false,
      "inputs": [
        {
          "indexed": false,
          "internalType": "uint256",
          "name": "programId",
          "type": "uint256"
        },
        {
          "indexed": false,
          "internalType": "uint256",
          "name": "price",
          "type": "uint256"
        },
        {
          "indexed": false,
          "internalType": "uint256",
          "name": "startTime",
          "type": "uint256"
        },
        {
          "indexed": false,
          "internalType": "uint256",
          "name": "endTime",
          "type": "uint256"
        },
        {
          "indexed": false,
          "internalType": "address",
          "name": "newValidator",
          "type": "address"
        }
      ],
      "name": "ProgramEdited",
      "type": "event"
    },
    {
      "inputs": [
        {
          "internalType": "uint256",
          "name": "programId",
          "type": "uint256"
        },
        {
          "internalType": "address",
          "name": "builder",
          "type": "address"
        },
        {
          "internalType": "uint256",
          "name": "reward",
          "type": "uint256"
        }
      ],
      "name": "acceptMilestone",
      "outputs": [],
      "stateMutability": "nonpayable",
      "type": "function"
    },
    {
      "inputs": [
        {
          "internalType": "string",
          "name": "_name",
          "type": "string"
        },
        {
          "internalType": "uint256",
          "name": "_price",
          "type": "uint256"
        },
        {
          "internalType": "uint256",
          "name": "_startTime",
          "type": "uint256"
        },
        {
          "internalType": "uint256",
          "name": "_endTime",
          "type": "uint256"
        },
        {
          "internalType": "address",
          "name": "_validator",
          "type": "address"
        }
      ],
      "name": "createEduProgram",
      "outputs": [],
      "stateMutability": "payable",
      "type": "function"
    },
    {
      "inputs": [
        {
          "internalType": "uint256",
          "name": "",
          "type": "uint256"
        }
      ],
      "name": "eduPrograms",
      "outputs": [
        {
          "internalType": "uint256",
          "name": "id",
          "type": "uint256"
        },
        {
          "internalType": "string",
          "name": "name",
          "type": "string"
        },
        {
          "internalType": "uint256",
          "name": "price",
          "type": "uint256"
        },
        {
          "internalType": "uint256",
          "name": "startTime",
          "type": "uint256"
        },
        {
          "internalType": "uint256",
          "name": "endTime",
          "type": "uint256"
        },
        {
          "internalType": "address",
          "name": "maker",
          "type": "address"
        },
        {
          "internalType": "address",
          "name": "validator",
          "type": "address"
        },
        {
          "internalType": "bool",
          "name": "claimed",
          "type": "bool"
        }
      ],
      "stateMutability": "view",
      "type": "function"
    },
    {
      "inputs": [],
      "name": "getFee",
      "outputs": [
        {
          "internalType": "uint256",
          "name": "",
          "type": "uint256"
        }
      ],
      "stateMutability": "view",
      "type": "function"
    },
    {
      "inputs": [],
      "name": "nextProgramId",
      "outputs": [
        {
          "internalType": "uint256",
          "name": "",
          "type": "uint256"
        }
      ],
      "stateMutability": "view",
      "type": "function"
    },
    {
      "inputs": [],
      "name": "owner",
      "outputs": [
        {
          "internalType": "address",
          "name": "",
          "type": "address"
        }
      ],
      "stateMutability": "view",
      "type": "function"
    },
    {
      "inputs": [
        {
          "internalType": "uint256",
          "name": "programId",
          "type": "uint256"
        }
      ],
      "name": "reclaimFunds",
      "outputs": [],
      "stateMutability": "nonpayable",
      "type": "function"
    },
    {
      "inputs": [],
      "name": "renounceOwnership",
      "outputs": [],
      "stateMutability": "nonpayable",
      "type": "function"
    },
    {
      "inputs": [
        {
          "internalType": "uint256",
          "name": "_fee",
          "type": "uint256"
        }
      ],
      "name": "setFee",
      "outputs": [],
      "stateMutability": "nonpayable",
      "type": "function"
    },
    {
      "inputs": [
        {
          "internalType": "address",
          "name": "newOwner",
          "type": "address"
        }
      ],
      "name": "transferOwnership",
      "outputs": [],
      "stateMutability": "nonpayable",
      "type": "function"
    },
    {
      "inputs": [
        {
          "internalType": "uint256",
          "name": "programId",
          "type": "uint256"
        },
        {
          "internalType": "uint256",
          "name": "price",
          "type": "uint256"
        },
        {
          "internalType": "uint256",
          "name": "startTime",
          "type": "uint256"
        },
        {
          "internalType": "uint256",
          "name": "endTime",
          "type": "uint256"
        },
        {
          "internalType": "address",
          "name": "newValidator",
          "type": "address"
        }
      ],
      "name": "updateProgram",
      "outputs": [],
      "stateMutability": "nonpayable",
      "type": "function"
    }
  ],
  "bytecode": "0x60803461007457601f610ea738819003918201601f19168301916001600160401b038311848410176100795780849260209460405283398101031261007457516001600160a01b0381168103610074576100659061005c3361008f565b6001805561008f565b604051610dd090816100d78239f35b600080fd5b634e487b7160e01b600052604160045260246000fd5b600080546001600160a01b039283166001600160a01b03198216811783559216907f8be0079c531659141344cd1fd0a4f28419497f9722a3daafe3b4186f6b6457e09080a356fe6080604052600436101561001257600080fd5b60003560e01c8063390cf36b14610a6057806369fe0e2d14610a14578063715018a6146109bb57806389001eb11461085b5780638da5cb5b14610832578063ba71b33014610814578063bf9d633714610442578063ced72f8714610424578063d613fd24146102ad578063f2fde38b146101e75763f9f161a81461009557600080fd5b346101e25760203660031901126101e2576004356100b1610d44565b806000526002602052604060002060048101544211156101a5576005810180546001600160a01b039290831690338290036101685760068101805460ff60a01b1916600160a01b1790556002018054909160009182918291829182821561015f575bf115610153577fd37c0b9c7560299a7c963d03165111d712663805228e5ffca03d540c5d6e410e926040925416905482519182526020820152a260018055005b6040513d6000823e3d90fd5b506108fc610113565b60405162461bcd60e51b81526020600482015260156024820152742737ba103a343290383937b3b930b69036b0b5b2b960591b6044820152606490fd5b60405162461bcd60e51b8152602060048201526015602482015274141c9bd9dc985b481b9bdd08195b991959081e595d605a1b6044820152606490fd5b600080fd5b346101e25760203660031901126101e2576004356001600160a01b03818116918290036101e257610216610cec565b811561025957600054826001600160601b0360a01b821617600055167f8be0079c531659141344cd1fd0a4f28419497f9722a3daafe3b4186f6b6457e0600080a3005b60405162461bcd60e51b815260206004820152602660248201527f4f776e61626c653a206e6577206f776e657220697320746865207a65726f206160448201526564647265737360d01b6064820152608490fd5b346101e2576020806003193601126101e25760043560005260028152604060002080549160019081830160405180936000908354936102eb85610cb2565b948585528683821691826000146104025750506001146103c3575b50506103189250959294950383610c5e565b60028401549260038501549460048101549060018060a01b03906006826005830154169101549260405198899687526101009586818901528851809789015260005b8781106103a957505060ff959697506101209860008a898b01015260408901526060880152608087015260a0860152811660c085015260a01c16151560e0830152601f80199101168101030190f35b808a0182015198810161012001989098528a97810161035a565b85925060005281600020906000915b8583106103ea57505061031893508201018780610306565b805483890185015287945086939092019181016103d2565b925093505061031894915060ff191682840152151560051b8201018780610306565b346101e25760003660031901126101e2576020600454604051908152f35b60a03660031901126101e25760043567ffffffffffffffff81116101e257366023820112156101e25780600401359061047a82610c96565b916104886040519384610c5e565b808352602491368383830101116101e2578160009284602093018387013784010152606435916044356104b9610c48565b91833534036107ba578482101561075c576003549460405192610100840184811067ffffffffffffffff821117610747576040528684526020840192835285356040850152606084015260808301523360a083015260018060a01b03831660c0830152600060e0830152846000526002602052604060002090825182555180519067ffffffffffffffff8211610732576105566001840154610cb2565b601f81116106eb575b50602090601f83116001146106785760069392916000918361066d575b50508160011b916000199060031b1c19161760018201555b6040830151600282015560608301516003820155608083015160048201556005810160018060a01b0360a0850151166001600160601b0360a01b825416179055019060018060a01b0360c08201511682549160e060ff60a01b910151151560a01b16916affffffffffffffffffffff60a81b1617179055600354600019811461065857600101600355604051913582526001600160a01b03169133917f808c887919683a350ed55b3499f97ed7f4093ecc5e131fadb8b075a85457af3a90602090a4005b82634e487b7160e01b60005260116004526000fd5b01519050888061057c565b906001840160005260206000209160005b601f19851681106106d3575091839160019360069695601f198116106106ba575b505050811b016001820155610594565b015160001960f88460031b161c191690558880806106aa565b91926020600181928685015181550194019201610689565b600184016000526020600020601f840160051c81016020851061072b575b601f830160051c8201811061071f57505061055f565b60008155600101610709565b5080610709565b85634e487b7160e01b60005260416004526000fd5b86634e487b7160e01b60005260416004526000fd5b60405162461bcd60e51b8152602060048201526031818601527f5468652053746172742074696d65206d757374206265206561726c69657220746044820152703430b7103a34329032b732103a34b6b29760791b6064820152608490fd5b60405162461bcd60e51b815260206004820152602d818601527f546865204554482073656e7420646f6573206e6f74206d61746368207468652060448201526c70726f6772616d20707269636560981b6064820152608490fd5b346101e25760003660031901126101e2576020600354604051908152f35b346101e25760003660031901126101e2576000546040516001600160a01b039091168152602090f35b346101e25760a03660031901126101e257602435604435600435606435610880610c48565b9082600052600260205260406000209360018060a01b0395866005870154163303610987578282101561095357801561091e577fe3d59d03839a10c8a5a85dd0d7e5a4ac45445821c5176529d2745adf6915a1619660068783600260a09a015584600382015585600482015501941693846001600160601b03881b8254161790556040519485526020850152604084015260608301526080820152a1005b60405162461bcd60e51b815260206004820152600d60248201526c496e76616c696420707269636560981b6044820152606490fd5b60405162461bcd60e51b815260206004820152600c60248201526b496e76616c69642074696d6560a01b6044820152606490fd5b60405162461bcd60e51b815260206004820152600c60248201526b27b7363c9031b932b0ba37b960a11b6044820152606490fd5b346101e25760003660031901126101e2576109d4610cec565b600080546001600160a01b0319811682556001600160a01b03167f8be0079c531659141344cd1fd0a4f28419497f9722a3daafe3b4186f6b6457e08280a3005b346101e25760203660031901126101e2577f8c4d35e54a3f2ef1134138fd8ea3daee6a3c89e10d2665996babdf70261e2c766020600435610a53610cec565b80600455604051908152a1005b346101e25760603660031901126101e25760246001600160a01b03813581811691600435918390036101e257604435610a97610d44565b82600052602091600283526040600020906006820154163303610c145760020180548211610bd057814710610b8c57600080808085895af13d15610b87573d610adf81610c96565b90610aed6040519283610c5e565b81526000853d92013e5b15610b5157805490828203918211610b3c577f5e7ec629459bd8a1dd4e7b57a2b8f58a033bf40168315e2dddd2fe2c3c3640f09495965055604051908152a360018055005b86634e487b7160e01b60005260116004526000fd5b60405162461bcd60e51b815260048101849052600f818801526e151c985b9cd9995c8819985a5b1959608a1b6044820152606490fd5b610af7565b60405162461bcd60e51b815260048101849052601d818801527f496e73756666696369656e7420636f6e74726163742062616c616e63650000006044820152606490fd5b60405162461bcd60e51b815260048101849052601e818801527f52657761726420657863656564732070726f6772616d2062616c616e636500006044820152606490fd5b60405162461bcd60e51b815260048101849052600d818801526c2737ba103b30b634b230ba37b960991b6044820152606490fd5b608435906001600160a01b03821682036101e257565b90601f8019910116810190811067ffffffffffffffff821117610c8057604052565b634e487b7160e01b600052604160045260246000fd5b67ffffffffffffffff8111610c8057601f01601f191660200190565b90600182811c92168015610ce2575b6020831014610ccc57565b634e487b7160e01b600052602260045260246000fd5b91607f1691610cc1565b6000546001600160a01b03163303610d0057565b606460405162461bcd60e51b815260206004820152602060248201527f4f776e61626c653a2063616c6c6572206973206e6f7420746865206f776e65726044820152fd5b600260015414610d55576002600155565b60405162461bcd60e51b815260206004820152601f60248201527f5265656e7472616e637947756172643a207265656e7472616e742063616c6c006044820152606490fdfea2646970667358221220bce52aa52cadeb3920902a150044292661731ebf94e408eddc71a1283f12d3f164736f6c63430008140033",
  "linkReferences": {},
  "deployedLinkReferences": {}
}