{
  "_format": "hh-sol-artifact-1",
  "contractName": "LdEduProgram",
  "sourceName": "contract/LdEduProgram.sol",
  "abi": [
    {
      "inputs": [
        {
          "internalType": "address",
          "name": "initialOwner",
          "type": "address"
        }
      ],
      "stateMutability": "nonpayable",
      "type": "constructor"
    },
    {
      "anonymous": false,
      "inputs": [
        {
          "indexed": false,
          "internalType": "uint256",
          "name": "newFee",
          "type": "uint256"
        }
      ],
      "name": "FeeUpdated",
      "type": "event"
    },
    {
      "anonymous": false,
      "inputs": [
        {
          "indexed": true,
          "internalType": "uint256",
          "name": "id",
          "type": "uint256"
        },
        {
          "indexed": false,
          "internalType": "address",
          "name": "maker",
          "type": "address"
        },
        {
          "indexed": false,
          "internalType": "uint256",
          "name": "amount",
          "type": "uint256"
        }
      ],
      "name": "FundsReclaimed",
      "type": "event"
    },
    {
      "anonymous": false,
      "inputs": [
        {
          "indexed": true,
          "internalType": "uint256",
          "name": "id",
          "type": "uint256"
        },
        {
          "indexed": false,
          "internalType": "uint256",
          "name": "milestoneId",
          "type": "uint256"
        },
        {
          "indexed": false,
          "internalType": "uint256",
          "name": "reward",
          "type": "uint256"
        }
      ],
      "name": "MilestoneAccepted",
      "type": "event"
    },
    {
      "anonymous": false,
      "inputs": [
        {
          "indexed": true,
          "internalType": "uint256",
          "name": "id",
          "type": "uint256"
        },
        {
          "indexed": false,
          "internalType": "uint256",
          "name": "milestoneId",
          "type": "uint256"
        },
        {
          "indexed": false,
          "internalType": "string[]",
          "name": "links",
          "type": "string[]"
        }
      ],
      "name": "MilestoneSubmitted",
      "type": "event"
    },
    {
      "anonymous": false,
      "inputs": [
        {
          "indexed": true,
          "internalType": "address",
          "name": "previousOwner",
          "type": "address"
        },
        {
          "indexed": true,
          "internalType": "address",
          "name": "newOwner",
          "type": "address"
        }
      ],
      "name": "OwnershipTransferred",
      "type": "event"
    },
    {
      "anonymous": false,
      "inputs": [
        {
          "indexed": true,
          "internalType": "uint256",
          "name": "id",
          "type": "uint256"
        }
      ],
      "name": "ProgramApplied",
      "type": "event"
    },
    {
      "anonymous": false,
      "inputs": [
        {
          "indexed": true,
          "internalType": "uint256",
          "name": "programId",
          "type": "uint256"
        }
      ],
      "name": "ProgramApproved",
      "type": "event"
    },
    {
      "anonymous": false,
      "inputs": [
        {
          "indexed": true,
          "internalType": "uint256",
          "name": "id",
          "type": "uint256"
        },
        {
          "indexed": false,
          "internalType": "address",
          "name": "builder",
          "type": "address"
        },
        {
          "indexed": false,
          "internalType": "uint256",
          "name": "amount",
          "type": "uint256"
        }
      ],
      "name": "ProgramClaimed",
      "type": "event"
    },
    {
      "anonymous": false,
      "inputs": [
        {
          "indexed": true,
          "internalType": "uint256",
          "name": "id",
          "type": "uint256"
        },
        {
          "indexed": true,
          "internalType": "address",
          "name": "maker",
          "type": "address"
        },
        {
          "indexed": true,
          "internalType": "address",
          "name": "validator",
          "type": "address"
        },
        {
          "indexed": false,
          "internalType": "uint256",
          "name": "price",
          "type": "uint256"
        }
      ],
      "name": "ProgramCreated",
      "type": "event"
    },
    {
      "anonymous": false,
      "inputs": [
        {
          "indexed": false,
          "internalType": "uint256",
          "name": "programId",
          "type": "uint256"
        },
        {
          "indexed": false,
          "internalType": "uint256",
          "name": "price",
          "type": "uint256"
        },
        {
          "indexed": false,
          "internalType": "uint256",
          "name": "startTime",
          "type": "uint256"
        },
        {
          "indexed": false,
          "internalType": "uint256",
          "name": "endTime",
          "type": "uint256"
        },
        {
          "indexed": false,
          "internalType": "address",
          "name": "newValidator",
          "type": "address"
        }
      ],
      "name": "ProgramEdited",
      "type": "event"
    },
    {
      "anonymous": false,
      "inputs": [
        {
          "indexed": true,
          "internalType": "uint256",
          "name": "programId",
          "type": "uint256"
        },
        {
          "indexed": false,
          "internalType": "uint256",
          "name": "applicationId",
          "type": "uint256"
        },
        {
          "indexed": false,
          "internalType": "address",
          "name": "builder",
          "type": "address"
        }
      ],
      "name": "SelectedApplication",
      "type": "event"
    },
    {
      "inputs": [
        {
          "internalType": "uint256",
          "name": "programId",
          "type": "uint256"
        },
        {
          "internalType": "uint256",
          "name": "milestoneId",
          "type": "uint256"
        }
      ],
      "name": "acceptMilestone",
      "outputs": [],
      "stateMutability": "nonpayable",
      "type": "function"
    },
    {
      "inputs": [
        {
          "internalType": "uint256",
          "name": "programId",
          "type": "uint256"
        }
      ],
      "name": "approveProgram",
      "outputs": [],
      "stateMutability": "nonpayable",
      "type": "function"
    },
    {
      "inputs": [
        {
          "internalType": "string",
          "name": "_name",
          "type": "string"
        },
        {
          "internalType": "uint256",
          "name": "_price",
          "type": "uint256"
        },
        {
          "internalType": "string",
          "name": "_keywords",
          "type": "string"
        },
        {
          "internalType": "uint256",
          "name": "_startTime",
          "type": "uint256"
        },
        {
          "internalType": "uint256",
          "name": "_endTime",
          "type": "uint256"
        },
        {
          "internalType": "address",
          "name": "_validator",
          "type": "address"
        },
        {
          "internalType": "string",
          "name": "_summary",
          "type": "string"
        },
        {
          "internalType": "string",
          "name": "_description",
          "type": "string"
        },
        {
          "internalType": "string[]",
          "name": "_links",
          "type": "string[]"
        }
      ],
      "name": "createEduProgram",
      "outputs": [],
      "stateMutability": "payable",
      "type": "function"
    },
    {
      "inputs": [
        {
          "internalType": "uint256",
          "name": "",
          "type": "uint256"
        }
      ],
      "name": "eduPrograms",
      "outputs": [
        {
          "internalType": "uint256",
          "name": "id",
          "type": "uint256"
        },
        {
          "internalType": "string",
          "name": "name",
          "type": "string"
        },
        {
          "internalType": "string",
          "name": "keywords",
          "type": "string"
        },
        {
          "internalType": "uint256",
          "name": "price",
          "type": "uint256"
        },
        {
          "internalType": "uint256",
          "name": "startTime",
          "type": "uint256"
        },
        {
          "internalType": "uint256",
          "name": "endTime",
          "type": "uint256"
        },
        {
          "internalType": "string",
          "name": "summary",
          "type": "string"
        },
        {
          "internalType": "string",
          "name": "description",
          "type": "string"
        },
        {
          "internalType": "address",
          "name": "maker",
          "type": "address"
        },
        {
          "internalType": "address",
          "name": "validator",
          "type": "address"
        },
        {
          "internalType": "bool",
          "name": "approve",
          "type": "bool"
        },
        {
          "internalType": "bool",
          "name": "claimed",
          "type": "bool"
        },
        {
          "internalType": "address",
          "name": "builder",
          "type": "address"
        }
      ],
      "stateMutability": "view",
      "type": "function"
    },
    {
      "inputs": [],
      "name": "getFee",
      "outputs": [
        {
          "internalType": "uint256",
          "name": "",
          "type": "uint256"
        }
      ],
      "stateMutability": "view",
      "type": "function"
    },
    {
      "inputs": [
        {
          "internalType": "uint256",
          "name": "",
          "type": "uint256"
        }
      ],
      "name": "nextApplicationId",
      "outputs": [
        {
          "internalType": "uint256",
          "name": "",
          "type": "uint256"
        }
      ],
      "stateMutability": "view",
      "type": "function"
    },
    {
      "inputs": [
        {
          "internalType": "uint256",
          "name": "",
          "type": "uint256"
        }
      ],
      "name": "nextMilestoneId",
      "outputs": [
        {
          "internalType": "uint256",
          "name": "",
          "type": "uint256"
        }
      ],
      "stateMutability": "view",
      "type": "function"
    },
    {
      "inputs": [],
      "name": "nextProgramId",
      "outputs": [
        {
          "internalType": "uint256",
          "name": "",
          "type": "uint256"
        }
      ],
      "stateMutability": "view",
      "type": "function"
    },
    {
      "inputs": [],
      "name": "owner",
      "outputs": [
        {
          "internalType": "address",
          "name": "",
          "type": "address"
        }
      ],
      "stateMutability": "view",
      "type": "function"
    },
    {
      "inputs": [
        {
          "internalType": "uint256",
          "name": "",
          "type": "uint256"
        },
        {
          "internalType": "uint256",
          "name": "",
          "type": "uint256"
        }
      ],
      "name": "programApplications",
      "outputs": [
        {
          "internalType": "uint256",
          "name": "id",
          "type": "uint256"
        },
        {
          "internalType": "address",
          "name": "builder",
          "type": "address"
        },
        {
          "internalType": "enum LdEduProgram.ApplicationStatus",
          "name": "status",
          "type": "uint8"
        }
      ],
      "stateMutability": "view",
      "type": "function"
    },
    {
      "inputs": [
        {
          "internalType": "uint256",
          "name": "",
          "type": "uint256"
        },
        {
          "internalType": "uint256",
          "name": "",
          "type": "uint256"
        }
      ],
      "name": "programMilestones",
      "outputs": [
        {
          "internalType": "uint256",
          "name": "id",
          "type": "uint256"
        },
        {
          "internalType": "string",
          "name": "name",
          "type": "string"
        },
        {
          "internalType": "string",
          "name": "description",
          "type": "string"
        },
        {
          "internalType": "uint256",
          "name": "price",
          "type": "uint256"
        },
        {
          "internalType": "bool",
          "name": "submitted",
          "type": "bool"
        },
        {
          "internalType": "bool",
          "name": "approved",
          "type": "bool"
        },
        {
          "internalType": "bool",
          "name": "claimed",
          "type": "bool"
        }
      ],
      "stateMutability": "view",
      "type": "function"
    },
    {
      "inputs": [
        {
          "internalType": "uint256",
          "name": "programId",
          "type": "uint256"
        }
      ],
      "name": "reclaimFunds",
      "outputs": [],
      "stateMutability": "nonpayable",
      "type": "function"
    },
    {
      "inputs": [],
      "name": "renounceOwnership",
      "outputs": [],
      "stateMutability": "nonpayable",
      "type": "function"
    },
    {
      "inputs": [
        {
          "internalType": "uint256",
          "name": "programId",
          "type": "uint256"
        },
        {
          "internalType": "uint256",
          "name": "applicationId",
          "type": "uint256"
        },
        {
          "internalType": "bool",
          "name": "isSelected",
          "type": "bool"
        }
      ],
      "name": "selectApplication",
      "outputs": [],
      "stateMutability": "nonpayable",
      "type": "function"
    },
    {
      "inputs": [
        {
          "internalType": "uint256",
          "name": "",
          "type": "uint256"
        }
      ],
      "name": "selectedApplicationIndex",
      "outputs": [
        {
          "internalType": "uint256",
          "name": "",
          "type": "uint256"
        }
      ],
      "stateMutability": "view",
      "type": "function"
    },
    {
      "inputs": [
        {
          "internalType": "uint256",
          "name": "_fee",
          "type": "uint256"
        }
      ],
      "name": "setFee",
      "outputs": [],
      "stateMutability": "nonpayable",
      "type": "function"
    },
    {
      "inputs": [
        {
          "internalType": "uint256",
          "name": "programId",
          "type": "uint256"
        },
        {
          "internalType": "string[]",
          "name": "names",
          "type": "string[]"
        },
        {
          "internalType": "string[]",
          "name": "descriptions",
          "type": "string[]"
        },
        {
          "internalType": "uint256[]",
          "name": "prices",
          "type": "uint256[]"
        }
      ],
      "name": "submitApplication",
      "outputs": [],
      "stateMutability": "nonpayable",
      "type": "function"
    },
    {
      "inputs": [
        {
          "internalType": "uint256",
          "name": "programId",
          "type": "uint256"
        },
        {
          "internalType": "uint256",
          "name": "milestoneId",
          "type": "uint256"
        },
        {
          "internalType": "string[]",
          "name": "links",
          "type": "string[]"
        }
      ],
      "name": "submitMilestone",
      "outputs": [],
      "stateMutability": "nonpayable",
      "type": "function"
    },
    {
      "inputs": [
        {
          "internalType": "address",
          "name": "newOwner",
          "type": "address"
        }
      ],
      "name": "transferOwnership",
      "outputs": [],
      "stateMutability": "nonpayable",
      "type": "function"
    },
    {
      "inputs": [
        {
          "internalType": "uint256",
          "name": "programId",
          "type": "uint256"
        },
        {
          "internalType": "uint256",
          "name": "price",
          "type": "uint256"
        },
        {
          "internalType": "uint256",
          "name": "startTime",
          "type": "uint256"
        },
        {
          "internalType": "uint256",
          "name": "endTime",
          "type": "uint256"
        },
        {
          "internalType": "address",
          "name": "newValidator",
          "type": "address"
        }
      ],
      "name": "updateProgram",
      "outputs": [],
      "stateMutability": "nonpayable",
      "type": "function"
    }
  ],
  "bytecode": "0x6080346200007e57601f620029b038819003918201601f19168301916001600160401b0383118484101762000083578084926020946040528339810103126200007e57516001600160a01b03811681036200007e576200006e90620000643362000099565b6001805562000099565b6040516128cf9081620000e18239f35b600080fd5b634e487b7160e01b600052604160045260246000fd5b600080546001600160a01b039283166001600160a01b03198216811783559216907f8be0079c531659141344cd1fd0a4f28419497f9722a3daafe3b4186f6b6457e09080a356fe6080604052600436101561001257600080fd5b60003560e01c80634942ec0214611d7d57806369fe0e2d14611d31578063715018a614611cd85780637d5cae0314611c7257806383472f5b14611c4657806389001eb114611a995780638da5cb5b14611a70578063919af1da146112b857806393eb1026146110b75780639e57d58914610d82578063a112ed4e146107a9578063a1a572961461077d578063b0d456ac14610629578063ba71b3301461060b578063ced72f87146105ed578063d201593f1461053c578063d613fd241461041f578063f2fde38b14610359578063f6c782631461032d5763f9f161a8146100f857600080fd5b34610328576020806003193601126103285760043590610116612843565b8160005260028152604060002090600a82019182549060ff8260a01c166102c85760ff8260a81c1661028a57600581015442111561024557600981019360018060a01b039283865416948533036101f6575060ff60a81b1916600160a81b179055600301805490926000918291829182918282156101ed575bf1156101e1579154905460408051929093166001600160a01b0316825260208201527fd37c0b9c7560299a7c963d03165111d712663805228e5ffca03d540c5d6e410e91819081015b0390a260018055005b6040513d6000823e3d90fd5b506108fc61018f565b6084906040519062461bcd60e51b82526004820152602260248201527f596f7520646f6e27742068617665207265636c616d6174696f6e207269676874604482015261399760f11b6064820152fd5b60405162461bcd60e51b815260048101849052601d60248201527f5468652070726f6772616d206861736e277420656e646564207965742e0000006044820152606490fd5b60405162461bcd60e51b815260048101849052601660248201527520b63932b0b23c903a30b5b2b71031b0b9329037b31760511b6044820152606490fd5b60405162461bcd60e51b815260048101849052603260248201527f4974277320616c7265616479206265656e20617070726f76656420616e64206360448201527130b713ba103132903932b1b630b4b6b2b21760711b6064820152608490fd5b600080fd5b346103285760203660031901126103285760043560005260056020526020604060002054604051908152f35b34610328576020366003190112610328576004356001600160a01b03818116918290036103285761038861269c565b81156103cb57600054826001600160601b0360a01b821617600055167f8be0079c531659141344cd1fd0a4f28419497f9722a3daafe3b4186f6b6457e0600080a3005b60405162461bcd60e51b815260206004820152602660248201527f4f776e61626c653a206e6577206f776e657220697320746865207a65726f206160448201526564647265737360d01b6064820152608490fd5b34610328576020366003190112610328576004356000526002602052604060002080546001820161044f906125b6565b9161045c600282016125b6565b60038201546004830154600584015490939161047a600684016125b6565b610486600785016125b6565b91600160a01b6001900393846009870154169785600a88015497600b015416976040519b8c9b8c528b6101a06020819201528c016104c39161265c565b8b810360408d01526104d49161265c565b9260608b015260808a015260a089015287810360c08901526104f59161265c565b86810360e08801526105069161265c565b9361010086015281166101208501528060a01c60ff16151561014085015260a81c60ff1615156101608401526101808301520390f35b346103285761054a366123fb565b90600052600460205260406000209081548110156103285761056b91612411565b50805461057a600183016125b6565b9160ff610589600283016125b6565b6105c160046003850154940154916105b3604051978897885260e0602089015260e088019061265c565b90868203604088015261265c565b92606085015281811615156080850152818160081c16151560a085015260101c16151560c08301520390f35b34610328576000366003190112610328576020600954604051908152f35b34610328576000366003190112610328576020600854604051908152f35b34610328576020366003190112610328576004356000818152600260205260409020600a8101805490916001600160a01b038216330361072c576005015442116106e75760ff8160a01c166106ae5760ff60a01b1916600160a01b1790557f3ca3d218d64ea45c582c714d84dcdfd87f8d3cb3a3449fe533c2cb6d614ab766600080a2005b60405162461bcd60e51b815260206004820152601160248201527020b63932b0b23c9030b8383937bb32b21760791b6044820152606490fd5b60405162461bcd60e51b815260206004820152601e60248201527f5468652070726f6772616d2068617320616c726561647920656e6465642e00006044820152606490fd5b60405162461bcd60e51b8152602060048201526024808201527f596f7520646f6e2774206861766520617070726f76616c207065726d6973736960448201526337b7399760e11b6064820152608490fd5b346103285760203660031901126103285760043560005260066020526020604060002054604051908152f35b34610328576080366003190112610328576004356024356001600160401b038111610328576107dc90369060040161254c565b916044356001600160401b038111610328576107fc90369060040161254c565b93906064356001600160401b0381116103285761081d90369060040161254c565b92909184600052600260205260406000206005810154421015610d4d5787831480610d44575b15610d0e5760009060005b868110610cd857506003015403610c945784600052600660205260406000209687549761087a896127e0565b90556040519660c08801908882106001600160401b03831117610a98576108be946108b2926040528a8a523360208b015236916124dd565b604088015236916124dd565b60608501526108cc826124c6565b916108da6040519384612443565b808352602083019060051b82019136831161032857905b828210610c84575050506080830152600060a0830152600052600360205260406000208054600160401b811015610a985761093191600182018155612411565b610c6e57815181556001810160018060a01b036020840151166001600160601b0360a01b82541617905560028101604083015160208151916109738385612750565b01916000526020600020916000905b828210610b91575050505060038101606083015160208151916109a58385612750565b01916000526020600020916000905b828210610aae5750505050600481016080830151908151916001600160401b038311610a9857600160401b8311610a98576020908254848455808510610a7b575b500190600052602060002060005b838110610a6757868660a0600588019101516003811015610a515760ff801983541691161790557f722325134a63ac150749cede63bb76d659fc9e4d78e10764480c6c79d283dc4f600080a2005b634e487b7160e01b600052602160045260246000fd5b600190602084519401938184015501610a03565b610a929084600052858460002091820191016126f4565b876109f5565b634e487b7160e01b600052604160045260246000fd5b80518051906001600160401b038211610a9857610ad582610acf885461257c565b8861270b565b602090601f8311600114610b21579282600194936020938695600092610b16575b5050600019600383901b1c191690841b1787555b019401910190926109b4565b015190508c80610af6565b908660005260206000209160005b601f1985168110610b79575083602093600196938796938794601f19811610610b60575b505050811b018755610b0a565b015160001960f88460031b161c191690558c8080610b53565b91926020600181928685015181550194019201610b2f565b80518051906001600160401b038211610a9857610bb282610acf885461257c565b602090601f8311600114610bfe579282600194936020938695600092610bf3575b5050600019600383901b1c191690841b1787555b01940191019092610982565b015190508c80610bd3565b908660005260206000209160005b601f1985168110610c56575083602093600196938796938794601f19811610610c3d575b505050811b018755610be7565b015160001960f88460031b161c191690558c8080610c30565b91926020600181928685015181550194019201610c0c565b634e487b7160e01b600052600060045260246000fd5b81358152602091820191016108f1565b606460405162461bcd60e51b815260206004820152602060248201527f4d696c6573746f6e6520746f74616c20213d2070726f6772616d2070726963656044820152fd5b918260051b8601358101809111610cf857610cf390926127e0565b61084e565b634e487b7160e01b600052601160045260246000fd5b60405162461bcd60e51b815260206004820152600e60248201526d092dce0eae840dad2e6dac2e8c6d60931b6044820152606490fd5b50848314610843565b60405162461bcd60e51b815260206004820152600d60248201526c141c9bd9dc985b48195b991959609a1b6044820152606490fd5b34610328576060366003190112610328576004356024356001600160401b0360443581811161032857610db990369060040161254c565b84600052602060028152604060002060ff600a82015460a01c161561108357600b01546001600160a01b03163303611048578560005260048152610e01856040600020612411565b5092600484019384549460ff861661100f57906005916001979695949397809660ff191617905501610e338382612750565b600090815281812090865b848210610f0d5750505081604051966040880190885260408389015252606086019460608360051b8801019581956000925b858410610ea0578a7fbaa1ee362891351add36bb95f60ba8e4031d4c60ece483917c0dc053d7b2c3d78b8b038ca2005b9091929394959697605f198a82030184528835601e198336030181121561032857820186810191903584811161032857803603831361032857878282808d96849695859652848401376000828201840152601f01601f191601019a01989796959190910193019190610e70565b8097939495969735601e1985360301811215610328578401908135898111610328578036038784011361032857889181610f528993610f4c895461257c565b8961270b565b6000601f8211600114610fa0578382918697600093610f93575b505050600019600383901b1c191690841b1786555b01930191019091969594939296610e3e565b0101359050833880610f6c565b94601f1982169588600052846000209660005b818110610ff4575091858798928589969510610fd8575b50505050811b018655610f81565b60001960f88660031b161c19920101351690558f808581610fca565b838301870135895596909701968d968c969283019201610fb3565b60405162461bcd60e51b8152600481018590526011602482015270105b1c9958591e481cdd589b5a5d1d1959607a1b6044820152606490fd5b6064906040519062461bcd60e51b8252600482015260146024820152732737ba1039b2b632b1ba32b210313ab4b63232b960611b6044820152fd5b60405162461bcd60e51b815260048101839052600c60248201526b139bdd08185c1c1c9bdd995960a21b6044820152606490fd5b34610328576110c5366123fb565b906110ce612843565b80600052602060028152604060002060018060a01b03906110f682600a8301541633146127ef565b836000526004835261110c856040600020612411565b509060048201805460ff8116156112835760ff8160081c161580611275575b1561123e579062010100600b939262ffff001916179055019060008080806003878754169501948554905af13d15611239573d61116781612464565b906111756040519283612443565b81526000863d92013e5b156111fe57937f27d841e82fb3b2469e89e27c70f2ec8597324e08569a13460e4dd8a1a3c0b10c604082977f7099040ff4abf6b015bd1004cbf11ec796c3d4abcaec3514db1c93599297d39f975480978351928352820152a25460408051929091166001600160a01b03168252602082019290925290819081016101d8565b60405162461bcd60e51b8152600481018590526013602482015272115512081d1c985b9cd9995c8819985a5b1959606a1b6044820152606490fd5b61117f565b60405162461bcd60e51b815260048101879052600f60248201526e105b1c9958591e481a185b991b1959608a1b6044820152606490fd5b5060ff8160101c161561112b565b60405162461bcd60e51b815260048101879052600d60248201526c139bdd081cdd589b5a5d1d1959609a1b6044820152606490fd5b610120366003190112610328576004356001600160401b038111610328576112e490369060040161247f565b6044356001600160401b0381116103285761130390369060040161247f565b9060a435906001600160a01b03821682036103285760c4356001600160401b0381116103285761133790369060040161247f565b60e4356001600160401b0381116103285761135690369060040161247f565b610104356001600160401b0381116103285736602382011215610328576113879036906024816004013591016124dd565b916024353403611a155760843560643510156119b6576008549560405194856101c08101106001600160401b036101c088011117610a98576101c08601604052878652602086015260408501526024356060850152606435608085015260843560a085015260c084015260e08301526101008201523361012082015260018060a01b0382166101408201526000610160820152600061018082015260006101a082015282600052600260205260406000208151815560208201518051906001600160401b038211610a9857819061146e82611465600187015461257c565b6001870161270b565b602090601f831160011461194457600092611939575b50508160011b916000199060031b1c19161760018201555b60408201518051906001600160401b038211610a985781906114ce826114c5600287015461257c565b6002870161270b565b602090601f83116001146118c7576000926118bc575b50508160011b916000199060031b1c19161760028201555b606082015160038201556080820151600482015560a0820151600582015560c08201518051906001600160401b038211610a9857819061154c82611543600687015461257c565b6006870161270b565b602090601f831160011461184a5760009261183f575b50508160011b916000199060031b1c19161760068201555b60e08201518051906001600160401b038211610a985781906115ac826115a3600787015461257c565b6007870161270b565b602090601f83116001146117cd576000926117c2575b50508160011b916000199060031b1c19161760078201555b6008810161010083015160208151916115f38385612750565b01916000526020600020916000905b8282106116e557505050506101208201516009820180546001600160a01b03199081166001600160a01b0393841617909155610140840151600a840180546101608701516101808801516001600160b01b03199092169386169390931792151560a01b60ff60a01b169290921791151560a81b60ff60a81b169190911790556101a090930151600b92909201805490931691161790556008546116a4906127e0565b60085560405160243581526001600160a01b039091169133917f808c887919683a350ed55b3499f97ed7f4093ecc5e131fadb8b075a85457af3a90602090a4005b80518051906001600160401b038211610a985761170682610acf885461257c565b602090601f8311600114611752579282600194936020938695600092611747575b5050600019600383901b1c191690841b1787555b01940191019092611602565b015190508d80611727565b908660005260206000209160005b601f19851681106117aa575083602093600196938796938794601f19811610611791575b505050811b01875561173b565b015160001960f88460031b161c191690558d8080611784565b91926020600181928685015181550194019201611760565b0151905086806115c2565b9250600784016000526020600020906000935b601f1984168510611824576001945083601f1981161061180b575b505050811b0160078201556115da565b015160001960f88460031b161c191690558680806117fb565b818101518355602094850194600190930192909101906117e0565b015190508680611562565b9250600684016000526020600020906000935b601f19841685106118a1576001945083601f19811610611888575b505050811b01600682015561157a565b015160001960f88460031b161c19169055868080611878565b8181015183556020948501946001909301929091019061185d565b0151905086806114e4565b9250600284016000526020600020906000935b601f198416851061191e576001945083601f19811610611905575b505050811b0160028201556114fc565b015160001960f88460031b161c191690558680806118f5565b818101518355602094850194600190930192909101906118da565b015190508680611484565b9250600184016000526020600020906000935b601f198416851061199b576001945083601f19811610611982575b505050811b01600182015561149c565b015160001960f88460031b161c19169055868080611972565b81810151835560209485019460019093019290910190611957565b60405162461bcd60e51b815260206004820152603160248201527f5468652053746172742074696d65206d757374206265206561726c69657220746044820152703430b7103a34329032b732103a34b6b29760791b6064820152608490fd5b60405162461bcd60e51b815260206004820152602d60248201527f546865204554482073656e7420646f6573206e6f74206d61746368207468652060448201526c70726f6772616d20707269636560981b6064820152608490fd5b34610328576000366003190112610328576000546040516001600160a01b039091168152602090f35b346103285760a0366003190112610328576024356001600160a01b03600435608435828116906064359060443590839003610328578360005260026020526040600020946009860154163303611bf55781811015611ba4578515611b5f5785600a867fe3d59d03839a10c8a5a85dd0d7e5a4ac45445821c5176529d2745adf6915a16198600360a099015583600482015584600582015501846001600160601b03881b8254161790556040519485526020850152604084015260608301526080820152a1005b60405162461bcd60e51b815260206004820152601760248201527f5072696365206d75737420626520706f7369746976652e0000000000000000006044820152606490fd5b60405162461bcd60e51b815260206004820152602360248201527f53746172742074696d65206d757374206265206265666f726520656e6420746960448201526236b29760e91b6064820152608490fd5b60405162461bcd60e51b815260206004820152602360248201527f4f6e6c792063726561746f72732063616e2065646974207468652070726f677260448201526230b69760e91b6064820152608490fd5b346103285760203660031901126103285760043560005260076020526020604060002054604051908152f35b3461032857611c80366123fb565b906000526003602052604060002090815481101561032857611ca191612411565b50805460ff600560018060a01b03600185015416930154169160405191825260208201526003821015610a51576060916040820152f35b3461032857600036600319011261032857611cf161269c565b600080546001600160a01b0319811682556001600160a01b03167f8be0079c531659141344cd1fd0a4f28419497f9722a3daafe3b4186f6b6457e08280a3005b34610328576020366003190112610328577f8c4d35e54a3f2ef1134138fd8ea3daee6a3c89e10d2665996babdf70261e2c766020600435611d7061269c565b80600955604051908152a1005b34610328576060366003190112610328576044351515604435036103285760043560005260026020526040600020611dc260018060a01b03600a8301541633146127ef565b6004356000526003602052604060002060009060005b81548110156123f257611deb8183612411565b505460243514611e0357611dfe906127e0565b611dd8565b809250611e0f91612411565b5091600583015460ff81166003811015610a51576123b957604435156123a45750600b8101546001600160a01b031661236c576005838101805460ff191660021790556001840154600b830180546001600160a01b0319166001600160a01b0392909216919091179055600a909101805460ff60a01b1916600160a01b179055600435600090815260209190915260408120919091555b60028201548110156122de5760043560005260076020526040600020805490611ece826127e0565b905560043560005260046020526040600020611eed836002860161282b565b50611efb846003870161282b565b5090611f0a856004880161282b565b90549060031b1c90604051928360208101106001600160401b03602086011117610a9857602084016040526000845260405195866101008101106001600160401b0361010089011117610a9857611f7892611f6e91610100890160405288526125b6565b60208701526125b6565b6040850152606084015260006080840152600060a0840152600060c084015260e08301528054600160401b811015610a9857611fb991600182018155612411565b610c6e578151815560208201518051906001600160401b038211610a98578190611fea82611465600187015461257c565b602090601f831160011461226c57600092612261575b50508160011b916000199060031b1c19161760018201555b60408201518051906001600160401b038211610a98576120488261203f600286015461257c565b6002860161270b565b602090601f83116001146121ec57918060e094926005946000926121e1575b50508160011b916000199060031b1c19161760028201555b606084015160038201556004810160808501511515815461ff0060a0880151151560081b169060ff62ff000060c08a0151151560101b1693169062ffffff191617171790550191015160208151916120d78385612750565b019160005260206000206000925b8284106120fe57505050506120f9906127e0565b611ea6565b80518051906001600160401b038211610a98576121258261211f865461257c565b8661270b565b602090601f8311600114612171579282600194936020938695600092612166575b5050600019600383901b1c191690841b1785555b019201930192906120e5565b015190508b80612146565b908460005260206000209160005b601f19851681106121c9575083602093600196938796938794601f198116106121b0575b505050811b01855561215a565b015160001960f88460031b161c191690558b80806121a3565b9192602060018192868501518155019401920161217f565b015190508880612067565b906002840160005260206000209160005b601f198516811061224957509260e0949260019260059583601f19811610612230575b505050811b01600282015561207f565b015160001960f88460031b161c19169055888080612220565b919260206001819286850151815501940192016121fd565b015190508680612000565b9250600184016000526020600020906000935b601f19841685106122c3576001945083601f198116106122aa575b505050811b016001820155612018565b015160001960f88460031b161c1916905586808061229a565b8181015183556020948501946001909301929091019061227f565b50600101546040805160243581526001600160a01b039092166020830152600435917f673e1c13e88cae277c1b4adfc9da511c2f5672dbb51fbc06510cb0188be365d09190a25b60015b1561232f57005b60405162461bcd60e51b8152602060048201526015602482015274141c9bdc1bdcd85b081251081b9bdd08199bdd5b99605a1b6044820152606490fd5b60405162461bcd60e51b815260206004820152601060248201526f105b1c9958591e481cd95b1958dd195960821b6044820152606490fd5b600592506001915060ff191617910155612325565b60405162461bcd60e51b8152602060048201526011602482015270105b1c9958591e48195d985b1d585d1959607a1b6044820152606490fd5b50509050612328565b6040906003190112610328576004359060243590565b805482101561242d576000526006602060002091020190600090565b634e487b7160e01b600052603260045260246000fd5b90601f801991011681019081106001600160401b03821117610a9857604052565b6001600160401b038111610a9857601f01601f191660200190565b81601f820112156103285780359061249682612464565b926124a46040519485612443565b8284526020838301011161032857816000926020809301838601378301015290565b6001600160401b038111610a985760051b60200190565b929190926124ea846124c6565b916124f86040519384612443565b829480845260208094019060051b8301928284116103285780915b84831061252257505050505050565b82356001600160401b038111610328578691612541868493860161247f565b815201920191612513565b9181601f84011215610328578235916001600160401b038311610328576020808501948460051b01011161032857565b90600182811c921680156125ac575b602083101461259657565b634e487b7160e01b600052602260045260246000fd5b91607f169161258b565b90604051918260008254926125ca8461257c565b90818452600194858116908160001461263957506001146125f6575b50506125f492500383612443565b565b9093915060005260209081600020936000915b8183106126215750506125f4935082010138806125e6565b85548884018501529485019487945091830191612609565b9150506125f494506020925060ff191682840152151560051b82010138806125e6565b919082519283825260005b848110612688575050826000602080949584010152601f8019910116010190565b602081830181015184830182015201612667565b6000546001600160a01b031633036126b057565b606460405162461bcd60e51b815260206004820152602060248201527f4f776e61626c653a2063616c6c6572206973206e6f7420746865206f776e65726044820152fd5b8181106126ff575050565b600081556001016126f4565b9190601f811161271a57505050565b6125f4926000526020600020906020601f840160051c83019310612746575b601f0160051c01906126f4565b9091508190612739565b600160401b8211610a985780549180825582811061276d57505050565b600091825260209081832093840193015b83811061278b5750505050565b80836127996001935461257c565b806127a7575b50500161277e565b601f80821185146127be57505081555b833861279f565b6127d790848452868420920160051c82018583016126f4565b818355556127b7565b6000198114610cf85760010190565b156127f657565b60405162461bcd60e51b815260206004820152600d60248201526c2737ba103b30b634b230ba37b960991b6044820152606490fd5b805482101561242d5760005260206000200190600090565b600260015414612854576002600155565b60405162461bcd60e51b815260206004820152601f60248201527f5265656e7472616e637947756172643a207265656e7472616e742063616c6c006044820152606490fdfea26469706673582212207016d691d410babb3a1b716651f0469108773fabced7d6e283dedaeb6f6f660464736f6c63430008140033",
  "linkReferences": {},
  "deployedLinkReferences": {}
}