{
    "_format": "hh-sol-artifact-1",
    "contractName": "LdEduProgram",
    "sourceName": "contracts/LdEduProgram.sol",
    "abi": [
        {
            "inputs": [
                {
                    "internalType": "address",
                    "name": "initialOwner",
                    "type": "address"
                }
            ],
            "stateMutability": "nonpayable",
            "type": "constructor"
        },
        {
            "anonymous": false,
            "inputs": [
                {
                    "indexed": false,
                    "internalType": "uint256",
                    "name": "newFee",
                    "type": "uint256"
                }
            ],
            "name": "FeeUpdated",
            "type": "event"
        },
        {
            "anonymous": false,
            "inputs": [
                {
                    "indexed": true,
                    "internalType": "uint256",
                    "name": "id",
                    "type": "uint256"
                },
                {
                    "indexed": false,
                    "internalType": "address",
                    "name": "maker",
                    "type": "address"
                },
                {
                    "indexed": false,
                    "internalType": "uint256",
                    "name": "amount",
                    "type": "uint256"
                }
            ],
            "name": "FundsReclaimed",
            "type": "event"
        },
        {
            "anonymous": false,
            "inputs": [
                {
                    "indexed": true,
                    "internalType": "uint256",
                    "name": "id",
                    "type": "uint256"
                },
                {
                    "indexed": false,
                    "internalType": "uint256",
                    "name": "milestoneId",
                    "type": "uint256"
                },
                {
                    "indexed": false,
                    "internalType": "uint256",
                    "name": "reward",
                    "type": "uint256"
                }
            ],
            "name": "MilestoneAccepted",
            "type": "event"
        },
        {
            "anonymous": false,
            "inputs": [
                {
                    "indexed": true,
                    "internalType": "uint256",
                    "name": "id",
                    "type": "uint256"
                },
                {
                    "indexed": false,
                    "internalType": "uint256",
                    "name": "milestoneId",
                    "type": "uint256"
                }
            ],
            "name": "MilestoneRejected",
            "type": "event"
        },
        {
            "anonymous": false,
            "inputs": [
                {
                    "indexed": true,
                    "internalType": "uint256",
                    "name": "id",
                    "type": "uint256"
                },
                {
                    "indexed": false,
                    "internalType": "uint256",
                    "name": "milestoneId",
                    "type": "uint256"
                },
                {
                    "indexed": false,
                    "internalType": "string[]",
                    "name": "links",
                    "type": "string[]"
                }
            ],
            "name": "MilestoneSubmitted",
            "type": "event"
        },
        {
            "anonymous": false,
            "inputs": [
                {
                    "indexed": true,
                    "internalType": "address",
                    "name": "previousOwner",
                    "type": "address"
                },
                {
                    "indexed": true,
                    "internalType": "address",
                    "name": "newOwner",
                    "type": "address"
                }
            ],
            "name": "OwnershipTransferred",
            "type": "event"
        },
        {
            "anonymous": false,
            "inputs": [
                {
                    "indexed": true,
                    "internalType": "uint256",
                    "name": "id",
                    "type": "uint256"
                }
            ],
            "name": "ProgramApplied",
            "type": "event"
        },
        {
            "anonymous": false,
            "inputs": [
                {
                    "indexed": true,
                    "internalType": "uint256",
                    "name": "programId",
                    "type": "uint256"
                }
            ],
            "name": "ProgramApproved",
            "type": "event"
        },
        {
            "anonymous": false,
            "inputs": [
                {
                    "indexed": true,
                    "internalType": "uint256",
                    "name": "id",
                    "type": "uint256"
                },
                {
                    "indexed": false,
                    "internalType": "address",
                    "name": "builder",
                    "type": "address"
                },
                {
                    "indexed": false,
                    "internalType": "uint256",
                    "name": "amount",
                    "type": "uint256"
                }
            ],
            "name": "ProgramClaimed",
            "type": "event"
        },
        {
            "anonymous": false,
            "inputs": [
                {
                    "indexed": true,
                    "internalType": "uint256",
                    "name": "id",
                    "type": "uint256"
                },
                {
                    "indexed": true,
                    "internalType": "address",
                    "name": "maker",
                    "type": "address"
                },
                {
                    "indexed": true,
                    "internalType": "address",
                    "name": "validator",
                    "type": "address"
                },
                {
                    "indexed": false,
                    "internalType": "uint256",
                    "name": "price",
                    "type": "uint256"
                }
            ],
            "name": "ProgramCreated",
            "type": "event"
        },
        {
            "anonymous": false,
            "inputs": [
                {
                    "indexed": false,
                    "internalType": "uint256",
                    "name": "programId",
                    "type": "uint256"
                },
                {
                    "indexed": false,
                    "internalType": "uint256",
                    "name": "price",
                    "type": "uint256"
                },
                {
                    "indexed": false,
                    "internalType": "uint256",
                    "name": "startTime",
                    "type": "uint256"
                },
                {
                    "indexed": false,
                    "internalType": "uint256",
                    "name": "endTime",
                    "type": "uint256"
                },
                {
                    "indexed": false,
                    "internalType": "address",
                    "name": "newValidator",
                    "type": "address"
                }
            ],
            "name": "ProgramEdited",
            "type": "event"
        },
        {
            "anonymous": false,
            "inputs": [
                {
                    "indexed": true,
                    "internalType": "uint256",
                    "name": "programId",
                    "type": "uint256"
                },
                {
                    "indexed": false,
                    "internalType": "uint256",
                    "name": "applicationId",
                    "type": "uint256"
                },
                {
                    "indexed": false,
                    "internalType": "address",
                    "name": "builder",
                    "type": "address"
                }
            ],
            "name": "SelectedApplication",
            "type": "event"
        },
        {
            "inputs": [
                {
                    "internalType": "uint256",
                    "name": "programId",
                    "type": "uint256"
                },
                {
                    "internalType": "uint256",
                    "name": "milestoneId",
                    "type": "uint256"
                }
            ],
            "name": "acceptMilestone",
            "outputs": [],
            "stateMutability": "nonpayable",
            "type": "function"
        },
        {
            "inputs": [
                {
                    "internalType": "uint256",
                    "name": "programId",
                    "type": "uint256"
                }
            ],
            "name": "approveProgram",
            "outputs": [],
            "stateMutability": "nonpayable",
            "type": "function"
        },
        {
            "inputs": [
                {
                    "internalType": "string",
                    "name": "_name",
                    "type": "string"
                },
                {
                    "internalType": "uint256",
                    "name": "_price",
                    "type": "uint256"
                },
                {
                    "internalType": "string",
                    "name": "_keywords",
                    "type": "string"
                },
                {
                    "internalType": "uint256",
                    "name": "_startTime",
                    "type": "uint256"
                },
                {
                    "internalType": "uint256",
                    "name": "_endTime",
                    "type": "uint256"
                },
                {
                    "internalType": "address",
                    "name": "_validator",
                    "type": "address"
                },
                {
                    "internalType": "string",
                    "name": "_summary",
                    "type": "string"
                },
                {
                    "internalType": "string",
                    "name": "_description",
                    "type": "string"
                },
                {
                    "internalType": "string[]",
                    "name": "_links",
                    "type": "string[]"
                }
            ],
            "name": "createEduProgram",
            "outputs": [],
            "stateMutability": "payable",
            "type": "function"
        },
        {
            "inputs": [
                {
                    "internalType": "uint256",
                    "name": "",
                    "type": "uint256"
                }
            ],
            "name": "eduPrograms",
            "outputs": [
                {
                    "internalType": "uint256",
                    "name": "id",
                    "type": "uint256"
                },
                {
                    "internalType": "string",
                    "name": "name",
                    "type": "string"
                },
                {
                    "internalType": "string",
                    "name": "keywords",
                    "type": "string"
                },
                {
                    "internalType": "uint256",
                    "name": "price",
                    "type": "uint256"
                },
                {
                    "internalType": "uint256",
                    "name": "startTime",
                    "type": "uint256"
                },
                {
                    "internalType": "uint256",
                    "name": "endTime",
                    "type": "uint256"
                },
                {
                    "internalType": "string",
                    "name": "summary",
                    "type": "string"
                },
                {
                    "internalType": "string",
                    "name": "description",
                    "type": "string"
                },
                {
                    "internalType": "address",
                    "name": "maker",
                    "type": "address"
                },
                {
                    "internalType": "address",
                    "name": "validator",
                    "type": "address"
                },
                {
                    "internalType": "bool",
                    "name": "approve",
                    "type": "bool"
                },
                {
                    "internalType": "bool",
                    "name": "claimed",
                    "type": "bool"
                },
                {
                    "internalType": "address",
                    "name": "builder",
                    "type": "address"
                }
            ],
            "stateMutability": "view",
            "type": "function"
        },
        {
            "inputs": [],
            "name": "getFee",
            "outputs": [
                {
                    "internalType": "uint256",
                    "name": "",
                    "type": "uint256"
                }
            ],
            "stateMutability": "view",
            "type": "function"
        },
        {
            "inputs": [
                {
                    "internalType": "uint256",
                    "name": "programId",
                    "type": "uint256"
                }
            ],
            "name": "getMilestones",
            "outputs": [
                {
                    "components": [
                        {
                            "internalType": "uint256",
                            "name": "id",
                            "type": "uint256"
                        },
                        {
                            "internalType": "string",
                            "name": "name",
                            "type": "string"
                        },
                        {
                            "internalType": "string",
                            "name": "description",
                            "type": "string"
                        },
                        {
                            "internalType": "uint256",
                            "name": "price",
                            "type": "uint256"
                        },
                        {
                            "internalType": "enum LdEduProgram.MilestoneStatus",
                            "name": "status",
                            "type": "uint8"
                        },
                        {
                            "internalType": "string[]",
                            "name": "links",
                            "type": "string[]"
                        }
                    ],
                    "internalType": "struct LdEduProgram.Milestone[]",
                    "name": "",
                    "type": "tuple[]"
                }
            ],
            "stateMutability": "view",
            "type": "function"
        },
        {
            "inputs": [
                {
                    "internalType": "uint256",
                    "name": "",
                    "type": "uint256"
                },
                {
                    "internalType": "uint256",
                    "name": "",
                    "type": "uint256"
                }
            ],
            "name": "milestoneIds",
            "outputs": [
                {
                    "internalType": "uint256",
                    "name": "",
                    "type": "uint256"
                }
            ],
            "stateMutability": "view",
            "type": "function"
        },
        {
            "inputs": [
                {
                    "internalType": "uint256",
                    "name": "",
                    "type": "uint256"
                }
            ],
            "name": "nextApplicationId",
            "outputs": [
                {
                    "internalType": "uint256",
                    "name": "",
                    "type": "uint256"
                }
            ],
            "stateMutability": "view",
            "type": "function"
        },
        {
            "inputs": [
                {
                    "internalType": "uint256",
                    "name": "",
                    "type": "uint256"
                }
            ],
            "name": "nextMilestoneId",
            "outputs": [
                {
                    "internalType": "uint256",
                    "name": "",
                    "type": "uint256"
                }
            ],
            "stateMutability": "view",
            "type": "function"
        },
        {
            "inputs": [],
            "name": "nextProgramId",
            "outputs": [
                {
                    "internalType": "uint256",
                    "name": "",
                    "type": "uint256"
                }
            ],
            "stateMutability": "view",
            "type": "function"
        },
        {
            "inputs": [],
            "name": "owner",
            "outputs": [
                {
                    "internalType": "address",
                    "name": "",
                    "type": "address"
                }
            ],
            "stateMutability": "view",
            "type": "function"
        },
        {
            "inputs": [
                {
                    "internalType": "uint256",
                    "name": "",
                    "type": "uint256"
                },
                {
                    "internalType": "uint256",
                    "name": "",
                    "type": "uint256"
                }
            ],
            "name": "programApplications",
            "outputs": [
                {
                    "internalType": "uint256",
                    "name": "id",
                    "type": "uint256"
                },
                {
                    "internalType": "address",
                    "name": "builder",
                    "type": "address"
                },
                {
                    "internalType": "enum LdEduProgram.ApplicationStatus",
                    "name": "status",
                    "type": "uint8"
                }
            ],
            "stateMutability": "view",
            "type": "function"
        },
        {
            "inputs": [
                {
                    "internalType": "uint256",
                    "name": "",
                    "type": "uint256"
                },
                {
                    "internalType": "uint256",
                    "name": "",
                    "type": "uint256"
                }
            ],
            "name": "programMilestones",
            "outputs": [
                {
                    "internalType": "uint256",
                    "name": "id",
                    "type": "uint256"
                },
                {
                    "internalType": "string",
                    "name": "name",
                    "type": "string"
                },
                {
                    "internalType": "string",
                    "name": "description",
                    "type": "string"
                },
                {
                    "internalType": "uint256",
                    "name": "price",
                    "type": "uint256"
                },
                {
                    "internalType": "enum LdEduProgram.MilestoneStatus",
                    "name": "status",
                    "type": "uint8"
                }
            ],
            "stateMutability": "view",
            "type": "function"
        },
        {
            "inputs": [
                {
                    "internalType": "uint256",
                    "name": "programId",
                    "type": "uint256"
                }
            ],
            "name": "reclaimFunds",
            "outputs": [],
            "stateMutability": "nonpayable",
            "type": "function"
        },
        {
            "inputs": [
                {
                    "internalType": "uint256",
                    "name": "programId",
                    "type": "uint256"
                },
                {
                    "internalType": "uint256",
                    "name": "milestoneId",
                    "type": "uint256"
                }
            ],
            "name": "rejectMilestone",
            "outputs": [],
            "stateMutability": "nonpayable",
            "type": "function"
        },
        {
            "inputs": [],
            "name": "renounceOwnership",
            "outputs": [],
            "stateMutability": "nonpayable",
            "type": "function"
        },
        {
            "inputs": [
                {
                    "internalType": "uint256",
                    "name": "programId",
                    "type": "uint256"
                },
                {
                    "internalType": "uint256",
                    "name": "applicationId",
                    "type": "uint256"
                },
                {
                    "internalType": "bool",
                    "name": "isSelected",
                    "type": "bool"
                }
            ],
            "name": "selectApplication",
            "outputs": [],
            "stateMutability": "nonpayable",
            "type": "function"
        },
        {
            "inputs": [
                {
                    "internalType": "uint256",
                    "name": "",
                    "type": "uint256"
                }
            ],
            "name": "selectedApplicationIndex",
            "outputs": [
                {
                    "internalType": "uint256",
                    "name": "",
                    "type": "uint256"
                }
            ],
            "stateMutability": "view",
            "type": "function"
        },
        {
            "inputs": [
                {
                    "internalType": "uint256",
                    "name": "_fee",
                    "type": "uint256"
                }
            ],
            "name": "setFee",
            "outputs": [],
            "stateMutability": "nonpayable",
            "type": "function"
        },
        {
            "inputs": [
                {
                    "internalType": "uint256",
                    "name": "programId",
                    "type": "uint256"
                },
                {
                    "internalType": "string[]",
                    "name": "names",
                    "type": "string[]"
                },
                {
                    "internalType": "string[]",
                    "name": "descriptions",
                    "type": "string[]"
                },
                {
                    "internalType": "uint256[]",
                    "name": "prices",
                    "type": "uint256[]"
                }
            ],
            "name": "submitApplication",
            "outputs": [],
            "stateMutability": "nonpayable",
            "type": "function"
        },
        {
            "inputs": [
                {
                    "internalType": "uint256",
                    "name": "programId",
                    "type": "uint256"
                },
                {
                    "internalType": "uint256",
                    "name": "milestoneId",
                    "type": "uint256"
                },
                {
                    "internalType": "string[]",
                    "name": "links",
                    "type": "string[]"
                }
            ],
            "name": "submitMilestone",
            "outputs": [],
            "stateMutability": "nonpayable",
            "type": "function"
        },
        {
            "inputs": [
                {
                    "internalType": "address",
                    "name": "newOwner",
                    "type": "address"
                }
            ],
            "name": "transferOwnership",
            "outputs": [],
            "stateMutability": "nonpayable",
            "type": "function"
        },
        {
            "inputs": [
                {
                    "internalType": "uint256",
                    "name": "programId",
                    "type": "uint256"
                },
                {
                    "internalType": "uint256",
                    "name": "price",
                    "type": "uint256"
                },
                {
                    "internalType": "uint256",
                    "name": "startTime",
                    "type": "uint256"
                },
                {
                    "internalType": "uint256",
                    "name": "endTime",
                    "type": "uint256"
                },
                {
                    "internalType": "address",
                    "name": "newValidator",
                    "type": "address"
                }
            ],
            "name": "updateProgram",
            "outputs": [],
            "stateMutability": "nonpayable",
            "type": "function"
        }
    ],
    "bytecode": "0x6080346200007e57601f62002c0838819003918201601f19168301916001600160401b0383118484101762000083578084926020946040528339810103126200007e57516001600160a01b03811681036200007e576200006e90620000643362000099565b6001805562000099565b604051612b279081620000e18239f35b600080fd5b634e487b7160e01b600052604160045260246000fd5b600080546001600160a01b039283166001600160a01b03198216811783559216907f8be0079c531659141344cd1fd0a4f28419497f9722a3daafe3b4186f6b6457e09080a356fe6080604052600436101561001257600080fd5b60003560e01c80633abe6bd7146124bc57806342c549c0146121cf5780634942ec0214611b79578063544aabd014611b3a57806369fe0e2d14611aee578063715018a614611a955780637d5cae0314611a2f57806383472f5b14611a0357806389001eb1146118a05780638da5cb5b14611877578063919af1da146110c657806393eb102614610f455780639e57d58914610c07578063a112ed4e14610672578063a1a5729614610646578063b0d456ac146105b1578063ba71b33014610593578063ced72f8714610575578063d201593f146104e0578063d613fd24146103c3578063f2fde38b146102fd578063f6c78263146102d15763f9f161a81461011957600080fd5b346102cc5760203660031901126102cc57600435610135612a87565b8060005260026020526040600020600a810190815461015a60ff8260a01c1615612a0b565b60ff8160a81c1661029557600582015442111561025857600982019260018060a01b0391828554169384330361021b5760ff60a81b19909116600160a81b1790915560030180549092600091829182918291828215610212575bf115610206579154905460408051929093166001600160a01b0316825260208201527fd37c0b9c7560299a7c963d03165111d712663805228e5ffca03d540c5d6e410e91819081015b0390a260018055005b6040513d6000823e3d90fd5b506108fc6101b4565b60405162461bcd60e51b81526020600482015260156024820152742737ba103a343290383937b3b930b69036b0b5b2b960591b6044820152606490fd5b60405162461bcd60e51b8152602060048201526015602482015274141c9bd9dc985b481b9bdd08195b991959081e595d605a1b6044820152606490fd5b60405162461bcd60e51b815260206004820152600f60248201526e105b1c9958591e4818db185a5b5959608a1b6044820152606490fd5b600080fd5b346102cc5760203660031901126102cc5760043560005260066020526020604060002054604051908152f35b346102cc5760203660031901126102cc576004356001600160a01b03818116918290036102cc5761032c612840565b811561036f57600054826001600160601b0360a01b821617600055167f8be0079c531659141344cd1fd0a4f28419497f9722a3daafe3b4186f6b6457e0600080a3005b60405162461bcd60e51b815260206004820152602660248201527f4f776e61626c653a206e6577206f776e657220697320746865207a65726f206160448201526564647265737360d01b6064820152608490fd5b346102cc5760203660031901126102cc57600435600052600260205260406000208054600182016103f39061279a565b916104006002820161279a565b60038201546004830154600584015490939161041e6006840161279a565b61042a6007850161279a565b91600160a01b6001900393846009870154169785600a88015497600b015416976040519b8c9b8c528b6101a06020819201528c0161046791612575565b8b810360408d015261047891612575565b9260608b015260808a015260a089015287810360c089015261049991612575565b86810360e08801526104aa91612575565b9361010086015281166101208501528060a01c60ff16151561014085015260a81c60ff1615156101608401526101808301520390f35b346102cc576104ee3661255f565b906000526004602052604060002090600052602052604060002080546105166001830161279a565b916105716105266002830161279a565b61056160ff600460038601549501541691610553604051978897885260a0602089015260a0880190612575565b908682036040880152612575565b92606085015260808401906125b5565b0390f35b346102cc5760003660031901126102cc576020600a54604051908152f35b346102cc5760003660031901126102cc576020600954604051908152f35b346102cc5760203660031901126102cc576004356000818152600260205260409020600a810180549091610600906005906105f6336001600160a01b03861614612993565b01544211156129cf565b61061060ff8260a01c1615612a0b565b60ff60a01b1916600160a01b1790557f3ca3d218d64ea45c582c714d84dcdfd87f8d3cb3a3449fe533c2cb6d614ab766600080a2005b346102cc5760203660031901126102cc5760043560005260076020526020604060002054604051908152f35b346102cc5760803660031901126102cc576004356024356001600160401b0381116102cc576106a5903690600401612730565b90916044356001600160401b0381116102cc576106c6903690600401612730565b906064356001600160401b0381116102cc576106e6903690600401612730565b9290918460005260026020526040600020610706600582015442106129cf565b82871480610bfe575b15610bc85760009060005b868110610b9257506003015403610b4e576107789185600052600760205261076c60406000209889549961074d8b612898565b90556040519861075c8a61260c565b8a8a523360208b015236916126c1565b604088015236916126c1565b6060850152610786826126aa565b916107946040519384612627565b808352602083019060051b8201913683116102cc57905b828210610b3e575050506080830152600060a0830152600052600360205260406000208054600160401b811015610952576107eb916001820181556125f0565b610b2857815181556001810160018060a01b036020840151166001600160601b0360a01b825416179055600281016040830151602081519161082d8385612903565b01916000526020600020916000905b828210610a4b5750505050600381016060830151602081519161085f8385612903565b01916000526020600020916000905b8282106109685750505050600481016080830151908151916001600160401b03831161095257600160401b8311610952576020908254848455808510610935575b500190600052602060002060005b83811061092157868660a060058801910151600381101561090b5760ff801983541691161790557f722325134a63ac150749cede63bb76d659fc9e4d78e10764480c6c79d283dc4f600080a2005b634e487b7160e01b600052602160045260246000fd5b6001906020845194019381840155016108bd565b61094c9084600052858460002091820191016128a7565b876108af565b634e487b7160e01b600052604160045260246000fd5b80518051906001600160401b0382116109525761098f826109898854612760565b886128be565b602090601f83116001146109db5792826001949360209386956000926109d0575b5050600019600383901b1c191690841b1787555b0194019101909261086e565b015190508c806109b0565b908660005260206000209160005b601f1985168110610a33575083602093600196938796938794601f19811610610a1a575b505050811b0187556109c4565b015160001960f88460031b161c191690558c8080610a0d565b919260206001819286850151815501940192016109e9565b80518051906001600160401b03821161095257610a6c826109898854612760565b602090601f8311600114610ab8579282600194936020938695600092610aad575b5050600019600383901b1c191690841b1787555b0194019101909261083c565b015190508c80610a8d565b908660005260206000209160005b601f1985168110610b10575083602093600196938796938794601f19811610610af7575b505050811b018755610aa1565b015160001960f88460031b161c191690558c8080610aea565b91926020600181928685015181550194019201610ac6565b634e487b7160e01b600052600060045260246000fd5b81358152602091820191016107ab565b606460405162461bcd60e51b815260206004820152602060248201527f4d696c6573746f6e6520746f74616c20213d2070726f6772616d2070726963656044820152fd5b918260051b8601358101809111610bb257610bad9092612898565b61071a565b634e487b7160e01b600052601160045260246000fd5b60405162461bcd60e51b815260206004820152600e60248201526d092dce0eae840dad2e6dac2e8c6d60931b6044820152606490fd5b5084871461070f565b346102cc5760603660031901126102cc576004356024356001600160401b036044358181116102cc57610c3e903690600401612730565b84600052602060028152604060002060ff600a82015460a01c1615610f0957600b01546001600160a01b03163303610ed75785600052600481526040600020856000528152604060002092600484019384549460ff8616600481101561090b57610e9e57906005916001979695949397809660ff191617905501610cc28382612903565b600090815281812090865b848210610d9c5750505081604051966040880190885260408389015252606086019460608360051b8801019581956000925b858410610d2f578a7fbaa1ee362891351add36bb95f60ba8e4031d4c60ece483917c0dc053d7b2c3d78b8b038ca2005b9091929394959697605f198a82030184528835601e19833603018112156102cc5782018681019190358481116102cc5780360383136102cc57878282808d96849695859652848401376000828201840152601f01601f191601019a01989796959190910193019190610cff565b8097939495969735601e19853603018112156102cc5784019081358981116102cc57803603878401136102cc57889181610de18993610ddb8954612760565b896128be565b6000601f8211600114610e2f578382918697600093610e22575b505050600019600383901b1c191690841b1786555b01930191019091969594939296610ccd565b0101359050833880610dfb565b94601f1982169588600052846000209660005b818110610e83575091858798928589969510610e67575b50505050811b018655610e10565b60001960f88660031b161c19920101351690558f808581610e59565b838301870135895596909701968d968c969283019201610e42565b60405162461bcd60e51b8152600481018590526011602482015270105b1c9958591e481cdd589b5a5d1d1959607a1b6044820152606490fd5b6064906040519062461bcd60e51b82526004820152600b60248201526a2737ba10313ab4b63232b960a91b6044820152fd5b60405162461bcd60e51b8152600481018390526014602482015273141c9bd9dc985b481b9bdd08185c1c1c9bdd995960621b6044820152606490fd5b346102cc57610f533661255f565b90610f5c612a87565b80600052602060028152604060002060018060a01b0390610f8482600a830154163314612993565b83600052600483526040600020856000528352604060002090600482019081549160ff8316600481101561090b57600b93610fc3600160029314612a4a565b60ff1916179055019060008080806003878754169501948554905af13d156110c1573d610fef81612648565b90610ffd6040519283612627565b81526000863d92013e5b1561108657937f27d841e82fb3b2469e89e27c70f2ec8597324e08569a13460e4dd8a1a3c0b10c604082977f7099040ff4abf6b015bd1004cbf11ec796c3d4abcaec3514db1c93599297d39f975480978351928352820152a25460408051929091166001600160a01b03168252602082019290925290819081016101fd565b60405162461bcd60e51b8152600481018590526013602482015272115512081d1c985b9cd9995c8819985a5b1959606a1b6044820152606490fd5b611007565b6101203660031901126102cc576004356001600160401b0381116102cc576110f2903690600401612663565b6044356001600160401b0381116102cc57611111903690600401612663565b9060a435906001600160a01b03821682036102cc5760c4356001600160401b0381116102cc57611145903690600401612663565b60e4356001600160401b0381116102cc57611164903690600401612663565b610104356001600160401b0381116102cc57366023820112156102cc576111959036906024816004013591016126c1565b91602435340361181c5760843560643510156117bd57600954956111b887612898565b60095560405194856101c08101106001600160401b036101c088011117610952576101c08601604052878652602086015260408501526024356060850152606435608085015260843560a085015260c084015260e08301526101008201523361012082015260018060a01b0382166101408201526000610160820152600061018082015260006101a082015282600052600260205260406000208151815560208201518051906001600160401b0382116109525781906112888261127f6001870154612760565b600187016128be565b602090601f831160011461174b57600092611740575b50508160011b916000199060031b1c19161760018201555b60408201518051906001600160401b0382116109525781906112e8826112df6002870154612760565b600287016128be565b602090601f83116001146116ce576000926116c3575b50508160011b916000199060031b1c19161760028201555b606082015160038201556080820151600482015560a0820151600582015560c08201518051906001600160401b0382116109525781906113668261135d6006870154612760565b600687016128be565b602090601f831160011461165157600092611646575b50508160011b916000199060031b1c19161760068201555b60e08201518051906001600160401b0382116109525781906113c6826113bd6007870154612760565b600787016128be565b602090601f83116001146115d4576000926115c9575b50508160011b916000199060031b1c19161760078201555b60088101610100830151602081519161140d8385612903565b01916000526020600020916000905b8282106114ec57505050506101208201516009820180546001600160a01b03199081166001600160a01b0393841617909155610140840151600a840180546101608701516101808801516001600160b01b03199092169386169390931792151560a01b60ff60a01b169290921791151560a81b60ff60a81b169190911790556101a090930151600b92909201805490931691811691909117909155604051602435815291169133917f808c887919683a350ed55b3499f97ed7f4093ecc5e131fadb8b075a85457af3a90602090a4005b80518051906001600160401b0382116109525761150d826109898854612760565b602090601f831160011461155957928260019493602093869560009261154e575b5050600019600383901b1c191690841b1787555b0194019101909261141c565b015190508d8061152e565b908660005260206000209160005b601f19851681106115b1575083602093600196938796938794601f19811610611598575b505050811b018755611542565b015160001960f88460031b161c191690558d808061158b565b91926020600181928685015181550194019201611567565b0151905086806113dc565b9250600784016000526020600020906000935b601f198416851061162b576001945083601f19811610611612575b505050811b0160078201556113f4565b015160001960f88460031b161c19169055868080611602565b818101518355602094850194600190930192909101906115e7565b01519050868061137c565b9250600684016000526020600020906000935b601f19841685106116a8576001945083601f1981161061168f575b505050811b016006820155611394565b015160001960f88460031b161c1916905586808061167f565b81810151835560209485019460019093019290910190611664565b0151905086806112fe565b9250600284016000526020600020906000935b601f1984168510611725576001945083601f1981161061170c575b505050811b016002820155611316565b015160001960f88460031b161c191690558680806116fc565b818101518355602094850194600190930192909101906116e1565b01519050868061129e565b9250600184016000526020600020906000935b601f19841685106117a2576001945083601f19811610611789575b505050811b0160018201556112b6565b015160001960f88460031b161c19169055868080611779565b8181015183556020948501946001909301929091019061175e565b60405162461bcd60e51b815260206004820152603160248201527f5468652053746172742074696d65206d757374206265206561726c69657220746044820152703430b7103a34329032b732103a34b6b29760791b6064820152608490fd5b60405162461bcd60e51b815260206004820152602d60248201527f546865204554482073656e7420646f6573206e6f74206d61746368207468652060448201526c70726f6772616d20707269636560981b6064820152608490fd5b346102cc5760003660031901126102cc576000546040516001600160a01b039091168152602090f35b346102cc5760a03660031901126102cc576024356001600160a01b036004356084358281169060643590604435908390036102cc5783600052600260205260406000209460098601541633036119cf578181101561199b5785156119665785600a867fe3d59d03839a10c8a5a85dd0d7e5a4ac45445821c5176529d2745adf6915a16198600360a099015583600482015584600582015501846001600160601b03881b8254161790556040519485526020850152604084015260608301526080820152a1005b60405162461bcd60e51b815260206004820152600d60248201526c496e76616c696420707269636560981b6044820152606490fd5b60405162461bcd60e51b815260206004820152600c60248201526b496e76616c69642074696d6560a01b6044820152606490fd5b60405162461bcd60e51b815260206004820152600c60248201526b27b7363c9031b932b0ba37b960a11b6044820152606490fd5b346102cc5760203660031901126102cc5760043560005260086020526020604060002054604051908152f35b346102cc57611a3d3661255f565b90600052600360205260406000209081548110156102cc57611a5e916125f0565b50805460ff600560018060a01b0360018501541693015416916040519182526020820152600382101561090b576060916040820152f35b346102cc5760003660031901126102cc57611aae612840565b600080546001600160a01b0319811682556001600160a01b03167f8be0079c531659141344cd1fd0a4f28419497f9722a3daafe3b4186f6b6457e08280a3005b346102cc5760203660031901126102cc577f8c4d35e54a3f2ef1134138fd8ea3daee6a3c89e10d2665996babdf70261e2c766020600435611b2d612840565b80600a55604051908152a1005b346102cc57611b483661255f565b906000526005602052604060002080548210156102cc57602091611b6b916125c2565b90546040519160031b1c8152f35b346102cc5760603660031901126102cc5760443580151581036102cc5760043560005260026020526040600020611bbd60018060a01b03600a830154163314612993565b600435600052600360205260406000209060009160005b81548110156121c557611be781836125f0565b505460243514611bff57611bfa90612898565b611bd4565b809350611c0b916125f0565b509260058401549060ff8216600381101561090b5761218c57156121775750600b8101546001600160a01b031661213f5760058301805460ff191660021790556001830154600b820180546001600160a01b0319166001600160a01b0392909216919091179055600a01805460ff60a01b1916600160a01b1790556004356000908152600660205260408120919091555b600282019081548110156120b0576004356000526008602052611cd281604060002093845494611ccb86612898565b90556125c2565b50611ce082600386016125c2565b50611cee83600487016125c2565b90549060031b1c604051908160208101106001600160401b03602084011117610952576020820160405260008252611d44611d3760405195611d2f8761260c565b88875261279a565b936020860194855261279a565b604085015260608401526000608084015260a0830152600435600052600460205260406000208460005260205260406000209082518255518051906001600160401b038211610952578190611da08261127f6001870154612760565b602090601f831160011461203e57600092612033575b50508160011b916000199060031b1c19161760018201555b60408201518051906001600160401b038211610952578190611df7826112df6002870154612760565b602090601f8311600114611fc157600092611fb6575b50508160011b916000199060031b1c19161760028201555b606082015160038201556080820151600481101561090b5781600591600460a094019060ff80198354169116179055019101516020815191611e678385612903565b019160005260206000206000925b828410611ed357505050506004356000526005602052604060002091825492600160401b8410156109525783611eb3916001611ece960181556125c2565b819291549060031b91821b91600019901b1916179055612898565b611c9c565b80518051906001600160401b03821161095257611efa82611ef48654612760565b866128be565b602090601f8311600114611f46579282600194936020938695600092611f3b575b5050600019600383901b1c191690841b1785555b01920193019290611e75565b015190508c80611f1b565b908460005260206000209160005b601f1985168110611f9e575083602093600196938796938794601f19811610611f85575b505050811b018555611f2f565b015160001960f88460031b161c191690558c8080611f78565b91926020600181928685015181550194019201611f54565b015190508780611e0d565b9250600284016000526020600020906000935b601f1984168510612018576001945083601f19811610611fff575b505050811b016002820155611e25565b015160001960f88460031b161c19169055878080611fef565b81810151835560209485019460019093019290910190611fd4565b015190508780611db6565b9250600184016000526020600020906000935b601f1984168510612095576001945083601f1981161061207c575b505050811b016001820155611dce565b015160001960f88460031b161c1916905587808061206c565b81810151835560209485019460019093019290910190612051565b5050600101546040805160243581526001600160a01b039092166020830152600435917f673e1c13e88cae277c1b4adfc9da511c2f5672dbb51fbc06510cb0188be365d09190a25b60015b1561210257005b60405162461bcd60e51b8152602060048201526015602482015274105c1c1b1a58d85d1a5bdb881b9bdd08199bdd5b99605a1b6044820152606490fd5b60405162461bcd60e51b815260206004820152601060248201526f105b1c9958591e481cd95b1958dd195960821b6044820152606490fd5b600592506001915060ff1916179101556120f8565b60405162461bcd60e51b8152602060048201526011602482015270105b1c9958591e48195d985b1d585d1959607a1b6044820152606490fd5b50505090506120fb565b346102cc576020806003193601126102cc5760043580600052600580835260406000209260405180828654918281520195600052826000209060005b8181106124a8575050506122258161224d95960382612627565b805194612231866126aa565b9561223f6040519788612627565b808752601f199586916126aa565b018360005b82811061246b5750505060005b8251811015612362578160005260048452604060002061227f8285612add565b5160005284526040600020604051906122978261260c565b805482526001906122a982820161279a565b878401526122b96002820161279a565b60408401526003810154606084015260ff60048201541690600482101561090b5788916080850152019081546122ee816126aa565b926122fc6040519485612627565b818452600090815288812090898086015b8483106123455750505050505090612340929160a082015261232f828a612add565b5261233a8189612add565b50612898565b61225f565b859182916123528661279a565b8152019301910190918a9061230d565b505050919290604051928084019181855283518093526040850182604085841b8801019501966000925b8584106123995787870388f35b90919293809596603f19898203018552895190815181526123db6123c98484015160c08087860152840190612575565b60408401518382036040850152612575565b90606080840151908201526123f8608080850151908301906125b5565b60a08093015192818303910152815180825283820190848082881b85010194019260005b82811061243f57505050505090806001929a01940194019297959493919061238c565b91939580612459878b85600196989a030189528951612575565b970195019101918a959493919261241c565b6040516124778161260c565b60008152606080848301528060408301526000818301526000608083015260a082015282828b010152018490612252565b82548852968401966001928301920161220b565b346102cc576124ca3661255f565b8160005260026020526124ee60018060a01b03600a60406000200154163314612993565b81600052600460205260406000208160005260205260046040600020019081549060ff821692600484101561090b57600360209361254f60017f4e2fd11f84344693b41d2aba9910e33b34a4f02d4d3a65b65b2201f3c8fa3c899714612a4a565b60ff1916179055604051908152a2005b60409060031901126102cc576004359060243590565b919082519283825260005b8481106125a1575050826000602080949584010152601f8019910116010190565b602081830181015184830182015201612580565b90600482101561090b5752565b80548210156125da5760005260206000200190600090565b634e487b7160e01b600052603260045260246000fd5b80548210156125da576000526006602060002091020190600090565b60c081019081106001600160401b0382111761095257604052565b90601f801991011681019081106001600160401b0382111761095257604052565b6001600160401b03811161095257601f01601f191660200190565b81601f820112156102cc5780359061267a82612648565b926126886040519485612627565b828452602083830101116102cc57816000926020809301838601378301015290565b6001600160401b0381116109525760051b60200190565b929190926126ce846126aa565b916126dc6040519384612627565b829480845260208094019060051b8301928284116102cc5780915b84831061270657505050505050565b82356001600160401b0381116102cc5786916127258684938601612663565b8152019201916126f7565b9181601f840112156102cc578235916001600160401b0383116102cc576020808501948460051b0101116102cc57565b90600182811c92168015612790575b602083101461277a57565b634e487b7160e01b600052602260045260246000fd5b91607f169161276f565b90604051918260008254926127ae84612760565b90818452600194858116908160001461281d57506001146127da575b50506127d892500383612627565b565b9093915060005260209081600020936000915b8183106128055750506127d8935082010138806127ca565b855488840185015294850194879450918301916127ed565b9150506127d894506020925060ff191682840152151560051b82010138806127ca565b6000546001600160a01b0316330361285457565b606460405162461bcd60e51b815260206004820152602060248201527f4f776e61626c653a2063616c6c6572206973206e6f7420746865206f776e65726044820152fd5b6000198114610bb25760010190565b8181106128b2575050565b600081556001016128a7565b9190601f81116128cd57505050565b6127d8926000526020600020906020601f840160051c830193106128f9575b601f0160051c01906128a7565b90915081906128ec565b600160401b82116109525780549180825582811061292057505050565b600091825260209081832093840193015b83811061293e5750505050565b808361294c60019354612760565b8061295a575b505001612931565b601f808211851461297157505081555b8338612952565b61298a90848452868420920160051c82018583016128a7565b8183555561296a565b1561299a57565b60405162461bcd60e51b815260206004820152600d60248201526c2737ba103b30b634b230ba37b960991b6044820152606490fd5b156129d657565b60405162461bcd60e51b815260206004820152600d60248201526c141c9bd9dc985b48195b991959609a1b6044820152606490fd5b15612a1257565b60405162461bcd60e51b815260206004820152601060248201526f105b1c9958591e48185c1c1c9bdd995960821b6044820152606490fd5b15612a5157565b60405162461bcd60e51b815260206004820152600e60248201526d496e76616c69642073746174757360901b6044820152606490fd5b600260015414612a98576002600155565b60405162461bcd60e51b815260206004820152601f60248201527f5265656e7472616e637947756172643a207265656e7472616e742063616c6c006044820152606490fd5b80518210156125da5760209160051b01019056fea264697066735822122087e6424b4593e1f9cf906dffdec53627f753735dd8802c238918ea66c6c202ca64736f6c63430008140033",
    "linkReferences": {},
    "deployedLinkReferences": {}
}