{
  "_format": "hh-sol-artifact-1",
  "contractName": "LdEduProgram",
  "sourceName": "contracts/LdEduProgram.sol",
  "abi": [
    {
      "inputs": [
        {
          "internalType": "address",
          "name": "initialOwner",
          "type": "address"
        }
      ],
      "stateMutability": "nonpayable",
      "type": "constructor"
    },
    {
      "anonymous": false,
      "inputs": [
        {
          "indexed": false,
          "internalType": "uint256",
          "name": "newFee",
          "type": "uint256"
        }
      ],
      "name": "FeeUpdated",
      "type": "event"
    },
    {
      "anonymous": false,
      "inputs": [
        {
          "indexed": true,
          "internalType": "uint256",
          "name": "id",
          "type": "uint256"
        },
        {
          "indexed": false,
          "internalType": "address",
          "name": "maker",
          "type": "address"
        },
        {
          "indexed": false,
          "internalType": "uint256",
          "name": "amount",
          "type": "uint256"
        }
      ],
      "name": "FundsReclaimed",
      "type": "event"
    },
    {
      "anonymous": false,
      "inputs": [
        {
          "indexed": true,
          "internalType": "uint256",
          "name": "programId",
          "type": "uint256"
        },
        {
          "indexed": true,
          "internalType": "string",
          "name": "milestoneId",
          "type": "string"
        },
        {
          "indexed": true,
          "internalType": "address",
          "name": "builder",
          "type": "address"
        },
        {
          "indexed": false,
          "internalType": "uint256",
          "name": "reward",
          "type": "uint256"
        }
      ],
      "name": "MilestoneAccepted",
      "type": "event"
    },
    {
      "anonymous": false,
      "inputs": [
        {
          "indexed": true,
          "internalType": "address",
          "name": "previousOwner",
          "type": "address"
        },
        {
          "indexed": true,
          "internalType": "address",
          "name": "newOwner",
          "type": "address"
        }
      ],
      "name": "OwnershipTransferred",
      "type": "event"
    },
    {
      "anonymous": false,
      "inputs": [
        {
          "indexed": true,
          "internalType": "uint256",
          "name": "id",
          "type": "uint256"
        },
        {
          "indexed": true,
          "internalType": "address",
          "name": "maker",
          "type": "address"
        },
        {
          "indexed": true,
          "internalType": "address",
          "name": "validator",
          "type": "address"
        },
        {
          "indexed": false,
          "internalType": "uint256",
          "name": "price",
          "type": "uint256"
        }
      ],
      "name": "ProgramCreated",
      "type": "event"
    },
    {
      "anonymous": false,
      "inputs": [
        {
          "indexed": false,
          "internalType": "uint256",
          "name": "programId",
          "type": "uint256"
        },
        {
          "indexed": false,
          "internalType": "uint256",
          "name": "price",
          "type": "uint256"
        },
        {
          "indexed": false,
          "internalType": "uint256",
          "name": "startTime",
          "type": "uint256"
        },
        {
          "indexed": false,
          "internalType": "uint256",
          "name": "endTime",
          "type": "uint256"
        },
        {
          "indexed": false,
          "internalType": "address",
          "name": "newValidator",
          "type": "address"
        }
      ],
      "name": "ProgramEdited",
      "type": "event"
    },
    {
      "inputs": [
        {
          "internalType": "uint256",
          "name": "programId",
          "type": "uint256"
        },
        {
          "internalType": "string",
          "name": "milestoneId",
          "type": "string"
        },
        {
          "internalType": "address",
          "name": "builder",
          "type": "address"
        },
        {
          "internalType": "uint256",
          "name": "reward",
          "type": "uint256"
        }
      ],
      "name": "acceptMilestone",
      "outputs": [],
      "stateMutability": "nonpayable",
      "type": "function"
    },
    {
      "inputs": [
        {
          "internalType": "string",
          "name": "_name",
          "type": "string"
        },
        {
          "internalType": "uint256",
          "name": "_price",
          "type": "uint256"
        },
        {
          "internalType": "string[]",
          "name": "_keywords",
          "type": "string[]"
        },
        {
          "internalType": "uint256",
          "name": "_startTime",
          "type": "uint256"
        },
        {
          "internalType": "uint256",
          "name": "_endTime",
          "type": "uint256"
        },
        {
          "internalType": "address",
          "name": "_validator",
          "type": "address"
        },
        {
          "internalType": "string",
          "name": "_summary",
          "type": "string"
        },
        {
          "internalType": "string",
          "name": "_description",
          "type": "string"
        },
        {
          "internalType": "string[]",
          "name": "_links",
          "type": "string[]"
        }
      ],
      "name": "createEduProgram",
      "outputs": [],
      "stateMutability": "payable",
      "type": "function"
    },
    {
      "inputs": [
        {
          "internalType": "uint256",
          "name": "",
          "type": "uint256"
        }
      ],
      "name": "eduPrograms",
      "outputs": [
        {
          "internalType": "uint256",
          "name": "id",
          "type": "uint256"
        },
        {
          "internalType": "string",
          "name": "name",
          "type": "string"
        },
        {
          "internalType": "uint256",
          "name": "price",
          "type": "uint256"
        },
        {
          "internalType": "uint256",
          "name": "startTime",
          "type": "uint256"
        },
        {
          "internalType": "uint256",
          "name": "endTime",
          "type": "uint256"
        },
        {
          "internalType": "string",
          "name": "summary",
          "type": "string"
        },
        {
          "internalType": "string",
          "name": "description",
          "type": "string"
        },
        {
          "internalType": "address",
          "name": "maker",
          "type": "address"
        },
        {
          "internalType": "address",
          "name": "validator",
          "type": "address"
        },
        {
          "internalType": "bool",
          "name": "approve",
          "type": "bool"
        },
        {
          "internalType": "bool",
          "name": "claimed",
          "type": "bool"
        }
      ],
      "stateMutability": "view",
      "type": "function"
    },
    {
      "inputs": [],
      "name": "getFee",
      "outputs": [
        {
          "internalType": "uint256",
          "name": "",
          "type": "uint256"
        }
      ],
      "stateMutability": "view",
      "type": "function"
    },
    {
      "inputs": [],
      "name": "nextProgramId",
      "outputs": [
        {
          "internalType": "uint256",
          "name": "",
          "type": "uint256"
        }
      ],
      "stateMutability": "view",
      "type": "function"
    },
    {
      "inputs": [],
      "name": "owner",
      "outputs": [
        {
          "internalType": "address",
          "name": "",
          "type": "address"
        }
      ],
      "stateMutability": "view",
      "type": "function"
    },
    {
      "inputs": [
        {
          "internalType": "uint256",
          "name": "programId",
          "type": "uint256"
        }
      ],
      "name": "reclaimFunds",
      "outputs": [],
      "stateMutability": "nonpayable",
      "type": "function"
    },
    {
      "inputs": [],
      "name": "renounceOwnership",
      "outputs": [],
      "stateMutability": "nonpayable",
      "type": "function"
    },
    {
      "inputs": [
        {
          "internalType": "uint256",
          "name": "_fee",
          "type": "uint256"
        }
      ],
      "name": "setFee",
      "outputs": [],
      "stateMutability": "nonpayable",
      "type": "function"
    },
    {
      "inputs": [
        {
          "internalType": "address",
          "name": "newOwner",
          "type": "address"
        }
      ],
      "name": "transferOwnership",
      "outputs": [],
      "stateMutability": "nonpayable",
      "type": "function"
    },
    {
      "inputs": [
        {
          "internalType": "uint256",
          "name": "programId",
          "type": "uint256"
        },
        {
          "internalType": "uint256",
          "name": "price",
          "type": "uint256"
        },
        {
          "internalType": "uint256",
          "name": "startTime",
          "type": "uint256"
        },
        {
          "internalType": "uint256",
          "name": "endTime",
          "type": "uint256"
        },
        {
          "internalType": "address",
          "name": "newValidator",
          "type": "address"
        }
      ],
      "name": "updateProgram",
      "outputs": [],
      "stateMutability": "nonpayable",
      "type": "function"
    }
  ],
  "bytecode": "0x60803461007457601f61168938819003918201601f19168301916001600160401b038311848410176100795780849260209460405283398101031261007457516001600160a01b0381168103610074576100659061005c3361008f565b6001805561008f565b6040516115b290816100d78239f35b600080fd5b634e487b7160e01b600052604160045260246000fd5b600080546001600160a01b039283166001600160a01b03198216811783559216907f8be0079c531659141344cd1fd0a4f28419497f9722a3daafe3b4186f6b6457e09080a356fe6080604052600436101561001257600080fd5b60003560e01c806369fe0e2d14611227578063715018a6146111ce57806378ea19b01461078f57806389001eb1146106275780638da5cb5b146105fe578063ba71b330146105e0578063ced72f87146105c2578063d613fd24146104d6578063f2479186146102b2578063f2fde38b146101e75763f9f161a81461009557600080fd5b346101e25760203660031901126101e2576004356100b1611526565b806000526002602052604060002060058101544211156101a5576009810180546001600160a01b0392908316903382900361016857600a8101805460ff60a81b1916600160a81b1790556003018054909160009182918291829182821561015f575bf115610153577fd37c0b9c7560299a7c963d03165111d712663805228e5ffca03d540c5d6e410e926040925416905482519182526020820152a260018055005b6040513d6000823e3d90fd5b506108fc610113565b60405162461bcd60e51b81526020600482015260156024820152742737ba103a343290383937b3b930b69036b0b5b2b960591b6044820152606490fd5b60405162461bcd60e51b8152602060048201526015602482015274141c9bd9dc985b481b9bdd08195b991959081e595d605a1b6044820152606490fd5b600080fd5b346101e25760203660031901126101e2576004356001600160a01b03818116918290036101e2576102166114b7565b811561025e57600054826bffffffffffffffffffffffff60a01b821617600055167f8be0079c531659141344cd1fd0a4f28419497f9722a3daafe3b4186f6b6457e0600080a3005b60405162461bcd60e51b815260206004820152602660248201527f4f776e61626c653a206e6577206f776e657220697320746865207a65726f206160448201526564647265737360d01b6064820152608490fd5b346101e25760803660031901126101e257600435602480356001600160401b0381116101e2576102e69036906004016112c5565b6001600160a01b036044358181169492908590036101e2576064359361030a611526565b8360005260209260028452604060002090600a8201541633036104a2576003018054861161045e5785471061041a576000808080898b5af13d15610415573d610352816112aa565b906103606040519283611273565b81526000863d92013e5b156103df578054918683039283116103cb57505560405181517f0283d9e3f5cdb8281e6971895ed99be8f40753cdb7e6afbc25c97e2b3462a9e493928291906103b89082908490870161146f565b810103902093604051908152a460018055005b634e487b7160e01b60009081526011600452fd5b60405162461bcd60e51b815260048101859052600f818401526e1d1c985b9cd9995c8819985a5b1959608a1b6044820152606490fd5b61036a565b60405162461bcd60e51b815260048101859052601d818401527f496e73756666696369656e7420636f6e74726163742062616c616e63650000006044820152606490fd5b60405162461bcd60e51b815260048101859052601e818401527f52657761726420657863656564732070726f6772616d2062616c616e636500006044820152606490fd5b60405162461bcd60e51b815260048101859052600d818401526c2737ba103b30b634b230ba37b960991b6044820152606490fd5b346101e25760203660031901126101e257600435600052600260205260406000208054610505600183016113c9565b9160ff600382015460048301549061059660058501549161058861052b600688016113c9565b91610538600789016113c9565b9260018060a01b0395600a8760098c0154169a01549761056b6040519d8e9d8e528d610160908160208201520190611492565b9360408d015260608c015260808b015289820360a08b0152611492565b9087820360c0890152611492565b9360e08601528116610100850152818160a01c16151561012085015260a81c1615156101408301520390f35b346101e25760003660031901126101e2576020600454604051908152f35b346101e25760003660031901126101e2576020600354604051908152f35b346101e25760003660031901126101e2576000546040516001600160a01b039091168152602090f35b346101e25760a03660031901126101e2576024356001600160a01b036004356084358281169060643590604435908390036101e257836000526002602052604060002094600986015416330361075b57818110156107275785156106f25785600a867fe3d59d03839a10c8a5a85dd0d7e5a4ac45445821c5176529d2745adf6915a16198600360a099015583600482015584600582015501846bffffffffffffffffffffffff881b8254161790556040519485526020850152604084015260608301526080820152a1005b60405162461bcd60e51b815260206004820152600d60248201526c496e76616c696420707269636560981b6044820152606490fd5b60405162461bcd60e51b815260206004820152600c60248201526b496e76616c69642074696d6560a01b6044820152606490fd5b60405162461bcd60e51b815260206004820152600c60248201526b27b7363c9031b932b0ba37b960a11b6044820152606490fd5b6101203660031901126101e2576004356001600160401b0381116101e2576107bb9036906004016112c5565b6044356001600160401b0381116101e2576107da90369060040161130c565b9060a4356001600160a01b03811681036101e25760c4356001600160401b0381116101e25761080d9036906004016112c5565b9160e4356001600160401b0381116101e25761082d9036906004016112c5565b610104356001600160401b0381116101e25761084d90369060040161130c565b9060249485353403611174576084356064351015611116576003549660405194856101a08101106001600160401b036101a088011117611101576101a086016040528886526020860152604085015285356060850152606435608085015260843560a085015260c084015260e08301526101008201523361012082015260018060a01b0382166101408201526000610160820152600061018082015283600052600260205260406000208151815560208201518051906001600160401b038211610d3e578190610920600185015461138f565b601f81116110cc575b50602090601f831160011461105a5760009261104f575b50508160011b916000199060031b1c19161760018201555b6040820151805190600160401b8211610d3e576002830154826002850155808310610fd7575b506020016002830160005260206000206000915b838310610eb75750505050606082015160038201556080820151600482015560a0820151600582015560c08201518051906001600160401b038211610d3e5781906109e0600685015461138f565b601f8111610e82575b50602090601f8311600114610e1057600092610e05575b50508160011b916000199060031b1c19161760068201555b60e08201518051906001600160401b038211610d3e578190610a3d600785015461138f565b601f8111610dd0575b50602090601f8311600114610d5e57600092610d53575b50508160011b916000199060031b1c19161760078201555b610100820151805190600160401b8211610d3e576008830154826008850155808310610cc6575b506020016008830160005260206000206000915b838310610b9157505050506101208201516009820180546001600160a01b0319166001600160a01b03928316179055610140830151600a9092018054610160850151610180909501516001600160b01b0319909116939092169290921792151560a01b60ff60a01b169290921791151560a81b60ff60a81b169190911790556003546000198114610b7c57600101600355604051913582526001600160a01b03169133917f808c887919683a350ed55b3499f97ed7f4093ecc5e131fadb8b075a85457af3a90602090a4005b82634e487b7160e01b60005260116004526000fd5b80518051906001600160401b038211610cb157610bae845461138f565b601f8111610c74575b50602090601f8311600114610c04579282600194936020938695600092610bf9575b5050600019600383901b1c191690841b1785555b01920192019190610ab0565b015190508e80610bd9565b908460005260206000209160005b601f1985168110610c5c575083602093600196938796938794601f19811610610c43575b505050811b018555610bed565b015160001960f88460031b161c191690558e8080610c36565b91926020600181928685015181550194019201610c12565b610ca190856000526020600020601f850160051c81019160208610610ca7575b601f0160051c019061150f565b8b610bb7565b9091508190610c94565b89634e487b7160e01b60005260416004526000fd5b600884016000526020600020908382015b8183018110610ce7575050610a9c565b80610cf46001925461138f565b80610d01575b5001610cd7565b601f81118314610d175750600081555b8b610cfa565b600090828252610d35601f60208420920160051c820185830161150f565b81835555610d11565b85634e487b7160e01b60005260416004526000fd5b015190508780610a5d565b9250600784016000526020600020906000935b601f1984168510610db5576001945083601f19811610610d9c575b505050811b016007820155610a75565b015160001960f88460031b161c19169055878080610d8c565b81810151835560209485019460019093019290910190610d71565b610dff90600786016000526020600020601f850160051c81019160208610610ca757601f0160051c019061150f565b88610a46565b015190508780610a00565b9250600684016000526020600020906000935b601f1984168510610e67576001945083601f19811610610e4e575b505050811b016006820155610a18565b015160001960f88460031b161c19169055878080610e3e565b81810151835560209485019460019093019290910190610e23565b610eb190600686016000526020600020601f850160051c81019160208610610ca757601f0160051c019061150f565b886109e9565b80518051906001600160401b038211610cb157610ed4845461138f565b601f8111610f9a575b50602090601f8311600114610f2a579282600194936020938695600092610f1f575b5050600019600383901b1c191690841b1785555b01920192019190610992565b015190508e80610eff565b908460005260206000209160005b601f1985168110610f82575083602093600196938796938794601f19811610610f69575b505050811b018555610f13565b015160001960f88460031b161c191690558e8080610f5c565b91926020600181928685015181550194019201610f38565b610fc7908560005260206000206005601f8601811c82019260208710610fcd575b601f01901c019061150f565b8b610edd565b9192508291610fbb565b600284016000526020600020908382015b8183018110610ff857505061097e565b806110056001925461138f565b80611012575b5001610fe8565b601f811183146110285750600081555b8b61100b565b600090828252611046601f60208420920160051c820185830161150f565b81835555611022565b015190508780610940565b9250600184016000526020600020906000935b601f19841685106110b1576001945083601f19811610611098575b505050811b016001820155610958565b015160001960f88460031b161c19169055878080611088565b8181015183556020948501946001909301929091019061106d565b6110fb90600186016000526020600020601f850160051c81019160208610610ca757601f0160051c019061150f565b88610929565b87634e487b7160e01b60005260416004526000fd5b60405162461bcd60e51b8152602060048201526031818801527f5468652053746172742074696d65206d757374206265206561726c69657220746044820152703430b7103a34329032b732103a34b6b29760791b6064820152608490fd5b60405162461bcd60e51b815260206004820152602d818801527f546865204554482073656e7420646f6573206e6f74206d61746368207468652060448201526c70726f6772616d20707269636560981b6064820152608490fd5b346101e25760003660031901126101e2576111e76114b7565b600080546001600160a01b0319811682556001600160a01b03167f8be0079c531659141344cd1fd0a4f28419497f9722a3daafe3b4186f6b6457e08280a3005b346101e25760203660031901126101e2577f8c4d35e54a3f2ef1134138fd8ea3daee6a3c89e10d2665996babdf70261e2c7660206004356112666114b7565b80600455604051908152a1005b90601f801991011681019081106001600160401b0382111761129457604052565b634e487b7160e01b600052604160045260246000fd5b6001600160401b03811161129457601f01601f191660200190565b81601f820112156101e2578035906112dc826112aa565b926112ea6040519485611273565b828452602083830101116101e257816000926020809301838601378301015290565b9080601f830112156101e2578135906001600160401b0392838311611294578260051b6040519460209461134286840188611273565b86528480870192840101938085116101e257858401925b85841061136a575050505050505090565b83358381116101e2578791611384848480948a01016112c5565b815201930192611359565b90600182811c921680156113bf575b60208310146113a957565b634e487b7160e01b600052602260045260246000fd5b91607f169161139e565b90604051918260008254926113dd8461138f565b90818452600194858116908160001461144c5750600114611409575b505061140792500383611273565b565b9093915060005260209081600020936000915b818310611434575050611407935082010138806113f9565b8554888401850152948501948794509183019161141c565b91505061140794506020925060ff191682840152151560051b82010138806113f9565b60005b8381106114825750506000910152565b8181015183820152602001611472565b906020916114ab8151809281855285808601910161146f565b601f01601f1916010190565b6000546001600160a01b031633036114cb57565b606460405162461bcd60e51b815260206004820152602060248201527f4f776e61626c653a2063616c6c6572206973206e6f7420746865206f776e65726044820152fd5b81811061151a575050565b6000815560010161150f565b600260015414611537576002600155565b60405162461bcd60e51b815260206004820152601f60248201527f5265656e7472616e637947756172643a207265656e7472616e742063616c6c006044820152606490fdfea264697066735822122047e5e9c3a28dd6f8ebd4edbc91858cc96e49f19cb62d929b15c4493294f0021464736f6c63430008140033",
  "linkReferences": {},
  "deployedLinkReferences": {}
}