{
  "_format": "hh-sol-artifact-1",
  "contractName": "LdEduProgram",
  "sourceName": "contracts/LdEduProgram.sol",
  "abi": [
    {
      "inputs": [
        {
          "internalType": "address",
          "name": "initialOwner",
          "type": "address"
        }
      ],
      "stateMutability": "nonpayable",
      "type": "constructor"
    },
    {
      "anonymous": false,
      "inputs": [
        {
          "indexed": false,
          "internalType": "uint256",
          "name": "newFee",
          "type": "uint256"
        }
      ],
      "name": "FeeUpdated",
      "type": "event"
    },
    {
      "anonymous": false,
      "inputs": [
        {
          "indexed": true,
          "internalType": "uint256",
          "name": "id",
          "type": "uint256"
        },
        {
          "indexed": false,
          "internalType": "address",
          "name": "maker",
          "type": "address"
        },
        {
          "indexed": false,
          "internalType": "uint256",
          "name": "amount",
          "type": "uint256"
        }
      ],
      "name": "FundsReclaimed",
      "type": "event"
    },
    {
      "anonymous": false,
      "inputs": [
        {
          "indexed": true,
          "internalType": "uint256",
          "name": "programId",
          "type": "uint256"
        },
        {
          "indexed": true,
          "internalType": "string",
          "name": "milestoneId",
          "type": "string"
        },
        {
          "indexed": true,
          "internalType": "address",
          "name": "builder",
          "type": "address"
        },
        {
          "indexed": false,
          "internalType": "uint256",
          "name": "reward",
          "type": "uint256"
        }
      ],
      "name": "MilestoneAccepted",
      "type": "event"
    },
    {
      "anonymous": false,
      "inputs": [
        {
          "indexed": true,
          "internalType": "address",
          "name": "previousOwner",
          "type": "address"
        },
        {
          "indexed": true,
          "internalType": "address",
          "name": "newOwner",
          "type": "address"
        }
      ],
      "name": "OwnershipTransferred",
      "type": "event"
    },
    {
      "anonymous": false,
      "inputs": [
        {
          "indexed": true,
          "internalType": "uint256",
          "name": "id",
          "type": "uint256"
        },
        {
          "indexed": true,
          "internalType": "address",
          "name": "maker",
          "type": "address"
        },
        {
          "indexed": true,
          "internalType": "address",
          "name": "validator",
          "type": "address"
        },
        {
          "indexed": false,
          "internalType": "uint256",
          "name": "price",
          "type": "uint256"
        }
      ],
      "name": "ProgramCreated",
      "type": "event"
    },
    {
      "anonymous": false,
      "inputs": [
        {
          "indexed": false,
          "internalType": "uint256",
          "name": "programId",
          "type": "uint256"
        },
        {
          "indexed": false,
          "internalType": "uint256",
          "name": "price",
          "type": "uint256"
        },
        {
          "indexed": false,
          "internalType": "uint256",
          "name": "startTime",
          "type": "uint256"
        },
        {
          "indexed": false,
          "internalType": "uint256",
          "name": "endTime",
          "type": "uint256"
        },
        {
          "indexed": false,
          "internalType": "address",
          "name": "newValidator",
          "type": "address"
        }
      ],
      "name": "ProgramEdited",
      "type": "event"
    },
    {
      "inputs": [
        {
          "internalType": "uint256",
          "name": "programId",
          "type": "uint256"
        },
        {
          "internalType": "string",
          "name": "milestoneId",
          "type": "string"
        },
        {
          "internalType": "address",
          "name": "builder",
          "type": "address"
        },
        {
          "internalType": "uint256",
          "name": "reward",
          "type": "uint256"
        }
      ],
      "name": "acceptMilestone",
      "outputs": [],
      "stateMutability": "nonpayable",
      "type": "function"
    },
    {
      "inputs": [
        {
          "internalType": "string",
          "name": "_name",
          "type": "string"
        },
        {
          "internalType": "uint256",
          "name": "_price",
          "type": "uint256"
        },
        {
          "internalType": "string[]",
          "name": "_keywords",
          "type": "string[]"
        },
        {
          "internalType": "uint256",
          "name": "_startTime",
          "type": "uint256"
        },
        {
          "internalType": "uint256",
          "name": "_endTime",
          "type": "uint256"
        },
        {
          "internalType": "address",
          "name": "_validator",
          "type": "address"
        },
        {
          "internalType": "string",
          "name": "_summary",
          "type": "string"
        },
        {
          "internalType": "string",
          "name": "_description",
          "type": "string"
        },
        {
          "internalType": "string[]",
          "name": "_links",
          "type": "string[]"
        }
      ],
      "name": "createEduProgram",
      "outputs": [],
      "stateMutability": "payable",
      "type": "function"
    },
    {
      "inputs": [
        {
          "internalType": "uint256",
          "name": "",
          "type": "uint256"
        }
      ],
      "name": "eduPrograms",
      "outputs": [
        {
          "internalType": "uint256",
          "name": "id",
          "type": "uint256"
        },
        {
          "internalType": "string",
          "name": "name",
          "type": "string"
        },
        {
          "internalType": "uint256",
          "name": "price",
          "type": "uint256"
        },
        {
          "internalType": "uint256",
          "name": "startTime",
          "type": "uint256"
        },
        {
          "internalType": "uint256",
          "name": "endTime",
          "type": "uint256"
        },
        {
          "internalType": "string",
          "name": "summary",
          "type": "string"
        },
        {
          "internalType": "string",
          "name": "description",
          "type": "string"
        },
        {
          "internalType": "address",
          "name": "maker",
          "type": "address"
        },
        {
          "internalType": "address",
          "name": "validator",
          "type": "address"
        },
        {
          "internalType": "bool",
          "name": "approve",
          "type": "bool"
        },
        {
          "internalType": "bool",
          "name": "claimed",
          "type": "bool"
        }
      ],
      "stateMutability": "view",
      "type": "function"
    },
    {
      "inputs": [],
      "name": "getFee",
      "outputs": [
        {
          "internalType": "uint256",
          "name": "",
          "type": "uint256"
        }
      ],
      "stateMutability": "view",
      "type": "function"
    },
    {
      "inputs": [],
      "name": "nextProgramId",
      "outputs": [
        {
          "internalType": "uint256",
          "name": "",
          "type": "uint256"
        }
      ],
      "stateMutability": "view",
      "type": "function"
    },
    {
      "inputs": [],
      "name": "owner",
      "outputs": [
        {
          "internalType": "address",
          "name": "",
          "type": "address"
        }
      ],
      "stateMutability": "view",
      "type": "function"
    },
    {
      "inputs": [
        {
          "internalType": "uint256",
          "name": "programId",
          "type": "uint256"
        }
      ],
      "name": "reclaimFunds",
      "outputs": [],
      "stateMutability": "nonpayable",
      "type": "function"
    },
    {
      "inputs": [],
      "name": "renounceOwnership",
      "outputs": [],
      "stateMutability": "nonpayable",
      "type": "function"
    },
    {
      "inputs": [
        {
          "internalType": "uint256",
          "name": "_fee",
          "type": "uint256"
        }
      ],
      "name": "setFee",
      "outputs": [],
      "stateMutability": "nonpayable",
      "type": "function"
    },
    {
      "inputs": [
        {
          "internalType": "address",
          "name": "newOwner",
          "type": "address"
        }
      ],
      "name": "transferOwnership",
      "outputs": [],
      "stateMutability": "nonpayable",
      "type": "function"
    },
    {
      "inputs": [
        {
          "internalType": "uint256",
          "name": "programId",
          "type": "uint256"
        },
        {
          "internalType": "uint256",
          "name": "price",
          "type": "uint256"
        },
        {
          "internalType": "uint256",
          "name": "startTime",
          "type": "uint256"
        },
        {
          "internalType": "uint256",
          "name": "endTime",
          "type": "uint256"
        },
        {
          "internalType": "address",
          "name": "newValidator",
          "type": "address"
        }
      ],
      "name": "updateProgram",
      "outputs": [],
      "stateMutability": "nonpayable",
      "type": "function"
    }
  ],
  "bytecode": "0x60803461007457601f61163338819003918201601f19168301916001600160401b038311848410176100795780849260209460405283398101031261007457516001600160a01b0381168103610074576100659061005c3361008f565b6001805561008f565b60405161155c90816100d78239f35b600080fd5b634e487b7160e01b600052604160045260246000fd5b600080546001600160a01b039283166001600160a01b03198216811783559216907f8be0079c531659141344cd1fd0a4f28419497f9722a3daafe3b4186f6b6457e09080a356fe6080604052600436101561001257600080fd5b60003560e01c806369fe0e2d146111dd578063715018a61461118457806378ea19b01461074557806389001eb1146105dd5780638da5cb5b146105b4578063ba71b33014610596578063ced72f8714610578578063d613fd241461048c578063f2479186146102b2578063f2fde38b146101e75763f9f161a81461009557600080fd5b346101e25760203660031901126101e2576004356100b16114d0565b806000526002602052604060002060058101544211156101a5576009810180546001600160a01b0392908316903382900361016857600a8101805460ff60a81b1916600160a81b1790556003018054909160009182918291829182821561015f575bf115610153577fd37c0b9c7560299a7c963d03165111d712663805228e5ffca03d540c5d6e410e926040925416905482519182526020820152a260018055005b6040513d6000823e3d90fd5b506108fc610113565b60405162461bcd60e51b81526020600482015260156024820152742737ba103a343290383937b3b930b69036b0b5b2b960591b6044820152606490fd5b60405162461bcd60e51b8152602060048201526015602482015274141c9bd9dc985b481b9bdd08195b991959081e595d605a1b6044820152606490fd5b600080fd5b346101e25760203660031901126101e2576004356001600160a01b03818116918290036101e257610216611461565b811561025e57600054826bffffffffffffffffffffffff60a01b821617600055167f8be0079c531659141344cd1fd0a4f28419497f9722a3daafe3b4186f6b6457e0600080a3005b60405162461bcd60e51b815260206004820152602660248201527f4f776e61626c653a206e6577206f776e657220697320746865207a65726f206160448201526564647265737360d01b6064820152608490fd5b346101e25760803660031901126101e2576004356024356001600160401b0381116101e2576102e5903690600401611260565b6001600160a01b03604435818116939192908490036101e2576064359261030a6114d0565b8260005260209060028252604060002090600a8201541633036104575760030180548511610412578447106103cd576000858781156103c3575b600092839283928392f115610153578054928584039384116103ad577f0283d9e3f5cdb8281e6971895ed99be8f40753cdb7e6afbc25c97e2b3462a9e49361039a92558260405192828480945193849201611419565b810103902093604051908152a460018055005b634e487b7160e01b600052601160045260246000fd5b6108fc9250610344565b60405162461bcd60e51b815260048101839052601d60248201527f496e73756666696369656e7420636f6e74726163742062616c616e63650000006044820152606490fd5b60405162461bcd60e51b815260048101839052601e60248201527f52657761726420657863656564732070726f6772616d2062616c616e636500006044820152606490fd5b60405162461bcd60e51b815260048101839052600d60248201526c2737ba103b30b634b230ba37b960991b6044820152606490fd5b346101e25760203660031901126101e2576004356000526002602052604060002080546104bb60018301611373565b9160ff600382015460048301549061054c60058501549161053e6104e160068801611373565b916104ee60078901611373565b9260018060a01b0395600a8760098c0154169a0154976105216040519d8e9d8e528d61016090816020820152019061143c565b9360408d015260608c015260808b015289820360a08b015261143c565b9087820360c089015261143c565b9360e08601528116610100850152818160a01c16151561012085015260a81c1615156101408301520390f35b346101e25760003660031901126101e2576020600454604051908152f35b346101e25760003660031901126101e2576020600354604051908152f35b346101e25760003660031901126101e2576000546040516001600160a01b039091168152602090f35b346101e25760a03660031901126101e2576024356001600160a01b036004356084358281169060643590604435908390036101e257836000526002602052604060002094600986015416330361071157818110156106dd5785156106a85785600a867fe3d59d03839a10c8a5a85dd0d7e5a4ac45445821c5176529d2745adf6915a16198600360a099015583600482015584600582015501846bffffffffffffffffffffffff881b8254161790556040519485526020850152604084015260608301526080820152a1005b60405162461bcd60e51b815260206004820152600d60248201526c496e76616c696420707269636560981b6044820152606490fd5b60405162461bcd60e51b815260206004820152600c60248201526b496e76616c69642074696d6560a01b6044820152606490fd5b60405162461bcd60e51b815260206004820152600c60248201526b27b7363c9031b932b0ba37b960a11b6044820152606490fd5b6101203660031901126101e2576004356001600160401b0381116101e257610771903690600401611260565b6044356001600160401b0381116101e2576107909036906004016112b6565b9060a4356001600160a01b03811681036101e25760c4356001600160401b0381116101e2576107c3903690600401611260565b9160e4356001600160401b0381116101e2576107e3903690600401611260565b610104356001600160401b0381116101e2576108039036906004016112b6565b906024948535340361112a5760843560643510156110cc576003549660405194856101a08101106001600160401b036101a0880111176110b7576101a086016040528886526020860152604085015285356060850152606435608085015260843560a085015260c084015260e08301526101008201523361012082015260018060a01b0382166101408201526000610160820152600061018082015283600052600260205260406000208151815560208201518051906001600160401b038211610cf45781906108d66001850154611339565b601f8111611082575b50602090601f831160011461101057600092611005575b50508160011b916000199060031b1c19161760018201555b6040820151805190600160401b8211610cf4576002830154826002850155808310610f8d575b506020016002830160005260206000206000915b838310610e6d5750505050606082015160038201556080820151600482015560a0820151600582015560c08201518051906001600160401b038211610cf45781906109966006850154611339565b601f8111610e38575b50602090601f8311600114610dc657600092610dbb575b50508160011b916000199060031b1c19161760068201555b60e08201518051906001600160401b038211610cf45781906109f36007850154611339565b601f8111610d86575b50602090601f8311600114610d1457600092610d09575b50508160011b916000199060031b1c19161760078201555b610100820151805190600160401b8211610cf4576008830154826008850155808310610c7c575b506020016008830160005260206000206000915b838310610b4757505050506101208201516009820180546001600160a01b0319166001600160a01b03928316179055610140830151600a9092018054610160850151610180909501516001600160b01b0319909116939092169290921792151560a01b60ff60a01b169290921791151560a81b60ff60a81b169190911790556003546000198114610b3257600101600355604051913582526001600160a01b03169133917f808c887919683a350ed55b3499f97ed7f4093ecc5e131fadb8b075a85457af3a90602090a4005b82634e487b7160e01b60005260116004526000fd5b80518051906001600160401b038211610c6757610b648454611339565b601f8111610c2a575b50602090601f8311600114610bba579282600194936020938695600092610baf575b5050600019600383901b1c191690841b1785555b01920192019190610a66565b015190508e80610b8f565b908460005260206000209160005b601f1985168110610c12575083602093600196938796938794601f19811610610bf9575b505050811b018555610ba3565b015160001960f88460031b161c191690558e8080610bec565b91926020600181928685015181550194019201610bc8565b610c5790856000526020600020601f850160051c81019160208610610c5d575b601f0160051c01906114b9565b8b610b6d565b9091508190610c4a565b89634e487b7160e01b60005260416004526000fd5b600884016000526020600020908382015b8183018110610c9d575050610a52565b80610caa60019254611339565b80610cb7575b5001610c8d565b601f81118314610ccd5750600081555b8b610cb0565b600090828252610ceb601f60208420920160051c82018583016114b9565b81835555610cc7565b85634e487b7160e01b60005260416004526000fd5b015190508780610a13565b9250600784016000526020600020906000935b601f1984168510610d6b576001945083601f19811610610d52575b505050811b016007820155610a2b565b015160001960f88460031b161c19169055878080610d42565b81810151835560209485019460019093019290910190610d27565b610db590600786016000526020600020601f850160051c81019160208610610c5d57601f0160051c01906114b9565b886109fc565b0151905087806109b6565b9250600684016000526020600020906000935b601f1984168510610e1d576001945083601f19811610610e04575b505050811b0160068201556109ce565b015160001960f88460031b161c19169055878080610df4565b81810151835560209485019460019093019290910190610dd9565b610e6790600686016000526020600020601f850160051c81019160208610610c5d57601f0160051c01906114b9565b8861099f565b80518051906001600160401b038211610c6757610e8a8454611339565b601f8111610f50575b50602090601f8311600114610ee0579282600194936020938695600092610ed5575b5050600019600383901b1c191690841b1785555b01920192019190610948565b015190508e80610eb5565b908460005260206000209160005b601f1985168110610f38575083602093600196938796938794601f19811610610f1f575b505050811b018555610ec9565b015160001960f88460031b161c191690558e8080610f12565b91926020600181928685015181550194019201610eee565b610f7d908560005260206000206005601f8601811c82019260208710610f83575b601f01901c01906114b9565b8b610e93565b9192508291610f71565b600284016000526020600020908382015b8183018110610fae575050610934565b80610fbb60019254611339565b80610fc8575b5001610f9e565b601f81118314610fde5750600081555b8b610fc1565b600090828252610ffc601f60208420920160051c82018583016114b9565b81835555610fd8565b0151905087806108f6565b9250600184016000526020600020906000935b601f1984168510611067576001945083601f1981161061104e575b505050811b01600182015561090e565b015160001960f88460031b161c1916905587808061103e565b81810151835560209485019460019093019290910190611023565b6110b190600186016000526020600020601f850160051c81019160208610610c5d57601f0160051c01906114b9565b886108df565b87634e487b7160e01b60005260416004526000fd5b60405162461bcd60e51b8152602060048201526031818801527f5468652053746172742074696d65206d757374206265206561726c69657220746044820152703430b7103a34329032b732103a34b6b29760791b6064820152608490fd5b60405162461bcd60e51b815260206004820152602d818801527f546865204554482073656e7420646f6573206e6f74206d61746368207468652060448201526c70726f6772616d20707269636560981b6064820152608490fd5b346101e25760003660031901126101e25761119d611461565b600080546001600160a01b0319811682556001600160a01b03167f8be0079c531659141344cd1fd0a4f28419497f9722a3daafe3b4186f6b6457e08280a3005b346101e25760203660031901126101e2577f8c4d35e54a3f2ef1134138fd8ea3daee6a3c89e10d2665996babdf70261e2c76602060043561121c611461565b80600455604051908152a1005b90601f801991011681019081106001600160401b0382111761124a57604052565b634e487b7160e01b600052604160045260246000fd5b81601f820112156101e2578035906001600160401b03821161124a5760405192611294601f8401601f191660200185611229565b828452602083830101116101e257816000926020809301838601378301015290565b9080601f830112156101e2578135906001600160401b039283831161124a578260051b604051946020946112ec86840188611229565b86528480870192840101938085116101e257858401925b858410611314575050505050505090565b83358381116101e257879161132e848480948a0101611260565b815201930192611303565b90600182811c92168015611369575b602083101461135357565b634e487b7160e01b600052602260045260246000fd5b91607f1691611348565b906040519182600082549261138784611339565b9081845260019485811690816000146113f657506001146113b3575b50506113b192500383611229565b565b9093915060005260209081600020936000915b8183106113de5750506113b1935082010138806113a3565b855488840185015294850194879450918301916113c6565b9150506113b194506020925060ff191682840152151560051b82010138806113a3565b60005b83811061142c5750506000910152565b818101518382015260200161141c565b9060209161145581518092818552858086019101611419565b601f01601f1916010190565b6000546001600160a01b0316330361147557565b606460405162461bcd60e51b815260206004820152602060248201527f4f776e61626c653a2063616c6c6572206973206e6f7420746865206f776e65726044820152fd5b8181106114c4575050565b600081556001016114b9565b6002600154146114e1576002600155565b60405162461bcd60e51b815260206004820152601f60248201527f5265656e7472616e637947756172643a207265656e7472616e742063616c6c006044820152606490fdfea2646970667358221220e2e7d6b19ee53e2fc21c2a6397e92aba4eb5dbf8110dee95884f2cb2f6639b2164736f6c63430008140033",
  "linkReferences": {},
  "deployedLinkReferences": {}
}