{
  "_format": "hh-sol-artifact-1",
  "contractName": "LdEduProgram",
  "sourceName": "contracts/LdEduProgram.sol",
  "abi": [
    {
      "inputs": [
        {
          "internalType": "address",
          "name": "initialOwner",
          "type": "address"
        }
      ],
      "stateMutability": "nonpayable",
      "type": "constructor"
    },
    {
      "anonymous": false,
      "inputs": [
        {
          "indexed": true,
          "internalType": "uint256",
          "name": "programId",
          "type": "uint256"
        },
        {
          "indexed": false,
          "internalType": "uint256",
          "name": "applicationId",
          "type": "uint256"
        },
        {
          "indexed": false,
          "internalType": "address",
          "name": "builder",
          "type": "address"
        },
        {
          "indexed": false,
          "internalType": "uint256[]",
          "name": "milestoneIds",
          "type": "uint256[]"
        }
      ],
      "name": "ApplicationSelected",
      "type": "event"
    },
    {
      "anonymous": false,
      "inputs": [
        {
          "indexed": false,
          "internalType": "uint256",
          "name": "newFee",
          "type": "uint256"
        }
      ],
      "name": "FeeUpdated",
      "type": "event"
    },
    {
      "anonymous": false,
      "inputs": [
        {
          "indexed": true,
          "internalType": "uint256",
          "name": "id",
          "type": "uint256"
        },
        {
          "indexed": false,
          "internalType": "address",
          "name": "maker",
          "type": "address"
        },
        {
          "indexed": false,
          "internalType": "uint256",
          "name": "amount",
          "type": "uint256"
        }
      ],
      "name": "FundsReclaimed",
      "type": "event"
    },
    {
      "anonymous": false,
      "inputs": [
        {
          "indexed": true,
          "internalType": "uint256",
          "name": "id",
          "type": "uint256"
        },
        {
          "indexed": false,
          "internalType": "uint256",
          "name": "milestoneId",
          "type": "uint256"
        },
        {
          "indexed": false,
          "internalType": "uint256",
          "name": "reward",
          "type": "uint256"
        }
      ],
      "name": "MilestoneAccepted",
      "type": "event"
    },
    {
      "anonymous": false,
      "inputs": [
        {
          "indexed": true,
          "internalType": "uint256",
          "name": "id",
          "type": "uint256"
        },
        {
          "indexed": false,
          "internalType": "uint256",
          "name": "milestoneId",
          "type": "uint256"
        }
      ],
      "name": "MilestoneRejected",
      "type": "event"
    },
    {
      "anonymous": false,
      "inputs": [
        {
          "indexed": true,
          "internalType": "uint256",
          "name": "id",
          "type": "uint256"
        },
        {
          "indexed": false,
          "internalType": "uint256",
          "name": "milestoneId",
          "type": "uint256"
        },
        {
          "indexed": false,
          "internalType": "string[]",
          "name": "links",
          "type": "string[]"
        }
      ],
      "name": "MilestoneSubmitted",
      "type": "event"
    },
    {
      "anonymous": false,
      "inputs": [
        {
          "indexed": true,
          "internalType": "address",
          "name": "previousOwner",
          "type": "address"
        },
        {
          "indexed": true,
          "internalType": "address",
          "name": "newOwner",
          "type": "address"
        }
      ],
      "name": "OwnershipTransferred",
      "type": "event"
    },
    {
      "anonymous": false,
      "inputs": [
        {
          "indexed": true,
          "internalType": "uint256",
          "name": "id",
          "type": "uint256"
        }
      ],
      "name": "ProgramApplied",
      "type": "event"
    },
    {
      "anonymous": false,
      "inputs": [
        {
          "indexed": true,
          "internalType": "uint256",
          "name": "programId",
          "type": "uint256"
        }
      ],
      "name": "ProgramApproved",
      "type": "event"
    },
    {
      "anonymous": false,
      "inputs": [
        {
          "indexed": true,
          "internalType": "uint256",
          "name": "id",
          "type": "uint256"
        },
        {
          "indexed": false,
          "internalType": "address",
          "name": "builder",
          "type": "address"
        },
        {
          "indexed": false,
          "internalType": "uint256",
          "name": "amount",
          "type": "uint256"
        }
      ],
      "name": "ProgramClaimed",
      "type": "event"
    },
    {
      "anonymous": false,
      "inputs": [
        {
          "indexed": true,
          "internalType": "uint256",
          "name": "id",
          "type": "uint256"
        },
        {
          "indexed": true,
          "internalType": "address",
          "name": "maker",
          "type": "address"
        },
        {
          "indexed": true,
          "internalType": "address",
          "name": "validator",
          "type": "address"
        },
        {
          "indexed": false,
          "internalType": "uint256",
          "name": "price",
          "type": "uint256"
        }
      ],
      "name": "ProgramCreated",
      "type": "event"
    },
    {
      "anonymous": false,
      "inputs": [
        {
          "indexed": false,
          "internalType": "uint256",
          "name": "programId",
          "type": "uint256"
        },
        {
          "indexed": false,
          "internalType": "uint256",
          "name": "price",
          "type": "uint256"
        },
        {
          "indexed": false,
          "internalType": "uint256",
          "name": "startTime",
          "type": "uint256"
        },
        {
          "indexed": false,
          "internalType": "uint256",
          "name": "endTime",
          "type": "uint256"
        },
        {
          "indexed": false,
          "internalType": "address",
          "name": "newValidator",
          "type": "address"
        }
      ],
      "name": "ProgramEdited",
      "type": "event"
    },
    {
      "inputs": [
        {
          "internalType": "uint256",
          "name": "programId",
          "type": "uint256"
        },
        {
          "internalType": "uint256",
          "name": "milestoneId",
          "type": "uint256"
        }
      ],
      "name": "acceptMilestone",
      "outputs": [],
      "stateMutability": "nonpayable",
      "type": "function"
    },
    {
      "inputs": [
        {
          "internalType": "uint256",
          "name": "programId",
          "type": "uint256"
        }
      ],
      "name": "approveProgram",
      "outputs": [],
      "stateMutability": "nonpayable",
      "type": "function"
    },
    {
      "inputs": [
        {
          "internalType": "string",
          "name": "_name",
          "type": "string"
        },
        {
          "internalType": "uint256",
          "name": "_price",
          "type": "uint256"
        },
        {
          "internalType": "string",
          "name": "_keywords",
          "type": "string"
        },
        {
          "internalType": "uint256",
          "name": "_startTime",
          "type": "uint256"
        },
        {
          "internalType": "uint256",
          "name": "_endTime",
          "type": "uint256"
        },
        {
          "internalType": "address",
          "name": "_validator",
          "type": "address"
        },
        {
          "internalType": "string",
          "name": "_summary",
          "type": "string"
        },
        {
          "internalType": "string",
          "name": "_description",
          "type": "string"
        },
        {
          "internalType": "string[]",
          "name": "_links",
          "type": "string[]"
        }
      ],
      "name": "createEduProgram",
      "outputs": [],
      "stateMutability": "payable",
      "type": "function"
    },
    {
      "inputs": [
        {
          "internalType": "uint256",
          "name": "",
          "type": "uint256"
        }
      ],
      "name": "eduPrograms",
      "outputs": [
        {
          "internalType": "uint256",
          "name": "id",
          "type": "uint256"
        },
        {
          "internalType": "string",
          "name": "name",
          "type": "string"
        },
        {
          "internalType": "string",
          "name": "keywords",
          "type": "string"
        },
        {
          "internalType": "uint256",
          "name": "price",
          "type": "uint256"
        },
        {
          "internalType": "uint256",
          "name": "startTime",
          "type": "uint256"
        },
        {
          "internalType": "uint256",
          "name": "endTime",
          "type": "uint256"
        },
        {
          "internalType": "string",
          "name": "summary",
          "type": "string"
        },
        {
          "internalType": "string",
          "name": "description",
          "type": "string"
        },
        {
          "internalType": "address",
          "name": "maker",
          "type": "address"
        },
        {
          "internalType": "address",
          "name": "validator",
          "type": "address"
        },
        {
          "internalType": "bool",
          "name": "approve",
          "type": "bool"
        },
        {
          "internalType": "bool",
          "name": "claimed",
          "type": "bool"
        },
        {
          "internalType": "address",
          "name": "builder",
          "type": "address"
        }
      ],
      "stateMutability": "view",
      "type": "function"
    },
    {
      "inputs": [],
      "name": "getFee",
      "outputs": [
        {
          "internalType": "uint256",
          "name": "",
          "type": "uint256"
        }
      ],
      "stateMutability": "view",
      "type": "function"
    },
    {
      "inputs": [
        {
          "internalType": "uint256",
          "name": "programId",
          "type": "uint256"
        }
      ],
      "name": "getMilestones",
      "outputs": [
        {
          "components": [
            {
              "internalType": "uint256",
              "name": "id",
              "type": "uint256"
            },
            {
              "internalType": "string",
              "name": "name",
              "type": "string"
            },
            {
              "internalType": "string",
              "name": "description",
              "type": "string"
            },
            {
              "internalType": "uint256",
              "name": "price",
              "type": "uint256"
            },
            {
              "internalType": "enum LdEduProgram.MilestoneStatus",
              "name": "status",
              "type": "uint8"
            },
            {
              "internalType": "string[]",
              "name": "links",
              "type": "string[]"
            }
          ],
          "internalType": "struct LdEduProgram.Milestone[]",
          "name": "",
          "type": "tuple[]"
        }
      ],
      "stateMutability": "view",
      "type": "function"
    },
    {
      "inputs": [
        {
          "internalType": "uint256",
          "name": "",
          "type": "uint256"
        },
        {
          "internalType": "uint256",
          "name": "",
          "type": "uint256"
        }
      ],
      "name": "milestoneIds",
      "outputs": [
        {
          "internalType": "uint256",
          "name": "",
          "type": "uint256"
        }
      ],
      "stateMutability": "view",
      "type": "function"
    },
    {
      "inputs": [
        {
          "internalType": "uint256",
          "name": "",
          "type": "uint256"
        }
      ],
      "name": "nextApplicationId",
      "outputs": [
        {
          "internalType": "uint256",
          "name": "",
          "type": "uint256"
        }
      ],
      "stateMutability": "view",
      "type": "function"
    },
    {
      "inputs": [
        {
          "internalType": "uint256",
          "name": "",
          "type": "uint256"
        }
      ],
      "name": "nextMilestoneId",
      "outputs": [
        {
          "internalType": "uint256",
          "name": "",
          "type": "uint256"
        }
      ],
      "stateMutability": "view",
      "type": "function"
    },
    {
      "inputs": [],
      "name": "nextProgramId",
      "outputs": [
        {
          "internalType": "uint256",
          "name": "",
          "type": "uint256"
        }
      ],
      "stateMutability": "view",
      "type": "function"
    },
    {
      "inputs": [],
      "name": "owner",
      "outputs": [
        {
          "internalType": "address",
          "name": "",
          "type": "address"
        }
      ],
      "stateMutability": "view",
      "type": "function"
    },
    {
      "inputs": [
        {
          "internalType": "uint256",
          "name": "",
          "type": "uint256"
        },
        {
          "internalType": "uint256",
          "name": "",
          "type": "uint256"
        }
      ],
      "name": "programApplications",
      "outputs": [
        {
          "internalType": "uint256",
          "name": "id",
          "type": "uint256"
        },
        {
          "internalType": "address",
          "name": "builder",
          "type": "address"
        },
        {
          "internalType": "enum LdEduProgram.ApplicationStatus",
          "name": "status",
          "type": "uint8"
        }
      ],
      "stateMutability": "view",
      "type": "function"
    },
    {
      "inputs": [
        {
          "internalType": "uint256",
          "name": "",
          "type": "uint256"
        },
        {
          "internalType": "uint256",
          "name": "",
          "type": "uint256"
        }
      ],
      "name": "programMilestones",
      "outputs": [
        {
          "internalType": "uint256",
          "name": "id",
          "type": "uint256"
        },
        {
          "internalType": "string",
          "name": "name",
          "type": "string"
        },
        {
          "internalType": "string",
          "name": "description",
          "type": "string"
        },
        {
          "internalType": "uint256",
          "name": "price",
          "type": "uint256"
        },
        {
          "internalType": "enum LdEduProgram.MilestoneStatus",
          "name": "status",
          "type": "uint8"
        }
      ],
      "stateMutability": "view",
      "type": "function"
    },
    {
      "inputs": [
        {
          "internalType": "uint256",
          "name": "programId",
          "type": "uint256"
        }
      ],
      "name": "reclaimFunds",
      "outputs": [],
      "stateMutability": "nonpayable",
      "type": "function"
    },
    {
      "inputs": [
        {
          "internalType": "uint256",
          "name": "programId",
          "type": "uint256"
        },
        {
          "internalType": "uint256",
          "name": "milestoneId",
          "type": "uint256"
        }
      ],
      "name": "rejectMilestone",
      "outputs": [],
      "stateMutability": "nonpayable",
      "type": "function"
    },
    {
      "inputs": [],
      "name": "renounceOwnership",
      "outputs": [],
      "stateMutability": "nonpayable",
      "type": "function"
    },
    {
      "inputs": [
        {
          "internalType": "uint256",
          "name": "programId",
          "type": "uint256"
        },
        {
          "internalType": "uint256",
          "name": "applicationId",
          "type": "uint256"
        },
        {
          "internalType": "bool",
          "name": "isSelected",
          "type": "bool"
        }
      ],
      "name": "selectApplication",
      "outputs": [],
      "stateMutability": "nonpayable",
      "type": "function"
    },
    {
      "inputs": [
        {
          "internalType": "uint256",
          "name": "",
          "type": "uint256"
        }
      ],
      "name": "selectedApplicationIndex",
      "outputs": [
        {
          "internalType": "uint256",
          "name": "",
          "type": "uint256"
        }
      ],
      "stateMutability": "view",
      "type": "function"
    },
    {
      "inputs": [
        {
          "internalType": "uint256",
          "name": "_fee",
          "type": "uint256"
        }
      ],
      "name": "setFee",
      "outputs": [],
      "stateMutability": "nonpayable",
      "type": "function"
    },
    {
      "inputs": [
        {
          "internalType": "uint256",
          "name": "programId",
          "type": "uint256"
        },
        {
          "internalType": "string[]",
          "name": "names",
          "type": "string[]"
        },
        {
          "internalType": "string[]",
          "name": "descriptions",
          "type": "string[]"
        },
        {
          "internalType": "uint256[]",
          "name": "prices",
          "type": "uint256[]"
        }
      ],
      "name": "submitApplication",
      "outputs": [],
      "stateMutability": "nonpayable",
      "type": "function"
    },
    {
      "inputs": [
        {
          "internalType": "uint256",
          "name": "programId",
          "type": "uint256"
        },
        {
          "internalType": "uint256",
          "name": "milestoneId",
          "type": "uint256"
        },
        {
          "internalType": "string[]",
          "name": "links",
          "type": "string[]"
        }
      ],
      "name": "submitMilestone",
      "outputs": [],
      "stateMutability": "nonpayable",
      "type": "function"
    },
    {
      "inputs": [
        {
          "internalType": "address",
          "name": "newOwner",
          "type": "address"
        }
      ],
      "name": "transferOwnership",
      "outputs": [],
      "stateMutability": "nonpayable",
      "type": "function"
    },
    {
      "inputs": [
        {
          "internalType": "uint256",
          "name": "programId",
          "type": "uint256"
        },
        {
          "internalType": "uint256",
          "name": "price",
          "type": "uint256"
        },
        {
          "internalType": "uint256",
          "name": "startTime",
          "type": "uint256"
        },
        {
          "internalType": "uint256",
          "name": "endTime",
          "type": "uint256"
        },
        {
          "internalType": "address",
          "name": "newValidator",
          "type": "address"
        }
      ],
      "name": "updateProgram",
      "outputs": [],
      "stateMutability": "nonpayable",
      "type": "function"
    }
  ],
  "bytecode": "0x6080346200007e57601f62002c8f38819003918201601f19168301916001600160401b0383118484101762000083578084926020946040528339810103126200007e57516001600160a01b03811681036200007e576200006e90620000643362000099565b6001805562000099565b604051612bae9081620000e18239f35b600080fd5b634e487b7160e01b600052604160045260246000fd5b600080546001600160a01b039283166001600160a01b03198216811783559216907f8be0079c531659141344cd1fd0a4f28419497f9722a3daafe3b4186f6b6457e09080a356fe6080604052600436101561001257600080fd5b60003560e01c80633abe6bd71461254357806342c549c0146122565780634942ec0214611b81578063544aabd014611b4257806369fe0e2d14611af6578063715018a614611a9d5780637d5cae0314611a3757806383472f5b14611a0b57806389001eb1146118a85780638da5cb5b1461187f578063919af1da146110c657806393eb102614610f455780639e57d58914610c07578063a112ed4e14610672578063a1a5729614610646578063b0d456ac146105b1578063ba71b33014610593578063ced72f8714610575578063d201593f146104e0578063d613fd24146103c3578063f2fde38b146102fd578063f6c78263146102d15763f9f161a81461011957600080fd5b346102cc5760203660031901126102cc57600435610135612b22565b8060005260026020526040600020600a810190815461015a60ff8260a01c1615612a92565b60ff8160a81c1661029557600582015442111561025857600982019260018060a01b0391828554169384330361021b5760ff60a81b19909116600160a81b1790915560030180549092600091829182918291828215610212575bf115610206579154905460408051929093166001600160a01b0316825260208201527fd37c0b9c7560299a7c963d03165111d712663805228e5ffca03d540c5d6e410e91819081015b0390a260018055005b6040513d6000823e3d90fd5b506108fc6101b4565b60405162461bcd60e51b81526020600482015260156024820152742737ba103a343290383937b3b930b69036b0b5b2b960591b6044820152606490fd5b60405162461bcd60e51b8152602060048201526015602482015274141c9bd9dc985b481b9bdd08195b991959081e595d605a1b6044820152606490fd5b60405162461bcd60e51b815260206004820152600f60248201526e105b1c9958591e4818db185a5b5959608a1b6044820152606490fd5b600080fd5b346102cc5760203660031901126102cc5760043560005260066020526020604060002054604051908152f35b346102cc5760203660031901126102cc576004356001600160a01b03818116918290036102cc5761032c6128c7565b811561036f57600054826001600160601b0360a01b821617600055167f8be0079c531659141344cd1fd0a4f28419497f9722a3daafe3b4186f6b6457e0600080a3005b60405162461bcd60e51b815260206004820152602660248201527f4f776e61626c653a206e6577206f776e657220697320746865207a65726f206160448201526564647265737360d01b6064820152608490fd5b346102cc5760203660031901126102cc57600435600052600260205260406000208054600182016103f390612821565b9161040060028201612821565b60038201546004830154600584015490939161041e60068401612821565b61042a60078501612821565b91600160a01b6001900393846009870154169785600a88015497600b015416976040519b8c9b8c528b6101a06020819201528c01610467916125fc565b8b810360408d0152610478916125fc565b9260608b015260808a015260a089015287810360c0890152610499916125fc565b86810360e08801526104aa916125fc565b9361010086015281166101208501528060a01c60ff16151561014085015260a81c60ff1615156101608401526101808301520390f35b346102cc576104ee366125e6565b9060005260046020526040600020906000526020526040600020805461051660018301612821565b9161057161052660028301612821565b61056160ff600460038601549501541691610553604051978897885260a0602089015260a08801906125fc565b9086820360408801526125fc565b926060850152608084019061263c565b0390f35b346102cc5760003660031901126102cc576020600a54604051908152f35b346102cc5760003660031901126102cc576020600954604051908152f35b346102cc5760203660031901126102cc576004356000818152600260205260409020600a810180549091610600906005906105f6336001600160a01b03861614612a1a565b0154421115612a56565b61061060ff8260a01c1615612a92565b60ff60a01b1916600160a01b1790557f3ca3d218d64ea45c582c714d84dcdfd87f8d3cb3a3449fe533c2cb6d614ab766600080a2005b346102cc5760203660031901126102cc5760043560005260076020526020604060002054604051908152f35b346102cc5760803660031901126102cc576004356024356001600160401b0381116102cc576106a59036906004016127b7565b90916044356001600160401b0381116102cc576106c69036906004016127b7565b906064356001600160401b0381116102cc576106e69036906004016127b7565b929091846000526002602052604060002061070660058201544210612a56565b82871480610bfe575b15610bc85760009060005b868110610b9257506003015403610b4e576107789185600052600760205261076c60406000209889549961074d8b612a0b565b90556040519861075c8a612693565b8a8a523360208b01523691612748565b60408801523691612748565b606085015261078682612731565b9161079460405193846126ae565b808352602083019060051b8201913683116102cc57905b828210610b3e575050506080830152600060a0830152600052600360205260406000208054600160401b811015610952576107eb91600182018155612677565b610b2857815181556001810160018060a01b036020840151166001600160601b0360a01b825416179055600281016040830151602081519161082d838561297b565b01916000526020600020916000905b828210610a4b5750505050600381016060830151602081519161085f838561297b565b01916000526020600020916000905b8282106109685750505050600481016080830151908151916001600160401b03831161095257600160401b8311610952576020908254848455808510610935575b500190600052602060002060005b83811061092157868660a060058801910151600381101561090b5760ff801983541691161790557f722325134a63ac150749cede63bb76d659fc9e4d78e10764480c6c79d283dc4f600080a2005b634e487b7160e01b600052602160045260246000fd5b6001906020845194019381840155016108bd565b61094c90846000528584600020918201910161291f565b876108af565b634e487b7160e01b600052604160045260246000fd5b80518051906001600160401b0382116109525761098f8261098988546127e7565b88612936565b602090601f83116001146109db5792826001949360209386956000926109d0575b5050600019600383901b1c191690841b1787555b0194019101909261086e565b015190508c806109b0565b908660005260206000209160005b601f1985168110610a33575083602093600196938796938794601f19811610610a1a575b505050811b0187556109c4565b015160001960f88460031b161c191690558c8080610a0d565b919260206001819286850151815501940192016109e9565b80518051906001600160401b03821161095257610a6c8261098988546127e7565b602090601f8311600114610ab8579282600194936020938695600092610aad575b5050600019600383901b1c191690841b1787555b0194019101909261083c565b015190508c80610a8d565b908660005260206000209160005b601f1985168110610b10575083602093600196938796938794601f19811610610af7575b505050811b018755610aa1565b015160001960f88460031b161c191690558c8080610aea565b91926020600181928685015181550194019201610ac6565b634e487b7160e01b600052600060045260246000fd5b81358152602091820191016107ab565b606460405162461bcd60e51b815260206004820152602060248201527f4d696c6573746f6e6520746f74616c20213d2070726f6772616d2070726963656044820152fd5b918260051b8601358101809111610bb257610bad9092612a0b565b61071a565b634e487b7160e01b600052601160045260246000fd5b60405162461bcd60e51b815260206004820152600e60248201526d092dce0eae840dad2e6dac2e8c6d60931b6044820152606490fd5b5084871461070f565b346102cc5760603660031901126102cc576004356024356001600160401b036044358181116102cc57610c3e9036906004016127b7565b84600052602060028152604060002060ff600a82015460a01c1615610f0957600b01546001600160a01b03163303610ed75785600052600481526040600020856000528152604060002092600484019384549460ff8616600481101561090b57610e9e57906005916001979695949397809660ff191617905501610cc2838261297b565b600090815281812090865b848210610d9c5750505081604051966040880190885260408389015252606086019460608360051b8801019581956000925b858410610d2f578a7fbaa1ee362891351add36bb95f60ba8e4031d4c60ece483917c0dc053d7b2c3d78b8b038ca2005b9091929394959697605f198a82030184528835601e19833603018112156102cc5782018681019190358481116102cc5780360383136102cc57878282808d96849695859652848401376000828201840152601f01601f191601019a01989796959190910193019190610cff565b8097939495969735601e19853603018112156102cc5784019081358981116102cc57803603878401136102cc57889181610de18993610ddb89546127e7565b89612936565b6000601f8211600114610e2f578382918697600093610e22575b505050600019600383901b1c191690841b1786555b01930191019091969594939296610ccd565b0101359050833880610dfb565b94601f1982169588600052846000209660005b818110610e83575091858798928589969510610e67575b50505050811b018655610e10565b60001960f88660031b161c19920101351690558f808581610e59565b838301870135895596909701968d968c969283019201610e42565b60405162461bcd60e51b8152600481018590526011602482015270105b1c9958591e481cdd589b5a5d1d1959607a1b6044820152606490fd5b6064906040519062461bcd60e51b82526004820152600b60248201526a2737ba10313ab4b63232b960a91b6044820152fd5b60405162461bcd60e51b8152600481018390526014602482015273141c9bd9dc985b481b9bdd08185c1c1c9bdd995960621b6044820152606490fd5b346102cc57610f53366125e6565b90610f5c612b22565b80600052602060028152604060002060018060a01b0390610f8482600a830154163314612a1a565b83600052600483526040600020856000528352604060002090600482019081549160ff8316600481101561090b57600b93610fc3600160029314612ae5565b60ff1916179055019060008080806003878754169501948554905af13d156110c1573d610fef816126cf565b90610ffd60405192836126ae565b81526000863d92013e5b1561108657937f27d841e82fb3b2469e89e27c70f2ec8597324e08569a13460e4dd8a1a3c0b10c604082977f7099040ff4abf6b015bd1004cbf11ec796c3d4abcaec3514db1c93599297d39f975480978351928352820152a25460408051929091166001600160a01b03168252602082019290925290819081016101fd565b60405162461bcd60e51b8152600481018590526013602482015272115512081d1c985b9cd9995c8819985a5b1959606a1b6044820152606490fd5b611007565b6101203660031901126102cc576004356001600160401b0381116102cc576110f29036906004016126ea565b6044356001600160401b0381116102cc576111119036906004016126ea565b9060a435906001600160a01b03821682036102cc5760c4356001600160401b0381116102cc576111459036906004016126ea565b60e4356001600160401b0381116102cc576111649036906004016126ea565b610104356001600160401b0381116102cc57366023820112156102cc57611195903690602481600401359101612748565b9160243534036118245760843560643510156117c5576009549560405194856101c08101106001600160401b036101c088011117610952576101c08601604052878652602086015260408501526024356060850152606435608085015260843560a085015260c084015260e08301526101008201523361012082015260018060a01b0382166101408201526000610160820152600061018082015260006101a082015282600052600260205260406000208151815560208201518051906001600160401b03821161095257819061127c8261127360018701546127e7565b60018701612936565b602090601f831160011461175357600092611748575b50508160011b916000199060031b1c19161760018201555b60408201518051906001600160401b0382116109525781906112dc826112d360028701546127e7565b60028701612936565b602090601f83116001146116d6576000926116cb575b50508160011b916000199060031b1c19161760028201555b606082015160038201556080820151600482015560a0820151600582015560c08201518051906001600160401b03821161095257819061135a8261135160068701546127e7565b60068701612936565b602090601f83116001146116595760009261164e575b50508160011b916000199060031b1c19161760068201555b60e08201518051906001600160401b0382116109525781906113ba826113b160078701546127e7565b60078701612936565b602090601f83116001146115dc576000926115d1575b50508160011b916000199060031b1c19161760078201555b600881016101008301516020815191611401838561297b565b01916000526020600020916000905b8282106114f45750505050600b600982019160018060a01b0361012085015116926001600160601b0360a01b9384825416179055600a810160018060a01b036101408601511681549060ff60a01b610160880151151560a01b169060ff60a81b610180890151151560a81b169269ffffffffffffffffffff60b01b16171717905501916101a060018060a01b0391015116908254161790556114b3600954612a0b565b60095560405160243581526001600160a01b039091169133917f808c887919683a350ed55b3499f97ed7f4093ecc5e131fadb8b075a85457af3a90602090a4005b80518051906001600160401b038211610952576115158261098988546127e7565b602090601f8311600114611561579282600194936020938695600092611556575b5050600019600383901b1c191690841b1787555b01940191019092611410565b015190508d80611536565b908660005260206000209160005b601f19851681106115b9575083602093600196938796938794601f198116106115a0575b505050811b01875561154a565b015160001960f88460031b161c191690558d8080611593565b9192602060018192868501518155019401920161156f565b0151905086806113d0565b9250600784016000526020600020906000935b601f1984168510611633576001945083601f1981161061161a575b505050811b0160078201556113e8565b015160001960f88460031b161c1916905586808061160a565b818101518355602094850194600190930192909101906115ef565b015190508680611370565b9250600684016000526020600020906000935b601f19841685106116b0576001945083601f19811610611697575b505050811b016006820155611388565b015160001960f88460031b161c19169055868080611687565b8181015183556020948501946001909301929091019061166c565b0151905086806112f2565b9250600284016000526020600020906000935b601f198416851061172d576001945083601f19811610611714575b505050811b01600282015561130a565b015160001960f88460031b161c19169055868080611704565b818101518355602094850194600190930192909101906116e9565b015190508680611292565b9250600184016000526020600020906000935b601f19841685106117aa576001945083601f19811610611791575b505050811b0160018201556112aa565b015160001960f88460031b161c19169055868080611781565b81810151835560209485019460019093019290910190611766565b60405162461bcd60e51b815260206004820152603160248201527f5468652053746172742074696d65206d757374206265206561726c69657220746044820152703430b7103a34329032b732103a34b6b29760791b6064820152608490fd5b60405162461bcd60e51b815260206004820152602d60248201527f546865204554482073656e7420646f6573206e6f74206d61746368207468652060448201526c70726f6772616d20707269636560981b6064820152608490fd5b346102cc5760003660031901126102cc576000546040516001600160a01b039091168152602090f35b346102cc5760a03660031901126102cc576024356001600160a01b036004356084358281169060643590604435908390036102cc5783600052600260205260406000209460098601541633036119d757818110156119a357851561196e5785600a867fe3d59d03839a10c8a5a85dd0d7e5a4ac45445821c5176529d2745adf6915a16198600360a099015583600482015584600582015501846001600160601b03881b8254161790556040519485526020850152604084015260608301526080820152a1005b60405162461bcd60e51b815260206004820152600d60248201526c496e76616c696420707269636560981b6044820152606490fd5b60405162461bcd60e51b815260206004820152600c60248201526b496e76616c69642074696d6560a01b6044820152606490fd5b60405162461bcd60e51b815260206004820152600c60248201526b27b7363c9031b932b0ba37b960a11b6044820152606490fd5b346102cc5760203660031901126102cc5760043560005260086020526020604060002054604051908152f35b346102cc57611a45366125e6565b90600052600360205260406000209081548110156102cc57611a6691612677565b50805460ff600560018060a01b0360018501541693015416916040519182526020820152600382101561090b576060916040820152f35b346102cc5760003660031901126102cc57611ab66128c7565b600080546001600160a01b0319811682556001600160a01b03167f8be0079c531659141344cd1fd0a4f28419497f9722a3daafe3b4186f6b6457e08280a3005b346102cc5760203660031901126102cc577f8c4d35e54a3f2ef1134138fd8ea3daee6a3c89e10d2665996babdf70261e2c766020600435611b356128c7565b80600a55604051908152a1005b346102cc57611b50366125e6565b906000526005602052604060002080548210156102cc57602091611b7391612649565b90546040519160031b1c8152f35b346102cc5760603660031901126102cc5760443580151581036102cc5760043560005260026020526040600020611bc560018060a01b03600a830154163314612a1a565b600435600052600360205260406000209060009160005b815481101561224c57611bef8183612677565b505460243514611c0757611c0290612a0b565b611bdc565b809350611c1391612677565b509260058401549060ff8216600381101561090b5761221357156121fe5750600b8101546001600160a01b03166121c65760058301805460ff191660029081179091556001840154600b830180546001600160a01b0319166001600160a01b0392909216919091179055600a909101805460ff60a01b1916600160a01b17905560043560009081526006602052604090209190915581015490611cb582612731565b91611cc360405193846126ae565b808352611cd2601f1991612731565b0136602084013760005b60028201548110156120fc576004356000526008602052604060002090815491611d0583612a0b565b9055611d148160028501612649565b50611d228260038601612649565b50611d308360048701612649565b90549060031b1c604051908160208101106001600160401b03602084011117610952576020820160405260008252611d86611d7960405195611d7187612693565b888752612821565b9360208601948552612821565b604085015260608401526000608084015260a0830152600435600052600460205260406000208460005260205260406000209082518255518051906001600160401b038211610952578190611de28261127360018701546127e7565b602090601f831160011461208a5760009261207f575b50508160011b916000199060031b1c19161760018201555b60408201518051906001600160401b038211610952578190611e39826112d360028701546127e7565b602090601f831160011461200d57600092612002575b50508160011b916000199060031b1c19161760028201555b606082015160038201556080820151600481101561090b5781600591600460a094019060ff80198354169116179055019101516020815191611ea9838561297b565b019160005260206000206000925b828410611f1f57505050506004356000526005602052604060002091825492600160401b8410156109525783611ef5916001611f1a96018155612649565b81549060031b9083821b91600019901b1916179055611f148286612ad1565b52612a0b565b611cdc565b80518051906001600160401b03821161095257611f4682611f4086546127e7565b86612936565b602090601f8311600114611f92579282600194936020938695600092611f87575b5050600019600383901b1c191690841b1785555b01920193019290611eb7565b015190508d80611f67565b908460005260206000209160005b601f1985168110611fea575083602093600196938796938794601f19811610611fd1575b505050811b018555611f7b565b015160001960f88460031b161c191690558d8080611fc4565b91926020600181928685015181550194019201611fa0565b015190508880611e4f565b9250600284016000526020600020906000935b601f1984168510612064576001945083601f1981161061204b575b505050811b016002820155611e67565b015160001960f88460031b161c1916905588808061203b565b81810151835560209485019460019093019290910190612020565b015190508880611df8565b9250600184016000526020600020906000935b601f19841685106120e1576001945083601f198116106120c8575b505050811b016001820155611e10565b015160001960f88460031b161c191690558880806120b8565b8181015183556020948501946001909301929091019061209d565b506001808060a01b03910154166040519060608201906024358352602083015260606040830152825180915260206080830193019060005b8181106121b057505050807f284aa8037c280e35f0609d480c6b37226bb54c7482d25efb48ffe0dce5b6f08391600435930390a25b60015b1561217357005b60405162461bcd60e51b8152602060048201526015602482015274105c1c1b1a58d85d1a5bdb881b9bdd08199bdd5b99605a1b6044820152606490fd5b8251855260209485019490920191600101612134565b60405162461bcd60e51b815260206004820152601060248201526f105b1c9958591e481cd95b1958dd195960821b6044820152606490fd5b600592506001915060ff191617910155612169565b60405162461bcd60e51b8152602060048201526011602482015270105b1c9958591e48195d985b1d585d1959607a1b6044820152606490fd5b505050905061216c565b346102cc576020806003193601126102cc5760043580600052600580835260406000209260405180828654918281520195600052826000209060005b81811061252f575050506122ac816122d4959603826126ae565b8051946122b886612731565b956122c660405197886126ae565b808752601f19958691612731565b018360005b8281106124f25750505060005b82518110156123e957816000526004845260406000206123068285612ad1565b51600052845260406000206040519061231e82612693565b80548252600190612330828201612821565b8784015261234060028201612821565b60408401526003810154606084015260ff60048201541690600482101561090b57889160808501520190815461237581612731565b9261238360405194856126ae565b818452600090815288812090898086015b8483106123cc57505050505050906123c7929160a08201526123b6828a612ad1565b526123c18189612ad1565b50612a0b565b6122e6565b859182916123d986612821565b8152019301910190918a90612394565b505050919290604051928084019181855283518093526040850182604085841b8801019501966000925b8584106124205787870388f35b90919293809596603f19898203018552895190815181526124626124508484015160c080878601528401906125fc565b604084015183820360408501526125fc565b906060808401519082015261247f6080808501519083019061263c565b60a08093015192818303910152815180825283820190848082881b85010194019260005b8281106124c657505050505090806001929a019401940192979594939190612413565b919395806124e0878b85600196989a0301895289516125fc565b970195019101918a95949391926124a3565b6040516124fe81612693565b60008152606080848301528060408301526000818301526000608083015260a082015282828b0101520184906122d9565b825488529684019660019283019201612292565b346102cc57612551366125e6565b81600052600260205261257560018060a01b03600a60406000200154163314612a1a565b81600052600460205260406000208160005260205260046040600020019081549060ff821692600484101561090b5760036020936125d660017f4e2fd11f84344693b41d2aba9910e33b34a4f02d4d3a65b65b2201f3c8fa3c899714612ae5565b60ff1916179055604051908152a2005b60409060031901126102cc576004359060243590565b919082519283825260005b848110612628575050826000602080949584010152601f8019910116010190565b602081830181015184830182015201612607565b90600482101561090b5752565b80548210156126615760005260206000200190600090565b634e487b7160e01b600052603260045260246000fd5b8054821015612661576000526006602060002091020190600090565b60c081019081106001600160401b0382111761095257604052565b90601f801991011681019081106001600160401b0382111761095257604052565b6001600160401b03811161095257601f01601f191660200190565b81601f820112156102cc57803590612701826126cf565b9261270f60405194856126ae565b828452602083830101116102cc57816000926020809301838601378301015290565b6001600160401b0381116109525760051b60200190565b9291909261275584612731565b9161276360405193846126ae565b829480845260208094019060051b8301928284116102cc5780915b84831061278d57505050505050565b82356001600160401b0381116102cc5786916127ac86849386016126ea565b81520192019161277e565b9181601f840112156102cc578235916001600160401b0383116102cc576020808501948460051b0101116102cc57565b90600182811c92168015612817575b602083101461280157565b634e487b7160e01b600052602260045260246000fd5b91607f16916127f6565b9060405191826000825492612835846127e7565b9081845260019485811690816000146128a45750600114612861575b505061285f925003836126ae565b565b9093915060005260209081600020936000915b81831061288c57505061285f93508201013880612851565b85548884018501529485019487945091830191612874565b91505061285f94506020925060ff191682840152151560051b8201013880612851565b6000546001600160a01b031633036128db57565b606460405162461bcd60e51b815260206004820152602060248201527f4f776e61626c653a2063616c6c6572206973206e6f7420746865206f776e65726044820152fd5b81811061292a575050565b6000815560010161291f565b9190601f811161294557505050565b61285f926000526020600020906020601f840160051c83019310612971575b601f0160051c019061291f565b9091508190612964565b600160401b82116109525780549180825582811061299857505050565b600091825260209081832093840193015b8381106129b65750505050565b80836129c4600193546127e7565b806129d2575b5050016129a9565b601f80821185146129e957505081555b83386129ca565b612a0290848452868420920160051c820185830161291f565b818355556129e2565b6000198114610bb25760010190565b15612a2157565b60405162461bcd60e51b815260206004820152600d60248201526c2737ba103b30b634b230ba37b960991b6044820152606490fd5b15612a5d57565b60405162461bcd60e51b815260206004820152600d60248201526c141c9bd9dc985b48195b991959609a1b6044820152606490fd5b15612a9957565b60405162461bcd60e51b815260206004820152601060248201526f105b1c9958591e48185c1c1c9bdd995960821b6044820152606490fd5b80518210156126615760209160051b010190565b15612aec57565b60405162461bcd60e51b815260206004820152600e60248201526d496e76616c69642073746174757360901b6044820152606490fd5b600260015414612b33576002600155565b60405162461bcd60e51b815260206004820152601f60248201527f5265656e7472616e637947756172643a207265656e7472616e742063616c6c006044820152606490fdfea26469706673582212206abc83972d18600436ec96de99453dc24173c151407a61aa1223c008ba3e13d564736f6c63430008140033",
  "linkReferences": {},
  "deployedLinkReferences": {}
}