{
  "_format": "hh-sol-artifact-1",
  "contractName": "LdEduProgram",
  "sourceName": "contracts/LdEduProgram.sol",
  "abi": [
    {
      "inputs": [
        {
          "internalType": "address",
          "name": "initialOwner",
          "type": "address"
        }
      ],
      "stateMutability": "nonpayable",
      "type": "constructor"
    },
    {
      "anonymous": false,
      "inputs": [
        {
          "indexed": false,
          "internalType": "uint256",
          "name": "newFee",
          "type": "uint256"
        }
      ],
      "name": "FeeUpdated",
      "type": "event"
    },
    {
      "anonymous": false,
      "inputs": [
        {
          "indexed": true,
          "internalType": "uint256",
          "name": "id",
          "type": "uint256"
        },
        {
          "indexed": false,
          "internalType": "address",
          "name": "maker",
          "type": "address"
        },
        {
          "indexed": false,
          "internalType": "uint256",
          "name": "amount",
          "type": "uint256"
        }
      ],
      "name": "FundsReclaimed",
      "type": "event"
    },
    {
      "anonymous": false,
      "inputs": [
        {
          "indexed": true,
          "internalType": "uint256",
          "name": "programId",
          "type": "uint256"
        },
        {
          "indexed": false,
          "internalType": "uint256",
          "name": "milestoneId",
          "type": "uint256"
        },
        {
          "indexed": true,
          "internalType": "address",
          "name": "builder",
          "type": "address"
        },
        {
          "indexed": false,
          "internalType": "uint256",
          "name": "reward",
          "type": "uint256"
        }
      ],
      "name": "MilestoneAccepted",
      "type": "event"
    },
    {
      "anonymous": false,
      "inputs": [
        {
          "indexed": true,
          "internalType": "address",
          "name": "previousOwner",
          "type": "address"
        },
        {
          "indexed": true,
          "internalType": "address",
          "name": "newOwner",
          "type": "address"
        }
      ],
      "name": "OwnershipTransferred",
      "type": "event"
    },
    {
      "anonymous": false,
      "inputs": [
        {
          "indexed": true,
          "internalType": "uint256",
          "name": "programId",
          "type": "uint256"
        }
      ],
      "name": "ProgramApproved",
      "type": "event"
    },
    {
      "anonymous": false,
      "inputs": [
        {
          "indexed": true,
          "internalType": "uint256",
          "name": "id",
          "type": "uint256"
        },
        {
          "indexed": true,
          "internalType": "address",
          "name": "maker",
          "type": "address"
        },
        {
          "indexed": true,
          "internalType": "address",
          "name": "validator",
          "type": "address"
        },
        {
          "indexed": false,
          "internalType": "uint256",
          "name": "price",
          "type": "uint256"
        }
      ],
      "name": "ProgramCreated",
      "type": "event"
    },
    {
      "anonymous": false,
      "inputs": [
        {
          "indexed": false,
          "internalType": "uint256",
          "name": "programId",
          "type": "uint256"
        },
        {
          "indexed": false,
          "internalType": "uint256",
          "name": "price",
          "type": "uint256"
        },
        {
          "indexed": false,
          "internalType": "uint256",
          "name": "startTime",
          "type": "uint256"
        },
        {
          "indexed": false,
          "internalType": "uint256",
          "name": "endTime",
          "type": "uint256"
        },
        {
          "indexed": false,
          "internalType": "address",
          "name": "newValidator",
          "type": "address"
        }
      ],
      "name": "ProgramEdited",
      "type": "event"
    },
    {
      "inputs": [
        {
          "internalType": "uint256",
          "name": "programId",
          "type": "uint256"
        },
        {
          "internalType": "uint256",
          "name": "milestoneId",
          "type": "uint256"
        },
        {
          "internalType": "address",
          "name": "builder",
          "type": "address"
        },
        {
          "internalType": "uint256",
          "name": "reward",
          "type": "uint256"
        }
      ],
      "name": "acceptMilestone",
      "outputs": [],
      "stateMutability": "nonpayable",
      "type": "function"
    },
    {
      "inputs": [
        {
          "internalType": "uint256",
          "name": "programId",
          "type": "uint256"
        }
      ],
      "name": "approveProgram",
      "outputs": [],
      "stateMutability": "nonpayable",
      "type": "function"
    },
    {
      "inputs": [
        {
          "internalType": "string",
          "name": "_name",
          "type": "string"
        },
        {
          "internalType": "uint256",
          "name": "_price",
          "type": "uint256"
        },
        {
          "internalType": "string[]",
          "name": "_keywords",
          "type": "string[]"
        },
        {
          "internalType": "uint256",
          "name": "_startTime",
          "type": "uint256"
        },
        {
          "internalType": "uint256",
          "name": "_endTime",
          "type": "uint256"
        },
        {
          "internalType": "address",
          "name": "_validator",
          "type": "address"
        },
        {
          "internalType": "string",
          "name": "_summary",
          "type": "string"
        },
        {
          "internalType": "string",
          "name": "_description",
          "type": "string"
        },
        {
          "internalType": "string[]",
          "name": "_links",
          "type": "string[]"
        }
      ],
      "name": "createEduProgram",
      "outputs": [],
      "stateMutability": "payable",
      "type": "function"
    },
    {
      "inputs": [
        {
          "internalType": "uint256",
          "name": "",
          "type": "uint256"
        }
      ],
      "name": "eduPrograms",
      "outputs": [
        {
          "internalType": "uint256",
          "name": "id",
          "type": "uint256"
        },
        {
          "internalType": "string",
          "name": "name",
          "type": "string"
        },
        {
          "internalType": "uint256",
          "name": "price",
          "type": "uint256"
        },
        {
          "internalType": "uint256",
          "name": "startTime",
          "type": "uint256"
        },
        {
          "internalType": "uint256",
          "name": "endTime",
          "type": "uint256"
        },
        {
          "internalType": "string",
          "name": "summary",
          "type": "string"
        },
        {
          "internalType": "string",
          "name": "description",
          "type": "string"
        },
        {
          "internalType": "address",
          "name": "maker",
          "type": "address"
        },
        {
          "internalType": "address",
          "name": "validator",
          "type": "address"
        },
        {
          "internalType": "bool",
          "name": "approve",
          "type": "bool"
        },
        {
          "internalType": "bool",
          "name": "claimed",
          "type": "bool"
        }
      ],
      "stateMutability": "view",
      "type": "function"
    },
    {
      "inputs": [],
      "name": "getFee",
      "outputs": [
        {
          "internalType": "uint256",
          "name": "",
          "type": "uint256"
        }
      ],
      "stateMutability": "view",
      "type": "function"
    },
    {
      "inputs": [],
      "name": "nextProgramId",
      "outputs": [
        {
          "internalType": "uint256",
          "name": "",
          "type": "uint256"
        }
      ],
      "stateMutability": "view",
      "type": "function"
    },
    {
      "inputs": [],
      "name": "owner",
      "outputs": [
        {
          "internalType": "address",
          "name": "",
          "type": "address"
        }
      ],
      "stateMutability": "view",
      "type": "function"
    },
    {
      "inputs": [
        {
          "internalType": "uint256",
          "name": "programId",
          "type": "uint256"
        }
      ],
      "name": "reclaimFunds",
      "outputs": [],
      "stateMutability": "nonpayable",
      "type": "function"
    },
    {
      "inputs": [],
      "name": "renounceOwnership",
      "outputs": [],
      "stateMutability": "nonpayable",
      "type": "function"
    },
    {
      "inputs": [
        {
          "internalType": "uint256",
          "name": "_fee",
          "type": "uint256"
        }
      ],
      "name": "setFee",
      "outputs": [],
      "stateMutability": "nonpayable",
      "type": "function"
    },
    {
      "inputs": [
        {
          "internalType": "address",
          "name": "newOwner",
          "type": "address"
        }
      ],
      "name": "transferOwnership",
      "outputs": [],
      "stateMutability": "nonpayable",
      "type": "function"
    },
    {
      "inputs": [
        {
          "internalType": "uint256",
          "name": "programId",
          "type": "uint256"
        },
        {
          "internalType": "uint256",
          "name": "price",
          "type": "uint256"
        },
        {
          "internalType": "uint256",
          "name": "startTime",
          "type": "uint256"
        },
        {
          "internalType": "uint256",
          "name": "endTime",
          "type": "uint256"
        },
        {
          "internalType": "address",
          "name": "newValidator",
          "type": "address"
        }
      ],
      "name": "updateProgram",
      "outputs": [],
      "stateMutability": "nonpayable",
      "type": "function"
    }
  ],
  "bytecode": "0x60803461007457601f6117b838819003918201601f19168301916001600160401b038311848410176100795780849260209460405283398101031261007457516001600160a01b0381168103610074576100659061005c3361008f565b6001805561008f565b6040516116e190816100d78239f35b600080fd5b634e487b7160e01b600052604160045260246000fd5b600080546001600160a01b039283166001600160a01b03198216811783559216907f8be0079c531659141344cd1fd0a4f28419497f9722a3daafe3b4186f6b6457e09080a356fe6080604052600436101561001257600080fd5b60003560e01c8063167802941461116e57806369fe0e2d14611122578063715018a6146110c957806378ea19b01461068a57806389001eb1146105225780638da5cb5b146104f9578063b0d456ac14610435578063ba71b33014610417578063ced72f87146103f9578063d613fd241461030d578063f2fde38b146102425763f9f161a8146100a057600080fd5b3461023d5760208060031936011261023d57600435906100be611655565b81600052600281526040600020600a8101918254906100e360ff8360a01c1615611616565b60ff8260a81c166102075760058301544211156101cb57600983019260018060a01b0394858554169384330361018e5760ff60a81b1916600160a81b17905560030180549092600091829182918291828215610185575bf115610179577fd37c0b9c7560299a7c963d03165111d712663805228e5ffca03d540c5d6e410e9360409354169154908351928352820152a260018055005b6040513d6000823e3d90fd5b506108fc61013a565b60405162461bcd60e51b81526004810185905260156024820152742737ba103a343290383937b3b930b69036b0b5b2b960591b6044820152606490fd5b6064906040519062461bcd60e51b825260048201526015602482015274141c9bd9dc985b481b9bdd08195b991959081e595d605a1b6044820152fd5b6064906040519062461bcd60e51b82526004820152600f60248201526e105b1c9958591e4818db185a5b5959608a1b6044820152fd5b600080fd5b3461023d57602036600319011261023d576004356001600160a01b038181169182900361023d5761027161156b565b81156102b957600054826bffffffffffffffffffffffff60a01b821617600055167f8be0079c531659141344cd1fd0a4f28419497f9722a3daafe3b4186f6b6457e0600080a3005b60405162461bcd60e51b815260206004820152602660248201527f4f776e61626c653a206e6577206f776e657220697320746865207a65726f206160448201526564647265737360d01b6064820152608490fd5b3461023d57602036600319011261023d5760043560005260026020526040600020805461033c60018301611485565b9160ff60038201546004830154906103cd6005850154916103bf61036260068801611485565b9161036f60078901611485565b9260018060a01b0395600a8760098c0154169a0154976103a26040519d8e9d8e528d61016090816020820152019061152b565b9360408d015260608c015260808b015289820360a08b015261152b565b9087820360c089015261152b565b9360e08601528116610100850152818160a01c16151561012085015260a81c1615156101408301520390f35b3461023d57600036600319011261023d576020600454604051908152f35b3461023d57600036600319011261023d576020600354604051908152f35b3461023d57602036600319011261023d576004356000818152600260205260409020600a810180549091600590610476336001600160a01b038516146115da565b015442116104c45761048e60ff8260a01c1615611616565b60ff60a01b1916600160a01b1790557f3ca3d218d64ea45c582c714d84dcdfd87f8d3cb3a3449fe533c2cb6d614ab766600080a2005b60405162461bcd60e51b815260206004820152600d60248201526c141c9bd9dc985b48195b991959609a1b6044820152606490fd5b3461023d57600036600319011261023d576000546040516001600160a01b039091168152602090f35b3461023d5760a036600319011261023d576024356001600160a01b0360043560843582811690606435906044359083900361023d57836000526002602052604060002094600986015416330361065657818110156106225785156105ed5785600a867fe3d59d03839a10c8a5a85dd0d7e5a4ac45445821c5176529d2745adf6915a16198600360a099015583600482015584600582015501846bffffffffffffffffffffffff881b8254161790556040519485526020850152604084015260608301526080820152a1005b60405162461bcd60e51b815260206004820152600d60248201526c496e76616c696420707269636560981b6044820152606490fd5b60405162461bcd60e51b815260206004820152600c60248201526b496e76616c69642074696d6560a01b6044820152606490fd5b60405162461bcd60e51b815260206004820152600c60248201526b27b7363c9031b932b0ba37b960a11b6044820152606490fd5b61012036600319011261023d576004356001600160401b03811161023d576106b6903690600401611381565b6044356001600160401b03811161023d576106d59036906004016113c8565b9060a4356001600160a01b038116810361023d5760c4356001600160401b03811161023d57610708903690600401611381565b9160e4356001600160401b03811161023d57610728903690600401611381565b610104356001600160401b03811161023d576107489036906004016113c8565b906024948535340361106f576084356064351015611011576003549660405194856101a08101106001600160401b036101a088011117610ffc576101a086016040528886526020860152604085015285356060850152606435608085015260843560a085015260c084015260e08301526101008201523361012082015260018060a01b0382166101408201526000610160820152600061018082015283600052600260205260406000208151815560208201518051906001600160401b038211610c3957819061081b600185015461144b565b601f8111610fc7575b50602090601f8311600114610f5557600092610f4a575b50508160011b916000199060031b1c19161760018201555b6040820151805190600160401b8211610c39576002830154826002850155808310610ed2575b506020016002830160005260206000206000915b838310610db25750505050606082015160038201556080820151600482015560a0820151600582015560c08201518051906001600160401b038211610c395781906108db600685015461144b565b601f8111610d7d575b50602090601f8311600114610d0b57600092610d00575b50508160011b916000199060031b1c19161760068201555b60e08201518051906001600160401b038211610c39578190610938600785015461144b565b601f8111610ccb575b50602090601f8311600114610c5957600092610c4e575b50508160011b916000199060031b1c19161760078201555b610100820151805190600160401b8211610c39576008830154826008850155808310610bc1575b506020016008830160005260206000206000915b838310610a8c57505050506101208201516009820180546001600160a01b0319166001600160a01b03928316179055610140830151600a9092018054610160850151610180909501516001600160b01b0319909116939092169290921792151560a01b60ff60a01b169290921791151560a81b60ff60a81b169190911790556003546000198114610a7757600101600355604051913582526001600160a01b03169133917f808c887919683a350ed55b3499f97ed7f4093ecc5e131fadb8b075a85457af3a90602090a4005b82634e487b7160e01b60005260116004526000fd5b80518051906001600160401b038211610bac57610aa9845461144b565b601f8111610b6f575b50602090601f8311600114610aff579282600194936020938695600092610af4575b5050600019600383901b1c191690841b1785555b019201920191906109ab565b015190508e80610ad4565b908460005260206000209160005b601f1985168110610b57575083602093600196938796938794601f19811610610b3e575b505050811b018555610ae8565b015160001960f88460031b161c191690558e8080610b31565b91926020600181928685015181550194019201610b0d565b610b9c90856000526020600020601f850160051c81019160208610610ba2575b601f0160051c01906115c3565b8b610ab2565b9091508190610b8f565b89634e487b7160e01b60005260416004526000fd5b600884016000526020600020908382015b8183018110610be2575050610997565b80610bef6001925461144b565b80610bfc575b5001610bd2565b601f81118314610c125750600081555b8b610bf5565b600090828252610c30601f60208420920160051c82018583016115c3565b81835555610c0c565b85634e487b7160e01b60005260416004526000fd5b015190508780610958565b9250600784016000526020600020906000935b601f1984168510610cb0576001945083601f19811610610c97575b505050811b016007820155610970565b015160001960f88460031b161c19169055878080610c87565b81810151835560209485019460019093019290910190610c6c565b610cfa90600786016000526020600020601f850160051c81019160208610610ba257601f0160051c01906115c3565b88610941565b0151905087806108fb565b9250600684016000526020600020906000935b601f1984168510610d62576001945083601f19811610610d49575b505050811b016006820155610913565b015160001960f88460031b161c19169055878080610d39565b81810151835560209485019460019093019290910190610d1e565b610dac90600686016000526020600020601f850160051c81019160208610610ba257601f0160051c01906115c3565b886108e4565b80518051906001600160401b038211610bac57610dcf845461144b565b601f8111610e95575b50602090601f8311600114610e25579282600194936020938695600092610e1a575b5050600019600383901b1c191690841b1785555b0192019201919061088d565b015190508e80610dfa565b908460005260206000209160005b601f1985168110610e7d575083602093600196938796938794601f19811610610e64575b505050811b018555610e0e565b015160001960f88460031b161c191690558e8080610e57565b91926020600181928685015181550194019201610e33565b610ec2908560005260206000206005601f8601811c82019260208710610ec8575b601f01901c01906115c3565b8b610dd8565b9192508291610eb6565b600284016000526020600020908382015b8183018110610ef3575050610879565b80610f006001925461144b565b80610f0d575b5001610ee3565b601f81118314610f235750600081555b8b610f06565b600090828252610f41601f60208420920160051c82018583016115c3565b81835555610f1d565b01519050878061083b565b9250600184016000526020600020906000935b601f1984168510610fac576001945083601f19811610610f93575b505050811b016001820155610853565b015160001960f88460031b161c19169055878080610f83565b81810151835560209485019460019093019290910190610f68565b610ff690600186016000526020600020601f850160051c81019160208610610ba257601f0160051c01906115c3565b88610824565b87634e487b7160e01b60005260416004526000fd5b60405162461bcd60e51b8152602060048201526031818801527f5468652053746172742074696d65206d757374206265206561726c69657220746044820152703430b7103a34329032b732103a34b6b29760791b6064820152608490fd5b60405162461bcd60e51b815260206004820152602d818801527f546865204554482073656e7420646f6573206e6f74206d61746368207468652060448201526c70726f6772616d20707269636560981b6064820152608490fd5b3461023d57600036600319011261023d576110e261156b565b600080546001600160a01b0319811682556001600160a01b03167f8be0079c531659141344cd1fd0a4f28419497f9722a3daafe3b4186f6b6457e08280a3005b3461023d57602036600319011261023d577f8c4d35e54a3f2ef1134138fd8ea3daee6a3c89e10d2665996babdf70261e2c76602060043561116161156b565b80600455604051908152a1005b3461023d57608036600319011261023d576001600160a01b03604435818116916004359183900361023d57606435906111a5611655565b826000526020906002825260ff6040600020916111ca600a84015491821633146115da565b60a01c16156112f35760030190815483116112af57600080808086895af13d156112aa573d6111f881611366565b90611206604051928361132f565b81526000833d92013e5b156112705781549280840393841161125a577f053ef272dd53b824198fbb137ebae1fd91c2fc6e79952afd99421f047887c5bc93604093558251916024358352820152a360018055005b634e487b7160e01b600052601160045260246000fd5b6064906040519062461bcd60e51b825260048201526013602482015272115512081d1c985b9cd9995c8819985a5b1959606a1b6044820152fd5b611210565b6064906040519062461bcd60e51b82526004820152601e60248201527f52657761726420657863656564732070726f6772616d2062616c616e636500006044820152fd5b60405162461bcd60e51b8152600481018390526014602482015273141c9bd9dc985b481b9bdd08185c1c1c9bdd995960621b6044820152606490fd5b90601f801991011681019081106001600160401b0382111761135057604052565b634e487b7160e01b600052604160045260246000fd5b6001600160401b03811161135057601f01601f191660200190565b81601f8201121561023d5780359061139882611366565b926113a6604051948561132f565b8284526020838301011161023d57816000926020809301838601378301015290565b9080601f8301121561023d578135906001600160401b0392838311611350578260051b604051946020946113fe8684018861132f565b865284808701928401019380851161023d57858401925b858410611426575050505050505090565b833583811161023d578791611440848480948a0101611381565b815201930192611415565b90600182811c9216801561147b575b602083101461146557565b634e487b7160e01b600052602260045260246000fd5b91607f169161145a565b90604051918260008254926114998461144b565b90818452600194858116908160001461150857506001146114c5575b50506114c39250038361132f565b565b9093915060005260209081600020936000915b8183106114f05750506114c3935082010138806114b5565b855488840185015294850194879450918301916114d8565b9150506114c394506020925060ff191682840152151560051b82010138806114b5565b919082519283825260005b848110611557575050826000602080949584010152601f8019910116010190565b602081830181015184830182015201611536565b6000546001600160a01b0316330361157f57565b606460405162461bcd60e51b815260206004820152602060248201527f4f776e61626c653a2063616c6c6572206973206e6f7420746865206f776e65726044820152fd5b8181106115ce575050565b600081556001016115c3565b156115e157565b60405162461bcd60e51b815260206004820152600d60248201526c2737ba103b30b634b230ba37b960991b6044820152606490fd5b1561161d57565b60405162461bcd60e51b815260206004820152601060248201526f105b1c9958591e48185c1c1c9bdd995960821b6044820152606490fd5b600260015414611666576002600155565b60405162461bcd60e51b815260206004820152601f60248201527f5265656e7472616e637947756172643a207265656e7472616e742063616c6c006044820152606490fdfea2646970667358221220f5ca838142ffd65ef5e5974b5a166226d07439565820f85ea4d68ca7e7d9138a64736f6c63430008140033",
  "linkReferences": {},
  "deployedLinkReferences": {}
}