{
    "_format": "hh-sol-artifact-1",
    "contractName": "LdEduProgram",
    "sourceName": "contracts/LdEduProgram.sol",
    "abi": [
        {
            "inputs": [
                {
                    "internalType": "address",
                    "name": "initialOwner",
                    "type": "address"
                }
            ],
            "stateMutability": "nonpayable",
            "type": "constructor"
        },
        {
            "anonymous": false,
            "inputs": [
                {
                    "indexed": true,
                    "internalType": "uint256",
                    "name": "programId",
                    "type": "uint256"
                },
                {
                    "indexed": false,
                    "internalType": "uint256",
                    "name": "applicationId",
                    "type": "uint256"
                },
                {
                    "indexed": false,
                    "internalType": "address",
                    "name": "builder",
                    "type": "address"
                },
                {
                    "indexed": false,
                    "internalType": "uint256[]",
                    "name": "milestoneIds",
                    "type": "uint256[]"
                }
            ],
            "name": "ApplicationSelected",
            "type": "event"
        },
        {
            "anonymous": false,
            "inputs": [
                {
                    "indexed": false,
                    "internalType": "uint256",
                    "name": "newFee",
                    "type": "uint256"
                }
            ],
            "name": "FeeUpdated",
            "type": "event"
        },
        {
            "anonymous": false,
            "inputs": [
                {
                    "indexed": true,
                    "internalType": "uint256",
                    "name": "id",
                    "type": "uint256"
                },
                {
                    "indexed": false,
                    "internalType": "address",
                    "name": "maker",
                    "type": "address"
                },
                {
                    "indexed": false,
                    "internalType": "uint256",
                    "name": "amount",
                    "type": "uint256"
                }
            ],
            "name": "FundsReclaimed",
            "type": "event"
        },
        {
            "anonymous": false,
            "inputs": [
                {
                    "indexed": true,
                    "internalType": "uint256",
                    "name": "id",
                    "type": "uint256"
                },
                {
                    "indexed": false,
                    "internalType": "uint256",
                    "name": "milestoneId",
                    "type": "uint256"
                },
                {
                    "indexed": false,
                    "internalType": "uint256",
                    "name": "reward",
                    "type": "uint256"
                }
            ],
            "name": "MilestoneAccepted",
            "type": "event"
        },
        {
            "anonymous": false,
            "inputs": [
                {
                    "indexed": true,
                    "internalType": "uint256",
                    "name": "id",
                    "type": "uint256"
                },
                {
                    "indexed": false,
                    "internalType": "uint256",
                    "name": "milestoneId",
                    "type": "uint256"
                }
            ],
            "name": "MilestoneRejected",
            "type": "event"
        },
        {
            "anonymous": false,
            "inputs": [
                {
                    "indexed": true,
                    "internalType": "uint256",
                    "name": "id",
                    "type": "uint256"
                },
                {
                    "indexed": false,
                    "internalType": "uint256",
                    "name": "milestoneId",
                    "type": "uint256"
                },
                {
                    "indexed": false,
                    "internalType": "string[]",
                    "name": "links",
                    "type": "string[]"
                }
            ],
            "name": "MilestoneSubmitted",
            "type": "event"
        },
        {
            "anonymous": false,
            "inputs": [
                {
                    "indexed": true,
                    "internalType": "address",
                    "name": "previousOwner",
                    "type": "address"
                },
                {
                    "indexed": true,
                    "internalType": "address",
                    "name": "newOwner",
                    "type": "address"
                }
            ],
            "name": "OwnershipTransferred",
            "type": "event"
        },
        {
            "anonymous": false,
            "inputs": [
                {
                    "indexed": true,
                    "internalType": "uint256",
                    "name": "id",
                    "type": "uint256"
                },
                {
                    "indexed": false,
                    "internalType": "uint256[]",
                    "name": "milestoneIds",
                    "type": "uint256[]"
                }
            ],
            "name": "ProgramApplied",
            "type": "event"
        },
        {
            "anonymous": false,
            "inputs": [
                {
                    "indexed": true,
                    "internalType": "uint256",
                    "name": "programId",
                    "type": "uint256"
                }
            ],
            "name": "ProgramApproved",
            "type": "event"
        },
        {
            "anonymous": false,
            "inputs": [
                {
                    "indexed": true,
                    "internalType": "uint256",
                    "name": "id",
                    "type": "uint256"
                },
                {
                    "indexed": false,
                    "internalType": "address",
                    "name": "builder",
                    "type": "address"
                },
                {
                    "indexed": false,
                    "internalType": "uint256",
                    "name": "amount",
                    "type": "uint256"
                }
            ],
            "name": "ProgramClaimed",
            "type": "event"
        },
        {
            "anonymous": false,
            "inputs": [
                {
                    "indexed": true,
                    "internalType": "uint256",
                    "name": "id",
                    "type": "uint256"
                },
                {
                    "indexed": true,
                    "internalType": "address",
                    "name": "maker",
                    "type": "address"
                },
                {
                    "indexed": true,
                    "internalType": "address",
                    "name": "validator",
                    "type": "address"
                },
                {
                    "indexed": false,
                    "internalType": "uint256",
                    "name": "price",
                    "type": "uint256"
                }
            ],
            "name": "ProgramCreated",
            "type": "event"
        },
        {
            "anonymous": false,
            "inputs": [
                {
                    "indexed": false,
                    "internalType": "uint256",
                    "name": "programId",
                    "type": "uint256"
                },
                {
                    "indexed": false,
                    "internalType": "uint256",
                    "name": "price",
                    "type": "uint256"
                },
                {
                    "indexed": false,
                    "internalType": "uint256",
                    "name": "startTime",
                    "type": "uint256"
                },
                {
                    "indexed": false,
                    "internalType": "uint256",
                    "name": "endTime",
                    "type": "uint256"
                },
                {
                    "indexed": false,
                    "internalType": "address",
                    "name": "newValidator",
                    "type": "address"
                }
            ],
            "name": "ProgramEdited",
            "type": "event"
        },
        {
            "inputs": [
                {
                    "internalType": "uint256",
                    "name": "programId",
                    "type": "uint256"
                },
                {
                    "internalType": "uint256",
                    "name": "milestoneId",
                    "type": "uint256"
                }
            ],
            "name": "acceptMilestone",
            "outputs": [],
            "stateMutability": "nonpayable",
            "type": "function"
        },
        {
            "inputs": [
                {
                    "internalType": "uint256",
                    "name": "programId",
                    "type": "uint256"
                }
            ],
            "name": "approveProgram",
            "outputs": [],
            "stateMutability": "nonpayable",
            "type": "function"
        },
        {
            "inputs": [
                {
                    "internalType": "string",
                    "name": "_name",
                    "type": "string"
                },
                {
                    "internalType": "uint256",
                    "name": "_price",
                    "type": "uint256"
                },
                {
                    "internalType": "string[]",
                    "name": "_keywords",
                    "type": "string[]"
                },
                {
                    "internalType": "uint256",
                    "name": "_startTime",
                    "type": "uint256"
                },
                {
                    "internalType": "uint256",
                    "name": "_endTime",
                    "type": "uint256"
                },
                {
                    "internalType": "address",
                    "name": "_validator",
                    "type": "address"
                },
                {
                    "internalType": "string",
                    "name": "_summary",
                    "type": "string"
                },
                {
                    "internalType": "string",
                    "name": "_description",
                    "type": "string"
                },
                {
                    "internalType": "string[]",
                    "name": "_links",
                    "type": "string[]"
                }
            ],
            "name": "createEduProgram",
            "outputs": [],
            "stateMutability": "payable",
            "type": "function"
        },
        {
            "inputs": [
                {
                    "internalType": "uint256",
                    "name": "",
                    "type": "uint256"
                }
            ],
            "name": "eduPrograms",
            "outputs": [
                {
                    "internalType": "uint256",
                    "name": "id",
                    "type": "uint256"
                },
                {
                    "internalType": "string",
                    "name": "name",
                    "type": "string"
                },
                {
                    "internalType": "uint256",
                    "name": "price",
                    "type": "uint256"
                },
                {
                    "internalType": "uint256",
                    "name": "startTime",
                    "type": "uint256"
                },
                {
                    "internalType": "uint256",
                    "name": "endTime",
                    "type": "uint256"
                },
                {
                    "internalType": "string",
                    "name": "summary",
                    "type": "string"
                },
                {
                    "internalType": "string",
                    "name": "description",
                    "type": "string"
                },
                {
                    "internalType": "address",
                    "name": "maker",
                    "type": "address"
                },
                {
                    "internalType": "address",
                    "name": "validator",
                    "type": "address"
                },
                {
                    "internalType": "bool",
                    "name": "approve",
                    "type": "bool"
                },
                {
                    "internalType": "bool",
                    "name": "claimed",
                    "type": "bool"
                },
                {
                    "internalType": "address",
                    "name": "builder",
                    "type": "address"
                }
            ],
            "stateMutability": "view",
            "type": "function"
        },
        {
            "inputs": [],
            "name": "getFee",
            "outputs": [
                {
                    "internalType": "uint256",
                    "name": "",
                    "type": "uint256"
                }
            ],
            "stateMutability": "view",
            "type": "function"
        },
        {
            "inputs": [
                {
                    "internalType": "uint256",
                    "name": "programId",
                    "type": "uint256"
                }
            ],
            "name": "getMilestones",
            "outputs": [
                {
                    "components": [
                        {
                            "internalType": "uint256",
                            "name": "id",
                            "type": "uint256"
                        },
                        {
                            "internalType": "string",
                            "name": "name",
                            "type": "string"
                        },
                        {
                            "internalType": "string",
                            "name": "description",
                            "type": "string"
                        },
                        {
                            "internalType": "uint256",
                            "name": "price",
                            "type": "uint256"
                        },
                        {
                            "internalType": "enum LdEduProgram.MilestoneStatus",
                            "name": "status",
                            "type": "uint8"
                        },
                        {
                            "internalType": "string[]",
                            "name": "links",
                            "type": "string[]"
                        }
                    ],
                    "internalType": "struct LdEduProgram.Milestone[]",
                    "name": "",
                    "type": "tuple[]"
                }
            ],
            "stateMutability": "view",
            "type": "function"
        },
        {
            "inputs": [
                {
                    "internalType": "uint256",
                    "name": "",
                    "type": "uint256"
                },
                {
                    "internalType": "uint256",
                    "name": "",
                    "type": "uint256"
                }
            ],
            "name": "milestoneIds",
            "outputs": [
                {
                    "internalType": "uint256",
                    "name": "",
                    "type": "uint256"
                }
            ],
            "stateMutability": "view",
            "type": "function"
        },
        {
            "inputs": [
                {
                    "internalType": "uint256",
                    "name": "",
                    "type": "uint256"
                }
            ],
            "name": "nextApplicationId",
            "outputs": [
                {
                    "internalType": "uint256",
                    "name": "",
                    "type": "uint256"
                }
            ],
            "stateMutability": "view",
            "type": "function"
        },
        {
            "inputs": [
                {
                    "internalType": "uint256",
                    "name": "",
                    "type": "uint256"
                }
            ],
            "name": "nextMilestoneId",
            "outputs": [
                {
                    "internalType": "uint256",
                    "name": "",
                    "type": "uint256"
                }
            ],
            "stateMutability": "view",
            "type": "function"
        },
        {
            "inputs": [],
            "name": "nextProgramId",
            "outputs": [
                {
                    "internalType": "uint256",
                    "name": "",
                    "type": "uint256"
                }
            ],
            "stateMutability": "view",
            "type": "function"
        },
        {
            "inputs": [],
            "name": "owner",
            "outputs": [
                {
                    "internalType": "address",
                    "name": "",
                    "type": "address"
                }
            ],
            "stateMutability": "view",
            "type": "function"
        },
        {
            "inputs": [
                {
                    "internalType": "uint256",
                    "name": "",
                    "type": "uint256"
                },
                {
                    "internalType": "uint256",
                    "name": "",
                    "type": "uint256"
                }
            ],
            "name": "programApplications",
            "outputs": [
                {
                    "internalType": "uint256",
                    "name": "id",
                    "type": "uint256"
                },
                {
                    "internalType": "address",
                    "name": "builder",
                    "type": "address"
                },
                {
                    "internalType": "enum LdEduProgram.ApplicationStatus",
                    "name": "status",
                    "type": "uint8"
                }
            ],
            "stateMutability": "view",
            "type": "function"
        },
        {
            "inputs": [
                {
                    "internalType": "uint256",
                    "name": "",
                    "type": "uint256"
                },
                {
                    "internalType": "uint256",
                    "name": "",
                    "type": "uint256"
                }
            ],
            "name": "programMilestones",
            "outputs": [
                {
                    "internalType": "uint256",
                    "name": "id",
                    "type": "uint256"
                },
                {
                    "internalType": "string",
                    "name": "name",
                    "type": "string"
                },
                {
                    "internalType": "string",
                    "name": "description",
                    "type": "string"
                },
                {
                    "internalType": "uint256",
                    "name": "price",
                    "type": "uint256"
                },
                {
                    "internalType": "enum LdEduProgram.MilestoneStatus",
                    "name": "status",
                    "type": "uint8"
                }
            ],
            "stateMutability": "view",
            "type": "function"
        },
        {
            "inputs": [
                {
                    "internalType": "uint256",
                    "name": "programId",
                    "type": "uint256"
                }
            ],
            "name": "reclaimFunds",
            "outputs": [],
            "stateMutability": "nonpayable",
            "type": "function"
        },
        {
            "inputs": [
                {
                    "internalType": "uint256",
                    "name": "programId",
                    "type": "uint256"
                },
                {
                    "internalType": "uint256",
                    "name": "milestoneId",
                    "type": "uint256"
                }
            ],
            "name": "rejectMilestone",
            "outputs": [],
            "stateMutability": "nonpayable",
            "type": "function"
        },
        {
            "inputs": [],
            "name": "renounceOwnership",
            "outputs": [],
            "stateMutability": "nonpayable",
            "type": "function"
        },
        {
            "inputs": [
                {
                    "internalType": "uint256",
                    "name": "programId",
                    "type": "uint256"
                },
                {
                    "internalType": "uint256",
                    "name": "applicationId",
                    "type": "uint256"
                },
                {
                    "internalType": "bool",
                    "name": "isSelected",
                    "type": "bool"
                }
            ],
            "name": "selectApplication",
            "outputs": [],
            "stateMutability": "nonpayable",
            "type": "function"
        },
        {
            "inputs": [
                {
                    "internalType": "uint256",
                    "name": "",
                    "type": "uint256"
                }
            ],
            "name": "selectedApplicationIndex",
            "outputs": [
                {
                    "internalType": "uint256",
                    "name": "",
                    "type": "uint256"
                }
            ],
            "stateMutability": "view",
            "type": "function"
        },
        {
            "inputs": [
                {
                    "internalType": "uint256",
                    "name": "_fee",
                    "type": "uint256"
                }
            ],
            "name": "setFee",
            "outputs": [],
            "stateMutability": "nonpayable",
            "type": "function"
        },
        {
            "inputs": [
                {
                    "internalType": "uint256",
                    "name": "programId",
                    "type": "uint256"
                },
                {
                    "internalType": "string[]",
                    "name": "names",
                    "type": "string[]"
                },
                {
                    "internalType": "string[]",
                    "name": "descriptions",
                    "type": "string[]"
                },
                {
                    "internalType": "uint256[]",
                    "name": "prices",
                    "type": "uint256[]"
                }
            ],
            "name": "submitApplication",
            "outputs": [],
            "stateMutability": "nonpayable",
            "type": "function"
        },
        {
            "inputs": [
                {
                    "internalType": "uint256",
                    "name": "programId",
                    "type": "uint256"
                },
                {
                    "internalType": "uint256",
                    "name": "milestoneId",
                    "type": "uint256"
                },
                {
                    "internalType": "string[]",
                    "name": "links",
                    "type": "string[]"
                }
            ],
            "name": "submitMilestone",
            "outputs": [],
            "stateMutability": "nonpayable",
            "type": "function"
        },
        {
            "inputs": [
                {
                    "internalType": "address",
                    "name": "newOwner",
                    "type": "address"
                }
            ],
            "name": "transferOwnership",
            "outputs": [],
            "stateMutability": "nonpayable",
            "type": "function"
        },
        {
            "inputs": [
                {
                    "internalType": "uint256",
                    "name": "programId",
                    "type": "uint256"
                },
                {
                    "internalType": "uint256",
                    "name": "price",
                    "type": "uint256"
                },
                {
                    "internalType": "uint256",
                    "name": "startTime",
                    "type": "uint256"
                },
                {
                    "internalType": "uint256",
                    "name": "endTime",
                    "type": "uint256"
                },
                {
                    "internalType": "address",
                    "name": "newValidator",
                    "type": "address"
                }
            ],
            "name": "updateProgram",
            "outputs": [],
            "stateMutability": "nonpayable",
            "type": "function"
        }
    ],
    "bytecode": "0x6080346200007e57601f62002d5a38819003918201601f19168301916001600160401b0383118484101762000083578084926020946040528339810103126200007e57516001600160a01b03811681036200007e576200006e90620000643362000099565b6001805562000099565b604051612c799081620000e18239f35b600080fd5b634e487b7160e01b600052604160045260246000fd5b600080546001600160a01b039283166001600160a01b03198216811783559216907f8be0079c531659141344cd1fd0a4f28419497f9722a3daafe3b4186f6b6457e09080a356fe6080604052600436101561001257600080fd5b60003560e01c80633abe6bd71461254b57806342c549c0146122875780634942ec021461202d578063544aabd014611fee57806369fe0e2d14611fa2578063715018a614611f4957806378ea19b0146117785780637d5cae031461171257806383472f5b146116e657806389001eb1146115835780638da5cb5b1461155a57806393eb1026146113d95780639e57d58914611092578063a112ed4e14610653578063a1a5729614610627578063b0d456ac14610592578063ba71b33014610574578063ced72f8714610556578063d201593f146104c1578063d613fd24146103c3578063f2fde38b146102fd578063f6c78263146102d15763f9f161a81461011957600080fd5b346102cc5760203660031901126102cc57600435610135612bed565b8060005260026020526040600020600a810190815461015a60ff8260a01c1615612ac3565b60ff8160a81c1661029557600582015442111561025857600982019260018060a01b0391828554169384330361021b5760ff60a81b19909116600160a81b1790915560030180549092600091829182918291828215610212575bf115610206579154905460408051929093166001600160a01b0316825260208201527fd37c0b9c7560299a7c963d03165111d712663805228e5ffca03d540c5d6e410e91819081015b0390a260018055005b6040513d6000823e3d90fd5b506108fc6101b4565b60405162461bcd60e51b81526020600482015260156024820152742737ba103a343290383937b3b930b69036b0b5b2b960591b6044820152606490fd5b60405162461bcd60e51b8152602060048201526015602482015274141c9bd9dc985b481b9bdd08195b991959081e595d605a1b6044820152606490fd5b60405162461bcd60e51b815260206004820152600f60248201526e105b1c9958591e4818db185a5b5959608a1b6044820152606490fd5b600080fd5b346102cc5760203660031901126102cc5760043560005260066020526020604060002054604051908152f35b346102cc5760203660031901126102cc576004356001600160a01b03818116918290036102cc5761032c6128f8565b811561036f57600054826001600160601b0360a01b821617600055167f8be0079c531659141344cd1fd0a4f28419497f9722a3daafe3b4186f6b6457e0600080a3005b60405162461bcd60e51b815260206004820152602660248201527f4f776e61626c653a206e6577206f776e657220697320746865207a65726f206160448201526564647265737360d01b6064820152608490fd5b346102cc5760203660031901126102cc57600435600052600260205260406000208054600182016103f390612852565b6003830154600484015460058501549294909161041260068301612852565b61041e60078401612852565b90600160a01b6001900392836009860154169684600a87015496600b015416966040519a8b9a8b526101808060208d01528b0161045a91612604565b9260408b015260608a0152608089015287810360a089015261047b91612604565b86810360c088015261048c91612604565b9360e086015281166101008501528060a01c60ff16151561012085015260a81c60ff1615156101408401526101608301520390f35b346102cc576104cf366125ee565b906000526004602052604060002090600052602052604060002080546104f760018301612852565b9161055261050760028301612852565b61054260ff600460038601549501541691610534604051978897885260a0602089015260a0880190612604565b908682036040880152612604565b9260608501526080840190612644565b0390f35b346102cc5760003660031901126102cc576020600a54604051908152f35b346102cc5760003660031901126102cc576020600954604051908152f35b346102cc5760203660031901126102cc576004356000818152600260205260409020600a8101805490916105e1906005906105d7336001600160a01b03861614612a4b565b0154421115612a87565b6105f160ff8260a01c1615612ac3565b60ff60a01b1916600160a01b1790557f3ca3d218d64ea45c582c714d84dcdfd87f8d3cb3a3449fe533c2cb6d614ab766600080a2005b346102cc5760203660031901126102cc5760043560005260076020526020604060002054604051908152f35b346102cc5760803660031901126102cc576024356001600160401b0381116102cc576106839036906004016127e8565b6044356001600160401b0381116102cc576106a29036906004016127e8565b6064939193356001600160401b0381116102cc576106c49036906004016127e8565b90600435600052600260205260406000206106e460058201544210612a87565b83861480611089575b156110535760009060005b84811061101857506003015403610fd457600435600052600760205260406000209586549661072688612a3c565b90556040516107348161267f565b878152336020820152610748368888612742565b6040820152610758368684612742565b60608201526107668461272b565b610773604051918261269a565b84815260208101368660051b8601116102cc5784905b8660051b86018210610fc45750506080820152600060a0820152600435600052600360205260406000208054600160401b811015610bb1576107d0916001820181556127cc565b919091610fae57805182556001820160018060a01b036020830151166001600160601b0360a01b825416179055600282016040820151602081519161081583856129ac565b01916000526020600020916000905b828210610ed15750505050600382016060820151602081519161084783856129ac565b01916000526020600020916000905b828210610dee575050505060808101518051906001600160401b038211610bb157600160401b8211610bb1576020906004850154836004870155808410610dce575b500160048401600052602060002060005b838110610dba575050505060a00151906003821015610caa576005019060ff801983541691161790556108db8661272b565b956108e9604051978861269a565b808752601f196108f88261272b565b0136602089013760005b81811061096e578888604051906020820160208352815180915260206040840192019060005b81811061095857857f09bbfa816c7e14e18babfca167b7eb6d09305cca69bdb107b37b18c6a6082b2686860387a2005b8251845260209384019390920191600101610928565b600435600052600860205260406000209081549161098b83612a3c565b905561099881848a612b44565b906109a4838a88612b44565b916109b0858b8b612b02565b3590604051928360208101106001600160401b03602086011117610bb1576109f7610a06926020860160405260008652604051976109ed8961267f565b8a895236916126d6565b946020870195865236916126d6565b604085015260608401526000608084015260a0830152600435600052600460205260406000208460005260205260406000209082518255518051906001600160401b038211610bb1578190610a6b82610a626001870154612818565b60018701612967565b602090601f8311600114610d4857600092610d3d575b50508160011b916000199060031b1c19161760018201555b60408201518051906001600160401b038211610bb1578190610acb82610ac26002870154612818565b60028701612967565b602090601f8311600114610ccb57600092610cc0575b50508160011b916000199060031b1c19161760028201555b6060820151600382015560808201516004811015610caa5781600591600460a094019060ff80198354169116179055019101516020815191610b3b83856129ac565b019160005260206000206000925b828410610bc757505050506004356000526005602052604060002091825492600160401b841015610bb15783610b87916001610bac96018155612651565b81549060031b9083821b91600019901b1916179055610ba6828b612b5f565b52612a3c565b610902565b634e487b7160e01b600052604160045260246000fd5b80518051906001600160401b038211610bb157610bee82610be88654612818565b86612967565b602090601f8311600114610c3a579282600194936020938695600092610c2f575b5050600019600383901b1c191690841b1785555b01920193019290610b49565b015190503880610c0f565b908460005260206000209160005b601f1985168110610c92575083602093600196938796938794601f19811610610c79575b505050811b018555610c23565b015160001960f88460031b161c19169055388080610c6c565b91926020600181928685015181550194019201610c48565b634e487b7160e01b600052602160045260246000fd5b015190508e80610ae1565b9250600284016000526020600020906000935b601f1984168510610d22576001945083601f19811610610d09575b505050811b016002820155610af9565b015160001960f88460031b161c191690558e8080610cf9565b81810151835560209485019460019093019290910190610cde565b015190508e80610a81565b9250600184016000526020600020906000935b601f1984168510610d9f576001945083601f19811610610d86575b505050811b016001820155610a99565b015160001960f88460031b161c191690558e8080610d76565b81810151835560209485019460019093019290910190610d5b565b6001906020845194019381840155016108a9565b610de8906004870160005284846000209182019101612950565b8c610898565b80518051906001600160401b038211610bb157610e1582610e0f8854612818565b88612967565b602090601f8311600114610e61579282600194936020938695600092610e56575b5050600019600383901b1c191690841b1787555b01940191019092610856565b015190503880610e36565b908660005260206000209160005b601f1985168110610eb9575083602093600196938796938794601f19811610610ea0575b505050811b018755610e4a565b015160001960f88460031b161c19169055388080610e93565b91926020600181928685015181550194019201610e6f565b80518051906001600160401b038211610bb157610ef282610e0f8854612818565b602090601f8311600114610f3e579282600194936020938695600092610f33575b5050600019600383901b1c191690841b1787555b01940191019092610824565b015190503880610f13565b908660005260206000209160005b601f1985168110610f96575083602093600196938796938794601f19811610610f7d575b505050811b018755610f27565b015160001960f88460031b161c19169055388080610f70565b91926020600181928685015181550194019201610f4c565b634e487b7160e01b600052600060045260246000fd5b8135815260209182019101610789565b606460405162461bcd60e51b815260206004820152602060248201527f4d696c6573746f6e6520746f74616c20213d2070726f6772616d2070726963656044820152fd5b91611024838686612b02565b35810180911161103d576110389092612a3c565b6106f8565b634e487b7160e01b600052601160045260246000fd5b60405162461bcd60e51b815260206004820152600e60248201526d092dce0eae840dad2e6dac2e8c6d60931b6044820152606490fd5b508286146106ed565b346102cc5760603660031901126102cc5760043560248035906001600160401b03906044358281116102cc576110cc9036906004016127e8565b908560005260209060028252604060002060ff600a82015460a01c161561139e57600b01546001600160a01b0316330361136c5786600052600482526040600020866000528252604060002093600485019485549560ff871660048110156113575761131f57906005916001989796959498809760ff19161790550161115284826129ac565b6000908152828120875b85831061122c575050505081604051966040880190885260408389015252606086019460608360051b8801019581956000925b8584106111bf578a7fbaa1ee362891351add36bb95f60ba8e4031d4c60ece483917c0dc053d7b2c3d78b8b038ca2005b9091929394959697605f198a82030184528835601e19833603018112156102cc5782018681019190358481116102cc5780360383136102cc57878282808d96849695859652848401376000828201840152601f01601f191601019a0198979695919091019301919061118f565b61123b818a969798999a612b12565b8a819392931161130a578991816112578a93610e0f8854612818565b6000601f82116001146112a15781908596600092611296575b5050600019600383901b1c191690841b1785555b0192019201919097969594939761115c565b013590503880611270565b94601f1982169587600052846000209660005b8181106112f157509186979184889594106112d7575b505050811b018555611284565b0135600019600384901b60f8161c191690553880806112ca565b83830135895596909701968e968d9692830192016112b4565b85634e487b7160e01b60005260416004526000fd5b60405162461bcd60e51b81526004810186905260118185015270105b1c9958591e481cdd589b5a5d1d1959607a1b6044820152606490fd5b83634e487b7160e01b60005260216004526000fd5b60405162461bcd60e51b815260048101839052600b818601526a2737ba10313ab4b63232b960a91b6044820152606490fd5b60405162461bcd60e51b81526004810184905260148187015273141c9bd9dc985b481b9bdd08185c1c1c9bdd995960621b6044820152606490fd5b346102cc576113e7366125ee565b906113f0612bed565b80600052602060028152604060002060018060a01b039061141882600a830154163314612a4b565b83600052600483526040600020856000528352604060002090600482019081549160ff83166004811015610caa57600b93611457600160029314612bb0565b60ff1916179055019060008080806003878754169501948554905af13d15611555573d611483816126bb565b90611491604051928361269a565b81526000863d92013e5b1561151a57937f27d841e82fb3b2469e89e27c70f2ec8597324e08569a13460e4dd8a1a3c0b10c604082977f7099040ff4abf6b015bd1004cbf11ec796c3d4abcaec3514db1c93599297d39f975480978351928352820152a25460408051929091166001600160a01b03168252602082019290925290819081016101fd565b60405162461bcd60e51b8152600481018590526013602482015272115512081d1c985b9cd9995c8819985a5b1959606a1b6044820152606490fd5b61149b565b346102cc5760003660031901126102cc576000546040516001600160a01b039091168152602090f35b346102cc5760a03660031901126102cc576024356001600160a01b036004356084358281169060643590604435908390036102cc5783600052600260205260406000209460098601541633036116b2578181101561167e5785156116495785600a867fe3d59d03839a10c8a5a85dd0d7e5a4ac45445821c5176529d2745adf6915a16198600360a099015583600482015584600582015501846001600160601b03881b8254161790556040519485526020850152604084015260608301526080820152a1005b60405162461bcd60e51b815260206004820152600d60248201526c496e76616c696420707269636560981b6044820152606490fd5b60405162461bcd60e51b815260206004820152600c60248201526b496e76616c69642074696d6560a01b6044820152606490fd5b60405162461bcd60e51b815260206004820152600c60248201526b27b7363c9031b932b0ba37b960a11b6044820152606490fd5b346102cc5760203660031901126102cc5760043560005260086020526020604060002054604051908152f35b346102cc57611720366125ee565b90600052600360205260406000209081548110156102cc57611741916127cc565b50805460ff600560018060a01b03600185015416930154169160405191825260208201526003821015610caa576060916040820152f35b6101203660031901126102cc576004356001600160401b0381116102cc576117a490369060040161270d565b6044356001600160401b0381116102cc576117c39036906004016127b1565b9060a435906001600160a01b03821682036102cc5760c4356001600160401b0381116102cc576117f790369060040161270d565b60e4356001600160401b0381116102cc5761181690369060040161270d565b610104356001600160401b0381116102cc576118369036906004016127b1565b916024353403611eee576084356064351015611e8f576009549560405194856101c08101106001600160401b036101c088011117610bb1576101c08601604052878652602086015260408501526024356060850152606435608085015260843560a085015260c084015260e08301526101008201523361012082015260018060a01b0382166101408201526000610160820152600061018082015260006101a082015282600052600260205260406000208151815560208201518051906001600160401b038211610bb157819061191482610a626001870154612818565b602090601f8311600114611e1d57600092611e12575b50508160011b916000199060031b1c19161760018201555b600281016040830151602081519161195a83856129ac565b01916000526020600020916000905b828210611d355750505050606082015160038201556080820151600482015560a0820151600582015560c08201518051906001600160401b038211610bb15781906119c4826119bb6006870154612818565b60068701612967565b602090601f8311600114611cc357600092611cb8575b50508160011b916000199060031b1c19161760068201555b60e08201518051906001600160401b038211610bb1578190611a2482611a1b6007870154612818565b60078701612967565b602090601f8311600114611c4657600092611c3b575b50508160011b916000199060031b1c19161760078201555b600881016101008301516020815191611a6b83856129ac565b01916000526020600020916000905b828210611b5e5750505050600b600982019160018060a01b0361012085015116926001600160601b0360a01b9384825416179055600a810160018060a01b036101408601511681549060ff60a01b610160880151151560a01b169060ff60a81b610180890151151560a81b169269ffffffffffffffffffff60b01b16171717905501916101a060018060a01b039101511690825416179055611b1d600954612a3c565b60095560405160243581526001600160a01b039091169133917f808c887919683a350ed55b3499f97ed7f4093ecc5e131fadb8b075a85457af3a90602090a4005b80518051906001600160401b038211610bb157611b7f82610e0f8854612818565b602090601f8311600114611bcb579282600194936020938695600092611bc0575b5050600019600383901b1c191690841b1787555b01940191019092611a7a565b015190508d80611ba0565b908660005260206000209160005b601f1985168110611c23575083602093600196938796938794601f19811610611c0a575b505050811b018755611bb4565b015160001960f88460031b161c191690558d8080611bfd565b91926020600181928685015181550194019201611bd9565b015190508680611a3a565b9250600784016000526020600020906000935b601f1984168510611c9d576001945083601f19811610611c84575b505050811b016007820155611a52565b015160001960f88460031b161c19169055868080611c74565b81810151835560209485019460019093019290910190611c59565b0151905086806119da565b9250600684016000526020600020906000935b601f1984168510611d1a576001945083601f19811610611d01575b505050811b0160068201556119f2565b015160001960f88460031b161c19169055868080611cf1565b81810151835560209485019460019093019290910190611cd6565b80518051906001600160401b038211610bb157611d5682610e0f8854612818565b602090601f8311600114611da2579282600194936020938695600092611d97575b5050600019600383901b1c191690841b1787555b01940191019092611969565b015190508d80611d77565b908660005260206000209160005b601f1985168110611dfa575083602093600196938796938794601f19811610611de1575b505050811b018755611d8b565b015160001960f88460031b161c191690558d8080611dd4565b91926020600181928685015181550194019201611db0565b01519050868061192a565b9250600184016000526020600020906000935b601f1984168510611e74576001945083601f19811610611e5b575b505050811b016001820155611942565b015160001960f88460031b161c19169055868080611e4b565b81810151835560209485019460019093019290910190611e30565b60405162461bcd60e51b815260206004820152603160248201527f5468652053746172742074696d65206d757374206265206561726c69657220746044820152703430b7103a34329032b732103a34b6b29760791b6064820152608490fd5b60405162461bcd60e51b815260206004820152602d60248201527f546865204554482073656e7420646f6573206e6f74206d61746368207468652060448201526c70726f6772616d20707269636560981b6064820152608490fd5b346102cc5760003660031901126102cc57611f626128f8565b600080546001600160a01b0319811682556001600160a01b03167f8be0079c531659141344cd1fd0a4f28419497f9722a3daafe3b4186f6b6457e08280a3005b346102cc5760203660031901126102cc577f8c4d35e54a3f2ef1134138fd8ea3daee6a3c89e10d2665996babdf70261e2c766020600435611fe16128f8565b80600a55604051908152a1005b346102cc57611ffc366125ee565b906000526005602052604060002080548210156102cc5760209161201f91612651565b90546040519160031b1c8152f35b346102cc5760603660031901126102cc5760443580151581036102cc576004356000526002908160205260406000209161207460018060a01b03600a850154163314612a4b565b6004356000526003918260205260406000209260009360005b815481101561227b576120a081836127cc565b5054602435146120b8576120b390612a3c565b61208d565b8095506120c4916127cc565b509160058301549160ff831690811015610caa57612242571561222c5750600b8401546001600160a01b03166121f4576005818101805460ff19169093179092556001018054600b850180546001600160a01b0319166001600160a01b03928316179055600a909401805460ff60a01b1916600160a01b17905560043560008181526006602090815260408083209690965592549383528490208451602435815293909516918301919091526060928201839052927f284aa8037c280e35f0609d480c6b37226bb54c7482d25efb48ffe0dce5b6f0839282916121a991830190612b73565b0390a25b60015b156121b757005b60405162461bcd60e51b8152602060048201526015602482015274105c1c1b1a58d85d1a5bdb881b9bdd08199bdd5b99605a1b6044820152606490fd5b60405162461bcd60e51b815260206004820152601060248201526f105b1c9958591e481cd95b1958dd195960821b6044820152606490fd5b60ff1916600117600590910155506121ad915050565b60405162461bcd60e51b8152602060048201526011602482015270105b1c9958591e48195d985b1d585d1959607a1b6044820152606490fd5b505050505090506121b0565b346102cc576020806003193601126102cc576122f060043591826000526005908181526122c16122c8604060002060405192838092612b73565b038261269a565b8051946122d48661272b565b956122e2604051978861269a565b808752601f1995869161272b565b018360005b82811061250e5750505060005b825181101561240557816000526004845260406000206123228285612b5f565b51600052845260406000206040519061233a8261267f565b8054825260019061234c828201612852565b8784015261235c60028201612852565b60408401526003810154606084015260ff600482015416906004821015610caa5788916080850152019081546123918161272b565b9261239f604051948561269a565b818452600090815288812090898086015b8483106123e857505050505050906123e3929160a08201526123d2828a612b5f565b526123dd8189612b5f565b50612a3c565b612302565b859182916123f586612852565b8152019301910190918a906123b0565b505050919290604051928084019181855283518093526040850182604085841b8801019501966000925b85841061243c5787870388f35b90919293809596603f198982030185528951908151815261247e61246c8484015160c08087860152840190612604565b60408401518382036040850152612604565b906060808401519082015261249b60808085015190830190612644565b60a08093015192818303910152815180825283820190848082881b85010194019260005b8281106124e257505050505090806001929a01940194019297959493919061242f565b919395806124fc878b85600196989a030189528951612604565b970195019101918a95949391926124bf565b60405161251a8161267f565b60008152606080848301528060408301526000818301526000608083015260a082015282828b0101520184906122f5565b346102cc57612559366125ee565b81600052600260205261257d60018060a01b03600a60406000200154163314612a4b565b81600052600460205260406000208160005260205260046040600020019081549060ff8216926004841015610caa5760036020936125de60017f4e2fd11f84344693b41d2aba9910e33b34a4f02d4d3a65b65b2201f3c8fa3c899714612bb0565b60ff1916179055604051908152a2005b60409060031901126102cc576004359060243590565b919082519283825260005b848110612630575050826000602080949584010152601f8019910116010190565b60208183018101518483018201520161260f565b906004821015610caa5752565b80548210156126695760005260206000200190600090565b634e487b7160e01b600052603260045260246000fd5b60c081019081106001600160401b03821117610bb157604052565b90601f801991011681019081106001600160401b03821117610bb157604052565b6001600160401b038111610bb157601f01601f191660200190565b9291926126e2826126bb565b916126f0604051938461269a565b8294818452818301116102cc578281602093846000960137010152565b9080601f830112156102cc57816020612728933591016126d6565b90565b6001600160401b038111610bb15760051b60200190565b9291909261274f8461272b565b9161275d604051938461269a565b829480845260208094019060051b8301928284116102cc5780915b84831061278757505050505050565b82356001600160401b0381116102cc5786916127a6868493860161270d565b815201920191612778565b9080601f830112156102cc5781602061272893359101612742565b8054821015612669576000526006602060002091020190600090565b9181601f840112156102cc578235916001600160401b0383116102cc576020808501948460051b0101116102cc57565b90600182811c92168015612848575b602083101461283257565b634e487b7160e01b600052602260045260246000fd5b91607f1691612827565b906040519182600082549261286684612818565b9081845260019485811690816000146128d55750600114612892575b50506128909250038361269a565b565b9093915060005260209081600020936000915b8183106128bd57505061289093508201013880612882565b855488840185015294850194879450918301916128a5565b91505061289094506020925060ff191682840152151560051b8201013880612882565b6000546001600160a01b0316330361290c57565b606460405162461bcd60e51b815260206004820152602060248201527f4f776e61626c653a2063616c6c6572206973206e6f7420746865206f776e65726044820152fd5b81811061295b575050565b60008155600101612950565b9190601f811161297657505050565b612890926000526020600020906020601f840160051c830193106129a2575b601f0160051c0190612950565b9091508190612995565b600160401b8211610bb1578054918082558281106129c957505050565b600091825260209081832093840193015b8381106129e75750505050565b80836129f560019354612818565b80612a03575b5050016129da565b601f8082118514612a1a57505081555b83386129fb565b612a3390848452868420920160051c8201858301612950565b81835555612a13565b600019811461103d5760010190565b15612a5257565b60405162461bcd60e51b815260206004820152600d60248201526c2737ba103b30b634b230ba37b960991b6044820152606490fd5b15612a8e57565b60405162461bcd60e51b815260206004820152600d60248201526c141c9bd9dc985b48195b991959609a1b6044820152606490fd5b15612aca57565b60405162461bcd60e51b815260206004820152601060248201526f105b1c9958591e48185c1c1c9bdd995960821b6044820152606490fd5b91908110156126695760051b0190565b903590601e19813603018212156102cc57018035906001600160401b0382116102cc576020019181360383136102cc57565b9082101561266957612b5b9160051b810190612b12565b9091565b80518210156126695760209160051b010190565b90815480825260208092019260005281600020916000905b828210612b99575050505090565b835485529384019360019384019390910190612b8b565b15612bb757565b60405162461bcd60e51b815260206004820152600e60248201526d496e76616c69642073746174757360901b6044820152606490fd5b600260015414612bfe576002600155565b60405162461bcd60e51b815260206004820152601f60248201527f5265656e7472616e637947756172643a207265656e7472616e742063616c6c006044820152606490fdfea2646970667358221220ae977a61818adbf55bffd448e7192581c41029c2e06021efb0f21f446ae16b0c64736f6c63430008140033",
    "linkReferences": {},
    "deployedLinkReferences": {}
}